{
  "contractName": "ERC1155Holder",
  "abi": [
    {
      "inputs": [
        {
          "internalType": "bytes4",
          "name": "interfaceId",
          "type": "bytes4"
        }
      ],
      "name": "supportsInterface",
      "outputs": [
        {
          "internalType": "bool",
          "name": "",
          "type": "bool"
        }
      ],
      "stateMutability": "view",
      "type": "function"
    },
    {
      "inputs": [
        {
          "internalType": "address",
          "name": "",
          "type": "address"
        },
        {
          "internalType": "address",
          "name": "",
          "type": "address"
        },
        {
          "internalType": "uint256",
          "name": "",
          "type": "uint256"
        },
        {
          "internalType": "uint256",
          "name": "",
          "type": "uint256"
        },
        {
          "internalType": "bytes",
          "name": "",
          "type": "bytes"
        }
      ],
      "name": "onERC1155Received",
      "outputs": [
        {
          "internalType": "bytes4",
          "name": "",
          "type": "bytes4"
        }
      ],
      "stateMutability": "nonpayable",
      "type": "function"
    },
    {
      "inputs": [
        {
          "internalType": "address",
          "name": "",
          "type": "address"
        },
        {
          "internalType": "address",
          "name": "",
          "type": "address"
        },
        {
          "internalType": "uint256[]",
          "name": "",
          "type": "uint256[]"
        },
        {
          "internalType": "uint256[]",
          "name": "",
          "type": "uint256[]"
        },
        {
          "internalType": "bytes",
          "name": "",
          "type": "bytes"
        }
      ],
      "name": "onERC1155BatchReceived",
      "outputs": [
        {
          "internalType": "bytes4",
          "name": "",
          "type": "bytes4"
        }
      ],
      "stateMutability": "nonpayable",
      "type": "function"
    }
  ],
  "bytecode": "0x608060405234801561001057600080fd5b50610470806100206000396000f3fe608060405234801561001057600080fd5b506004361061005d577c0100000000000000000000000000000000000000000000000000000000600035046301ffc9a78114610062578063bc197c811461008a578063f23a6e61146100db575b600080fd5b6100756100703660046103a9565b610113565b60405190151581526020015b60405180910390f35b6100c261009836600461029a565b7fbc197c810000000000000000000000000000000000000000000000000000000095945050505050565b604051600160e060020a03199091168152602001610081565b6100c26100e9366004610344565b7ff23a6e610000000000000000000000000000000000000000000000000000000095945050505050565b6000600160e060020a031982167f4e2312e000000000000000000000000000000000000000000000000000000000148061017657507f01ffc9a700000000000000000000000000000000000000000000000000000000600160e060020a03198316145b92915050565b803573ffffffffffffffffffffffffffffffffffffffff811681146101a057600080fd5b919050565b600082601f8301126101b657600080fd5b8135602067ffffffffffffffff8211156101d2576101d261040b565b8082026101e08282016103da565b8381528281019086840183880185018910156101fb57600080fd5b600093505b8584101561021e578035835260019390930192918401918401610200565b50979650505050505050565b600082601f83011261023b57600080fd5b813567ffffffffffffffff8111156102555761025561040b565b610268601f8201601f19166020016103da565b81815284602083860101111561027d57600080fd5b816020850160208301376000918101602001919091529392505050565b600080600080600060a086880312156102b257600080fd5b6102bb8661017c565b94506102c96020870161017c565b9350604086013567ffffffffffffffff808211156102e657600080fd5b6102f289838a016101a5565b9450606088013591508082111561030857600080fd5b61031489838a016101a5565b9350608088013591508082111561032a57600080fd5b506103378882890161022a565b9150509295509295909350565b600080600080600060a0868803121561035c57600080fd5b6103658661017c565b94506103736020870161017c565b93506040860135925060608601359150608086013567ffffffffffffffff81111561039d57600080fd5b6103378882890161022a565b6000602082840312156103bb57600080fd5b8135600160e060020a0319811681146103d357600080fd5b9392505050565b604051601f8201601f1916810167ffffffffffffffff811182821017156104035761040361040b565b604052919050565b7f4e487b7100000000000000000000000000000000000000000000000000000000600052604160045260246000fdfea2646970667358221220abbe53753b81858662c86f9bd279e9a84e27bbf488af2f9e7803081e3c7f282f64736f6c63430008070033",
  "immutableReferences": {},
  "source": "// SPDX-License-Identifier: MIT\n// OpenZeppelin Contracts v4.4.1 (token/ERC1155/utils/ERC1155Holder.sol)\n\npragma solidity ^0.8.0;\n\nimport \"./ERC1155Receiver.sol\";\n\n/**\n * @dev _Available since v3.1._\n */\ncontract ERC1155Holder is ERC1155Receiver {\n    function onERC1155Received(\n        address,\n        address,\n        uint256,\n        uint256,\n        bytes memory\n    ) public virtual override returns (bytes4) {\n        return this.onERC1155Received.selector;\n    }\n\n    function onERC1155BatchReceived(\n        address,\n        address,\n        uint256[] memory,\n        uint256[] memory,\n        bytes memory\n    ) public virtual override returns (bytes4) {\n        return this.onERC1155BatchReceived.selector;\n    }\n}\n",
  "sourcePath": "@openzeppelin\\contracts\\token\\ERC1155\\utils\\ERC1155Holder.sol",
  "compiler": {
    "name": "solc",
    "version": "0.8.7+commit.e28d00a7.Emscripten.clang"
  },
  "schemaVersion": "3.4.3",
  "updatedAt": "2022-01-24T16:52:51.518Z",
  "devdoc": {
    "details": "_Available since v3.1._",
    "kind": "dev",
    "methods": {
      "supportsInterface(bytes4)": {
        "details": "See {IERC165-supportsInterface}."
      }
    },
    "version": 1
  },
  "userdoc": {
    "kind": "user",
    "methods": {},
    "version": 1
  }
}