{
  "contractName": "RandomNumberGenerator",
  "abi": [
    {
      "inputs": [],
      "stateMutability": "nonpayable",
      "type": "constructor"
    },
    {
      "anonymous": false,
      "inputs": [
        {
          "indexed": true,
          "internalType": "address",
          "name": "previousOwner",
          "type": "address"
        },
        {
          "indexed": true,
          "internalType": "address",
          "name": "newOwner",
          "type": "address"
        }
      ],
      "name": "OwnershipTransferred",
      "type": "event"
    },
    {
      "anonymous": false,
      "inputs": [
        {
          "indexed": false,
          "internalType": "bytes32",
          "name": "_requestId",
          "type": "bytes32"
        }
      ],
      "name": "requestedRandomness",
      "type": "event"
    },
    {
      "anonymous": false,
      "inputs": [
        {
          "indexed": false,
          "internalType": "bytes32",
          "name": "_requestId",
          "type": "bytes32"
        }
      ],
      "name": "returnedRandomness",
      "type": "event"
    },
    {
      "inputs": [],
      "name": "owner",
      "outputs": [
        {
          "internalType": "address",
          "name": "",
          "type": "address"
        }
      ],
      "stateMutability": "view",
      "type": "function"
    },
    {
      "inputs": [
        {
          "internalType": "bytes32",
          "name": "requestId",
          "type": "bytes32"
        },
        {
          "internalType": "uint256",
          "name": "randomness",
          "type": "uint256"
        }
      ],
      "name": "rawFulfillRandomness",
      "outputs": [],
      "stateMutability": "nonpayable",
      "type": "function"
    },
    {
      "inputs": [],
      "name": "renounceOwnership",
      "outputs": [],
      "stateMutability": "nonpayable",
      "type": "function"
    },
    {
      "inputs": [
        {
          "internalType": "address",
          "name": "newOwner",
          "type": "address"
        }
      ],
      "name": "transferOwnership",
      "outputs": [],
      "stateMutability": "nonpayable",
      "type": "function"
    },
    {
      "inputs": [
        {
          "internalType": "address",
          "name": "_unlimited",
          "type": "address"
        }
      ],
      "name": "setUnlimitedAddress",
      "outputs": [],
      "stateMutability": "nonpayable",
      "type": "function"
    },
    {
      "inputs": [
        {
          "internalType": "uint24",
          "name": "_myTokenId",
          "type": "uint24"
        },
        {
          "internalType": "uint24",
          "name": "_rivalTokenId",
          "type": "uint24"
        }
      ],
      "name": "getRandomNumberFight",
      "outputs": [],
      "stateMutability": "nonpayable",
      "type": "function"
    },
    {
      "inputs": [
        {
          "internalType": "enum UnlimitedEvolution.type_character",
          "name": "_typeCharacter",
          "type": "uint8"
        },
        {
          "internalType": "enum UnlimitedEvolution.gender_character",
          "name": "_genderCharacter",
          "type": "uint8"
        },
        {
          "internalType": "address",
          "name": "_address",
          "type": "address"
        }
      ],
      "name": "getRandomNumberMint",
      "outputs": [],
      "stateMutability": "nonpayable",
      "type": "function"
    },
    {
      "inputs": [
        {
          "internalType": "uint256",
          "name": "value",
          "type": "uint256"
        }
      ],
      "name": "withdraw",
      "outputs": [],
      "stateMutability": "nonpayable",
      "type": "function"
    }
  ],
  "bytecode": "0x60c060405234801561001057600080fd5b507f8c7382f9d8f56b33781fe506e897a4f1e2d1725500000000000000000000000060a0527f326c977e6efc84e512bb9c30f76e30c160ed06fb00000000000000000000000060805261007b61006d6401000000006100ae810204565b6401000000006100b2810204565b7f6e75b569a01ef56d18cab6a8e71e6600d6ce853834d4a5748b720d06f878b3a4600255655af3107a4000600355610104565b3390565b60018054600160a060020a03838116600160a060020a0319831681179093556040519116919082907f8be0079c531659141344cd1fd0a4f28419497f9722a3daafe3b4186f6b6457e090600090a35050565b6080516c01000000000000000000000000900460a0516c010000000000000000000000009004610f7b6101656000396000818161048e0152610854015260008181610205015281816103260152818161065901526108250152610f7b6000f3fe608060405234801561001057600080fd5b506004361061008c5760003560e060020a900480638da5cb5b1161005f5780638da5cb5b146100d457806394985ddd146100f3578063f2fde38b14610106578063f93b8f441461011957600080fd5b8063062970b5146100915780632e1a7d4d146100a657806344b0af8d146100b9578063715018a6146100cc575b600080fd5b6100a461009f366004610c62565b61012c565b005b6100a46100b4366004610d42565b6101a3565b6100a46100c7366004610d0f565b61028d565b6100a461044a565b60015460408051600160a060020a039092168252519081900360200190f35b6100a4610101366004610ca6565b610483565b6100a4610114366004610c62565b610508565b6100a4610127366004610cc8565b6105c0565b600154600160a060020a031633146101625760405160e560020a62461bcd02815260040161015990610e7b565b60405180910390fd5b60048054600160a060020a03909216670100000000000000027affffffffffffffffffffffffffffffffffffffff0000000000000019909216919091179055565b600154600160a060020a031633146101d05760405160e560020a62461bcd02815260040161015990610e7b565b6040517fa9059cbb000000000000000000000000000000000000000000000000000000008152336004820152602481018290527f0000000000000000000000000000000000000000000000000000000000000000600160a060020a03169063a9059cbb90604401602060405180830381600087803b15801561025157600080fd5b505af1158015610265573d6000803e3d6000fd5b505050506040513d601f19601f820116820180604052508101906102899190610c84565b5050565b6004546701000000000000009004600160a060020a031633146102f55760405160e560020a62461bcd02815260206004820181905260248201527f4e6f7420616c6c6f77656420746f2075736520746869732066756e6374696f6e6044820152606401610159565b6003546040517f70a082310000000000000000000000000000000000000000000000000000000081523060048201527f0000000000000000000000000000000000000000000000000000000000000000600160a060020a0316906370a082319060240160206040518083038186803b15801561037057600080fd5b505afa158015610384573d6000803e3d6000fd5b505050506040513d601f19601f820116820180604052508101906103a89190610d5b565b10156103c95760405160e560020a62461bcd02815260040161015990610e1e565b60006103d9600254600354610821565b60008181526006602052604090819020805462ffffff86811663010000000265ffffffffffff1990921690881617179055519091507f55ed974a51aa5443394b8136510c290cd2f01456cf37dec995cc0cc574a781739061043d9083815260200190565b60405180910390a1505050565b600154600160a060020a031633146104775760405160e560020a62461bcd02815260040161015990610e7b565b61048160006109ab565b565b33600160a060020a037f000000000000000000000000000000000000000000000000000000000000000016146104fe5760405160e560020a62461bcd02815260206004820152601f60248201527f4f6e6c7920565246436f6f7264696e61746f722063616e2066756c66696c6c006044820152606401610159565b6102898282610a0a565b600154600160a060020a031633146105355760405160e560020a62461bcd02815260040161015990610e7b565b600160a060020a0381166105b45760405160e560020a62461bcd02815260206004820152602660248201527f4f776e61626c653a206e6577206f776e657220697320746865207a65726f206160448201527f64647265737300000000000000000000000000000000000000000000000000006064820152608401610159565b6105bd816109ab565b50565b6004546701000000000000009004600160a060020a031633146106285760405160e560020a62461bcd02815260206004820181905260248201527f4e6f7420616c6c6f77656420746f2075736520746869732066756e6374696f6e6044820152606401610159565b6003546040517f70a082310000000000000000000000000000000000000000000000000000000081523060048201527f0000000000000000000000000000000000000000000000000000000000000000600160a060020a0316906370a082319060240160206040518083038186803b1580156106a357600080fd5b505afa1580156106b7573d6000803e3d6000fd5b505050506040513d601f19601f820116820180604052508101906106db9190610d5b565b10156106fc5760405160e560020a62461bcd02815260040161015990610e1e565b600061070c600254600354610821565b60008181526005602052604090208054919250859160ff1916600183600281111561073957610739610efe565b02179055506000818152600560205260409020805484919061ff00191661010083600281111561076b5761076b610efe565b021790555060008181526005602052604090819020805476ff0000000000000000000000000000000000000000000019600160a060020a03861662010000021676ffffffffffffffffffffffffffffffffffffffffff00001990911617760100000000000000000000000000000000000000000000179055517f55ed974a51aa5443394b8136510c290cd2f01456cf37dec995cc0cc574a78173906108139083815260200190565b60405180910390a150505050565b60007f0000000000000000000000000000000000000000000000000000000000000000600160a060020a0316634000aea07f000000000000000000000000000000000000000000000000000000000000000084866000604051602001610891929190918252602082015260400190565b60408051601f198184030181529082905260e060020a63ffffffff86160282526108bf939291600401610d74565b602060405180830381600087803b1580156108d957600080fd5b505af11580156108ed573d6000803e3d6000fd5b505050506040513d601f19601f820116820180604052508101906109119190610c84565b5060008381526020818152604080832054815180840188905280830185905230606082015260808082018390528351808303909101815260a09091019092528151918301919091208684529290915261096b906001610eb0565b6000858152602081815260409182902092909255805180830187905280820184905281518082038301815260609091019091528051910120949350505050565b60018054600160a060020a0383811673ffffffffffffffffffffffffffffffffffffffff19831681179093556040519116919082907f8be0079c531659141344cd1fd0a4f28419497f9722a3daafe3b4186f6b6457e090600090a35050565b60008111610a5d5760405160e560020a62461bcd02815260206004820152601b60248201527f52616e646f6d6e657373206e756d626572206e6f7420666f756e6400000000006044820152606401610159565b600082815260056020526040902054760100000000000000000000000000000000000000000000900460ff1615610b5157600454600083815260056020526040902054670100000000000000909104600160a060020a03169063db48a8889060ff80821691610100900416610ad9662386f26fc1000086610ed9565b6000878152600560205260409081902054905163ffffffff861660e060020a028152610b1a94939291620100009004600160a060020a031690600401610de1565b600060405180830381600087803b158015610b3457600080fd5b505af1158015610b48573d6000803e3d6000fd5b50505050610bfc565b600454600083815260066020526040902054670100000000000000909104600160a060020a031690633aba1fca9062ffffff808216916301000000900416610b9a600386610ed9565b60405160e060020a63ffffffff861602815262ffffff93841660048201529290911660248301526044820152606401600060405180830381600087803b158015610be357600080fd5b505af1158015610bf7573d6000803e3d6000fd5b505050505b6040518281527f061be4d6e775d1f455e2953c7f17fdf235abc17b93dba221ddd94ccb44f735f19060200160405180910390a15050565b8035600160a060020a0381168114610c4a57600080fd5b919050565b803562ffffff81168114610c4a57600080fd5b600060208284031215610c7457600080fd5b610c7d82610c33565b9392505050565b600060208284031215610c9657600080fd5b81518015158114610c7d57600080fd5b60008060408385031215610cb957600080fd5b50508035926020909101359150565b600080600060608486031215610cdd57600080fd5b8335610ce881610f38565b92506020840135610cf881610f38565b9150610d0660408501610c33565b90509250925092565b60008060408385031215610d2257600080fd5b610d2b83610c4f565b9150610d3960208401610c4f565b90509250929050565b600060208284031215610d5457600080fd5b5035919050565b600060208284031215610d6d57600080fd5b5051919050565b600160a060020a038416815260006020848184015260606040840152835180606085015260005b81811015610db757858101830151858201608001528201610d9b565b81811115610dc9576000608083870101525b50601f01601f19169290920160800195945050505050565b60808101610dee86610f17565b858252610dfa85610f17565b846020830152836040830152600160a060020a038316606083015295945050505050565b6020808252602b908201527f4e6f7420656e6f756768204c494e4b202d2066696c6c20636f6e74726163742060408201527f7769746820666175636574000000000000000000000000000000000000000000606082015260800190565b6020808252818101527f4f776e61626c653a2063616c6c6572206973206e6f7420746865206f776e6572604082015260600190565b60008219821115610ed45760e060020a634e487b7102600052601160045260246000fd5b500190565b600082610ef95760e060020a634e487b7102600052601260045260246000fd5b500690565b60e060020a634e487b7102600052602160045260246000fd5b600381106105bd5760e060020a634e487b7102600052602160045260246000fd5b600381106105bd57600080fdfea26469706673582212204a2d2339f1ee7c7411d198564e6b8f9d5228e041be3f6765b3cc7ce50b5b0eb464736f6c63430008070033",
  "immutableReferences": {
    "73": [
      {
        "length": 32,
        "start": 517
      },
      {
        "length": 32,
        "start": 806
      },
      {
        "length": 32,
        "start": 1625
      },
      {
        "length": 32,
        "start": 2085
      }
    ],
    "75": [
      {
        "length": 32,
        "start": 1166
      },
      {
        "length": 32,
        "start": 2132
      }
    ]
  },
  "source": "// SPDX-License-Identifier: MIT\r\npragma solidity 0.8.7;\r\n\r\nimport \"@chainlink/contracts/src/v0.8/VRFConsumerBase.sol\";\r\nimport \"@openzeppelin/contracts/access/Ownable.sol\";\r\nimport \"./UnlimitedEvolution.sol\";\r\n\r\n/** @title Random Number Generator */\r\ncontract RandomNumberGenerator is VRFConsumerBase, Ownable {\r\n    \r\n    bytes32 internal keyHash;\r\n    uint256 internal fee;\r\n    uint24 myTokenId;\r\n    uint24 rivalTokenId;\r\n    bool mint;\r\n    UnlimitedEvolution unlimited;\r\n    \r\n    struct Minter {\r\n        UnlimitedEvolution.type_character typeCharacter;    \r\n        UnlimitedEvolution.gender_character genderCharacter;\r\n        address requestor;\r\n        bool mint;\r\n    }\r\n\r\n    struct Fighter {\r\n        uint24 myTokenId;\r\n        uint24 rivalTokenId;\r\n    }\r\n\r\n    // Mapping from account to his number of NFTs\r\n    mapping(bytes32 => Minter) private requestorMintDetails;\r\n\r\n    // Mapping from account to his number of NFTs\r\n    mapping(bytes32 => Fighter) private requestorFightDetails;\r\n\r\n    /**\r\n     * @dev Emitted when getRandomNumber has been successfully executed. Return the ID unique to a single request.\r\n     */\r\n    event requestedRandomness(bytes32 _requestId);\r\n\r\n    /**\r\n     * @dev Emitted when getRandomNumber has been successfully returned. Return the ID unique to a single request.\r\n     */\r\n    event returnedRandomness(bytes32 _requestId);\r\n    \r\n    /**\r\n     * @dev Constructor inherits VRFConsumerBase\r\n     * Network: Mumbai\r\n     * Chainlink VRF Coordinator address: 0x8C7382F9D8f56b33781fE506E897a4F1e2d17255\r\n     * LINK token address: 0x326C977E6efc84E512bB9C30f76E30c160eD06FB\r\n     * Key Hash: 0x6e75b569a01ef56d18cab6a8e71e6600d6ce853834d4a5748b720d06f878b3a4\r\n     */\r\n    constructor() \r\n        VRFConsumerBase(\r\n            0x8C7382F9D8f56b33781fE506E897a4F1e2d17255,\r\n            0x326C977E6efc84E512bB9C30f76E30c160eD06FB\r\n        )\r\n    {\r\n        keyHash = 0x6e75b569a01ef56d18cab6a8e71e6600d6ce853834d4a5748b720d06f878b3a4;\r\n        fee = 100000000000000; // 0.0001 LINK\r\n    }\r\n\r\n    /** \r\n     * @dev Change the address of the contract UnlimitedEvolution.\r\n     * @param _unlimited Address of the contract UnlimitedEvolution.\r\n     */\r\n    function setUnlimitedAddress(address _unlimited) external onlyOwner {\r\n        unlimited = UnlimitedEvolution(_unlimited);\r\n    }\r\n\r\n    /** \r\n     * @dev Requests randomness before a fight\r\n     * @param _myTokenId Id of the token number 1.\r\n     * @param _rivalTokenId Id of the token number 2.\r\n     */\r\n    function getRandomNumberFight(uint24 _myTokenId, uint24 _rivalTokenId) external {\r\n        require(msg.sender == address(unlimited), \"Not allowed to use this function\");\r\n        require(LINK.balanceOf(address(this)) >= fee, \"Not enough LINK - fill contract with faucet\");\r\n        bytes32 requestId = requestRandomness(keyHash, fee);\r\n        requestorFightDetails[requestId].myTokenId = _myTokenId;\r\n        requestorFightDetails[requestId].rivalTokenId = _rivalTokenId;\r\n        emit requestedRandomness(requestId);\r\n    }\r\n\r\n    /** \r\n     * @dev Requests randomness before to mint a character\r\n     * @param _typeCharacter Type of character between BRUTE, SPIRITUAL, ELEMENTARY.\r\n     * @param _genderCharacter Gender of character between MASCULINE, FEMININE, OTHER.\r\n     * @param _address Address of the original requestor.\r\n     */\r\n    function getRandomNumberMint(UnlimitedEvolution.type_character _typeCharacter, UnlimitedEvolution.gender_character _genderCharacter, address _address) external {\r\n        require(msg.sender == address(unlimited), \"Not allowed to use this function\");\r\n        require(LINK.balanceOf(address(this)) >= fee, \"Not enough LINK - fill contract with faucet\");\r\n        bytes32 requestId = requestRandomness(keyHash, fee);\r\n        requestorMintDetails[requestId].typeCharacter = _typeCharacter;\r\n        requestorMintDetails[requestId].genderCharacter = _genderCharacter;\r\n        requestorMintDetails[requestId].requestor = _address;\r\n        requestorMintDetails[requestId].mint = true;\r\n        emit requestedRandomness(requestId);\r\n    }\r\n\r\n    /**\r\n     * @dev Callback function used by VRF Coordinator\r\n     * @param requestId Id initially returned by requestRandomness.\r\n     * @param randomness Random number generated by Chainlink VRF.\r\n     */\r\n    function fulfillRandomness(bytes32 requestId, uint256 randomness) internal override {\r\n        require(randomness > 0, \"Randomness number not found\");\r\n        if (requestorMintDetails[requestId].mint) {\r\n            unlimited.createCharacter(requestorMintDetails[requestId].typeCharacter, requestorMintDetails[requestId].genderCharacter, randomness % 10**16, requestorMintDetails[requestId].requestor);\r\n        } else {\r\n            unlimited.fight(requestorFightDetails[requestId].myTokenId, requestorFightDetails[requestId].rivalTokenId, randomness % 3);\r\n        }\r\n        emit returnedRandomness(requestId);\r\n    }\r\n\r\n    /**\r\n     * @dev Owner withdraws an amount of LINK.\r\n     * @param value Amount of LINK.\r\n     */\r\n    function withdraw(uint256 value) external onlyOwner {\r\n        LINK.transfer(msg.sender, value);\r\n    }\r\n}",
  "sourcePath": "D:\\TAF\\Alyra\\ALYRA_PROJET_FINAL\\unlimited_evolution\\contracts\\RandomNumberGenerator.sol",
  "compiler": {
    "name": "solc",
    "version": "0.8.7+commit.e28d00a7.Emscripten.clang"
  },
  "schemaVersion": "3.4.3",
  "updatedAt": "2022-01-23T17:02:59.326Z",
  "devdoc": {
    "events": {
      "requestedRandomness(bytes32)": {
        "details": "Emitted when getRandomNumber has been successfully executed. Return the ID unique to a single request."
      },
      "returnedRandomness(bytes32)": {
        "details": "Emitted when getRandomNumber has been successfully returned. Return the ID unique to a single request."
      }
    },
    "kind": "dev",
    "methods": {
      "constructor": {
        "details": "Constructor inherits VRFConsumerBase Network: Mumbai Chainlink VRF Coordinator address: 0x8C7382F9D8f56b33781fE506E897a4F1e2d17255 LINK token address: 0x326C977E6efc84E512bB9C30f76E30c160eD06FB Key Hash: 0x6e75b569a01ef56d18cab6a8e71e6600d6ce853834d4a5748b720d06f878b3a4"
      },
      "getRandomNumberFight(uint24,uint24)": {
        "details": "Requests randomness before a fight",
        "params": {
          "_myTokenId": "Id of the token number 1.",
          "_rivalTokenId": "Id of the token number 2."
        }
      },
      "getRandomNumberMint(uint8,uint8,address)": {
        "details": "Requests randomness before to mint a character",
        "params": {
          "_address": "Address of the original requestor.",
          "_genderCharacter": "Gender of character between MASCULINE, FEMININE, OTHER.",
          "_typeCharacter": "Type of character between BRUTE, SPIRITUAL, ELEMENTARY."
        }
      },
      "owner()": {
        "details": "Returns the address of the current owner."
      },
      "renounceOwnership()": {
        "details": "Leaves the contract without owner. It will not be possible to call `onlyOwner` functions anymore. Can only be called by the current owner. NOTE: Renouncing ownership will leave the contract without an owner, thereby removing any functionality that is only available to the owner."
      },
      "setUnlimitedAddress(address)": {
        "details": "Change the address of the contract UnlimitedEvolution.",
        "params": {
          "_unlimited": "Address of the contract UnlimitedEvolution."
        }
      },
      "transferOwnership(address)": {
        "details": "Transfers ownership of the contract to a new account (`newOwner`). Can only be called by the current owner."
      },
      "withdraw(uint256)": {
        "details": "Owner withdraws an amount of LINK.",
        "params": {
          "value": "Amount of LINK."
        }
      }
    },
    "title": "Random Number Generator ",
    "version": 1
  },
  "userdoc": {
    "kind": "user",
    "methods": {},
    "version": 1
  }
}