{
  "contractName": "RandomNumberGenerator",
  "abi": [
    {
      "inputs": [],
      "stateMutability": "nonpayable",
      "type": "constructor"
    },
    {
      "anonymous": false,
      "inputs": [
        {
          "indexed": true,
          "internalType": "address",
          "name": "previousOwner",
          "type": "address"
        },
        {
          "indexed": true,
          "internalType": "address",
          "name": "newOwner",
          "type": "address"
        }
      ],
      "name": "OwnershipTransferred",
      "type": "event"
    },
    {
      "anonymous": false,
      "inputs": [
        {
          "indexed": false,
          "internalType": "bytes32",
          "name": "_requestId",
          "type": "bytes32"
        }
      ],
      "name": "requestedRandomness",
      "type": "event"
    },
    {
      "inputs": [],
      "name": "owner",
      "outputs": [
        {
          "internalType": "address",
          "name": "",
          "type": "address"
        }
      ],
      "stateMutability": "view",
      "type": "function",
      "constant": true
    },
    {
      "inputs": [
        {
          "internalType": "bytes32",
          "name": "requestId",
          "type": "bytes32"
        },
        {
          "internalType": "uint256",
          "name": "randomness",
          "type": "uint256"
        }
      ],
      "name": "rawFulfillRandomness",
      "outputs": [],
      "stateMutability": "nonpayable",
      "type": "function"
    },
    {
      "inputs": [],
      "name": "renounceOwnership",
      "outputs": [],
      "stateMutability": "nonpayable",
      "type": "function"
    },
    {
      "inputs": [
        {
          "internalType": "address",
          "name": "newOwner",
          "type": "address"
        }
      ],
      "name": "transferOwnership",
      "outputs": [],
      "stateMutability": "nonpayable",
      "type": "function"
    },
    {
      "inputs": [
        {
          "internalType": "address",
          "name": "_unlimited",
          "type": "address"
        }
      ],
      "name": "setUnlimitedAddress",
      "outputs": [],
      "stateMutability": "nonpayable",
      "type": "function"
    },
    {
      "inputs": [
        {
          "internalType": "enum UnlimitedEvolution.type_character",
          "name": "_typeCharacter",
          "type": "uint8"
        },
        {
          "internalType": "enum UnlimitedEvolution.gender_character",
          "name": "_genderCharacter",
          "type": "uint8"
        },
        {
          "internalType": "address",
          "name": "_address",
          "type": "address"
        }
      ],
      "name": "getRandomNumber",
      "outputs": [],
      "stateMutability": "nonpayable",
      "type": "function"
    },
    {
      "inputs": [
        {
          "internalType": "uint256",
          "name": "value",
          "type": "uint256"
        }
      ],
      "name": "withdraw",
      "outputs": [],
      "stateMutability": "nonpayable",
      "type": "function"
    }
  ],
  "bytecode": "0x60c060405234801561001057600080fd5b507f8c7382f9d8f56b33781fe506e897a4f1e2d1725500000000000000000000000060a0527f326c977e6efc84e512bb9c30f76e30c160ed06fb00000000000000000000000060805261007b61006d6401000000006100ae810204565b6401000000006100b2810204565b7f6e75b569a01ef56d18cab6a8e71e6600d6ce853834d4a5748b720d06f878b3a4600255655af3107a4000600355610104565b3390565b60018054600160a060020a03838116600160a060020a0319831681179093556040519116919082907f8be0079c531659141344cd1fd0a4f28419497f9722a3daafe3b4186f6b6457e090600090a35050565b6080516c01000000000000000000000000900460a0516c010000000000000000000000009004610bb361015e600039600081816102a101526107b70152600081816101d50152818161034c01526107880152610bb36000f3fe608060405234801561001057600080fd5b50600436106100815760003560e060020a900480638da5cb5b1161005f5780638da5cb5b146100b657806394985ddd146100d5578063c8345a34146100e8578063f2fde38b146100fb57600080fd5b8063062970b5146100865780632e1a7d4d1461009b578063715018a6146100ae575b600080fd5b61009961009436600461092a565b61010e565b005b6100996100a93660046109d7565b610173565b61009961025d565b60015460408051600160a060020a039092168252519081900360200190f35b6100996100e336600461096e565b610296565b6100996100f6366004610990565b61031b565b61009961010936600461092a565b61055a565b600154600160a060020a031633146101445760405160e560020a62461bcd02815260040161013b90610ab3565b60405180910390fd5b6004805473ffffffffffffffffffffffffffffffffffffffff1916600160a060020a0392909216919091179055565b600154600160a060020a031633146101a05760405160e560020a62461bcd02815260040161013b90610ab3565b6040517fa9059cbb000000000000000000000000000000000000000000000000000000008152336004820152602481018290527f0000000000000000000000000000000000000000000000000000000000000000600160a060020a03169063a9059cbb90604401602060405180830381600087803b15801561022157600080fd5b505af1158015610235573d6000803e3d6000fd5b505050506040513d601f19601f82011682018060405250810190610259919061094c565b5050565b600154600160a060020a0316331461028a5760405160e560020a62461bcd02815260040161013b90610ab3565b6102946000610612565b565b33600160a060020a037f000000000000000000000000000000000000000000000000000000000000000016146103115760405160e560020a62461bcd02815260206004820152601f60248201527f4f6e6c7920565246436f6f7264696e61746f722063616e2066756c66696c6c00604482015260640161013b565b6102598282610671565b6003546040517f70a082310000000000000000000000000000000000000000000000000000000081523060048201527f0000000000000000000000000000000000000000000000000000000000000000600160a060020a0316906370a082319060240160206040518083038186803b15801561039657600080fd5b505afa1580156103aa573d6000803e3d6000fd5b505050506040513d601f19601f820116820180604052508101906103ce91906109f0565b10156104455760405160e560020a62461bcd02815260206004820152602b60248201527f4e6f7420656e6f756768204c494e4b202d2066696c6c20636f6e74726163742060448201527f7769746820666175636574000000000000000000000000000000000000000000606482015260840161013b565b6004805484919074ff000000000000000000000000000000000000000019167401000000000000000000000000000000000000000083600281111561048c5761048c610b36565b02179055506004805483919075ff000000000000000000000000000000000000000000191675010000000000000000000000000000000000000000008360028111156104da576104da610b36565b02179055506005805473ffffffffffffffffffffffffffffffffffffffff1916600160a060020a03831617905560025460035460009161051991610784565b90507f55ed974a51aa5443394b8136510c290cd2f01456cf37dec995cc0cc574a781738160405161054c91815260200190565b60405180910390a150505050565b600154600160a060020a031633146105875760405160e560020a62461bcd02815260040161013b90610ab3565b600160a060020a0381166106065760405160e560020a62461bcd02815260206004820152602660248201527f4f776e61626c653a206e6577206f776e657220697320746865207a65726f206160448201527f6464726573730000000000000000000000000000000000000000000000000000606482015260840161013b565b61060f81610612565b50565b60018054600160a060020a0383811673ffffffffffffffffffffffffffffffffffffffff19831681179093556040519116919082907f8be0079c531659141344cd1fd0a4f28419497f9722a3daafe3b4186f6b6457e090600090a35050565b600081116106c45760405160e560020a62461bcd02815260206004820152601b60248201527f52616e646f6d6e657373206e756d626572206e6f7420666f756e640000000000604482015260640161013b565b600454600160a060020a0381169063db48a8889060ff7401000000000000000000000000000000000000000082048116917501000000000000000000000000000000000000000000900416610720662386f26fc1000086610b11565b60055460405160e060020a63ffffffff871602815261074e94939291600160a060020a031690600401610a76565b600060405180830381600087803b15801561076857600080fd5b505af115801561077c573d6000803e3d6000fd5b505050505050565b60007f0000000000000000000000000000000000000000000000000000000000000000600160a060020a0316634000aea07f0000000000000000000000000000000000000000000000000000000000000000848660006040516020016107f4929190918252602082015260400190565b60408051601f198184030181529082905260e060020a63ffffffff8616028252610822939291600401610a09565b602060405180830381600087803b15801561083c57600080fd5b505af1158015610850573d6000803e3d6000fd5b505050506040513d601f19601f82011682018060405250810190610874919061094c565b5060008381526020818152604080832054815180840188905280830185905230606082015260808082018390528351808303909101815260a0909101909252815191830191909120868452929091526108ce906001610ae8565b6000858152602081815260409182902092909255805180830187905280820184905281518082038301815260609091019091528051910120949350505050565b8035600160a060020a038116811461092557600080fd5b919050565b60006020828403121561093c57600080fd5b6109458261090e565b9392505050565b60006020828403121561095e57600080fd5b8151801515811461094557600080fd5b6000806040838503121561098157600080fd5b50508035926020909101359150565b6000806000606084860312156109a557600080fd5b83356109b081610b70565b925060208401356109c081610b70565b91506109ce6040850161090e565b90509250925092565b6000602082840312156109e957600080fd5b5035919050565b600060208284031215610a0257600080fd5b5051919050565b600160a060020a038416815260006020848184015260606040840152835180606085015260005b81811015610a4c57858101830151858201608001528201610a30565b81811115610a5e576000608083870101525b50601f01601f19169290920160800195945050505050565b60808101610a8386610b4f565b858252610a8f85610b4f565b846020830152836040830152600160a060020a038316606083015295945050505050565b6020808252818101527f4f776e61626c653a2063616c6c6572206973206e6f7420746865206f776e6572604082015260600190565b60008219821115610b0c5760e060020a634e487b7102600052601160045260246000fd5b500190565b600082610b315760e060020a634e487b7102600052601260045260246000fd5b500690565b60e060020a634e487b7102600052602160045260246000fd5b6003811061060f5760e060020a634e487b7102600052602160045260246000fd5b6003811061060f57600080fdfea2646970667358221220337c2ff013ddadcf482fd53dfbddf3c27a4f242163e67d745a2f4fde39abd02564736f6c63430008070033",
  "immutableReferences": {
    "73": [
      {
        "length": 32,
        "start": 469
      },
      {
        "length": 32,
        "start": 844
      },
      {
        "length": 32,
        "start": 1928
      }
    ],
    "75": [
      {
        "length": 32,
        "start": 673
      },
      {
        "length": 32,
        "start": 1975
      }
    ]
  },
  "source": "// SPDX-License-Identifier: MIT\r\npragma solidity 0.8.7;\r\n\r\nimport \"@chainlink/contracts/src/v0.8/VRFConsumerBase.sol\";\r\nimport \"@openzeppelin/contracts/access/Ownable.sol\";\r\nimport \"./UnlimitedEvolution.sol\";\r\n\r\n/**\r\n * THIS IS AN EXAMPLE CONTRACT WHICH USES HARDCODED VALUES FOR CLARITY.\r\n * PLEASE DO NOT USE THIS CODE IN PRODUCTION.\r\n */\r\n\r\n/**\r\n * Request testnet LINK and ETH here: https://faucets.chain.link/\r\n * Find information on LINK Token Contracts and get the latest ETH and LINK faucets here: https://docs.chain.link/docs/link-token-contracts/\r\n */\r\n \r\ncontract RandomNumberGenerator is VRFConsumerBase, Ownable {\r\n    \r\n    bytes32 internal keyHash;\r\n    uint256 internal fee;\r\n\r\n    UnlimitedEvolution unlimited;\r\n    UnlimitedEvolution.type_character typeCharacter;\r\n    UnlimitedEvolution.gender_character genderCharacter;\r\n    address requestor;\r\n\r\n    event requestedRandomness(bytes32 _requestId);\r\n    \r\n    /**\r\n     * Constructor inherits VRFConsumerBase\r\n     * \r\n     * Network: Mumbai\r\n     * Chainlink VRF Coordinator address: 0x8C7382F9D8f56b33781fE506E897a4F1e2d17255\r\n     * LINK token address:                0x326C977E6efc84E512bB9C30f76E30c160eD06FB\r\n     * Key Hash: 0x6e75b569a01ef56d18cab6a8e71e6600d6ce853834d4a5748b720d06f878b3a4\r\n     */\r\n    constructor() \r\n        VRFConsumerBase(\r\n            0x8C7382F9D8f56b33781fE506E897a4F1e2d17255, // VRF Coordinator\r\n            0x326C977E6efc84E512bB9C30f76E30c160eD06FB  // LINK Token\r\n        )\r\n    {\r\n        keyHash = 0x6e75b569a01ef56d18cab6a8e71e6600d6ce853834d4a5748b720d06f878b3a4;\r\n        fee = 100000000000000; // 0.0001 LINK\r\n    }\r\n\r\n    /** \r\n     * Change the address of the contract UnlimitedEvolution\r\n     */\r\n    function setUnlimitedAddress(address _unlimited) external onlyOwner {\r\n        unlimited = UnlimitedEvolution(_unlimited);\r\n    }\r\n\r\n    /** \r\n     * Requests randomness \r\n     */\r\n    function getRandomNumber(UnlimitedEvolution.type_character _typeCharacter, UnlimitedEvolution.gender_character _genderCharacter, address _address) public {\r\n        require(LINK.balanceOf(address(this)) >= fee, \"Not enough LINK - fill contract with faucet\");\r\n        typeCharacter = _typeCharacter;\r\n        genderCharacter = _genderCharacter;\r\n        requestor = _address;\r\n        bytes32 requestId = requestRandomness(keyHash, fee);\r\n        emit requestedRandomness(requestId);\r\n    }\r\n\r\n    /**\r\n     * Callback function used by VRF Coordinator\r\n     */\r\n    function fulfillRandomness(bytes32 requestId, uint256 randomness) internal override {\r\n        require(randomness > 0, \"Randomness number not found\");\r\n        unlimited.createCharacter(typeCharacter, genderCharacter, randomness % 10**16, requestor);\r\n    }\r\n\r\n    /**\r\n     * Withdraw Link\r\n     */\r\n    function withdraw(uint256 value) external onlyOwner {\r\n        LINK.transfer(msg.sender, value);\r\n    }\r\n}",
  "sourcePath": "D:\\TAF\\Alyra\\ALYRA_PROJET_FINAL\\unlimited_evolution\\contracts\\RandomNumberGenerator.sol",
  "compiler": {
    "name": "solc",
    "version": "0.8.7+commit.e28d00a7.Emscripten.clang"
  },
  "schemaVersion": "3.4.3",
  "updatedAt": "2022-01-15T21:31:47.826Z",
  "networkType": "ethereum",
  "devdoc": {
    "kind": "dev",
    "methods": {
      "owner()": {
        "details": "Returns the address of the current owner."
      },
      "renounceOwnership()": {
        "details": "Leaves the contract without owner. It will not be possible to call `onlyOwner` functions anymore. Can only be called by the current owner. NOTE: Renouncing ownership will leave the contract without an owner, thereby removing any functionality that is only available to the owner."
      },
      "transferOwnership(address)": {
        "details": "Transfers ownership of the contract to a new account (`newOwner`). Can only be called by the current owner."
      }
    },
    "version": 1
  },
  "userdoc": {
    "kind": "user",
    "methods": {
      "constructor": {
        "notice": "Constructor inherits VRFConsumerBase  Network: Mumbai Chainlink VRF Coordinator address: 0x8C7382F9D8f56b33781fE506E897a4F1e2d17255 LINK token address:                0x326C977E6efc84E512bB9C30f76E30c160eD06FB Key Hash: 0x6e75b569a01ef56d18cab6a8e71e6600d6ce853834d4a5748b720d06f878b3a4"
      },
      "getRandomNumber(uint8,uint8,address)": {
        "notice": "Requests randomness "
      },
      "setUnlimitedAddress(address)": {
        "notice": "Change the address of the contract UnlimitedEvolution"
      },
      "withdraw(uint256)": {
        "notice": "Withdraw Link"
      }
    },
    "notice": "Request testnet LINK and ETH here: https://faucets.chain.link/ Find information on LINK Token Contracts and get the latest ETH and LINK faucets here: https://docs.chain.link/docs/link-token-contracts/",
    "version": 1
  }
}