{
  "contractName": "RandomNumberGenerator",
  "abi": [
    {
      "inputs": [],
      "stateMutability": "nonpayable",
      "type": "constructor"
    },
    {
      "anonymous": false,
      "inputs": [
        {
          "indexed": true,
          "internalType": "address",
          "name": "previousOwner",
          "type": "address"
        },
        {
          "indexed": true,
          "internalType": "address",
          "name": "newOwner",
          "type": "address"
        }
      ],
      "name": "OwnershipTransferred",
      "type": "event"
    },
    {
      "anonymous": false,
      "inputs": [
        {
          "indexed": false,
          "internalType": "bytes32",
          "name": "_requestId",
          "type": "bytes32"
        }
      ],
      "name": "requestedRandomness",
      "type": "event"
    },
    {
      "inputs": [],
      "name": "owner",
      "outputs": [
        {
          "internalType": "address",
          "name": "",
          "type": "address"
        }
      ],
      "stateMutability": "view",
      "type": "function"
    },
    {
      "inputs": [
        {
          "internalType": "bytes32",
          "name": "requestId",
          "type": "bytes32"
        },
        {
          "internalType": "uint256",
          "name": "randomness",
          "type": "uint256"
        }
      ],
      "name": "rawFulfillRandomness",
      "outputs": [],
      "stateMutability": "nonpayable",
      "type": "function"
    },
    {
      "inputs": [],
      "name": "renounceOwnership",
      "outputs": [],
      "stateMutability": "nonpayable",
      "type": "function"
    },
    {
      "inputs": [
        {
          "internalType": "address",
          "name": "newOwner",
          "type": "address"
        }
      ],
      "name": "transferOwnership",
      "outputs": [],
      "stateMutability": "nonpayable",
      "type": "function"
    },
    {
      "inputs": [
        {
          "internalType": "address",
          "name": "_unlimited",
          "type": "address"
        }
      ],
      "name": "setUnlimitedAddress",
      "outputs": [],
      "stateMutability": "nonpayable",
      "type": "function"
    },
    {
      "inputs": [
        {
          "internalType": "enum UnlimitedEvolution.type_character",
          "name": "_typeCharacter",
          "type": "uint8"
        },
        {
          "internalType": "enum UnlimitedEvolution.gender_character",
          "name": "_genderCharacter",
          "type": "uint8"
        },
        {
          "internalType": "address",
          "name": "_address",
          "type": "address"
        }
      ],
      "name": "getRandomNumber",
      "outputs": [],
      "stateMutability": "nonpayable",
      "type": "function"
    },
    {
      "inputs": [
        {
          "internalType": "uint256",
          "name": "value",
          "type": "uint256"
        }
      ],
      "name": "withdraw",
      "outputs": [],
      "stateMutability": "nonpayable",
      "type": "function"
    }
  ],
  "bytecode": "0x60c060405234801561001057600080fd5b507f8c7382f9d8f56b33781fe506e897a4f1e2d1725500000000000000000000000060a0527f326c977e6efc84e512bb9c30f76e30c160ed06fb00000000000000000000000060805261007b61006d6401000000006100ae810204565b6401000000006100b2810204565b7f6e75b569a01ef56d18cab6a8e71e6600d6ce853834d4a5748b720d06f878b3a4600255655af3107a4000600355610104565b3390565b60018054600160a060020a03838116600160a060020a0319831681179093556040519116919082907f8be0079c531659141344cd1fd0a4f28419497f9722a3daafe3b4186f6b6457e090600090a35050565b6080516c01000000000000000000000000900460a0516c010000000000000000000000009004610c1061015e600039600081816102a101526108140152600081816101d5015281816103a901526107e50152610c106000f3fe608060405234801561001057600080fd5b50600436106100815760003560e060020a900480638da5cb5b1161005f5780638da5cb5b146100b657806394985ddd146100d5578063c8345a34146100e8578063f2fde38b146100fb57600080fd5b8063062970b5146100865780632e1a7d4d1461009b578063715018a6146100ae575b600080fd5b610099610094366004610987565b61010e565b005b6100996100a9366004610a34565b610173565b61009961025d565b60015460408051600160a060020a039092168252519081900360200190f35b6100996100e33660046109cb565b610296565b6100996100f63660046109ed565b61031b565b610099610109366004610987565b6105b7565b600154600160a060020a031633146101445760405160e560020a62461bcd02815260040161013b90610b10565b60405180910390fd5b6004805473ffffffffffffffffffffffffffffffffffffffff1916600160a060020a0392909216919091179055565b600154600160a060020a031633146101a05760405160e560020a62461bcd02815260040161013b90610b10565b6040517fa9059cbb000000000000000000000000000000000000000000000000000000008152336004820152602481018290527f0000000000000000000000000000000000000000000000000000000000000000600160a060020a03169063a9059cbb90604401602060405180830381600087803b15801561022157600080fd5b505af1158015610235573d6000803e3d6000fd5b505050506040513d601f19601f8201168201806040525081019061025991906109a9565b5050565b600154600160a060020a0316331461028a5760405160e560020a62461bcd02815260040161013b90610b10565b610294600061066f565b565b33600160a060020a037f000000000000000000000000000000000000000000000000000000000000000016146103115760405160e560020a62461bcd02815260206004820152601f60248201527f4f6e6c7920565246436f6f7264696e61746f722063616e2066756c66696c6c00604482015260640161013b565b61025982826106ce565b600454600160a060020a031633146103785760405160e560020a62461bcd02815260206004820181905260248201527f4e6f7420616c6c6f77656420746f2075736520746869732066756e6374696f6e604482015260640161013b565b6003546040517f70a082310000000000000000000000000000000000000000000000000000000081523060048201527f0000000000000000000000000000000000000000000000000000000000000000600160a060020a0316906370a082319060240160206040518083038186803b1580156103f357600080fd5b505afa158015610407573d6000803e3d6000fd5b505050506040513d601f19601f8201168201806040525081019061042b9190610a4d565b10156104a25760405160e560020a62461bcd02815260206004820152602b60248201527f4e6f7420656e6f756768204c494e4b202d2066696c6c20636f6e74726163742060448201527f7769746820666175636574000000000000000000000000000000000000000000606482015260840161013b565b6004805484919074ff00000000000000000000000000000000000000001916740100000000000000000000000000000000000000008360028111156104e9576104e9610b93565b02179055506004805483919075ff0000000000000000000000000000000000000000001916750100000000000000000000000000000000000000000083600281111561053757610537610b93565b02179055506005805473ffffffffffffffffffffffffffffffffffffffff1916600160a060020a038316179055600254600354600091610576916107e1565b90507f55ed974a51aa5443394b8136510c290cd2f01456cf37dec995cc0cc574a78173816040516105a991815260200190565b60405180910390a150505050565b600154600160a060020a031633146105e45760405160e560020a62461bcd02815260040161013b90610b10565b600160a060020a0381166106635760405160e560020a62461bcd02815260206004820152602660248201527f4f776e61626c653a206e6577206f776e657220697320746865207a65726f206160448201527f6464726573730000000000000000000000000000000000000000000000000000606482015260840161013b565b61066c8161066f565b50565b60018054600160a060020a0383811673ffffffffffffffffffffffffffffffffffffffff19831681179093556040519116919082907f8be0079c531659141344cd1fd0a4f28419497f9722a3daafe3b4186f6b6457e090600090a35050565b600081116107215760405160e560020a62461bcd02815260206004820152601b60248201527f52616e646f6d6e657373206e756d626572206e6f7420666f756e640000000000604482015260640161013b565b600454600160a060020a0381169063db48a8889060ff740100000000000000000000000000000000000000008204811691750100000000000000000000000000000000000000000090041661077d662386f26fc1000086610b6e565b60055460405160e060020a63ffffffff87160281526107ab94939291600160a060020a031690600401610ad3565b600060405180830381600087803b1580156107c557600080fd5b505af11580156107d9573d6000803e3d6000fd5b505050505050565b60007f0000000000000000000000000000000000000000000000000000000000000000600160a060020a0316634000aea07f000000000000000000000000000000000000000000000000000000000000000084866000604051602001610851929190918252602082015260400190565b60408051601f198184030181529082905260e060020a63ffffffff861602825261087f939291600401610a66565b602060405180830381600087803b15801561089957600080fd5b505af11580156108ad573d6000803e3d6000fd5b505050506040513d601f19601f820116820180604052508101906108d191906109a9565b5060008381526020818152604080832054815180840188905280830185905230606082015260808082018390528351808303909101815260a09091019092528151918301919091208684529290915261092b906001610b45565b6000858152602081815260409182902092909255805180830187905280820184905281518082038301815260609091019091528051910120949350505050565b8035600160a060020a038116811461098257600080fd5b919050565b60006020828403121561099957600080fd5b6109a28261096b565b9392505050565b6000602082840312156109bb57600080fd5b815180151581146109a257600080fd5b600080604083850312156109de57600080fd5b50508035926020909101359150565b600080600060608486031215610a0257600080fd5b8335610a0d81610bcd565b92506020840135610a1d81610bcd565b9150610a2b6040850161096b565b90509250925092565b600060208284031215610a4657600080fd5b5035919050565b600060208284031215610a5f57600080fd5b5051919050565b600160a060020a038416815260006020848184015260606040840152835180606085015260005b81811015610aa957858101830151858201608001528201610a8d565b81811115610abb576000608083870101525b50601f01601f19169290920160800195945050505050565b60808101610ae086610bac565b858252610aec85610bac565b846020830152836040830152600160a060020a038316606083015295945050505050565b6020808252818101527f4f776e61626c653a2063616c6c6572206973206e6f7420746865206f776e6572604082015260600190565b60008219821115610b695760e060020a634e487b7102600052601160045260246000fd5b500190565b600082610b8e5760e060020a634e487b7102600052601260045260246000fd5b500690565b60e060020a634e487b7102600052602160045260246000fd5b6003811061066c5760e060020a634e487b7102600052602160045260246000fd5b6003811061066c57600080fdfea26469706673582212200e9e155362a460c39c0be9214151bea159ed12db8d32480323b6eee77ccfd90764736f6c63430008070033",
  "immutableReferences": {
    "73": [
      {
        "length": 32,
        "start": 469
      },
      {
        "length": 32,
        "start": 937
      },
      {
        "length": 32,
        "start": 2021
      }
    ],
    "75": [
      {
        "length": 32,
        "start": 673
      },
      {
        "length": 32,
        "start": 2068
      }
    ]
  },
  "source": "// SPDX-License-Identifier: MIT\r\npragma solidity 0.8.7;\r\n\r\nimport \"@chainlink/contracts/src/v0.8/VRFConsumerBase.sol\";\r\nimport \"@openzeppelin/contracts/access/Ownable.sol\";\r\nimport \"./UnlimitedEvolution.sol\";\r\n\r\n/** @title Random Number Generator */\r\ncontract RandomNumberGenerator is VRFConsumerBase, Ownable {\r\n    \r\n    bytes32 internal keyHash;\r\n    uint256 internal fee;\r\n\r\n    UnlimitedEvolution unlimited;\r\n    UnlimitedEvolution.type_character typeCharacter;\r\n    UnlimitedEvolution.gender_character genderCharacter;\r\n    address requestor;\r\n\r\n    /**\r\n     * @dev Emitted when getRandomNumber has been successfully executed. Return the ID unique to a single request.\r\n     */\r\n    event requestedRandomness(bytes32 _requestId);\r\n    \r\n    /**\r\n     * @dev Constructor inherits VRFConsumerBase\r\n     * Network: Mumbai\r\n     * Chainlink VRF Coordinator address: 0x8C7382F9D8f56b33781fE506E897a4F1e2d17255\r\n     * LINK token address: 0x326C977E6efc84E512bB9C30f76E30c160eD06FB\r\n     * Key Hash: 0x6e75b569a01ef56d18cab6a8e71e6600d6ce853834d4a5748b720d06f878b3a4\r\n     */\r\n    constructor() \r\n        VRFConsumerBase(\r\n            0x8C7382F9D8f56b33781fE506E897a4F1e2d17255,\r\n            0x326C977E6efc84E512bB9C30f76E30c160eD06FB\r\n        )\r\n    {\r\n        keyHash = 0x6e75b569a01ef56d18cab6a8e71e6600d6ce853834d4a5748b720d06f878b3a4;\r\n        fee = 100000000000000; // 0.0001 LINK\r\n    }\r\n\r\n    /** \r\n     * @dev Change the address of the contract UnlimitedEvolution.\r\n     * @param _unlimited Address of the contract UnlimitedEvolution.\r\n     */\r\n    function setUnlimitedAddress(address _unlimited) external onlyOwner {\r\n        unlimited = UnlimitedEvolution(_unlimited);\r\n    }\r\n\r\n    /** \r\n     * @dev Requests randomness \r\n     * @param _typeCharacter Type of character between BRUTE, SPIRITUAL, ELEMENTARY.\r\n     * @param _genderCharacter Gender of character between MASCULINE, FEMININE, OTHER.\r\n     * @param _address Address of the original requestor.\r\n     */\r\n    function getRandomNumber(UnlimitedEvolution.type_character _typeCharacter, UnlimitedEvolution.gender_character _genderCharacter, address _address) external {\r\n        require(msg.sender == address(unlimited), \"Not allowed to use this function\");\r\n        require(LINK.balanceOf(address(this)) >= fee, \"Not enough LINK - fill contract with faucet\");\r\n        typeCharacter = _typeCharacter;\r\n        genderCharacter = _genderCharacter;\r\n        requestor = _address;\r\n        bytes32 requestId = requestRandomness(keyHash, fee);\r\n        emit requestedRandomness(requestId);\r\n    }\r\n\r\n    /**\r\n     * @dev Callback function used by VRF Coordinator\r\n     * @param requestId Id initially returned by requestRandomness.\r\n     * @param randomness Random number generated by Chainlink VRF.\r\n     */\r\n    function fulfillRandomness(bytes32 requestId, uint256 randomness) internal override {\r\n        require(randomness > 0, \"Randomness number not found\");\r\n        unlimited.createCharacter(typeCharacter, genderCharacter, randomness % 10**16, requestor);\r\n    }\r\n\r\n    /**\r\n     * @dev Owner withdraws an amount of LINK.\r\n     * @param value Amount of LINK.\r\n     */\r\n    function withdraw(uint256 value) external onlyOwner {\r\n        LINK.transfer(msg.sender, value);\r\n    }\r\n}",
  "sourcePath": "D:\\TAF\\Alyra\\ALYRA_PROJET_FINAL\\unlimited_evolution\\contracts\\RandomNumberGenerator.sol",
  "compiler": {
    "name": "solc",
    "version": "0.8.7+commit.e28d00a7.Emscripten.clang"
  },
  "schemaVersion": "3.4.3",
  "updatedAt": "2022-01-20T09:41:46.172Z",
  "devdoc": {
    "events": {
      "requestedRandomness(bytes32)": {
        "details": "Emitted when getRandomNumber has been successfully executed. Return the ID unique to a single request."
      }
    },
    "kind": "dev",
    "methods": {
      "constructor": {
        "details": "Constructor inherits VRFConsumerBase Network: Mumbai Chainlink VRF Coordinator address: 0x8C7382F9D8f56b33781fE506E897a4F1e2d17255 LINK token address: 0x326C977E6efc84E512bB9C30f76E30c160eD06FB Key Hash: 0x6e75b569a01ef56d18cab6a8e71e6600d6ce853834d4a5748b720d06f878b3a4"
      },
      "getRandomNumber(uint8,uint8,address)": {
        "details": "Requests randomness ",
        "params": {
          "_address": "Address of the original requestor.",
          "_genderCharacter": "Gender of character between MASCULINE, FEMININE, OTHER.",
          "_typeCharacter": "Type of character between BRUTE, SPIRITUAL, ELEMENTARY."
        }
      },
      "owner()": {
        "details": "Returns the address of the current owner."
      },
      "renounceOwnership()": {
        "details": "Leaves the contract without owner. It will not be possible to call `onlyOwner` functions anymore. Can only be called by the current owner. NOTE: Renouncing ownership will leave the contract without an owner, thereby removing any functionality that is only available to the owner."
      },
      "setUnlimitedAddress(address)": {
        "details": "Change the address of the contract UnlimitedEvolution.",
        "params": {
          "_unlimited": "Address of the contract UnlimitedEvolution."
        }
      },
      "transferOwnership(address)": {
        "details": "Transfers ownership of the contract to a new account (`newOwner`). Can only be called by the current owner."
      },
      "withdraw(uint256)": {
        "details": "Owner withdraws an amount of LINK.",
        "params": {
          "value": "Amount of LINK."
        }
      }
    },
    "title": "Random Number Generator ",
    "version": 1
  },
  "userdoc": {
    "kind": "user",
    "methods": {},
    "version": 1
  }
}