{
  "contractName": "UnlimitedEvolution",
  "abi": [
    {
      "inputs": [],
      "stateMutability": "nonpayable",
      "type": "constructor"
    },
    {
      "anonymous": false,
      "inputs": [
        {
          "indexed": true,
          "internalType": "address",
          "name": "account",
          "type": "address"
        },
        {
          "indexed": true,
          "internalType": "address",
          "name": "operator",
          "type": "address"
        },
        {
          "indexed": false,
          "internalType": "bool",
          "name": "approved",
          "type": "bool"
        }
      ],
      "name": "ApprovalForAll",
      "type": "event"
    },
    {
      "anonymous": false,
      "inputs": [
        {
          "indexed": false,
          "internalType": "uint256",
          "name": "id",
          "type": "uint256"
        }
      ],
      "name": "CharacterCreated",
      "type": "event"
    },
    {
      "anonymous": false,
      "inputs": [
        {
          "indexed": false,
          "internalType": "uint256",
          "name": "mintFee",
          "type": "uint256"
        }
      ],
      "name": "FeeUpdated",
      "type": "event"
    },
    {
      "anonymous": false,
      "inputs": [
        {
          "indexed": false,
          "internalType": "uint256",
          "name": "myTokenId",
          "type": "uint256"
        },
        {
          "indexed": false,
          "internalType": "uint256",
          "name": "rivalTokenId",
          "type": "uint256"
        },
        {
          "indexed": false,
          "internalType": "uint256",
          "name": "substrateLifeToRival",
          "type": "uint256"
        },
        {
          "indexed": false,
          "internalType": "uint256",
          "name": "substrateLifeToMe",
          "type": "uint256"
        }
      ],
      "name": "Fighted",
      "type": "event"
    },
    {
      "anonymous": false,
      "inputs": [
        {
          "indexed": false,
          "internalType": "uint256",
          "name": "tokenId",
          "type": "uint256"
        },
        {
          "indexed": false,
          "internalType": "uint256",
          "name": "level",
          "type": "uint256"
        }
      ],
      "name": "LevelUp",
      "type": "event"
    },
    {
      "anonymous": false,
      "inputs": [
        {
          "indexed": false,
          "internalType": "uint256",
          "name": "limitMint",
          "type": "uint256"
        }
      ],
      "name": "LimitUpdated",
      "type": "event"
    },
    {
      "anonymous": false,
      "inputs": [
        {
          "indexed": true,
          "internalType": "address",
          "name": "previousOwner",
          "type": "address"
        },
        {
          "indexed": true,
          "internalType": "address",
          "name": "newOwner",
          "type": "address"
        }
      ],
      "name": "OwnershipTransferred",
      "type": "event"
    },
    {
      "anonymous": false,
      "inputs": [
        {
          "indexed": false,
          "internalType": "uint256",
          "name": "tokenId",
          "type": "uint256"
        }
      ],
      "name": "Rested",
      "type": "event"
    },
    {
      "anonymous": false,
      "inputs": [
        {
          "indexed": true,
          "internalType": "address",
          "name": "operator",
          "type": "address"
        },
        {
          "indexed": true,
          "internalType": "address",
          "name": "from",
          "type": "address"
        },
        {
          "indexed": true,
          "internalType": "address",
          "name": "to",
          "type": "address"
        },
        {
          "indexed": false,
          "internalType": "uint256[]",
          "name": "ids",
          "type": "uint256[]"
        },
        {
          "indexed": false,
          "internalType": "uint256[]",
          "name": "values",
          "type": "uint256[]"
        }
      ],
      "name": "TransferBatch",
      "type": "event"
    },
    {
      "anonymous": false,
      "inputs": [
        {
          "indexed": true,
          "internalType": "address",
          "name": "operator",
          "type": "address"
        },
        {
          "indexed": true,
          "internalType": "address",
          "name": "from",
          "type": "address"
        },
        {
          "indexed": true,
          "internalType": "address",
          "name": "to",
          "type": "address"
        },
        {
          "indexed": false,
          "internalType": "uint256",
          "name": "id",
          "type": "uint256"
        },
        {
          "indexed": false,
          "internalType": "uint256",
          "name": "value",
          "type": "uint256"
        }
      ],
      "name": "TransferSingle",
      "type": "event"
    },
    {
      "anonymous": false,
      "inputs": [
        {
          "indexed": false,
          "internalType": "string",
          "name": "value",
          "type": "string"
        },
        {
          "indexed": true,
          "internalType": "uint256",
          "name": "id",
          "type": "uint256"
        }
      ],
      "name": "URI",
      "type": "event"
    },
    {
      "inputs": [
        {
          "internalType": "address",
          "name": "account",
          "type": "address"
        },
        {
          "internalType": "uint256",
          "name": "id",
          "type": "uint256"
        }
      ],
      "name": "balanceOf",
      "outputs": [
        {
          "internalType": "uint256",
          "name": "",
          "type": "uint256"
        }
      ],
      "stateMutability": "view",
      "type": "function",
      "constant": true
    },
    {
      "inputs": [
        {
          "internalType": "address[]",
          "name": "accounts",
          "type": "address[]"
        },
        {
          "internalType": "uint256[]",
          "name": "ids",
          "type": "uint256[]"
        }
      ],
      "name": "balanceOfBatch",
      "outputs": [
        {
          "internalType": "uint256[]",
          "name": "",
          "type": "uint256[]"
        }
      ],
      "stateMutability": "view",
      "type": "function",
      "constant": true
    },
    {
      "inputs": [
        {
          "internalType": "address",
          "name": "account",
          "type": "address"
        },
        {
          "internalType": "address",
          "name": "operator",
          "type": "address"
        }
      ],
      "name": "isApprovedForAll",
      "outputs": [
        {
          "internalType": "bool",
          "name": "",
          "type": "bool"
        }
      ],
      "stateMutability": "view",
      "type": "function",
      "constant": true
    },
    {
      "inputs": [],
      "name": "owner",
      "outputs": [
        {
          "internalType": "address",
          "name": "",
          "type": "address"
        }
      ],
      "stateMutability": "view",
      "type": "function",
      "constant": true
    },
    {
      "inputs": [],
      "name": "renounceOwnership",
      "outputs": [],
      "stateMutability": "nonpayable",
      "type": "function"
    },
    {
      "inputs": [
        {
          "internalType": "address",
          "name": "from",
          "type": "address"
        },
        {
          "internalType": "address",
          "name": "to",
          "type": "address"
        },
        {
          "internalType": "uint256[]",
          "name": "ids",
          "type": "uint256[]"
        },
        {
          "internalType": "uint256[]",
          "name": "amounts",
          "type": "uint256[]"
        },
        {
          "internalType": "bytes",
          "name": "data",
          "type": "bytes"
        }
      ],
      "name": "safeBatchTransferFrom",
      "outputs": [],
      "stateMutability": "nonpayable",
      "type": "function"
    },
    {
      "inputs": [
        {
          "internalType": "address",
          "name": "from",
          "type": "address"
        },
        {
          "internalType": "address",
          "name": "to",
          "type": "address"
        },
        {
          "internalType": "uint256",
          "name": "id",
          "type": "uint256"
        },
        {
          "internalType": "uint256",
          "name": "amount",
          "type": "uint256"
        },
        {
          "internalType": "bytes",
          "name": "data",
          "type": "bytes"
        }
      ],
      "name": "safeTransferFrom",
      "outputs": [],
      "stateMutability": "nonpayable",
      "type": "function"
    },
    {
      "inputs": [
        {
          "internalType": "address",
          "name": "operator",
          "type": "address"
        },
        {
          "internalType": "bool",
          "name": "approved",
          "type": "bool"
        }
      ],
      "name": "setApprovalForAll",
      "outputs": [],
      "stateMutability": "nonpayable",
      "type": "function"
    },
    {
      "inputs": [
        {
          "internalType": "bytes4",
          "name": "interfaceId",
          "type": "bytes4"
        }
      ],
      "name": "supportsInterface",
      "outputs": [
        {
          "internalType": "bool",
          "name": "",
          "type": "bool"
        }
      ],
      "stateMutability": "view",
      "type": "function",
      "constant": true
    },
    {
      "inputs": [
        {
          "internalType": "address",
          "name": "newOwner",
          "type": "address"
        }
      ],
      "name": "transferOwnership",
      "outputs": [],
      "stateMutability": "nonpayable",
      "type": "function"
    },
    {
      "inputs": [
        {
          "internalType": "uint256",
          "name": "",
          "type": "uint256"
        }
      ],
      "name": "uri",
      "outputs": [
        {
          "internalType": "string",
          "name": "",
          "type": "string"
        }
      ],
      "stateMutability": "view",
      "type": "function",
      "constant": true
    },
    {
      "inputs": [
        {
          "internalType": "string",
          "name": "newuri",
          "type": "string"
        }
      ],
      "name": "setURI",
      "outputs": [],
      "stateMutability": "nonpayable",
      "type": "function"
    },
    {
      "inputs": [
        {
          "internalType": "uint256",
          "name": "_mintFee",
          "type": "uint256"
        }
      ],
      "name": "updateFee",
      "outputs": [],
      "stateMutability": "nonpayable",
      "type": "function"
    },
    {
      "inputs": [
        {
          "internalType": "uint24",
          "name": "_limitMint",
          "type": "uint24"
        }
      ],
      "name": "updateLimitMint",
      "outputs": [],
      "stateMutability": "nonpayable",
      "type": "function"
    },
    {
      "inputs": [],
      "name": "withdraw",
      "outputs": [],
      "stateMutability": "nonpayable",
      "type": "function"
    },
    {
      "inputs": [
        {
          "internalType": "uint256",
          "name": "_tokenId",
          "type": "uint256"
        },
        {
          "internalType": "uint24",
          "name": "_hp",
          "type": "uint24"
        },
        {
          "internalType": "uint24",
          "name": "_stamina",
          "type": "uint24"
        },
        {
          "internalType": "uint24",
          "name": "_attack",
          "type": "uint24"
        },
        {
          "internalType": "uint24",
          "name": "_armor",
          "type": "uint24"
        },
        {
          "internalType": "uint24",
          "name": "_attack1",
          "type": "uint24"
        },
        {
          "internalType": "uint24",
          "name": "_attack2",
          "type": "uint24"
        },
        {
          "internalType": "uint24",
          "name": "_attack3",
          "type": "uint24"
        },
        {
          "internalType": "uint24",
          "name": "_attack4",
          "type": "uint24"
        }
      ],
      "name": "attributesLevelUp",
      "outputs": [],
      "stateMutability": "nonpayable",
      "type": "function"
    },
    {
      "inputs": [
        {
          "internalType": "enum UnlimitedEvolution.type_character",
          "name": "_typeCharacter",
          "type": "uint8"
        },
        {
          "internalType": "enum UnlimitedEvolution.gender_character",
          "name": "_genderCharacter",
          "type": "uint8"
        }
      ],
      "name": "createCharacter",
      "outputs": [],
      "stateMutability": "payable",
      "type": "function",
      "payable": true
    },
    {
      "inputs": [
        {
          "internalType": "uint256",
          "name": "_tokenId",
          "type": "uint256"
        }
      ],
      "name": "rest",
      "outputs": [],
      "stateMutability": "payable",
      "type": "function",
      "payable": true
    },
    {
      "inputs": [
        {
          "internalType": "uint256",
          "name": "_myTokenId",
          "type": "uint256"
        },
        {
          "internalType": "uint256",
          "name": "_rivalTokenId",
          "type": "uint256"
        }
      ],
      "name": "fight",
      "outputs": [],
      "stateMutability": "payable",
      "type": "function",
      "payable": true
    },
    {
      "inputs": [
        {
          "internalType": "uint256",
          "name": "_tokenId",
          "type": "uint256"
        }
      ],
      "name": "getTokenDetails",
      "outputs": [
        {
          "components": [
            {
              "internalType": "uint24",
              "name": "id",
              "type": "uint24"
            },
            {
              "internalType": "uint56",
              "name": "dna",
              "type": "uint56"
            },
            {
              "internalType": "uint16",
              "name": "level",
              "type": "uint16"
            },
            {
              "internalType": "uint24",
              "name": "xp",
              "type": "uint24"
            },
            {
              "internalType": "uint24",
              "name": "hp",
              "type": "uint24"
            },
            {
              "internalType": "uint24",
              "name": "stamina",
              "type": "uint24"
            },
            {
              "internalType": "uint24",
              "name": "attack",
              "type": "uint24"
            },
            {
              "internalType": "uint24",
              "name": "armor",
              "type": "uint24"
            },
            {
              "internalType": "uint24",
              "name": "attack1",
              "type": "uint24"
            },
            {
              "internalType": "uint24",
              "name": "attack2",
              "type": "uint24"
            },
            {
              "internalType": "uint24",
              "name": "attack3",
              "type": "uint24"
            },
            {
              "internalType": "uint24",
              "name": "attack4",
              "type": "uint24"
            },
            {
              "internalType": "uint24",
              "name": "attributePoints",
              "type": "uint24"
            },
            {
              "internalType": "uint256",
              "name": "lastFight",
              "type": "uint256"
            },
            {
              "internalType": "enum UnlimitedEvolution.type_character",
              "name": "typeCharacter",
              "type": "uint8"
            },
            {
              "internalType": "enum UnlimitedEvolution.gender_character",
              "name": "genderCharacter",
              "type": "uint8"
            }
          ],
          "internalType": "struct UnlimitedEvolution.Character",
          "name": "",
          "type": "tuple"
        }
      ],
      "stateMutability": "view",
      "type": "function",
      "constant": true
    },
    {
      "inputs": [],
      "name": "getMyCharacters",
      "outputs": [
        {
          "components": [
            {
              "internalType": "uint24",
              "name": "id",
              "type": "uint24"
            },
            {
              "internalType": "uint56",
              "name": "dna",
              "type": "uint56"
            },
            {
              "internalType": "uint16",
              "name": "level",
              "type": "uint16"
            },
            {
              "internalType": "uint24",
              "name": "xp",
              "type": "uint24"
            },
            {
              "internalType": "uint24",
              "name": "hp",
              "type": "uint24"
            },
            {
              "internalType": "uint24",
              "name": "stamina",
              "type": "uint24"
            },
            {
              "internalType": "uint24",
              "name": "attack",
              "type": "uint24"
            },
            {
              "internalType": "uint24",
              "name": "armor",
              "type": "uint24"
            },
            {
              "internalType": "uint24",
              "name": "attack1",
              "type": "uint24"
            },
            {
              "internalType": "uint24",
              "name": "attack2",
              "type": "uint24"
            },
            {
              "internalType": "uint24",
              "name": "attack3",
              "type": "uint24"
            },
            {
              "internalType": "uint24",
              "name": "attack4",
              "type": "uint24"
            },
            {
              "internalType": "uint24",
              "name": "attributePoints",
              "type": "uint24"
            },
            {
              "internalType": "uint256",
              "name": "lastFight",
              "type": "uint256"
            },
            {
              "internalType": "enum UnlimitedEvolution.type_character",
              "name": "typeCharacter",
              "type": "uint8"
            },
            {
              "internalType": "enum UnlimitedEvolution.gender_character",
              "name": "genderCharacter",
              "type": "uint8"
            }
          ],
          "internalType": "struct UnlimitedEvolution.Character[]",
          "name": "",
          "type": "tuple[]"
        }
      ],
      "stateMutability": "view",
      "type": "function",
      "constant": true
    },
    {
      "inputs": [],
      "name": "getOthersCharacters",
      "outputs": [
        {
          "components": [
            {
              "internalType": "uint24",
              "name": "id",
              "type": "uint24"
            },
            {
              "internalType": "uint56",
              "name": "dna",
              "type": "uint56"
            },
            {
              "internalType": "uint16",
              "name": "level",
              "type": "uint16"
            },
            {
              "internalType": "uint24",
              "name": "xp",
              "type": "uint24"
            },
            {
              "internalType": "uint24",
              "name": "hp",
              "type": "uint24"
            },
            {
              "internalType": "uint24",
              "name": "stamina",
              "type": "uint24"
            },
            {
              "internalType": "uint24",
              "name": "attack",
              "type": "uint24"
            },
            {
              "internalType": "uint24",
              "name": "armor",
              "type": "uint24"
            },
            {
              "internalType": "uint24",
              "name": "attack1",
              "type": "uint24"
            },
            {
              "internalType": "uint24",
              "name": "attack2",
              "type": "uint24"
            },
            {
              "internalType": "uint24",
              "name": "attack3",
              "type": "uint24"
            },
            {
              "internalType": "uint24",
              "name": "attack4",
              "type": "uint24"
            },
            {
              "internalType": "uint24",
              "name": "attributePoints",
              "type": "uint24"
            },
            {
              "internalType": "uint256",
              "name": "lastFight",
              "type": "uint256"
            },
            {
              "internalType": "enum UnlimitedEvolution.type_character",
              "name": "typeCharacter",
              "type": "uint8"
            },
            {
              "internalType": "enum UnlimitedEvolution.gender_character",
              "name": "genderCharacter",
              "type": "uint8"
            }
          ],
          "internalType": "struct UnlimitedEvolution.Character[]",
          "name": "",
          "type": "tuple[]"
        }
      ],
      "stateMutability": "view",
      "type": "function",
      "constant": true
    },
    {
      "inputs": [
        {
          "internalType": "address",
          "name": "_address",
          "type": "address"
        }
      ],
      "name": "getBalanceOfCharacters",
      "outputs": [
        {
          "internalType": "uint8",
          "name": "",
          "type": "uint8"
        }
      ],
      "stateMutability": "view",
      "type": "function",
      "constant": true
    },
    {
      "inputs": [
        {
          "internalType": "uint8",
          "name": "_class",
          "type": "uint8"
        }
      ],
      "name": "getCountMints",
      "outputs": [
        {
          "internalType": "uint24",
          "name": "",
          "type": "uint24"
        }
      ],
      "stateMutability": "view",
      "type": "function",
      "constant": true
    }
  ],
  "bytecode": "0x66038d7ea4c680006004556005805465ffffff0000001916640fa0000000179055600360808181526101006040529060a0606080368337505081516200004d9260069250602001906200011b565b503480156200005b57600080fd5b506040805160208101909152600081526200007f81640100000000620000ac810204565b50620000a662000097640100000000620000c5810204565b640100000000620000c9810204565b620002b6565b8051620000c1906002906020840190620001cc565b5050565b3390565b60038054600160a060020a03838116600160a060020a0319831681179093556040519116919082907f8be0079c531659141344cd1fd0a4f28419497f9722a3daafe3b4186f6b6457e090600090a35050565b82805482825590600052602060002090600901600a90048101928215620001ba5791602002820160005b838211156200018757835183826101000a81548162ffffff021916908360ff160217905550926020019260030160208160020104928301926001030262000145565b8015620001b85782816101000a81549062ffffff021916905560030160208160020104928301926001030262000187565b505b50620001c892915062000249565b5090565b828054620001da9062000260565b90600052602060002090601f016020900481019282620001fe5760008555620001ba565b82601f106200021957805160ff1916838001178555620001ba565b82800160010185558215620001ba579182015b82811115620001ba5782518255916020019190600101906200022c565b5b80821115620001c857600081556001016200024a565b6002810460018216806200027557607f821691505b60208210811415620002b0577f4e487b7100000000000000000000000000000000000000000000000000000000600052602260045260246000fd5b50919050565b613eaa80620002c66000396000f3fe608060405260043610610167576000357c010000000000000000000000000000000000000000000000000000000090048063715018a6116100d3578063b5214a081161008c578063b5214a0814610406578063c1e0372814610419578063ca39e5ef14610446578063e985e9c514610459578063f242432a146104a2578063f2fde38b146104c257600080fd5b8063715018a6146103495780637727b2461461035e5780638acf59f21461037e5780638da5cb5b1461039e5780639012c4a8146103c6578063a22cb465146103e657600080fd5b80632eb2c2d6116101255780632eb2c2d61461029d5780633c4739d3146102bd5780633ccfd60b146102df5780634e1273f4146102f45780634fb97a10146103215780636e8eb2221461033657600080fd5b8062fdd58e1461016c57806301ffc9a71461019f57806302fe5305146101cf5780630e89341c146101f15780630fb220931461021e5780632723c0de14610252575b600080fd5b34801561017857600080fd5b5061018c61018736600461310c565b6104e2565b6040519081526020015b60405180910390f35b3480156101ab57600080fd5b506101bf6101ba36600461314c565b610591565b6040519015158152602001610196565b3480156101db57600080fd5b506101ef6101ea36600461320d565b61062c565b005b3480156101fd57600080fd5b5061021161020c36600461325e565b610665565b60405161019691906132c4565b34801561022a57600080fd5b5061023e6102393660046132d7565b6106f9565b60405162ffffff9091168152602001610196565b34801561025e57600080fd5b5061028b61026d3660046132fa565b600160a060020a031660009081526008602052604090205460ff1690565b60405160ff9091168152602001610196565b3480156102a957600080fd5b506101ef6102b83660046133c7565b61073d565b3480156102c957600080fd5b506102d26107e2565b60405161019691906135d9565b3480156102eb57600080fd5b506101ef610a55565b34801561030057600080fd5b5061031461030f366004613628565b610ac6565b604051610196919061372b565b34801561032d57600080fd5b506102d2610c07565b6101ef61034436600461325e565b610e86565b34801561035557600080fd5b506101ef610fe9565b34801561036a57600080fd5b506101ef610379366004613751565b611022565b34801561038a57600080fd5b506101ef6103993660046137f2565b611392565b3480156103aa57600080fd5b50600354604051600160a060020a039091168152602001610196565b3480156103d257600080fd5b506101ef6103e136600461325e565b611414565b3480156103f257600080fd5b506101ef61040136600461380d565b611476565b6101ef610414366004613856565b611485565b34801561042557600080fd5b5061043961043436600461325e565b611b3b565b6040516101969190613884565b6101ef610454366004613893565b611ce6565b34801561046557600080fd5b506101bf6104743660046138b5565b600160a060020a03918216600090815260016020908152604080832093909416825291909152205460ff1690565b3480156104ae57600080fd5b506101ef6104bd3660046138e8565b612062565b3480156104ce57600080fd5b506101ef6104dd3660046132fa565b612100565b6000600160a060020a0383166105685760405160e560020a62461bcd02815260206004820152602b60248201527f455243313135353a2062616c616e636520717565727920666f7220746865207a60448201527f65726f206164647265737300000000000000000000000000000000000000000060648201526084015b60405180910390fd5b50600081815260208181526040808320600160a060020a03861684529091529020545b92915050565b6000600160e060020a031982167fd9b67a260000000000000000000000000000000000000000000000000000000014806105f45750600160e060020a031982167f0e89341c00000000000000000000000000000000000000000000000000000000145b8061058b57507f01ffc9a700000000000000000000000000000000000000000000000000000000600160e060020a031983161461058b565b600354600160a060020a031633146106595760405160e560020a62461bcd02815260040161055f9061394d565b610662816121b5565b50565b60606002805461067490613982565b80601f01602080910402602001604051908101604052809291908181526020018280546106a090613982565b80156106ed5780601f106106c2576101008083540402835291602001916106ed565b820191906000526020600020905b8154815290600101906020018083116106d057829003601f168201915b50505050509050919050565b600060068260ff1681548110610711576107116139ba565b90600052602060002090600a91828204019190066003029054906101000a900462ffffff169050919050565b600160a060020a03851633148061075957506107598533610474565b6107ce5760405160e560020a62461bcd02815260206004820152603260248201527f455243313135353a207472616e736665722063616c6c6572206973206e6f742060448201527f6f776e6572206e6f7220617070726f7665640000000000000000000000000000606482015260840161055f565b6107db85858585856121c8565b5050505050565b3360009081526008602052604081205460609190819060ff1667ffffffffffffffff81111561081357610813613169565b60405190808252806020026020018201604052801561084c57816020015b610839612fd4565b8152602001906001900390816108315790505b50905060005b60055462ffffff16811015610a4e5761086a816123c3565b15610a3c57600081815260076020908152604091829020825161020081018452815462ffffff8082168352630100000080830466ffffffffffffff16958401959095526a0100000000000000000000820461ffff16958301959095526c01000000000000000000000000810485166060830152607860020a810485166080830152609060020a8104851660a083015275010000000000000000000000000000000000000000008104851660c083015260c060020a8104851660e08301527b01000000000000000000000000000000000000000000000000000000900484166101008201526001820154808516610120830152928304841661014082015266010000000000008304841661016082015269010000000000000000009092049092166101808201526002808301546101a083015260038301549192916101c084019160ff909116908111156109bf576109bf613471565b60028111156109d0576109d0613471565b81526020016003820160019054906101000a900460ff1660028111156109f8576109f8613471565b6002811115610a0957610a09613471565b81525050828460ff1681518110610a2257610a226139ba565b60200260200101819052508280610a38906139ec565b9350505b80610a4681613a0c565b915050610852565b5092915050565b600354600160a060020a03163314610a825760405160e560020a62461bcd02815260040161055f9061394d565b600354600160a060020a0316604051600160a060020a039190911690303180156108fc02916000818181858888f19350505050158015610662573d6000803e3d6000fd5b60608151835114610b425760405160e560020a62461bcd02815260206004820152602960248201527f455243313135353a206163636f756e747320616e6420696473206c656e67746860448201527f206d69736d617463680000000000000000000000000000000000000000000000606482015260840161055f565b6000835167ffffffffffffffff811115610b5e57610b5e613169565b604051908082528060200260200182016040528015610b87578160200160208202803683370190505b50905060005b8451811015610bff57610bd2858281518110610bab57610bab6139ba565b6020026020010151858381518110610bc557610bc56139ba565b60200260200101516104e2565b828281518110610be457610be46139ba565b6020908102919091010152610bf881613a0c565b9050610b8d565b509392505050565b33600090815260086020526040812054600554606092918291610c329160ff169062ffffff16613a27565b62ffffff1667ffffffffffffffff811115610c4f57610c4f613169565b604051908082528060200260200182016040528015610c8857816020015b610c75612fd4565b815260200190600190039081610c6d5790505b50905060005b60055462ffffff16811015610a4e57610ca6816123c3565b610e7457600081815260076020908152604091829020825161020081018452815462ffffff8082168352630100000080830466ffffffffffffff16958401959095526a0100000000000000000000820461ffff16958301959095526c01000000000000000000000000810485166060830152607860020a810485166080830152609060020a8104851660a083015275010000000000000000000000000000000000000000008104851660c083015260c060020a8104851660e08301527b01000000000000000000000000000000000000000000000000000000900484166101008201526001820154808516610120830152928304841661014082015266010000000000008304841661016082015269010000000000000000009092049092166101808201526002808301546101a083015260038301549192916101c084019160ff90911690811115610dfa57610dfa613471565b6002811115610e0b57610e0b613471565b81526020016003820160019054906101000a900460ff166002811115610e3357610e33613471565b6002811115610e4457610e44613471565b81525050828481518110610e5a57610e5a6139ba565b60200260200101819052508280610e7090613a0c565b9350505b80610e7e81613a0c565b915050610c8e565b610e8f816123c3565b610ede5760405160e560020a62461bcd02815260206004820152601f60248201527f596f75277265206e6f7420746865206f776e6572206f6620746865204e465400604482015260640161055f565b6000818152600760205260409020546064609060020a90910462ffffff1610610f725760405160e560020a62461bcd02815260206004820152602260248201527f596f752772652063686172616374657220697320616c7265616479207265737460448201527f6564000000000000000000000000000000000000000000000000000000000000606482015260840161055f565b600081815260076020908152604091829020805474ffffff0000000000000000000000000000000000001916726400000000000000000000000000000000000017905590518281527f0a6cdc448db9889012c5e9b19cbf91c821ef49c37d804cfd15bb70665768e38a91015b60405180910390a150565b600354600160a060020a031633146110165760405160e560020a62461bcd02815260040161055f9061394d565b61102060006123d7565b565b600081838587898b8d8f6110369190613a4b565b6110409190613a4b565b61104a9190613a4b565b6110549190613a4b565b61105e9190613a4b565b6110689190613a4b565b6110729190613a4b565b60008b81526007602052604090206001015462ffffff9182169250690100000000000000000090041681146111125760405160e560020a62461bcd02815260206004820152602360248201527f57726f6e6720616d6f756e74206f6620706f696e747320746f2061747472696260448201527f7574650000000000000000000000000000000000000000000000000000000000606482015260840161055f565b61111d896014613a72565b60008b81526007602052604090208054600f90611147908490607860020a900462ffffff16613a4b565b92506101000a81548162ffffff021916908362ffffff1602179055508760146111709190613a72565b60008b8152600760205260409020805460129061119a908490609060020a900462ffffff16613a4b565b92506101000a81548162ffffff021916908362ffffff16021790555086600760008c815260200190815260200160002060000160158282829054906101000a900462ffffff166111ea9190613a4b565b92506101000a81548162ffffff021916908362ffffff16021790555085600760008c815260200190815260200160002060000160188282829054906101000a900462ffffff1661123a9190613a4b565b92506101000a81548162ffffff021916908362ffffff16021790555084600760008c8152602001908152602001600020600001601b8282829054906101000a900462ffffff1661128a9190613a4b565b82546101009290920a62ffffff81810219909316918316021790915560008c8152600760205260408120600101805488945090926112ca91859116613a4b565b92506101000a81548162ffffff021916908362ffffff16021790555082600760008c815260200190815260200160002060010160038282829054906101000a900462ffffff1661131a9190613a4b565b92506101000a81548162ffffff021916908362ffffff16021790555081600760008c815260200190815260200160002060010160068282829054906101000a900462ffffff1661136a9190613a4b565b92506101000a81548162ffffff021916908362ffffff16021790555050505050505050505050565b600354600160a060020a031633146113bf5760405160e560020a62461bcd02815260040161055f9061394d565b6005805465ffffff0000001916630100000062ffffff8481168202929092179283905560405192041681527f824bdce4cbdec6e790596be3c1ac027ebd2747f3b4f72e8e9b50a9ce5479fe4090602001610fde565b600354600160a060020a031633146114415760405160e560020a62461bcd02815260040161055f9061394d565b60048190556040518181527f8c4d35e54a3f2ef1134138fd8ea3daee6a3c89e10d2665996babdf70261e2c7690602001610fde565b611481338383612436565b5050565b60045434146114d95760405160e560020a62461bcd02815260206004820152601460248201527f57726f6e6720616d6f756e74206f662066656573000000000000000000000000604482015260640161055f565b33600090815260086020526040902054600560ff909116106115405760405160e560020a62461bcd02815260206004820152601e60248201527f596f752063616e27742068617665206d6f7265207468616e2035204e46540000604482015260640161055f565b6005546301000000900462ffffff16600683600281111561156357611563613471565b60ff1681548110611576576115766139ba565b90600052602060002090600a91828204019190066003029054906101000a900462ffffff1662ffffff1611156116175760405160e560020a62461bcd02815260206004820152602e60248201527f596f752063616e6e6f74206d696e74206d6f726520636861726163746572207760448201527f697468207468697320636c617373000000000000000000000000000000000000606482015260840161055f565b600061162161252e565b60408051610200810190915260055462ffffff16815290915060208101611650662386f26fc1000060016125b9565b66ffffffffffffff16815260016020820181905260408201526064606082018190526080820152600560a0820152600360c0820152825160e090910190839060009061169e5761169e6139ba565b602002602001015160ff1662ffffff168152602001826001815181106116c6576116c66139ba565b602002602001015160ff1662ffffff168152602001826002815181106116ee576116ee6139ba565b602002602001015160ff1662ffffff16815260200182600381518110611716576117166139ba565b602002602001015160ff1662ffffff168152602001600062ffffff16815260200142815260200184600281111561174f5761174f613471565b815260200183600281111561176657611766613471565b81525060076000600560009054906101000a900462ffffff1662ffffff16815260200190815260200160002060008201518160000160006101000a81548162ffffff021916908362ffffff16021790555060208201518160000160036101000a81548166ffffffffffffff021916908366ffffffffffffff160217905550604082015181600001600a6101000a81548161ffff021916908361ffff160217905550606082015181600001600c6101000a81548162ffffff021916908362ffffff160217905550608082015181600001600f6101000a81548162ffffff021916908362ffffff16021790555060a08201518160000160126101000a81548162ffffff021916908362ffffff16021790555060c08201518160000160156101000a81548162ffffff021916908362ffffff16021790555060e08201518160000160186101000a81548162ffffff021916908362ffffff16021790555061010082015181600001601b6101000a81548162ffffff021916908362ffffff1602179055506101208201518160010160006101000a81548162ffffff021916908362ffffff1602179055506101408201518160010160036101000a81548162ffffff021916908362ffffff1602179055506101608201518160010160066101000a81548162ffffff021916908362ffffff1602179055506101808201518160010160096101000a81548162ffffff021916908362ffffff1602179055506101a082015181600201556101c08201518160030160006101000a81548160ff021916908360028111156119b4576119b4613471565b02179055506101e082015160038201805461ff0019166101008360028111156119df576119df613471565b021790555050336000908152600860205260408120805460ff16925090611a05836139ec565b91906101000a81548160ff021916908360ff160217905550506006836002811115611a3257611a32613471565b60ff1681548110611a4557611a456139ba565b90600052602060002090600a918282040191900660030281819054906101000a900462ffffff1680929190611a7990613a9d565b91906101000a81548162ffffff021916908362ffffff16021790555050611ac833600560009054906101000a900462ffffff1662ffffff16600160405180602001604052806000815250612639565b60055460405162ffffff90911681527f7f0777865312bae358531b42d9c405a59bfd31beba1973946dc0ce134cad418a9060200160405180910390a16005805462ffffff16906000611b1983613a9d565b91906101000a81548162ffffff021916908362ffffff16021790555050505050565b611b43612fd4565b600082815260076020908152604091829020825161020081018452815462ffffff8082168352630100000080830466ffffffffffffff16958401959095526a0100000000000000000000820461ffff16958301959095526c01000000000000000000000000810485166060830152607860020a810485166080830152609060020a8104851660a083015275010000000000000000000000000000000000000000008104851660c083015260c060020a8104851660e08301527b01000000000000000000000000000000000000000000000000000000900484166101008201526001820154808516610120830152928304841661014082015266010000000000008304841661016082015269010000000000000000009092049092166101808201526002808301546101a083015260038301549192916101c084019160ff90911690811115611c9357611c93613471565b6002811115611ca457611ca4613471565b81526020016003820160019054906101000a900460ff166002811115611ccc57611ccc613471565b6002811115611cdd57611cdd613471565b90525092915050565b611cef826123c3565b611d3e5760405160e560020a62461bcd02815260206004820152601f60248201527f596f75277265206e6f7420746865206f776e6572206f6620746865204e465400604482015260640161055f565b611d47816123c3565b1515611d52836123c3565b15151415611dcb5760405160e560020a62461bcd02815260206004820152602160248201527f596f7572204e4654732063616e6e6f742066696768742065616368206f74686560448201527f7200000000000000000000000000000000000000000000000000000000000000606482015260840161055f565b6000828152600760205260409020600201544290611dea90603c613ac0565b10611e3a5760405160e560020a62461bcd02815260206004820152601860248201527f546f20736f6f6e20746f206669676874202831206d696e290000000000000000604482015260640161055f565b600082815260076020526040902054600a609060020a90910462ffffff161015611ea95760405160e560020a62461bcd02815260206004820152601260248201527f4e6f7420656e6f756768207374616d696e610000000000000000000000000000604482015260640161055f565b6000818152600760205260408082205484835291205461ffff6a010000000000000000000092839004811692909104161115611f2a5760405160e560020a62461bcd02815260206004820152601c60248201527f466967687420736f6d656f6e6520796f7572206f776e2073697a652100000000604482015260640161055f565b600082815260076020526040902054607860020a900462ffffff1615801590611f6c5750600081815260076020526040902054607860020a900462ffffff1615155b611fbb5760405160e560020a62461bcd02815260206004820152601760248201527f4f6e65206f6620746865204e4654732069732064656164000000000000000000604482015260640161055f565b600082815260076020526040812042600290910155611fda8383612762565b90506000611fe88385612762565b60008581526007602052604090205490915061201290600a90609060020a900462ffffff16613a27565b6000858152600760205260409020805462ffffff92909216609060020a0274ffffff0000000000000000000000000000000000001990921691909117905561205c8484848461285a565b50505050565b600160a060020a03851633148061207e575061207e8533610474565b6120f35760405160e560020a62461bcd02815260206004820152602960248201527f455243313135353a2063616c6c6572206973206e6f74206f776e6572206e6f7260448201527f20617070726f7665640000000000000000000000000000000000000000000000606482015260840161055f565b6107db8585858585612a32565b600354600160a060020a0316331461212d5760405160e560020a62461bcd02815260040161055f9061394d565b600160a060020a0381166121ac5760405160e560020a62461bcd02815260206004820152602660248201527f4f776e61626c653a206e6577206f776e657220697320746865207a65726f206160448201527f6464726573730000000000000000000000000000000000000000000000000000606482015260840161055f565b610662816123d7565b8051611481906002906020840190613057565b81518351146122425760405160e560020a62461bcd02815260206004820152602860248201527f455243313135353a2069647320616e6420616d6f756e7473206c656e6774682060448201527f6d69736d61746368000000000000000000000000000000000000000000000000606482015260840161055f565b600160a060020a03841661226b5760405160e560020a62461bcd02815260040161055f90613ad8565b3360005b845181101561235557600085828151811061228c5761228c6139ba565b6020026020010151905060008583815181106122aa576122aa6139ba565b60209081029190910181015160008481528083526040808220600160a060020a038e1683529093529190912054909150818110156122fd5760405160e560020a62461bcd02815260040161055f90613b35565b600083815260208181526040808320600160a060020a038e8116855292528083208585039055908b1682528120805484929061233a908490613ac0565b925050819055505050508061234e90613a0c565b905061226f565b5084600160a060020a031686600160a060020a031682600160a060020a03167f4a39dc06d4c0dbc64b70af90fd698a233a518aa5d07e595d983b8c0526c8f7fb87876040516123a5929190613b92565b60405180910390a46123bb818787878787612b55565b505050505050565b60006123cf33836104e2565b151592915050565b60038054600160a060020a0383811673ffffffffffffffffffffffffffffffffffffffff19831681179093556040519116919082907f8be0079c531659141344cd1fd0a4f28419497f9722a3daafe3b4186f6b6457e090600090a35050565b81600160a060020a031683600160a060020a031614156124c15760405160e560020a62461bcd02815260206004820152602960248201527f455243313135353a2073657474696e6720617070726f76616c2073746174757360448201527f20666f722073656c660000000000000000000000000000000000000000000000606482015260840161055f565b600160a060020a03838116600081815260016020908152604080832094871680845294825291829020805460ff191686151590811790915591519182527f17307eab39ab6107e8899845ad3d59bd9653f200f220920489ca2b5937696c31910160405180910390a3505050565b60408051600480825260a08201909252606091600091906020820160808036833701905050905060005b60048160ff1610156125b35761256f6003826125b9565b61257a906003613bc0565b828260ff168151811061258f5761258f6139ba565b60ff90921660209283029190910190910152806125ab816139ec565b915050612558565b50919050565b6040517f010000000000000000000000000000000000000000000000000000000000000060ff83160260208201524260218201524460418201526c0100000000000000000000000033026061820152600090839060750160408051601f1981840301815291905280516020909101206126329190613bfe565b9392505050565b600160a060020a0384166126b85760405160e560020a62461bcd02815260206004820152602160248201527f455243313135353a206d696e7420746f20746865207a65726f2061646472657360448201527f7300000000000000000000000000000000000000000000000000000000000000606482015260840161055f565b336126d2816000876126c988612cf5565b6107db88612cf5565b600084815260208181526040808320600160a060020a038916845290915281208054859290612702908490613ac0565b90915550506040805185815260208101859052600160a060020a0380881692600092918516917fc3d58168c5ae7397731d063d5bbf3d657854427343f4c083240f7aacaa2d0f62910160405180910390a46107db81600087878787612d40565b60008281526007602052604081205481906127cd90612797906c01000000000000000000000000900462ffffff166001613a4b565b6000868152600760205260409020547501000000000000000000000000000000000000000000900462ffffff9081169116612e30565b60008481526007602052604081205491925090612832906128119060029061280b906c01000000000000000000000000900462ffffff166001613ac0565b90612e3c565b60008681526007602052604090205460c060020a900462ffffff1690612e30565b9050808210156128475760009250505061058b565b6128518282612e48565b9250505061058b565b600083815260076020526040902054607860020a900462ffffff1682106128b0576000838152600760205260409020805471ffffff000000000000000000000000000000191690556128ab84612e54565b6129e4565b6000838152600760205260409020546128d6908390607860020a900462ffffff16613a27565b600084815260076020526040808220805471ffffff0000000000000000000000000000001916607860020a62ffffff9586168102919091179091558783529120540416811061294f576000848152600760205260409020805471ffffff000000000000000000000000000000191690556128ab83612e54565b600084815260076020526040902054612975908290607860020a900462ffffff16613a27565b6000858152600760205260409020805462ffffff92909216607860020a0271ffffff00000000000000000000000000000019909216919091179055808211156129c1576128ab84612e54565b818111156129d2576128ab83612e54565b6129db84612e54565b6129e483612e54565b6040805185815260208101859052908101839052606081018290527f8c796248b1f953c9c8c0ed19eddf3a98eebe2c84390fe57e75f222dc677a14119060800160405180910390a150505050565b600160a060020a038416612a5b5760405160e560020a62461bcd02815260040161055f90613ad8565b33612a6b8187876126c988612cf5565b600084815260208181526040808320600160a060020a038a16845290915290205483811015612aaf5760405160e560020a62461bcd02815260040161055f90613b35565b600085815260208181526040808320600160a060020a038b8116855292528083208785039055908816825281208054869290612aec908490613ac0565b90915550506040805186815260208101869052600160a060020a03808916928a821692918616917fc3d58168c5ae7397731d063d5bbf3d657854427343f4c083240f7aacaa2d0f62910160405180910390a4612b4c828888888888612d40565b50505050505050565b600160a060020a0384163b156123bb576040517fbc197c81000000000000000000000000000000000000000000000000000000008152600160a060020a0385169063bc197c8190612bb29089908990889088908890600401613c12565b6020604051808303816000875af1925050508015612bed575060408051601f3d908101601f19168201909252612bea91810190613c70565b60015b612ca957612bf9613c8d565b806308c379a01415612c365750612c0e613cc6565b80612c195750612c38565b8060405160e560020a62461bcd02815260040161055f91906132c4565b505b60405160e560020a62461bcd02815260206004820152603460248201527f455243313135353a207472616e7366657220746f206e6f6e204552433131353560448201527f526563656976657220696d706c656d656e746572000000000000000000000000606482015260840161055f565b600160e060020a031981167fbc197c810000000000000000000000000000000000000000000000000000000014612b4c5760405160e560020a62461bcd02815260040161055f90613d50565b60408051600180825281830190925260609160009190602080830190803683370190505090508281600081518110612d2f57612d2f6139ba565b602090810291909101015292915050565b600160a060020a0384163b156123bb576040517ff23a6e61000000000000000000000000000000000000000000000000000000008152600160a060020a0385169063f23a6e6190612d9d9089908990889088908890600401613dad565b6020604051808303816000875af1925050508015612dd8575060408051601f3d908101601f19168201909252612dd591810190613c70565b60015b612de457612bf9613c8d565b600160e060020a031981167ff23a6e610000000000000000000000000000000000000000000000000000000014612b4c5760405160e560020a62461bcd02815260040161055f90613d50565b60006126328284613df0565b60006126328284613e0f565b60006126328284613e23565b600081815260076020526040902080546c01000000000000000000000000900462ffffff1690600c612e8583613a9d565b82546101009290920a62ffffff818102199093169183160217909155600083815260076020526040902054612ecf9250600a916c0100000000000000000000000090910416613e3a565b62ffffff1661066257600081815260076020526040902080546a0100000000000000000000900461ffff1690600a612f0683613e5c565b91906101000a81548161ffff021916908361ffff16021790555050600a6007600083815260200190815260200160002060010160098282829054906101000a900462ffffff16612f569190613a4b565b92506101000a81548162ffffff021916908362ffffff1602179055507f3b7ca85b5e3d1ebb3a81e8d9e27bfeb9ef2f447026c115421132a20b0733b73f8160076000848152602001908152602001600020600001600a9054906101000a900461ffff16604051610fde92919091825261ffff16602082015260400190565b6040805161020081018252600080825260208201819052918101829052606081018290526080810182905260a0810182905260c0810182905260e08101829052610100810182905261012081018290526101408101829052610160810182905261018081018290526101a08101829052906101c082019081526020016000905290565b82805461306390613982565b90600052602060002090601f01602090048101928261308557600085556130cb565b82601f1061309e57805160ff19168380011785556130cb565b828001600101855582156130cb579182015b828111156130cb5782518255916020019190600101906130b0565b506130d79291506130db565b5090565b5b808211156130d757600081556001016130dc565b8035600160a060020a038116811461310757600080fd5b919050565b6000806040838503121561311f57600080fd5b613128836130f0565b946020939093013593505050565b600160e060020a03198116811461066257600080fd5b60006020828403121561315e57600080fd5b813561263281613136565b60e060020a634e487b7102600052604160045260246000fd5b601f8201601f1916810167ffffffffffffffff811182821017156131a8576131a8613169565b6040525050565b600067ffffffffffffffff8311156131c9576131c9613169565b6040516131e0601f8501601f191660200182613182565b8091508381528484840111156131f557600080fd5b83836020830137600060208583010152509392505050565b60006020828403121561321f57600080fd5b813567ffffffffffffffff81111561323657600080fd5b8201601f8101841361324757600080fd5b613256848235602084016131af565b949350505050565b60006020828403121561327057600080fd5b5035919050565b6000815180845260005b8181101561329d57602081850181015186830182015201613281565b818111156132af576000602083870101525b50601f01601f19169290920160200192915050565b6020815260006126326020830184613277565b6000602082840312156132e957600080fd5b813560ff8116811461263257600080fd5b60006020828403121561330c57600080fd5b612632826130f0565b600067ffffffffffffffff82111561332f5761332f613169565b5060209081020190565b600082601f83011261334a57600080fd5b8135602061335782613315565b6040516133648282613182565b838152928202850182019282810191508684111561338157600080fd5b8286015b8481101561339c5780358352918301918301613385565b509695505050505050565b600082601f8301126133b857600080fd5b612632838335602085016131af565b600080600080600060a086880312156133df57600080fd5b6133e8866130f0565b94506133f6602087016130f0565b9350604086013567ffffffffffffffff8082111561341357600080fd5b61341f89838a01613339565b9450606088013591508082111561343557600080fd5b61344189838a01613339565b9350608088013591508082111561345757600080fd5b50613464888289016133a7565b9150509295509295909350565b60e060020a634e487b7102600052602160045260246000fd5b600381106134ab5760e060020a634e487b7102600052602160045260246000fd5b9052565b805162ffffff16825260208101516134d2602084018266ffffffffffffff169052565b5060408101516134e8604084018261ffff169052565b5060608101516134ff606084018262ffffff169052565b506080810151613516608084018262ffffff169052565b5060a081015161352d60a084018262ffffff169052565b5060c081015161354460c084018262ffffff169052565b5060e081015161355b60e084018262ffffff169052565b506101008181015162ffffff9081169184019190915261012080830151821690840152610140808301518216908401526101608083015182169084015261018080830151909116908301526101a080820151908301526101c0808201516135c48285018261348a565b50506101e08082015161205c8285018261348a565b6020808252825182820181905260009190848201906040850190845b8181101561361c576136088385516134af565b9284019261020092909201916001016135f5565b50909695505050505050565b6000806040838503121561363b57600080fd5b823567ffffffffffffffff8082111561365357600080fd5b818501915085601f83011261366757600080fd5b8135602061367482613315565b6040516136818282613182565b838152928202850182019282810191508984111561369e57600080fd5b948201945b838610156136c3576136b4866130f0565b825294820194908201906136a3565b965050860135925050808211156136d957600080fd5b506136e685828601613339565b9150509250929050565b600081518084526020808501945080840160005b8381101561372057815187529582019590820190600101613704565b509495945050505050565b60208152600061263260208301846136f0565b803562ffffff8116811461310757600080fd5b60008060008060008060008060006101208a8c03121561377057600080fd5b8935985061378060208b0161373e565b975061378e60408b0161373e565b965061379c60608b0161373e565b95506137aa60808b0161373e565b94506137b860a08b0161373e565b93506137c660c08b0161373e565b92506137d460e08b0161373e565b91506137e36101008b0161373e565b90509295985092959850929598565b60006020828403121561380457600080fd5b6126328261373e565b6000806040838503121561382057600080fd5b613829836130f0565b91506020830135801515811461383e57600080fd5b809150509250929050565b6003811061066257600080fd5b6000806040838503121561386957600080fd5b823561387481613849565b9150602083013561383e81613849565b610200810161058b82846134af565b600080604083850312156138a657600080fd5b50508035926020909101359150565b600080604083850312156138c857600080fd5b6138d1836130f0565b91506138df602084016130f0565b90509250929050565b600080600080600060a0868803121561390057600080fd5b613909866130f0565b9450613917602087016130f0565b93506040860135925060608601359150608086013567ffffffffffffffff81111561394157600080fd5b613464888289016133a7565b6020808252818101527f4f776e61626c653a2063616c6c6572206973206e6f7420746865206f776e6572604082015260600190565b60028104600182168061399657607f821691505b602082108114156125b35760e060020a634e487b7102600052602260045260246000fd5b60e060020a634e487b7102600052603260045260246000fd5b60e060020a634e487b7102600052601160045260246000fd5b600060ff821660ff811415613a0357613a036139d3565b60010192915050565b6000600019821415613a2057613a206139d3565b5060010190565b600062ffffff83811690831681811015613a4357613a436139d3565b039392505050565b600062ffffff808316818516808303821115613a6957613a696139d3565b01949350505050565b600062ffffff80831681851681830481118215151615613a9457613a946139d3565b02949350505050565b600062ffffff80831681811415613ab657613ab66139d3565b6001019392505050565b60008219821115613ad357613ad36139d3565b500190565b60208082526025908201527f455243313135353a207472616e7366657220746f20746865207a65726f20616460408201527f6472657373000000000000000000000000000000000000000000000000000000606082015260800190565b6020808252602a908201527f455243313135353a20696e73756666696369656e742062616c616e636520666f60408201527f72207472616e7366657200000000000000000000000000000000000000000000606082015260800190565b604081526000613ba560408301856136f0565b8281036020840152613bb781856136f0565b95945050505050565b600060ff821660ff84168060ff03821115613bdd57613bdd6139d3565b019392505050565b60e060020a634e487b7102600052601260045260246000fd5b600082613c0d57613c0d613be5565b500690565b6000600160a060020a03808816835280871660208401525060a06040830152613c3e60a08301866136f0565b8281036060840152613c5081866136f0565b90508281036080840152613c648185613277565b98975050505050505050565b600060208284031215613c8257600080fd5b815161263281613136565b600060033d1115613cc35760046000803e7c01000000000000000000000000000000000000000000000000000000006000510490505b90565b600060443d1015613cd45790565b6040516003193d81016004833e81513d67ffffffffffffffff8160248401118184111715613d0457505050505090565b8285019150815181811115613d1c5750505050505090565b843d8701016020828501011115613d365750505050505090565b613d4560208286010187613182565b509095945050505050565b60208082526028908201527f455243313135353a204552433131353552656365697665722072656a6563746560408201527f6420746f6b656e73000000000000000000000000000000000000000000000000606082015260800190565b6000600160a060020a03808816835280871660208401525084604083015283606083015260a06080830152613de560a0830184613277565b979650505050505050565b6000816000190483118215151615613e0a57613e0a6139d3565b500290565b600082613e1e57613e1e613be5565b500490565b600082821015613e3557613e356139d3565b500390565b600062ffffff80841680613e5057613e50613be5565b92169190910692915050565b600061ffff80831681811415613ab657613ab66139d356fea26469706673582212201e1f5f217258ecf71f6a590e5b6d5ead188619b1d4b9de08b70ee49a1a3e478a64736f6c634300080b0033",
  "immutableReferences": {},
  "source": "// SPDX-License-Identifier: MIT\r\npragma solidity 0.8.11;\r\n\r\nimport \"@openzeppelin/contracts/token/ERC1155/ERC1155.sol\";\r\nimport \"@openzeppelin/contracts/access/Ownable.sol\";\r\nimport \"@openzeppelin/contracts/utils/math/SafeMath.sol\";\r\n\r\ncontract UnlimitedEvolution is ERC1155, Ownable {\r\n\r\n    constructor() ERC1155(\"\") {}\r\n\r\n    function setURI(string memory newuri) external onlyOwner {\r\n        _setURI(newuri);\r\n    }\r\n\r\n    using SafeMath for uint256;\r\n\r\n    enum type_character { BRUTE, SPIRITUAL, ELEMENTARY }\r\n    enum gender_character { MASCULINE, FEMININE, OTHER }\r\n    uint256 mintFee = 0.001 ether;\r\n    uint24 nextId;\r\n    uint24 limitMint = 4000;\r\n    uint24[] countMints = new uint8[](3);\r\n\r\n    struct Character {\r\n        uint24 id;\r\n        uint56 dna;\r\n        uint16 level;\r\n        uint24 xp;\r\n        uint24 hp;\r\n        uint24 stamina;\r\n        uint24 attack;\r\n        uint24 armor;\r\n        uint24 attack1;\r\n        uint24 attack2;\r\n        uint24 attack3;\r\n        uint24 attack4;\r\n        uint24 attributePoints;\r\n        uint256 lastFight;\r\n        type_character typeCharacter;\r\n        gender_character genderCharacter;\r\n    }\r\n\r\n    mapping(uint256 => Character) private _characterDetails;\r\n    mapping(address => uint8) private _balanceOfCharacters;\r\n\r\n    // Events\r\n    event CharacterCreated(uint256 id);\r\n    // event Healed(uint256 tokenId);\r\n    event Rested(uint256 tokenId);\r\n    event Fighted(uint256 myTokenId, uint256 rivalTokenId, uint256 substrateLifeToRival, uint256 substrateLifeToMe);\r\n    event LevelUp(uint256 tokenId, uint256 level);\r\n    event FeeUpdated(uint256 mintFee);\r\n    event LimitUpdated(uint256 limitMint);\r\n    \r\n    function updateFee(uint256 _mintFee) external onlyOwner() {\r\n        mintFee = _mintFee;\r\n        emit FeeUpdated(mintFee);\r\n    }\r\n\r\n    function updateLimitMint(uint24 _limitMint) external onlyOwner() {\r\n        limitMint = _limitMint;\r\n        emit LimitUpdated(limitMint);\r\n    }\r\n    \r\n    function withdraw() external onlyOwner() {\r\n        payable(owner()).transfer(address(this).balance);\r\n    }\r\n\r\n    function _ownerOf(uint256 tokenId) private view returns (bool) {\r\n        return balanceOf(msg.sender, tokenId) != 0;\r\n    }\r\n\r\n    // Helpers\r\n    function _generateRandomNumber(uint256 _mod, uint8 num) private view returns(uint256) {\r\n        return uint256(keccak256(abi.encodePacked(num, block.timestamp, block.difficulty, msg.sender))) % _mod;\r\n    }\r\n\r\n    function _attributesMintDistribution() private view returns(uint8[] memory) {\r\n        uint8[] memory _attributes = new uint8[](4);\r\n        for(uint8 i=0; i<4; i++) {\r\n            _attributes[i] = 3 + uint8(_generateRandomNumber(3, i)); // ide nft: la lose ou la win, tu obtiens 0 ou 10 points bonus\r\n        }\r\n        return _attributes;\r\n    }\r\n    \r\n    function _substrateLife(uint256 id1, uint256 id2) private view returns(uint256) {\r\n        uint256 op1 = uint256(_characterDetails[id1].attack).mul((1 + _characterDetails[id1].xp));\r\n        uint256 op2 = uint256(_characterDetails[id2].armor).mul(((1 + uint256(_characterDetails[id2].xp)).div(2)));\r\n        if (op1 < op2) {\r\n            return 0;\r\n        } else {\r\n            return op1.sub(op2);\r\n        }\r\n    }\r\n\r\n    function _xpLevelUp(uint256 _tokenId) private {\r\n        _characterDetails[_tokenId].xp++;\r\n        if (_characterDetails[_tokenId].xp % 10 == 0) {\r\n            _characterDetails[_tokenId].level++;\r\n            _characterDetails[_tokenId].attributePoints += 10;\r\n            emit LevelUp(_tokenId, _characterDetails[_tokenId].level);\r\n        }\r\n    }\r\n\r\n    function attributesLevelUp(uint256 _tokenId, uint24 _hp, uint24 _stamina, uint24 _attack, uint24 _armor, uint24 _attack1, uint24 _attack2, uint24 _attack3, uint24 _attack4) external {\r\n        uint256 totalPoints = _hp + _stamina + _attack + _armor + _attack1 + _attack2 + _attack3 + _attack4;\r\n        require(_characterDetails[_tokenId].attributePoints == totalPoints, \"Wrong amount of points to attribute\");\r\n        _characterDetails[_tokenId].hp += _hp * 20;\r\n        _characterDetails[_tokenId].stamina += _stamina * 20;\r\n        _characterDetails[_tokenId].attack += _attack;\r\n        _characterDetails[_tokenId].armor += _armor;\r\n        _characterDetails[_tokenId].attack1 += _attack1;\r\n        _characterDetails[_tokenId].attack2 += _attack2;\r\n        _characterDetails[_tokenId].attack3 += _attack3;\r\n        _characterDetails[_tokenId].attack4 += _attack4;\r\n    }\r\n\r\n    function _subtrateLifeOperation(uint256 _myTokenId, uint256 _rivalTokenId, uint256 _substrateLifeToRival, uint256 _substrateLifeToMe) private {\r\n        if(_substrateLifeToRival >= _characterDetails[_rivalTokenId].hp) {\r\n            _characterDetails[_rivalTokenId].hp = 0;\r\n            _xpLevelUp(_myTokenId);\r\n        } else {\r\n            _characterDetails[_rivalTokenId].hp = _characterDetails[_rivalTokenId].hp - uint24(_substrateLifeToRival);\r\n            if(_substrateLifeToMe >= _characterDetails[_myTokenId].hp) {\r\n                _characterDetails[_myTokenId].hp = 0;\r\n                _xpLevelUp(_rivalTokenId);\r\n            } else {\r\n                _characterDetails[_myTokenId].hp = _characterDetails[_myTokenId].hp - uint24(_substrateLifeToMe);\r\n                if (_substrateLifeToRival > _substrateLifeToMe) {\r\n                    _xpLevelUp(_myTokenId);\r\n                } else if (_substrateLifeToMe > _substrateLifeToRival) {\r\n                    _xpLevelUp(_rivalTokenId);\r\n                } else {\r\n                    _xpLevelUp(_myTokenId);\r\n                    _xpLevelUp(_rivalTokenId);\r\n                }\r\n            }\r\n        }\r\n        emit Fighted(_myTokenId, _rivalTokenId, _substrateLifeToRival, _substrateLifeToMe);\r\n    }\r\n\r\n    function createCharacter(type_character _typeCharacter, gender_character _genderCharacter) external payable {\r\n        require(msg.value == mintFee, \"Wrong amount of fees\");\r\n        require(_balanceOfCharacters[msg.sender] < 5, \"You can't have more than 5 NFT\");\r\n        require(countMints[uint8(_typeCharacter)] <= limitMint, \"You cannot mint more character with this class\");\r\n        uint8[] memory _attributes = _attributesMintDistribution();\r\n        _characterDetails[nextId] = Character(nextId, uint56(_generateRandomNumber(10**16, 1)), 1, 1, 100, 100, 5, 3, _attributes[0], _attributes[1], _attributes[2], _attributes[3], 0, block.timestamp, _typeCharacter, _genderCharacter);\r\n        _balanceOfCharacters[msg.sender]++;\r\n        countMints[uint8(_typeCharacter)]++;\r\n        _mint(msg.sender, nextId, 1, \"\");\r\n        emit CharacterCreated(nextId);\r\n        nextId++;\r\n    }\r\n\r\n    // function heal(uint256 _tokenId) external payable {\r\n    //     require(_ownerOf(_tokenId), \"You're not the owner of the NFT\");\r\n    //     require(_characterDetails[_tokenId].lastHeal + 60 < block.timestamp, \"To soon to heal (1 min)\");\r\n    //     require(_characterDetails[_tokenId].hp < 100, \"You're character is already healed\");\r\n    //     _characterDetails[_tokenId].lastHeal = block.timestamp;\r\n    //     uint256 tempResult = (_characterDetails[_tokenId].hp).add(50);\r\n    //     if (tempResult > 100) {\r\n    //         _characterDetails[_tokenId].hp = 100;\r\n    //     } else {\r\n    //         _characterDetails[_tokenId].hp = (_characterDetails[_tokenId].hp).add(50);\r\n    //     }\r\n    //     emit Healed(_tokenId);\r\n    // }\r\n\r\n    function rest(uint256 _tokenId) external payable {\r\n        require(_ownerOf(_tokenId), \"You're not the owner of the NFT\");\r\n        require(_characterDetails[_tokenId].stamina < 100, \"You're character is already rested\");\r\n        _characterDetails[_tokenId].stamina = 100;\r\n        emit Rested(_tokenId);\r\n    }\r\n\r\n    function fight(uint256 _myTokenId, uint256 _rivalTokenId) external payable {\r\n        require(_ownerOf(_myTokenId), \"You're not the owner of the NFT\");\r\n        require(_ownerOf(_myTokenId) != _ownerOf(_rivalTokenId), \"Your NFTs cannot fight each other\");\r\n        require(_characterDetails[_myTokenId].lastFight + 60 < block.timestamp, \"To soon to fight (1 min)\");\r\n        require(_characterDetails[_myTokenId].stamina >= 10, \"Not enough stamina\");\r\n        require(_characterDetails[_myTokenId].level <= _characterDetails[_rivalTokenId].level, \"Fight someone your own size!\");\r\n        require(_characterDetails[_myTokenId].hp > 0 && _characterDetails[_rivalTokenId].hp > 0, \"One of the NFTs is dead\");\r\n\r\n        _characterDetails[_myTokenId].lastFight = block.timestamp;\r\n        uint256 _substrateLifeToRival = _substrateLife(_myTokenId, _rivalTokenId);\r\n        uint256 _substrateLifeToMe = _substrateLife(_rivalTokenId, _myTokenId);\r\n\r\n        _characterDetails[_myTokenId].stamina = _characterDetails[_myTokenId].stamina - 10;\r\n        _subtrateLifeOperation(_myTokenId, _rivalTokenId, _substrateLifeToRival, _substrateLifeToMe);\r\n    }\r\n    \r\n    // Getters\r\n    function getTokenDetails(uint256 _tokenId) external view returns(Character memory) {\r\n        return _characterDetails[_tokenId];\r\n    }\r\n\r\n    function getMyCharacters() external view returns (Character[] memory){\r\n        uint8 count = 0;\r\n        Character[] memory myCharacters = new Character[](_balanceOfCharacters[msg.sender]);\r\n        for (uint256 i = 0; i < nextId; i++) {\r\n            if (_ownerOf(i)) {\r\n                myCharacters[count] = _characterDetails[i];\r\n                count++;\r\n            }\r\n        }\r\n        return myCharacters;\r\n    }\r\n\r\n    function getOthersCharacters() external view returns (Character[] memory){\r\n        uint256 count = 0;\r\n        Character[] memory othersCharacters = new Character[](nextId - _balanceOfCharacters[msg.sender]);\r\n        for (uint256 i = 0; i < nextId; i++) {\r\n            if (!_ownerOf(i)) {\r\n                othersCharacters[count] = _characterDetails[i];\r\n                count++;\r\n            }\r\n        }\r\n        return othersCharacters;\r\n    }\r\n    \r\n    // // only for TESTS getAllCharacters\r\n    // function getAllCharacters() external view returns (Character[] memory){\r\n    //     Character[] memory allCharacters = new Character[](nextId);\r\n    //     for (uint256 i = 0; i < nextId; i++) {\r\n    //         allCharacters[i] = _characterDetails[i];\r\n    //     }\r\n    //     return allCharacters;\r\n    // }\r\n    function getBalanceOfCharacters(address _address) external view returns(uint8) {\r\n        return _balanceOfCharacters[_address];\r\n    }\r\n\r\n    function getCountMints(uint8 _class) external view returns(uint24) {\r\n        return countMints[_class];\r\n    }\r\n}\r\n",
  "sourcePath": "D:\\TAF\\Alyra\\ALYRA_PROJET_FINAL\\unlimited_evolution\\contracts\\UnlimitedEvolution.sol",
  "compiler": {
    "name": "solc",
    "version": "0.8.11+commit.d7f03943.Emscripten.clang"
  },
  "schemaVersion": "3.4.3",
  "updatedAt": "2021-12-23T14:41:56.062Z",
  "networkType": "ethereum",
  "devdoc": {
    "kind": "dev",
    "methods": {
      "balanceOf(address,uint256)": {
        "details": "See {IERC1155-balanceOf}. Requirements: - `account` cannot be the zero address."
      },
      "balanceOfBatch(address[],uint256[])": {
        "details": "See {IERC1155-balanceOfBatch}. Requirements: - `accounts` and `ids` must have the same length."
      },
      "isApprovedForAll(address,address)": {
        "details": "See {IERC1155-isApprovedForAll}."
      },
      "owner()": {
        "details": "Returns the address of the current owner."
      },
      "renounceOwnership()": {
        "details": "Leaves the contract without owner. It will not be possible to call `onlyOwner` functions anymore. Can only be called by the current owner. NOTE: Renouncing ownership will leave the contract without an owner, thereby removing any functionality that is only available to the owner."
      },
      "safeBatchTransferFrom(address,address,uint256[],uint256[],bytes)": {
        "details": "See {IERC1155-safeBatchTransferFrom}."
      },
      "safeTransferFrom(address,address,uint256,uint256,bytes)": {
        "details": "See {IERC1155-safeTransferFrom}."
      },
      "setApprovalForAll(address,bool)": {
        "details": "See {IERC1155-setApprovalForAll}."
      },
      "supportsInterface(bytes4)": {
        "details": "See {IERC165-supportsInterface}."
      },
      "transferOwnership(address)": {
        "details": "Transfers ownership of the contract to a new account (`newOwner`). Can only be called by the current owner."
      },
      "uri(uint256)": {
        "details": "See {IERC1155MetadataURI-uri}. This implementation returns the same URI for *all* token types. It relies on the token type ID substitution mechanism https://eips.ethereum.org/EIPS/eip-1155#metadata[defined in the EIP]. Clients calling this function must replace the `\\{id\\}` substring with the actual token type ID."
      }
    },
    "version": 1
  },
  "userdoc": {
    "kind": "user",
    "methods": {},
    "version": 1
  }
}