{
  "contractName": "UnlimitedEvolution",
  "abi": [
    {
      "inputs": [],
      "stateMutability": "nonpayable",
      "type": "constructor"
    },
    {
      "anonymous": false,
      "inputs": [
        {
          "indexed": true,
          "internalType": "address",
          "name": "account",
          "type": "address"
        },
        {
          "indexed": true,
          "internalType": "address",
          "name": "operator",
          "type": "address"
        },
        {
          "indexed": false,
          "internalType": "bool",
          "name": "approved",
          "type": "bool"
        }
      ],
      "name": "ApprovalForAll",
      "type": "event"
    },
    {
      "anonymous": false,
      "inputs": [
        {
          "indexed": false,
          "internalType": "uint256",
          "name": "id",
          "type": "uint256"
        }
      ],
      "name": "CharacterCreated",
      "type": "event"
    },
    {
      "anonymous": false,
      "inputs": [
        {
          "indexed": false,
          "internalType": "uint256",
          "name": "mintFee",
          "type": "uint256"
        }
      ],
      "name": "FeeUpdated",
      "type": "event"
    },
    {
      "anonymous": false,
      "inputs": [
        {
          "indexed": false,
          "internalType": "uint256",
          "name": "myTokenId",
          "type": "uint256"
        },
        {
          "indexed": false,
          "internalType": "uint256",
          "name": "rivalTokenId",
          "type": "uint256"
        },
        {
          "indexed": false,
          "internalType": "uint256",
          "name": "substrateLifeToRival",
          "type": "uint256"
        },
        {
          "indexed": false,
          "internalType": "uint256",
          "name": "substrateLifeToMe",
          "type": "uint256"
        }
      ],
      "name": "Fighted",
      "type": "event"
    },
    {
      "anonymous": false,
      "inputs": [
        {
          "indexed": false,
          "internalType": "uint256",
          "name": "tokenId",
          "type": "uint256"
        },
        {
          "indexed": false,
          "internalType": "uint256",
          "name": "level",
          "type": "uint256"
        }
      ],
      "name": "LevelUp",
      "type": "event"
    },
    {
      "anonymous": false,
      "inputs": [
        {
          "indexed": false,
          "internalType": "uint256",
          "name": "limitMint",
          "type": "uint256"
        }
      ],
      "name": "LimitUpdated",
      "type": "event"
    },
    {
      "anonymous": false,
      "inputs": [
        {
          "indexed": true,
          "internalType": "address",
          "name": "previousOwner",
          "type": "address"
        },
        {
          "indexed": true,
          "internalType": "address",
          "name": "newOwner",
          "type": "address"
        }
      ],
      "name": "OwnershipTransferred",
      "type": "event"
    },
    {
      "anonymous": false,
      "inputs": [
        {
          "indexed": false,
          "internalType": "uint256",
          "name": "tokenId",
          "type": "uint256"
        }
      ],
      "name": "Rested",
      "type": "event"
    },
    {
      "anonymous": false,
      "inputs": [
        {
          "indexed": true,
          "internalType": "address",
          "name": "operator",
          "type": "address"
        },
        {
          "indexed": true,
          "internalType": "address",
          "name": "from",
          "type": "address"
        },
        {
          "indexed": true,
          "internalType": "address",
          "name": "to",
          "type": "address"
        },
        {
          "indexed": false,
          "internalType": "uint256[]",
          "name": "ids",
          "type": "uint256[]"
        },
        {
          "indexed": false,
          "internalType": "uint256[]",
          "name": "values",
          "type": "uint256[]"
        }
      ],
      "name": "TransferBatch",
      "type": "event"
    },
    {
      "anonymous": false,
      "inputs": [
        {
          "indexed": true,
          "internalType": "address",
          "name": "operator",
          "type": "address"
        },
        {
          "indexed": true,
          "internalType": "address",
          "name": "from",
          "type": "address"
        },
        {
          "indexed": true,
          "internalType": "address",
          "name": "to",
          "type": "address"
        },
        {
          "indexed": false,
          "internalType": "uint256",
          "name": "id",
          "type": "uint256"
        },
        {
          "indexed": false,
          "internalType": "uint256",
          "name": "value",
          "type": "uint256"
        }
      ],
      "name": "TransferSingle",
      "type": "event"
    },
    {
      "anonymous": false,
      "inputs": [
        {
          "indexed": false,
          "internalType": "string",
          "name": "value",
          "type": "string"
        },
        {
          "indexed": true,
          "internalType": "uint256",
          "name": "id",
          "type": "uint256"
        }
      ],
      "name": "URI",
      "type": "event"
    },
    {
      "inputs": [
        {
          "internalType": "address",
          "name": "account",
          "type": "address"
        },
        {
          "internalType": "uint256",
          "name": "id",
          "type": "uint256"
        }
      ],
      "name": "balanceOf",
      "outputs": [
        {
          "internalType": "uint256",
          "name": "",
          "type": "uint256"
        }
      ],
      "stateMutability": "view",
      "type": "function",
      "constant": true
    },
    {
      "inputs": [
        {
          "internalType": "address[]",
          "name": "accounts",
          "type": "address[]"
        },
        {
          "internalType": "uint256[]",
          "name": "ids",
          "type": "uint256[]"
        }
      ],
      "name": "balanceOfBatch",
      "outputs": [
        {
          "internalType": "uint256[]",
          "name": "",
          "type": "uint256[]"
        }
      ],
      "stateMutability": "view",
      "type": "function",
      "constant": true
    },
    {
      "inputs": [],
      "name": "getRandomNumber",
      "outputs": [
        {
          "internalType": "bytes32",
          "name": "requestId",
          "type": "bytes32"
        }
      ],
      "stateMutability": "nonpayable",
      "type": "function"
    },
    {
      "inputs": [
        {
          "internalType": "address",
          "name": "account",
          "type": "address"
        },
        {
          "internalType": "address",
          "name": "operator",
          "type": "address"
        }
      ],
      "name": "isApprovedForAll",
      "outputs": [
        {
          "internalType": "bool",
          "name": "",
          "type": "bool"
        }
      ],
      "stateMutability": "view",
      "type": "function",
      "constant": true
    },
    {
      "inputs": [],
      "name": "owner",
      "outputs": [
        {
          "internalType": "address",
          "name": "",
          "type": "address"
        }
      ],
      "stateMutability": "view",
      "type": "function",
      "constant": true
    },
    {
      "inputs": [],
      "name": "randomResult",
      "outputs": [
        {
          "internalType": "uint256",
          "name": "",
          "type": "uint256"
        }
      ],
      "stateMutability": "view",
      "type": "function",
      "constant": true
    },
    {
      "inputs": [
        {
          "internalType": "bytes32",
          "name": "requestId",
          "type": "bytes32"
        },
        {
          "internalType": "uint256",
          "name": "randomness",
          "type": "uint256"
        }
      ],
      "name": "rawFulfillRandomness",
      "outputs": [],
      "stateMutability": "nonpayable",
      "type": "function"
    },
    {
      "inputs": [],
      "name": "renounceOwnership",
      "outputs": [],
      "stateMutability": "nonpayable",
      "type": "function"
    },
    {
      "inputs": [
        {
          "internalType": "address",
          "name": "from",
          "type": "address"
        },
        {
          "internalType": "address",
          "name": "to",
          "type": "address"
        },
        {
          "internalType": "uint256[]",
          "name": "ids",
          "type": "uint256[]"
        },
        {
          "internalType": "uint256[]",
          "name": "amounts",
          "type": "uint256[]"
        },
        {
          "internalType": "bytes",
          "name": "data",
          "type": "bytes"
        }
      ],
      "name": "safeBatchTransferFrom",
      "outputs": [],
      "stateMutability": "nonpayable",
      "type": "function"
    },
    {
      "inputs": [
        {
          "internalType": "address",
          "name": "from",
          "type": "address"
        },
        {
          "internalType": "address",
          "name": "to",
          "type": "address"
        },
        {
          "internalType": "uint256",
          "name": "id",
          "type": "uint256"
        },
        {
          "internalType": "uint256",
          "name": "amount",
          "type": "uint256"
        },
        {
          "internalType": "bytes",
          "name": "data",
          "type": "bytes"
        }
      ],
      "name": "safeTransferFrom",
      "outputs": [],
      "stateMutability": "nonpayable",
      "type": "function"
    },
    {
      "inputs": [
        {
          "internalType": "address",
          "name": "operator",
          "type": "address"
        },
        {
          "internalType": "bool",
          "name": "approved",
          "type": "bool"
        }
      ],
      "name": "setApprovalForAll",
      "outputs": [],
      "stateMutability": "nonpayable",
      "type": "function"
    },
    {
      "inputs": [
        {
          "internalType": "bytes4",
          "name": "interfaceId",
          "type": "bytes4"
        }
      ],
      "name": "supportsInterface",
      "outputs": [
        {
          "internalType": "bool",
          "name": "",
          "type": "bool"
        }
      ],
      "stateMutability": "view",
      "type": "function",
      "constant": true
    },
    {
      "inputs": [],
      "name": "testMode",
      "outputs": [
        {
          "internalType": "bool",
          "name": "",
          "type": "bool"
        }
      ],
      "stateMutability": "view",
      "type": "function",
      "constant": true
    },
    {
      "inputs": [
        {
          "internalType": "address",
          "name": "newOwner",
          "type": "address"
        }
      ],
      "name": "transferOwnership",
      "outputs": [],
      "stateMutability": "nonpayable",
      "type": "function"
    },
    {
      "inputs": [
        {
          "internalType": "uint256",
          "name": "",
          "type": "uint256"
        }
      ],
      "name": "uri",
      "outputs": [
        {
          "internalType": "string",
          "name": "",
          "type": "string"
        }
      ],
      "stateMutability": "view",
      "type": "function",
      "constant": true
    },
    {
      "inputs": [],
      "name": "testModeSwitch",
      "outputs": [],
      "stateMutability": "nonpayable",
      "type": "function"
    },
    {
      "inputs": [
        {
          "internalType": "uint256",
          "name": "_mintFee",
          "type": "uint256"
        }
      ],
      "name": "updateFee",
      "outputs": [],
      "stateMutability": "nonpayable",
      "type": "function"
    },
    {
      "inputs": [
        {
          "internalType": "uint24",
          "name": "_limitMint",
          "type": "uint24"
        }
      ],
      "name": "updateLimitMint",
      "outputs": [],
      "stateMutability": "nonpayable",
      "type": "function"
    },
    {
      "inputs": [],
      "name": "withdraw",
      "outputs": [],
      "stateMutability": "nonpayable",
      "type": "function"
    },
    {
      "inputs": [
        {
          "internalType": "uint256",
          "name": "value",
          "type": "uint256"
        }
      ],
      "name": "withdrawLINK",
      "outputs": [],
      "stateMutability": "nonpayable",
      "type": "function"
    },
    {
      "inputs": [
        {
          "internalType": "uint256",
          "name": "_tokenId",
          "type": "uint256"
        },
        {
          "internalType": "uint24",
          "name": "_attack1",
          "type": "uint24"
        },
        {
          "internalType": "uint24",
          "name": "_attack2",
          "type": "uint24"
        },
        {
          "internalType": "uint24",
          "name": "_attack3",
          "type": "uint24"
        },
        {
          "internalType": "uint24",
          "name": "_attack4",
          "type": "uint24"
        }
      ],
      "name": "attributesLevelUp",
      "outputs": [],
      "stateMutability": "nonpayable",
      "type": "function"
    },
    {
      "inputs": [
        {
          "internalType": "enum UnlimitedEvolution.type_character",
          "name": "_typeCharacter",
          "type": "uint8"
        },
        {
          "internalType": "enum UnlimitedEvolution.gender_character",
          "name": "_genderCharacter",
          "type": "uint8"
        }
      ],
      "name": "createCharacter",
      "outputs": [],
      "stateMutability": "payable",
      "type": "function",
      "payable": true
    },
    {
      "inputs": [
        {
          "internalType": "uint256",
          "name": "_tokenId",
          "type": "uint256"
        }
      ],
      "name": "rest",
      "outputs": [],
      "stateMutability": "nonpayable",
      "type": "function"
    },
    {
      "inputs": [
        {
          "internalType": "uint256",
          "name": "_myTokenId",
          "type": "uint256"
        },
        {
          "internalType": "uint256",
          "name": "_rivalTokenId",
          "type": "uint256"
        }
      ],
      "name": "fight",
      "outputs": [],
      "stateMutability": "nonpayable",
      "type": "function"
    },
    {
      "inputs": [
        {
          "internalType": "uint256",
          "name": "_tokenId",
          "type": "uint256"
        }
      ],
      "name": "getTokenDetails",
      "outputs": [
        {
          "components": [
            {
              "internalType": "uint24",
              "name": "id",
              "type": "uint24"
            },
            {
              "internalType": "uint56",
              "name": "dna",
              "type": "uint56"
            },
            {
              "internalType": "uint16",
              "name": "level",
              "type": "uint16"
            },
            {
              "internalType": "uint24",
              "name": "xp",
              "type": "uint24"
            },
            {
              "internalType": "uint24",
              "name": "hp",
              "type": "uint24"
            },
            {
              "internalType": "uint24",
              "name": "stamina",
              "type": "uint24"
            },
            {
              "internalType": "uint24",
              "name": "attack1",
              "type": "uint24"
            },
            {
              "internalType": "uint24",
              "name": "attack2",
              "type": "uint24"
            },
            {
              "internalType": "uint24",
              "name": "attack3",
              "type": "uint24"
            },
            {
              "internalType": "uint24",
              "name": "attack4",
              "type": "uint24"
            },
            {
              "internalType": "uint24",
              "name": "attributePoints",
              "type": "uint24"
            },
            {
              "internalType": "uint256",
              "name": "lastFight",
              "type": "uint256"
            },
            {
              "internalType": "enum UnlimitedEvolution.type_character",
              "name": "typeCharacter",
              "type": "uint8"
            },
            {
              "internalType": "enum UnlimitedEvolution.gender_character",
              "name": "genderCharacter",
              "type": "uint8"
            }
          ],
          "internalType": "struct UnlimitedEvolution.Character",
          "name": "",
          "type": "tuple"
        }
      ],
      "stateMutability": "view",
      "type": "function",
      "constant": true
    },
    {
      "inputs": [],
      "name": "getMyCharacters",
      "outputs": [
        {
          "components": [
            {
              "internalType": "uint24",
              "name": "id",
              "type": "uint24"
            },
            {
              "internalType": "uint56",
              "name": "dna",
              "type": "uint56"
            },
            {
              "internalType": "uint16",
              "name": "level",
              "type": "uint16"
            },
            {
              "internalType": "uint24",
              "name": "xp",
              "type": "uint24"
            },
            {
              "internalType": "uint24",
              "name": "hp",
              "type": "uint24"
            },
            {
              "internalType": "uint24",
              "name": "stamina",
              "type": "uint24"
            },
            {
              "internalType": "uint24",
              "name": "attack1",
              "type": "uint24"
            },
            {
              "internalType": "uint24",
              "name": "attack2",
              "type": "uint24"
            },
            {
              "internalType": "uint24",
              "name": "attack3",
              "type": "uint24"
            },
            {
              "internalType": "uint24",
              "name": "attack4",
              "type": "uint24"
            },
            {
              "internalType": "uint24",
              "name": "attributePoints",
              "type": "uint24"
            },
            {
              "internalType": "uint256",
              "name": "lastFight",
              "type": "uint256"
            },
            {
              "internalType": "enum UnlimitedEvolution.type_character",
              "name": "typeCharacter",
              "type": "uint8"
            },
            {
              "internalType": "enum UnlimitedEvolution.gender_character",
              "name": "genderCharacter",
              "type": "uint8"
            }
          ],
          "internalType": "struct UnlimitedEvolution.Character[]",
          "name": "",
          "type": "tuple[]"
        }
      ],
      "stateMutability": "view",
      "type": "function",
      "constant": true
    },
    {
      "inputs": [],
      "name": "getOthersCharacters",
      "outputs": [
        {
          "components": [
            {
              "internalType": "uint24",
              "name": "id",
              "type": "uint24"
            },
            {
              "internalType": "uint56",
              "name": "dna",
              "type": "uint56"
            },
            {
              "internalType": "uint16",
              "name": "level",
              "type": "uint16"
            },
            {
              "internalType": "uint24",
              "name": "xp",
              "type": "uint24"
            },
            {
              "internalType": "uint24",
              "name": "hp",
              "type": "uint24"
            },
            {
              "internalType": "uint24",
              "name": "stamina",
              "type": "uint24"
            },
            {
              "internalType": "uint24",
              "name": "attack1",
              "type": "uint24"
            },
            {
              "internalType": "uint24",
              "name": "attack2",
              "type": "uint24"
            },
            {
              "internalType": "uint24",
              "name": "attack3",
              "type": "uint24"
            },
            {
              "internalType": "uint24",
              "name": "attack4",
              "type": "uint24"
            },
            {
              "internalType": "uint24",
              "name": "attributePoints",
              "type": "uint24"
            },
            {
              "internalType": "uint256",
              "name": "lastFight",
              "type": "uint256"
            },
            {
              "internalType": "enum UnlimitedEvolution.type_character",
              "name": "typeCharacter",
              "type": "uint8"
            },
            {
              "internalType": "enum UnlimitedEvolution.gender_character",
              "name": "genderCharacter",
              "type": "uint8"
            }
          ],
          "internalType": "struct UnlimitedEvolution.Character[]",
          "name": "",
          "type": "tuple[]"
        }
      ],
      "stateMutability": "view",
      "type": "function",
      "constant": true
    },
    {
      "inputs": [
        {
          "internalType": "address",
          "name": "_address",
          "type": "address"
        }
      ],
      "name": "getBalanceOfCharacters",
      "outputs": [
        {
          "internalType": "uint8",
          "name": "",
          "type": "uint8"
        }
      ],
      "stateMutability": "view",
      "type": "function",
      "constant": true
    }
  ],
  "bytecode": "0x66038d7ea4c68000600855600a805465ffffff0000001916640fa0000000179055600360c08181526101406040529060e0606080368337505081516200004d92600b925060200190620001a0565b503480156200005b57600080fd5b5073dd3782915140c8f3b190b5d67eac6dc5760c46e973a36085f69e2889c224210f603d836748e7dc008860405180602001604052806000815250620000b08162000131640100000000026401000000009004565b50620000d7620000c86401000000006200014a810204565b6401000000006200014e810204565b6c01000000000000000000000000600160a060020a03928316810260a0529116026080527f6c3699283bda56ad74f6b855546325b68d482e983852a7a82979cc4807b641f460055567016345785d8a00006006556200033b565b80516200014690600290602084019062000251565b5050565b3390565b60038054600160a060020a03838116600160a060020a0319831681179093556040519116919082907f8be0079c531659141344cd1fd0a4f28419497f9722a3daafe3b4186f6b6457e090600090a35050565b82805482825590600052602060002090600901600a900481019282156200023f5791602002820160005b838211156200020c57835183826101000a81548162ffffff021916908360ff1602179055509260200192600301602081600201049283019260010302620001ca565b80156200023d5782816101000a81549062ffffff02191690556003016020816002010492830192600103026200020c565b505b506200024d929150620002ce565b5090565b8280546200025f90620002e5565b90600052602060002090601f0160209004810192826200028357600085556200023f565b82601f106200029e57805160ff19168380011785556200023f565b828001600101855582156200023f579182015b828111156200023f578251825591602001919060010190620002b1565b5b808211156200024d5760008155600101620002cf565b600281046001821680620002fa57607f821691505b6020821081141562000335577f4e487b7100000000000000000000000000000000000000000000000000000000600052602260045260246000fd5b50919050565b6080516c01000000000000000000000000900460a0516c010000000000000000000000009004613fb162000396600039600081816112fd0152612b10015260008181611a0e01528181611fde0152612ae10152613fb16000f3fe6080604052600436106101ba5760003560e060020a900480638da5cb5b116100f0578063c1e037281161008e578063dbdff2c111610068578063dbdff2c1146104f7578063e985e9c51461050c578063f242432a14610555578063f2fde38b1461057557600080fd5b8063c1e0372814610490578063ca39e5ef146104bd578063cd9ea342146104dd57600080fd5b806394985ddd116100ca57806394985ddd1461041d578063a22cb4651461043d578063b5214a081461045d578063bb84e74f1461047057600080fd5b80638da5cb5b146103b55780639012c4a8146103dd57806393004c30146103fd57600080fd5b80633ccfd60b1161015d5780634fb97a10116101375780634fb97a101461034b5780636e8eb22214610360578063715018a6146103805780638acf59f21461039557600080fd5b80633ccfd60b146102f357806342619f66146103085780634e1273f41461031e57600080fd5b80632723c0de116101995780632723c0de1461024f5780632a3f89631461029a5780632eb2c2d6146102b15780633c4739d3146102d157600080fd5b8062fdd58e146101bf57806301ffc9a7146101f25780630e89341c14610222575b600080fd5b3480156101cb57600080fd5b506101df6101da366004613533565b610595565b6040519081526020015b60405180910390f35b3480156101fe57600080fd5b5061021261020d36600461366b565b610644565b60405190151581526020016101e9565b34801561022e57600080fd5b5061024261023d3660046136ee565b6106df565b6040516101e99190613a94565b34801561025b57600080fd5b5061028861026a366004613398565b600160a060020a03166000908152600e602052604090205460ff1690565b60405160ff90911681526020016101e9565b3480156102a657600080fd5b506102af610773565b005b3480156102bd57600080fd5b506102af6102cc3660046133ed565b6107b4565b3480156102dd57600080fd5b506102e6610859565b6040516101e99190613a0d565b3480156102ff57600080fd5b506102af610a7b565b34801561031457600080fd5b506101df60075481565b34801561032a57600080fd5b5061033e61033936600461355d565b610aef565b6040516101e99190613a5c565b34801561035757600080fd5b506102e6610c30565b34801561036c57600080fd5b506102af61037b3660046136ee565b610e5e565b34801561038c57600080fd5b506102af610fe8565b3480156103a157600080fd5b506102af6103b03660046136d3565b611021565b3480156103c157600080fd5b50600354604051600160a060020a0390911681526020016101e9565b3480156103e957600080fd5b506102af6103f83660046136ee565b6110a3565b34801561040957600080fd5b506102af610418366004613720565b611105565b34801561042957600080fd5b506102af610438366004613649565b6112f2565b34801561044957600080fd5b506102af6104583660046134fc565b611377565b6102af61046b3660046136a5565b611382565b34801561047c57600080fd5b506102af61048b3660046136ee565b6119df565b34801561049c57600080fd5b506104b06104ab3660046136ee565b611acb565b6040516101e99190613bf3565b3480156104c957600080fd5b506102af6104d8366004613649565b611c25565b3480156104e957600080fd5b50600c546102129060ff1681565b34801561050357600080fd5b506101df611fa1565b34801561051857600080fd5b506102126105273660046133ba565b600160a060020a03918216600090815260016020908152604080832093909416825291909152205460ff1690565b34801561056157600080fd5b506102af610570366004613497565b6120e2565b34801561058157600080fd5b506102af610590366004613398565b612180565b6000600160a060020a03831661061b5760405160e560020a62461bcd02815260206004820152602b60248201527f455243313135353a2062616c616e636520717565727920666f7220746865207a60448201527f65726f206164647265737300000000000000000000000000000000000000000060648201526084015b60405180910390fd5b50600081815260208181526040808320600160a060020a03861684529091529020545b92915050565b6000600160e060020a031982167fd9b67a260000000000000000000000000000000000000000000000000000000014806106a75750600160e060020a031982167f0e89341c00000000000000000000000000000000000000000000000000000000145b8061063e57507f01ffc9a700000000000000000000000000000000000000000000000000000000600160e060020a031983161461063e565b6060600280546106ee90613d12565b80601f016020809104026020016040519081016040528092919081815260200182805461071a90613d12565b80156107675780601f1061073c57610100808354040283529160200191610767565b820191906000526020600020905b81548152906001019060200180831161074a57829003601f168201915b50505050509050919050565b600354600160a060020a031633146107a05760405160e560020a62461bcd02815260040161061290613bbe565b600c805460ff19811660ff90911615179055565b600160a060020a0385163314806107d057506107d08533610527565b6108455760405160e560020a62461bcd02815260206004820152603260248201527f455243313135353a207472616e736665722063616c6c6572206973206e6f742060448201527f6f776e6572206e6f7220617070726f76656400000000000000000000000000006064820152608401610612565b6108528585858585612235565b5050505050565b336000908152600e602052604081205460609190819060ff1667ffffffffffffffff81111561088a5761088a613e87565b6040519080825280602002602001820160405280156108c357816020015b6108b061320d565b8152602001906001900390816108a85790505b50905060005b600a5462ffffff16811015610a74576108e181612430565b15610a62576000818152600d602090815260409182902082516101c081018452815462ffffff8082168352630100000080830466ffffffffffffff16958401959095526a0100000000000000000000820461ffff16958301959095526c01000000000000000000000000810485166060830152607860020a810485166080830152609060020a8104851660a083015260a860020a8104851660c083015260c060020a8104851660e083015260d860020a90048416610100820152600182015480851661012083015292909204909216610140820152600280830154610160830152600383015491929161018084019160ff909116908111156109e5576109e5613e55565b60028111156109f6576109f6613e55565b81526020016003820160019054906101000a900460ff166002811115610a1e57610a1e613e55565b6002811115610a2f57610a2f613e55565b81525050828460ff1681518110610a4857610a48613e6e565b60200260200101819052508280610a5e90613dcd565b9350505b80610a6c81613db2565b9150506108c9565b5092915050565b600354600160a060020a03163314610aa85760405160e560020a62461bcd02815260040161061290613bbe565b600354600160a060020a0316604051600160a060020a039190911690303180156108fc02916000818181858888f19350505050158015610aec573d6000803e3d6000fd5b50565b60608151835114610b6b5760405160e560020a62461bcd02815260206004820152602960248201527f455243313135353a206163636f756e747320616e6420696473206c656e67746860448201527f206d69736d6174636800000000000000000000000000000000000000000000006064820152608401610612565b6000835167ffffffffffffffff811115610b8757610b87613e87565b604051908082528060200260200182016040528015610bb0578160200160208202803683370190505b50905060005b8451811015610c2857610bfb858281518110610bd457610bd4613e6e565b6020026020010151858381518110610bee57610bee613e6e565b6020026020010151610595565b828281518110610c0d57610c0d613e6e565b6020908102919091010152610c2181613db2565b9050610bb6565b509392505050565b336000908152600e6020526040812054600a54606092918291610c5b9160ff169062ffffff16613cd7565b62ffffff1667ffffffffffffffff811115610c7857610c78613e87565b604051908082528060200260200182016040528015610cb157816020015b610c9e61320d565b815260200190600190039081610c965790505b50905060005b600a5462ffffff16811015610a7457610ccf81612430565b610e4c576000818152600d602090815260409182902082516101c081018452815462ffffff8082168352630100000080830466ffffffffffffff16958401959095526a0100000000000000000000820461ffff16958301959095526c01000000000000000000000000810485166060830152607860020a810485166080830152609060020a8104851660a083015260a860020a8104851660c083015260c060020a8104851660e083015260d860020a90048416610100820152600182015480851661012083015292909204909216610140820152600280830154610160830152600383015491929161018084019160ff90911690811115610dd257610dd2613e55565b6002811115610de357610de3613e55565b81526020016003820160019054906101000a900460ff166002811115610e0b57610e0b613e55565b6002811115610e1c57610e1c613e55565b81525050828481518110610e3257610e32613e6e565b60200260200101819052508280610e4890613db2565b9350505b80610e5681613db2565b915050610cb7565b610e6781612430565b610eb65760405160e560020a62461bcd02815260206004820152601f60248201527f596f75277265206e6f7420746865206f776e6572206f6620746865204e4654006044820152606401610612565b6000818152600d60205260409020546064609060020a90910462ffffff16108015610efc57506000818152600d60205260409020546064607860020a90910462ffffff16105b610f715760405160e560020a62461bcd02815260206004820152602260248201527f596f752772652063686172616374657220697320616c7265616479207265737460448201527f65640000000000000000000000000000000000000000000000000000000000006064820152608401610612565b6000818152600d6020908152604091829020805474ffffffffffff0000000000000000000000000000001916726400006400000000000000000000000000000017905590518281527f0a6cdc448db9889012c5e9b19cbf91c821ef49c37d804cfd15bb70665768e38a91015b60405180910390a150565b600354600160a060020a031633146110155760405160e560020a62461bcd02815260040161061290613bbe565b61101f6000612444565b565b600354600160a060020a0316331461104e5760405160e560020a62461bcd02815260040161061290613bbe565b600a805465ffffff0000001916630100000062ffffff8481168202929092179283905560405192041681527f824bdce4cbdec6e790596be3c1ac027ebd2747f3b4f72e8e9b50a9ce5479fe4090602001610fdd565b600354600160a060020a031633146110d05760405160e560020a62461bcd02815260040161061290613bbe565b60088190556040518181527f8c4d35e54a3f2ef1134138fd8ea3daee6a3c89e10d2665996babdf70261e2c7690602001610fdd565b600081836111138688613c26565b61111d9190613c26565b6111279190613c26565b6000878152600d602052604090206001015462ffffff9182169250630100000090041681146111c15760405160e560020a62461bcd02815260206004820152602360248201527f57726f6e6720616d6f756e74206f6620706f696e747320746f2061747472696260448201527f75746500000000000000000000000000000000000000000000000000000000006064820152608401610612565b6000868152600d6020526040902080548691906015906111ee90849060a860020a900462ffffff16613c26565b92506101000a81548162ffffff021916908362ffffff16021790555083600d600088815260200190815260200160002060000160188282829054906101000a900462ffffff1661123e9190613c26565b92506101000a81548162ffffff021916908362ffffff16021790555082600d6000888152602001908152602001600020600001601b8282829054906101000a900462ffffff1661128e9190613c26565b82546101009290920a62ffffff8181021990931691831602179091556000888152600d60205260408120600101805486945090926112ce91859116613c26565b92506101000a81548162ffffff021916908362ffffff160217905550505050505050565b33600160a060020a037f0000000000000000000000000000000000000000000000000000000000000000161461136d5760405160e560020a62461bcd02815260206004820152601f60248201527f4f6e6c7920565246436f6f7264696e61746f722063616e2066756c66696c6c006044820152606401610612565b60075550565b5050565b6113733383836124a3565b60085434146113d65760405160e560020a62461bcd02815260206004820152601460248201527f57726f6e6720616d6f756e74206f6620666565730000000000000000000000006044820152606401610612565b336000908152600e6020526040902054600560ff9091161061143d5760405160e560020a62461bcd02815260206004820152601e60248201527f596f752063616e27742068617665206d6f7265207468616e2035204e465400006044820152606401610612565b600a546301000000900462ffffff16600b83600281111561146057611460613e55565b60ff168154811061147357611473613e6e565b90600052602060002090600a91828204019190066003029054906101000a900462ffffff1662ffffff1611156115145760405160e560020a62461bcd02815260206004820152602e60248201527f596f752063616e6e6f74206d696e74206d6f726520636861726163746572207760448201527f697468207468697320636c6173730000000000000000000000000000000000006064820152608401610612565b611524662386f26fc1000061259b565b600061152e612608565b604080516101c081018252600a5462ffffff16815260095466ffffffffffffff1660208201526001918101829052606081019190915260646080820181905260a082015281519192509060c0820190839060009061158e5761158e613e6e565b602002602001015160ff1662ffffff168152602001826001815181106115b6576115b6613e6e565b602002602001015160ff1662ffffff168152602001826002815181106115de576115de613e6e565b602002602001015160ff1662ffffff1681526020018260038151811061160657611606613e6e565b602002602001015160ff1662ffffff168152602001600062ffffff16815260200142815260200184600281111561163f5761163f613e55565b815260200183600281111561165657611656613e55565b815250600d6000600a60009054906101000a900462ffffff1662ffffff16815260200190815260200160002060008201518160000160006101000a81548162ffffff021916908362ffffff16021790555060208201518160000160036101000a81548166ffffffffffffff021916908366ffffffffffffff160217905550604082015181600001600a6101000a81548161ffff021916908361ffff160217905550606082015181600001600c6101000a81548162ffffff021916908362ffffff160217905550608082015181600001600f6101000a81548162ffffff021916908362ffffff16021790555060a08201518160000160126101000a81548162ffffff021916908362ffffff16021790555060c08201518160000160156101000a81548162ffffff021916908362ffffff16021790555060e08201518160000160186101000a81548162ffffff021916908362ffffff16021790555061010082015181600001601b6101000a81548162ffffff021916908362ffffff1602179055506101208201518160010160006101000a81548162ffffff021916908362ffffff1602179055506101408201518160010160036101000a81548162ffffff021916908362ffffff16021790555061016082015181600201556101808201518160030160006101000a81548160ff0219169083600281111561185857611858613e55565b02179055506101a082015160038201805461ff00191661010083600281111561188357611883613e55565b021790555050336000908152600e60205260408120805460ff169250906118a983613dcd565b91906101000a81548160ff021916908360ff16021790555050600b8360028111156118d6576118d6613e55565b60ff16815481106118e9576118e9613e6e565b90600052602060002090600a918282040191900660030281819054906101000a900462ffffff168092919061191d90613d99565b91906101000a81548162ffffff021916908362ffffff1602179055505061196c33600a60009054906101000a900462ffffff1662ffffff166001604051806020016040528060008152506126af565b600a5460405162ffffff90911681527f7f0777865312bae358531b42d9c405a59bfd31beba1973946dc0ce134cad418a9060200160405180910390a1600a805462ffffff169060006119bd83613d99565b91906101000a81548162ffffff021916908362ffffff16021790555050505050565b600354600160a060020a03163314611a0c5760405160e560020a62461bcd02815260040161061290613bbe565b7f0000000000000000000000000000000000000000000000000000000000000000600160a060020a031663a9059cbb611a4d600354600160a060020a031690565b60405160e060020a63ffffffff8416028152600160a060020a03909116600482015260248101849052604401602060405180830381600087803b158015611a9357600080fd5b505af1158015611aa7573d6000803e3d6000fd5b505050506040513d601f19601f82011682018060405250810190611373919061362c565b611ad361320d565b6000828152600d602090815260409182902082516101c081018452815462ffffff8082168352630100000080830466ffffffffffffff16958401959095526a0100000000000000000000820461ffff16958301959095526c01000000000000000000000000810485166060830152607860020a810485166080830152609060020a8104851660a083015260a860020a8104851660c083015260c060020a8104851660e083015260d860020a90048416610100820152600182015480851661012083015292909204909216610140820152600280830154610160830152600383015491929161018084019160ff90911690811115611bd257611bd2613e55565b6002811115611be357611be3613e55565b81526020016003820160019054906101000a900460ff166002811115611c0b57611c0b613e55565b6002811115611c1c57611c1c613e55565b90525092915050565b611c2e82612430565b611c7d5760405160e560020a62461bcd02815260206004820152601f60248201527f596f75277265206e6f7420746865206f776e6572206f6620746865204e4654006044820152606401610612565b611c8681612430565b1515611c9183612430565b15151415611d0a5760405160e560020a62461bcd02815260206004820152602160248201527f596f7572204e4654732063616e6e6f742066696768742065616368206f74686560448201527f72000000000000000000000000000000000000000000000000000000000000006064820152608401610612565b6000828152600d60205260409020600201544290611d2990603c613c4d565b10611d795760405160e560020a62461bcd02815260206004820152601860248201527f546f20736f6f6e20746f206669676874202831206d696e2900000000000000006044820152606401610612565b6000828152600d6020526040902054600a609060020a90910462ffffff161015611de85760405160e560020a62461bcd02815260206004820152601260248201527f4e6f7420656e6f756768207374616d696e6100000000000000000000000000006044820152606401610612565b6000818152600d60205260408082205484835291205461ffff6a010000000000000000000092839004811692909104161115611e695760405160e560020a62461bcd02815260206004820152601c60248201527f466967687420736f6d656f6e6520796f7572206f776e2073697a6521000000006044820152606401610612565b6000828152600d6020526040902054607860020a900462ffffff1615801590611eab57506000818152600d6020526040902054607860020a900462ffffff1615155b611efa5760405160e560020a62461bcd02815260206004820152601760248201527f4f6e65206f6620746865204e46547320697320646561640000000000000000006044820152606401610612565b6000828152600d6020526040812042600290910155611f1983836127d8565b90506000611f2783856127d8565b6000858152600d6020526040902054909150611f5190600a90609060020a900462ffffff16613cd7565b6000858152600d60205260409020805462ffffff92909216609060020a0274ffffff00000000000000000000000000000000000019909216919091179055611f9b84848484612905565b50505050565b6006546040517f70a0823100000000000000000000000000000000000000000000000000000000815230600482015260009190600160a060020a037f000000000000000000000000000000000000000000000000000000000000000016906370a082319060240160206040518083038186803b15801561202057600080fd5b505afa158015612034573d6000803e3d6000fd5b505050506040513d601f19601f820116820180604052508101906120589190613707565b10156120cf5760405160e560020a62461bcd02815260206004820152602b60248201527f4e6f7420656e6f756768204c494e4b202d2066696c6c20636f6e74726163742060448201527f77697468206661756365740000000000000000000000000000000000000000006064820152608401610612565b6120dd600554600654612add565b905090565b600160a060020a0385163314806120fe57506120fe8533610527565b6121735760405160e560020a62461bcd02815260206004820152602960248201527f455243313135353a2063616c6c6572206973206e6f74206f776e6572206e6f7260448201527f20617070726f76656400000000000000000000000000000000000000000000006064820152608401610612565b6108528585858585612c71565b600354600160a060020a031633146121ad5760405160e560020a62461bcd02815260040161061290613bbe565b600160a060020a03811661222c5760405160e560020a62461bcd02815260206004820152602660248201527f4f776e61626c653a206e6577206f776e657220697320746865207a65726f206160448201527f64647265737300000000000000000000000000000000000000000000000000006064820152608401610612565b610aec81612444565b81518351146122af5760405160e560020a62461bcd02815260206004820152602860248201527f455243313135353a2069647320616e6420616d6f756e7473206c656e6774682060448201527f6d69736d617463680000000000000000000000000000000000000000000000006064820152608401610612565b600160a060020a0384166122d85760405160e560020a62461bcd02815260040161061290613b04565b3360005b84518110156123c25760008582815181106122f9576122f9613e6e565b60200260200101519050600085838151811061231757612317613e6e565b60209081029190910181015160008481528083526040808220600160a060020a038e16835290935291909120549091508181101561236a5760405160e560020a62461bcd02815260040161061290613b61565b600083815260208181526040808320600160a060020a038e8116855292528083208585039055908b168252812080548492906123a7908490613c4d565b92505081905550505050806123bb90613db2565b90506122dc565b5084600160a060020a031686600160a060020a031682600160a060020a03167f4a39dc06d4c0dbc64b70af90fd698a233a518aa5d07e595d983b8c0526c8f7fb8787604051612412929190613a6f565b60405180910390a4612428818787878787612d94565b505050505050565b600061243c3383610595565b151592915050565b60038054600160a060020a0383811673ffffffffffffffffffffffffffffffffffffffff19831681179093556040519116919082907f8be0079c531659141344cd1fd0a4f28419497f9722a3daafe3b4186f6b6457e090600090a35050565b81600160a060020a031683600160a060020a0316141561252e5760405160e560020a62461bcd02815260206004820152602960248201527f455243313135353a2073657474696e6720617070726f76616c2073746174757360448201527f20666f722073656c6600000000000000000000000000000000000000000000006064820152608401610612565b600160a060020a03838116600081815260016020908152604080832094871680845294825291829020805460ff191686151590811790915591519182527f17307eab39ab6107e8899845ad3d59bd9653f200f220920489ca2b5937696c31910160405180910390a3505050565b600c5460ff166125be57806125ae611fa1565b6125b89190613e0f565b60095550565b60408051426020808301919091524482840152336c0100000000000000000000000002606083015282516054818403018152607490920190925280519101206125b8908290613e0f565b60408051600480825260a08201909252606091600091906020820160808036833701905050905060005b60048160ff1610156126a957600361264b82600a613c65565b60ff1660095461265b9190613e0f565b6126659190613e0f565b612670906003613c65565b828260ff168151811061268557612685613e6e565b60ff90921660209283029190910190910152806126a181613dcd565b915050612632565b50919050565b600160a060020a03841661272e5760405160e560020a62461bcd02815260206004820152602160248201527f455243313135353a206d696e7420746f20746865207a65726f2061646472657360448201527f73000000000000000000000000000000000000000000000000000000000000006064820152608401610612565b336127488160008761273f88612f43565b61085288612f43565b600084815260208181526040808320600160a060020a038916845290915281208054859290612778908490613c4d565b90915550506040805185815260208101859052600160a060020a0380881692600092918516917fc3d58168c5ae7397731d063d5bbf3d657854427343f4c083240f7aacaa2d0f62910160405180910390a461085281600087878787612f8e565b6000828152600d60205260408120548190612809906c01000000000000000000000000900462ffffff166001613c26565b6000858152600d602052604090205460029061283a9062ffffff60c060020a820481169160a860020a900416613c26565b6128449190613c8a565b61284e9190613cac565b6000848152600d602052604081205462ffffff92831693509091600291612888916c01000000000000000000000000909104166001613c26565b6128929190613c8a565b6000858152600d60205260409020600181015490546002916128c49162ffffff9182169160d860020a90910416613c26565b6128ce9190613c8a565b6128d89190613cac565b62ffffff169050808210156128f25760009250505061063e565b6128fc8183613cfb565b9250505061063e565b6000838152600d6020526040902054607860020a900462ffffff16821061295b576000838152600d60205260409020805471ffffff000000000000000000000000000000191690556129568461308d565b612a8f565b6000838152600d6020526040902054612981908390607860020a900462ffffff16613cd7565b6000848152600d6020526040808220805471ffffff0000000000000000000000000000001916607860020a62ffffff958616810291909117909155878352912054041681106129fa576000848152600d60205260409020805471ffffff000000000000000000000000000000191690556129568361308d565b6000848152600d6020526040902054612a20908290607860020a900462ffffff16613cd7565b6000858152600d60205260409020805462ffffff92909216607860020a0271ffffff0000000000000000000000000000001990921691909117905580821115612a6c576129568461308d565b81811115612a7d576129568361308d565b612a868461308d565b612a8f8361308d565b6040805185815260208101859052908101839052606081018290527f8c796248b1f953c9c8c0ed19eddf3a98eebe2c84390fe57e75f222dc677a14119060800160405180910390a150505050565b60007f0000000000000000000000000000000000000000000000000000000000000000600160a060020a0316634000aea07f000000000000000000000000000000000000000000000000000000000000000084866000604051602001612b4d929190918252602082015260400190565b60408051601f198184030181529082905260e060020a63ffffffff8616028252612b7b9392916004016139dc565b602060405180830381600087803b158015612b9557600080fd5b505af1158015612ba9573d6000803e3d6000fd5b505050506040513d601f19601f82011682018060405250810190612bcd919061362c565b50600083815260046020818152604080842054815180840189905280830186905230606082015260808082018390528351808303909101815260a090910190925281519183019190912093879052919052612c29906001613c4d565b600085815260046020526040902055612c698482604080516020808201949094528082019290925280518083038201815260609092019052805191012090565b949350505050565b600160a060020a038416612c9a5760405160e560020a62461bcd02815260040161061290613b04565b33612caa81878761273f88612f43565b600084815260208181526040808320600160a060020a038a16845290915290205483811015612cee5760405160e560020a62461bcd02815260040161061290613b61565b600085815260208181526040808320600160a060020a038b8116855292528083208785039055908816825281208054869290612d2b908490613c4d565b90915550506040805186815260208101869052600160a060020a03808916928a821692918616917fc3d58168c5ae7397731d063d5bbf3d657854427343f4c083240f7aacaa2d0f62910160405180910390a4612d8b828888888888612f8e565b50505050505050565b600160a060020a0384163b15612428576040517fbc197c81000000000000000000000000000000000000000000000000000000008152600160a060020a0385169063bc197c8190612df1908990899088908890889060040161393b565b602060405180830381600087803b158015612e0b57600080fd5b505af1925050508015612e3b575060408051601f3d908101601f19168201909252612e3891810190613688565b60015b612ef757612e47613ea0565b806308c379a01415612e845750612e5c613ec0565b80612e675750612e86565b8060405160e560020a62461bcd0281526004016106129190613a94565b505b60405160e560020a62461bcd02815260206004820152603460248201527f455243313135353a207472616e7366657220746f206e6f6e204552433131353560448201527f526563656976657220696d706c656d656e7465720000000000000000000000006064820152608401610612565b600160e060020a031981167fbc197c810000000000000000000000000000000000000000000000000000000014612d8b5760405160e560020a62461bcd02815260040161061290613aa7565b60408051600180825281830190925260609160009190602080830190803683370190505090508281600081518110612f7d57612f7d613e6e565b602090810291909101015292915050565b600160a060020a0384163b15612428576040517ff23a6e61000000000000000000000000000000000000000000000000000000008152600160a060020a0385169063f23a6e6190612feb9089908990889088908890600401613999565b602060405180830381600087803b15801561300557600080fd5b505af1925050508015613035575060408051601f3d908101601f1916820190925261303291810190613688565b60015b61304157612e47613ea0565b600160e060020a031981167ff23a6e610000000000000000000000000000000000000000000000000000000014612d8b5760405160e560020a62461bcd02815260040161061290613aa7565b6000818152600d6020526040902080546c01000000000000000000000000900462ffffff1690600c6130be83613d99565b82546101009290920a62ffffff8181021990931691831602179091556000838152600d60205260409020546131089250600a916c0100000000000000000000000090910416613ded565b62ffffff16610aec576000818152600d6020526040902080546a0100000000000000000000900461ffff1690600a61313f83613d77565b91906101000a81548161ffff021916908361ffff16021790555050600a600d600083815260200190815260200160002060010160038282829054906101000a900462ffffff1661318f9190613c26565b92506101000a81548162ffffff021916908362ffffff1602179055507f3b7ca85b5e3d1ebb3a81e8d9e27bfeb9ef2f447026c115421132a20b0733b73f81600d6000848152602001908152602001600020600001600a9054906101000a900461ffff16604051610fdd92919091825261ffff16602082015260400190565b604080516101c081018252600080825260208201819052918101829052606081018290526080810182905260a0810182905260c0810182905260e0810182905261010081018290526101208101829052610140810182905261016081018290529061018082019081526020016000905290565b8035600160a060020a038116811461329757600080fd5b919050565b600082601f8301126132ad57600080fd5b813560206132ba82613c02565b6040516132c78282613d4a565b8381528281019150858301838502870184018810156132e557600080fd5b60005b85811015613304578135845292840192908401906001016132e8565b5090979650505050505050565b600082601f83011261332257600080fd5b813567ffffffffffffffff81111561333c5761333c613e87565b604051613353601f8301601f191660200182613d4a565b81815284602083860101111561336857600080fd5b816020850160208301376000918101602001919091529392505050565b803562ffffff8116811461329757600080fd5b6000602082840312156133aa57600080fd5b6133b382613280565b9392505050565b600080604083850312156133cd57600080fd5b6133d683613280565b91506133e460208401613280565b90509250929050565b600080600080600060a0868803121561340557600080fd5b61340e86613280565b945061341c60208701613280565b9350604086013567ffffffffffffffff8082111561343957600080fd5b61344589838a0161329c565b9450606088013591508082111561345b57600080fd5b61346789838a0161329c565b9350608088013591508082111561347d57600080fd5b5061348a88828901613311565b9150509295509295909350565b600080600080600060a086880312156134af57600080fd5b6134b886613280565b94506134c660208701613280565b93506040860135925060608601359150608086013567ffffffffffffffff8111156134f057600080fd5b61348a88828901613311565b6000806040838503121561350f57600080fd5b61351883613280565b9150602083013561352881613f4a565b809150509250929050565b6000806040838503121561354657600080fd5b61354f83613280565b946020939093013593505050565b6000806040838503121561357057600080fd5b823567ffffffffffffffff8082111561358857600080fd5b818501915085601f83011261359c57600080fd5b813560206135a982613c02565b6040516135b68282613d4a565b8381528281019150858301838502870184018b10156135d457600080fd5b600096505b848710156135fe576135ea81613280565b8352600196909601959183019183016135d9565b509650508601359250508082111561361557600080fd5b506136228582860161329c565b9150509250929050565b60006020828403121561363e57600080fd5b81516133b381613f4a565b6000806040838503121561365c57600080fd5b50508035926020909101359150565b60006020828403121561367d57600080fd5b81356133b381613f58565b60006020828403121561369a57600080fd5b81516133b381613f58565b600080604083850312156136b857600080fd5b82356136c381613f6e565b9150602083013561352881613f6e565b6000602082840312156136e557600080fd5b6133b382613385565b60006020828403121561370057600080fd5b5035919050565b60006020828403121561371957600080fd5b5051919050565b600080600080600060a0868803121561373857600080fd5b8535945061374860208701613385565b935061375660408701613385565b925061376460608701613385565b915061377260808701613385565b90509295509295909350565b600081518084526020808501945080840160005b838110156137ae57815187529582019590820190600101613792565b509495945050505050565b6000815180845260005b818110156137df576020818501810151868301820152016137c3565b818111156137f1576000602083870101525b50601f01601f19169290920160200192915050565b600381106138275760e060020a634e487b7102600052602160045260246000fd5b9052565b805162ffffff168252602081015161384e602084018266ffffffffffffff169052565b506040810151613864604084018261ffff169052565b50606081015161387b606084018262ffffff169052565b506080810151613892608084018262ffffff169052565b5060a08101516138a960a084018262ffffff169052565b5060c08101516138c060c084018262ffffff169052565b5060e08101516138d760e084018262ffffff169052565b506101008181015162ffffff9081169184019190915261012080830151821690840152610140808301519091169083015261016080820151908301526101808082015161392682850182613806565b50506101a080820151611f9b82850182613806565b6000600160a060020a03808816835280871660208401525060a0604083015261396760a083018661377e565b8281036060840152613979818661377e565b9050828103608084015261398d81856137b9565b98975050505050505050565b6000600160a060020a03808816835280871660208401525084604083015283606083015260a060808301526139d160a08301846137b9565b979650505050505050565b600160a060020a0384168152826020820152606060408201526000613a0460608301846137b9565b95945050505050565b6020808252825182820181905260009190848201906040850190845b81811015613a5057613a3c83855161382b565b928401926101c09290920191600101613a29565b50909695505050505050565b6020815260006133b3602083018461377e565b604081526000613a82604083018561377e565b8281036020840152613a04818561377e565b6020815260006133b360208301846137b9565b60208082526028908201527f455243313135353a204552433131353552656365697665722072656a6563746560408201527f6420746f6b656e73000000000000000000000000000000000000000000000000606082015260800190565b60208082526025908201527f455243313135353a207472616e7366657220746f20746865207a65726f20616460408201527f6472657373000000000000000000000000000000000000000000000000000000606082015260800190565b6020808252602a908201527f455243313135353a20696e73756666696369656e742062616c616e636520666f60408201527f72207472616e7366657200000000000000000000000000000000000000000000606082015260800190565b6020808252818101527f4f776e61626c653a2063616c6c6572206973206e6f7420746865206f776e6572604082015260600190565b6101c0810161063e828461382b565b600067ffffffffffffffff821115613c1c57613c1c613e87565b5060209081020190565b600062ffffff808316818516808303821115613c4457613c44613e23565b01949350505050565b60008219821115613c6057613c60613e23565b500190565b600060ff821660ff84168060ff03821115613c8257613c82613e23565b019392505050565b600062ffffff80841680613ca057613ca0613e3c565b92169190910492915050565b600062ffffff80831681851681830481118215151615613cce57613cce613e23565b02949350505050565b600062ffffff83811690831681811015613cf357613cf3613e23565b039392505050565b600082821015613d0d57613d0d613e23565b500390565b600281046001821680613d2657607f821691505b602082108114156126a95760e060020a634e487b7102600052602260045260246000fd5b601f8201601f1916810167ffffffffffffffff81118282101715613d7057613d70613e87565b6040525050565b600061ffff80831681811415613d8f57613d8f613e23565b6001019392505050565b600062ffffff80831681811415613d8f57613d8f613e23565b6000600019821415613dc657613dc6613e23565b5060010190565b600060ff821660ff811415613de457613de4613e23565b60010192915050565b600062ffffff80841680613e0357613e03613e3c565b92169190910692915050565b600082613e1e57613e1e613e3c565b500690565b60e060020a634e487b7102600052601160045260246000fd5b60e060020a634e487b7102600052601260045260246000fd5b60e060020a634e487b7102600052602160045260246000fd5b60e060020a634e487b7102600052603260045260246000fd5b60e060020a634e487b7102600052604160045260246000fd5b600060033d1115613ebd5760046000803e60e060020a6000510490505b90565b600060443d1015613ece5790565b6040516003193d81016004833e81513d67ffffffffffffffff8160248401118184111715613efe57505050505090565b8285019150815181811115613f165750505050505090565b843d8701016020828501011115613f305750505050505090565b613f3f60208286010187613d4a565b509095945050505050565b8015158114610aec57600080fd5b600160e060020a031981168114610aec57600080fd5b60038110610aec57600080fdfea264697066735822122033a244b1043864d5f260ced234cd21889e5c4741280f3c6d7511897318b4fbc864736f6c63430008070033",
  "immutableReferences": {
    "73": [
      {
        "length": 32,
        "start": 6670
      },
      {
        "length": 32,
        "start": 8158
      },
      {
        "length": 32,
        "start": 10977
      }
    ],
    "75": [
      {
        "length": 32,
        "start": 4861
      },
      {
        "length": 32,
        "start": 11024
      }
    ]
  },
  "source": "// SPDX-License-Identifier: MIT\r\npragma solidity 0.8.7;\r\n\r\nimport \"@openzeppelin/contracts/token/ERC1155/ERC1155.sol\";\r\nimport \"@openzeppelin/contracts/access/Ownable.sol\";\r\nimport \"./RandomNumberGenerator.sol\";\r\n\r\n/** @title Unlimited Evolution */\r\ncontract UnlimitedEvolution is ERC1155, Ownable, RandomNumberGenerator {\r\n\r\n    constructor() ERC1155(\"\") {}\r\n\r\n    enum type_character { BRUTE, SPIRITUAL, ELEMENTARY }\r\n    enum gender_character { MASCULINE, FEMININE, OTHER }\r\n\r\n    uint256 mintFee = 0.001 ether;\r\n    uint256 randomNumber;\r\n    uint24 nextId;\r\n    uint24 limitMint = 4000;\r\n    uint24[] countMints = new uint8[](3);\r\n\r\n    // Only for tests, to avoid chainlink\r\n    bool public testMode;\r\n\r\n    struct Character {\r\n        uint24 id;\r\n        uint56 dna;\r\n        uint16 level;\r\n        uint24 xp;\r\n        uint24 hp;\r\n        uint24 stamina;\r\n        uint24 attack1;\r\n        uint24 attack2;\r\n        uint24 attack3;\r\n        uint24 attack4;\r\n        uint24 attributePoints;\r\n        uint256 lastFight;\r\n        type_character typeCharacter;\r\n        gender_character genderCharacter;\r\n    }\r\n\r\n    // Mapping from token ID to account balances\r\n    mapping(uint256 => Character) private _characterDetails;\r\n\r\n    // Mapping from account to his number of NFTs\r\n    mapping(address => uint8) private _balanceOfCharacters;\r\n\r\n    /**\r\n     * @dev Emitted when the character with \"id\" is created.\r\n     */\r\n    event CharacterCreated(uint256 id);\r\n\r\n    /**\r\n     * @dev Emitted when the character with \"id\" is rested, he recovers health points and stamina.\r\n     */\r\n    event Rested(uint256 tokenId);\r\n\r\n    /**\r\n     * @dev Emitted when the character with \"myTokenId\" removes \"substrateLifeToRival\" points of hp to \"rivalTokenId\" and the character with \"rivalTokenId\" removes \"substrateLifeToMe\" points of hp to \"myTokenId\".\r\n     */\r\n    event Fighted(uint256 myTokenId, uint256 rivalTokenId, uint256 substrateLifeToRival, uint256 substrateLifeToMe);\r\n    \r\n    /**\r\n     * @dev Emitted when the character with \"tokenId\" has gained enough experience points to increase one level.\r\n     */\r\n    event LevelUp(uint256 tokenId, uint256 level);\r\n\r\n    /**\r\n     * @dev Emitted when the owner changes the ether fee for minting with the amount \"mintFee\".\r\n     */\r\n    event FeeUpdated(uint256 mintFee);\r\n\r\n    /**\r\n     * @dev Emitted when the owner changes the mintable NFT limit with the amount \"limitMint\".\r\n     */\r\n    event LimitUpdated(uint256 limitMint);\r\n\r\n    // Only for tests, to avoid chainlink\r\n    function testModeSwitch() external onlyOwner {\r\n        testMode = !testMode;\r\n    }\r\n    \r\n    /**\r\n     * @dev The function changes the ether fee for minting.\r\n     * @param _mintFee New amount of fee.\r\n     * Emits a \"FeeUpdated\" event.\r\n     */\r\n    function updateFee(uint256 _mintFee) external onlyOwner() {\r\n        mintFee = _mintFee;\r\n        emit FeeUpdated(mintFee);\r\n    }\r\n\r\n    /**\r\n     * @dev The function changes the mintable NFT limit.\r\n     * @param _limitMint New limit of mintable NFT.\r\n     * Emits a \"LimitUpdated\" event.\r\n     */\r\n    function updateLimitMint(uint24 _limitMint) external onlyOwner() {\r\n        limitMint = _limitMint;\r\n        emit LimitUpdated(limitMint);\r\n    }\r\n    \r\n    /**\r\n     * @dev Owner withdraws the entire amount of ETH.\r\n     */\r\n    function withdraw() external onlyOwner() {\r\n        payable(owner()).transfer(address(this).balance);\r\n    }\r\n\r\n    /**\r\n     * @dev Owner withdraws an amount of LINK.\r\n     * @param value Value of LINK.\r\n     */\r\n    function withdrawLINK(uint256 value) external onlyOwner {\r\n        LINK.transfer(owner(), value);\r\n    }\r\n\r\n    /**\r\n     * @dev Tip to simulate the function ownerOf of ERC721, check if msg.sender is owner of the token.\r\n     * @param _tokenId Id of the token.\r\n     */\r\n    function _ownerOf(uint256 _tokenId) private view returns (bool) {\r\n        return balanceOf(msg.sender, _tokenId) != 0;\r\n    }\r\n\r\n    /**\r\n     * @dev The function uses the chainlink requestRandomness of VRFConsumerBase.\r\n     * @param _mod Length of number needed (modulo).\r\n     */\r\n    function _generateRandomNumber(uint256 _mod) internal {\r\n        if (!testMode) { // Only for tests, to avoid chainlink\r\n            randomNumber = uint256(getRandomNumber()) % _mod;\r\n        } else {\r\n            randomNumber = uint256(keccak256(abi.encodePacked(block.timestamp, block.difficulty, msg.sender))) % _mod;\r\n        }\r\n    }\r\n\r\n    /**\r\n     * @dev The function assigns a number between 3 and 5 randomly to the attack characteristics using \"randomNumber\".\r\n     */\r\n    function _attributesMintDistribution() private view returns(uint8[] memory) {\r\n        uint8[] memory _attributes = new uint8[](4);\r\n        for(uint8 i=0; i<4; i++) {\r\n            _attributes[i] = 3 + uint8((randomNumber % (10+i)) % 3); // ide nft: la lose ou la win, tu obtiens 0 ou 10 points bonus\r\n        }\r\n        return _attributes;\r\n    }\r\n\r\n    /**\r\n     * @dev One experience point is added and if the experience number reaches % 10 == 0 then the NFT increases one level and gains 10 points to attribute to his stats.\r\n     * @param _tokenId Id of the token.\r\n     * Emits a \"LevelUp\" event.\r\n     */\r\n    function _xpLevelUp(uint256 _tokenId) private {\r\n        _characterDetails[_tokenId].xp++;\r\n        if (_characterDetails[_tokenId].xp % 10 == 0) {\r\n            _characterDetails[_tokenId].level++;\r\n            _characterDetails[_tokenId].attributePoints += 10;\r\n            emit LevelUp(_tokenId, _characterDetails[_tokenId].level);\r\n        }\r\n    }\r\n\r\n    /**\r\n     * @dev The function allows the allocation of \"attributePoints\" to the different characteristics.\r\n     * @param _tokenId Id of the token.\r\n     * @param _attack1 Attack number 1 of the token.\r\n     * @param _attack2 Attack number 2 of the token.\r\n     * @param _attack3 Attack number 3 of the token.\r\n     * @param _attack4 Attack number 4 of the token.\r\n     */\r\n    function attributesLevelUp(uint256 _tokenId, uint24 _attack1, uint24 _attack2, uint24 _attack3, uint24 _attack4) external {\r\n        uint256 totalPoints = _attack1 + _attack2 + _attack3 + _attack4;\r\n        require(_characterDetails[_tokenId].attributePoints == totalPoints, \"Wrong amount of points to attribute\");\r\n        // _characterDetails[_tokenId].hp += _hp * 20;\r\n        // _characterDetails[_tokenId].stamina += _stamina * 20;\r\n        _characterDetails[_tokenId].attack1 += _attack1;\r\n        _characterDetails[_tokenId].attack2 += _attack2;\r\n        _characterDetails[_tokenId].attack3 += _attack3;\r\n        _characterDetails[_tokenId].attack4 += _attack4;\r\n    }\r\n\r\n    /**\r\n     * @dev Fight algorithm: attack, defence and experience points are taken into account to determine a winner.\r\n     * @param _id1 Id of the token number 1.\r\n     * @param _id2 Id of the token number 2.\r\n     */\r\n    function _substrateLife(uint256 _id1, uint256 _id2) private view returns(uint256) {\r\n        uint256 op1 = ((_characterDetails[_id1].attack1 + _characterDetails[_id1].attack2) / 2) * (1 + _characterDetails[_id1].xp);\r\n        uint256 op2 = ((_characterDetails[_id2].attack3 + _characterDetails[_id2].attack4) / 2) * ((1 + _characterDetails[_id2].xp) / 2);\r\n        if (op1 < op2) {\r\n            return 0;\r\n        } else {\r\n            return op1 - op2;\r\n        }\r\n    }\r\n\r\n    /**\r\n     * @dev The Function manages the different scenarios during a fight.\r\n     * @param _myTokenId Id of the token number 1.\r\n     * @param _rivalTokenId Id of the token number 2.\r\n     * @param _substrateLifeToRival Number of life points to remove from _rivalTokenId.\r\n     * @param _substrateLifeToMe Number of life points to remove from _myTokenId.\r\n     * Emits a \"Fighted\" event.\r\n     */\r\n    function _subtrateLifeOperation(uint256 _myTokenId, uint256 _rivalTokenId, uint256 _substrateLifeToRival, uint256 _substrateLifeToMe) private {\r\n        if(_substrateLifeToRival >= _characterDetails[_rivalTokenId].hp) {\r\n            _characterDetails[_rivalTokenId].hp = 0;\r\n            _xpLevelUp(_myTokenId);\r\n        } else {\r\n            _characterDetails[_rivalTokenId].hp = _characterDetails[_rivalTokenId].hp - uint24(_substrateLifeToRival);\r\n            if(_substrateLifeToMe >= _characterDetails[_myTokenId].hp) {\r\n                _characterDetails[_myTokenId].hp = 0;\r\n                _xpLevelUp(_rivalTokenId);\r\n            } else {\r\n                _characterDetails[_myTokenId].hp = _characterDetails[_myTokenId].hp - uint24(_substrateLifeToMe);\r\n                if (_substrateLifeToRival > _substrateLifeToMe) {\r\n                    _xpLevelUp(_myTokenId);\r\n                } else if (_substrateLifeToMe > _substrateLifeToRival) {\r\n                    _xpLevelUp(_rivalTokenId);\r\n                } else {\r\n                    _xpLevelUp(_myTokenId);\r\n                    _xpLevelUp(_rivalTokenId);\r\n                }\r\n            }\r\n        }\r\n        emit Fighted(_myTokenId, _rivalTokenId, _substrateLifeToRival, _substrateLifeToMe);\r\n    }\r\n\r\n    /**\r\n     * @dev The Function mint an NFT.\r\n     * @param _typeCharacter Type of character between BRUTE, SPIRITUAL, ELEMENTARY.\r\n     * @param _genderCharacter Gender of character between MASCULINE, FEMININE, OTHER.\r\n     * Emits a \"CharacterCreated\" event.\r\n     */\r\n    function createCharacter(type_character _typeCharacter, gender_character _genderCharacter) external payable {\r\n        require(msg.value == mintFee, \"Wrong amount of fees\");\r\n        require(_balanceOfCharacters[msg.sender] < 5, \"You can't have more than 5 NFT\");\r\n        require(countMints[uint8(_typeCharacter)] <= limitMint, \"You cannot mint more character with this class\");\r\n        _generateRandomNumber(10**16);\r\n        uint8[] memory _attributes = _attributesMintDistribution();\r\n        _characterDetails[nextId] = Character(nextId, uint56(randomNumber), 1, 1, 100, 100, _attributes[0], _attributes[1], _attributes[2], _attributes[3], 0, block.timestamp, _typeCharacter, _genderCharacter);\r\n        _balanceOfCharacters[msg.sender]++;\r\n        countMints[uint8(_typeCharacter)]++;\r\n        _mint(msg.sender, nextId, 1, \"\");\r\n        emit CharacterCreated(nextId);\r\n        nextId++;\r\n    }\r\n\r\n    /**\r\n     * @dev The function allows the NFT to recover 100 health points and 100 stamina points.\r\n     * @param _tokenId Id of the token.\r\n     * Emits a \"Rested\" event.\r\n     */\r\n    // TODO: ajouter timestamp, faire les tests et ajouter l'explication au fichier tests_explication\r\n    function rest(uint256 _tokenId) external {\r\n        require(_ownerOf(_tokenId), \"You're not the owner of the NFT\");\r\n        require(_characterDetails[_tokenId].stamina < 100 && _characterDetails[_tokenId].hp < 100, \"You're character is already rested\");\r\n        // _characterDetails[_tokenId].lastRest = block.timestamp;\r\n        _characterDetails[_tokenId].stamina = 100;\r\n        _characterDetails[_tokenId].hp = 100;\r\n        emit Rested(_tokenId);\r\n    }\r\n\r\n    /**\r\n     * @dev The function allows you to use your NFT to fight with another NFT belonging to another user.\r\n     * @param _myTokenId Id of the fighter number 1.\r\n     * @param _rivalTokenId Id of the fighter number 2.\r\n     */\r\n    function fight(uint256 _myTokenId, uint256 _rivalTokenId) external {\r\n        require(_ownerOf(_myTokenId), \"You're not the owner of the NFT\");\r\n        require(_ownerOf(_myTokenId) != _ownerOf(_rivalTokenId), \"Your NFTs cannot fight each other\");\r\n        require(_characterDetails[_myTokenId].lastFight + 60 < block.timestamp, \"To soon to fight (1 min)\");\r\n        require(_characterDetails[_myTokenId].stamina >= 10, \"Not enough stamina\");\r\n        require(_characterDetails[_myTokenId].level <= _characterDetails[_rivalTokenId].level, \"Fight someone your own size!\");\r\n        require(_characterDetails[_myTokenId].hp > 0 && _characterDetails[_rivalTokenId].hp > 0, \"One of the NFTs is dead\");\r\n\r\n        _characterDetails[_myTokenId].lastFight = block.timestamp;\r\n        uint256 _substrateLifeToRival = _substrateLife(_myTokenId, _rivalTokenId);\r\n        uint256 _substrateLifeToMe = _substrateLife(_rivalTokenId, _myTokenId);\r\n\r\n        _characterDetails[_myTokenId].stamina = _characterDetails[_myTokenId].stamina - 10;\r\n        _subtrateLifeOperation(_myTokenId, _rivalTokenId, _substrateLifeToRival, _substrateLifeToMe);\r\n    }\r\n    \r\n    /**\r\n     * @dev The function returns the characteristics of the NFT.\r\n     * @param _tokenId Id of the token.\r\n     */\r\n    function getTokenDetails(uint256 _tokenId) external view returns(Character memory) {\r\n        return _characterDetails[_tokenId];\r\n    }\r\n\r\n    /**\r\n     * @dev The function returns an array with the characteristics of all my NFTs.\r\n     */\r\n    function getMyCharacters() external view returns (Character[] memory){\r\n        uint8 count = 0;\r\n        Character[] memory myCharacters = new Character[](_balanceOfCharacters[msg.sender]);\r\n        for (uint256 i = 0; i < nextId; i++) {\r\n            if (_ownerOf(i)) {\r\n                myCharacters[count] = _characterDetails[i];\r\n                count++;\r\n            }\r\n        }\r\n        return myCharacters;\r\n    }\r\n\r\n    /**\r\n     * @dev The function returns an array with the characteristics of all the NFTs that don't belong to me.\r\n     */\r\n    function getOthersCharacters() external view returns (Character[] memory){\r\n        uint256 count = 0;\r\n        Character[] memory othersCharacters = new Character[](nextId - _balanceOfCharacters[msg.sender]);\r\n        for (uint256 i = 0; i < nextId; i++) {\r\n            if (!_ownerOf(i)) {\r\n                othersCharacters[count] = _characterDetails[i];\r\n                count++;\r\n            }\r\n        }\r\n        return othersCharacters;\r\n    }\r\n    \r\n    // Only for TESTS\r\n    function getBalanceOfCharacters(address _address) external view returns(uint8) {\r\n        return _balanceOfCharacters[_address];\r\n    }\r\n\r\n    // function getAllCharacters() external view returns (Character[] memory){\r\n    //     Character[] memory allCharacters = new Character[](nextId);\r\n    //     for (uint256 i = 0; i < nextId; i++) {\r\n    //         allCharacters[i] = _characterDetails[i];\r\n    //     }\r\n    //     return allCharacters;\r\n    // }\r\n\r\n    // function getCountMints(uint8 _class) external view returns(uint24) {\r\n    //     return countMints[_class];\r\n    // }\r\n}",
  "sourcePath": "D:\\TAF\\Alyra\\ALYRA_PROJET_FINAL\\unlimited_evolution\\contracts\\UnlimitedEvolution.sol",
  "compiler": {
    "name": "solc",
    "version": "0.8.7+commit.e28d00a7.Emscripten.clang"
  },
  "schemaVersion": "3.4.3",
  "updatedAt": "2022-01-04T15:51:32.364Z",
  "networkType": "ethereum",
  "devdoc": {
    "events": {
      "CharacterCreated(uint256)": {
        "details": "Emitted when the character with \"id\" is created."
      },
      "FeeUpdated(uint256)": {
        "details": "Emitted when the owner changes the ether fee for minting with the amount \"mintFee\"."
      },
      "Fighted(uint256,uint256,uint256,uint256)": {
        "details": "Emitted when the character with \"myTokenId\" removes \"substrateLifeToRival\" points of hp to \"rivalTokenId\" and the character with \"rivalTokenId\" removes \"substrateLifeToMe\" points of hp to \"myTokenId\"."
      },
      "LevelUp(uint256,uint256)": {
        "details": "Emitted when the character with \"tokenId\" has gained enough experience points to increase one level."
      },
      "LimitUpdated(uint256)": {
        "details": "Emitted when the owner changes the mintable NFT limit with the amount \"limitMint\"."
      },
      "Rested(uint256)": {
        "details": "Emitted when the character with \"id\" is rested, he recovers health points and stamina."
      }
    },
    "kind": "dev",
    "methods": {
      "attributesLevelUp(uint256,uint24,uint24,uint24,uint24)": {
        "details": "The function allows the allocation of \"attributePoints\" to the different characteristics.",
        "params": {
          "_attack1": "Attack number 1 of the token.",
          "_attack2": "Attack number 2 of the token.",
          "_attack3": "Attack number 3 of the token.",
          "_attack4": "Attack number 4 of the token.",
          "_tokenId": "Id of the token."
        }
      },
      "balanceOf(address,uint256)": {
        "details": "See {IERC1155-balanceOf}. Requirements: - `account` cannot be the zero address."
      },
      "balanceOfBatch(address[],uint256[])": {
        "details": "See {IERC1155-balanceOfBatch}. Requirements: - `accounts` and `ids` must have the same length."
      },
      "createCharacter(uint8,uint8)": {
        "details": "The Function mint an NFT.",
        "params": {
          "_genderCharacter": "Gender of character between MASCULINE, FEMININE, OTHER. Emits a \"CharacterCreated\" event.",
          "_typeCharacter": "Type of character between BRUTE, SPIRITUAL, ELEMENTARY."
        }
      },
      "fight(uint256,uint256)": {
        "details": "The function allows you to use your NFT to fight with another NFT belonging to another user.",
        "params": {
          "_myTokenId": "Id of the fighter number 1.",
          "_rivalTokenId": "Id of the fighter number 2."
        }
      },
      "getMyCharacters()": {
        "details": "The function returns an array with the characteristics of all my NFTs."
      },
      "getOthersCharacters()": {
        "details": "The function returns an array with the characteristics of all the NFTs that don't belong to me."
      },
      "getTokenDetails(uint256)": {
        "details": "The function returns the characteristics of the NFT.",
        "params": {
          "_tokenId": "Id of the token."
        }
      },
      "isApprovedForAll(address,address)": {
        "details": "See {IERC1155-isApprovedForAll}."
      },
      "owner()": {
        "details": "Returns the address of the current owner."
      },
      "renounceOwnership()": {
        "details": "Leaves the contract without owner. It will not be possible to call `onlyOwner` functions anymore. Can only be called by the current owner. NOTE: Renouncing ownership will leave the contract without an owner, thereby removing any functionality that is only available to the owner."
      },
      "rest(uint256)": {
        "details": "The function allows the NFT to recover 100 health points and 100 stamina points.",
        "params": {
          "_tokenId": "Id of the token. Emits a \"Rested\" event."
        }
      },
      "safeBatchTransferFrom(address,address,uint256[],uint256[],bytes)": {
        "details": "See {IERC1155-safeBatchTransferFrom}."
      },
      "safeTransferFrom(address,address,uint256,uint256,bytes)": {
        "details": "See {IERC1155-safeTransferFrom}."
      },
      "setApprovalForAll(address,bool)": {
        "details": "See {IERC1155-setApprovalForAll}."
      },
      "supportsInterface(bytes4)": {
        "details": "See {IERC165-supportsInterface}."
      },
      "transferOwnership(address)": {
        "details": "Transfers ownership of the contract to a new account (`newOwner`). Can only be called by the current owner."
      },
      "updateFee(uint256)": {
        "details": "The function changes the ether fee for minting.",
        "params": {
          "_mintFee": "New amount of fee. Emits a \"FeeUpdated\" event."
        }
      },
      "updateLimitMint(uint24)": {
        "details": "The function changes the mintable NFT limit.",
        "params": {
          "_limitMint": "New limit of mintable NFT. Emits a \"LimitUpdated\" event."
        }
      },
      "uri(uint256)": {
        "details": "See {IERC1155MetadataURI-uri}. This implementation returns the same URI for *all* token types. It relies on the token type ID substitution mechanism https://eips.ethereum.org/EIPS/eip-1155#metadata[defined in the EIP]. Clients calling this function must replace the `\\{id\\}` substring with the actual token type ID."
      },
      "withdraw()": {
        "details": "Owner withdraws the entire amount of ETH."
      },
      "withdrawLINK(uint256)": {
        "details": "Owner withdraws an amount of LINK.",
        "params": {
          "value": "Value of LINK."
        }
      }
    },
    "title": "Unlimited Evolution ",
    "version": 1
  },
  "userdoc": {
    "kind": "user",
    "methods": {
      "getRandomNumber()": {
        "notice": "Requests randomness "
      }
    },
    "version": 1
  }
}