{
  "contractName": "UnlimitedEvolution",
  "abi": [
    {
      "inputs": [],
      "stateMutability": "nonpayable",
      "type": "constructor"
    },
    {
      "anonymous": false,
      "inputs": [
        {
          "indexed": true,
          "internalType": "address",
          "name": "account",
          "type": "address"
        },
        {
          "indexed": true,
          "internalType": "address",
          "name": "operator",
          "type": "address"
        },
        {
          "indexed": false,
          "internalType": "bool",
          "name": "approved",
          "type": "bool"
        }
      ],
      "name": "ApprovalForAll",
      "type": "event"
    },
    {
      "anonymous": false,
      "inputs": [
        {
          "indexed": false,
          "internalType": "uint256",
          "name": "id",
          "type": "uint256"
        }
      ],
      "name": "CharacterCreated",
      "type": "event"
    },
    {
      "anonymous": false,
      "inputs": [
        {
          "indexed": false,
          "internalType": "uint256",
          "name": "mintFee",
          "type": "uint256"
        }
      ],
      "name": "FeeUpdated",
      "type": "event"
    },
    {
      "anonymous": false,
      "inputs": [
        {
          "indexed": false,
          "internalType": "uint256",
          "name": "myTokenId",
          "type": "uint256"
        },
        {
          "indexed": false,
          "internalType": "uint256",
          "name": "rivalTokenId",
          "type": "uint256"
        },
        {
          "indexed": false,
          "internalType": "uint256",
          "name": "substrateLifeToRival",
          "type": "uint256"
        },
        {
          "indexed": false,
          "internalType": "uint256",
          "name": "substrateLifeToMe",
          "type": "uint256"
        }
      ],
      "name": "Fighted",
      "type": "event"
    },
    {
      "anonymous": false,
      "inputs": [
        {
          "indexed": false,
          "internalType": "uint256",
          "name": "tokenId",
          "type": "uint256"
        },
        {
          "indexed": false,
          "internalType": "uint256",
          "name": "level",
          "type": "uint256"
        }
      ],
      "name": "LevelUp",
      "type": "event"
    },
    {
      "anonymous": false,
      "inputs": [
        {
          "indexed": false,
          "internalType": "uint256",
          "name": "limitMint",
          "type": "uint256"
        }
      ],
      "name": "LimitUpdated",
      "type": "event"
    },
    {
      "anonymous": false,
      "inputs": [
        {
          "indexed": true,
          "internalType": "address",
          "name": "previousOwner",
          "type": "address"
        },
        {
          "indexed": true,
          "internalType": "address",
          "name": "newOwner",
          "type": "address"
        }
      ],
      "name": "OwnershipTransferred",
      "type": "event"
    },
    {
      "anonymous": false,
      "inputs": [
        {
          "indexed": false,
          "internalType": "uint256",
          "name": "tokenId",
          "type": "uint256"
        }
      ],
      "name": "Rested",
      "type": "event"
    },
    {
      "anonymous": false,
      "inputs": [
        {
          "indexed": true,
          "internalType": "address",
          "name": "operator",
          "type": "address"
        },
        {
          "indexed": true,
          "internalType": "address",
          "name": "from",
          "type": "address"
        },
        {
          "indexed": true,
          "internalType": "address",
          "name": "to",
          "type": "address"
        },
        {
          "indexed": false,
          "internalType": "uint256[]",
          "name": "ids",
          "type": "uint256[]"
        },
        {
          "indexed": false,
          "internalType": "uint256[]",
          "name": "values",
          "type": "uint256[]"
        }
      ],
      "name": "TransferBatch",
      "type": "event"
    },
    {
      "anonymous": false,
      "inputs": [
        {
          "indexed": true,
          "internalType": "address",
          "name": "operator",
          "type": "address"
        },
        {
          "indexed": true,
          "internalType": "address",
          "name": "from",
          "type": "address"
        },
        {
          "indexed": true,
          "internalType": "address",
          "name": "to",
          "type": "address"
        },
        {
          "indexed": false,
          "internalType": "uint256",
          "name": "id",
          "type": "uint256"
        },
        {
          "indexed": false,
          "internalType": "uint256",
          "name": "value",
          "type": "uint256"
        }
      ],
      "name": "TransferSingle",
      "type": "event"
    },
    {
      "anonymous": false,
      "inputs": [
        {
          "indexed": false,
          "internalType": "string",
          "name": "value",
          "type": "string"
        },
        {
          "indexed": true,
          "internalType": "uint256",
          "name": "id",
          "type": "uint256"
        }
      ],
      "name": "URI",
      "type": "event"
    },
    {
      "inputs": [
        {
          "internalType": "address",
          "name": "account",
          "type": "address"
        },
        {
          "internalType": "uint256",
          "name": "id",
          "type": "uint256"
        }
      ],
      "name": "balanceOf",
      "outputs": [
        {
          "internalType": "uint256",
          "name": "",
          "type": "uint256"
        }
      ],
      "stateMutability": "view",
      "type": "function",
      "constant": true
    },
    {
      "inputs": [
        {
          "internalType": "address[]",
          "name": "accounts",
          "type": "address[]"
        },
        {
          "internalType": "uint256[]",
          "name": "ids",
          "type": "uint256[]"
        }
      ],
      "name": "balanceOfBatch",
      "outputs": [
        {
          "internalType": "uint256[]",
          "name": "",
          "type": "uint256[]"
        }
      ],
      "stateMutability": "view",
      "type": "function",
      "constant": true
    },
    {
      "inputs": [],
      "name": "getRandomNumber",
      "outputs": [
        {
          "internalType": "bytes32",
          "name": "requestId",
          "type": "bytes32"
        }
      ],
      "stateMutability": "nonpayable",
      "type": "function"
    },
    {
      "inputs": [
        {
          "internalType": "address",
          "name": "account",
          "type": "address"
        },
        {
          "internalType": "address",
          "name": "operator",
          "type": "address"
        }
      ],
      "name": "isApprovedForAll",
      "outputs": [
        {
          "internalType": "bool",
          "name": "",
          "type": "bool"
        }
      ],
      "stateMutability": "view",
      "type": "function",
      "constant": true
    },
    {
      "inputs": [],
      "name": "owner",
      "outputs": [
        {
          "internalType": "address",
          "name": "",
          "type": "address"
        }
      ],
      "stateMutability": "view",
      "type": "function",
      "constant": true
    },
    {
      "inputs": [],
      "name": "randomResult",
      "outputs": [
        {
          "internalType": "uint256",
          "name": "",
          "type": "uint256"
        }
      ],
      "stateMutability": "view",
      "type": "function",
      "constant": true
    },
    {
      "inputs": [
        {
          "internalType": "bytes32",
          "name": "requestId",
          "type": "bytes32"
        },
        {
          "internalType": "uint256",
          "name": "randomness",
          "type": "uint256"
        }
      ],
      "name": "rawFulfillRandomness",
      "outputs": [],
      "stateMutability": "nonpayable",
      "type": "function"
    },
    {
      "inputs": [],
      "name": "renounceOwnership",
      "outputs": [],
      "stateMutability": "nonpayable",
      "type": "function"
    },
    {
      "inputs": [
        {
          "internalType": "address",
          "name": "from",
          "type": "address"
        },
        {
          "internalType": "address",
          "name": "to",
          "type": "address"
        },
        {
          "internalType": "uint256[]",
          "name": "ids",
          "type": "uint256[]"
        },
        {
          "internalType": "uint256[]",
          "name": "amounts",
          "type": "uint256[]"
        },
        {
          "internalType": "bytes",
          "name": "data",
          "type": "bytes"
        }
      ],
      "name": "safeBatchTransferFrom",
      "outputs": [],
      "stateMutability": "nonpayable",
      "type": "function"
    },
    {
      "inputs": [
        {
          "internalType": "address",
          "name": "from",
          "type": "address"
        },
        {
          "internalType": "address",
          "name": "to",
          "type": "address"
        },
        {
          "internalType": "uint256",
          "name": "id",
          "type": "uint256"
        },
        {
          "internalType": "uint256",
          "name": "amount",
          "type": "uint256"
        },
        {
          "internalType": "bytes",
          "name": "data",
          "type": "bytes"
        }
      ],
      "name": "safeTransferFrom",
      "outputs": [],
      "stateMutability": "nonpayable",
      "type": "function"
    },
    {
      "inputs": [
        {
          "internalType": "address",
          "name": "operator",
          "type": "address"
        },
        {
          "internalType": "bool",
          "name": "approved",
          "type": "bool"
        }
      ],
      "name": "setApprovalForAll",
      "outputs": [],
      "stateMutability": "nonpayable",
      "type": "function"
    },
    {
      "inputs": [
        {
          "internalType": "bytes4",
          "name": "interfaceId",
          "type": "bytes4"
        }
      ],
      "name": "supportsInterface",
      "outputs": [
        {
          "internalType": "bool",
          "name": "",
          "type": "bool"
        }
      ],
      "stateMutability": "view",
      "type": "function",
      "constant": true
    },
    {
      "inputs": [],
      "name": "testMode",
      "outputs": [
        {
          "internalType": "bool",
          "name": "",
          "type": "bool"
        }
      ],
      "stateMutability": "view",
      "type": "function",
      "constant": true
    },
    {
      "inputs": [
        {
          "internalType": "address",
          "name": "newOwner",
          "type": "address"
        }
      ],
      "name": "transferOwnership",
      "outputs": [],
      "stateMutability": "nonpayable",
      "type": "function"
    },
    {
      "inputs": [
        {
          "internalType": "uint256",
          "name": "",
          "type": "uint256"
        }
      ],
      "name": "uri",
      "outputs": [
        {
          "internalType": "string",
          "name": "",
          "type": "string"
        }
      ],
      "stateMutability": "view",
      "type": "function",
      "constant": true
    },
    {
      "inputs": [
        {
          "internalType": "string",
          "name": "newuri",
          "type": "string"
        }
      ],
      "name": "setURI",
      "outputs": [],
      "stateMutability": "nonpayable",
      "type": "function"
    },
    {
      "inputs": [],
      "name": "testModeSwitch",
      "outputs": [],
      "stateMutability": "nonpayable",
      "type": "function"
    },
    {
      "inputs": [
        {
          "internalType": "uint256",
          "name": "_mintFee",
          "type": "uint256"
        }
      ],
      "name": "updateFee",
      "outputs": [],
      "stateMutability": "nonpayable",
      "type": "function"
    },
    {
      "inputs": [
        {
          "internalType": "uint24",
          "name": "_limitMint",
          "type": "uint24"
        }
      ],
      "name": "updateLimitMint",
      "outputs": [],
      "stateMutability": "nonpayable",
      "type": "function"
    },
    {
      "inputs": [],
      "name": "withdraw",
      "outputs": [],
      "stateMutability": "nonpayable",
      "type": "function"
    },
    {
      "inputs": [
        {
          "internalType": "uint256",
          "name": "value",
          "type": "uint256"
        }
      ],
      "name": "withdrawLINK",
      "outputs": [],
      "stateMutability": "nonpayable",
      "type": "function"
    },
    {
      "inputs": [
        {
          "internalType": "uint256",
          "name": "_tokenId",
          "type": "uint256"
        },
        {
          "internalType": "uint24",
          "name": "_hp",
          "type": "uint24"
        },
        {
          "internalType": "uint24",
          "name": "_stamina",
          "type": "uint24"
        },
        {
          "internalType": "uint24",
          "name": "_attack",
          "type": "uint24"
        },
        {
          "internalType": "uint24",
          "name": "_armor",
          "type": "uint24"
        },
        {
          "internalType": "uint24",
          "name": "_attack1",
          "type": "uint24"
        },
        {
          "internalType": "uint24",
          "name": "_attack2",
          "type": "uint24"
        },
        {
          "internalType": "uint24",
          "name": "_attack3",
          "type": "uint24"
        },
        {
          "internalType": "uint24",
          "name": "_attack4",
          "type": "uint24"
        }
      ],
      "name": "attributesLevelUp",
      "outputs": [],
      "stateMutability": "nonpayable",
      "type": "function"
    },
    {
      "inputs": [
        {
          "internalType": "enum UnlimitedEvolution.type_character",
          "name": "_typeCharacter",
          "type": "uint8"
        },
        {
          "internalType": "enum UnlimitedEvolution.gender_character",
          "name": "_genderCharacter",
          "type": "uint8"
        }
      ],
      "name": "createCharacter",
      "outputs": [],
      "stateMutability": "payable",
      "type": "function",
      "payable": true
    },
    {
      "inputs": [
        {
          "internalType": "uint256",
          "name": "_tokenId",
          "type": "uint256"
        }
      ],
      "name": "rest",
      "outputs": [],
      "stateMutability": "nonpayable",
      "type": "function"
    },
    {
      "inputs": [
        {
          "internalType": "uint256",
          "name": "_myTokenId",
          "type": "uint256"
        },
        {
          "internalType": "uint256",
          "name": "_rivalTokenId",
          "type": "uint256"
        }
      ],
      "name": "fight",
      "outputs": [],
      "stateMutability": "nonpayable",
      "type": "function"
    },
    {
      "inputs": [
        {
          "internalType": "uint256",
          "name": "_tokenId",
          "type": "uint256"
        }
      ],
      "name": "getTokenDetails",
      "outputs": [
        {
          "components": [
            {
              "internalType": "uint24",
              "name": "id",
              "type": "uint24"
            },
            {
              "internalType": "uint56",
              "name": "dna",
              "type": "uint56"
            },
            {
              "internalType": "uint16",
              "name": "level",
              "type": "uint16"
            },
            {
              "internalType": "uint24",
              "name": "xp",
              "type": "uint24"
            },
            {
              "internalType": "uint24",
              "name": "hp",
              "type": "uint24"
            },
            {
              "internalType": "uint24",
              "name": "stamina",
              "type": "uint24"
            },
            {
              "internalType": "uint24",
              "name": "attack",
              "type": "uint24"
            },
            {
              "internalType": "uint24",
              "name": "armor",
              "type": "uint24"
            },
            {
              "internalType": "uint24",
              "name": "attack1",
              "type": "uint24"
            },
            {
              "internalType": "uint24",
              "name": "attack2",
              "type": "uint24"
            },
            {
              "internalType": "uint24",
              "name": "attack3",
              "type": "uint24"
            },
            {
              "internalType": "uint24",
              "name": "attack4",
              "type": "uint24"
            },
            {
              "internalType": "uint24",
              "name": "attributePoints",
              "type": "uint24"
            },
            {
              "internalType": "uint256",
              "name": "lastFight",
              "type": "uint256"
            },
            {
              "internalType": "enum UnlimitedEvolution.type_character",
              "name": "typeCharacter",
              "type": "uint8"
            },
            {
              "internalType": "enum UnlimitedEvolution.gender_character",
              "name": "genderCharacter",
              "type": "uint8"
            }
          ],
          "internalType": "struct UnlimitedEvolution.Character",
          "name": "",
          "type": "tuple"
        }
      ],
      "stateMutability": "view",
      "type": "function",
      "constant": true
    },
    {
      "inputs": [],
      "name": "getMyCharacters",
      "outputs": [
        {
          "components": [
            {
              "internalType": "uint24",
              "name": "id",
              "type": "uint24"
            },
            {
              "internalType": "uint56",
              "name": "dna",
              "type": "uint56"
            },
            {
              "internalType": "uint16",
              "name": "level",
              "type": "uint16"
            },
            {
              "internalType": "uint24",
              "name": "xp",
              "type": "uint24"
            },
            {
              "internalType": "uint24",
              "name": "hp",
              "type": "uint24"
            },
            {
              "internalType": "uint24",
              "name": "stamina",
              "type": "uint24"
            },
            {
              "internalType": "uint24",
              "name": "attack",
              "type": "uint24"
            },
            {
              "internalType": "uint24",
              "name": "armor",
              "type": "uint24"
            },
            {
              "internalType": "uint24",
              "name": "attack1",
              "type": "uint24"
            },
            {
              "internalType": "uint24",
              "name": "attack2",
              "type": "uint24"
            },
            {
              "internalType": "uint24",
              "name": "attack3",
              "type": "uint24"
            },
            {
              "internalType": "uint24",
              "name": "attack4",
              "type": "uint24"
            },
            {
              "internalType": "uint24",
              "name": "attributePoints",
              "type": "uint24"
            },
            {
              "internalType": "uint256",
              "name": "lastFight",
              "type": "uint256"
            },
            {
              "internalType": "enum UnlimitedEvolution.type_character",
              "name": "typeCharacter",
              "type": "uint8"
            },
            {
              "internalType": "enum UnlimitedEvolution.gender_character",
              "name": "genderCharacter",
              "type": "uint8"
            }
          ],
          "internalType": "struct UnlimitedEvolution.Character[]",
          "name": "",
          "type": "tuple[]"
        }
      ],
      "stateMutability": "view",
      "type": "function",
      "constant": true
    },
    {
      "inputs": [],
      "name": "getOthersCharacters",
      "outputs": [
        {
          "components": [
            {
              "internalType": "uint24",
              "name": "id",
              "type": "uint24"
            },
            {
              "internalType": "uint56",
              "name": "dna",
              "type": "uint56"
            },
            {
              "internalType": "uint16",
              "name": "level",
              "type": "uint16"
            },
            {
              "internalType": "uint24",
              "name": "xp",
              "type": "uint24"
            },
            {
              "internalType": "uint24",
              "name": "hp",
              "type": "uint24"
            },
            {
              "internalType": "uint24",
              "name": "stamina",
              "type": "uint24"
            },
            {
              "internalType": "uint24",
              "name": "attack",
              "type": "uint24"
            },
            {
              "internalType": "uint24",
              "name": "armor",
              "type": "uint24"
            },
            {
              "internalType": "uint24",
              "name": "attack1",
              "type": "uint24"
            },
            {
              "internalType": "uint24",
              "name": "attack2",
              "type": "uint24"
            },
            {
              "internalType": "uint24",
              "name": "attack3",
              "type": "uint24"
            },
            {
              "internalType": "uint24",
              "name": "attack4",
              "type": "uint24"
            },
            {
              "internalType": "uint24",
              "name": "attributePoints",
              "type": "uint24"
            },
            {
              "internalType": "uint256",
              "name": "lastFight",
              "type": "uint256"
            },
            {
              "internalType": "enum UnlimitedEvolution.type_character",
              "name": "typeCharacter",
              "type": "uint8"
            },
            {
              "internalType": "enum UnlimitedEvolution.gender_character",
              "name": "genderCharacter",
              "type": "uint8"
            }
          ],
          "internalType": "struct UnlimitedEvolution.Character[]",
          "name": "",
          "type": "tuple[]"
        }
      ],
      "stateMutability": "view",
      "type": "function",
      "constant": true
    },
    {
      "inputs": [
        {
          "internalType": "address",
          "name": "_address",
          "type": "address"
        }
      ],
      "name": "getBalanceOfCharacters",
      "outputs": [
        {
          "internalType": "uint8",
          "name": "",
          "type": "uint8"
        }
      ],
      "stateMutability": "view",
      "type": "function",
      "constant": true
    },
    {
      "inputs": [
        {
          "internalType": "uint8",
          "name": "_class",
          "type": "uint8"
        }
      ],
      "name": "getCountMints",
      "outputs": [
        {
          "internalType": "uint24",
          "name": "",
          "type": "uint24"
        }
      ],
      "stateMutability": "view",
      "type": "function",
      "constant": true
    }
  ],
  "bytecode": "0x66038d7ea4c68000600855600a805465ffffff0000001916640fa0000000179055600360c08181526101406040529060e0606080368337505081516200004d92600b925060200190620001a0565b503480156200005b57600080fd5b5073dd3782915140c8f3b190b5d67eac6dc5760c46e973a36085f69e2889c224210f603d836748e7dc008860405180602001604052806000815250620000b08162000131640100000000026401000000009004565b50620000d7620000c86401000000006200014a810204565b6401000000006200014e810204565b6c01000000000000000000000000600160a060020a03928316810260a0529116026080527f6c3699283bda56ad74f6b855546325b68d482e983852a7a82979cc4807b641f460055567016345785d8a00006006556200033b565b80516200014690600290602084019062000251565b5050565b3390565b60038054600160a060020a03838116600160a060020a0319831681179093556040519116919082907f8be0079c531659141344cd1fd0a4f28419497f9722a3daafe3b4186f6b6457e090600090a35050565b82805482825590600052602060002090600901600a900481019282156200023f5791602002820160005b838211156200020c57835183826101000a81548162ffffff021916908360ff1602179055509260200192600301602081600201049283019260010302620001ca565b80156200023d5782816101000a81549062ffffff02191690556003016020816002010492830192600103026200020c565b505b506200024d929150620002ce565b5090565b8280546200025f90620002e5565b90600052602060002090601f0160209004810192826200028357600085556200023f565b82601f106200029e57805160ff19168380011785556200023f565b828001600101855582156200023f579182015b828111156200023f578251825591602001919060010190620002b1565b5b808211156200024d5760008155600101620002cf565b600281046001821680620002fa57607f821691505b6020821081141562000335577f4e487b7100000000000000000000000000000000000000000000000000000000600052602260045260246000fd5b50919050565b6080516c01000000000000000000000000900460a0516c01000000000000000000000000900461448762000396600039600081816115df0152612e6a015260008181611d4b0152818161236c0152612e3b01526144876000f3fe6080604052600436106101d05760003560e060020a900480637727b246116100fb578063bb84e74f11610099578063dbdff2c111610068578063dbdff2c114610561578063e985e9c514610576578063f242432a146105bf578063f2fde38b146105df57600080fd5b8063bb84e74f146104da578063c1e03728146104fa578063ca39e5ef14610527578063cd9ea3421461054757600080fd5b80639012c4a8116100d55780639012c4a81461046757806394985ddd14610487578063a22cb465146104a7578063b5214a08146104c757600080fd5b80637727b246146103ff5780638acf59f21461041f5780638da5cb5b1461043f57600080fd5b80632eb2c2d6116101735780634e1273f4116101425780634e1273f4146103885780634fb97a10146103b55780636e8eb222146103ca578063715018a6146103ea57600080fd5b80632eb2c2d61461031b5780633c4739d31461033b5780633ccfd60b1461035d57806342619f661461037257600080fd5b80630e89341c116101af5780630e89341c1461025a5780630fb22093146102875780632723c0de146102bb5780632a3f89631461030657600080fd5b8062fdd58e146101d557806301ffc9a71461020857806302fe530514610238575b600080fd5b3480156101e157600080fd5b506101f56101f0366004613940565b6105ff565b6040519081526020015b60405180910390f35b34801561021457600080fd5b50610228610223366004613a78565b6106ae565b60405190151581526020016101ff565b34801561024457600080fd5b50610258610253366004613ae0565b610749565b005b34801561026657600080fd5b5061027a610275366004613b44565b610782565b6040516101ff9190613f6a565b34801561029357600080fd5b506102a76102a2366004613c17565b610816565b60405162ffffff90911681526020016101ff565b3480156102c757600080fd5b506102f46102d63660046137ac565b600160a060020a03166000908152600e602052604090205460ff1690565b60405160ff90911681526020016101ff565b34801561031257600080fd5b5061025861085a565b34801561032757600080fd5b506102586103363660046137fa565b61089b565b34801561034757600080fd5b50610350610940565b6040516101ff9190613ee3565b34801561036957600080fd5b50610258610bb3565b34801561037e57600080fd5b506101f560075481565b34801561039457600080fd5b506103a86103a336600461396a565b610c24565b6040516101ff9190613f32565b3480156103c157600080fd5b50610350610d65565b3480156103d657600080fd5b506102586103e5366004613b44565b610fe4565b3480156103f657600080fd5b50610258611147565b34801561040b57600080fd5b5061025861041a366004613b76565b611180565b34801561042b57600080fd5b5061025861043a366004613b29565b6114f0565b34801561044b57600080fd5b50600354604051600160a060020a0390911681526020016101ff565b34801561047357600080fd5b50610258610482366004613b44565b611572565b34801561049357600080fd5b506102586104a2366004613a56565b6115d4565b3480156104b357600080fd5b506102586104c2366004613909565b611659565b6102586104d5366004613ab2565b611664565b3480156104e657600080fd5b506102586104f5366004613b44565b611d1c565b34801561050657600080fd5b5061051a610515366004613b44565b611e08565b6040516101ff91906140c9565b34801561053357600080fd5b50610258610542366004613a56565b611fb3565b34801561055357600080fd5b50600c546102289060ff1681565b34801561056d57600080fd5b506101f561232f565b34801561058257600080fd5b506102286105913660046137c7565b600160a060020a03918216600090815260016020908152604080832093909416825291909152205460ff1690565b3480156105cb57600080fd5b506102586105da3660046138a4565b612470565b3480156105eb57600080fd5b506102586105fa3660046137ac565b61250e565b6000600160a060020a0383166106855760405160e560020a62461bcd02815260206004820152602b60248201527f455243313135353a2062616c616e636520717565727920666f7220746865207a60448201527f65726f206164647265737300000000000000000000000000000000000000000060648201526084015b60405180910390fd5b50600081815260208181526040808320600160a060020a03861684529091529020545b92915050565b6000600160e060020a031982167fd9b67a260000000000000000000000000000000000000000000000000000000014806107115750600160e060020a031982167f0e89341c00000000000000000000000000000000000000000000000000000000145b806106a857507f01ffc9a700000000000000000000000000000000000000000000000000000000600160e060020a03198316146106a8565b600354600160a060020a031633146107765760405160e560020a62461bcd02815260040161067c90614094565b61077f816125c3565b50565b606060028054610791906141e8565b80601f01602080910402602001604051908101604052809291908181526020018280546107bd906141e8565b801561080a5780601f106107df5761010080835404028352916020019161080a565b820191906000526020600020905b8154815290600101906020018083116107ed57829003601f168201915b50505050509050919050565b6000600b8260ff168154811061082e5761082e614344565b90600052602060002090600a91828204019190066003029054906101000a900462ffffff169050919050565b600354600160a060020a031633146108875760405160e560020a62461bcd02815260040161067c90614094565b600c805460ff19811660ff90911615179055565b600160a060020a0385163314806108b757506108b78533610591565b61092c5760405160e560020a62461bcd02815260206004820152603260248201527f455243313135353a207472616e736665722063616c6c6572206973206e6f742060448201527f6f776e6572206e6f7220617070726f7665640000000000000000000000000000606482015260840161067c565b61093985858585856125d6565b5050505050565b336000908152600e602052604081205460609190819060ff1667ffffffffffffffff8111156109715761097161435d565b6040519080825280602002602001820160405280156109aa57816020015b610997613567565b81526020019060019003908161098f5790505b50905060005b600a5462ffffff16811015610bac576109c8816127d1565b15610b9a576000818152600d6020908152604091829020825161020081018452815462ffffff8082168352630100000080830466ffffffffffffff16958401959095526a0100000000000000000000820461ffff16958301959095526c01000000000000000000000000810485166060830152607860020a810485166080830152609060020a8104851660a083015275010000000000000000000000000000000000000000008104851660c083015260c060020a8104851660e08301527b01000000000000000000000000000000000000000000000000000000900484166101008201526001820154808516610120830152928304841661014082015266010000000000008304841661016082015269010000000000000000009092049092166101808201526002808301546101a083015260038301549192916101c084019160ff90911690811115610b1d57610b1d61432b565b6002811115610b2e57610b2e61432b565b81526020016003820160019054906101000a900460ff166002811115610b5657610b5661432b565b6002811115610b6757610b6761432b565b81525050828460ff1681518110610b8057610b80614344565b60200260200101819052508280610b96906142a3565b9350505b80610ba481614288565b9150506109b0565b5092915050565b600354600160a060020a03163314610be05760405160e560020a62461bcd02815260040161067c90614094565b600354600160a060020a0316604051600160a060020a039190911690303180156108fc02916000818181858888f1935050505015801561077f573d6000803e3d6000fd5b60608151835114610ca05760405160e560020a62461bcd02815260206004820152602960248201527f455243313135353a206163636f756e747320616e6420696473206c656e67746860448201527f206d69736d617463680000000000000000000000000000000000000000000000606482015260840161067c565b6000835167ffffffffffffffff811115610cbc57610cbc61435d565b604051908082528060200260200182016040528015610ce5578160200160208202803683370190505b50905060005b8451811015610d5d57610d30858281518110610d0957610d09614344565b6020026020010151858381518110610d2357610d23614344565b60200260200101516105ff565b828281518110610d4257610d42614344565b6020908102919091010152610d5681614288565b9050610ceb565b509392505050565b336000908152600e6020526040812054600a54606092918291610d909160ff169062ffffff166141ad565b62ffffff1667ffffffffffffffff811115610dad57610dad61435d565b604051908082528060200260200182016040528015610de657816020015b610dd3613567565b815260200190600190039081610dcb5790505b50905060005b600a5462ffffff16811015610bac57610e04816127d1565b610fd2576000818152600d6020908152604091829020825161020081018452815462ffffff8082168352630100000080830466ffffffffffffff16958401959095526a0100000000000000000000820461ffff16958301959095526c01000000000000000000000000810485166060830152607860020a810485166080830152609060020a8104851660a083015275010000000000000000000000000000000000000000008104851660c083015260c060020a8104851660e08301527b01000000000000000000000000000000000000000000000000000000900484166101008201526001820154808516610120830152928304841661014082015266010000000000008304841661016082015269010000000000000000009092049092166101808201526002808301546101a083015260038301549192916101c084019160ff90911690811115610f5857610f5861432b565b6002811115610f6957610f6961432b565b81526020016003820160019054906101000a900460ff166002811115610f9157610f9161432b565b6002811115610fa257610fa261432b565b81525050828481518110610fb857610fb8614344565b60200260200101819052508280610fce90614288565b9350505b80610fdc81614288565b915050610dec565b610fed816127d1565b61103c5760405160e560020a62461bcd02815260206004820152601f60248201527f596f75277265206e6f7420746865206f776e6572206f6620746865204e465400604482015260640161067c565b6000818152600d60205260409020546064609060020a90910462ffffff16106110d05760405160e560020a62461bcd02815260206004820152602260248201527f596f752772652063686172616374657220697320616c7265616479207265737460448201527f6564000000000000000000000000000000000000000000000000000000000000606482015260840161067c565b6000818152600d6020908152604091829020805474ffffff0000000000000000000000000000000000001916726400000000000000000000000000000000000017905590518281527f0a6cdc448db9889012c5e9b19cbf91c821ef49c37d804cfd15bb70665768e38a91015b60405180910390a150565b600354600160a060020a031633146111745760405160e560020a62461bcd02815260040161067c90614094565b61117e60006127e5565b565b600081838587898b8d8f61119491906140fc565b61119e91906140fc565b6111a891906140fc565b6111b291906140fc565b6111bc91906140fc565b6111c691906140fc565b6111d091906140fc565b60008b8152600d602052604090206001015462ffffff9182169250690100000000000000000090041681146112705760405160e560020a62461bcd02815260206004820152602360248201527f57726f6e6720616d6f756e74206f6620706f696e747320746f2061747472696260448201527f7574650000000000000000000000000000000000000000000000000000000000606482015260840161067c565b61127b896014614182565b60008b8152600d602052604090208054600f906112a5908490607860020a900462ffffff166140fc565b92506101000a81548162ffffff021916908362ffffff1602179055508760146112ce9190614182565b60008b8152600d6020526040902080546012906112f8908490609060020a900462ffffff166140fc565b92506101000a81548162ffffff021916908362ffffff16021790555086600d60008c815260200190815260200160002060000160158282829054906101000a900462ffffff1661134891906140fc565b92506101000a81548162ffffff021916908362ffffff16021790555085600d60008c815260200190815260200160002060000160188282829054906101000a900462ffffff1661139891906140fc565b92506101000a81548162ffffff021916908362ffffff16021790555084600d60008c8152602001908152602001600020600001601b8282829054906101000a900462ffffff166113e891906140fc565b82546101009290920a62ffffff81810219909316918316021790915560008c8152600d6020526040812060010180548894509092611428918591166140fc565b92506101000a81548162ffffff021916908362ffffff16021790555082600d60008c815260200190815260200160002060010160038282829054906101000a900462ffffff1661147891906140fc565b92506101000a81548162ffffff021916908362ffffff16021790555081600d60008c815260200190815260200160002060010160068282829054906101000a900462ffffff166114c891906140fc565b92506101000a81548162ffffff021916908362ffffff16021790555050505050505050505050565b600354600160a060020a0316331461151d5760405160e560020a62461bcd02815260040161067c90614094565b600a805465ffffff0000001916630100000062ffffff8481168202929092179283905560405192041681527f824bdce4cbdec6e790596be3c1ac027ebd2747f3b4f72e8e9b50a9ce5479fe409060200161113c565b600354600160a060020a0316331461159f5760405160e560020a62461bcd02815260040161067c90614094565b60088190556040518181527f8c4d35e54a3f2ef1134138fd8ea3daee6a3c89e10d2665996babdf70261e2c769060200161113c565b33600160a060020a037f0000000000000000000000000000000000000000000000000000000000000000161461164f5760405160e560020a62461bcd02815260206004820152601f60248201527f4f6e6c7920565246436f6f7264696e61746f722063616e2066756c66696c6c00604482015260640161067c565b60075550565b5050565b611655338383612844565b60085434146116b85760405160e560020a62461bcd02815260206004820152601460248201527f57726f6e6720616d6f756e74206f662066656573000000000000000000000000604482015260640161067c565b336000908152600e6020526040902054600560ff9091161061171f5760405160e560020a62461bcd02815260206004820152601e60248201527f596f752063616e27742068617665206d6f7265207468616e2035204e46540000604482015260640161067c565b600a546301000000900462ffffff16600b8360028111156117425761174261432b565b60ff168154811061175557611755614344565b90600052602060002090600a91828204019190066003029054906101000a900462ffffff1662ffffff1611156117f65760405160e560020a62461bcd02815260206004820152602e60248201527f596f752063616e6e6f74206d696e74206d6f726520636861726163746572207760448201527f697468207468697320636c617373000000000000000000000000000000000000606482015260840161067c565b611806662386f26fc1000061293c565b60006118106129a9565b6040805161020081018252600a5462ffffff16815260095466ffffffffffffff1660208201526001918101829052606081019190915260646080820181905260a0820152600560c0820152600360e0820152815191925090610100820190839060009061187f5761187f614344565b602002602001015160ff1662ffffff168152602001826001815181106118a7576118a7614344565b602002602001015160ff1662ffffff168152602001826002815181106118cf576118cf614344565b602002602001015160ff1662ffffff168152602001826003815181106118f7576118f7614344565b602002602001015160ff1662ffffff168152602001600062ffffff1681526020014281526020018460028111156119305761193061432b565b81526020018360028111156119475761194761432b565b815250600d6000600a60009054906101000a900462ffffff1662ffffff16815260200190815260200160002060008201518160000160006101000a81548162ffffff021916908362ffffff16021790555060208201518160000160036101000a81548166ffffffffffffff021916908366ffffffffffffff160217905550604082015181600001600a6101000a81548161ffff021916908361ffff160217905550606082015181600001600c6101000a81548162ffffff021916908362ffffff160217905550608082015181600001600f6101000a81548162ffffff021916908362ffffff16021790555060a08201518160000160126101000a81548162ffffff021916908362ffffff16021790555060c08201518160000160156101000a81548162ffffff021916908362ffffff16021790555060e08201518160000160186101000a81548162ffffff021916908362ffffff16021790555061010082015181600001601b6101000a81548162ffffff021916908362ffffff1602179055506101208201518160010160006101000a81548162ffffff021916908362ffffff1602179055506101408201518160010160036101000a81548162ffffff021916908362ffffff1602179055506101608201518160010160066101000a81548162ffffff021916908362ffffff1602179055506101808201518160010160096101000a81548162ffffff021916908362ffffff1602179055506101a082015181600201556101c08201518160030160006101000a81548160ff02191690836002811115611b9557611b9561432b565b02179055506101e082015160038201805461ff001916610100836002811115611bc057611bc061432b565b021790555050336000908152600e60205260408120805460ff16925090611be6836142a3565b91906101000a81548160ff021916908360ff16021790555050600b836002811115611c1357611c1361432b565b60ff1681548110611c2657611c26614344565b90600052602060002090600a918282040191900660030281819054906101000a900462ffffff1680929190611c5a9061426f565b91906101000a81548162ffffff021916908362ffffff16021790555050611ca933600a60009054906101000a900462ffffff1662ffffff16600160405180602001604052806000815250612a38565b600a5460405162ffffff90911681527f7f0777865312bae358531b42d9c405a59bfd31beba1973946dc0ce134cad418a9060200160405180910390a1600a805462ffffff16906000611cfa8361426f565b91906101000a81548162ffffff021916908362ffffff16021790555050505050565b600354600160a060020a03163314611d495760405160e560020a62461bcd02815260040161067c90614094565b7f0000000000000000000000000000000000000000000000000000000000000000600160a060020a031663a9059cbb611d8a600354600160a060020a031690565b60405160e060020a63ffffffff8416028152600160a060020a03909116600482015260248101849052604401602060405180830381600087803b158015611dd057600080fd5b505af1158015611de4573d6000803e3d6000fd5b505050506040513d601f19601f820116820180604052508101906116559190613a39565b611e10613567565b6000828152600d6020908152604091829020825161020081018452815462ffffff8082168352630100000080830466ffffffffffffff16958401959095526a0100000000000000000000820461ffff16958301959095526c01000000000000000000000000810485166060830152607860020a810485166080830152609060020a8104851660a083015275010000000000000000000000000000000000000000008104851660c083015260c060020a8104851660e08301527b01000000000000000000000000000000000000000000000000000000900484166101008201526001820154808516610120830152928304841661014082015266010000000000008304841661016082015269010000000000000000009092049092166101808201526002808301546101a083015260038301549192916101c084019160ff90911690811115611f6057611f6061432b565b6002811115611f7157611f7161432b565b81526020016003820160019054906101000a900460ff166002811115611f9957611f9961432b565b6002811115611faa57611faa61432b565b90525092915050565b611fbc826127d1565b61200b5760405160e560020a62461bcd02815260206004820152601f60248201527f596f75277265206e6f7420746865206f776e6572206f6620746865204e465400604482015260640161067c565b612014816127d1565b151561201f836127d1565b151514156120985760405160e560020a62461bcd02815260206004820152602160248201527f596f7572204e4654732063616e6e6f742066696768742065616368206f74686560448201527f7200000000000000000000000000000000000000000000000000000000000000606482015260840161067c565b6000828152600d602052604090206002015442906120b790603c614123565b106121075760405160e560020a62461bcd02815260206004820152601860248201527f546f20736f6f6e20746f206669676874202831206d696e290000000000000000604482015260640161067c565b6000828152600d6020526040902054600a609060020a90910462ffffff1610156121765760405160e560020a62461bcd02815260206004820152601260248201527f4e6f7420656e6f756768207374616d696e610000000000000000000000000000604482015260640161067c565b6000818152600d60205260408082205484835291205461ffff6a0100000000000000000000928390048116929091041611156121f75760405160e560020a62461bcd02815260206004820152601c60248201527f466967687420736f6d656f6e6520796f7572206f776e2073697a652100000000604482015260640161067c565b6000828152600d6020526040902054607860020a900462ffffff161580159061223957506000818152600d6020526040902054607860020a900462ffffff1615155b6122885760405160e560020a62461bcd02815260206004820152601760248201527f4f6e65206f6620746865204e4654732069732064656164000000000000000000604482015260640161067c565b6000828152600d60205260408120426002909101556122a78383612b61565b905060006122b58385612b61565b6000858152600d60205260409020549091506122df90600a90609060020a900462ffffff166141ad565b6000858152600d60205260409020805462ffffff92909216609060020a0274ffffff0000000000000000000000000000000000001990921691909117905561232984848484612c5f565b50505050565b6006546040517f70a0823100000000000000000000000000000000000000000000000000000000815230600482015260009190600160a060020a037f000000000000000000000000000000000000000000000000000000000000000016906370a082319060240160206040518083038186803b1580156123ae57600080fd5b505afa1580156123c2573d6000803e3d6000fd5b505050506040513d601f19601f820116820180604052508101906123e69190613b5d565b101561245d5760405160e560020a62461bcd02815260206004820152602b60248201527f4e6f7420656e6f756768204c494e4b202d2066696c6c20636f6e74726163742060448201527f7769746820666175636574000000000000000000000000000000000000000000606482015260840161067c565b61246b600554600654612e37565b905090565b600160a060020a03851633148061248c575061248c8533610591565b6125015760405160e560020a62461bcd02815260206004820152602960248201527f455243313135353a2063616c6c6572206973206e6f74206f776e6572206e6f7260448201527f20617070726f7665640000000000000000000000000000000000000000000000606482015260840161067c565b6109398585858585612fcb565b600354600160a060020a0316331461253b5760405160e560020a62461bcd02815260040161067c90614094565b600160a060020a0381166125ba5760405160e560020a62461bcd02815260206004820152602660248201527f4f776e61626c653a206e6577206f776e657220697320746865207a65726f206160448201527f6464726573730000000000000000000000000000000000000000000000000000606482015260840161067c565b61077f816127e5565b80516116559060029060208401906135ea565b81518351146126505760405160e560020a62461bcd02815260206004820152602860248201527f455243313135353a2069647320616e6420616d6f756e7473206c656e6774682060448201527f6d69736d61746368000000000000000000000000000000000000000000000000606482015260840161067c565b600160a060020a0384166126795760405160e560020a62461bcd02815260040161067c90613fda565b3360005b845181101561276357600085828151811061269a5761269a614344565b6020026020010151905060008583815181106126b8576126b8614344565b60209081029190910181015160008481528083526040808220600160a060020a038e16835290935291909120549091508181101561270b5760405160e560020a62461bcd02815260040161067c90614037565b600083815260208181526040808320600160a060020a038e8116855292528083208585039055908b16825281208054849290612748908490614123565b925050819055505050508061275c90614288565b905061267d565b5084600160a060020a031686600160a060020a031682600160a060020a03167f4a39dc06d4c0dbc64b70af90fd698a233a518aa5d07e595d983b8c0526c8f7fb87876040516127b3929190613f45565b60405180910390a46127c98187878787876130ee565b505050505050565b60006127dd33836105ff565b151592915050565b60038054600160a060020a0383811673ffffffffffffffffffffffffffffffffffffffff19831681179093556040519116919082907f8be0079c531659141344cd1fd0a4f28419497f9722a3daafe3b4186f6b6457e090600090a35050565b81600160a060020a031683600160a060020a031614156128cf5760405160e560020a62461bcd02815260206004820152602960248201527f455243313135353a2073657474696e6720617070726f76616c2073746174757360448201527f20666f722073656c660000000000000000000000000000000000000000000000606482015260840161067c565b600160a060020a03838116600081815260016020908152604080832094871680845294825291829020805460ff191686151590811790915591519182527f17307eab39ab6107e8899845ad3d59bd9653f200f220920489ca2b5937696c31910160405180910390a3505050565b600c5460ff1661295f578061294f61232f565b61295991906142e5565b60095550565b60408051426020808301919091524482840152336c0100000000000000000000000002606083015282516054818403018152607490920190925280519101206129599082906142e5565b60408051600480825260a08201909252606091600091906020820160808036833701905050905060005b60048160ff161015612a325760036009546129ee91906142e5565b6129f990600361413b565b828260ff1681518110612a0e57612a0e614344565b60ff9092166020928302919091019091015280612a2a816142a3565b9150506129d3565b50919050565b600160a060020a038416612ab75760405160e560020a62461bcd02815260206004820152602160248201527f455243313135353a206d696e7420746f20746865207a65726f2061646472657360448201527f7300000000000000000000000000000000000000000000000000000000000000606482015260840161067c565b33612ad181600087612ac88861329d565b6109398861329d565b600084815260208181526040808320600160a060020a038916845290915281208054859290612b01908490614123565b90915550506040805185815260208101859052600160a060020a0380881692600092918516917fc3d58168c5ae7397731d063d5bbf3d657854427343f4c083240f7aacaa2d0f62910160405180910390a4610939816000878787876132e8565b6000828152600d60205260408120548190612b92906c01000000000000000000000000900462ffffff1660016140fc565b6000858152600d6020526040902054612bc991907501000000000000000000000000000000000000000000900462ffffff16614182565b6000848152600d602052604081205462ffffff92831693509091600291612c03916c010000000000000000000000009091041660016140fc565b612c0d9190614160565b6000858152600d6020526040902054612c32919060c060020a900462ffffff16614182565b62ffffff16905080821015612c4c576000925050506106a8565b612c5681836141d1565b925050506106a8565b6000838152600d6020526040902054607860020a900462ffffff168210612cb5576000838152600d60205260409020805471ffffff00000000000000000000000000000019169055612cb0846133e7565b612de9565b6000838152600d6020526040902054612cdb908390607860020a900462ffffff166141ad565b6000848152600d6020526040808220805471ffffff0000000000000000000000000000001916607860020a62ffffff95861681029190911790915587835291205404168110612d54576000848152600d60205260409020805471ffffff00000000000000000000000000000019169055612cb0836133e7565b6000848152600d6020526040902054612d7a908290607860020a900462ffffff166141ad565b6000858152600d60205260409020805462ffffff92909216607860020a0271ffffff0000000000000000000000000000001990921691909117905580821115612dc657612cb0846133e7565b81811115612dd757612cb0836133e7565b612de0846133e7565b612de9836133e7565b6040805185815260208101859052908101839052606081018290527f8c796248b1f953c9c8c0ed19eddf3a98eebe2c84390fe57e75f222dc677a14119060800160405180910390a150505050565b60007f0000000000000000000000000000000000000000000000000000000000000000600160a060020a0316634000aea07f000000000000000000000000000000000000000000000000000000000000000084866000604051602001612ea7929190918252602082015260400190565b60408051601f198184030181529082905260e060020a63ffffffff8616028252612ed5939291600401613eb2565b602060405180830381600087803b158015612eef57600080fd5b505af1158015612f03573d6000803e3d6000fd5b505050506040513d601f19601f82011682018060405250810190612f279190613a39565b50600083815260046020818152604080842054815180840189905280830186905230606082015260808082018390528351808303909101815260a090910190925281519183019190912093879052919052612f83906001614123565b600085815260046020526040902055612fc38482604080516020808201949094528082019290925280518083038201815260609092019052805191012090565b949350505050565b600160a060020a038416612ff45760405160e560020a62461bcd02815260040161067c90613fda565b33613004818787612ac88861329d565b600084815260208181526040808320600160a060020a038a168452909152902054838110156130485760405160e560020a62461bcd02815260040161067c90614037565b600085815260208181526040808320600160a060020a038b8116855292528083208785039055908816825281208054869290613085908490614123565b90915550506040805186815260208101869052600160a060020a03808916928a821692918616917fc3d58168c5ae7397731d063d5bbf3d657854427343f4c083240f7aacaa2d0f62910160405180910390a46130e58288888888886132e8565b50505050505050565b600160a060020a0384163b156127c9576040517fbc197c81000000000000000000000000000000000000000000000000000000008152600160a060020a0385169063bc197c819061314b9089908990889088908890600401613e11565b602060405180830381600087803b15801561316557600080fd5b505af1925050508015613195575060408051601f3d908101601f1916820190925261319291810190613a95565b60015b613251576131a1614376565b806308c379a014156131de57506131b6614396565b806131c157506131e0565b8060405160e560020a62461bcd02815260040161067c9190613f6a565b505b60405160e560020a62461bcd02815260206004820152603460248201527f455243313135353a207472616e7366657220746f206e6f6e204552433131353560448201527f526563656976657220696d706c656d656e746572000000000000000000000000606482015260840161067c565b600160e060020a031981167fbc197c8100000000000000000000000000000000000000000000000000000000146130e55760405160e560020a62461bcd02815260040161067c90613f7d565b604080516001808252818301909252606091600091906020808301908036833701905050905082816000815181106132d7576132d7614344565b602090810291909101015292915050565b600160a060020a0384163b156127c9576040517ff23a6e61000000000000000000000000000000000000000000000000000000008152600160a060020a0385169063f23a6e61906133459089908990889088908890600401613e6f565b602060405180830381600087803b15801561335f57600080fd5b505af192505050801561338f575060408051601f3d908101601f1916820190925261338c91810190613a95565b60015b61339b576131a1614376565b600160e060020a031981167ff23a6e6100000000000000000000000000000000000000000000000000000000146130e55760405160e560020a62461bcd02815260040161067c90613f7d565b6000818152600d6020526040902080546c01000000000000000000000000900462ffffff1690600c6134188361426f565b82546101009290920a62ffffff8181021990931691831602179091556000838152600d60205260409020546134629250600a916c01000000000000000000000000909104166142c3565b62ffffff1661077f576000818152600d6020526040902080546a0100000000000000000000900461ffff1690600a6134998361424d565b91906101000a81548161ffff021916908361ffff16021790555050600a600d600083815260200190815260200160002060010160098282829054906101000a900462ffffff166134e991906140fc565b92506101000a81548162ffffff021916908362ffffff1602179055507f3b7ca85b5e3d1ebb3a81e8d9e27bfeb9ef2f447026c115421132a20b0733b73f81600d6000848152602001908152602001600020600001600a9054906101000a900461ffff1660405161113c92919091825261ffff16602082015260400190565b6040805161020081018252600080825260208201819052918101829052606081018290526080810182905260a0810182905260c0810182905260e08101829052610100810182905261012081018290526101408101829052610160810182905261018081018290526101a08101829052906101c082019081526020016000905290565b8280546135f6906141e8565b90600052602060002090601f016020900481019282613618576000855561365e565b82601f1061363157805160ff191683800117855561365e565b8280016001018555821561365e579182015b8281111561365e578251825591602001919060010190613643565b5061366a92915061366e565b5090565b5b8082111561366a576000815560010161366f565b600067ffffffffffffffff83111561369d5761369d61435d565b6040516136b4601f8501601f191660200182614220565b8091508381528484840111156136c957600080fd5b83836020830137600060208583010152509392505050565b8035600160a060020a03811681146136f857600080fd5b919050565b600082601f83011261370e57600080fd5b8135602061371b826140d8565b6040516137288282614220565b83815282810191508583018385028701840188101561374657600080fd5b60005b8581101561376557813584529284019290840190600101613749565b5090979650505050505050565b600082601f83011261378357600080fd5b61379283833560208501613683565b9392505050565b803562ffffff811681146136f857600080fd5b6000602082840312156137be57600080fd5b613792826136e1565b600080604083850312156137da57600080fd5b6137e3836136e1565b91506137f1602084016136e1565b90509250929050565b600080600080600060a0868803121561381257600080fd5b61381b866136e1565b9450613829602087016136e1565b9350604086013567ffffffffffffffff8082111561384657600080fd5b61385289838a016136fd565b9450606088013591508082111561386857600080fd5b61387489838a016136fd565b9350608088013591508082111561388a57600080fd5b5061389788828901613772565b9150509295509295909350565b600080600080600060a086880312156138bc57600080fd5b6138c5866136e1565b94506138d3602087016136e1565b93506040860135925060608601359150608086013567ffffffffffffffff8111156138fd57600080fd5b61389788828901613772565b6000806040838503121561391c57600080fd5b613925836136e1565b9150602083013561393581614420565b809150509250929050565b6000806040838503121561395357600080fd5b61395c836136e1565b946020939093013593505050565b6000806040838503121561397d57600080fd5b823567ffffffffffffffff8082111561399557600080fd5b818501915085601f8301126139a957600080fd5b813560206139b6826140d8565b6040516139c38282614220565b8381528281019150858301838502870184018b10156139e157600080fd5b600096505b84871015613a0b576139f7816136e1565b8352600196909601959183019183016139e6565b5096505086013592505080821115613a2257600080fd5b50613a2f858286016136fd565b9150509250929050565b600060208284031215613a4b57600080fd5b815161379281614420565b60008060408385031215613a6957600080fd5b50508035926020909101359150565b600060208284031215613a8a57600080fd5b81356137928161442e565b600060208284031215613aa757600080fd5b81516137928161442e565b60008060408385031215613ac557600080fd5b8235613ad081614444565b9150602083013561393581614444565b600060208284031215613af257600080fd5b813567ffffffffffffffff811115613b0957600080fd5b8201601f81018413613b1a57600080fd5b612fc384823560208401613683565b600060208284031215613b3b57600080fd5b61379282613799565b600060208284031215613b5657600080fd5b5035919050565b600060208284031215613b6f57600080fd5b5051919050565b60008060008060008060008060006101208a8c031215613b9557600080fd5b89359850613ba560208b01613799565b9750613bb360408b01613799565b9650613bc160608b01613799565b9550613bcf60808b01613799565b9450613bdd60a08b01613799565b9350613beb60c08b01613799565b9250613bf960e08b01613799565b9150613c086101008b01613799565b90509295985092959850929598565b600060208284031215613c2957600080fd5b813560ff8116811461379257600080fd5b600081518084526020808501945080840160005b83811015613c6a57815187529582019590820190600101613c4e565b509495945050505050565b6000815180845260005b81811015613c9b57602081850181015186830182015201613c7f565b81811115613cad576000602083870101525b50601f01601f19169290920160200192915050565b60038110613ce35760e060020a634e487b7102600052602160045260246000fd5b9052565b805162ffffff1682526020810151613d0a602084018266ffffffffffffff169052565b506040810151613d20604084018261ffff169052565b506060810151613d37606084018262ffffff169052565b506080810151613d4e608084018262ffffff169052565b5060a0810151613d6560a084018262ffffff169052565b5060c0810151613d7c60c084018262ffffff169052565b5060e0810151613d9360e084018262ffffff169052565b506101008181015162ffffff9081169184019190915261012080830151821690840152610140808301518216908401526101608083015182169084015261018080830151909116908301526101a080820151908301526101c080820151613dfc82850182613cc2565b50506101e08082015161232982850182613cc2565b6000600160a060020a03808816835280871660208401525060a06040830152613e3d60a0830186613c3a565b8281036060840152613e4f8186613c3a565b90508281036080840152613e638185613c75565b98975050505050505050565b6000600160a060020a03808816835280871660208401525084604083015283606083015260a06080830152613ea760a0830184613c75565b979650505050505050565b600160a060020a0384168152826020820152606060408201526000613eda6060830184613c75565b95945050505050565b6020808252825182820181905260009190848201906040850190845b81811015613f2657613f12838551613ce7565b928401926102009290920191600101613eff565b50909695505050505050565b6020815260006137926020830184613c3a565b604081526000613f586040830185613c3a565b8281036020840152613eda8185613c3a565b6020815260006137926020830184613c75565b60208082526028908201527f455243313135353a204552433131353552656365697665722072656a6563746560408201527f6420746f6b656e73000000000000000000000000000000000000000000000000606082015260800190565b60208082526025908201527f455243313135353a207472616e7366657220746f20746865207a65726f20616460408201527f6472657373000000000000000000000000000000000000000000000000000000606082015260800190565b6020808252602a908201527f455243313135353a20696e73756666696369656e742062616c616e636520666f60408201527f72207472616e7366657200000000000000000000000000000000000000000000606082015260800190565b6020808252818101527f4f776e61626c653a2063616c6c6572206973206e6f7420746865206f776e6572604082015260600190565b61020081016106a88284613ce7565b600067ffffffffffffffff8211156140f2576140f261435d565b5060209081020190565b600062ffffff80831681851680830382111561411a5761411a6142f9565b01949350505050565b60008219821115614136576141366142f9565b500190565b600060ff821660ff84168060ff03821115614158576141586142f9565b019392505050565b600062ffffff8084168061417657614176614312565b92169190910492915050565b600062ffffff808316818516818304811182151516156141a4576141a46142f9565b02949350505050565b600062ffffff838116908316818110156141c9576141c96142f9565b039392505050565b6000828210156141e3576141e36142f9565b500390565b6002810460018216806141fc57607f821691505b60208210811415612a325760e060020a634e487b7102600052602260045260246000fd5b601f8201601f1916810167ffffffffffffffff811182821017156142465761424661435d565b6040525050565b600061ffff80831681811415614265576142656142f9565b6001019392505050565b600062ffffff80831681811415614265576142656142f9565b600060001982141561429c5761429c6142f9565b5060010190565b600060ff821660ff8114156142ba576142ba6142f9565b60010192915050565b600062ffffff808416806142d9576142d9614312565b92169190910692915050565b6000826142f4576142f4614312565b500690565b60e060020a634e487b7102600052601160045260246000fd5b60e060020a634e487b7102600052601260045260246000fd5b60e060020a634e487b7102600052602160045260246000fd5b60e060020a634e487b7102600052603260045260246000fd5b60e060020a634e487b7102600052604160045260246000fd5b600060033d11156143935760046000803e60e060020a6000510490505b90565b600060443d10156143a45790565b6040516003193d81016004833e81513d67ffffffffffffffff81602484011181841117156143d457505050505090565b82850191508151818111156143ec5750505050505090565b843d87010160208285010111156144065750505050505090565b61441560208286010187614220565b509095945050505050565b801515811461077f57600080fd5b600160e060020a03198116811461077f57600080fd5b6003811061077f57600080fdfea264697066735822122060c38cab7d0e57b4fa5bd5f1d570032b5285f42f0cbf1a25e787f4483137b7a664736f6c63430008070033",
  "immutableReferences": {
    "73": [
      {
        "length": 32,
        "start": 7499
      },
      {
        "length": 32,
        "start": 9068
      },
      {
        "length": 32,
        "start": 11835
      }
    ],
    "75": [
      {
        "length": 32,
        "start": 5599
      },
      {
        "length": 32,
        "start": 11882
      }
    ]
  },
  "source": "// SPDX-License-Identifier: MIT\r\npragma solidity 0.8.7;\r\n\r\nimport \"@openzeppelin/contracts/token/ERC1155/ERC1155.sol\";\r\nimport \"@openzeppelin/contracts/access/Ownable.sol\";\r\nimport \"./RandomNumberGenerator.sol\";\r\n\r\ncontract UnlimitedEvolution is ERC1155, Ownable, RandomNumberGenerator {\r\n\r\n    constructor() ERC1155(\"\") {}\r\n\r\n    function setURI(string memory newuri) external onlyOwner {\r\n        _setURI(newuri);\r\n    }\r\n\r\n    enum type_character { BRUTE, SPIRITUAL, ELEMENTARY }\r\n    enum gender_character { MASCULINE, FEMININE, OTHER }\r\n    uint256 mintFee = 0.001 ether;\r\n    uint256 randomNumber;\r\n    uint24 nextId;\r\n    uint24 limitMint = 4000;\r\n    uint24[] countMints = new uint8[](3);\r\n    bool public testMode;\r\n\r\n    struct Character {\r\n        uint24 id;\r\n        uint56 dna;\r\n        uint16 level;\r\n        uint24 xp;\r\n        uint24 hp;\r\n        uint24 stamina;\r\n        uint24 attack;\r\n        uint24 armor;\r\n        uint24 attack1;\r\n        uint24 attack2;\r\n        uint24 attack3;\r\n        uint24 attack4;\r\n        uint24 attributePoints;\r\n        uint256 lastFight;\r\n        type_character typeCharacter;\r\n        gender_character genderCharacter;\r\n    }\r\n\r\n    mapping(uint256 => Character) private _characterDetails;\r\n    mapping(address => uint8) private _balanceOfCharacters;\r\n\r\n    // Events\r\n    event CharacterCreated(uint256 id);\r\n    // event Healed(uint256 tokenId);\r\n    event Rested(uint256 tokenId);\r\n    event Fighted(uint256 myTokenId, uint256 rivalTokenId, uint256 substrateLifeToRival, uint256 substrateLifeToMe);\r\n    event LevelUp(uint256 tokenId, uint256 level);\r\n    event FeeUpdated(uint256 mintFee);\r\n    event LimitUpdated(uint256 limitMint);\r\n\r\n    function testModeSwitch() external onlyOwner {\r\n        testMode = !testMode;\r\n    }\r\n    \r\n    function updateFee(uint256 _mintFee) external onlyOwner() {\r\n        mintFee = _mintFee;\r\n        emit FeeUpdated(mintFee);\r\n    }\r\n\r\n    function updateLimitMint(uint24 _limitMint) external onlyOwner() {\r\n        limitMint = _limitMint;\r\n        emit LimitUpdated(limitMint);\r\n    }\r\n    \r\n    function withdraw() external onlyOwner() {\r\n        payable(owner()).transfer(address(this).balance);\r\n    }\r\n\r\n    function withdrawLINK(uint256 value) external onlyOwner {\r\n        LINK.transfer(owner(), value);\r\n    }\r\n\r\n    function _ownerOf(uint256 tokenId) private view returns (bool) {\r\n        return balanceOf(msg.sender, tokenId) != 0;\r\n    }\r\n\r\n    function _generateRandomNumber(uint256 _mod) internal {\r\n        if (!testMode) {\r\n            randomNumber = uint256(getRandomNumber()) % _mod;\r\n        } else {\r\n            randomNumber = uint256(keccak256(abi.encodePacked(block.timestamp, block.difficulty, msg.sender))) % _mod;\r\n        }\r\n    }\r\n\r\n    function _attributesMintDistribution() private view returns(uint8[] memory) {\r\n        uint8[] memory _attributes = new uint8[](4);\r\n        for(uint8 i=0; i<4; i++) {\r\n            _attributes[i] = 3 + uint8(randomNumber % 3); // ide nft: la lose ou la win, tu obtiens 0 ou 10 points bonus\r\n        }\r\n        return _attributes;\r\n    }\r\n    \r\n    function _substrateLife(uint256 id1, uint256 id2) private view returns(uint256) {\r\n        uint256 op1 = _characterDetails[id1].attack * (1 + _characterDetails[id1].xp);\r\n        uint256 op2 = _characterDetails[id2].armor * ((1 + _characterDetails[id2].xp) / 2);\r\n        if (op1 < op2) {\r\n            return 0;\r\n        } else {\r\n            return op1 - op2;\r\n        }\r\n    }\r\n\r\n    function _xpLevelUp(uint256 _tokenId) private {\r\n        _characterDetails[_tokenId].xp++;\r\n        if (_characterDetails[_tokenId].xp % 10 == 0) {\r\n            _characterDetails[_tokenId].level++;\r\n            _characterDetails[_tokenId].attributePoints += 10;\r\n            emit LevelUp(_tokenId, _characterDetails[_tokenId].level);\r\n        }\r\n    }\r\n\r\n    function attributesLevelUp(uint256 _tokenId, uint24 _hp, uint24 _stamina, uint24 _attack, uint24 _armor, uint24 _attack1, uint24 _attack2, uint24 _attack3, uint24 _attack4) external {\r\n        uint256 totalPoints = _hp + _stamina + _attack + _armor + _attack1 + _attack2 + _attack3 + _attack4;\r\n        require(_characterDetails[_tokenId].attributePoints == totalPoints, \"Wrong amount of points to attribute\");\r\n        _characterDetails[_tokenId].hp += _hp * 20;\r\n        _characterDetails[_tokenId].stamina += _stamina * 20;\r\n        _characterDetails[_tokenId].attack += _attack;\r\n        _characterDetails[_tokenId].armor += _armor;\r\n        _characterDetails[_tokenId].attack1 += _attack1;\r\n        _characterDetails[_tokenId].attack2 += _attack2;\r\n        _characterDetails[_tokenId].attack3 += _attack3;\r\n        _characterDetails[_tokenId].attack4 += _attack4;\r\n    }\r\n\r\n    function _subtrateLifeOperation(uint256 _myTokenId, uint256 _rivalTokenId, uint256 _substrateLifeToRival, uint256 _substrateLifeToMe) private {\r\n        if(_substrateLifeToRival >= _characterDetails[_rivalTokenId].hp) {\r\n            _characterDetails[_rivalTokenId].hp = 0;\r\n            _xpLevelUp(_myTokenId);\r\n        } else {\r\n            _characterDetails[_rivalTokenId].hp = _characterDetails[_rivalTokenId].hp - uint24(_substrateLifeToRival);\r\n            if(_substrateLifeToMe >= _characterDetails[_myTokenId].hp) {\r\n                _characterDetails[_myTokenId].hp = 0;\r\n                _xpLevelUp(_rivalTokenId);\r\n            } else {\r\n                _characterDetails[_myTokenId].hp = _characterDetails[_myTokenId].hp - uint24(_substrateLifeToMe);\r\n                if (_substrateLifeToRival > _substrateLifeToMe) {\r\n                    _xpLevelUp(_myTokenId);\r\n                } else if (_substrateLifeToMe > _substrateLifeToRival) {\r\n                    _xpLevelUp(_rivalTokenId);\r\n                } else {\r\n                    _xpLevelUp(_myTokenId);\r\n                    _xpLevelUp(_rivalTokenId);\r\n                }\r\n            }\r\n        }\r\n        emit Fighted(_myTokenId, _rivalTokenId, _substrateLifeToRival, _substrateLifeToMe);\r\n    }\r\n\r\n    function createCharacter(type_character _typeCharacter, gender_character _genderCharacter) external payable {\r\n        require(msg.value == mintFee, \"Wrong amount of fees\");\r\n        require(_balanceOfCharacters[msg.sender] < 5, \"You can't have more than 5 NFT\");\r\n        require(countMints[uint8(_typeCharacter)] <= limitMint, \"You cannot mint more character with this class\");\r\n        _generateRandomNumber(10**16);\r\n        uint8[] memory _attributes = _attributesMintDistribution();\r\n        _characterDetails[nextId] = Character(nextId, uint56(randomNumber), 1, 1, 100, 100, 5, 3, _attributes[0], _attributes[1], _attributes[2], _attributes[3], 0, block.timestamp, _typeCharacter, _genderCharacter);\r\n        _balanceOfCharacters[msg.sender]++;\r\n        countMints[uint8(_typeCharacter)]++;\r\n        _mint(msg.sender, nextId, 1, \"\");\r\n        emit CharacterCreated(nextId);\r\n        nextId++;\r\n    }\r\n\r\n    // function heal(uint256 _tokenId) external {\r\n    //     require(_ownerOf(_tokenId), \"You're not the owner of the NFT\");\r\n    //     require(_characterDetails[_tokenId].lastHeal + 60 < block.timestamp, \"To soon to heal (1 min)\");\r\n    //     require(_characterDetails[_tokenId].hp < 100, \"You're character is already healed\");\r\n    //     _characterDetails[_tokenId].lastHeal = block.timestamp;\r\n    //     uint256 tempResult = (_characterDetails[_tokenId].hp).add(50);\r\n    //     if (tempResult > 100) {\r\n    //         _characterDetails[_tokenId].hp = 100;\r\n    //     } else {\r\n    //         _characterDetails[_tokenId].hp = (_characterDetails[_tokenId].hp).add(50);\r\n    //     }\r\n    //     emit Healed(_tokenId);\r\n    // }\r\n\r\n    function rest(uint256 _tokenId) external {\r\n        require(_ownerOf(_tokenId), \"You're not the owner of the NFT\");\r\n        require(_characterDetails[_tokenId].stamina < 100, \"You're character is already rested\");\r\n        _characterDetails[_tokenId].stamina = 100;\r\n        emit Rested(_tokenId);\r\n    }\r\n\r\n    function fight(uint256 _myTokenId, uint256 _rivalTokenId) external {\r\n        require(_ownerOf(_myTokenId), \"You're not the owner of the NFT\");\r\n        require(_ownerOf(_myTokenId) != _ownerOf(_rivalTokenId), \"Your NFTs cannot fight each other\");\r\n        require(_characterDetails[_myTokenId].lastFight + 60 < block.timestamp, \"To soon to fight (1 min)\");\r\n        require(_characterDetails[_myTokenId].stamina >= 10, \"Not enough stamina\");\r\n        require(_characterDetails[_myTokenId].level <= _characterDetails[_rivalTokenId].level, \"Fight someone your own size!\");\r\n        require(_characterDetails[_myTokenId].hp > 0 && _characterDetails[_rivalTokenId].hp > 0, \"One of the NFTs is dead\");\r\n\r\n        _characterDetails[_myTokenId].lastFight = block.timestamp;\r\n        uint256 _substrateLifeToRival = _substrateLife(_myTokenId, _rivalTokenId);\r\n        uint256 _substrateLifeToMe = _substrateLife(_rivalTokenId, _myTokenId);\r\n\r\n        _characterDetails[_myTokenId].stamina = _characterDetails[_myTokenId].stamina - 10;\r\n        _subtrateLifeOperation(_myTokenId, _rivalTokenId, _substrateLifeToRival, _substrateLifeToMe);\r\n    }\r\n    \r\n    // Getters\r\n    function getTokenDetails(uint256 _tokenId) external view returns(Character memory) {\r\n        return _characterDetails[_tokenId];\r\n    }\r\n\r\n    function getMyCharacters() external view returns (Character[] memory){\r\n        uint8 count = 0;\r\n        Character[] memory myCharacters = new Character[](_balanceOfCharacters[msg.sender]);\r\n        for (uint256 i = 0; i < nextId; i++) {\r\n            if (_ownerOf(i)) {\r\n                myCharacters[count] = _characterDetails[i];\r\n                count++;\r\n            }\r\n        }\r\n        return myCharacters;\r\n    }\r\n\r\n    function getOthersCharacters() external view returns (Character[] memory){\r\n        uint256 count = 0;\r\n        Character[] memory othersCharacters = new Character[](nextId - _balanceOfCharacters[msg.sender]);\r\n        for (uint256 i = 0; i < nextId; i++) {\r\n            if (!_ownerOf(i)) {\r\n                othersCharacters[count] = _characterDetails[i];\r\n                count++;\r\n            }\r\n        }\r\n        return othersCharacters;\r\n    }\r\n    \r\n    // // only for TESTS getAllCharacters\r\n    // function getAllCharacters() external view returns (Character[] memory){\r\n    //     Character[] memory allCharacters = new Character[](nextId);\r\n    //     for (uint256 i = 0; i < nextId; i++) {\r\n    //         allCharacters[i] = _characterDetails[i];\r\n    //     }\r\n    //     return allCharacters;\r\n    // }\r\n    function getBalanceOfCharacters(address _address) external view returns(uint8) {\r\n        return _balanceOfCharacters[_address];\r\n    }\r\n\r\n    function getCountMints(uint8 _class) external view returns(uint24) {\r\n        return countMints[_class];\r\n    }\r\n}",
  "sourcePath": "D:\\TAF\\Alyra\\ALYRA_PROJET_FINAL\\unlimited_evolution\\contracts\\UnlimitedEvolution.sol",
  "compiler": {
    "name": "solc",
    "version": "0.8.7+commit.e28d00a7.Emscripten.clang"
  },
  "schemaVersion": "3.4.3",
  "updatedAt": "2022-01-03T16:29:27.320Z",
  "networkType": "ethereum",
  "devdoc": {
    "kind": "dev",
    "methods": {
      "balanceOf(address,uint256)": {
        "details": "See {IERC1155-balanceOf}. Requirements: - `account` cannot be the zero address."
      },
      "balanceOfBatch(address[],uint256[])": {
        "details": "See {IERC1155-balanceOfBatch}. Requirements: - `accounts` and `ids` must have the same length."
      },
      "isApprovedForAll(address,address)": {
        "details": "See {IERC1155-isApprovedForAll}."
      },
      "owner()": {
        "details": "Returns the address of the current owner."
      },
      "renounceOwnership()": {
        "details": "Leaves the contract without owner. It will not be possible to call `onlyOwner` functions anymore. Can only be called by the current owner. NOTE: Renouncing ownership will leave the contract without an owner, thereby removing any functionality that is only available to the owner."
      },
      "safeBatchTransferFrom(address,address,uint256[],uint256[],bytes)": {
        "details": "See {IERC1155-safeBatchTransferFrom}."
      },
      "safeTransferFrom(address,address,uint256,uint256,bytes)": {
        "details": "See {IERC1155-safeTransferFrom}."
      },
      "setApprovalForAll(address,bool)": {
        "details": "See {IERC1155-setApprovalForAll}."
      },
      "supportsInterface(bytes4)": {
        "details": "See {IERC165-supportsInterface}."
      },
      "transferOwnership(address)": {
        "details": "Transfers ownership of the contract to a new account (`newOwner`). Can only be called by the current owner."
      },
      "uri(uint256)": {
        "details": "See {IERC1155MetadataURI-uri}. This implementation returns the same URI for *all* token types. It relies on the token type ID substitution mechanism https://eips.ethereum.org/EIPS/eip-1155#metadata[defined in the EIP]. Clients calling this function must replace the `\\{id\\}` substring with the actual token type ID."
      }
    },
    "version": 1
  },
  "userdoc": {
    "kind": "user",
    "methods": {
      "getRandomNumber()": {
        "notice": "Requests randomness "
      }
    },
    "version": 1
  }
}