{
  "contractName": "UnlimitedToken",
  "abi": [
    {
      "inputs": [],
      "stateMutability": "nonpayable",
      "type": "constructor"
    },
    {
      "anonymous": false,
      "inputs": [
        {
          "indexed": true,
          "internalType": "address",
          "name": "tokenOwner",
          "type": "address"
        },
        {
          "indexed": true,
          "internalType": "address",
          "name": "spender",
          "type": "address"
        },
        {
          "indexed": false,
          "internalType": "uint256",
          "name": "tokens",
          "type": "uint256"
        }
      ],
      "name": "Approval",
      "type": "event"
    },
    {
      "anonymous": false,
      "inputs": [
        {
          "indexed": true,
          "internalType": "address",
          "name": "previousOwner",
          "type": "address"
        },
        {
          "indexed": true,
          "internalType": "address",
          "name": "newOwner",
          "type": "address"
        }
      ],
      "name": "OwnershipTransferred",
      "type": "event"
    },
    {
      "anonymous": false,
      "inputs": [
        {
          "indexed": true,
          "internalType": "address",
          "name": "from",
          "type": "address"
        },
        {
          "indexed": true,
          "internalType": "address",
          "name": "to",
          "type": "address"
        },
        {
          "indexed": false,
          "internalType": "uint256",
          "name": "amount",
          "type": "uint256"
        }
      ],
      "name": "Transfer",
      "type": "event"
    },
    {
      "inputs": [
        {
          "internalType": "address",
          "name": "",
          "type": "address"
        },
        {
          "internalType": "address",
          "name": "",
          "type": "address"
        }
      ],
      "name": "allowance",
      "outputs": [
        {
          "internalType": "uint256",
          "name": "",
          "type": "uint256"
        }
      ],
      "stateMutability": "view",
      "type": "function",
      "constant": true
    },
    {
      "inputs": [
        {
          "internalType": "address",
          "name": "",
          "type": "address"
        }
      ],
      "name": "balanceOf",
      "outputs": [
        {
          "internalType": "uint256",
          "name": "",
          "type": "uint256"
        }
      ],
      "stateMutability": "view",
      "type": "function",
      "constant": true
    },
    {
      "inputs": [],
      "name": "decimals",
      "outputs": [
        {
          "internalType": "uint8",
          "name": "",
          "type": "uint8"
        }
      ],
      "stateMutability": "view",
      "type": "function",
      "constant": true
    },
    {
      "inputs": [],
      "name": "gameContract",
      "outputs": [
        {
          "internalType": "address",
          "name": "",
          "type": "address"
        }
      ],
      "stateMutability": "view",
      "type": "function",
      "constant": true
    },
    {
      "inputs": [
        {
          "internalType": "address",
          "name": "",
          "type": "address"
        }
      ],
      "name": "isAMMPair",
      "outputs": [
        {
          "internalType": "bool",
          "name": "",
          "type": "bool"
        }
      ],
      "stateMutability": "view",
      "type": "function",
      "constant": true
    },
    {
      "inputs": [],
      "name": "name",
      "outputs": [
        {
          "internalType": "string",
          "name": "",
          "type": "string"
        }
      ],
      "stateMutability": "view",
      "type": "function",
      "constant": true
    },
    {
      "inputs": [],
      "name": "owner",
      "outputs": [
        {
          "internalType": "address",
          "name": "",
          "type": "address"
        }
      ],
      "stateMutability": "view",
      "type": "function",
      "constant": true
    },
    {
      "inputs": [],
      "name": "renounceOwnership",
      "outputs": [],
      "stateMutability": "nonpayable",
      "type": "function"
    },
    {
      "inputs": [],
      "name": "symbol",
      "outputs": [
        {
          "internalType": "string",
          "name": "",
          "type": "string"
        }
      ],
      "stateMutability": "view",
      "type": "function",
      "constant": true
    },
    {
      "inputs": [],
      "name": "tax",
      "outputs": [
        {
          "internalType": "uint8",
          "name": "",
          "type": "uint8"
        }
      ],
      "stateMutability": "view",
      "type": "function",
      "constant": true
    },
    {
      "inputs": [],
      "name": "taxWallet",
      "outputs": [
        {
          "internalType": "address",
          "name": "",
          "type": "address"
        }
      ],
      "stateMutability": "view",
      "type": "function",
      "constant": true
    },
    {
      "inputs": [],
      "name": "totalSupply",
      "outputs": [
        {
          "internalType": "uint256",
          "name": "",
          "type": "uint256"
        }
      ],
      "stateMutability": "view",
      "type": "function",
      "constant": true
    },
    {
      "inputs": [
        {
          "internalType": "address",
          "name": "newOwner",
          "type": "address"
        }
      ],
      "name": "transferOwnership",
      "outputs": [],
      "stateMutability": "nonpayable",
      "type": "function"
    },
    {
      "inputs": [
        {
          "internalType": "address",
          "name": "receiver",
          "type": "address"
        },
        {
          "internalType": "uint256",
          "name": "amount",
          "type": "uint256"
        }
      ],
      "name": "levelUpMint",
      "outputs": [],
      "stateMutability": "nonpayable",
      "type": "function"
    },
    {
      "inputs": [
        {
          "internalType": "address",
          "name": "receiver",
          "type": "address"
        },
        {
          "internalType": "uint256",
          "name": "amount",
          "type": "uint256"
        }
      ],
      "name": "transfer",
      "outputs": [],
      "stateMutability": "nonpayable",
      "type": "function"
    },
    {
      "inputs": [
        {
          "internalType": "address",
          "name": "spender",
          "type": "address"
        },
        {
          "internalType": "uint256",
          "name": "tokens",
          "type": "uint256"
        }
      ],
      "name": "approve",
      "outputs": [
        {
          "internalType": "bool",
          "name": "success",
          "type": "bool"
        }
      ],
      "stateMutability": "nonpayable",
      "type": "function"
    },
    {
      "inputs": [
        {
          "internalType": "address",
          "name": "from",
          "type": "address"
        },
        {
          "internalType": "address",
          "name": "to",
          "type": "address"
        },
        {
          "internalType": "uint256",
          "name": "amount",
          "type": "uint256"
        }
      ],
      "name": "transferFrom",
      "outputs": [
        {
          "internalType": "bool",
          "name": "success",
          "type": "bool"
        }
      ],
      "stateMutability": "nonpayable",
      "type": "function"
    },
    {
      "inputs": [
        {
          "internalType": "uint8",
          "name": "_tax",
          "type": "uint8"
        }
      ],
      "name": "setTax",
      "outputs": [],
      "stateMutability": "nonpayable",
      "type": "function"
    },
    {
      "inputs": [
        {
          "internalType": "address",
          "name": "_taxWallet",
          "type": "address"
        }
      ],
      "name": "setTaxWallet",
      "outputs": [],
      "stateMutability": "nonpayable",
      "type": "function"
    },
    {
      "inputs": [
        {
          "internalType": "address",
          "name": "pair",
          "type": "address"
        },
        {
          "internalType": "bool",
          "name": "taxed",
          "type": "bool"
        }
      ],
      "name": "setAMMPair",
      "outputs": [],
      "stateMutability": "nonpayable",
      "type": "function"
    },
    {
      "inputs": [
        {
          "internalType": "address",
          "name": "_gameContract",
          "type": "address"
        }
      ],
      "name": "setGameContract",
      "outputs": [],
      "stateMutability": "nonpayable",
      "type": "function"
    }
  ],
  "bytecode": "0x60c0604052600f60808190527f556e6c696d6974656420546f6b656e000000000000000000000000000000000060a0908152620000409160039190620001b2565b506040805180820190915260038082527f554c54000000000000000000000000000000000000000000000000000000000060209092019182526200008791600491620001b2565b506005805460ff19166012179055348015620000a257600080fd5b50620000c9620000ba64010000000062000108810204565b6401000000006200010c810204565b60055462000102903090620000e39060ff16600a620002a3565b620000f3906301406f4062000372565b6401000000006200015c810204565b62000419565b3390565b60008054600160a060020a03838116600160a060020a0319831681178455604051919092169283917f8be0079c531659141344cd1fd0a4f28419497f9722a3daafe3b4186f6b6457e09190a35050565b600160a060020a03821660008181526001602090815260408083208590556006859055518481527fddf252ad1be2c89b69c2b068fc378daa952ba7f163c4a11628f55a4df523b3ef910160405180910390a35050565b828054620001c09062000394565b90600052602060002090601f016020900481019282620001e457600085556200022f565b82601f10620001ff57805160ff19168380011785556200022f565b828001600101855582156200022f579182015b828111156200022f57825182559160200191906001019062000212565b506200023d92915062000241565b5090565b5b808211156200023d576000815560010162000242565b600181815b808511156200029b5781600019048211156200027d576200027d620003ea565b808516156200028b57918102915b600290940493908002906200025d565b509250929050565b6000620002b460ff841683620002bb565b9392505050565b600082620002cc575060016200036c565b81620002db575060006200036c565b8160018114620002f45760028114620002ff5762000320565b60019150506200036c565b60ff841115620003135762000313620003ea565b8360020a9150506200036c565b5060208310610133831016604e8410600b841016171562000345575081810a6200036c565b62000351838362000258565b8060001904821115620003685762000368620003ea565b0290505b92915050565b60008160001904831182151516156200038f576200038f620003ea565b500290565b600281046001821680620003a957607f821691505b60208210811415620003e4577f4e487b7100000000000000000000000000000000000000000000000000000000600052602260045260246000fd5b50919050565b7f4e487b7100000000000000000000000000000000000000000000000000000000600052601160045260246000fd5b610f2580620004296000396000f3fe608060405234801561001057600080fd5b5060043610610154576000357c010000000000000000000000000000000000000000000000000000000090048063715018a6116100d5578063b0249cc611610099578063b0249cc6146102af578063c202ea4c146102d2578063d3f33009146102e5578063dd62ed3e146102f8578063ea414b2814610323578063f2fde38b1461033657600080fd5b8063715018a61461026e5780638da5cb5b1461027657806395d89b411461028757806399c8d5561461028f578063a9059cbb1461029c57600080fd5b80632d99d32e1161011c5780632d99d32e146101d95780632dc0562d146101ec578063313ce5671461021c578063405ebd4d1461023b57806370a082311461024e57600080fd5b806306fdde0314610159578063095ea7b31461017757806318160ddd1461019a57806323b872dd146101b157806324ff2acc146101c4575b600080fd5b610161610349565b60405161016e9190610d39565b60405180910390f35b61018a610185366004610cec565b6103d7565b604051901515815260200161016e565b6101a360065481565b60405190815260200161016e565b61018a6101bf366004610c74565b610443565b6101d76101d2366004610cec565b610605565b005b6101d76101e7366004610cb0565b6106a7565b600754610204906101009004600160a060020a031681565b604051600160a060020a03909116815260200161016e565b6005546102299060ff1681565b60405160ff909116815260200161016e565b6101d7610249366004610c1f565b6106ff565b6101a361025c366004610c1f565b60016020526000908152604090205481565b6101d761075b565b600054600160a060020a0316610204565b610161610794565b6007546102299060ff1681565b6101d76102aa366004610cec565b6107a1565b61018a6102bd366004610c1f565b60086020526000908152604090205460ff1681565b6101d76102e0366004610d16565b610812565b60095461020490600160a060020a031681565b6101a3610306366004610c41565b600260209081526000928352604080842090915290825290205481565b6101d7610331366004610c1f565b6108ac565b6101d7610344366004610c1f565b61090e565b6003805461035690610e4c565b80601f016020809104026020016040519081016040528092919081815260200182805461038290610e4c565b80156103cf5780601f106103a4576101008083540402835291602001916103cf565b820191906000526020600020905b8154815290600101906020018083116103b257829003601f168201915b505050505081565b336000818152600260209081526040808320600160a060020a038716808552925280832085905551919290917f8c5be1e5ebec7d5bd14f71427d1e84f3dd0314c0f7b2291e5b200ac8c7c3b925906104329086815260200190565b60405180910390a350600192915050565b600160a060020a03831660009081526002602090815260408083203384529091528120548211156104e45760405160e560020a62461bcd02815260206004820152602760248201527f596f75206172656e277420616c6c6f77656420746f207370656e64207468697360448201527f20616d6f756e740000000000000000000000000000000000000000000000000060648201526084015b60405180910390fd5b600160a060020a03841660009081526001602052604090205482111561054f5760405160e560020a62461bcd02815260206004820152601460248201527f496e73756666696369656e742062616c616e636500000000000000000000000060448201526064016104db565b600160a060020a038416600090815260026020908152604080832033845290915281208054849290610582908490610e35565b909155505060075460ff166105a15761059c8484846109c6565b6105fb565b600160a060020a03841660009081526008602052604090205460ff16806105e05750600160a060020a03831660009081526008602052604090205460ff165b156105f05761059c848484610a62565b6105fb8484846109c6565b5060019392505050565b600954600160a060020a0316331461061c57600080fd5b61062e81670de0b6b3a7640000610e16565b600160a060020a03831660009081526001602052604081208054909190610656908490610dc3565b92505081905550806006600082825461066f9190610dc3565b9091555050604051818152600160a060020a03831690600090600080516020610ed08339815191529060200160405180910390a35050565b600054600160a060020a031633146106d45760405160e560020a62461bcd0281526004016104db90610d8e565b600160a060020a03919091166000908152600860205260409020805460ff1916911515919091179055565b600054600160a060020a0316331461072c5760405160e560020a62461bcd0281526004016104db90610d8e565b6009805473ffffffffffffffffffffffffffffffffffffffff1916600160a060020a0392909216919091179055565b600054600160a060020a031633146107885760405160e560020a62461bcd0281526004016104db90610d8e565b6107926000610ba6565b565b6004805461035690610e4c565b336000908152600160205260409020548111156108035760405160e560020a62461bcd02815260206004820152601560248201527f496e73756666696369656e742062616c616e63652e000000000000000000000060448201526064016104db565b61080e3383836109c6565b5050565b600054600160a060020a0316331461083f5760405160e560020a62461bcd0281526004016104db90610d8e565b60058160ff1611156108965760405160e560020a62461bcd02815260206004820152601d60248201527f746178206d757374206265206265747765656e203020616e642035202500000060448201526064016104db565b6007805460ff191660ff92909216919091179055565b600054600160a060020a031633146108d95760405160e560020a62461bcd0281526004016104db90610d8e565b60078054600160a060020a039092166101000274ffffffffffffffffffffffffffffffffffffffff0019909216919091179055565b600054600160a060020a0316331461093b5760405160e560020a62461bcd0281526004016104db90610d8e565b600160a060020a0381166109ba5760405160e560020a62461bcd02815260206004820152602660248201527f4f776e61626c653a206e6577206f776e657220697320746865207a65726f206160448201527f646472657373000000000000000000000000000000000000000000000000000060648201526084016104db565b6109c381610ba6565b50565b600160a060020a038316600090815260016020526040812080548392906109ee908490610e35565b9091555050600160a060020a03821660009081526001602052604081208054839290610a1b908490610dc3565b9250508190555081600160a060020a031683600160a060020a0316600080516020610ed083398151915283604051610a5591815260200190565b60405180910390a3505050565b600754600090606490610a789060ff1684610e16565b610a829190610ddb565b90506000610a908284610e35565b600160a060020a038616600090815260016020526040812080549293508592909190610abd908490610e35565b90915550506007546101009004600160a060020a031660009081526001602052604081208054849290610af1908490610dc3565b9091555050600160a060020a03841660009081526001602052604081208054839290610b1e908490610dc3565b9250508190555083600160a060020a031685600160a060020a0316600080516020610ed083398151915283604051610b5891815260200190565b60405180910390a3600754604051600160a060020a03610100909204821691871690600080516020610ed083398151915290610b979086815260200190565b60405180910390a35050505050565b60008054600160a060020a0383811673ffffffffffffffffffffffffffffffffffffffff19831681178455604051919092169283917f8be0079c531659141344cd1fd0a4f28419497f9722a3daafe3b4186f6b6457e09190a35050565b8035600160a060020a0381168114610c1a57600080fd5b919050565b600060208284031215610c3157600080fd5b610c3a82610c03565b9392505050565b60008060408385031215610c5457600080fd5b610c5d83610c03565b9150610c6b60208401610c03565b90509250929050565b600080600060608486031215610c8957600080fd5b610c9284610c03565b9250610ca060208501610c03565b9150604084013590509250925092565b60008060408385031215610cc357600080fd5b610ccc83610c03565b915060208301358015158114610ce157600080fd5b809150509250929050565b60008060408385031215610cff57600080fd5b610d0883610c03565b946020939093013593505050565b600060208284031215610d2857600080fd5b813560ff81168114610c3a57600080fd5b600060208083528351808285015260005b81811015610d6657858101830151858201604001528201610d4a565b81811115610d78576000604083870101525b50601f01601f1916929092016040019392505050565b6020808252818101527f4f776e61626c653a2063616c6c6572206973206e6f7420746865206f776e6572604082015260600190565b60008219821115610dd657610dd6610ea0565b500190565b600082610e11577f4e487b7100000000000000000000000000000000000000000000000000000000600052601260045260246000fd5b500490565b6000816000190483118215151615610e3057610e30610ea0565b500290565b600082821015610e4757610e47610ea0565b500390565b600281046001821680610e6057607f821691505b60208210811415610e9a577f4e487b7100000000000000000000000000000000000000000000000000000000600052602260045260246000fd5b50919050565b7f4e487b7100000000000000000000000000000000000000000000000000000000600052601160045260246000fdfeddf252ad1be2c89b69c2b068fc378daa952ba7f163c4a11628f55a4df523b3efa264697066735822122007e34cd4906fbeaafcd7225200f9890f1707107d62fda59e5dce40f554dc66c064736f6c63430008070033",
  "immutableReferences": {},
  "source": "// SPDX-License-Identifier: GPL-3.0\r\npragma solidity 0.8.7;\r\nimport \"@openzeppelin/contracts/access/Ownable.sol\";\r\n\r\n/** @title Unlimited Token */\r\ncontract UnlimitedToken is Ownable {\r\n\r\n    /**\r\n     * @dev ERC20 parameters\r\n     */\r\n    mapping (address => uint) public balanceOf;\r\n    mapping (address => mapping (address => uint256)) public allowance;\r\n\r\n    string public name = \"Unlimited Token\";\r\n    string public symbol = \"ULT\";\r\n    uint8 public decimals = 18;\r\n    uint256 public totalSupply;\r\n\r\n    /**\r\n     * @dev Custom parameters to have a tax in swaps \r\n     */\r\n    uint8 public tax;\r\n    address public taxWallet;\r\n    mapping (address => bool) public isAMMPair;\r\n\r\n    /**\r\n     * @dev The only address allowed to mint tokens (on level up)\r\n     */\r\n    address public gameContract;\r\n\r\n    /**\r\n     * @dev Emitted when a token transfer happens\r\n     */\r\n    event Transfer (address indexed from, address indexed to, uint amount);\r\n\r\n    /**\r\n     * @dev Emitted when an approval happens\r\n     */\r\n    event Approval (address indexed tokenOwner, address indexed spender, uint tokens);\r\n\r\n    /**\r\n     * @dev Constructor of the ERC20, first mint of 21M to token deployer\r\n     */\r\n    constructor(){\r\n        firstMint(address(this), 21*10**6*10**decimals);\r\n    }\r\n\r\n     /**\r\n     * @dev The function to mint the first tokens of deployment\r\n     * @param receiver Address to receive the mint\r\n     * @param amount The quantity of token to mint\r\n     */\r\n    function firstMint(address receiver, uint amount) private {\r\n        balanceOf[receiver] = amount;\r\n        totalSupply = amount;\r\n        \r\n        emit Transfer(address(0), receiver, amount);\r\n    }\r\n\r\n    /**\r\n     * @dev When a level up happens in game contract, a mint is triggered\r\n     * @param receiver Address to receive the mint\r\n     * @param amount The quantity of token to mint \r\n     */\r\n    function levelUpMint(address receiver, uint amount) external {\r\n        require(msg.sender==gameContract);\r\n        \r\n        balanceOf[receiver] += amount*10**18;\r\n        totalSupply += amount;\r\n        \r\n        emit Transfer(address(0), receiver, amount);\r\n    }\r\n\r\n    // ERC-20 //\r\n\r\n    /**\r\n     * @dev Transfer tokens to an address\r\n     * @param receiver Address to receive the tokens\r\n     * @param amount The quantity of token to send\r\n     */\r\n    function transfer(address receiver, uint amount) external {\r\n        require(balanceOf[msg.sender]>=amount, \"Insufficient balance.\");\r\n        \r\n        transferWithoutTax(msg.sender,receiver,amount);\r\n    }\r\n\r\n    /**\r\n     * @dev Allow an address to spend the tokens\r\n     * @param spender The address allowed to spend tokens\r\n     * @param tokens How many tokens the address can spend\r\n     */\r\n    function approve(address spender, uint tokens) external returns (bool success) {\r\n        allowance[msg.sender][spender] = tokens;\r\n        \r\n        emit Approval(msg.sender, spender, tokens);\r\n        return true;\r\n    }\r\n    \r\n    /**\r\n     * @dev Transfer from an address to another if allowed\r\n     * @param from The origin of the tokens\r\n     * @param to The destination of the tokens\r\n     * @param amount The amount of tokens to move\r\n     */\r\n    function transferFrom(address from, address to, uint256 amount) external returns (bool success) {\r\n        require(allowance[from][msg.sender]>= amount, \"You aren't allowed to spend this amount\");\r\n        require(balanceOf[from]>=amount, \"Insufficient balance\");\r\n        \r\n        allowance[from][msg.sender] -= amount;\r\n        \r\n        if (tax==0){\r\n            transferWithoutTax(from,to,amount);\r\n        }\r\n        else{\r\n            if (isAMMPair[from] || isAMMPair[to]){\r\n                transferWithTax(from,to,amount);\r\n            }\r\n            else{\r\n                transferWithoutTax(from,to,amount);\r\n            }\r\n        }\r\n        return true;\r\n    }\r\n\r\n    /**\r\n     * @dev Transfer from an address to another if allowed, without any tax\r\n     * @param from The origin of the tokens\r\n     * @param to The destination of the tokens\r\n     * @param amount The amount of tokens to move\r\n     */\r\n    function transferWithoutTax(address from, address to, uint256 amount) private{\r\n        balanceOf[from] -= amount;\r\n        balanceOf[to] += amount;\r\n        \r\n        emit Transfer(from, to, amount);\r\n    }\r\n\r\n    /**\r\n     * @dev Transfer from an address to another if allowed, with a tax if from/to an AMM pair\r\n     * @param from The origin of the tokens\r\n     * @param to The destination of the tokens\r\n     * @param amount The amount of tokens to move\r\n     */\r\n    function transferWithTax(address from, address to, uint256 amount) private{\r\n        uint taxed=amount*tax/100;\r\n        uint notTaxed=amount-taxed;\r\n        \r\n        balanceOf[from] -= amount;\r\n        balanceOf[taxWallet] += taxed;\r\n        balanceOf[to] += notTaxed;\r\n        \r\n        emit Transfer(from, to, notTaxed);\r\n        emit Transfer(from, taxWallet, taxed);\r\n    }\r\n    \r\n    // Owner parameters //\r\n\r\n    /**\r\n     * @dev The tax in % taken in each buy or sell\r\n     * @param _tax The new tax in %, from 0 to 5 allowed\r\n     */\r\n    function setTax(uint8 _tax) external onlyOwner{\r\n        require(_tax>=0 && _tax<=5,\"tax must be between 0 and 5 %\");\r\n        tax=_tax;\r\n    }\r\n\r\n    /**\r\n     * @dev The wallet that will receive the tax\r\n     * @param _taxWallet The address of the new wallet \r\n     */\r\n    function setTaxWallet(address _taxWallet) external onlyOwner{\r\n        taxWallet=_taxWallet;\r\n    }\r\n\r\n    /**\r\n     * @dev Define an address as an AMM pair to tax it\r\n     * @param pair Define the address of the AMM pair\r\n     * @param taxed Define if this address should be taxed or not\r\n     */\r\n    function setAMMPair(address pair, bool taxed) external onlyOwner{\r\n        isAMMPair[pair]=taxed;\r\n    }\r\n    \r\n    /**\r\n     * @dev Define the main contract of the game\r\n     * @param _gameContract The new contract of the game if any update in the futur\r\n     */\r\n    function setGameContract(address _gameContract) external onlyOwner{\r\n        gameContract=_gameContract;\r\n    }\r\n}\r\n",
  "sourcePath": "D:\\TAF\\Alyra\\ALYRA_PROJET_FINAL\\unlimited_evolution\\contracts\\UnlimitedToken.sol",
  "compiler": {
    "name": "solc",
    "version": "0.8.7+commit.e28d00a7.Emscripten.clang"
  },
  "schemaVersion": "3.4.3",
  "updatedAt": "2022-01-16T12:22:31.354Z",
  "networkType": "ethereum",
  "devdoc": {
    "events": {
      "Approval(address,address,uint256)": {
        "details": "Emitted when an approval happens"
      },
      "Transfer(address,address,uint256)": {
        "details": "Emitted when a token transfer happens"
      }
    },
    "kind": "dev",
    "methods": {
      "approve(address,uint256)": {
        "details": "Allow an address to spend the tokens",
        "params": {
          "spender": "The address allowed to spend tokens",
          "tokens": "How many tokens the address can spend"
        }
      },
      "constructor": {
        "details": "Constructor of the ERC20, first mint of 21M to token deployer"
      },
      "levelUpMint(address,uint256)": {
        "details": "When a level up happens in game contract, a mint is triggered",
        "params": {
          "amount": "The quantity of token to mint ",
          "receiver": "Address to receive the mint"
        }
      },
      "owner()": {
        "details": "Returns the address of the current owner."
      },
      "renounceOwnership()": {
        "details": "Leaves the contract without owner. It will not be possible to call `onlyOwner` functions anymore. Can only be called by the current owner. NOTE: Renouncing ownership will leave the contract without an owner, thereby removing any functionality that is only available to the owner."
      },
      "setAMMPair(address,bool)": {
        "details": "Define an address as an AMM pair to tax it",
        "params": {
          "pair": "Define the address of the AMM pair",
          "taxed": "Define if this address should be taxed or not"
        }
      },
      "setGameContract(address)": {
        "details": "Define the main contract of the game",
        "params": {
          "_gameContract": "The new contract of the game if any update in the futur"
        }
      },
      "setTax(uint8)": {
        "details": "The tax in % taken in each buy or sell",
        "params": {
          "_tax": "The new tax in %, from 0 to 5 allowed"
        }
      },
      "setTaxWallet(address)": {
        "details": "The wallet that will receive the tax",
        "params": {
          "_taxWallet": "The address of the new wallet "
        }
      },
      "transfer(address,uint256)": {
        "details": "Transfer tokens to an address",
        "params": {
          "amount": "The quantity of token to send",
          "receiver": "Address to receive the tokens"
        }
      },
      "transferFrom(address,address,uint256)": {
        "details": "Transfer from an address to another if allowed",
        "params": {
          "amount": "The amount of tokens to move",
          "from": "The origin of the tokens",
          "to": "The destination of the tokens"
        }
      },
      "transferOwnership(address)": {
        "details": "Transfers ownership of the contract to a new account (`newOwner`). Can only be called by the current owner."
      }
    },
    "stateVariables": {
      "balanceOf": {
        "details": "ERC20 parameters"
      },
      "gameContract": {
        "details": "The only address allowed to mint tokens (on level up)"
      },
      "tax": {
        "details": "Custom parameters to have a tax in swaps "
      }
    },
    "title": "Unlimited Token ",
    "version": 1
  },
  "userdoc": {
    "kind": "user",
    "methods": {},
    "version": 1
  }
}