{
  "contractName": "UnlimitedEvolution",
  "abi": [
    {
      "inputs": [
        {
          "internalType": "contract UnlimitedToken",
          "name": "_unlimitedTokenAddress",
          "type": "address"
        }
      ],
      "stateMutability": "nonpayable",
      "type": "constructor"
    },
    {
      "anonymous": false,
      "inputs": [
        {
          "indexed": true,
          "internalType": "address",
          "name": "account",
          "type": "address"
        },
        {
          "indexed": true,
          "internalType": "address",
          "name": "operator",
          "type": "address"
        },
        {
          "indexed": false,
          "internalType": "bool",
          "name": "approved",
          "type": "bool"
        }
      ],
      "name": "ApprovalForAll",
      "type": "event"
    },
    {
      "anonymous": false,
      "inputs": [
        {
          "indexed": false,
          "internalType": "uint24",
          "name": "id",
          "type": "uint24"
        }
      ],
      "name": "CharacterCreated",
      "type": "event"
    },
    {
      "anonymous": false,
      "inputs": [
        {
          "indexed": false,
          "internalType": "uint24",
          "name": "myTokenId",
          "type": "uint24"
        },
        {
          "indexed": false,
          "internalType": "uint24",
          "name": "rivalTokenId",
          "type": "uint24"
        },
        {
          "indexed": false,
          "internalType": "uint256",
          "name": "substrateLifeToRival",
          "type": "uint256"
        },
        {
          "indexed": false,
          "internalType": "uint256",
          "name": "substrateLifeToMe",
          "type": "uint256"
        }
      ],
      "name": "Fighted",
      "type": "event"
    },
    {
      "anonymous": false,
      "inputs": [
        {
          "indexed": false,
          "internalType": "uint24",
          "name": "tokenId",
          "type": "uint24"
        },
        {
          "indexed": false,
          "internalType": "uint16",
          "name": "level",
          "type": "uint16"
        }
      ],
      "name": "LevelUp",
      "type": "event"
    },
    {
      "anonymous": false,
      "inputs": [
        {
          "indexed": false,
          "internalType": "uint24",
          "name": "limitMint",
          "type": "uint24"
        }
      ],
      "name": "LimitUpdated",
      "type": "event"
    },
    {
      "anonymous": false,
      "inputs": [
        {
          "indexed": false,
          "internalType": "uint256",
          "name": "mintFee",
          "type": "uint256"
        }
      ],
      "name": "MintFeeUpdated",
      "type": "event"
    },
    {
      "anonymous": false,
      "inputs": [
        {
          "indexed": true,
          "internalType": "address",
          "name": "previousOwner",
          "type": "address"
        },
        {
          "indexed": true,
          "internalType": "address",
          "name": "newOwner",
          "type": "address"
        }
      ],
      "name": "OwnershipTransferred",
      "type": "event"
    },
    {
      "anonymous": false,
      "inputs": [
        {
          "indexed": false,
          "internalType": "uint24",
          "name": "tokenId",
          "type": "uint24"
        }
      ],
      "name": "PotionUsed",
      "type": "event"
    },
    {
      "anonymous": false,
      "inputs": [
        {
          "indexed": false,
          "internalType": "uint24",
          "name": "tokenId",
          "type": "uint24"
        }
      ],
      "name": "Rested",
      "type": "event"
    },
    {
      "anonymous": false,
      "inputs": [
        {
          "indexed": false,
          "internalType": "uint8",
          "name": "stuffId",
          "type": "uint8"
        }
      ],
      "name": "StuffBought",
      "type": "event"
    },
    {
      "anonymous": false,
      "inputs": [
        {
          "indexed": false,
          "internalType": "uint24",
          "name": "tokenId",
          "type": "uint24"
        },
        {
          "indexed": false,
          "internalType": "uint8",
          "name": "stuffId",
          "type": "uint8"
        }
      ],
      "name": "StuffEquiped",
      "type": "event"
    },
    {
      "anonymous": false,
      "inputs": [
        {
          "indexed": false,
          "internalType": "uint256",
          "name": "stuffFee",
          "type": "uint256"
        }
      ],
      "name": "StuffFeeUpdated",
      "type": "event"
    },
    {
      "anonymous": false,
      "inputs": [
        {
          "indexed": true,
          "internalType": "address",
          "name": "operator",
          "type": "address"
        },
        {
          "indexed": true,
          "internalType": "address",
          "name": "from",
          "type": "address"
        },
        {
          "indexed": true,
          "internalType": "address",
          "name": "to",
          "type": "address"
        },
        {
          "indexed": false,
          "internalType": "uint256[]",
          "name": "ids",
          "type": "uint256[]"
        },
        {
          "indexed": false,
          "internalType": "uint256[]",
          "name": "values",
          "type": "uint256[]"
        }
      ],
      "name": "TransferBatch",
      "type": "event"
    },
    {
      "anonymous": false,
      "inputs": [
        {
          "indexed": true,
          "internalType": "address",
          "name": "operator",
          "type": "address"
        },
        {
          "indexed": true,
          "internalType": "address",
          "name": "from",
          "type": "address"
        },
        {
          "indexed": true,
          "internalType": "address",
          "name": "to",
          "type": "address"
        },
        {
          "indexed": false,
          "internalType": "uint256",
          "name": "id",
          "type": "uint256"
        },
        {
          "indexed": false,
          "internalType": "uint256",
          "name": "value",
          "type": "uint256"
        }
      ],
      "name": "TransferSingle",
      "type": "event"
    },
    {
      "anonymous": false,
      "inputs": [
        {
          "indexed": false,
          "internalType": "string",
          "name": "value",
          "type": "string"
        },
        {
          "indexed": true,
          "internalType": "uint256",
          "name": "id",
          "type": "uint256"
        }
      ],
      "name": "URI",
      "type": "event"
    },
    {
      "inputs": [
        {
          "internalType": "address",
          "name": "account",
          "type": "address"
        },
        {
          "internalType": "uint256",
          "name": "id",
          "type": "uint256"
        }
      ],
      "name": "balanceOf",
      "outputs": [
        {
          "internalType": "uint256",
          "name": "",
          "type": "uint256"
        }
      ],
      "stateMutability": "view",
      "type": "function"
    },
    {
      "inputs": [
        {
          "internalType": "address[]",
          "name": "accounts",
          "type": "address[]"
        },
        {
          "internalType": "uint256[]",
          "name": "ids",
          "type": "uint256[]"
        }
      ],
      "name": "balanceOfBatch",
      "outputs": [
        {
          "internalType": "uint256[]",
          "name": "",
          "type": "uint256[]"
        }
      ],
      "stateMutability": "view",
      "type": "function"
    },
    {
      "inputs": [],
      "name": "getRandomNumber",
      "outputs": [
        {
          "internalType": "bytes32",
          "name": "requestId",
          "type": "bytes32"
        }
      ],
      "stateMutability": "nonpayable",
      "type": "function"
    },
    {
      "inputs": [
        {
          "internalType": "address",
          "name": "account",
          "type": "address"
        },
        {
          "internalType": "address",
          "name": "operator",
          "type": "address"
        }
      ],
      "name": "isApprovedForAll",
      "outputs": [
        {
          "internalType": "bool",
          "name": "",
          "type": "bool"
        }
      ],
      "stateMutability": "view",
      "type": "function"
    },
    {
      "inputs": [
        {
          "internalType": "address",
          "name": "",
          "type": "address"
        },
        {
          "internalType": "address",
          "name": "",
          "type": "address"
        },
        {
          "internalType": "uint256[]",
          "name": "",
          "type": "uint256[]"
        },
        {
          "internalType": "uint256[]",
          "name": "",
          "type": "uint256[]"
        },
        {
          "internalType": "bytes",
          "name": "",
          "type": "bytes"
        }
      ],
      "name": "onERC1155BatchReceived",
      "outputs": [
        {
          "internalType": "bytes4",
          "name": "",
          "type": "bytes4"
        }
      ],
      "stateMutability": "nonpayable",
      "type": "function"
    },
    {
      "inputs": [
        {
          "internalType": "address",
          "name": "",
          "type": "address"
        },
        {
          "internalType": "address",
          "name": "",
          "type": "address"
        },
        {
          "internalType": "uint256",
          "name": "",
          "type": "uint256"
        },
        {
          "internalType": "uint256",
          "name": "",
          "type": "uint256"
        },
        {
          "internalType": "bytes",
          "name": "",
          "type": "bytes"
        }
      ],
      "name": "onERC1155Received",
      "outputs": [
        {
          "internalType": "bytes4",
          "name": "",
          "type": "bytes4"
        }
      ],
      "stateMutability": "nonpayable",
      "type": "function"
    },
    {
      "inputs": [],
      "name": "owner",
      "outputs": [
        {
          "internalType": "address",
          "name": "",
          "type": "address"
        }
      ],
      "stateMutability": "view",
      "type": "function"
    },
    {
      "inputs": [],
      "name": "randomResult",
      "outputs": [
        {
          "internalType": "uint256",
          "name": "",
          "type": "uint256"
        }
      ],
      "stateMutability": "view",
      "type": "function"
    },
    {
      "inputs": [
        {
          "internalType": "bytes32",
          "name": "requestId",
          "type": "bytes32"
        },
        {
          "internalType": "uint256",
          "name": "randomness",
          "type": "uint256"
        }
      ],
      "name": "rawFulfillRandomness",
      "outputs": [],
      "stateMutability": "nonpayable",
      "type": "function"
    },
    {
      "inputs": [],
      "name": "renounceOwnership",
      "outputs": [],
      "stateMutability": "nonpayable",
      "type": "function"
    },
    {
      "inputs": [
        {
          "internalType": "address",
          "name": "from",
          "type": "address"
        },
        {
          "internalType": "address",
          "name": "to",
          "type": "address"
        },
        {
          "internalType": "uint256[]",
          "name": "ids",
          "type": "uint256[]"
        },
        {
          "internalType": "uint256[]",
          "name": "amounts",
          "type": "uint256[]"
        },
        {
          "internalType": "bytes",
          "name": "data",
          "type": "bytes"
        }
      ],
      "name": "safeBatchTransferFrom",
      "outputs": [],
      "stateMutability": "nonpayable",
      "type": "function"
    },
    {
      "inputs": [
        {
          "internalType": "address",
          "name": "from",
          "type": "address"
        },
        {
          "internalType": "address",
          "name": "to",
          "type": "address"
        },
        {
          "internalType": "uint256",
          "name": "id",
          "type": "uint256"
        },
        {
          "internalType": "uint256",
          "name": "amount",
          "type": "uint256"
        },
        {
          "internalType": "bytes",
          "name": "data",
          "type": "bytes"
        }
      ],
      "name": "safeTransferFrom",
      "outputs": [],
      "stateMutability": "nonpayable",
      "type": "function"
    },
    {
      "inputs": [
        {
          "internalType": "address",
          "name": "operator",
          "type": "address"
        },
        {
          "internalType": "bool",
          "name": "approved",
          "type": "bool"
        }
      ],
      "name": "setApprovalForAll",
      "outputs": [],
      "stateMutability": "nonpayable",
      "type": "function"
    },
    {
      "inputs": [],
      "name": "testMode",
      "outputs": [
        {
          "internalType": "bool",
          "name": "",
          "type": "bool"
        }
      ],
      "stateMutability": "view",
      "type": "function"
    },
    {
      "inputs": [
        {
          "internalType": "address",
          "name": "newOwner",
          "type": "address"
        }
      ],
      "name": "transferOwnership",
      "outputs": [],
      "stateMutability": "nonpayable",
      "type": "function"
    },
    {
      "inputs": [],
      "name": "unlimitedToken",
      "outputs": [
        {
          "internalType": "contract UnlimitedToken",
          "name": "",
          "type": "address"
        }
      ],
      "stateMutability": "view",
      "type": "function"
    },
    {
      "inputs": [
        {
          "internalType": "uint256",
          "name": "",
          "type": "uint256"
        }
      ],
      "name": "uri",
      "outputs": [
        {
          "internalType": "string",
          "name": "",
          "type": "string"
        }
      ],
      "stateMutability": "view",
      "type": "function"
    },
    {
      "inputs": [
        {
          "internalType": "bytes4",
          "name": "interfaceId",
          "type": "bytes4"
        }
      ],
      "name": "supportsInterface",
      "outputs": [
        {
          "internalType": "bool",
          "name": "",
          "type": "bool"
        }
      ],
      "stateMutability": "view",
      "type": "function"
    },
    {
      "inputs": [
        {
          "internalType": "address",
          "name": "_tokenAddress",
          "type": "address"
        }
      ],
      "name": "setTokenAddress",
      "outputs": [],
      "stateMutability": "nonpayable",
      "type": "function"
    },
    {
      "inputs": [
        {
          "internalType": "uint256",
          "name": "_mintFee",
          "type": "uint256"
        }
      ],
      "name": "updateMintFee",
      "outputs": [],
      "stateMutability": "nonpayable",
      "type": "function"
    },
    {
      "inputs": [
        {
          "internalType": "uint256",
          "name": "_stuffFee",
          "type": "uint256"
        }
      ],
      "name": "updateStuffFee",
      "outputs": [],
      "stateMutability": "nonpayable",
      "type": "function"
    },
    {
      "inputs": [
        {
          "internalType": "uint24",
          "name": "_limitMint",
          "type": "uint24"
        }
      ],
      "name": "updateLimitMint",
      "outputs": [],
      "stateMutability": "nonpayable",
      "type": "function"
    },
    {
      "inputs": [],
      "name": "withdraw",
      "outputs": [],
      "stateMutability": "nonpayable",
      "type": "function"
    },
    {
      "inputs": [
        {
          "internalType": "uint256",
          "name": "value",
          "type": "uint256"
        }
      ],
      "name": "withdrawLINK",
      "outputs": [],
      "stateMutability": "nonpayable",
      "type": "function"
    },
    {
      "inputs": [
        {
          "internalType": "uint256",
          "name": "amount",
          "type": "uint256"
        },
        {
          "internalType": "uint8",
          "name": "bonusAttack1",
          "type": "uint8"
        },
        {
          "internalType": "uint8",
          "name": "bonusAttack2",
          "type": "uint8"
        },
        {
          "internalType": "uint8",
          "name": "bonusDefence1",
          "type": "uint8"
        },
        {
          "internalType": "uint8",
          "name": "bonusDefence2",
          "type": "uint8"
        },
        {
          "internalType": "enum UnlimitedEvolution.type_stuff",
          "name": "typeStuff",
          "type": "uint8"
        }
      ],
      "name": "createStuff",
      "outputs": [],
      "stateMutability": "nonpayable",
      "type": "function"
    },
    {
      "inputs": [
        {
          "internalType": "uint8",
          "name": "stuffId",
          "type": "uint8"
        },
        {
          "internalType": "uint256",
          "name": "amount",
          "type": "uint256"
        },
        {
          "internalType": "uint8",
          "name": "bonusAttack1",
          "type": "uint8"
        },
        {
          "internalType": "uint8",
          "name": "bonusAttack2",
          "type": "uint8"
        },
        {
          "internalType": "uint8",
          "name": "bonusDefence1",
          "type": "uint8"
        },
        {
          "internalType": "uint8",
          "name": "bonusDefence2",
          "type": "uint8"
        },
        {
          "internalType": "enum UnlimitedEvolution.type_stuff",
          "name": "typeStuff",
          "type": "uint8"
        }
      ],
      "name": "manageStuff",
      "outputs": [],
      "stateMutability": "nonpayable",
      "type": "function"
    },
    {
      "inputs": [
        {
          "internalType": "uint24",
          "name": "_tokenId",
          "type": "uint24"
        },
        {
          "internalType": "uint24",
          "name": "_attack1",
          "type": "uint24"
        },
        {
          "internalType": "uint24",
          "name": "_attack2",
          "type": "uint24"
        },
        {
          "internalType": "uint24",
          "name": "_defence1",
          "type": "uint24"
        },
        {
          "internalType": "uint24",
          "name": "_defence2",
          "type": "uint24"
        }
      ],
      "name": "attributesLevelUp",
      "outputs": [],
      "stateMutability": "nonpayable",
      "type": "function"
    },
    {
      "inputs": [
        {
          "internalType": "enum UnlimitedEvolution.type_character",
          "name": "_typeCharacter",
          "type": "uint8"
        },
        {
          "internalType": "enum UnlimitedEvolution.gender_character",
          "name": "_genderCharacter",
          "type": "uint8"
        }
      ],
      "name": "createCharacter",
      "outputs": [],
      "stateMutability": "payable",
      "type": "function"
    },
    {
      "inputs": [
        {
          "internalType": "uint24",
          "name": "_tokenId",
          "type": "uint24"
        }
      ],
      "name": "rest",
      "outputs": [],
      "stateMutability": "nonpayable",
      "type": "function"
    },
    {
      "inputs": [
        {
          "internalType": "uint24",
          "name": "_myTokenId",
          "type": "uint24"
        },
        {
          "internalType": "uint24",
          "name": "_rivalTokenId",
          "type": "uint24"
        }
      ],
      "name": "fight",
      "outputs": [],
      "stateMutability": "nonpayable",
      "type": "function"
    },
    {
      "inputs": [
        {
          "internalType": "uint8",
          "name": "stuffId",
          "type": "uint8"
        }
      ],
      "name": "buyStuff",
      "outputs": [],
      "stateMutability": "payable",
      "type": "function"
    },
    {
      "inputs": [
        {
          "internalType": "uint24",
          "name": "tokenId",
          "type": "uint24"
        },
        {
          "internalType": "uint8",
          "name": "stuffId",
          "type": "uint8"
        }
      ],
      "name": "equipStuff",
      "outputs": [],
      "stateMutability": "nonpayable",
      "type": "function"
    },
    {
      "inputs": [
        {
          "internalType": "uint24",
          "name": "tokenId",
          "type": "uint24"
        }
      ],
      "name": "usePotion",
      "outputs": [],
      "stateMutability": "nonpayable",
      "type": "function"
    },
    {
      "inputs": [
        {
          "internalType": "uint24",
          "name": "tokenId",
          "type": "uint24"
        }
      ],
      "name": "getTokenDetails",
      "outputs": [
        {
          "components": [
            {
              "internalType": "uint24",
              "name": "id",
              "type": "uint24"
            },
            {
              "internalType": "uint56",
              "name": "dna",
              "type": "uint56"
            },
            {
              "internalType": "uint16",
              "name": "level",
              "type": "uint16"
            },
            {
              "internalType": "uint24",
              "name": "xp",
              "type": "uint24"
            },
            {
              "internalType": "uint24",
              "name": "hp",
              "type": "uint24"
            },
            {
              "internalType": "uint24",
              "name": "stamina",
              "type": "uint24"
            },
            {
              "internalType": "uint24",
              "name": "attack1",
              "type": "uint24"
            },
            {
              "internalType": "uint24",
              "name": "attack2",
              "type": "uint24"
            },
            {
              "internalType": "uint24",
              "name": "defence1",
              "type": "uint24"
            },
            {
              "internalType": "uint24",
              "name": "defence2",
              "type": "uint24"
            },
            {
              "internalType": "uint24",
              "name": "attributePoints",
              "type": "uint24"
            },
            {
              "internalType": "uint8",
              "name": "weapon",
              "type": "uint8"
            },
            {
              "internalType": "uint8",
              "name": "shield",
              "type": "uint8"
            },
            {
              "internalType": "uint256",
              "name": "lastRest",
              "type": "uint256"
            },
            {
              "internalType": "enum UnlimitedEvolution.type_character",
              "name": "typeCharacter",
              "type": "uint8"
            },
            {
              "internalType": "enum UnlimitedEvolution.gender_character",
              "name": "genderCharacter",
              "type": "uint8"
            }
          ],
          "internalType": "struct UnlimitedEvolution.Character",
          "name": "",
          "type": "tuple"
        }
      ],
      "stateMutability": "view",
      "type": "function"
    },
    {
      "inputs": [
        {
          "internalType": "uint8",
          "name": "stuffId",
          "type": "uint8"
        }
      ],
      "name": "getStuffDetails",
      "outputs": [
        {
          "components": [
            {
              "internalType": "uint8",
              "name": "id",
              "type": "uint8"
            },
            {
              "internalType": "uint8",
              "name": "bonusAttack1",
              "type": "uint8"
            },
            {
              "internalType": "uint8",
              "name": "bonusAttack2",
              "type": "uint8"
            },
            {
              "internalType": "uint8",
              "name": "bonusDefence1",
              "type": "uint8"
            },
            {
              "internalType": "uint8",
              "name": "bonusDefence2",
              "type": "uint8"
            },
            {
              "internalType": "enum UnlimitedEvolution.type_stuff",
              "name": "typeStuff",
              "type": "uint8"
            }
          ],
          "internalType": "struct UnlimitedEvolution.Stuff",
          "name": "",
          "type": "tuple"
        }
      ],
      "stateMutability": "view",
      "type": "function"
    },
    {
      "inputs": [],
      "name": "getMyCharacters",
      "outputs": [
        {
          "components": [
            {
              "internalType": "uint24",
              "name": "id",
              "type": "uint24"
            },
            {
              "internalType": "uint56",
              "name": "dna",
              "type": "uint56"
            },
            {
              "internalType": "uint16",
              "name": "level",
              "type": "uint16"
            },
            {
              "internalType": "uint24",
              "name": "xp",
              "type": "uint24"
            },
            {
              "internalType": "uint24",
              "name": "hp",
              "type": "uint24"
            },
            {
              "internalType": "uint24",
              "name": "stamina",
              "type": "uint24"
            },
            {
              "internalType": "uint24",
              "name": "attack1",
              "type": "uint24"
            },
            {
              "internalType": "uint24",
              "name": "attack2",
              "type": "uint24"
            },
            {
              "internalType": "uint24",
              "name": "defence1",
              "type": "uint24"
            },
            {
              "internalType": "uint24",
              "name": "defence2",
              "type": "uint24"
            },
            {
              "internalType": "uint24",
              "name": "attributePoints",
              "type": "uint24"
            },
            {
              "internalType": "uint8",
              "name": "weapon",
              "type": "uint8"
            },
            {
              "internalType": "uint8",
              "name": "shield",
              "type": "uint8"
            },
            {
              "internalType": "uint256",
              "name": "lastRest",
              "type": "uint256"
            },
            {
              "internalType": "enum UnlimitedEvolution.type_character",
              "name": "typeCharacter",
              "type": "uint8"
            },
            {
              "internalType": "enum UnlimitedEvolution.gender_character",
              "name": "genderCharacter",
              "type": "uint8"
            }
          ],
          "internalType": "struct UnlimitedEvolution.Character[]",
          "name": "",
          "type": "tuple[]"
        }
      ],
      "stateMutability": "view",
      "type": "function"
    },
    {
      "inputs": [],
      "name": "getOthersCharacters",
      "outputs": [
        {
          "components": [
            {
              "internalType": "uint24",
              "name": "id",
              "type": "uint24"
            },
            {
              "internalType": "uint56",
              "name": "dna",
              "type": "uint56"
            },
            {
              "internalType": "uint16",
              "name": "level",
              "type": "uint16"
            },
            {
              "internalType": "uint24",
              "name": "xp",
              "type": "uint24"
            },
            {
              "internalType": "uint24",
              "name": "hp",
              "type": "uint24"
            },
            {
              "internalType": "uint24",
              "name": "stamina",
              "type": "uint24"
            },
            {
              "internalType": "uint24",
              "name": "attack1",
              "type": "uint24"
            },
            {
              "internalType": "uint24",
              "name": "attack2",
              "type": "uint24"
            },
            {
              "internalType": "uint24",
              "name": "defence1",
              "type": "uint24"
            },
            {
              "internalType": "uint24",
              "name": "defence2",
              "type": "uint24"
            },
            {
              "internalType": "uint24",
              "name": "attributePoints",
              "type": "uint24"
            },
            {
              "internalType": "uint8",
              "name": "weapon",
              "type": "uint8"
            },
            {
              "internalType": "uint8",
              "name": "shield",
              "type": "uint8"
            },
            {
              "internalType": "uint256",
              "name": "lastRest",
              "type": "uint256"
            },
            {
              "internalType": "enum UnlimitedEvolution.type_character",
              "name": "typeCharacter",
              "type": "uint8"
            },
            {
              "internalType": "enum UnlimitedEvolution.gender_character",
              "name": "genderCharacter",
              "type": "uint8"
            }
          ],
          "internalType": "struct UnlimitedEvolution.Character[]",
          "name": "",
          "type": "tuple[]"
        }
      ],
      "stateMutability": "view",
      "type": "function"
    },
    {
      "inputs": [
        {
          "internalType": "address",
          "name": "_address",
          "type": "address"
        }
      ],
      "name": "getBalanceOfCharacters",
      "outputs": [
        {
          "internalType": "uint8",
          "name": "",
          "type": "uint8"
        }
      ],
      "stateMutability": "view",
      "type": "function"
    },
    {
      "inputs": [],
      "name": "testModeSwitch",
      "outputs": [],
      "stateMutability": "nonpayable",
      "type": "function"
    }
  ],
  "bytecode": "0x6008805466ffffffffffffff1916650fa000010006179055600360c08181526101406040529060e0606080368337505081516200004492600992506020019062000bc7565b5066038d7ea4c68000600a5566038d7ea4c68000600b553480156200006857600080fd5b5060405162006878380380620068788339810160408190526200008b9162000d57565b73dd3782915140c8f3b190b5d67eac6dc5760c46e973a36085f69e2889c224210f603d836748e7dc008860405180602001604052806000815250620000df81620006cf640100000000026401000000009004565b5062000106620000f7640100000000620006e8810204565b640100000000620006ec810204565b6c01000000000000000000000000600160a060020a03928316810260a052908216026080527f6c3699283bda56ad74f6b855546325b68d482e983852a7a82979cc4807b641f460055567016345785d8a0000600655600d80549183166101000261010060a860020a0319909216919091179055604080516020810190915260008152620001a6903090600190620186a0906401000000006200073e810204565b6040805160c08101825260018152600260208201819052918101919091526000606082018190526080820181905260a082015260016000819052600f602090815282517f169f97de0d9a84d840042b17d3c6b9638b3d6fd9024c9eb0c7a306a17b49f88f80549285015160408601516060870151608088015160ff9081166401000000000264ff000000001992821663010000000263ff0000001994831662010000029490941663ffff0000199583166101000261ffff199099169790921696909617969096179290921694909417939093179283168217815560a085015190939092849265ff0000000000191665ffff0000000019909116179065010000000000908490811115620002bd57620002bd62000f18565b0217905550905050620002f830600260ff16620186a0604051806020016040528060008152506200073e640100000000026401000000009004565b6040805160c0810182526002808252600060208084018281529484018281526060850184815260808601858152600160a0880181815296909552600f90935285517fa74ba3945261e09fde15ba3db55005b205e61eeb4ad811ac0faa2b315bffeead8054985193519251945160ff9081166401000000000264ff000000001996821663010000000263ff0000001995831662010000029590951663ffff0000199683166101000261ffff19909c169290941691909117999099179390931617179182168617815592519394929392849265ff00000000001990911665ffff0000000019909216919091179065010000000000908490811115620003ff57620003ff62000f18565b02179055509050506200043830600360ff166001604051806020016040528060008152506200073e640100000000026401000000009004565b6040805160c0810182526003808252600a60208084018281529484018281526060850183815260808601938452600060a08701818152959052600f90925284517f45f76dafbbad695564362934e24d72eedc57f9fc1a65f39bca62176cc82968288054975192519351945160ff9081166401000000000264ff000000001996821663010000000263ff0000001996831662010000029690961663ffff0000199583166101000261ffff19909b169290941691909117989098179290921617919091179182168517815591519293919291839165ff00000000001990911665ffff000000001990911617650100000000008360018111156200053d576200053d62000f18565b02179055509050506200057630600460ff166001604051806020016040528060008152506200073e640100000000026401000000009004565b6040805160c08101825260048152600a6020820181905291810182905260608101829052608081019190915260a08101600190526004600052600f602090815281517f367ccd2d0ac16bf7110a5dffe0801fdc9452a95a1adb7e1a12fe97dd3e9a4edd80549284015160408501516060860151608087015160ff9081166401000000000264ff000000001992821663010000000263ff0000001994831662010000029490941663ffff0000199583166101000261ffff199099169790921696909617969096179290921694909417939093179283168217815560a084015190929091839165ff00000000001990911665ffff000000001990911617650100000000008360018111156200068d576200068d62000f18565b0217905550905050620006c830600560ff16620f4240604051806020016040528060008152506200073e640100000000026401000000009004565b506200103f565b8051620006e490600290602084019062000c78565b5050565b3390565b60038054600160a060020a03838116600160a060020a0319831681179093556040519116919082907f8be0079c531659141344cd1fd0a4f28419497f9722a3daafe3b4186f6b6457e090600090a35050565b600160a060020a038416620007da576040517f08c379a000000000000000000000000000000000000000000000000000000000815260206004820152602160248201527f455243313135353a206d696e7420746f20746865207a65726f2061646472657360448201527f730000000000000000000000000000000000000000000000000000000000000060648201526084015b60405180910390fd5b6000620007ef640100000000620006e8810204565b905062000831816000876200080d88640100000000620008d5810204565b6200082188640100000000620008d5810204565b8764010000000062000923810204565b600084815260208181526040808320600160a060020a0389168452909152812080548592906200086390849062000e2e565b90915550506040805185815260208101859052600160a060020a0380881692600092918516917fc3d58168c5ae7397731d063d5bbf3d657854427343f4c083240f7aacaa2d0f62910160405180910390a4620008ce816000878787876401000000006200092b810204565b5050505050565b6040805160018082528183019092526060916000919060208083019080368337019050509050828160008151811062000912576200091262000f47565b602090810291909101015292915050565b505050505050565b6200094d600160a060020a0385166401000000006200340162000bc182021704565b1562000923576040517ff23a6e61000000000000000000000000000000000000000000000000000000008152600160a060020a0385169063f23a6e6190620009a2908990899088908890889060040162000dd2565b602060405180830381600087803b158015620009bd57600080fd5b505af1925050508015620009f0575060408051601f3d908101601f19168201909252620009ed9181019062000d0c565b60015b62000ae557620009ff62000f76565b806308c379a0141562000a5a575062000a1762000fb0565b8062000a24575062000a5c565b806040517f08c379a0000000000000000000000000000000000000000000000000000000008152600401620007d1919062000e19565b505b6040517f08c379a000000000000000000000000000000000000000000000000000000000815260206004820152603460248201527f455243313135353a207472616e7366657220746f206e6f6e204552433131353560448201527f526563656976657220696d706c656d656e7465720000000000000000000000006064820152608401620007d1565b7fffffffff0000000000000000000000000000000000000000000000000000000081167ff23a6e61000000000000000000000000000000000000000000000000000000001462000bb8576040517f08c379a000000000000000000000000000000000000000000000000000000000815260206004820152602860248201527f455243313135353a204552433131353552656365697665722072656a6563746560448201527f6420746f6b656e730000000000000000000000000000000000000000000000006064820152608401620007d1565b50505050505050565b3b151590565b82805482825590600052602060002090600901600a9004810192821562000c665791602002820160005b8382111562000c3357835183826101000a81548162ffffff021916908360ff160217905550926020019260030160208160020104928301926001030262000bf1565b801562000c645782816101000a81549062ffffff021916905560030160208160020104928301926001030262000c33565b505b5062000c7492915062000cf5565b5090565b82805462000c869062000e6e565b90600052602060002090601f01602090048101928262000caa576000855562000c66565b82601f1062000cc557805160ff191683800117855562000c66565b8280016001018555821562000c66579182015b8281111562000c6657825182559160200191906001019062000cd8565b5b8082111562000c74576000815560010162000cf6565b60006020828403121562000d1f57600080fd5b81517fffffffff000000000000000000000000000000000000000000000000000000008116811462000d5057600080fd5b9392505050565b60006020828403121562000d6a57600080fd5b8151600160a060020a038116811462000d5057600080fd5b6000815180845260005b8181101562000daa5760208185018101518683018201520162000d8c565b8181111562000dbd576000602083870101525b50601f01601f19169290920160200192915050565b600160a060020a03868116825285166020820152604081018490526060810183905260a06080820181905260009062000e0e9083018462000d82565b979650505050505050565b60208152600062000d50602083018462000d82565b6000821982111562000e69577f4e487b7100000000000000000000000000000000000000000000000000000000600052601160045260246000fd5b500190565b60028104600182168062000e8357607f821691505b6020821081141562000ebe577f4e487b7100000000000000000000000000000000000000000000000000000000600052602260045260246000fd5b50919050565b601f8201601f191681016001604060020a038111828210171562000f11577f4e487b7100000000000000000000000000000000000000000000000000000000600052604160045260246000fd5b6040525050565b7f4e487b7100000000000000000000000000000000000000000000000000000000600052602160045260246000fd5b7f4e487b7100000000000000000000000000000000000000000000000000000000600052603260045260246000fd5b600060033d111562000fad5760046000803e7c01000000000000000000000000000000000000000000000000000000006000510490505b90565b600060443d101562000fbf5790565b6040516003193d81016004833e81513d6001604060020a03816024840111818411171562000fef57505050505090565b8285019150815181811115620010085750505050505090565b843d8701016020828501011115620010235750505050505090565b620010346020828601018762000ec4565b509095945050505050565b6080516c01000000000000000000000000900460a0516c0100000000000000000000000090046157de6200109a6000396000818161184a0152613ee40152600081816126420152818161273c0152613eb501526157de6000f3fe6080604052600436106102335760003560e060020a900480638acf59f211610132578063bc197c81116100af578063e985e9c511610073578063e985e9c5146106e9578063ec7a1ceb14610732578063f23a6e611461075f578063f242432a146107a4578063f2fde38b146107c457600080fd5b8063bc197c811461061c578063cd9ea3421461067a578063dbdff2c114610694578063e3d66920146106a9578063e5001204146106c957600080fd5b8063a2ee2557116100f6578063a2ee255714610589578063aee231f91461059c578063b5214a08146105c9578063baa03618146105dc578063bb84e74f146105fc57600080fd5b80638acf59f2146104eb5780638da5cb5b1461050b57806394985ddd146105295780639854098914610549578063a22cb4651461056957600080fd5b80633418e436116101c05780634e82debc116101845780634e82debc146104615780634fb97a10146104815780635f37536814610496578063715018a6146104b657806384017e52146104cb57600080fd5b80633418e436146103c75780633c4739d3146103e75780633ccfd60b1461040957806342619f661461041e5780634e1273f41461043457600080fd5b8063249b119f11610207578063249b119f146102ea57806326a4e8d2146103275780632723c0de146103475780632a3f8963146103925780632eb2c2d6146103a757600080fd5b8062fdd58e1461023857806301ffc9a71461026b5780630e89341c1461029b578063220cb4ce146102c8575b600080fd5b34801561024457600080fd5b50610258610253366004614a90565b6107e4565b6040519081526020015b60405180910390f35b34801561027757600080fd5b5061028b610286366004614bc8565b610893565b6040519015158152602001610262565b3480156102a757600080fd5b506102bb6102b6366004614d04565b61089e565b6040516102629190615163565b3480156102d457600080fd5b506102e86102e3366004614c4b565b610932565b005b3480156102f657600080fd5b50600d5461030f906101009004600160a060020a031681565b604051600160a060020a039091168152602001610262565b34801561033357600080fd5b506102e86103423660046148f5565b610c24565b34801561035357600080fd5b506103806103623660046148f5565b600160a060020a031660009081526010602052604090205460ff1690565b60405160ff9091168152602001610262565b34801561039e57600080fd5b506102e8610c86565b3480156103b357600080fd5b506102e86103c236600461494a565b610cc7565b3480156103d357600080fd5b506102e86103e2366004614c30565b610d6c565b3480156103f357600080fd5b506103fc610f43565b60405161026291906150dc565b34801561041557600080fd5b506102e8611192565b34801561042a57600080fd5b5061025860075481565b34801561044057600080fd5b5061045461044f366004614aba565b611206565b604051610262919061512b565b34801561046d57600080fd5b506102e861047c366004614c30565b611347565b34801561048d57600080fd5b506103fc611459565b3480156104a257600080fd5b506102e86104b1366004614d04565b6116be565b3480156104c257600080fd5b506102e8611720565b3480156104d757600080fd5b506102e86104e6366004614d04565b611759565b3480156104f757600080fd5b506102e8610506366004614c30565b6117bb565b34801561051757600080fd5b50600354600160a060020a031661030f565b34801561053557600080fd5b506102e8610544366004614ba6565b61183f565b34801561055557600080fd5b506102e8610564366004614d36565b6118c4565b34801561057557600080fd5b506102e8610584366004614a59565b611ac1565b6102e8610597366004614da3565b611acc565b3480156105a857600080fd5b506105bc6105b7366004614da3565b611c91565b6040516102629190615365565b6102e86105d7366004614c02565b611d63565b3480156105e857600080fd5b506102e86105f7366004614c75565b612429565b34801561060857600080fd5b506102e8610617366004614d04565b612613565b34801561062857600080fd5b5061066161063736600461494a565b7fbc197c810000000000000000000000000000000000000000000000000000000095945050505050565b604051600160e060020a03199091168152602001610262565b34801561068657600080fd5b50600d5461028b9060ff1681565b3480156106a057600080fd5b506102586126ff565b3480156106b557600080fd5b506102e86106c4366004614dbe565b612840565b3480156106d557600080fd5b506102e86106e4366004614cda565b6129b7565b3480156106f557600080fd5b5061028b610704366004614917565b600160a060020a03918216600090815260016020908152604080832093909416825291909152205460ff1690565b34801561073e57600080fd5b5061075261074d366004614c30565b61313e565b6040516102629190615356565b34801561076b57600080fd5b5061066161077a3660046149f4565b7ff23a6e610000000000000000000000000000000000000000000000000000000095945050505050565b3480156107b057600080fd5b506102e86107bf3660046149f4565b6132ae565b3480156107d057600080fd5b506102e86107df3660046148f5565b61334c565b6000600160a060020a03831661086a5760405160e560020a62461bcd02815260206004820152602b60248201527f455243313135353a2062616c616e636520717565727920666f7220746865207a60448201527f65726f206164647265737300000000000000000000000000000000000000000060648201526084015b60405180910390fd5b50600081815260208181526040808320600160a060020a03861684529091529020545b92915050565b600061088d82613407565b6060600280546108ad9061553f565b80601f01602080910402602001604051908101604052809291908181526020018280546108d99061553f565b80156109265780601f106108fb57610100808354040283529160200191610926565b820191906000526020600020905b81548152906001019060200180831161090957829003601f168201915b50505050509050919050565b6109408262ffffff16613445565b61095f5760405160e560020a62461bcd028152600401610861906151d3565b61096d8162ffffff16613445565b151561097d8362ffffff16613445565b151514156109f65760405160e560020a62461bcd02815260206004820152602160248201527f596f7572204e4654732063616e6e6f742066696768742065616368206f74686560448201527f72000000000000000000000000000000000000000000000000000000000000006064820152608401610861565b62ffffff8083166000908152600e6020526040902054600a609060020a9091049091161015610a6a5760405160e560020a62461bcd02815260206004820152601260248201527f4e6f7420656e6f756768207374616d696e6100000000000000000000000000006044820152606401610861565b62ffffff8082166000908152600e602052604080822054928516825290205461ffff6a010000000000000000000092839004811692909104161115610af45760405160e560020a62461bcd02815260206004820152601c60248201527f466967687420736f6d656f6e6520796f7572206f776e2073697a6521000000006044820152606401610861565b62ffffff8083166000908152600e6020526040902054607860020a90041615801590610b3c575062ffffff8082166000908152600e6020526040902054607860020a90041615155b610b8b5760405160e560020a62461bcd02815260206004820152601760248201527f4f6e65206f6620746865204e46547320697320646561640000000000000000006044820152606401610861565b6000610b978383613459565b90506000610ba58385613459565b62ffffff8086166000908152600e6020526040902054919250610bd391600a91609060020a90910416615504565b62ffffff8581166000908152600e60205260409020805474ffffff0000000000000000000000000000000000001916609060020a9390921692909202179055610c1e84848484613580565b50505050565b600354600160a060020a03163314610c515760405160e560020a62461bcd02815260040161086190615321565b600d8054600160a060020a039092166101000274ffffffffffffffffffffffffffffffffffffffff0019909216919091179055565b600354600160a060020a03163314610cb35760405160e560020a62461bcd02815260040161086190615321565b600d805460ff19811660ff90911615179055565b600160a060020a038516331480610ce35750610ce38533610704565b610d585760405160e560020a62461bcd02815260206004820152603260248201527f455243313135353a207472616e736665722063616c6c6572206973206e6f742060448201527f6f776e6572206e6f7220617070726f76656400000000000000000000000000006064820152608401610861565b610d658585858585613778565b5050505050565b60ff8162ffffff1611610dc45760405160e560020a62461bcd02815260206004820152601960248201527f57726f6e67206b696e64206f66204e46542028537475666629000000000000006044820152606401610861565b610dd28162ffffff16613445565b610df15760405160e560020a62461bcd028152600401610861906151d3565b610dfb6005613445565b610e4a5760405160e560020a62461bcd02815260206004820152601660248201527f596f7520646f6e2774206f776e206120706f74696f6e000000000000000000006044820152606401610861565b62ffffff8082166000908152600e60205260409020546064609060020a909104909116108015610e9a575062ffffff8082166000908152600e60205260409020546064607860020a909104909116105b610eb95760405160e560020a62461bcd02815260040161086190615267565b610ec63360056001613973565b62ffffff81166000818152600e6020908152604091829020805474ffffffffffff0000000000000000000000000000001916726400006400000000000000000000000000000017905590519182527f127a62fea82fb42bc3a6f379a68f1ccd885eb84979d3c9372bf3d70c765cf13b91015b60405180910390a150565b3360009081526010602052604081205460609190819060ff1667ffffffffffffffff811115610f7457610f746156b4565b604051908082528060200260200182016040528015610fad57816020015b610f9a61473a565b815260200190600190039081610f925790505b50905060005b60085462ffffff6101009091048116908216101561118b57610fd98162ffffff16613445565b156111795762ffffff8181166000908152600e602090815260409182902082516102008101845281548086168252630100000080820466ffffffffffffff16948301949094526a0100000000000000000000810461ffff1694820194909452606060020a840485166060820152607860020a840485166080820152609060020a8404851660a082015260a860020a8404851660c082015260c060020a8404851660e082015260d860020a909304841661010084015260018101548085166101208501529182049093166101408301526601000000000000810460ff90811661016084015267010000000000000090910481166101808301526002808401546101a084015260038401549293926101c085019216908111156110fc576110fc615682565b600281111561110d5761110d615682565b81526020016003820160019054906101000a900460ff16600281111561113557611135615682565b600281111561114657611146615682565b81525050828460ff168151811061115f5761115f61569b565b60200260200101819052508280611175906155fa565b9350505b80611183816155c6565b915050610fb3565b5092915050565b600354600160a060020a031633146111bf5760405160e560020a62461bcd02815260040161086190615321565b600354600160a060020a0316604051600160a060020a039190911690303180156108fc02916000818181858888f19350505050158015611203573d6000803e3d6000fd5b50565b606081518351146112825760405160e560020a62461bcd02815260206004820152602960248201527f455243313135353a206163636f756e747320616e6420696473206c656e67746860448201527f206d69736d6174636800000000000000000000000000000000000000000000006064820152608401610861565b6000835167ffffffffffffffff81111561129e5761129e6156b4565b6040519080825280602002602001820160405280156112c7578160200160208202803683370190505b50905060005b845181101561133f576113128582815181106112eb576112eb61569b565b60200260200101518583815181106113055761130561569b565b60200260200101516107e4565b8282815181106113245761132461569b565b6020908102919091010152611338816155df565b90506112cd565b509392505050565b6113558162ffffff16613445565b6113745760405160e560020a62461bcd028152600401610861906151d3565b62ffffff8082166000908152600e60205260409020546064609060020a9091049091161080156113c4575062ffffff8082166000908152600e60205260409020546064607860020a909104909116105b6113e35760405160e560020a62461bcd02815260040161086190615267565b62ffffff81166000818152600e6020908152604091829020805474ffffffffffff0000000000000000000000000000001916726400006400000000000000000000000000000017905590519182527f70b3acde96522f48d954a5bb77f27755c277bb00853b13264d21178135d3d0a99101610f38565b336000908152601060205260408120546008546060929182916114899160ff1690610100900462ffffff16615504565b62ffffff1667ffffffffffffffff8111156114a6576114a66156b4565b6040519080825280602002602001820160405280156114df57816020015b6114cc61473a565b8152602001906001900390816114c45790505b50905060005b60085462ffffff6101009091048116908216101561118b5761150b8162ffffff16613445565b6116ac5762ffffff8181166000908152600e602090815260409182902082516102008101845281548086168252630100000080820466ffffffffffffff16948301949094526a0100000000000000000000810461ffff1694820194909452606060020a840485166060820152607860020a840485166080820152609060020a8404851660a082015260a860020a8404851660c082015260c060020a8404851660e082015260d860020a909304841661010084015260018101548085166101208501529182049093166101408301526601000000000000810460ff90811661016084015267010000000000000090910481166101808301526002808401546101a084015260038401549293926101c0850192169081111561162d5761162d615682565b600281111561163e5761163e615682565b81526020016003820160019054906101000a900460ff16600281111561166657611666615682565b600281111561167757611677615682565b81525050828462ffffff16815181106116925761169261569b565b602002602001018190525082806116a8906155c6565b9350505b806116b6816155c6565b9150506114e5565b600354600160a060020a031633146116eb5760405160e560020a62461bcd02815260040161086190615321565b600b8190556040518181527f38f4067adf1477c6ed59234d75dfe320c18a2373bd9a839a489794e207148bbb90602001610f38565b600354600160a060020a0316331461174d5760405160e560020a62461bcd02815260040161086190615321565b6117576000613b26565b565b600354600160a060020a031633146117865760405160e560020a62461bcd02815260040161086190615321565b600a8190556040518181527f38fbb1c8b109c430f0c030e7ed076cf5611a307773a4e8e365601e8f8bceaec690602001610f38565b600354600160a060020a031633146117e85760405160e560020a62461bcd02815260040161086190615321565b6008805466ffffff00000000191664010000000062ffffff8481168202929092179283905560405192041681527fb7d28e616ee42c9b98a93c9bc72ee6f206603cd1e23793ae33c19c3c3b86c4e190602001610f38565b33600160a060020a037f000000000000000000000000000000000000000000000000000000000000000016146118ba5760405160e560020a62461bcd02815260206004820152601f60248201527f4f6e6c7920565246436f6f7264696e61746f722063616e2066756c66696c6c006044820152606401610861565b60075550565b5050565b600354600160a060020a031633146118f15760405160e560020a62461bcd02815260040161086190615321565b60085461010060ff9091161061194c5760405160e560020a62461bcd02815260206004820152601e60248201527f546865204e4654205374756666206c696d6974206973207265616368656400006044820152606401610861565b60085460408051602081019091526000815261197191309160ff909116908990613b85565b6040805160c08101825260085460ff90811682528781166020830152868116928201929092528482166060820152908316608082015260a081018260018111156119bd576119bd615682565b905260085460ff9081166000908152600f60209081526040918290208451815492860151938601516060870151608088015187166401000000000264ff000000001991881663010000000263ff0000001993891662010000029390931663ffff0000199789166101000261ffff199097169490981693909317949094179490941694909417929092179081168317825560a08401519192839165ff00000000001990911665ffff00000000199091161765010000000000836001811115611a8657611a86615682565b0217905550506008805460ff1691506000611aa0836155fa565b91906101000a81548160ff021916908360ff16021790555050505050505050565b6118c0338383613cae565b60ff8116611b1f5760405160e560020a62461bcd02815260206004820152601260248201527f4e6f6e2d6578697374656e7420737475666600000000000000000000000000006044820152606401610861565b611b2c308260ff166107e4565b611b7b5760405160e560020a62461bcd02815260206004820152601760248201527f5374756666206e6f206d6f726520617661696c61626c650000000000000000006044820152606401610861565b600b543414611bcf5760405160e560020a62461bcd02815260206004820152601460248201527f57726f6e6720616d6f756e74206f6620666565730000000000000000000000006044820152606401610861565b6040517ff242432a000000000000000000000000000000000000000000000000000000008152306004820181905233602483015260ff831660448301526001606483015260a06084830152600060a48301529063f242432a9060c401600060405180830381600087803b158015611c4557600080fd5b505af1158015611c59573d6000803e3d6000fd5b505060405160ff841681527f4afa87c6ddce4f5aa8b4ca6a375ecd27ea57ee7fec3e1648ceeea5c9dd19a2c892506020019050610f38565b611cc76040805160c08101825260008082526020820181905291810182905260608101829052608081018290529060a082015290565b60ff8083166000908152600f6020908152604091829020825160c0810184528154808616825261010081048616938201939093526201000083048516938101939093526301000000820484166060840152640100000000820484166080840152919260a0840191650100000000009004166001811115611d4957611d49615682565b6001811115611d5a57611d5a615682565b90525092915050565b600a543414611db75760405160e560020a62461bcd02815260206004820152601460248201527f57726f6e6720616d6f756e74206f6620666565730000000000000000000000006044820152606401610861565b33600090815260106020526040902054600560ff90911610611e1e5760405160e560020a62461bcd02815260206004820152601e60248201527f596f752063616e27742068617665206d6f7265207468616e2035204e465400006044820152606401610861565b600854640100000000900462ffffff166009836002811115611e4257611e42615682565b60ff1681548110611e5557611e5561569b565b90600052602060002090600a91828204019190066003029054906101000a900462ffffff1662ffffff161115611ef65760405160e560020a62461bcd02815260206004820152602e60248201527f596f752063616e6e6f74206d696e74206d6f726520636861726163746572207760448201527f697468207468697320636c6173730000000000000000000000000000000000006064820152608401610861565b611f06662386f26fc10000613da6565b6000611f10613e0a565b6040805161020081018252600854610100900462ffffff168152600c5466ffffffffffffff1660208201526001918101829052606081019190915260646080820181905260a082015281519192509060c08201908390600090611f7557611f7561569b565b602002602001015160ff1662ffffff16815260200182600181518110611f9d57611f9d61569b565b602002602001015160ff1662ffffff16815260200182600281518110611fc557611fc561569b565b602002602001015160ff1662ffffff16815260200182600381518110611fed57611fed61569b565b602002602001015160ff1662ffffff168152602001600062ffffff168152602001600060ff168152602001600060ff1681526020016000815260200184600281111561203b5761203b615682565b815260200183600281111561205257612052615682565b90526008546101009081900462ffffff9081166000908152600e60209081526040918290208551815492870151938701516060880151608089015160a08a015160c08b015160e08c01519a8c0151958a1669ffffffffffffffffffff1990981697909717630100000066ffffffffffffff9099168902176effffffffff0000000000000000000019166a010000000000000000000061ffff909516949094026effffff000000000000000000000000191693909317606060020a928916929092029190911774ffffffffffff0000000000000000000000000000001916607860020a9188169190910274ffffff000000000000000000000000000000000000191617609060020a91871691909102177affffffffffff000000000000000000000000000000000000000000191660a860020a938616939093027affffff00000000000000000000000000000000000000000000000019169290921760c060020a95851695909502949094177fffff000000ffffffffffffffffffffffffffffffffffffffffffffffffffffff1660d860020a91841691909102178355610120840151600180850180546101408801516101608901516101808a015195881665ffffffffffff199093169290921796169094029490941767ffff0000000000001916660100000000000060ff9485160267ff000000000000001916176701000000000000009390921692909202179091556101a08301516002808401919091556101c08401516003840180549193909260ff1990921691849081111561229957612299615682565b02179055506101e082015160038201805461ff0019166101008360028111156122c4576122c4615682565b021790555050336000908152601060205260408120805460ff169250906122ea836155fa565b91906101000a81548160ff021916908360ff16021790555050600983600281111561231757612317615682565b60ff168154811061232a5761232a61569b565b90600052602060002090600a918282040191900660030281819054906101000a900462ffffff168092919061235e906155c6565b91906101000a81548162ffffff021916908362ffffff160217905550506123ad33600860019054906101000a900462ffffff1662ffffff16600160405180602001604052806000815250613b85565b60085460405161010090910462ffffff1681527fe227f939502c878cd77af001b21022d49a6b5ad9c3103d7ad7cacc22b89c7e189060200160405180910390a160088054610100900462ffffff16906001612407836155c6565b91906101000a81548162ffffff021916908362ffffff16021790555050505050565b600081836124378688615414565b6124419190615414565b61244b9190615414565b62ffffff8781166000908152600e6020526040902060010154918116925063010000009091041681146124e95760405160e560020a62461bcd02815260206004820152602360248201527f57726f6e6720616d6f756e74206f6620706f696e747320746f2061747472696260448201527f75746500000000000000000000000000000000000000000000000000000000006064820152608401610861565b62ffffff8087166000908152600e602052604090208054879260159161251891859160a860020a900416615414565b82546101009290920a62ffffff8181021990931691831602179091558781166000908152600e602052604090208054879350909160189161256291859160c060020a900416615414565b82546101009290920a62ffffff8181021990931691831602179091558781166000908152600e6020526040902080548693509091601b916125ac91859160d860020a900416615414565b82546101009290920a62ffffff8181021990931691831602179091558781166000908152600e60205260408120600101805486945090926125ef91859116615414565b92506101000a81548162ffffff021916908362ffffff160217905550505050505050565b600354600160a060020a031633146126405760405160e560020a62461bcd02815260040161086190615321565b7f0000000000000000000000000000000000000000000000000000000000000000600160a060020a031663a9059cbb612681600354600160a060020a031690565b60405160e060020a63ffffffff8416028152600160a060020a03909116600482015260248101849052604401602060405180830381600087803b1580156126c757600080fd5b505af11580156126db573d6000803e3d6000fd5b505050506040513d601f19601f820116820180604052508101906118c09190614b89565b6006546040517f70a0823100000000000000000000000000000000000000000000000000000000815230600482015260009190600160a060020a037f000000000000000000000000000000000000000000000000000000000000000016906370a082319060240160206040518083038186803b15801561277e57600080fd5b505afa158015612792573d6000803e3d6000fd5b505050506040513d601f19601f820116820180604052508101906127b69190614d1d565b101561282d5760405160e560020a62461bcd02815260206004820152602b60248201527f4e6f7420656e6f756768204c494e4b202d2066696c6c20636f6e74726163742060448201527f77697468206661756365740000000000000000000000000000000000000000006064820152608401610861565b61283b600554600654613eb1565b905090565b600354600160a060020a0316331461286d5760405160e560020a62461bcd02815260040161086190615321565b61288b308860ff168860405180602001604052806000815250613b85565b8660ff166005146129ae576040518060c001604052808860ff1681526020018660ff1681526020018560ff1681526020018460ff1681526020018360ff1681526020018260018111156128e0576128e0615682565b905260ff8089166000908152600f60209081526040918290208451815492860151938601516060870151608088015187166401000000000264ff000000001991881663010000000263ff0000001993891662010000029390931663ffff0000199789166101000261ffff199097169490981693909317949094179490941694909417929092179081168317825560a08401519192839165ff00000000001990911665ffff000000001990911617650100000000008360018111156129a6576129a6615682565b021790555050505b50505050505050565b60ff8262ffffff1611612a0f5760405160e560020a62461bcd02815260206004820152601960248201527f57726f6e67206b696e64206f66204e46542028537475666629000000000000006044820152606401610861565b612a1d8262ffffff16613445565b612a3c5760405160e560020a62461bcd028152600401610861906151d3565b60ff811660051415612a935760405160e560020a62461bcd02815260206004820152601860248201527f596f752063616e2774206571756970206120706f74696f6e00000000000000006044820152606401610861565b612a9f8160ff16613445565b612aee5760405160e560020a62461bcd02815260206004820152601960248201527f596f7520646f6e2774206f776e207468697320776561706f6e000000000000006044820152606401610861565b62ffffff82166000908152600e602090815260408083206001015460ff8581168552600f9093529083205466010000000000008204831693670100000000000000909204831692650100000000009091041690816001811115612b5357612b53615682565b148015612b61575060ff8316155b80612b8957506001816001811115612b7b57612b7b615682565b148015612b89575060ff8216155b15612d295760ff8085166000908152600f602090815260408083205462ffffff808b168552600e909352922080546101009093049093169291601591612bd991859160a860020a90910416615414565b82546101009290920a62ffffff81810219909316918316021790915560ff8681166000908152600f60209081526040808320548b86168452600e90925290912080546201000090920490921693509091601891612c3f91859160c060020a900416615414565b82546101009290920a62ffffff81810219909316918316021790915560ff8681166000908152600f60209081526040808320548b86168452600e9092529091208054630100000090920490921693509091601b91612ca691859160d860020a900416615414565b82546101009290920a62ffffff81810219909316918316021790915560ff8681166000908152600f60209081526040808320548b86168452600e90925282206001018054640100000000909204909316945091929091612d0891859116615414565b92506101000a81548162ffffff021916908362ffffff160217905550613052565b60ff8084166000908152600f602090815260408083205462ffffff808b168552600e909352922080546101009093049093169291601591612d7491859160a860020a90910416615504565b82546101009290920a62ffffff81810219909316918316021790915560ff8581166000908152600f60209081526040808320548b86168452600e90925290912080546201000090920490921693509091601891612dda91859160c060020a900416615504565b82546101009290920a62ffffff81810219909316918316021790915560ff8581166000908152600f60209081526040808320548b86168452600e9092529091208054630100000090920490921693509091601b91612e4191859160d860020a900416615504565b82546101009290920a62ffffff81810219909316918316021790915560ff8581166000908152600f60209081526040808320548b86168452600e90925282206001018054640100000000909204909316945091929091612ea391859116615504565b825462ffffff91821661010093840a908102908302199091161790925560ff8088166000908152600f60209081526040808320548c87168452600e909252909120805493909104909116935091601591612f0691859160a860020a900416615414565b82546101009290920a62ffffff81810219909316918316021790915560ff8681166000908152600f60209081526040808320548b86168452600e90925290912080546201000090920490921693509091601891612f6c91859160c060020a900416615414565b82546101009290920a62ffffff81810219909316918316021790915560ff8681166000908152600f60209081526040808320548b86168452600e9092529091208054630100000090920490921693509091601b91612fd391859160d860020a900416615414565b82546101009290920a62ffffff81810219909316918316021790915560ff8681166000908152600f60209081526040808320548b86168452600e9092528220600101805464010000000090920490931694509192909161303591859116615414565b92506101000a81548162ffffff021916908362ffffff1602179055505b600060ff8086166000908152600f602052604090205465010000000000900416600181111561308357613083615682565b14156130c15762ffffff85166000908152600e60205260409020600101805466ff0000000000001916660100000000000060ff8716021790556130f7565b62ffffff85166000908152600e60205260409020600101805467ff00000000000000191667010000000000000060ff8716021790555b6040805162ffffff8716815260ff861660208201527f610fb6ee23e2ff6ad836d380855fbefc8d4c765b388a588262c443f13fefc300910160405180910390a15050505050565b61314661473a565b62ffffff8281166000908152600e602090815260409182902082516102008101845281548086168252630100000080820466ffffffffffffff16948301949094526a0100000000000000000000810461ffff1694820194909452606060020a840485166060820152607860020a840485166080820152609060020a8404851660a082015260a860020a8404851660c082015260c060020a8404851660e082015260d860020a909304841661010084015260018101548085166101208501529182049093166101408301526601000000000000810460ff90811661016084015267010000000000000090910481166101808301526002808401546101a084015260038401549293926101c0850192169081111561326457613264615682565b600281111561327557613275615682565b81526020016003820160019054906101000a900460ff16600281111561329d5761329d615682565b6002811115611d5a57611d5a615682565b600160a060020a0385163314806132ca57506132ca8533610704565b61333f5760405160e560020a62461bcd02815260206004820152602960248201527f455243313135353a2063616c6c6572206973206e6f74206f776e6572206e6f7260448201527f20617070726f76656400000000000000000000000000000000000000000000006064820152608401610861565b610d658585858585614045565b600354600160a060020a031633146133795760405160e560020a62461bcd02815260040161086190615321565b600160a060020a0381166133f85760405160e560020a62461bcd02815260206004820152602660248201527f4f776e61626c653a206e6577206f776e657220697320746865207a65726f206160448201527f64647265737300000000000000000000000000000000000000000000000000006064820152608401610861565b61120381613b26565b3b151590565b6000600160e060020a031982167f4e2312e000000000000000000000000000000000000000000000000000000000148061088d575061088d8261415f565b600061345133836107e4565b151592915050565b62ffffff8083166000908152600e60205260408120549091829161348791606060020a909104166001615414565b62ffffff8086166000908152600e60205260409020546002916134bc9160c060020a810482169160a860020a90910416615414565b6134c6919061546f565b6134d091906154bb565b62ffffff8481166000908152600e602052604081205492821693509160029161350291606060020a9004166001615414565b61350c919061546f565b62ffffff8086166000908152600e602052604090206001810154905460029261353f9281169160d860020a900416615414565b613549919061546f565b61355391906154bb565b62ffffff1690508082101561356d5760009250505061088d565b6135778183615528565b9250505061088d565b62ffffff8084166000908152600e6020526040902054607860020a90041682106135df5762ffffff83166000908152600e60205260409020805471ffffff000000000000000000000000000000191690556135da846141fa565b613724565b62ffffff8084166000908152600e6020526040902054613608918491607860020a900416615504565b62ffffff8481166000908152600e6020526040808220805471ffffff0000000000000000000000000000001916607860020a958516860217905587831682529020549190910416811061368b5762ffffff84166000908152600e60205260409020805471ffffff000000000000000000000000000000191690556135da836141fa565b62ffffff8085166000908152600e60205260409020546136b4918391607860020a900416615504565b62ffffff8581166000908152600e60205260409020805471ffffff0000000000000000000000000000001916607860020a939092169290920217905580821115613701576135da846141fa565b81811115613712576135da836141fa565b61371b846141fa565b613724836141fa565b6040805162ffffff808716825285166020820152908101839052606081018290527f91ad1d4c0919e1b53fbdcec65d7dc46d5f6d4de4cbeeeef5e6f1f107d0f4e28e9060800160405180910390a150505050565b81518351146137f25760405160e560020a62461bcd02815260206004820152602860248201527f455243313135353a2069647320616e6420616d6f756e7473206c656e6774682060448201527f6d69736d617463680000000000000000000000000000000000000000000000006064820152608401610861565b600160a060020a03841661381b5760405160e560020a62461bcd0281526004016108619061520a565b3360005b845181101561390557600085828151811061383c5761383c61569b565b60200260200101519050600085838151811061385a5761385a61569b565b60209081029190910181015160008481528083526040808220600160a060020a038e1683529093529190912054909150818110156138ad5760405160e560020a62461bcd028152600401610861906152c4565b600083815260208181526040808320600160a060020a038e8116855292528083208585039055908b168252812080548492906138ea908490615432565b92505081905550505050806138fe906155df565b905061381f565b5084600160a060020a031686600160a060020a031682600160a060020a03167f4a39dc06d4c0dbc64b70af90fd698a233a518aa5d07e595d983b8c0526c8f7fb878760405161395592919061513e565b60405180910390a461396b818787878787614441565b505050505050565b600160a060020a0383166139f25760405160e560020a62461bcd02815260206004820152602360248201527f455243313135353a206275726e2066726f6d20746865207a65726f206164647260448201527f65737300000000000000000000000000000000000000000000000000000000006064820152608401610861565b33613a2281856000613a03876145f0565b613a0c876145f0565b5050604080516020810190915260009052505050565b600083815260208181526040808320600160a060020a038816845290915290205482811015613abb5760405160e560020a62461bcd028152602060048201526024808201527f455243313135353a206275726e20616d6f756e7420657863656564732062616c60448201527f616e6365000000000000000000000000000000000000000000000000000000006064820152608401610861565b600084815260208181526040808320600160a060020a03898116808652918452828520888703905582518981529384018890529092908616917fc3d58168c5ae7397731d063d5bbf3d657854427343f4c083240f7aacaa2d0f62910160405180910390a45050505050565b60038054600160a060020a0383811673ffffffffffffffffffffffffffffffffffffffff19831681179093556040519116919082907f8be0079c531659141344cd1fd0a4f28419497f9722a3daafe3b4186f6b6457e090600090a35050565b600160a060020a038416613c045760405160e560020a62461bcd02815260206004820152602160248201527f455243313135353a206d696e7420746f20746865207a65726f2061646472657360448201527f73000000000000000000000000000000000000000000000000000000000000006064820152608401610861565b33613c1e81600087613c15886145f0565b610d65886145f0565b600084815260208181526040808320600160a060020a038916845290915281208054859290613c4e908490615432565b90915550506040805185815260208101859052600160a060020a0380881692600092918516917fc3d58168c5ae7397731d063d5bbf3d657854427343f4c083240f7aacaa2d0f62910160405180910390a4610d658160008787878761463b565b81600160a060020a031683600160a060020a03161415613d395760405160e560020a62461bcd02815260206004820152602960248201527f455243313135353a2073657474696e6720617070726f76616c2073746174757360448201527f20666f722073656c6600000000000000000000000000000000000000000000006064820152608401610861565b600160a060020a03838116600081815260016020908152604080832094871680845294825291829020805460ff191686151590811790915591519182527f17307eab39ab6107e8899845ad3d59bd9653f200f220920489ca2b5937696c31910160405180910390a3505050565b600d5460ff16613dc95780613db96126ff565b613dc3919061563c565b600c5550565b6040805142602080830191909152448284015233606060020a0260608301528251605481840301815260749092019092528051910120613dc390829061563c565b60408051600480825260a08201909252606091600091906020820160808036833701905050905060005b60048160ff161015613eab576003613e4d82600a61544a565b60ff16600c54613e5d919061563c565b613e67919061563c565b613e7290600361544a565b828260ff1681518110613e8757613e8761569b565b60ff9092166020928302919091019091015280613ea3816155fa565b915050613e34565b50919050565b60007f0000000000000000000000000000000000000000000000000000000000000000600160a060020a0316634000aea07f000000000000000000000000000000000000000000000000000000000000000084866000604051602001613f21929190918252602082015260400190565b60408051601f198184030181529082905260e060020a63ffffffff8616028252613f4f9392916004016150ab565b602060405180830381600087803b158015613f6957600080fd5b505af1158015613f7d573d6000803e3d6000fd5b505050506040513d601f19601f82011682018060405250810190613fa19190614b89565b50600083815260046020818152604080842054815180840189905280830186905230606082015260808082018390528351808303909101815260a090910190925281519183019190912093879052919052613ffd906001615432565b60008581526004602052604090205561403d8482604080516020808201949094528082019290925280518083038201815260609092019052805191012090565b949350505050565b600160a060020a03841661406e5760405160e560020a62461bcd0281526004016108619061520a565b3361407e818787613c15886145f0565b600084815260208181526040808320600160a060020a038a168452909152902054838110156140c25760405160e560020a62461bcd028152600401610861906152c4565b600085815260208181526040808320600160a060020a038b81168552925280832087850390559088168252812080548692906140ff908490615432565b90915550506040805186815260208101869052600160a060020a03808916928a821692918616917fc3d58168c5ae7397731d063d5bbf3d657854427343f4c083240f7aacaa2d0f62910160405180910390a46129ae82888888888861463b565b6000600160e060020a031982167fd9b67a260000000000000000000000000000000000000000000000000000000014806141c25750600160e060020a031982167f0e89341c00000000000000000000000000000000000000000000000000000000145b8061088d57507f01ffc9a700000000000000000000000000000000000000000000000000000000600160e060020a031983161461088d565b62ffffff8082166000908152600e602052604090208054606060020a900490911690600c614227836155c6565b82546101009290920a62ffffff8181021990931691831602179091558281166000908152600e602052604090205461426b9250600a91606060020a9091041661561a565b62ffffff166112035762ffffff81166000908152600e6020526040902080546a0100000000000000000000900461ffff1690600a6142a8836155a4565b825461ffff9182166101009390930a92830291909202199091161790555062ffffff8082166000908152600e602052604090206001018054600a926003916142f99185916301000000900416615414565b825461010092830a62ffffff818102199092169282160291909117909255600d549184166000908152600e60205260409020549104600160a060020a031691506324ff2acc90339061435e906a0100000000000000000000900461ffff16600a615491565b6143699060646153ee565b61437f9061ffff16670de0b6b3a76400006154dd565b60405160e060020a63ffffffff8516028152600160a060020a03909216600483015267ffffffffffffffff166024820152604401600060405180830381600087803b1580156143cd57600080fd5b505af11580156143e1573d6000803e3d6000fd5b5050505062ffffff81166000818152600e60209081526040918290205482519384526a0100000000000000000000900461ffff16908301527f719792e6ed880d27219754d543fad5ae2f877eeff920d283bb067052d89378119101610f38565b600160a060020a0384163b1561396b576040517fbc197c81000000000000000000000000000000000000000000000000000000008152600160a060020a0385169063bc197c819061449e908990899088908890889060040161500a565b602060405180830381600087803b1580156144b857600080fd5b505af19250505080156144e8575060408051601f3d908101601f191682019092526144e591810190614be5565b60015b6145a4576144f46156cd565b806308c379a0141561453157506145096156ed565b806145145750614533565b8060405160e560020a62461bcd0281526004016108619190615163565b505b60405160e560020a62461bcd02815260206004820152603460248201527f455243313135353a207472616e7366657220746f206e6f6e204552433131353560448201527f526563656976657220696d706c656d656e7465720000000000000000000000006064820152608401610861565b600160e060020a031981167fbc197c8100000000000000000000000000000000000000000000000000000000146129ae5760405160e560020a62461bcd02815260040161086190615176565b6040805160018082528183019092526060916000919060208083019080368337019050509050828160008151811061462a5761462a61569b565b602090810291909101015292915050565b600160a060020a0384163b1561396b576040517ff23a6e61000000000000000000000000000000000000000000000000000000008152600160a060020a0385169063f23a6e61906146989089908990889088908890600401615068565b602060405180830381600087803b1580156146b257600080fd5b505af19250505080156146e2575060408051601f3d908101601f191682019092526146df91810190614be5565b60015b6146ee576144f46156cd565b600160e060020a031981167ff23a6e6100000000000000000000000000000000000000000000000000000000146129ae5760405160e560020a62461bcd02815260040161086190615176565b6040805161020081018252600080825260208201819052918101829052606081018290526080810182905260a0810182905260c0810182905260e08101829052610100810182905261012081018290526101408101829052610160810182905261018081018290526101a08101829052906101c082019081526020016000905290565b8035600160a060020a03811681146147d457600080fd5b919050565b600082601f8301126147ea57600080fd5b813560206147f7826153ca565b6040516148048282615577565b83815282810191508583018385028701840188101561482257600080fd5b60005b8581101561484157813584529284019290840190600101614825565b5090979650505050505050565b600082601f83011261485f57600080fd5b813567ffffffffffffffff811115614879576148796156b4565b604051614890601f8301601f191660200182615577565b8181528460208386010111156148a557600080fd5b816020850160208301376000918101602001919091529392505050565b8035600281106147d457600080fd5b803562ffffff811681146147d457600080fd5b803560ff811681146147d457600080fd5b60006020828403121561490757600080fd5b614910826147bd565b9392505050565b6000806040838503121561492a57600080fd5b614933836147bd565b9150614941602084016147bd565b90509250929050565b600080600080600060a0868803121561496257600080fd5b61496b866147bd565b9450614979602087016147bd565b9350604086013567ffffffffffffffff8082111561499657600080fd5b6149a289838a016147d9565b945060608801359150808211156149b857600080fd5b6149c489838a016147d9565b935060808801359150808211156149da57600080fd5b506149e78882890161484e565b9150509295509295909350565b600080600080600060a08688031215614a0c57600080fd5b614a15866147bd565b9450614a23602087016147bd565b93506040860135925060608601359150608086013567ffffffffffffffff811115614a4d57600080fd5b6149e78882890161484e565b60008060408385031215614a6c57600080fd5b614a75836147bd565b91506020830135614a8581615777565b809150509250929050565b60008060408385031215614aa357600080fd5b614aac836147bd565b946020939093013593505050565b60008060408385031215614acd57600080fd5b823567ffffffffffffffff80821115614ae557600080fd5b818501915085601f830112614af957600080fd5b81356020614b06826153ca565b604051614b138282615577565b8381528281019150858301838502870184018b1015614b3157600080fd5b600096505b84871015614b5b57614b47816147bd565b835260019690960195918301918301614b36565b5096505086013592505080821115614b7257600080fd5b50614b7f858286016147d9565b9150509250929050565b600060208284031215614b9b57600080fd5b815161491081615777565b60008060408385031215614bb957600080fd5b50508035926020909101359150565b600060208284031215614bda57600080fd5b813561491081615785565b600060208284031215614bf757600080fd5b815161491081615785565b60008060408385031215614c1557600080fd5b8235614c208161579b565b91506020830135614a858161579b565b600060208284031215614c4257600080fd5b614910826148d1565b60008060408385031215614c5e57600080fd5b614c67836148d1565b9150614941602084016148d1565b600080600080600060a08688031215614c8d57600080fd5b614c96866148d1565b9450614ca4602087016148d1565b9350614cb2604087016148d1565b9250614cc0606087016148d1565b9150614cce608087016148d1565b90509295509295909350565b60008060408385031215614ced57600080fd5b614cf6836148d1565b9150614941602084016148e4565b600060208284031215614d1657600080fd5b5035919050565b600060208284031215614d2f57600080fd5b5051919050565b60008060008060008060c08789031215614d4f57600080fd5b86359550614d5f602088016148e4565b9450614d6d604088016148e4565b9350614d7b606088016148e4565b9250614d89608088016148e4565b9150614d9760a088016148c2565b90509295509295509295565b600060208284031215614db557600080fd5b614910826148e4565b600080600080600080600060e0888a031215614dd957600080fd5b614de2886148e4565b965060208801359550614df7604089016148e4565b9450614e05606089016148e4565b9350614e13608089016148e4565b9250614e2160a089016148e4565b9150614e2f60c089016148c2565b905092959891949750929550565b600081518084526020808501945080840160005b83811015614e6d57815187529582019590820190600101614e51565b509495945050505050565b6000815180845260005b81811015614e9e57602081850181015186830182015201614e82565b81811115614eb0576000602083870101525b50601f01601f19169290920160200192915050565b60038110614ed557614ed5615682565b9052565b805162ffffff1682526020810151614efc602084018266ffffffffffffff169052565b506040810151614f12604084018261ffff169052565b506060810151614f29606084018262ffffff169052565b506080810151614f40608084018262ffffff169052565b5060a0810151614f5760a084018262ffffff169052565b5060c0810151614f6e60c084018262ffffff169052565b5060e0810151614f8560e084018262ffffff169052565b506101008181015162ffffff908116918401919091526101208083015182169084015261014080830151909116908301526101608082015160ff9081169184019190915261018080830151909116908301526101a080820151908301526101c080820151614ff582850182614ec5565b50506101e080820151610c1e82850182614ec5565b6000600160a060020a03808816835280871660208401525060a0604083015261503660a0830186614e3d565b82810360608401526150488186614e3d565b9050828103608084015261505c8185614e78565b98975050505050505050565b6000600160a060020a03808816835280871660208401525084604083015283606083015260a060808301526150a060a0830184614e78565b979650505050505050565b600160a060020a03841681528260208201526060604082015260006150d36060830184614e78565b95945050505050565b6020808252825182820181905260009190848201906040850190845b8181101561511f5761510b838551614ed9565b9284019261020092909201916001016150f8565b50909695505050505050565b6020815260006149106020830184614e3d565b6040815260006151516040830185614e3d565b82810360208401526150d38185614e3d565b6020815260006149106020830184614e78565b60208082526028908201527f455243313135353a204552433131353552656365697665722072656a6563746560408201527f6420746f6b656e73000000000000000000000000000000000000000000000000606082015260800190565b60208082526016908201527f596f7520646f6e2774206f776e2074686973204e465400000000000000000000604082015260600190565b60208082526025908201527f455243313135353a207472616e7366657220746f20746865207a65726f20616460408201527f6472657373000000000000000000000000000000000000000000000000000000606082015260800190565b60208082526022908201527f596f752772652063686172616374657220697320616c7265616479207265737460408201527f6564000000000000000000000000000000000000000000000000000000000000606082015260800190565b6020808252602a908201527f455243313135353a20696e73756666696369656e742062616c616e636520666f60408201527f72207472616e7366657200000000000000000000000000000000000000000000606082015260800190565b6020808252818101527f4f776e61626c653a2063616c6c6572206973206e6f7420746865206f776e6572604082015260600190565b610200810161088d8284614ed9565b600060c08201905060ff835116825260ff602084015116602083015260ff604084015116604083015260ff606084015116606083015260ff608084015116608083015260a0830151600281106153bd576153bd615682565b8060a08401525092915050565b600067ffffffffffffffff8211156153e4576153e46156b4565b5060209081020190565b600061ffff80831681851680830382111561540b5761540b615650565b01949350505050565b600062ffffff80831681851680830382111561540b5761540b615650565b6000821982111561544557615445615650565b500190565b600060ff821660ff84168060ff0382111561546757615467615650565b019392505050565b600062ffffff8084168061548557615485615669565b92169190910492915050565b600061ffff808316818516818304811182151516156154b2576154b2615650565b02949350505050565b600062ffffff808316818516818304811182151516156154b2576154b2615650565b600067ffffffffffffffff808316818516818304811182151516156154b2576154b2615650565b600062ffffff8381169083168181101561552057615520615650565b039392505050565b60008282101561553a5761553a615650565b500390565b60028104600182168061555357607f821691505b60208210811415613eab5760e060020a634e487b7102600052602260045260246000fd5b601f8201601f1916810167ffffffffffffffff8111828210171561559d5761559d6156b4565b6040525050565b600061ffff808316818114156155bc576155bc615650565b6001019392505050565b600062ffffff808316818114156155bc576155bc615650565b60006000198214156155f3576155f3615650565b5060010190565b600060ff821660ff81141561561157615611615650565b60010192915050565b600062ffffff8084168061563057615630615669565b92169190910692915050565b60008261564b5761564b615669565b500690565b60e060020a634e487b7102600052601160045260246000fd5b60e060020a634e487b7102600052601260045260246000fd5b60e060020a634e487b7102600052602160045260246000fd5b60e060020a634e487b7102600052603260045260246000fd5b60e060020a634e487b7102600052604160045260246000fd5b600060033d11156156ea5760046000803e60e060020a6000510490505b90565b600060443d10156156fb5790565b6040516003193d81016004833e81513d67ffffffffffffffff816024840111818411171561572b57505050505090565b82850191508151818111156157435750505050505090565b843d870101602082850101111561575d5750505050505090565b61576c60208286010187615577565b509095945050505050565b801515811461120357600080fd5b600160e060020a03198116811461120357600080fd5b6003811061120357600080fdfea26469706673582212207d5c6613a6051d44046ae267a4f5a2b58e2a80e6fe267f81e8eb18cae0ab260a64736f6c63430008070033",
  "immutableReferences": {
    "73": [
      {
        "length": 32,
        "start": 9794
      },
      {
        "length": 32,
        "start": 10044
      },
      {
        "length": 32,
        "start": 16053
      }
    ],
    "75": [
      {
        "length": 32,
        "start": 6218
      },
      {
        "length": 32,
        "start": 16100
      }
    ]
  },
  "source": "// SPDX-License-Identifier: MIT\r\npragma solidity 0.8.7;\r\n\r\nimport \"@openzeppelin/contracts/token/ERC1155/ERC1155.sol\";\r\nimport \"@openzeppelin/contracts/token/ERC1155/utils/ERC1155Holder.sol\";\r\nimport \"@openzeppelin/contracts/access/Ownable.sol\";\r\nimport \"./RandomNumberGenerator.sol\";\r\nimport \"./UnlimitedToken.sol\";\r\n\r\n// // Interface to mint for lvl up\r\n// interface UnlimitedToken {\r\n//     function levelUpMint(address receiver, uint amount) external;\r\n// }\r\n\r\n/** @title Unlimited Evolution */\r\ncontract UnlimitedEvolution is ERC1155, ERC1155Holder, Ownable, RandomNumberGenerator {\r\n\r\n    /**\r\n     * @dev Allows you to receive ERC1155 tokens and therefore make external calls to mint.\r\n     * @param interfaceId Id of the interface.\r\n     */\r\n    function supportsInterface(bytes4 interfaceId) public view virtual override(ERC1155, ERC1155Receiver) returns(bool) {\r\n        return super.supportsInterface(interfaceId);\r\n    }\r\n\r\n    uint8 constant BASIC_SWORD = 1;\r\n    uint8 constant BASIC_SHIELD = 2;\r\n    uint8 constant EXCALIBUR = 3;\r\n    uint8 constant AEGIS = 4;\r\n    uint8 constant POTION = 5;\r\n    uint8 nextStuffId = 6;\r\n    uint24 nextCharacterId = 256;\r\n    uint24 limitMint = 4000;\r\n    uint24[] countMints = new uint8[](3);\r\n    uint256 mintFee = 0.001 ether;\r\n    uint256 stuffFee = 0.001 ether;\r\n    uint256 randomNumber;\r\n    // Only for tests, to avoid chainlink\r\n    bool public testMode;\r\n    \r\n    UnlimitedToken public unlimitedToken;\r\n    // address public tokenAddress;\r\n\r\n    enum type_character { BRUTE, SPIRITUAL, ELEMENTARY }\r\n    enum gender_character { MASCULINE, FEMININE, OTHER }\r\n    enum type_stuff { WEAPON, SHIELD }\r\n\r\n    struct Character {\r\n        uint24 id;\r\n        uint56 dna;\r\n        uint16 level;\r\n        uint24 xp;\r\n        uint24 hp;\r\n        uint24 stamina;\r\n        uint24 attack1;\r\n        uint24 attack2;\r\n        uint24 defence1;\r\n        uint24 defence2;\r\n        uint24 attributePoints;\r\n        uint8 weapon;\r\n        uint8 shield;\r\n        uint256 lastRest;\r\n        type_character typeCharacter;\r\n        gender_character genderCharacter;\r\n    }\r\n\r\n    struct Stuff {\r\n        uint8 id;\r\n        uint8 bonusAttack1;\r\n        uint8 bonusAttack2;\r\n        uint8 bonusDefence1;\r\n        uint8 bonusDefence2;\r\n        type_stuff typeStuff;\r\n    }\r\n\r\n    // Mapping from token ID to token details\r\n    mapping(uint24 => Character) private _characterDetails;\r\n\r\n    // Mapping from token ID to token details\r\n    mapping(uint8 => Stuff) private _stuffDetails;\r\n\r\n    // Mapping from account to his number of NFTs\r\n    mapping(address => uint8) private _balanceOfCharacters;\r\n\r\n    /**\r\n     * @dev Constructor of the contract ERC1155, mint stuff and add it to the mapping\r\n     */\r\n    constructor(UnlimitedToken _unlimitedTokenAddress) ERC1155(\"\") {\r\n        unlimitedToken = _unlimitedTokenAddress;\r\n        _mint(address(this), BASIC_SWORD, 10**5, \"\");\r\n        _stuffDetails[BASIC_SWORD] = Stuff(BASIC_SWORD, 2, 2, 0, 0, type_stuff.WEAPON);\r\n        _mint(address(this), BASIC_SHIELD, 10**5, \"\");\r\n        _stuffDetails[BASIC_SHIELD] = Stuff(BASIC_SHIELD, 0, 0, 2, 2, type_stuff.SHIELD);\r\n        _mint(address(this), EXCALIBUR, 1, \"\");\r\n        _stuffDetails[EXCALIBUR] = Stuff(EXCALIBUR, 10, 10, 10, 10, type_stuff.WEAPON);\r\n        _mint(address(this), AEGIS, 1, \"\");\r\n        _stuffDetails[AEGIS] = Stuff(AEGIS, 10, 10, 10, 10, type_stuff.SHIELD); \r\n        _mint(address(this), POTION, 10**6, \"\");\r\n    }\r\n\r\n    /**\r\n     * @dev Emitted when the character with \"id\" is created.\r\n     */\r\n    event CharacterCreated(uint24 id);\r\n\r\n    /**\r\n     * @dev Emitted when the character with \"id\" is rested, he recovers health points and stamina.\r\n     */\r\n    event Rested(uint24 tokenId);\r\n\r\n    /**\r\n     * @dev Emitted when the character with \"myTokenId\" removes \"substrateLifeToRival\" points of hp to \"rivalTokenId\" and the character with \"rivalTokenId\" removes \"substrateLifeToMe\" points of hp to \"myTokenId\".\r\n     */\r\n    event Fighted(uint24 myTokenId, uint24 rivalTokenId, uint256 substrateLifeToRival, uint256 substrateLifeToMe);\r\n    \r\n    /**\r\n     * @dev Emitted when the character with \"tokenId\" has gained enough experience points to increase one level.\r\n     */\r\n    event LevelUp(uint24 tokenId, uint16 level);\r\n\r\n    /**\r\n     * @dev Emitted when the owner changes the ether fee for minting, with the amount \"mintFee\".\r\n     */\r\n    event MintFeeUpdated(uint256 mintFee);\r\n\r\n    /**\r\n     * @dev Emitted when the owner changes the ether fee for buying stuff, with the amount \"stuffFee\".\r\n     */\r\n    event StuffFeeUpdated(uint256 stuffFee);\r\n\r\n    /**\r\n     * @dev Emitted when the owner changes the mintable NFT limit with the amount \"limitMint\".\r\n     */\r\n    event LimitUpdated(uint24 limitMint);\r\n\r\n    /**\r\n     * @dev Emitted when the msg.sender buy a stuff \".\r\n     */\r\n    event StuffBought(uint8 stuffId);\r\n\r\n    /**\r\n     * @dev Emitted when the msg.sender burn a potion.\r\n     */\r\n    event StuffEquiped(uint24 tokenId, uint8 stuffId);\r\n\r\n    /**\r\n     * @dev Emitted when the msg.sender burn a potion.\r\n     */\r\n    event PotionUsed(uint24 tokenId);\r\n\r\n    /** Reflexion: Vraiment utile ?\r\n     * @dev The function changes the ERC20 token address\r\n     * @param _tokenAddress New token address.\r\n     */\r\n    function setTokenAddress(address _tokenAddress) external onlyOwner {\r\n        unlimitedToken = UnlimitedToken(_tokenAddress);\r\n    }\r\n    \r\n    /**\r\n     * @dev The function changes the ether fee for minting.\r\n     * @param _mintFee New amount of fee.\r\n     * Emits a \"MintFeeUpdated\" event.\r\n     */\r\n    function updateMintFee(uint256 _mintFee) external onlyOwner {\r\n        mintFee = _mintFee;\r\n        emit MintFeeUpdated(mintFee);\r\n    }\r\n\r\n    /**\r\n     * @dev The function changes the ether fee for buying stuff.\r\n     * @param _stuffFee New amount of stuff fee.\r\n     * Emits a \"StuffFeeUpdated\" event.\r\n     */\r\n    function updateStuffFee(uint256 _stuffFee) external onlyOwner {\r\n        stuffFee = _stuffFee;\r\n        emit StuffFeeUpdated(stuffFee);\r\n    }\r\n\r\n    /**\r\n     * @dev The function changes the mintable NFT limit.\r\n     * @param _limitMint New limit of mintable NFT.\r\n     * Emits a \"LimitUpdated\" event.\r\n     */\r\n    function updateLimitMint(uint24 _limitMint) external onlyOwner {\r\n        limitMint = _limitMint;\r\n        emit LimitUpdated(limitMint);\r\n    }\r\n    \r\n    /**\r\n     * @dev Owner withdraws the entire amount of ETH.\r\n     */\r\n    function withdraw() external onlyOwner {\r\n        payable(owner()).transfer(address(this).balance);\r\n    }\r\n\r\n    /**\r\n     * @dev Owner withdraws an amount of LINK.\r\n     * @param value Value of LINK.\r\n     */\r\n    function withdrawLINK(uint256 value) external onlyOwner {\r\n        LINK.transfer(owner(), value);\r\n    }\r\n\r\n    /**\r\n     * @dev Tip to simulate the function ownerOf of ERC721, check if msg.sender is owner of the token.\r\n     * @param _tokenId Id of the token.\r\n     * @return Boolean, true of false.\r\n     */\r\n    function _ownerOf(uint256 _tokenId) private view returns(bool) {\r\n        return balanceOf(msg.sender, _tokenId) != 0;\r\n    }\r\n\r\n    /**\r\n     * @dev Allows you to create a new Stuff.\r\n     * Warning: Prefer to use createStuff() rather than manageStuff(), more secure with nextStuffId.\r\n     * @param amount Amount of NFT mintable.\r\n     * @param bonusAttack1 Bonus value attack1.\r\n     * @param bonusAttack2 Bonus value attack2.\r\n     * @param bonusDefence1 Bonus value defence1.\r\n     * @param bonusDefence2 Bonus value defence2.\r\n     * @param typeStuff Type of the stuff.\r\n     */\r\n    function createStuff(uint256 amount, uint8 bonusAttack1, uint8 bonusAttack2, uint8 bonusDefence1, uint8 bonusDefence2, type_stuff typeStuff) external onlyOwner {\r\n        require(nextStuffId < 256, \"The NFT Stuff limit is reached\");\r\n        _mint(address(this), nextStuffId, amount, \"\");\r\n        _stuffDetails[nextStuffId] = Stuff(nextStuffId, bonusAttack1, bonusAttack2, bonusDefence1, bonusDefence2, typeStuff);\r\n        nextStuffId++;\r\n    }\r\n\r\n    /**\r\n     * @dev Allows you to create a new Stuff/Consumable and to modify the quantity, statistics and type of an existing NFT Stuff.\r\n     * Warning: Be extremely careful with this function ! If you want to create a new NFT Stuff, prefer to use createStuff() !\r\n     * @param stuffId Id of the stuff.\r\n     * @param amount Amount of NFT mintable.\r\n     * @param bonusAttack1 Bonus value attack1.\r\n     * @param bonusAttack2 Bonus value attack2.\r\n     * @param bonusDefence1 Bonus value defence1.\r\n     * @param bonusDefence2 Bonus value defence2.\r\n     * @param typeStuff Type of the stuff.\r\n     */\r\n    function manageStuff(uint8 stuffId, uint256 amount, uint8 bonusAttack1, uint8 bonusAttack2, uint8 bonusDefence1, uint8 bonusDefence2, type_stuff typeStuff) external onlyOwner {\r\n        _mint(address(this), stuffId, amount, \"\");\r\n        if (stuffId != 5) {\r\n            _stuffDetails[stuffId] = Stuff(stuffId, bonusAttack1, bonusAttack2, bonusDefence1, bonusDefence2, typeStuff);\r\n        }\r\n    }\r\n\r\n    /**\r\n     * @dev The function uses the chainlink requestRandomness of VRFConsumerBase.\r\n     * @param _mod Length of number, needed (modulo).\r\n     */\r\n    function _generateRandomNumber(uint256 _mod) private {\r\n        if (!testMode) { // Only for tests, to avoid chainlink\r\n            randomNumber = uint256(getRandomNumber()) % _mod;\r\n        } else {\r\n            randomNumber = uint256(keccak256(abi.encodePacked(block.timestamp, block.difficulty, msg.sender))) % _mod;\r\n        }\r\n    }\r\n\r\n    /**\r\n     * @dev The function assigns a number between 3 and 5 randomly to the attack characteristics using \"randomNumber\".\r\n     * @return Array of number (attributes).\r\n     */\r\n    function _attributesMintDistribution() private view returns(uint8[] memory) {\r\n        uint8[] memory _attributes = new uint8[](4);\r\n        for(uint8 i=0; i<4; i++) {\r\n            _attributes[i] = 3 + uint8((randomNumber % (10+i)) % 3);\r\n        }\r\n        return _attributes;\r\n    }\r\n\r\n    /**\r\n     * @dev One experience point is added and if the experience number reaches % 10 == 0 then the NFT increases one level and gains 10 points to attribute to his stats.\r\n     * @param _tokenId Id of the token.\r\n     * Emits a \"LevelUp\" event.\r\n     */\r\n    function _xpLevelUp(uint24 _tokenId) private {\r\n        _characterDetails[_tokenId].xp++;\r\n        if (_characterDetails[_tokenId].xp % 10 == 0) {\r\n            _characterDetails[_tokenId].level++;\r\n            _characterDetails[_tokenId].attributePoints += 10;\r\n            unlimitedToken.levelUpMint(msg.sender, (100+10*_characterDetails[_tokenId].level)*10**18);\r\n            emit LevelUp(_tokenId, _characterDetails[_tokenId].level);\r\n        }\r\n    }\r\n\r\n    /**\r\n     * @dev The function allows the allocation of \"attributePoints\" to the different characteristics.\r\n     * @param _tokenId Id of the token.\r\n     * @param _attack1 Attack number 1 of the token.\r\n     * @param _attack2 Attack number 2 of the token.\r\n     * @param _defence1 Defence number 1 of the token.\r\n     * @param _defence2 Defence number 2 of the token.\r\n     */\r\n    function attributesLevelUp(uint24 _tokenId, uint24 _attack1, uint24 _attack2, uint24 _defence1, uint24 _defence2) external {\r\n        uint256 totalPoints = _attack1 + _attack2 + _defence1 + _defence2;\r\n        require(_characterDetails[_tokenId].attributePoints == totalPoints, \"Wrong amount of points to attribute\");\r\n        _characterDetails[_tokenId].attack1 += _attack1;\r\n        _characterDetails[_tokenId].attack2 += _attack2;\r\n        _characterDetails[_tokenId].defence1 += _defence1;\r\n        _characterDetails[_tokenId].defence2 += _defence2;\r\n    }\r\n\r\n    /**\r\n     * @dev Fight algorithm: attack, defence and experience points are taken into account to determine a winner.\r\n     * @param _id1 Id of the token number 1.\r\n     * @param _id2 Id of the token number 2.\r\n     * @return Number resulting from fight operations.\r\n     */\r\n    function _substrateLife(uint24 _id1, uint24 _id2) private view returns(uint256) {\r\n        uint256 op1 = ((_characterDetails[_id1].attack1 + _characterDetails[_id1].attack2) / 2) * (1 + _characterDetails[_id1].xp);\r\n        uint256 op2 = ((_characterDetails[_id2].defence1 + _characterDetails[_id2].defence2 ) / 2) * ((1 + _characterDetails[_id2].xp) / 2);\r\n        if (op1 < op2) {\r\n            return 0;\r\n        } else {\r\n            return op1 - op2;\r\n        }\r\n    }\r\n\r\n    /**\r\n     * @dev The Function manages the different scenarios during a fight.\r\n     * @param _myTokenId Id of the token number 1.\r\n     * @param _rivalTokenId Id of the token number 2.\r\n     * @param _substrateLifeToRival Number of life points to remove from _rivalTokenId.\r\n     * @param _substrateLifeToMe Number of life points to remove from _myTokenId.\r\n     * Emits a \"Fighted\" event.\r\n     */\r\n    function _subtrateLifeOperation(uint24 _myTokenId, uint24 _rivalTokenId, uint256 _substrateLifeToRival, uint256 _substrateLifeToMe) private {\r\n        if(_substrateLifeToRival >= _characterDetails[_rivalTokenId].hp) {\r\n            _characterDetails[_rivalTokenId].hp = 0;\r\n            _xpLevelUp(_myTokenId);\r\n        } else {\r\n            _characterDetails[_rivalTokenId].hp = _characterDetails[_rivalTokenId].hp - uint24(_substrateLifeToRival);\r\n            if(_substrateLifeToMe >= _characterDetails[_myTokenId].hp) {\r\n                _characterDetails[_myTokenId].hp = 0;\r\n                _xpLevelUp(_rivalTokenId);\r\n            } else {\r\n                _characterDetails[_myTokenId].hp = _characterDetails[_myTokenId].hp - uint24(_substrateLifeToMe);\r\n                if (_substrateLifeToRival > _substrateLifeToMe) {\r\n                    _xpLevelUp(_myTokenId);\r\n                } else if (_substrateLifeToMe > _substrateLifeToRival) {\r\n                    _xpLevelUp(_rivalTokenId);\r\n                } else {\r\n                    _xpLevelUp(_myTokenId);\r\n                    _xpLevelUp(_rivalTokenId);\r\n                }\r\n            }\r\n        }\r\n        emit Fighted(_myTokenId, _rivalTokenId, _substrateLifeToRival, _substrateLifeToMe);\r\n    }\r\n\r\n    /**\r\n     * @dev The Function mint an NFT.\r\n     * @param _typeCharacter Type of character between BRUTE, SPIRITUAL, ELEMENTARY.\r\n     * @param _genderCharacter Gender of character between MASCULINE, FEMININE, OTHER.\r\n     * Emits a \"CharacterCreated\" event.\r\n     */\r\n    function createCharacter(type_character _typeCharacter, gender_character _genderCharacter) external payable {\r\n        require(msg.value == mintFee, \"Wrong amount of fees\");\r\n        require(_balanceOfCharacters[msg.sender] < 5, \"You can't have more than 5 NFT\");\r\n        require(countMints[uint8(_typeCharacter)] <= limitMint, \"You cannot mint more character with this class\");\r\n        _generateRandomNumber(10**16);\r\n        uint8[] memory _attributes = _attributesMintDistribution();\r\n        _characterDetails[nextCharacterId] = Character(nextCharacterId, uint56(randomNumber), 1, 1, 100, 100, _attributes[0], _attributes[1], _attributes[2], _attributes[3], 0, 0, 0, 0, _typeCharacter, _genderCharacter);\r\n        _balanceOfCharacters[msg.sender]++;\r\n        countMints[uint8(_typeCharacter)]++;\r\n        _mint(msg.sender, nextCharacterId, 1, \"\");\r\n        emit CharacterCreated(nextCharacterId);\r\n        nextCharacterId++;\r\n    }\r\n\r\n    /**\r\n     * @dev The function allows the NFT to recover 100 health points and 100 stamina points.\r\n     * @param _tokenId Id of the token.\r\n     * Emits a \"Rested\" event.\r\n     */\r\n    // TODO: ajouter timestamp et systme d'immobilisation, faire les tests et ajouter l'explication au fichier tests_explication\r\n    function rest(uint24 _tokenId) external {\r\n        require(_ownerOf(_tokenId), \"You don't own this NFT\");\r\n        require(_characterDetails[_tokenId].stamina < 100 && _characterDetails[_tokenId].hp < 100, \"You're character is already rested\");\r\n        // _characterDetails[_tokenId].lastRest = block.timestamp;\r\n        _characterDetails[_tokenId].stamina = 100;\r\n        _characterDetails[_tokenId].hp = 100;\r\n        emit Rested(_tokenId);\r\n    }\r\n\r\n    /**\r\n     * @dev The function allows you to use your NFT to fight with another NFT belonging to another user.\r\n     * @param _myTokenId Id of the fighter number 1.\r\n     * @param _rivalTokenId Id of the fighter number 2.\r\n     */\r\n    function fight(uint24 _myTokenId, uint24 _rivalTokenId) external {\r\n        require(_ownerOf(_myTokenId), \"You don't own this NFT\");\r\n        require(_ownerOf(_myTokenId) != _ownerOf(_rivalTokenId), \"Your NFTs cannot fight each other\");\r\n        // require(_characterDetails[_myTokenId].lastRest + 86400 < block.timestamp, \"You're character is resting\");\r\n        require(_characterDetails[_myTokenId].stamina >= 10, \"Not enough stamina\");\r\n        require(_characterDetails[_myTokenId].level <= _characterDetails[_rivalTokenId].level, \"Fight someone your own size!\");\r\n        require(_characterDetails[_myTokenId].hp > 0 && _characterDetails[_rivalTokenId].hp > 0, \"One of the NFTs is dead\");\r\n        uint256 _substrateLifeToRival = _substrateLife(_myTokenId, _rivalTokenId);\r\n        uint256 _substrateLifeToMe = _substrateLife(_rivalTokenId, _myTokenId);\r\n        _characterDetails[_myTokenId].stamina = _characterDetails[_myTokenId].stamina - 10;\r\n        _subtrateLifeOperation(_myTokenId, _rivalTokenId, _substrateLifeToRival, _substrateLifeToMe);\r\n    }\r\n\r\n    /**\r\n     * @dev The function allows you to buy a stuff NFT\r\n     * @param stuffId Id of the stuff.\r\n     * Emits a \"StuffBought\" event.\r\n     */\r\n    function buyStuff(uint8 stuffId) external payable {\r\n        require(stuffId != 0, \"Non-existent stuff\");\r\n        require(balanceOf(address(this), stuffId) != 0, \"Stuff no more available\");\r\n        require(msg.value == stuffFee, \"Wrong amount of fees\");\r\n        this.safeTransferFrom(address(this), msg.sender, stuffId, 1, \"\");\r\n        emit StuffBought(stuffId);\r\n    }\r\n\r\n    /**\r\n     * @dev The function allows you to equip stuff to your NFT\r\n     * @param tokenId Id of the token.\r\n     * @param stuffId Id of the stuff to equip.\r\n     * Emits a \"StuffEquiped\" event.\r\n     */\r\n    function equipStuff(uint24 tokenId, uint8 stuffId) external {\r\n        require(tokenId > 255, \"Wrong kind of NFT (Stuff)\");\r\n        require(_ownerOf(tokenId), \"You don't own this NFT\");\r\n        require(stuffId != POTION, \"You can't equip a potion\");\r\n        require(_ownerOf(stuffId), \"You don't own this weapon\");\r\n        uint8 tokenWeapon = _characterDetails[tokenId].weapon;\r\n        uint8 tokenShield = _characterDetails[tokenId].shield;\r\n        type_stuff stuffType = _stuffDetails[stuffId].typeStuff;\r\n        if ((stuffType == type_stuff.WEAPON && tokenWeapon == 0) || (stuffType == type_stuff.SHIELD && tokenShield == 0)) {\r\n            _characterDetails[tokenId].attack1 += _stuffDetails[stuffId].bonusAttack1;\r\n            _characterDetails[tokenId].attack2 += _stuffDetails[stuffId].bonusAttack2;\r\n            _characterDetails[tokenId].defence1 += _stuffDetails[stuffId].bonusDefence1;\r\n            _characterDetails[tokenId].defence2 += _stuffDetails[stuffId].bonusDefence2;\r\n        } else {\r\n            _characterDetails[tokenId].attack1 -= _stuffDetails[tokenWeapon].bonusAttack1;\r\n            _characterDetails[tokenId].attack2 -= _stuffDetails[tokenWeapon].bonusAttack2;\r\n            _characterDetails[tokenId].defence1 -= _stuffDetails[tokenWeapon].bonusDefence1;\r\n            _characterDetails[tokenId].defence2 -= _stuffDetails[tokenWeapon].bonusDefence2;\r\n\r\n            _characterDetails[tokenId].attack1 += _stuffDetails[stuffId].bonusAttack1;\r\n            _characterDetails[tokenId].attack2 += _stuffDetails[stuffId].bonusAttack2;\r\n            _characterDetails[tokenId].defence1 += _stuffDetails[stuffId].bonusDefence1;\r\n            _characterDetails[tokenId].defence2 += _stuffDetails[stuffId].bonusDefence2;\r\n        }\r\n        if (_stuffDetails[stuffId].typeStuff == type_stuff.WEAPON) {\r\n            _characterDetails[tokenId].weapon = stuffId;\r\n        } else {\r\n            _characterDetails[tokenId].shield = stuffId;\r\n        }\r\n        emit StuffEquiped(tokenId, stuffId);\r\n    }\r\n\r\n    /**\r\n     * @dev The function burn a POTION and restore the hp and stamina of your NFT\r\n     * @param tokenId Id of the token.\r\n     * Emits a \"PotionUsed\" event.\r\n     */\r\n    function usePotion(uint24 tokenId) external {\r\n        require(tokenId > 255, \"Wrong kind of NFT (Stuff)\");\r\n        require(_ownerOf(tokenId), \"You don't own this NFT\");\r\n        require(_ownerOf(POTION), \"You don't own a potion\");\r\n        require(_characterDetails[tokenId].stamina < 100 && _characterDetails[tokenId].hp < 100, \"You're character is already rested\");\r\n        _burn(msg.sender, POTION, 1);\r\n        _characterDetails[tokenId].stamina = 100;\r\n        _characterDetails[tokenId].hp = 100;\r\n        emit PotionUsed(tokenId);\r\n    }\r\n\r\n    /**\r\n     * @dev The function returns the characteristics of the NFT.\r\n     * @param tokenId Id of the token.\r\n     * @return Character Details of tokenId.\r\n     */\r\n    function getTokenDetails(uint24 tokenId) external view returns(Character memory) {\r\n        return _characterDetails[tokenId];\r\n    }\r\n\r\n    /**\r\n     * @dev The function returns the characteristics of the stuff.\r\n     * @param stuffId Id of the stuff.\r\n     * @return Stuff Details of stuffId.\r\n     */\r\n    function getStuffDetails(uint8 stuffId) external view returns(Stuff memory) {\r\n        return _stuffDetails[stuffId];\r\n    }\r\n\r\n    /**\r\n     * @dev The function returns an array with the characteristics of all my NFTs.\r\n     * @return Array of characters.\r\n     */\r\n    function getMyCharacters() external view returns(Character[] memory){\r\n        uint8 count = 0;\r\n        Character[] memory myCharacters = new Character[](_balanceOfCharacters[msg.sender]);\r\n        for (uint24 i = 0; i < nextCharacterId; i++) {\r\n            if (_ownerOf(i)) {\r\n                myCharacters[count] = _characterDetails[i];\r\n                count++;\r\n            }\r\n        }\r\n        return myCharacters;\r\n    }\r\n\r\n    /**\r\n     * @dev The function returns an array with the characteristics of all the NFTs that don't belong to me.\r\n     * @return Array of characters.\r\n     */\r\n    function getOthersCharacters() external view returns(Character[] memory){\r\n        uint24 count = 0;\r\n        Character[] memory othersCharacters = new Character[](nextCharacterId - _balanceOfCharacters[msg.sender]);\r\n        for (uint24 i = 0; i < nextCharacterId; i++) {\r\n            if (!_ownerOf(i)) {\r\n                othersCharacters[count] = _characterDetails[i];\r\n                count++;\r\n            }\r\n        }\r\n        return othersCharacters;\r\n    }\r\n    \r\n    \r\n    // ********************************** Only for TESTS **************************************\r\n\r\n    function getBalanceOfCharacters(address _address) external view returns(uint8) {\r\n        return _balanceOfCharacters[_address];\r\n    }\r\n\r\n    function testModeSwitch() external onlyOwner {\r\n        testMode = !testMode;\r\n    }\r\n}\r\n",
  "sourcePath": "D:\\TAF\\Alyra\\ALYRA_PROJET_FINAL\\unlimited_evolution\\contracts\\UnlimitedEvolution.sol",
  "compiler": {
    "name": "solc",
    "version": "0.8.7+commit.e28d00a7.Emscripten.clang"
  },
  "schemaVersion": "3.4.3",
  "updatedAt": "2022-01-07T16:14:53.726Z",
  "devdoc": {
    "events": {
      "CharacterCreated(uint24)": {
        "details": "Emitted when the character with \"id\" is created."
      },
      "Fighted(uint24,uint24,uint256,uint256)": {
        "details": "Emitted when the character with \"myTokenId\" removes \"substrateLifeToRival\" points of hp to \"rivalTokenId\" and the character with \"rivalTokenId\" removes \"substrateLifeToMe\" points of hp to \"myTokenId\"."
      },
      "LevelUp(uint24,uint16)": {
        "details": "Emitted when the character with \"tokenId\" has gained enough experience points to increase one level."
      },
      "LimitUpdated(uint24)": {
        "details": "Emitted when the owner changes the mintable NFT limit with the amount \"limitMint\"."
      },
      "MintFeeUpdated(uint256)": {
        "details": "Emitted when the owner changes the ether fee for minting, with the amount \"mintFee\"."
      },
      "PotionUsed(uint24)": {
        "details": "Emitted when the msg.sender burn a potion."
      },
      "Rested(uint24)": {
        "details": "Emitted when the character with \"id\" is rested, he recovers health points and stamina."
      },
      "StuffBought(uint8)": {
        "details": "Emitted when the msg.sender buy a stuff \"."
      },
      "StuffEquiped(uint24,uint8)": {
        "details": "Emitted when the msg.sender burn a potion."
      },
      "StuffFeeUpdated(uint256)": {
        "details": "Emitted when the owner changes the ether fee for buying stuff, with the amount \"stuffFee\"."
      }
    },
    "kind": "dev",
    "methods": {
      "attributesLevelUp(uint24,uint24,uint24,uint24,uint24)": {
        "details": "The function allows the allocation of \"attributePoints\" to the different characteristics.",
        "params": {
          "_attack1": "Attack number 1 of the token.",
          "_attack2": "Attack number 2 of the token.",
          "_defence1": "Defence number 1 of the token.",
          "_defence2": "Defence number 2 of the token.",
          "_tokenId": "Id of the token."
        }
      },
      "balanceOf(address,uint256)": {
        "details": "See {IERC1155-balanceOf}. Requirements: - `account` cannot be the zero address."
      },
      "balanceOfBatch(address[],uint256[])": {
        "details": "See {IERC1155-balanceOfBatch}. Requirements: - `accounts` and `ids` must have the same length."
      },
      "buyStuff(uint8)": {
        "details": "The function allows you to buy a stuff NFT",
        "params": {
          "stuffId": "Id of the stuff. Emits a \"StuffBought\" event."
        }
      },
      "constructor": {
        "details": "Constructor of the contract ERC1155, mint stuff and add it to the mapping"
      },
      "createCharacter(uint8,uint8)": {
        "details": "The Function mint an NFT.",
        "params": {
          "_genderCharacter": "Gender of character between MASCULINE, FEMININE, OTHER. Emits a \"CharacterCreated\" event.",
          "_typeCharacter": "Type of character between BRUTE, SPIRITUAL, ELEMENTARY."
        }
      },
      "createStuff(uint256,uint8,uint8,uint8,uint8,uint8)": {
        "details": "Allows you to create a new Stuff. Warning: Prefer to use createStuff() rather than manageStuff(), more secure with nextStuffId.",
        "params": {
          "amount": "Amount of NFT mintable.",
          "bonusAttack1": "Bonus value attack1.",
          "bonusAttack2": "Bonus value attack2.",
          "bonusDefence1": "Bonus value defence1.",
          "bonusDefence2": "Bonus value defence2.",
          "typeStuff": "Type of the stuff."
        }
      },
      "equipStuff(uint24,uint8)": {
        "details": "The function allows you to equip stuff to your NFT",
        "params": {
          "stuffId": "Id of the stuff to equip. Emits a \"StuffEquiped\" event.",
          "tokenId": "Id of the token."
        }
      },
      "fight(uint24,uint24)": {
        "details": "The function allows you to use your NFT to fight with another NFT belonging to another user.",
        "params": {
          "_myTokenId": "Id of the fighter number 1.",
          "_rivalTokenId": "Id of the fighter number 2."
        }
      },
      "getMyCharacters()": {
        "details": "The function returns an array with the characteristics of all my NFTs.",
        "returns": {
          "_0": "Array of characters."
        }
      },
      "getOthersCharacters()": {
        "details": "The function returns an array with the characteristics of all the NFTs that don't belong to me.",
        "returns": {
          "_0": "Array of characters."
        }
      },
      "getStuffDetails(uint8)": {
        "details": "The function returns the characteristics of the stuff.",
        "params": {
          "stuffId": "Id of the stuff."
        },
        "returns": {
          "_0": "Stuff Details of stuffId."
        }
      },
      "getTokenDetails(uint24)": {
        "details": "The function returns the characteristics of the NFT.",
        "params": {
          "tokenId": "Id of the token."
        },
        "returns": {
          "_0": "Character Details of tokenId."
        }
      },
      "isApprovedForAll(address,address)": {
        "details": "See {IERC1155-isApprovedForAll}."
      },
      "manageStuff(uint8,uint256,uint8,uint8,uint8,uint8,uint8)": {
        "details": "Allows you to create a new Stuff/Consumable and to modify the quantity, statistics and type of an existing NFT Stuff. Warning: Be extremely careful with this function ! If you want to create a new NFT Stuff, prefer to use createStuff() !",
        "params": {
          "amount": "Amount of NFT mintable.",
          "bonusAttack1": "Bonus value attack1.",
          "bonusAttack2": "Bonus value attack2.",
          "bonusDefence1": "Bonus value defence1.",
          "bonusDefence2": "Bonus value defence2.",
          "stuffId": "Id of the stuff.",
          "typeStuff": "Type of the stuff."
        }
      },
      "owner()": {
        "details": "Returns the address of the current owner."
      },
      "renounceOwnership()": {
        "details": "Leaves the contract without owner. It will not be possible to call `onlyOwner` functions anymore. Can only be called by the current owner. NOTE: Renouncing ownership will leave the contract without an owner, thereby removing any functionality that is only available to the owner."
      },
      "rest(uint24)": {
        "details": "The function allows the NFT to recover 100 health points and 100 stamina points.",
        "params": {
          "_tokenId": "Id of the token. Emits a \"Rested\" event."
        }
      },
      "safeBatchTransferFrom(address,address,uint256[],uint256[],bytes)": {
        "details": "See {IERC1155-safeBatchTransferFrom}."
      },
      "safeTransferFrom(address,address,uint256,uint256,bytes)": {
        "details": "See {IERC1155-safeTransferFrom}."
      },
      "setApprovalForAll(address,bool)": {
        "details": "See {IERC1155-setApprovalForAll}."
      },
      "setTokenAddress(address)": {
        "details": "The function changes the ERC20 token address",
        "params": {
          "_tokenAddress": "New token address."
        }
      },
      "supportsInterface(bytes4)": {
        "details": "Allows you to receive ERC1155 tokens and therefore make external calls to mint.",
        "params": {
          "interfaceId": "Id of the interface."
        }
      },
      "transferOwnership(address)": {
        "details": "Transfers ownership of the contract to a new account (`newOwner`). Can only be called by the current owner."
      },
      "updateLimitMint(uint24)": {
        "details": "The function changes the mintable NFT limit.",
        "params": {
          "_limitMint": "New limit of mintable NFT. Emits a \"LimitUpdated\" event."
        }
      },
      "updateMintFee(uint256)": {
        "details": "The function changes the ether fee for minting.",
        "params": {
          "_mintFee": "New amount of fee. Emits a \"MintFeeUpdated\" event."
        }
      },
      "updateStuffFee(uint256)": {
        "details": "The function changes the ether fee for buying stuff.",
        "params": {
          "_stuffFee": "New amount of stuff fee. Emits a \"StuffFeeUpdated\" event."
        }
      },
      "uri(uint256)": {
        "details": "See {IERC1155MetadataURI-uri}. This implementation returns the same URI for *all* token types. It relies on the token type ID substitution mechanism https://eips.ethereum.org/EIPS/eip-1155#metadata[defined in the EIP]. Clients calling this function must replace the `\\{id\\}` substring with the actual token type ID."
      },
      "usePotion(uint24)": {
        "details": "The function burn a POTION and restore the hp and stamina of your NFT",
        "params": {
          "tokenId": "Id of the token. Emits a \"PotionUsed\" event."
        }
      },
      "withdraw()": {
        "details": "Owner withdraws the entire amount of ETH."
      },
      "withdrawLINK(uint256)": {
        "details": "Owner withdraws an amount of LINK.",
        "params": {
          "value": "Value of LINK."
        }
      }
    },
    "title": "Unlimited Evolution ",
    "version": 1
  },
  "userdoc": {
    "kind": "user",
    "methods": {
      "getRandomNumber()": {
        "notice": "Requests randomness "
      },
      "setTokenAddress(address)": {
        "notice": "Reflexion: Vraiment utile ?"
      }
    },
    "version": 1
  }
}