{
  "contractName": "UnlimitedEvolution",
  "abi": [
    {
      "inputs": [
        {
          "internalType": "contract UnlimitedToken",
          "name": "_unlimitedTokenAddress",
          "type": "address"
        },
        {
          "internalType": "contract RandomNumberGenerator",
          "name": "_randomNumberGenerator",
          "type": "address"
        }
      ],
      "stateMutability": "nonpayable",
      "type": "constructor"
    },
    {
      "anonymous": false,
      "inputs": [
        {
          "indexed": true,
          "internalType": "address",
          "name": "account",
          "type": "address"
        },
        {
          "indexed": true,
          "internalType": "address",
          "name": "operator",
          "type": "address"
        },
        {
          "indexed": false,
          "internalType": "bool",
          "name": "approved",
          "type": "bool"
        }
      ],
      "name": "ApprovalForAll",
      "type": "event"
    },
    {
      "anonymous": false,
      "inputs": [
        {
          "indexed": false,
          "internalType": "uint24",
          "name": "id",
          "type": "uint24"
        }
      ],
      "name": "CharacterCreated",
      "type": "event"
    },
    {
      "anonymous": false,
      "inputs": [
        {
          "indexed": false,
          "internalType": "uint24",
          "name": "myTokenId",
          "type": "uint24"
        },
        {
          "indexed": false,
          "internalType": "uint24",
          "name": "rivalTokenId",
          "type": "uint24"
        },
        {
          "indexed": false,
          "internalType": "uint256",
          "name": "substrateLifeToRival",
          "type": "uint256"
        },
        {
          "indexed": false,
          "internalType": "uint256",
          "name": "substrateLifeToMe",
          "type": "uint256"
        }
      ],
      "name": "Fighted",
      "type": "event"
    },
    {
      "anonymous": false,
      "inputs": [
        {
          "indexed": false,
          "internalType": "uint24",
          "name": "tokenId",
          "type": "uint24"
        },
        {
          "indexed": false,
          "internalType": "uint16",
          "name": "level",
          "type": "uint16"
        }
      ],
      "name": "LevelUp",
      "type": "event"
    },
    {
      "anonymous": false,
      "inputs": [
        {
          "indexed": false,
          "internalType": "uint24",
          "name": "limitMint",
          "type": "uint24"
        }
      ],
      "name": "LimitUpdated",
      "type": "event"
    },
    {
      "anonymous": false,
      "inputs": [
        {
          "indexed": false,
          "internalType": "uint256",
          "name": "mintFee",
          "type": "uint256"
        }
      ],
      "name": "MintFeeUpdated",
      "type": "event"
    },
    {
      "anonymous": false,
      "inputs": [
        {
          "indexed": true,
          "internalType": "address",
          "name": "previousOwner",
          "type": "address"
        },
        {
          "indexed": true,
          "internalType": "address",
          "name": "newOwner",
          "type": "address"
        }
      ],
      "name": "OwnershipTransferred",
      "type": "event"
    },
    {
      "anonymous": false,
      "inputs": [
        {
          "indexed": false,
          "internalType": "uint24",
          "name": "tokenId",
          "type": "uint24"
        }
      ],
      "name": "PotionUsed",
      "type": "event"
    },
    {
      "anonymous": false,
      "inputs": [
        {
          "indexed": false,
          "internalType": "uint24",
          "name": "tokenId",
          "type": "uint24"
        }
      ],
      "name": "Rested",
      "type": "event"
    },
    {
      "anonymous": false,
      "inputs": [
        {
          "indexed": false,
          "internalType": "uint8",
          "name": "stuffId",
          "type": "uint8"
        }
      ],
      "name": "StuffBought",
      "type": "event"
    },
    {
      "anonymous": false,
      "inputs": [
        {
          "indexed": false,
          "internalType": "uint24",
          "name": "tokenId",
          "type": "uint24"
        },
        {
          "indexed": false,
          "internalType": "uint8",
          "name": "stuffId",
          "type": "uint8"
        }
      ],
      "name": "StuffEquiped",
      "type": "event"
    },
    {
      "anonymous": false,
      "inputs": [
        {
          "indexed": false,
          "internalType": "uint256",
          "name": "stuffFee",
          "type": "uint256"
        }
      ],
      "name": "StuffFeeUpdated",
      "type": "event"
    },
    {
      "anonymous": false,
      "inputs": [
        {
          "indexed": true,
          "internalType": "address",
          "name": "operator",
          "type": "address"
        },
        {
          "indexed": true,
          "internalType": "address",
          "name": "from",
          "type": "address"
        },
        {
          "indexed": true,
          "internalType": "address",
          "name": "to",
          "type": "address"
        },
        {
          "indexed": false,
          "internalType": "uint256[]",
          "name": "ids",
          "type": "uint256[]"
        },
        {
          "indexed": false,
          "internalType": "uint256[]",
          "name": "values",
          "type": "uint256[]"
        }
      ],
      "name": "TransferBatch",
      "type": "event"
    },
    {
      "anonymous": false,
      "inputs": [
        {
          "indexed": true,
          "internalType": "address",
          "name": "operator",
          "type": "address"
        },
        {
          "indexed": true,
          "internalType": "address",
          "name": "from",
          "type": "address"
        },
        {
          "indexed": true,
          "internalType": "address",
          "name": "to",
          "type": "address"
        },
        {
          "indexed": false,
          "internalType": "uint256",
          "name": "id",
          "type": "uint256"
        },
        {
          "indexed": false,
          "internalType": "uint256",
          "name": "value",
          "type": "uint256"
        }
      ],
      "name": "TransferSingle",
      "type": "event"
    },
    {
      "anonymous": false,
      "inputs": [
        {
          "indexed": false,
          "internalType": "string",
          "name": "value",
          "type": "string"
        },
        {
          "indexed": true,
          "internalType": "uint256",
          "name": "id",
          "type": "uint256"
        }
      ],
      "name": "URI",
      "type": "event"
    },
    {
      "inputs": [
        {
          "internalType": "address",
          "name": "account",
          "type": "address"
        },
        {
          "internalType": "uint256",
          "name": "id",
          "type": "uint256"
        }
      ],
      "name": "balanceOf",
      "outputs": [
        {
          "internalType": "uint256",
          "name": "",
          "type": "uint256"
        }
      ],
      "stateMutability": "view",
      "type": "function"
    },
    {
      "inputs": [
        {
          "internalType": "address[]",
          "name": "accounts",
          "type": "address[]"
        },
        {
          "internalType": "uint256[]",
          "name": "ids",
          "type": "uint256[]"
        }
      ],
      "name": "balanceOfBatch",
      "outputs": [
        {
          "internalType": "uint256[]",
          "name": "",
          "type": "uint256[]"
        }
      ],
      "stateMutability": "view",
      "type": "function"
    },
    {
      "inputs": [
        {
          "internalType": "address",
          "name": "account",
          "type": "address"
        },
        {
          "internalType": "address",
          "name": "operator",
          "type": "address"
        }
      ],
      "name": "isApprovedForAll",
      "outputs": [
        {
          "internalType": "bool",
          "name": "",
          "type": "bool"
        }
      ],
      "stateMutability": "view",
      "type": "function"
    },
    {
      "inputs": [
        {
          "internalType": "address",
          "name": "",
          "type": "address"
        },
        {
          "internalType": "address",
          "name": "",
          "type": "address"
        },
        {
          "internalType": "uint256[]",
          "name": "",
          "type": "uint256[]"
        },
        {
          "internalType": "uint256[]",
          "name": "",
          "type": "uint256[]"
        },
        {
          "internalType": "bytes",
          "name": "",
          "type": "bytes"
        }
      ],
      "name": "onERC1155BatchReceived",
      "outputs": [
        {
          "internalType": "bytes4",
          "name": "",
          "type": "bytes4"
        }
      ],
      "stateMutability": "nonpayable",
      "type": "function"
    },
    {
      "inputs": [
        {
          "internalType": "address",
          "name": "",
          "type": "address"
        },
        {
          "internalType": "address",
          "name": "",
          "type": "address"
        },
        {
          "internalType": "uint256",
          "name": "",
          "type": "uint256"
        },
        {
          "internalType": "uint256",
          "name": "",
          "type": "uint256"
        },
        {
          "internalType": "bytes",
          "name": "",
          "type": "bytes"
        }
      ],
      "name": "onERC1155Received",
      "outputs": [
        {
          "internalType": "bytes4",
          "name": "",
          "type": "bytes4"
        }
      ],
      "stateMutability": "nonpayable",
      "type": "function"
    },
    {
      "inputs": [],
      "name": "owner",
      "outputs": [
        {
          "internalType": "address",
          "name": "",
          "type": "address"
        }
      ],
      "stateMutability": "view",
      "type": "function"
    },
    {
      "inputs": [],
      "name": "randomNumberGenerator",
      "outputs": [
        {
          "internalType": "contract RandomNumberGenerator",
          "name": "",
          "type": "address"
        }
      ],
      "stateMutability": "view",
      "type": "function"
    },
    {
      "inputs": [],
      "name": "renounceOwnership",
      "outputs": [],
      "stateMutability": "nonpayable",
      "type": "function"
    },
    {
      "inputs": [
        {
          "internalType": "address",
          "name": "from",
          "type": "address"
        },
        {
          "internalType": "address",
          "name": "to",
          "type": "address"
        },
        {
          "internalType": "uint256[]",
          "name": "ids",
          "type": "uint256[]"
        },
        {
          "internalType": "uint256[]",
          "name": "amounts",
          "type": "uint256[]"
        },
        {
          "internalType": "bytes",
          "name": "data",
          "type": "bytes"
        }
      ],
      "name": "safeBatchTransferFrom",
      "outputs": [],
      "stateMutability": "nonpayable",
      "type": "function"
    },
    {
      "inputs": [
        {
          "internalType": "address",
          "name": "from",
          "type": "address"
        },
        {
          "internalType": "address",
          "name": "to",
          "type": "address"
        },
        {
          "internalType": "uint256",
          "name": "id",
          "type": "uint256"
        },
        {
          "internalType": "uint256",
          "name": "amount",
          "type": "uint256"
        },
        {
          "internalType": "bytes",
          "name": "data",
          "type": "bytes"
        }
      ],
      "name": "safeTransferFrom",
      "outputs": [],
      "stateMutability": "nonpayable",
      "type": "function"
    },
    {
      "inputs": [
        {
          "internalType": "address",
          "name": "operator",
          "type": "address"
        },
        {
          "internalType": "bool",
          "name": "approved",
          "type": "bool"
        }
      ],
      "name": "setApprovalForAll",
      "outputs": [],
      "stateMutability": "nonpayable",
      "type": "function"
    },
    {
      "inputs": [],
      "name": "testMode",
      "outputs": [
        {
          "internalType": "bool",
          "name": "",
          "type": "bool"
        }
      ],
      "stateMutability": "view",
      "type": "function"
    },
    {
      "inputs": [
        {
          "internalType": "address",
          "name": "newOwner",
          "type": "address"
        }
      ],
      "name": "transferOwnership",
      "outputs": [],
      "stateMutability": "nonpayable",
      "type": "function"
    },
    {
      "inputs": [],
      "name": "unlimitedToken",
      "outputs": [
        {
          "internalType": "contract UnlimitedToken",
          "name": "",
          "type": "address"
        }
      ],
      "stateMutability": "view",
      "type": "function"
    },
    {
      "inputs": [
        {
          "internalType": "bytes4",
          "name": "interfaceId",
          "type": "bytes4"
        }
      ],
      "name": "supportsInterface",
      "outputs": [
        {
          "internalType": "bool",
          "name": "",
          "type": "bool"
        }
      ],
      "stateMutability": "view",
      "type": "function"
    },
    {
      "inputs": [
        {
          "internalType": "uint256",
          "name": "_tokenId",
          "type": "uint256"
        }
      ],
      "name": "uri",
      "outputs": [
        {
          "internalType": "string",
          "name": "",
          "type": "string"
        }
      ],
      "stateMutability": "pure",
      "type": "function"
    },
    {
      "inputs": [],
      "name": "name",
      "outputs": [
        {
          "internalType": "string",
          "name": "",
          "type": "string"
        }
      ],
      "stateMutability": "pure",
      "type": "function"
    },
    {
      "inputs": [
        {
          "internalType": "address",
          "name": "_tokenAddress",
          "type": "address"
        }
      ],
      "name": "setTokenAddress",
      "outputs": [],
      "stateMutability": "nonpayable",
      "type": "function"
    },
    {
      "inputs": [
        {
          "internalType": "address",
          "name": "_randomAddress",
          "type": "address"
        }
      ],
      "name": "setLinkAddress",
      "outputs": [],
      "stateMutability": "nonpayable",
      "type": "function"
    },
    {
      "inputs": [
        {
          "internalType": "uint256",
          "name": "_mintFee",
          "type": "uint256"
        }
      ],
      "name": "updateMintFee",
      "outputs": [],
      "stateMutability": "nonpayable",
      "type": "function"
    },
    {
      "inputs": [
        {
          "internalType": "uint256",
          "name": "_stuffFee",
          "type": "uint256"
        }
      ],
      "name": "updateStuffFee",
      "outputs": [],
      "stateMutability": "nonpayable",
      "type": "function"
    },
    {
      "inputs": [
        {
          "internalType": "uint24",
          "name": "_limitMint",
          "type": "uint24"
        }
      ],
      "name": "updateLimitMint",
      "outputs": [],
      "stateMutability": "nonpayable",
      "type": "function"
    },
    {
      "inputs": [],
      "name": "withdrawEth",
      "outputs": [],
      "stateMutability": "nonpayable",
      "type": "function"
    },
    {
      "inputs": [
        {
          "internalType": "uint256",
          "name": "value",
          "type": "uint256"
        }
      ],
      "name": "withdrawLink",
      "outputs": [],
      "stateMutability": "nonpayable",
      "type": "function"
    },
    {
      "inputs": [
        {
          "internalType": "uint256",
          "name": "amount",
          "type": "uint256"
        },
        {
          "internalType": "uint8",
          "name": "bonusAttack1",
          "type": "uint8"
        },
        {
          "internalType": "uint8",
          "name": "bonusAttack2",
          "type": "uint8"
        },
        {
          "internalType": "uint8",
          "name": "bonusDefence1",
          "type": "uint8"
        },
        {
          "internalType": "uint8",
          "name": "bonusDefence2",
          "type": "uint8"
        },
        {
          "internalType": "enum UnlimitedEvolution.type_stuff",
          "name": "typeStuff",
          "type": "uint8"
        }
      ],
      "name": "createStuff",
      "outputs": [],
      "stateMutability": "nonpayable",
      "type": "function"
    },
    {
      "inputs": [
        {
          "internalType": "uint8",
          "name": "stuffId",
          "type": "uint8"
        },
        {
          "internalType": "uint256",
          "name": "amount",
          "type": "uint256"
        },
        {
          "internalType": "uint8",
          "name": "bonusAttack1",
          "type": "uint8"
        },
        {
          "internalType": "uint8",
          "name": "bonusAttack2",
          "type": "uint8"
        },
        {
          "internalType": "uint8",
          "name": "bonusDefence1",
          "type": "uint8"
        },
        {
          "internalType": "uint8",
          "name": "bonusDefence2",
          "type": "uint8"
        },
        {
          "internalType": "enum UnlimitedEvolution.type_stuff",
          "name": "typeStuff",
          "type": "uint8"
        }
      ],
      "name": "manageStuff",
      "outputs": [],
      "stateMutability": "nonpayable",
      "type": "function"
    },
    {
      "inputs": [
        {
          "internalType": "enum UnlimitedEvolution.type_character",
          "name": "_typeCharacter",
          "type": "uint8"
        },
        {
          "internalType": "enum UnlimitedEvolution.gender_character",
          "name": "_genderCharacter",
          "type": "uint8"
        }
      ],
      "name": "askCreateCharacter",
      "outputs": [],
      "stateMutability": "payable",
      "type": "function"
    },
    {
      "inputs": [
        {
          "internalType": "enum UnlimitedEvolution.type_character",
          "name": "_typeCharacter",
          "type": "uint8"
        },
        {
          "internalType": "enum UnlimitedEvolution.gender_character",
          "name": "_genderCharacter",
          "type": "uint8"
        },
        {
          "internalType": "uint256",
          "name": "randomNumber",
          "type": "uint256"
        },
        {
          "internalType": "address",
          "name": "_address",
          "type": "address"
        }
      ],
      "name": "createCharacter",
      "outputs": [],
      "stateMutability": "nonpayable",
      "type": "function"
    },
    {
      "inputs": [
        {
          "internalType": "uint24",
          "name": "_tokenId",
          "type": "uint24"
        }
      ],
      "name": "rest",
      "outputs": [],
      "stateMutability": "nonpayable",
      "type": "function"
    },
    {
      "inputs": [
        {
          "internalType": "uint24",
          "name": "_myTokenId",
          "type": "uint24"
        },
        {
          "internalType": "uint24",
          "name": "_rivalTokenId",
          "type": "uint24"
        }
      ],
      "name": "fight",
      "outputs": [],
      "stateMutability": "nonpayable",
      "type": "function"
    },
    {
      "inputs": [
        {
          "internalType": "uint8",
          "name": "stuffId",
          "type": "uint8"
        }
      ],
      "name": "buyStuff",
      "outputs": [],
      "stateMutability": "payable",
      "type": "function"
    },
    {
      "inputs": [
        {
          "internalType": "uint24",
          "name": "tokenId",
          "type": "uint24"
        },
        {
          "internalType": "uint8",
          "name": "stuffId",
          "type": "uint8"
        }
      ],
      "name": "equipStuff",
      "outputs": [],
      "stateMutability": "nonpayable",
      "type": "function"
    },
    {
      "inputs": [
        {
          "internalType": "uint24",
          "name": "tokenId",
          "type": "uint24"
        }
      ],
      "name": "usePotion",
      "outputs": [],
      "stateMutability": "nonpayable",
      "type": "function"
    },
    {
      "inputs": [
        {
          "internalType": "uint24",
          "name": "tokenId",
          "type": "uint24"
        }
      ],
      "name": "getTokenDetails",
      "outputs": [
        {
          "components": [
            {
              "internalType": "uint24",
              "name": "id",
              "type": "uint24"
            },
            {
              "internalType": "uint16",
              "name": "level",
              "type": "uint16"
            },
            {
              "internalType": "uint24",
              "name": "xp",
              "type": "uint24"
            },
            {
              "internalType": "uint24",
              "name": "hp",
              "type": "uint24"
            },
            {
              "internalType": "uint24",
              "name": "stamina",
              "type": "uint24"
            },
            {
              "internalType": "uint24",
              "name": "attack1",
              "type": "uint24"
            },
            {
              "internalType": "uint24",
              "name": "attack2",
              "type": "uint24"
            },
            {
              "internalType": "uint24",
              "name": "defence1",
              "type": "uint24"
            },
            {
              "internalType": "uint24",
              "name": "defence2",
              "type": "uint24"
            },
            {
              "internalType": "uint24",
              "name": "attributePoints",
              "type": "uint24"
            },
            {
              "internalType": "uint8",
              "name": "weapon",
              "type": "uint8"
            },
            {
              "internalType": "uint8",
              "name": "shield",
              "type": "uint8"
            },
            {
              "internalType": "uint256",
              "name": "lastRest",
              "type": "uint256"
            },
            {
              "internalType": "enum UnlimitedEvolution.type_character",
              "name": "typeCharacter",
              "type": "uint8"
            },
            {
              "internalType": "enum UnlimitedEvolution.gender_character",
              "name": "genderCharacter",
              "type": "uint8"
            }
          ],
          "internalType": "struct UnlimitedEvolution.Character",
          "name": "",
          "type": "tuple"
        }
      ],
      "stateMutability": "view",
      "type": "function"
    },
    {
      "inputs": [
        {
          "internalType": "uint8",
          "name": "stuffId",
          "type": "uint8"
        }
      ],
      "name": "getStuffDetails",
      "outputs": [
        {
          "components": [
            {
              "internalType": "uint8",
              "name": "id",
              "type": "uint8"
            },
            {
              "internalType": "uint8",
              "name": "bonusAttack1",
              "type": "uint8"
            },
            {
              "internalType": "uint8",
              "name": "bonusAttack2",
              "type": "uint8"
            },
            {
              "internalType": "uint8",
              "name": "bonusDefence1",
              "type": "uint8"
            },
            {
              "internalType": "uint8",
              "name": "bonusDefence2",
              "type": "uint8"
            },
            {
              "internalType": "enum UnlimitedEvolution.type_stuff",
              "name": "typeStuff",
              "type": "uint8"
            }
          ],
          "internalType": "struct UnlimitedEvolution.Stuff",
          "name": "",
          "type": "tuple"
        }
      ],
      "stateMutability": "view",
      "type": "function"
    },
    {
      "inputs": [],
      "name": "getMyCharacters",
      "outputs": [
        {
          "components": [
            {
              "internalType": "uint24",
              "name": "id",
              "type": "uint24"
            },
            {
              "internalType": "uint16",
              "name": "level",
              "type": "uint16"
            },
            {
              "internalType": "uint24",
              "name": "xp",
              "type": "uint24"
            },
            {
              "internalType": "uint24",
              "name": "hp",
              "type": "uint24"
            },
            {
              "internalType": "uint24",
              "name": "stamina",
              "type": "uint24"
            },
            {
              "internalType": "uint24",
              "name": "attack1",
              "type": "uint24"
            },
            {
              "internalType": "uint24",
              "name": "attack2",
              "type": "uint24"
            },
            {
              "internalType": "uint24",
              "name": "defence1",
              "type": "uint24"
            },
            {
              "internalType": "uint24",
              "name": "defence2",
              "type": "uint24"
            },
            {
              "internalType": "uint24",
              "name": "attributePoints",
              "type": "uint24"
            },
            {
              "internalType": "uint8",
              "name": "weapon",
              "type": "uint8"
            },
            {
              "internalType": "uint8",
              "name": "shield",
              "type": "uint8"
            },
            {
              "internalType": "uint256",
              "name": "lastRest",
              "type": "uint256"
            },
            {
              "internalType": "enum UnlimitedEvolution.type_character",
              "name": "typeCharacter",
              "type": "uint8"
            },
            {
              "internalType": "enum UnlimitedEvolution.gender_character",
              "name": "genderCharacter",
              "type": "uint8"
            }
          ],
          "internalType": "struct UnlimitedEvolution.Character[]",
          "name": "",
          "type": "tuple[]"
        }
      ],
      "stateMutability": "view",
      "type": "function"
    },
    {
      "inputs": [],
      "name": "getOthersCharacters",
      "outputs": [
        {
          "components": [
            {
              "internalType": "uint24",
              "name": "id",
              "type": "uint24"
            },
            {
              "internalType": "uint16",
              "name": "level",
              "type": "uint16"
            },
            {
              "internalType": "uint24",
              "name": "xp",
              "type": "uint24"
            },
            {
              "internalType": "uint24",
              "name": "hp",
              "type": "uint24"
            },
            {
              "internalType": "uint24",
              "name": "stamina",
              "type": "uint24"
            },
            {
              "internalType": "uint24",
              "name": "attack1",
              "type": "uint24"
            },
            {
              "internalType": "uint24",
              "name": "attack2",
              "type": "uint24"
            },
            {
              "internalType": "uint24",
              "name": "defence1",
              "type": "uint24"
            },
            {
              "internalType": "uint24",
              "name": "defence2",
              "type": "uint24"
            },
            {
              "internalType": "uint24",
              "name": "attributePoints",
              "type": "uint24"
            },
            {
              "internalType": "uint8",
              "name": "weapon",
              "type": "uint8"
            },
            {
              "internalType": "uint8",
              "name": "shield",
              "type": "uint8"
            },
            {
              "internalType": "uint256",
              "name": "lastRest",
              "type": "uint256"
            },
            {
              "internalType": "enum UnlimitedEvolution.type_character",
              "name": "typeCharacter",
              "type": "uint8"
            },
            {
              "internalType": "enum UnlimitedEvolution.gender_character",
              "name": "genderCharacter",
              "type": "uint8"
            }
          ],
          "internalType": "struct UnlimitedEvolution.Character[]",
          "name": "",
          "type": "tuple[]"
        }
      ],
      "stateMutability": "view",
      "type": "function"
    },
    {
      "inputs": [],
      "name": "getMyStuffs",
      "outputs": [
        {
          "components": [
            {
              "internalType": "uint8",
              "name": "id",
              "type": "uint8"
            },
            {
              "internalType": "uint8",
              "name": "bonusAttack1",
              "type": "uint8"
            },
            {
              "internalType": "uint8",
              "name": "bonusAttack2",
              "type": "uint8"
            },
            {
              "internalType": "uint8",
              "name": "bonusDefence1",
              "type": "uint8"
            },
            {
              "internalType": "uint8",
              "name": "bonusDefence2",
              "type": "uint8"
            },
            {
              "internalType": "enum UnlimitedEvolution.type_stuff",
              "name": "typeStuff",
              "type": "uint8"
            }
          ],
          "internalType": "struct UnlimitedEvolution.Stuff[]",
          "name": "",
          "type": "tuple[]"
        }
      ],
      "stateMutability": "view",
      "type": "function"
    },
    {
      "inputs": [],
      "name": "testModeSwitch",
      "outputs": [],
      "stateMutability": "nonpayable",
      "type": "function"
    }
  ],
  "bytecode": "0x60038054600160a060020a03167e0fa0013980009d40010006000000000000000000000000000000000000000017815560808181526101006040529060a0606080368337505081516200005a92600492506020019062000ce2565b5066038d7ea4c6800060055566038d7ea4c680006006553480156200007e57600080fd5b506040516200723438038062007234833981016040819052620000a19162000e72565b6040518060600160405280603f8152602001620071f5603f9139620000cf8164010000000062000692810204565b50620000f6620000e7640100000000620006ab810204565b640100000000620006af810204565b6007805461010060a860020a031916610100600160a060020a03858116919091029190911790915560088054600160a060020a0319169183169190911790556200018f306001620186a0620001598264010000000062000701810262003af01704565b6040516020016200016b919062000f26565b60405160208183030381529060405262000859640100000000026401000000009004565b6040805160c08101825260018152600260208201819052918101919091526000606082018190526080820181905260a082015260016000819052600a602090815282517fbbc70db1b6c7afd11e79c0fb0051300458f1a3acb8ee9789d9b6b26c61ad9bc780549285015160408601516060870151608088015160ff9081166401000000000264ff000000001992821663010000000263ff0000001994831662010000029490941663ffff0000199583166101000261ffff199099169790921696909617969096179290921694909417939093179283168217815560a085015190939092849265ff0000000000191665ffff0000000019909116179065010000000000908490811115620002a657620002a662001185565b0217905550620002d391503090506002620186a0620001598264010000000062003af06200070182021704565b6040805160c0810182526002808252600060208084018281529484018281526060850184815260808601858152600160a0880181815296909552600a90935285517fbff4442b8ed600beeb8e26b1279a0f0d14c6edfaec26d968ee13c86f7d4c2ba88054985193519251945160ff9081166401000000000264ff000000001996821663010000000263ff0000001995831662010000029590951663ffff0000199683166101000261ffff19909c169290941691909117999099179390931617179182168617815592519394929392849265ff00000000001990911665ffff0000000019909216919091179065010000000000908490811115620003da57620003da62001185565b021790555062000405915030905060036001620001598264010000000062003af06200070182021704565b6040805160c0810182526003808252600a60208084018281529484018281526060850183815260808601848152600060a088018181529690529390925284517fa856840544dc26124927add067d799967eac11be13e14d82cc281ea46fa397598054975192519351945160ff9081166401000000000264ff000000001996821663010000000263ff0000001996831662010000029690961663ffff0000199583166101000261ffff19909b169290941691909117989098179290921617919091179182168517815591519293919291839165ff00000000001990911665ffff0000000019909116176501000000000083600181111562000509576200050962001185565b021790555062000534915030905060046001620001598264010000000062003af06200070182021704565b6040805160c08101825260048152600a6020820181905291810182905260608101829052608081019190915260a08101600190526004600052600a602090815281517fe1eb2b2161a492c07c5a334e48012567cba93ec021043f53c1955516a3c5a84180549284015160408501516060860151608087015160ff9081166401000000000264ff000000001992821663010000000263ff0000001994831662010000029490941663ffff0000199583166101000261ffff199099169790921696909617969096179290921694909417939093179283168217815560a084015190929091839165ff00000000001990911665ffff000000001990911617650100000000008360018111156200064b576200064b62001185565b02179055506200068a91503090506005620f4240620006788264010000000062003af06200070182021704565b6040516020016200016b919062000edf565b5050620012f4565b8051620006a790600290602084019062000d93565b5050565b3390565b60038054600160a060020a03838116600160a060020a0319831681179093556040519116919082907f8be0079c531659141344cd1fd0a4f28419497f9722a3daafe3b4186f6b6457e090600090a35050565b6060816200074257505060408051808201909152600181527f3000000000000000000000000000000000000000000000000000000000000000602082015290565b8160005b81156200077257806200075981620010f2565b91506200076a9050600a8362000fe4565b915062000746565b6000816001604060020a038111156200078f576200078f620011e3565b6040519080825280601f01601f191660200182016040528015620007ba576020820181803683370190505b5090505b84156200085157620007d260018362000ffb565b9150620007e1600a8662001110565b620007ee90603062000fc9565b7f010000000000000000000000000000000000000000000000000000000000000002818381518110620008255762000825620011b4565b6020010190600160f860020a031916908160001a90535062000849600a8662000fe4565b9450620007be565b949350505050565b600160a060020a038416620008f5576040517f08c379a000000000000000000000000000000000000000000000000000000000815260206004820152602160248201527f455243313135353a206d696e7420746f20746865207a65726f2061646472657360448201527f730000000000000000000000000000000000000000000000000000000000000060648201526084015b60405180910390fd5b60006200090a640100000000620006ab810204565b90506200094c816000876200092888640100000000620009f0810204565b6200093c88640100000000620009f0810204565b8764010000000062000a3e810204565b600084815260208181526040808320600160a060020a0389168452909152812080548592906200097e90849062000fc9565b90915550506040805185815260208101859052600160a060020a0380881692600092918516917fc3d58168c5ae7397731d063d5bbf3d657854427343f4c083240f7aacaa2d0f62910160405180910390a4620009e98160008787878764010000000062000a46810204565b5050505050565b6040805160018082528183019092526060916000919060208083019080368337019050509050828160008151811062000a2d5762000a2d620011b4565b602090810291909101015292915050565b505050505050565b62000a68600160a060020a03851664010000000062003c4962000cdc82021704565b1562000a3e576040517ff23a6e61000000000000000000000000000000000000000000000000000000008152600160a060020a0385169063f23a6e619062000abd908990899088908890889060040162000f6d565b602060405180830381600087803b15801562000ad857600080fd5b505af192505050801562000b0b575060408051601f3d908101601f1916820190925262000b089181019062000e27565b60015b62000c005762000b1a62001212565b806308c379a0141562000b75575062000b326200124c565b8062000b3f575062000b77565b806040517f08c379a0000000000000000000000000000000000000000000000000000000008152600401620008ec919062000fb4565b505b6040517f08c379a000000000000000000000000000000000000000000000000000000000815260206004820152603460248201527f455243313135353a207472616e7366657220746f206e6f6e204552433131353560448201527f526563656976657220696d706c656d656e7465720000000000000000000000006064820152608401620008ec565b7fffffffff0000000000000000000000000000000000000000000000000000000081167ff23a6e61000000000000000000000000000000000000000000000000000000001462000cd3576040517f08c379a000000000000000000000000000000000000000000000000000000000815260206004820152602860248201527f455243313135353a204552433131353552656365697665722072656a6563746560448201527f6420746f6b656e730000000000000000000000000000000000000000000000006064820152608401620008ec565b50505050505050565b3b151590565b82805482825590600052602060002090600901600a9004810192821562000d815791602002820160005b8382111562000d4e57835183826101000a81548162ffffff021916908360ff160217905550926020019260030160208160020104928301926001030262000d0c565b801562000d7f5782816101000a81549062ffffff021916905560030160208160020104928301926001030262000d4e565b505b5062000d8f92915062000e10565b5090565b82805462000da19062001048565b90600052602060002090601f01602090048101928262000dc5576000855562000d81565b82601f1062000de057805160ff191683800117855562000d81565b8280016001018555821562000d81579182015b8281111562000d8157825182559160200191906001019062000df3565b5b8082111562000d8f576000815560010162000e11565b60006020828403121562000e3a57600080fd5b81517fffffffff000000000000000000000000000000000000000000000000000000008116811462000e6b57600080fd5b9392505050565b6000806040838503121562000e8657600080fd5b825162000e9381620012db565b602084015190925062000ea681620012db565b809150509250929050565b6000815180845262000ecb81602086016020860162001015565b601f01601f19169290920160200192915050565b7f556e6c696d697465642045766f6c7574696f6e20506f74696f6e20230000000081526000825162000f1981601c85016020870162001015565b91909101601c0192915050565b7f556e6c696d697465642045766f6c7574696f6e2053747566662023000000000081526000825162000f6081601b85016020870162001015565b91909101601b0192915050565b600160a060020a03868116825285166020820152604081018490526060810183905260a06080820181905260009062000fa99083018462000eb1565b979650505050505050565b60208152600062000e6b602083018462000eb1565b6000821982111562000fdf5762000fdf62001127565b500190565b60008262000ff65762000ff662001156565b500490565b60008282101562001010576200101062001127565b500390565b60005b838110156200103257818101518382015260200162001018565b8381111562001042576000848401525b50505050565b6002810460018216806200105d57607f821691505b6020821081141562001098577f4e487b7100000000000000000000000000000000000000000000000000000000600052602260045260246000fd5b50919050565b601f8201601f191681016001604060020a0381118282101715620010eb577f4e487b7100000000000000000000000000000000000000000000000000000000600052604160045260246000fd5b6040525050565b600060001982141562001109576200110962001127565b5060010190565b60008262001122576200112262001156565b500690565b7f4e487b7100000000000000000000000000000000000000000000000000000000600052601160045260246000fd5b7f4e487b7100000000000000000000000000000000000000000000000000000000600052601260045260246000fd5b7f4e487b7100000000000000000000000000000000000000000000000000000000600052602160045260246000fd5b7f4e487b7100000000000000000000000000000000000000000000000000000000600052603260045260246000fd5b7f4e487b7100000000000000000000000000000000000000000000000000000000600052604160045260246000fd5b600060033d1115620012495760046000803e7c01000000000000000000000000000000000000000000000000000000006000510490505b90565b600060443d10156200125b5790565b6040516003193d81016004833e81513d6001604060020a0381602484011181841117156200128b57505050505090565b8285019150815181811115620012a45750505050505090565b843d8701016020828501011115620012bf5750505050505090565b620012d0602082860101876200109e565b509095945050505050565b600160a060020a0381168114620012f157600080fd5b50565b615ef180620013046000396000f3fe6080604052600436106102335760003560e060020a900480637a8042bd11610132578063bc197c81116100af578063e985e9c511610073578063e985e9c5146106f7578063ec7a1ceb14610740578063f23a6e611461076d578063f242432a146107b2578063f2fde38b146107d257600080fd5b8063bc197c811461061f578063cd9ea3421461067d578063db48a88814610697578063e3d66920146106b7578063e5001204146106d757600080fd5b806398540989116100f6578063985409891461058a578063a0ef91df146105aa578063a22cb465146105bf578063a2ee2557146105df578063aee231f9146105f257600080fd5b80637a8042bd146104f95780638114b33d1461051957806384017e521461052c5780638acf59f21461054c5780638da5cb5b1461056c57600080fd5b80632a3f8963116101c05780634e1273f4116101845780634e1273f4146104625780634e82debc1461048f5780634fb97a10146104af5780635f375368146104c4578063715018a6146104e457600080fd5b80632a3f8963146103cb5780632eb2c2d6146103e05780633418e436146104005780633bedaca2146104205780633c4739d31461044057600080fd5b806320e5b22e1161020757806320e5b22e1461030a578063220cb4ce1461032c578063249b119f1461034e57806324ff766e1461038b57806326a4e8d2146103ab57600080fd5b8062fdd58e1461023857806301ffc9a71461026b57806306fdde031461029b5780630e89341c146102ea575b600080fd5b34801561024457600080fd5b506102586102533660046150be565b6107f2565b6040519081526020015b60405180910390f35b34801561027757600080fd5b5061028b6102863660046151b7565b6108a1565b6040519015158152602001610262565b3480156102a757600080fd5b5060408051808201909152601381527f556e6c696d697465642045766f6c7574696f6e0000000000000000000000000060208201525b60405161026291906158ea565b3480156102f657600080fd5b506102dd6103053660046152df565b6108ac565b34801561031657600080fd5b5061031f6108dd565b60405161026291906157f4565b34801561033857600080fd5b5061034c61034736600461528b565b610aef565b005b34801561035a57600080fd5b50600754610373906101009004600160a060020a031681565b604051600160a060020a039091168152602001610262565b34801561039757600080fd5b5061034c6103a6366004614f1e565b610ec1565b3480156103b757600080fd5b5061034c6103c6366004614f1e565b610f1d565b3480156103d757600080fd5b5061034c610f7f565b3480156103ec57600080fd5b5061034c6103fb366004614f73565b610fc0565b34801561040c57600080fd5b5061034c61041b366004615270565b611065565b34801561042c57600080fd5b5060085461037390600160a060020a031681565b34801561044c57600080fd5b5061045561122d565b60405161026291906157a5565b34801561046e57600080fd5b5061048261047d3660046150e8565b6117de565b6040516102629190615836565b34801561049b57600080fd5b5061034c6104aa366004615270565b61191f565b3480156104bb57600080fd5b50610455611a28565b3480156104d057600080fd5b5061034c6104df3660046152df565b612053565b3480156104f057600080fd5b5061034c6120b5565b34801561050557600080fd5b5061034c6105143660046152df565b6120ee565b61034c6105273660046151f1565b61218e565b34801561053857600080fd5b5061034c6105473660046152df565b612431565b34801561055857600080fd5b5061034c610567366004615270565b612493565b34801561057857600080fd5b50600354600160a060020a0316610373565b34801561059657600080fd5b5061034c6105a53660046152f8565b61252b565b3480156105b657600080fd5b5061034c612751565b3480156105cb57600080fd5b5061034c6105da366004615082565b6127c5565b61034c6105ed366004615365565b6127d0565b3480156105fe57600080fd5b5061061261060d366004615365565b61297c565b6040516102629190615aec565b34801561062b57600080fd5b5061066461063a366004614f73565b7fbc197c810000000000000000000000000000000000000000000000000000000095945050505050565b604051600160e060020a03199091168152602001610262565b34801561068957600080fd5b5060075461028b9060ff1681565b3480156106a357600080fd5b5061034c6106b236600461521f565b612a4e565b3480156106c357600080fd5b5061034c6106d2366004615380565b6130db565b3480156106e357600080fd5b5061034c6106f23660046152b5565b613252565b34801561070357600080fd5b5061028b610712366004614f40565b600160a060020a03918216600090815260016020908152604080832093909416825291909152205460ff1690565b34801561074c57600080fd5b5061076061075b366004615270565b61384d565b6040516102629190615add565b34801561077957600080fd5b5061066461078836600461501d565b7ff23a6e610000000000000000000000000000000000000000000000000000000095945050505050565b3480156107be57600080fd5b5061034c6107cd36600461501d565b61399d565b3480156107de57600080fd5b5061034c6107ed366004614f1e565b613a3b565b6000600160a060020a0383166108785760405160e560020a62461bcd02815260206004820152602b60248201527f455243313135353a2062616c616e636520717565727920666f7220746865207a60448201527f65726f206164647265737300000000000000000000000000000000000000000060648201526084015b60405180910390fd5b50600081815260208181526040808320600160a060020a03861684529091529020545b92915050565b600061089b82613c4f565b60606108b782613af0565b6040516020016108c791906155f2565b6040516020818303038152906040529050919050565b60606000805b60035460ff60a060020a9091048116908216101561093b578060ff1660051415801561091657506109168160ff16613c8d565b15610929578161092581615d0b565b9250505b8061093381615d0b565b9150506108e3565b5060008160ff1667ffffffffffffffff81111561095a5761095a615dc5565b6040519080825280602002602001820160405280156109c157816020015b6109ae6040805160c08101825260008082526020820181905291810182905260608101829052608081018290529060a082015290565b8152602001906001900390816109785790505b5090506000805b6003546109e19060019060a060020a900460ff16615c39565b60ff168160ff161015610ae6578060ff16600514158015610a095750610a098160ff16613c8d565b15610ad45760ff8082166000908152600a6020908152604091829020825160c0810184528154808616825261010081048616938201939093526201000083048516938101939093526301000000820484166060840152640100000000820484166080840152919260a0840191650100000000009004166001811115610a9057610a90615d93565b6001811115610aa157610aa1615d93565b81525050838360ff1681518110610aba57610aba615dac565b60200260200101819052508180610ad090615d0b565b9250505b80610ade81615d0b565b9150506109c8565b50909392505050565b610afd8262ffffff16613c8d565b610b1c5760405160e560020a62461bcd02815260040161086f9061595a565b610b2a8162ffffff16613c8d565b1515610b3a8362ffffff16613c8d565b15151415610bb35760405160e560020a62461bcd02815260206004820152602160248201527f596f7572204e4654732063616e6e6f742066696768742065616368206f74686560448201527f7200000000000000000000000000000000000000000000000000000000000000606482015260840161086f565b62ffffff82166000908152600960205260409020600101544290610bda9062015180615b45565b10610c2a5760405160e560020a62461bcd02815260206004820152601b60248201527f596f75277265206368617261637465722069732072657374696e670000000000604482015260640161086f565b62ffffff81166000908152600960205260409020600101544290610c519062015180615b45565b10610ca15760405160e560020a62461bcd02815260206004820152601760248201527f596f7527726520726976616c2069732072657374696e67000000000000000000604482015260640161086f565b62ffffff808316600090815260096020526040902054600a605860020a9091049091161015610d155760405160e560020a62461bcd02815260206004820152601260248201527f4e6f7420656e6f756768207374616d696e610000000000000000000000000000604482015260640161086f565b62ffffff80821660009081526009602052604080822054928516825290205461ffff630100000092839004811692909104161115610d985760405160e560020a62461bcd02815260206004820152601c60248201527f466967687420736f6d656f6e6520796f7572206f776e2073697a652100000000604482015260640161086f565b62ffffff808316600090815260096020526040902054604060020a90041615801590610de0575062ffffff808216600090815260096020526040902054604060020a90041615155b610e2f5760405160e560020a62461bcd02815260206004820152601760248201527f4f6e65206f6620746865204e4654732069732064656164000000000000000000604482015260640161086f565b6000610e3b8383613ca1565b90506000610e498385613ca1565b62ffffff808616600090815260096020526040902054919250610e7791600a91605860020a90910416615c06565b62ffffff858116600090815260096020526040902080546dffffff00000000000000000000001916605860020a9390921692909202179055610ebb84848484613dce565b50505050565b600354600160a060020a03163314610eee5760405160e560020a62461bcd02815260040161086f90615aa8565b6008805473ffffffffffffffffffffffffffffffffffffffff1916600160a060020a0392909216919091179055565b600354600160a060020a03163314610f4a5760405160e560020a62461bcd02815260040161086f90615aa8565b60078054600160a060020a039092166101000274ffffffffffffffffffffffffffffffffffffffff0019909216919091179055565b600354600160a060020a03163314610fac5760405160e560020a62461bcd02815260040161086f90615aa8565b6007805460ff19811660ff90911615179055565b600160a060020a038516331480610fdc5750610fdc8533610712565b6110515760405160e560020a62461bcd02815260206004820152603260248201527f455243313135353a207472616e736665722063616c6c6572206973206e6f742060448201527f6f776e6572206e6f7220617070726f7665640000000000000000000000000000606482015260840161086f565b61105e8585858585613fa1565b5050505050565b60ff8162ffffff16116110bd5760405160e560020a62461bcd02815260206004820152601960248201527f57726f6e67206b696e64206f66204e4654202853747566662900000000000000604482015260640161086f565b6110cb8162ffffff16613c8d565b6110ea5760405160e560020a62461bcd02815260040161086f9061595a565b6110f46005613c8d565b6111435760405160e560020a62461bcd02815260206004820152601660248201527f596f7520646f6e2774206f776e206120706f74696f6e00000000000000000000604482015260640161086f565b62ffffff8082166000908152600960205260409020546064605860020a9091049091161080611192575062ffffff8082166000908152600960205260409020546064604060020a909104909116105b6111b15760405160e560020a62461bcd02815260040161086f906159ee565b6111be3360056001614194565b62ffffff811660008181526009602090815260409182902080546dffffffffffff000000000000000019166b64000064000000000000000017905590519182527f127a62fea82fb42bc3a6f379a68f1ccd885eb84979d3c9372bf3d70c765cf13b91015b60405180910390a150565b336000908152600b602052604081205460609190819060ff1667ffffffffffffffff81111561125e5761125e615dc5565b60405190808252806020026020018201604052801561129757816020015b611284614d6b565b81526020019060019003908161127c5790505b5090506101005b60035461ffff60a860020a90910481169082161015611458576112c48161ffff16613c8d565b156114465761ffff80821660009081526009602090815260409182902082516101e081018452815462ffffff81811683526301000000820490961693820193909352650100000000008304851693810193909352604060020a820484166060840152605860020a820484166080840152607060020a8204841660a0840152608860020a8204841660c084015260a060020a8204841660e084015260b860020a8204841661010084015260d060020a820490931661012083015260ff60e860020a8204811661014084015260f060020a909104811661016083015260018301546101808301526002808401549293926101a085019216908111156113c9576113c9615d93565b60028111156113da576113da615d93565b81526020016002820160019054906101000a900460ff16600281111561140257611402615d93565b600281111561141357611413615d93565b81525050828460ff168151811061142c5761142c615dac565b6020026020010181905250828061144290615d0b565b9350505b8061145081615cb5565b91505061129e565b50619d405b60035462ffffff60b860020a90910481169082161015611617576114858162ffffff16613c8d565b156116055762ffffff80821660009081526009602090815260409182902082516101e0810184528154808616825261ffff630100000082041693820193909352650100000000008304851693810193909352604060020a820484166060840152605860020a820484166080840152607060020a8204841660a0840152608860020a8204841660c084015260a060020a8204841660e084015260b860020a8204841661010084015260d060020a820490931661012083015260ff60e860020a8204811661014084015260f060020a909104811661016083015260018301546101808301526002808401549293926101a0850192169081111561158857611588615d93565b600281111561159957611599615d93565b81526020016002820160019054906101000a900460ff1660028111156115c1576115c1615d93565b60028111156115d2576115d2615d93565b81525050828460ff16815181106115eb576115eb615dac565b6020026020010181905250828061160190615d0b565b9350505b8061160f81615cd7565b91505061145d565b50620139805b60035462ffffff60d060020a909104811690821610156117d7576116458162ffffff16613c8d565b156117c55762ffffff80821660009081526009602090815260409182902082516101e0810184528154808616825261ffff630100000082041693820193909352650100000000008304851693810193909352604060020a820484166060840152605860020a820484166080840152607060020a8204841660a0840152608860020a8204841660c084015260a060020a8204841660e084015260b860020a8204841661010084015260d060020a820490931661012083015260ff60e860020a8204811661014084015260f060020a909104811661016083015260018301546101808301526002808401549293926101a0850192169081111561174857611748615d93565b600281111561175957611759615d93565b81526020016002820160019054906101000a900460ff16600281111561178157611781615d93565b600281111561179257611792615d93565b81525050828460ff16815181106117ab576117ab615dac565b602002602001018190525082806117c190615d0b565b9350505b806117cf81615cd7565b91505061161d565b5092915050565b6060815183511461185a5760405160e560020a62461bcd02815260206004820152602960248201527f455243313135353a206163636f756e747320616e6420696473206c656e67746860448201527f206d69736d617463680000000000000000000000000000000000000000000000606482015260840161086f565b6000835167ffffffffffffffff81111561187657611876615dc5565b60405190808252806020026020018201604052801561189f578160200160208202803683370190505b50905060005b8451811015611917576118ea8582815181106118c3576118c3615dac565b60200260200101518583815181106118dd576118dd615dac565b60200260200101516107f2565b8282815181106118fc576118fc615dac565b602090810291909101015261191081615cf0565b90506118a5565b509392505050565b61192d8162ffffff16613c8d565b61194c5760405160e560020a62461bcd02815260040161086f9061595a565b62ffffff8082166000908152600960205260409020546064605860020a909104909116108061199b575062ffffff8082166000908152600960205260409020546064604060020a909104909116105b6119ba5760405160e560020a62461bcd02815260040161086f906159ee565b62ffffff811660008181526009602090815260409182902042600182015580546dffffffffffff000000000000000019166b64000064000000000000000017905590519182527f70b3acde96522f48d954a5bb77f27755c277bb00853b13264d21178135d3d0a99101611222565b336000908152600b602052604081205460035460609291829160ff90911690611a6190620139809060d060020a900462ffffff16615c06565b600354611a7d90619d409060b860020a900462ffffff16615c06565b600354611a98906101009060a860020a900461ffff16615be3565b61ffff16611aa69190615b1e565b611ab09190615b1e565b611aba9190615c06565b62ffffff1667ffffffffffffffff811115611ad757611ad7615dc5565b604051908082528060200260200182016040528015611b1057816020015b611afd614d6b565b815260200190600190039081611af55790505b5090506101005b60035461ffff60a860020a90910481169082161015611cd257611b3d8161ffff16613c8d565b611cc05761ffff80821660009081526009602090815260409182902082516101e081018452815462ffffff81811683526301000000820490961693820193909352650100000000008304851693810193909352604060020a820484166060840152605860020a820484166080840152607060020a8204841660a0840152608860020a8204841660c084015260a060020a8204841660e084015260b860020a8204841661010084015260d060020a820490931661012083015260ff60e860020a8204811661014084015260f060020a909104811661016083015260018301546101808301526002808401549293926101a08501921690811115611c4157611c41615d93565b6002811115611c5257611c52615d93565b81526020016002820160019054906101000a900460ff166002811115611c7a57611c7a615d93565b6002811115611c8b57611c8b615d93565b81525050828462ffffff1681518110611ca657611ca6615dac565b60200260200101819052508280611cbc90615cd7565b9350505b80611cca81615cb5565b915050611b17565b50619d405b60035462ffffff60b860020a90910481169082161015611e9257611cff8162ffffff16613c8d565b611e805762ffffff80821660009081526009602090815260409182902082516101e0810184528154808616825261ffff630100000082041693820193909352650100000000008304851693810193909352604060020a820484166060840152605860020a820484166080840152607060020a8204841660a0840152608860020a8204841660c084015260a060020a8204841660e084015260b860020a8204841661010084015260d060020a820490931661012083015260ff60e860020a8204811661014084015260f060020a909104811661016083015260018301546101808301526002808401549293926101a08501921690811115611e0157611e01615d93565b6002811115611e1257611e12615d93565b81526020016002820160019054906101000a900460ff166002811115611e3a57611e3a615d93565b6002811115611e4b57611e4b615d93565b81525050828462ffffff1681518110611e6657611e66615dac565b60200260200101819052508280611e7c90615cd7565b9350505b80611e8a81615cd7565b915050611cd7565b50620139805b60035462ffffff60d060020a909104811690821610156117d757611ec08162ffffff16613c8d565b6120415762ffffff80821660009081526009602090815260409182902082516101e0810184528154808616825261ffff630100000082041693820193909352650100000000008304851693810193909352604060020a820484166060840152605860020a820484166080840152607060020a8204841660a0840152608860020a8204841660c084015260a060020a8204841660e084015260b860020a8204841661010084015260d060020a820490931661012083015260ff60e860020a8204811661014084015260f060020a909104811661016083015260018301546101808301526002808401549293926101a08501921690811115611fc257611fc2615d93565b6002811115611fd357611fd3615d93565b81526020016002820160019054906101000a900460ff166002811115611ffb57611ffb615d93565b600281111561200c5761200c615d93565b81525050828462ffffff168151811061202757612027615dac565b6020026020010181905250828061203d90615cd7565b9350505b8061204b81615cd7565b915050611e98565b600354600160a060020a031633146120805760405160e560020a62461bcd02815260040161086f90615aa8565b60068190556040518181527f38f4067adf1477c6ed59234d75dfe320c18a2373bd9a839a489794e207148bbb90602001611222565b600354600160a060020a031633146120e25760405160e560020a62461bcd02815260040161086f90615aa8565b6120ec6000614347565b565b600354600160a060020a0316331461211b5760405160e560020a62461bcd02815260040161086f90615aa8565b6008546040517f2e1a7d4d00000000000000000000000000000000000000000000000000000000815260048101839052600160a060020a0390911690632e1a7d4d90602401600060405180830381600087803b15801561217a57600080fd5b505af115801561105e573d6000803e3d6000fd5b60055434146121e25760405160e560020a62461bcd02815260206004820152601460248201527f57726f6e6720616d6f756e74206f662066656573000000000000000000000000604482015260640161086f565b336000908152600b6020526040902054600560ff909116106122495760405160e560020a62461bcd02815260206004820152601e60248201527f596f752063616e27742068617665206d6f7265207468616e2035204e46540000604482015260640161086f565b60035460e860020a900462ffffff16600483600281111561226c5761226c615d93565b60ff168154811061227f5761227f615dac565b90600052602060002090600a91828204019190066003029054906101000a900462ffffff1662ffffff1611156123205760405160e560020a62461bcd02815260206004820152602e60248201527f596f752063616e6e6f74206d696e74206d6f726520636861726163746572207760448201527f697468207468697320636c617373000000000000000000000000000000000000606482015260840161086f565b60075460ff166123ad576008546040517fc8345a34000000000000000000000000000000000000000000000000000000008152600160a060020a039091169063c8345a349061237790859085903390600401615877565b600060405180830381600087803b15801561239157600080fd5b505af11580156123a5573d6000803e3d6000fd5b505050505050565b60408051426020808301919091524482840152336c010000000000000000000000000260608301528251605481840301815260749092019092528051910120309063db48a888908490849061240a90662386f26fc1000090615d4d565b336040518563ffffffff1660e060020a02815260040161237794939291906158ad565b5050565b600354600160a060020a0316331461245e5760405160e560020a62461bcd02815260040161086f90615aa8565b60058190556040518181527f38fbb1c8b109c430f0c030e7ed076cf5611a307773a4e8e365601e8f8bceaec690602001611222565b600354600160a060020a031633146124c05760405160e560020a62461bcd02815260040161086f90615aa8565b600380547cffffffffffffffffffffffffffffffffffffffffffffffffffffffffff1660e860020a62ffffff8481168202929092179283905560405192041681527fb7d28e616ee42c9b98a93c9bc72ee6f206603cd1e23793ae33c19c3c3b86c4e190602001611222565b600354600160a060020a031633146125585760405160e560020a62461bcd02815260040161086f90615aa8565b60035461010060a060020a90910460ff16106125b95760405160e560020a62461bcd02815260206004820152601e60248201527f546865204e4654205374756666206c696d697420697320726561636865640000604482015260640161086f565b6125e630600360149054906101000a900460ff1660ff1688604051806020016040528060008152506143a6565b6040518060c00160405280600360149054906101000a900460ff1660ff1681526020018660ff1681526020018560ff1681526020018460ff1681526020018360ff16815260200182600181111561263f5761263f615d93565b905260035460ff60a060020a90910481166000908152600a60209081526040918290208451815492860151938601516060870151608088015187166401000000000264ff000000001991881663010000000263ff0000001993891662010000029390931663ffff0000199789166101000261ffff199097169490981693909317949094179490941694909417929092179081168317825560a08401519192839165ff00000000001990911665ffff0000000019909116176501000000000083600181111561270f5761270f615d93565b0217905550506003805460a060020a900460ff169150601461273083615d0b565b91906101000a81548160ff021916908360ff16021790555050505050505050565b600354600160a060020a0316331461277e5760405160e560020a62461bcd02815260040161086f90615aa8565b600354600160a060020a0316604051600160a060020a039190911690303180156108fc02916000818181858888f193505050501580156127c2573d6000803e3d6000fd5b50565b61242d3383836144cf565b60ff81166128235760405160e560020a62461bcd02815260206004820152601260248201527f4e6f6e2d6578697374656e742073747566660000000000000000000000000000604482015260640161086f565b612830308260ff166107f2565b61287f5760405160e560020a62461bcd02815260206004820152601760248201527f5374756666206e6f206d6f726520617661696c61626c65000000000000000000604482015260640161086f565b60065434146128d35760405160e560020a62461bcd02815260206004820152601460248201527f57726f6e6720616d6f756e74206f662066656573000000000000000000000000604482015260640161086f565b6040517ff242432a000000000000000000000000000000000000000000000000000000008152309063f242432a906129169083903390869060019060040161576a565b600060405180830381600087803b15801561293057600080fd5b505af1158015612944573d6000803e3d6000fd5b505060405160ff841681527f4afa87c6ddce4f5aa8b4ca6a375ecd27ea57ee7fec3e1648ceeea5c9dd19a2c892506020019050611222565b6129b26040805160c08101825260008082526020820181905291810182905260608101829052608081018290529060a082015290565b60ff8083166000908152600a6020908152604091829020825160c0810184528154808616825261010081048616938201939093526201000083048516938101939093526301000000820484166060840152640100000000820484166080840152919260a0840191650100000000009004166001811115612a3457612a34615d93565b6001811115612a4557612a45615d93565b90525092915050565b600354600160a060020a0316331480612a715750600854600160a060020a031633145b80612a7b57503330145b612aca5760405160e560020a62461bcd02815260206004820181905260248201527f4e6f7420616c6c6f77656420746f2075736520746869732066756e6374696f6e604482015260640161086f565b6000612ad5836145c7565b9050600080866002811115612aec57612aec615d93565b1415612b06575060035460a860020a900461ffff16612b46565b6001866002811115612b1a57612b1a615d93565b1415612b35575060035460b860020a900462ffffff16612b46565b5060035460d060020a900462ffffff165b604051806101e001604052808262ffffff168152602001600161ffff168152602001600162ffffff168152602001606462ffffff168152602001606462ffffff16815260200183600081518110612b9f57612b9f615dac565b602002602001015160ff1662ffffff16815260200183600181518110612bc757612bc7615dac565b602002602001015160ff1662ffffff16815260200183600281518110612bef57612bef615dac565b602002602001015160ff1662ffffff16815260200183600381518110612c1757612c17615dac565b602002602001015160ff1662ffffff168152602001600062ffffff168152602001600060ff168152602001600060ff16815260200160008152602001876002811115612c6557612c65615d93565b8152602001866002811115612c7c57612c7c615d93565b815250600960008362ffffff1662ffffff16815260200190815260200160002060008201518160000160006101000a81548162ffffff021916908362ffffff16021790555060208201518160000160036101000a81548161ffff021916908361ffff16021790555060408201518160000160056101000a81548162ffffff021916908362ffffff16021790555060608201518160000160086101000a81548162ffffff021916908362ffffff160217905550608082015181600001600b6101000a81548162ffffff021916908362ffffff16021790555060a082015181600001600e6101000a81548162ffffff021916908362ffffff16021790555060c08201518160000160116101000a81548162ffffff021916908362ffffff16021790555060e08201518160000160146101000a81548162ffffff021916908362ffffff1602179055506101008201518160000160176101000a81548162ffffff021916908362ffffff16021790555061012082015181600001601a6101000a81548162ffffff021916908362ffffff16021790555061014082015181600001601d6101000a81548160ff021916908360ff16021790555061016082015181600001601e6101000a81548160ff021916908360ff16021790555061018082015181600101556101a08201518160020160006101000a81548160ff02191690836002811115612e8857612e88615d93565b02179055506101c08201518160020160016101000a81548160ff02191690836002811115612eb857612eb8615d93565b02179055505050600160a060020a0383166000908152600b60205260408120805460ff1691612ee683615d0b565b91906101000a81548160ff021916908360ff160217905550506004866002811115612f1357612f13615d93565b60ff1681548110612f2657612f26615dac565b90600052602060002090600a918282040191900660030281819054906101000a900462ffffff1680929190612f5a90615cd7565b91906101000a81548162ffffff021916908362ffffff16021790555050612fb5838262ffffff166001612f918562ffffff16613af0565b604051602001612fa19190615684565b6040516020818303038152906040526143a6565b60405162ffffff821681527fe227f939502c878cd77af001b21022d49a6b5ad9c3103d7ad7cacc22b89c7e189060200160405180910390a1600086600281111561300157613001615d93565b1415613042576003805460a860020a900461ffff1690601561302283615cb5565b91906101000a81548161ffff021916908361ffff160217905550506123a5565b600186600281111561305657613056615d93565b141561309a576003805460b860020a900462ffffff1690601761307883615cd7565b91906101000a81548162ffffff021916908362ffffff160217905550506123a5565b6003805460d060020a900462ffffff1690601a6130b683615cd7565b91906101000a81548162ffffff021916908362ffffff16021790555050505050505050565b600354600160a060020a031633146131085760405160e560020a62461bcd02815260040161086f90615aa8565b613126308860ff1688604051806020016040528060008152506143a6565b8660ff16600514613249576040518060c001604052808860ff1681526020018660ff1681526020018560ff1681526020018460ff1681526020018360ff16815260200182600181111561317b5761317b615d93565b905260ff8089166000908152600a60209081526040918290208451815492860151938601516060870151608088015187166401000000000264ff000000001991881663010000000263ff0000001993891662010000029390931663ffff0000199789166101000261ffff199097169490981693909317949094179490941694909417929092179081168317825560a08401519192839165ff00000000001990911665ffff0000000019909116176501000000000083600181111561324157613241615d93565b021790555050505b50505050505050565b60ff8262ffffff16116132aa5760405160e560020a62461bcd02815260206004820152601960248201527f57726f6e67206b696e64206f66204e4654202853747566662900000000000000604482015260640161086f565b6132b88262ffffff16613c8d565b6132d75760405160e560020a62461bcd02815260040161086f9061595a565b60ff81166005141561332e5760405160e560020a62461bcd02815260206004820152601860248201527f596f752063616e2774206571756970206120706f74696f6e0000000000000000604482015260640161086f565b61333a8160ff16613c8d565b6133895760405160e560020a62461bcd02815260206004820152601860248201527f596f7520646f6e2774206f776e20746869732073747566660000000000000000604482015260640161086f565b60ff8082166000908152600a602052604081205465010000000000900490911690808260018111156133bd576133bd615d93565b14156133e8575062ffffff831660009081526009602052604090205460e860020a900460ff16613409565b5062ffffff831660009081526009602052604090205460f060020a900460ff165b60ff8116156135af5760ff8082166000908152600a602090815260408083205462ffffff808a1685526009909352922080546101009093049093169291600e9161345d918591607060020a90910416615c06565b82546101009290920a62ffffff81810219909316918316021790915560ff8381166000908152600a60209081526040808320548a861684526009909252909120805462010000909204909216935090916011916134c3918591608860020a900416615c06565b82546101009290920a62ffffff81810219909316918316021790915560ff8381166000908152600a60209081526040808320548a861684526009909252909120805463010000009092049092169350909160149161352a91859160a060020a900416615c06565b82546101009290920a62ffffff81810219909316918316021790915560ff8381166000908152600a60209081526040808320548a86168452600990925290912080546401000000009092049092169350909160179161359291859160b860020a900416615c06565b92506101000a81548162ffffff021916908362ffffff1602179055505b60ff8084166000908152600a602090815260408083205462ffffff808a1685526009909352922080546101009093049093169291600e916135fa918591607060020a90910416615b1e565b82546101009290920a62ffffff81810219909316918316021790915560ff8581166000908152600a60209081526040808320548a86168452600990925290912080546201000090920490921693509091601191613660918591608860020a900416615b1e565b82546101009290920a62ffffff81810219909316918316021790915560ff8581166000908152600a60209081526040808320548a86168452600990925290912080546301000000909204909216935090916014916136c791859160a060020a900416615b1e565b82546101009290920a62ffffff81810219909316918316021790915560ff8581166000908152600a60209081526040808320548a86168452600990925290912080546401000000009092049092169350909160179161372f91859160b860020a900416615b1e565b92506101000a81548162ffffff021916908362ffffff1602179055506000600181111561375e5761375e615d93565b82600181111561377057613770615d93565b14156137c05762ffffff8416600090815260096020526040902080547fffff00ffffffffffffffffffffffffffffffffffffffffffffffffffffffffff1660e860020a60ff861602179055613806565b62ffffff8416600090815260096020526040902080547fff00ffffffffffffffffffffffffffffffffffffffffffffffffffffffffffff1660f060020a60ff8616021790555b6040805162ffffff8616815260ff851660208201527f610fb6ee23e2ff6ad836d380855fbefc8d4c765b388a588262c443f13fefc30091015b60405180910390a150505050565b613855614d6b565b62ffffff80831660009081526009602090815260409182902082516101e0810184528154808616825261ffff630100000082041693820193909352650100000000008304851693810193909352604060020a820484166060840152605860020a820484166080840152607060020a8204841660a0840152608860020a8204841660c084015260a060020a8204841660e084015260b860020a8204841661010084015260d060020a820490931661012083015260ff60e860020a8204811661014084015260f060020a909104811661016083015260018301546101808301526002808401549293926101a0850192169081111561395357613953615d93565b600281111561396457613964615d93565b81526020016002820160019054906101000a900460ff16600281111561398c5761398c615d93565b6002811115612a4557612a45615d93565b600160a060020a0385163314806139b957506139b98533610712565b613a2e5760405160e560020a62461bcd02815260206004820152602960248201527f455243313135353a2063616c6c6572206973206e6f74206f776e6572206e6f7260448201527f20617070726f7665640000000000000000000000000000000000000000000000606482015260840161086f565b61105e8585858585614665565b600354600160a060020a03163314613a685760405160e560020a62461bcd02815260040161086f90615aa8565b600160a060020a038116613ae75760405160e560020a62461bcd02815260206004820152602660248201527f4f776e61626c653a206e6577206f776e657220697320746865207a65726f206160448201527f6464726573730000000000000000000000000000000000000000000000000000606482015260840161086f565b6127c281614347565b606081613b3057505060408051808201909152600181527f3000000000000000000000000000000000000000000000000000000000000000602082015290565b8160005b8115613b5a5780613b4481615cf0565b9150613b539050600a83615ba4565b9150613b34565b60008167ffffffffffffffff811115613b7557613b75615dc5565b6040519080825280601f01601f191660200182016040528015613b9f576020820181803683370190505b5090505b8415613c4157613bb4600183615c22565b9150613bc1600a86615d4d565b613bcc906030615b45565b7f010000000000000000000000000000000000000000000000000000000000000002818381518110613c0057613c00615dac565b60200101907effffffffffffffffffffffffffffffffffffffffffffffffffffffffffffff1916908160001a905350613c3a600a86615ba4565b9450613ba3565b949350505050565b3b151590565b6000600160e060020a031982167f4e2312e000000000000000000000000000000000000000000000000000000000148061089b575061089b8261477f565b6000613c9933836107f2565b151592915050565b62ffffff80831660009081526009602052604081205490918291613cd19165010000000000909104166001615b1e565b62ffffff808616600090815260096020526040902054600291613d0691608860020a8104821691607060020a90910416615b1e565b613d109190615b82565b613d1a9190615bb8565b62ffffff848116600090815260096020526040812054928216935091600291613d4e91650100000000009004166001615b1e565b613d589190615b82565b62ffffff808616600090815260096020526040902054600291613d8d9160b860020a810482169160a060020a90910416615b1e565b613d979190615b82565b613da19190615bb8565b62ffffff16905080821015613dbb5760009250505061089b565b613dc58183615c22565b9250505061089b565b62ffffff808416600090815260096020526040902054604060020a9004168210613e265762ffffff8316600090815260096020526040902080546affffff000000000000000019169055613e218461481a565b613f56565b62ffffff808416600090815260096020526040902054613e4f918491604060020a900416615c06565b62ffffff84811660009081526009602052604080822080546affffff00000000000000001916604060020a9585168602179055878316825290205491909104168110613ec45762ffffff8416600090815260096020526040902080546affffff000000000000000019169055613e218361481a565b62ffffff808516600090815260096020526040902054613eed918391604060020a900416615c06565b62ffffff858116600090815260096020526040902080546affffff00000000000000001916604060020a939092169290920217905580821115613f3357613e218461481a565b81811115613f4457613e218361481a565b613f4d8461481a565b613f568361481a565b6040805162ffffff808716825285166020820152908101839052606081018290527f91ad1d4c0919e1b53fbdcec65d7dc46d5f6d4de4cbeeeef5e6f1f107d0f4e28e9060800161383f565b815183511461401b5760405160e560020a62461bcd02815260206004820152602860248201527f455243313135353a2069647320616e6420616d6f756e7473206c656e6774682060448201527f6d69736d61746368000000000000000000000000000000000000000000000000606482015260840161086f565b600160a060020a0384166140445760405160e560020a62461bcd02815260040161086f90615991565b3360005b845181101561412e57600085828151811061406557614065615dac565b60200260200101519050600085838151811061408357614083615dac565b60209081029190910181015160008481528083526040808220600160a060020a038e1683529093529190912054909150818110156140d65760405160e560020a62461bcd02815260040161086f90615a4b565b600083815260208181526040808320600160a060020a038e8116855292528083208585039055908b16825281208054849290614113908490615b45565b925050819055505050508061412790615cf0565b9050614048565b5084600160a060020a031686600160a060020a031682600160a060020a03167f4a39dc06d4c0dbc64b70af90fd698a233a518aa5d07e595d983b8c0526c8f7fb878760405161417e929190615849565b60405180910390a46123a5818787878787614a72565b600160a060020a0383166142135760405160e560020a62461bcd02815260206004820152602360248201527f455243313135353a206275726e2066726f6d20746865207a65726f206164647260448201527f6573730000000000000000000000000000000000000000000000000000000000606482015260840161086f565b336142438185600061422487614c21565b61422d87614c21565b5050604080516020810190915260009052505050565b600083815260208181526040808320600160a060020a0388168452909152902054828110156142dc5760405160e560020a62461bcd028152602060048201526024808201527f455243313135353a206275726e20616d6f756e7420657863656564732062616c60448201527f616e636500000000000000000000000000000000000000000000000000000000606482015260840161086f565b600084815260208181526040808320600160a060020a03898116808652918452828520888703905582518981529384018890529092908616917fc3d58168c5ae7397731d063d5bbf3d657854427343f4c083240f7aacaa2d0f62910160405180910390a45050505050565b60038054600160a060020a0383811673ffffffffffffffffffffffffffffffffffffffff19831681179093556040519116919082907f8be0079c531659141344cd1fd0a4f28419497f9722a3daafe3b4186f6b6457e090600090a35050565b600160a060020a0384166144255760405160e560020a62461bcd02815260206004820152602160248201527f455243313135353a206d696e7420746f20746865207a65726f2061646472657360448201527f7300000000000000000000000000000000000000000000000000000000000000606482015260840161086f565b3361443f8160008761443688614c21565b61105e88614c21565b600084815260208181526040808320600160a060020a03891684529091528120805485929061446f908490615b45565b90915550506040805185815260208101859052600160a060020a0380881692600092918516917fc3d58168c5ae7397731d063d5bbf3d657854427343f4c083240f7aacaa2d0f62910160405180910390a461105e81600087878787614c6c565b81600160a060020a031683600160a060020a0316141561455a5760405160e560020a62461bcd02815260206004820152602960248201527f455243313135353a2073657474696e6720617070726f76616c2073746174757360448201527f20666f722073656c660000000000000000000000000000000000000000000000606482015260840161086f565b600160a060020a03838116600081815260016020908152604080832094871680845294825291829020805460ff191686151590811790915591519182527f17307eab39ab6107e8899845ad3d59bd9653f200f220920489ca2b5937696c31910160405180910390a3505050565b60408051600480825260a08201909252606091600091906020820160808036833701905050905060005b60048160ff1610156117d757600361460a82600a615b5d565b6146179060ff1686615d4d565b6146219190615d4d565b61462c906003615b5d565b828260ff168151811061464157614641615dac565b60ff909216602092830291909101909101528061465d81615d0b565b9150506145f1565b600160a060020a03841661468e5760405160e560020a62461bcd02815260040161086f90615991565b3361469e81878761443688614c21565b600084815260208181526040808320600160a060020a038a168452909152902054838110156146e25760405160e560020a62461bcd02815260040161086f90615a4b565b600085815260208181526040808320600160a060020a038b811685529252808320878503905590881682528120805486929061471f908490615b45565b90915550506040805186815260208101869052600160a060020a03808916928a821692918616917fc3d58168c5ae7397731d063d5bbf3d657854427343f4c083240f7aacaa2d0f62910160405180910390a4613249828888888888614c6c565b6000600160e060020a031982167fd9b67a260000000000000000000000000000000000000000000000000000000014806147e25750600160e060020a031982167f0e89341c00000000000000000000000000000000000000000000000000000000145b8061089b57507f01ffc9a700000000000000000000000000000000000000000000000000000000600160e060020a031983161461089b565b62ffffff8082166000908152600960205260409020805465010000000000900490911690600561484983615cd7565b82546101009290920a62ffffff81810219909316918316021790915582811660009081526009602052604090205461488f9250600a916501000000000090910416615d2b565b62ffffff166127c25762ffffff8116600090815260096020526040902080546301000000900461ffff169060036148c583615cb5565b825461ffff9182166101009390930a92830291909202199091161790555062ffffff80821660009081526009602052604090208054600a92601a9161491391859160d060020a900416615b1e565b825461010092830a62ffffff818102199092169290911602179091556007546040517f996061c4000000000000000000000000000000000000000000000000000000008152336004820152919004600160a060020a0316915063996061c490602401600060405180830381600087803b15801561498f57600080fd5b505af11580156149a3573d6000803e3d6000fd5b50506040517ff242432a00000000000000000000000000000000000000000000000000000000815230925063f242432a91506149eb908390339060059060019060040161576a565b600060405180830381600087803b158015614a0557600080fd5b505af1158015614a19573d6000803e3d6000fd5b5050505062ffffff81166000818152600960209081526040918290205482519384526301000000900461ffff16908301527f719792e6ed880d27219754d543fad5ae2f877eeff920d283bb067052d89378119101611222565b600160a060020a0384163b156123a5576040517fbc197c81000000000000000000000000000000000000000000000000000000008152600160a060020a0385169063bc197c8190614acf90899089908890889088906004016156c9565b602060405180830381600087803b158015614ae957600080fd5b505af1925050508015614b19575060408051601f3d908101601f19168201909252614b16918101906151d4565b60015b614bd557614b25615dde565b806308c379a01415614b625750614b3a615dfe565b80614b455750614b64565b8060405160e560020a62461bcd02815260040161086f91906158ea565b505b60405160e560020a62461bcd02815260206004820152603460248201527f455243313135353a207472616e7366657220746f206e6f6e204552433131353560448201527f526563656976657220696d706c656d656e746572000000000000000000000000606482015260840161086f565b600160e060020a031981167fbc197c8100000000000000000000000000000000000000000000000000000000146132495760405160e560020a62461bcd02815260040161086f906158fd565b60408051600180825281830190925260609160009190602080830190803683370190505090508281600081518110614c5b57614c5b615dac565b602090810291909101015292915050565b600160a060020a0384163b156123a5576040517ff23a6e61000000000000000000000000000000000000000000000000000000008152600160a060020a0385169063f23a6e6190614cc99089908990889088908890600401615727565b602060405180830381600087803b158015614ce357600080fd5b505af1925050508015614d13575060408051601f3d908101601f19168201909252614d10918101906151d4565b60015b614d1f57614b25615dde565b600160e060020a031981167ff23a6e6100000000000000000000000000000000000000000000000000000000146132495760405160e560020a62461bcd02815260040161086f906158fd565b604080516101e081018252600080825260208201819052918101829052606081018290526080810182905260a0810182905260c0810182905260e0810182905261010081018290526101208101829052610140810182905261016081018290526101808101829052906101a082019081526020016000905290565b8035600160a060020a0381168114614dfd57600080fd5b919050565b600082601f830112614e1357600080fd5b81356020614e2082615afa565b604051614e2d8282615c88565b838152828101915085830183850287018401881015614e4b57600080fd5b60005b85811015614e6a57813584529284019290840190600101614e4e565b5090979650505050505050565b600082601f830112614e8857600080fd5b813567ffffffffffffffff811115614ea257614ea2615dc5565b604051614eb9601f8301601f191660200182615c88565b818152846020838601011115614ece57600080fd5b816020850160208301376000918101602001919091529392505050565b803560028110614dfd57600080fd5b803562ffffff81168114614dfd57600080fd5b803560ff81168114614dfd57600080fd5b600060208284031215614f3057600080fd5b614f3982614de6565b9392505050565b60008060408385031215614f5357600080fd5b614f5c83614de6565b9150614f6a60208401614de6565b90509250929050565b600080600080600060a08688031215614f8b57600080fd5b614f9486614de6565b9450614fa260208701614de6565b9350604086013567ffffffffffffffff80821115614fbf57600080fd5b614fcb89838a01614e02565b94506060880135915080821115614fe157600080fd5b614fed89838a01614e02565b9350608088013591508082111561500357600080fd5b5061501088828901614e77565b9150509295509295909350565b600080600080600060a0868803121561503557600080fd5b61503e86614de6565b945061504c60208701614de6565b93506040860135925060608601359150608086013567ffffffffffffffff81111561507657600080fd5b61501088828901614e77565b6000806040838503121561509557600080fd5b61509e83614de6565b9150602083013580151581146150b357600080fd5b809150509250929050565b600080604083850312156150d157600080fd5b6150da83614de6565b946020939093013593505050565b600080604083850312156150fb57600080fd5b823567ffffffffffffffff8082111561511357600080fd5b818501915085601f83011261512757600080fd5b8135602061513482615afa565b6040516151418282615c88565b8381528281019150858301838502870184018b101561515f57600080fd5b600096505b848710156151895761517581614de6565b835260019690960195918301918301615164565b50965050860135925050808211156151a057600080fd5b506151ad85828601614e02565b9150509250929050565b6000602082840312156151c957600080fd5b8135614f3981615e98565b6000602082840312156151e657600080fd5b8151614f3981615e98565b6000806040838503121561520457600080fd5b823561520f81615eae565b915060208301356150b381615eae565b6000806000806080858703121561523557600080fd5b843561524081615eae565b9350602085013561525081615eae565b92506040850135915061526560608601614de6565b905092959194509250565b60006020828403121561528257600080fd5b614f3982614efa565b6000806040838503121561529e57600080fd5b6152a783614efa565b9150614f6a60208401614efa565b600080604083850312156152c857600080fd5b6152d183614efa565b9150614f6a60208401614f0d565b6000602082840312156152f157600080fd5b5035919050565b60008060008060008060c0878903121561531157600080fd5b8635955061532160208801614f0d565b945061532f60408801614f0d565b935061533d60608801614f0d565b925061534b60808801614f0d565b915061535960a08801614eeb565b90509295509295509295565b60006020828403121561537757600080fd5b614f3982614f0d565b600080600080600080600060e0888a03121561539b57600080fd5b6153a488614f0d565b9650602088013595506153b960408901614f0d565b94506153c760608901614f0d565b93506153d560808901614f0d565b92506153e360a08901614f0d565b91506153f160c08901614eeb565b905092959891949750929550565b600081518084526020808501945080840160005b8381101561542f57815187529582019590820190600101615413565b509495945050505050565b60008151808452615452816020860160208601615c5c565b601f01601f19169290920160200192915050565b61546f81615e88565b9052565b805162ffffff1682526020810151615491602084018261ffff169052565b5060408101516154a8604084018262ffffff169052565b5060608101516154bf606084018262ffffff169052565b5060808101516154d6608084018262ffffff169052565b5060a08101516154ed60a084018262ffffff169052565b5060c081015161550460c084018262ffffff169052565b5060e081015161551b60e084018262ffffff169052565b506101008181015162ffffff81168483015250506101208181015162ffffff81168483015250506101408181015160ff81168483015250506101608181015160ff811684830152505061018081810151908301526101a08082015161558282850182615466565b50506101c080820151610ebb82850182615466565b60ff815116825260ff602082015116602083015260ff604082015116604083015260ff606082015116606083015260ff608082015116608083015260a0810151600281106155e7576155e7615d93565b8060a0840152505050565b7f697066733a2f2f516d6536736e6f5763337265443543396e755378573342704c81527f7956636932696944387671435a536e4132693432702f00000000000000000000602082015260008251615650816036850160208701615c5c565b7f2e6a736f6e0000000000000000000000000000000000000000000000000000006036939091019283015250603b01919050565b7f556e6c696d697465642045766f6c7574696f6e204368617261637465722023008152600082516156bc81601f850160208701615c5c565b91909101601f0192915050565b6000600160a060020a03808816835280871660208401525060a060408301526156f560a08301866153ff565b828103606084015261570781866153ff565b9050828103608084015261571b818561543a565b98975050505050505050565b6000600160a060020a03808816835280871660208401525084604083015283606083015260a0608083015261575f60a083018461543a565b979650505050505050565b600160a060020a03948516815292909316602083015260ff166040820152606081019190915260a06080820181905260009082015260c00190565b6020808252825182820181905260009190848201906040850190845b818110156157e8576157d4838551615473565b928401926101e092909201916001016157c1565b50909695505050505050565b6020808252825182820181905260009190848201906040850190845b818110156157e857615823838551615597565b9284019260c09290920191600101615810565b602081526000614f3960208301846153ff565b60408152600061585c60408301856153ff565b828103602084015261586e81856153ff565b95945050505050565b6060810161588485615e88565b84825261589084615e88565b836020830152600160a060020a0383166040830152949350505050565b608081016158ba86615e88565b8582526158c685615e88565b846020830152836040830152600160a060020a038316606083015295945050505050565b602081526000614f39602083018461543a565b60208082526028908201527f455243313135353a204552433131353552656365697665722072656a6563746560408201527f6420746f6b656e73000000000000000000000000000000000000000000000000606082015260800190565b60208082526016908201527f596f7520646f6e2774206f776e2074686973204e465400000000000000000000604082015260600190565b60208082526025908201527f455243313135353a207472616e7366657220746f20746865207a65726f20616460408201527f6472657373000000000000000000000000000000000000000000000000000000606082015260800190565b60208082526022908201527f596f752772652063686172616374657220697320616c7265616479207265737460408201527f6564000000000000000000000000000000000000000000000000000000000000606082015260800190565b6020808252602a908201527f455243313135353a20696e73756666696369656e742062616c616e636520666f60408201527f72207472616e7366657200000000000000000000000000000000000000000000606082015260800190565b6020808252818101527f4f776e61626c653a2063616c6c6572206973206e6f7420746865206f776e6572604082015260600190565b6101e0810161089b8284615473565b60c0810161089b8284615597565b600067ffffffffffffffff821115615b1457615b14615dc5565b5060209081020190565b600062ffffff808316818516808303821115615b3c57615b3c615d61565b01949350505050565b60008219821115615b5857615b58615d61565b500190565b600060ff821660ff84168060ff03821115615b7a57615b7a615d61565b019392505050565b600062ffffff80841680615b9857615b98615d7a565b92169190910492915050565b600082615bb357615bb3615d7a565b500490565b600062ffffff80831681851681830481118215151615615bda57615bda615d61565b02949350505050565b600061ffff83811690831681811015615bfe57615bfe615d61565b039392505050565b600062ffffff83811690831681811015615bfe57615bfe615d61565b600082821015615c3457615c34615d61565b500390565b600060ff821660ff841680821015615c5357615c53615d61565b90039392505050565b60005b83811015615c77578181015183820152602001615c5f565b83811115610ebb5750506000910152565b601f8201601f1916810167ffffffffffffffff81118282101715615cae57615cae615dc5565b6040525050565b600061ffff80831681811415615ccd57615ccd615d61565b6001019392505050565b600062ffffff80831681811415615ccd57615ccd615d61565b6000600019821415615d0457615d04615d61565b5060010190565b600060ff821660ff811415615d2257615d22615d61565b60010192915050565b600062ffffff80841680615d4157615d41615d7a565b92169190910692915050565b600082615d5c57615d5c615d7a565b500690565b60e060020a634e487b7102600052601160045260246000fd5b60e060020a634e487b7102600052601260045260246000fd5b60e060020a634e487b7102600052602160045260246000fd5b60e060020a634e487b7102600052603260045260246000fd5b60e060020a634e487b7102600052604160045260246000fd5b600060033d1115615dfb5760046000803e60e060020a6000510490505b90565b600060443d1015615e0c5790565b6040516003193d81016004833e81513d67ffffffffffffffff8160248401118184111715615e3c57505050505090565b8285019150815181811115615e545750505050505090565b843d8701016020828501011115615e6e5750505050505090565b615e7d60208286010187615c88565b509095945050505050565b600381106127c2576127c2615d93565b600160e060020a0319811681146127c257600080fd5b600381106127c257600080fdfea2646970667358221220651673b0200309c04323297e3f4952dd8f87c00cb62eaa87d66a12ac6aeb2fff64736f6c63430008070033697066733a2f2f516d6536736e6f5763337265443543396e755378573342704c7956636932696944387671435a536e4132693432702f7b69647d2e6a736f6e",
  "immutableReferences": {},
  "source": "// SPDX-License-Identifier: MIT\r\npragma solidity 0.8.7;\r\n\r\nimport \"@openzeppelin/contracts/token/ERC1155/ERC1155.sol\";\r\nimport \"@openzeppelin/contracts/token/ERC1155/utils/ERC1155Holder.sol\";\r\nimport \"@openzeppelin/contracts/access/Ownable.sol\";\r\nimport \"@openzeppelin/contracts/utils/Strings.sol\";\r\nimport \"./RandomNumberGenerator.sol\";\r\nimport \"./UnlimitedToken.sol\";\r\n\r\n/** @title Unlimited Evolution */\r\ncontract UnlimitedEvolution is ERC1155, ERC1155Holder, Ownable {\r\n\r\n    /**\r\n     * @dev Allows you to receive ERC1155 tokens and therefore make external calls to mint.\r\n     * @param interfaceId Id of the interface.\r\n     */\r\n    function supportsInterface(bytes4 interfaceId) public view virtual override(ERC1155, ERC1155Receiver) returns(bool) {\r\n        return super.supportsInterface(interfaceId);\r\n    }\r\n\r\n    uint8 constant BASIC_SWORD = 1;\r\n    uint8 constant BASIC_SHIELD = 2;\r\n    uint8 constant EXCALIBUR = 3;\r\n    uint8 constant AEGIS = 4;\r\n    uint8 constant POTION = 5;\r\n    uint8 nextStuffId = 6;\r\n    uint16 nextBruteId = 256;\r\n    uint24 nextSpiritualId = 40256;\r\n    uint24 nextElementaryId = 80256;\r\n    uint24 limitMint = 4000;\r\n    uint24[] countMints = new uint8[](3);\r\n    uint256 mintFee = 0.001 ether;\r\n    uint256 stuffFee = 0.001 ether;\r\n    // Only for tests, to avoid chainlink\r\n    bool public testMode;\r\n    \r\n    UnlimitedToken public unlimitedToken;\r\n    RandomNumberGenerator public randomNumberGenerator;\r\n\r\n    enum type_character { BRUTE, SPIRITUAL, ELEMENTARY }\r\n    enum gender_character { MASCULINE, FEMININE, OTHER }\r\n    enum type_stuff { WEAPON, SHIELD }\r\n\r\n    struct Character {\r\n        uint24 id;\r\n        uint16 level;\r\n        uint24 xp;\r\n        uint24 hp;\r\n        uint24 stamina;\r\n        uint24 attack1;\r\n        uint24 attack2;\r\n        uint24 defence1;\r\n        uint24 defence2;\r\n        uint24 attributePoints;\r\n        uint8 weapon;\r\n        uint8 shield;\r\n        uint256 lastRest;\r\n        type_character typeCharacter;\r\n        gender_character genderCharacter;\r\n    }\r\n\r\n    struct Stuff {\r\n        uint8 id;\r\n        uint8 bonusAttack1;\r\n        uint8 bonusAttack2;\r\n        uint8 bonusDefence1;\r\n        uint8 bonusDefence2;\r\n        type_stuff typeStuff;\r\n    }\r\n\r\n    // Mapping from token ID to token details\r\n    mapping(uint24 => Character) private _characterDetails;\r\n\r\n    // Mapping from token ID to token details\r\n    mapping(uint8 => Stuff) private _stuffDetails;\r\n\r\n    // Mapping from account to his number of NFTs\r\n    mapping(address => uint8) private _balanceOfCharacters;\r\n\r\n    /**\r\n     * @dev Constructor of the contract ERC1155, mint stuff and add it to the mapping.\r\n     * @param _unlimitedTokenAddress Address of the contract UnlimitedToken.\r\n     * @param _randomNumberGenerator Address of the contract RandomNumberGenerator.\r\n     */\r\n    constructor(UnlimitedToken _unlimitedTokenAddress, RandomNumberGenerator _randomNumberGenerator) ERC1155(\"ipfs://Qme6snoWc3reD5C9nuSxW3BpLyVci2iiD8vqCZSnA2i42p/{id}.json\") {\r\n        unlimitedToken = _unlimitedTokenAddress;\r\n        randomNumberGenerator = _randomNumberGenerator;\r\n        _mint(address(this), BASIC_SWORD, 10**5, bytes(abi.encodePacked(\"Unlimited Evolution Stuff #\", Strings.toString(BASIC_SWORD))));\r\n        _stuffDetails[BASIC_SWORD] = Stuff(BASIC_SWORD, 2, 2, 0, 0, type_stuff.WEAPON);\r\n        _mint(address(this), BASIC_SHIELD, 10**5, bytes(abi.encodePacked(\"Unlimited Evolution Stuff #\", Strings.toString(BASIC_SHIELD))));\r\n        _stuffDetails[BASIC_SHIELD] = Stuff(BASIC_SHIELD, 0, 0, 2, 2, type_stuff.SHIELD);\r\n        _mint(address(this), EXCALIBUR, 1, bytes(abi.encodePacked(\"Unlimited Evolution Stuff #\", Strings.toString(EXCALIBUR))));\r\n        _stuffDetails[EXCALIBUR] = Stuff(EXCALIBUR, 10, 10, 10, 10, type_stuff.WEAPON);\r\n        _mint(address(this), AEGIS, 1, bytes(abi.encodePacked(\"Unlimited Evolution Stuff #\", Strings.toString(AEGIS))));\r\n        _stuffDetails[AEGIS] = Stuff(AEGIS, 10, 10, 10, 10, type_stuff.SHIELD); \r\n        _mint(address(this), POTION, 10**6, bytes(abi.encodePacked(\"Unlimited Evolution Potion #\", Strings.toString(POTION))));\r\n    }\r\n\r\n    /**\r\n     * @dev Emitted when the character with \"id\" is created.\r\n     */\r\n    event CharacterCreated(uint24 id);\r\n\r\n    /**\r\n     * @dev Emitted when the character with \"id\" is rested, he recovers health points and stamina.\r\n     */\r\n    event Rested(uint24 tokenId);\r\n\r\n    /**\r\n     * @dev Emitted when the character with \"myTokenId\" removes \"substrateLifeToRival\" points of hp to \"rivalTokenId\" and the character with \"rivalTokenId\" removes \"substrateLifeToMe\" points of hp to \"myTokenId\".\r\n     */\r\n    event Fighted(uint24 myTokenId, uint24 rivalTokenId, uint256 substrateLifeToRival, uint256 substrateLifeToMe);\r\n    \r\n    /**\r\n     * @dev Emitted when the character with \"tokenId\" has gained enough experience points to increase one level.\r\n     */\r\n    event LevelUp(uint24 tokenId, uint16 level);\r\n\r\n    /**\r\n     * @dev Emitted when the owner changes the ether fee for minting, with the amount \"mintFee\".\r\n     */\r\n    event MintFeeUpdated(uint256 mintFee);\r\n\r\n    /**\r\n     * @dev Emitted when the owner changes the ether fee for buying stuff, with the amount \"stuffFee\".\r\n     */\r\n    event StuffFeeUpdated(uint256 stuffFee);\r\n\r\n    /**\r\n     * @dev Emitted when the owner changes the mintable NFT limit with the amount \"limitMint\".\r\n     */\r\n    event LimitUpdated(uint24 limitMint);\r\n\r\n    /**\r\n     * @dev Emitted when the msg.sender buy a stuff \".\r\n     */\r\n    event StuffBought(uint8 stuffId);\r\n\r\n    /**\r\n     * @dev Emitted when the msg.sender burn a potion.\r\n     */\r\n    event StuffEquiped(uint24 tokenId, uint8 stuffId);\r\n\r\n    /**\r\n     * @dev Emitted when the msg.sender burn a potion.\r\n     */\r\n    event PotionUsed(uint24 tokenId);\r\n\r\n    /**\r\n     * @dev Change the token's image URI\r\n     * @param _tokenId Id of the token.\r\n     */\r\n    function uri(uint _tokenId) override public pure returns(string memory) {\r\n        return string(abi.encodePacked(\r\n            \"ipfs://Qme6snoWc3reD5C9nuSxW3BpLyVci2iiD8vqCZSnA2i42p/\",\r\n            Strings.toString(_tokenId),\r\n            \".json\"\r\n        ));\r\n    }\r\n\r\n    /**\r\n     * @dev Return the name of the contract\r\n     */\r\n    function name() public pure returns(string memory) {\r\n        return \"Unlimited Evolution\";\r\n    }\r\n\r\n    /**\r\n     * @dev The function changes the ERC20 token address\r\n     * @param _tokenAddress New token address.\r\n     */\r\n    function setTokenAddress(address _tokenAddress) external onlyOwner {\r\n        unlimitedToken = UnlimitedToken(_tokenAddress);\r\n    }\r\n\r\n    /**\r\n     * @dev The function changes the Chainlink Random Number Generator address\r\n     * @param _randomAddress New token address.\r\n     */\r\n    function setLinkAddress(address _randomAddress) external onlyOwner {\r\n        randomNumberGenerator = RandomNumberGenerator(_randomAddress);\r\n    }\r\n    \r\n    /**\r\n     * @dev The function changes the ether fee for minting.\r\n     * @param _mintFee New amount of fee.\r\n     * Emits a \"MintFeeUpdated\" event.\r\n     */\r\n    function updateMintFee(uint256 _mintFee) external onlyOwner {\r\n        mintFee = _mintFee;\r\n        emit MintFeeUpdated(mintFee);\r\n    }\r\n\r\n    /**\r\n     * @dev The function changes the ether fee for buying stuff.\r\n     * @param _stuffFee New amount of stuff fee.\r\n     * Emits a \"StuffFeeUpdated\" event.\r\n     */\r\n    function updateStuffFee(uint256 _stuffFee) external onlyOwner {\r\n        stuffFee = _stuffFee;\r\n        emit StuffFeeUpdated(stuffFee);\r\n    }\r\n\r\n    /**\r\n     * @dev The function changes the mintable NFT limit.\r\n     * @param _limitMint New limit of mintable NFT.\r\n     * Emits a \"LimitUpdated\" event.\r\n     */\r\n    function updateLimitMint(uint24 _limitMint) external onlyOwner {\r\n        limitMint = _limitMint;\r\n        emit LimitUpdated(limitMint);\r\n    }\r\n    \r\n    /**\r\n     * @dev Owner withdraws the entire amount of ETH.\r\n     */\r\n    function withdrawEth() external onlyOwner {\r\n        payable(owner()).transfer(address(this).balance);\r\n    }\r\n\r\n    /**\r\n     * @dev Owner withdraws an amount of LINK.\r\n     * @param value Amount of LINK.\r\n     */\r\n    function withdrawLink(uint256 value) external onlyOwner {\r\n        randomNumberGenerator.withdraw(value);\r\n    }\r\n\r\n    /**\r\n     * @dev Tip to simulate the function ownerOf of ERC721, check if msg.sender is owner of the token.\r\n     * @param _tokenId Id of the token.\r\n     * @return Boolean, true of false.\r\n     */\r\n    function _ownerOf(uint256 _tokenId) private view returns(bool) {\r\n        return balanceOf(msg.sender, _tokenId) != 0;\r\n    }\r\n\r\n    /**\r\n     * @dev Allows you to create a new Stuff.\r\n     * Warning: Prefer to use createStuff() rather than manageStuff(), more secure with nextStuffId.\r\n     * @param amount Amount of NFT mintable.\r\n     * @param bonusAttack1 Bonus value attack1.\r\n     * @param bonusAttack2 Bonus value attack2.\r\n     * @param bonusDefence1 Bonus value defence1.\r\n     * @param bonusDefence2 Bonus value defence2.\r\n     * @param typeStuff Type of the stuff.\r\n     */\r\n    function createStuff(uint256 amount, uint8 bonusAttack1, uint8 bonusAttack2, uint8 bonusDefence1, uint8 bonusDefence2, type_stuff typeStuff) external onlyOwner {\r\n        require(nextStuffId < 256, \"The NFT Stuff limit is reached\");\r\n        _mint(address(this), nextStuffId, amount, \"\");\r\n        _stuffDetails[nextStuffId] = Stuff(nextStuffId, bonusAttack1, bonusAttack2, bonusDefence1, bonusDefence2, typeStuff);\r\n        nextStuffId++;\r\n    }\r\n\r\n    /**\r\n     * @dev Allows you to create a new Stuff/Consumable and to modify the quantity, statistics and type of an existing NFT Stuff.\r\n     * Warning: Be extremely careful with this function ! If you want to create a new NFT Stuff, prefer to use createStuff() !\r\n     * @param stuffId Id of the stuff.\r\n     * @param amount Amount of NFT mintable.\r\n     * @param bonusAttack1 Bonus value attack1.\r\n     * @param bonusAttack2 Bonus value attack2.\r\n     * @param bonusDefence1 Bonus value defence1.\r\n     * @param bonusDefence2 Bonus value defence2.\r\n     * @param typeStuff Type of the stuff.\r\n     */\r\n    function manageStuff(uint8 stuffId, uint256 amount, uint8 bonusAttack1, uint8 bonusAttack2, uint8 bonusDefence1, uint8 bonusDefence2, type_stuff typeStuff) external onlyOwner {\r\n        _mint(address(this), stuffId, amount, \"\");\r\n        if (stuffId != 5) {\r\n            _stuffDetails[stuffId] = Stuff(stuffId, bonusAttack1, bonusAttack2, bonusDefence1, bonusDefence2, typeStuff);\r\n        }\r\n    }\r\n\r\n    // /**\r\n    //  * @dev The function allows the allocation of \"attributePoints\" to the different characteristics.\r\n    //  * @param _tokenId Id of the token.\r\n    //  * @param _attack1 Attack number 1 of the token.\r\n    //  * @param _attack2 Attack number 2 of the token.\r\n    //  * @param _defence1 Defence number 1 of the token.\r\n    //  * @param _defence2 Defence number 2 of the token.\r\n    //  */\r\n    // function attributesLevelUp(uint24 _tokenId, uint16 _attack1, uint16 _attack2, uint16 _defence1, uint16 _defence2) external {\r\n    //     require(_characterDetails[_tokenId].attributePoints == _attack1 + _attack2 + _defence1 + _defence2, \"Wrong amount of points to attribute\");\r\n    //     _characterDetails[_tokenId].attack1 += _attack1;\r\n    //     _characterDetails[_tokenId].attack2 += _attack2;\r\n    //     _characterDetails[_tokenId].defence1 += _defence1;\r\n    //     _characterDetails[_tokenId].defence2 += _defence2;\r\n    // }\r\n\r\n    /**\r\n     * @dev The function assigns a number between 3 and 5 randomly to the attack characteristics using \"randomNumber\".\r\n     * @param randomNumber Random number from chainlink.\r\n     * @return Array of number (attributes).\r\n     */\r\n    function _attributesMintDistribution(uint256 randomNumber) private pure returns(uint8[] memory) {\r\n        uint8[] memory _attributes = new uint8[](4);\r\n        for(uint8 i=0; i<4; i++) {\r\n            _attributes[i] = 3 + uint8((randomNumber % (10+i)) % 3);\r\n        }\r\n        return _attributes;\r\n    }\r\n\r\n    /**\r\n     * @dev The Function ask to Chainlink a random number before to mint an NFT.\r\n     * @param _typeCharacter Type of character between BRUTE, SPIRITUAL, ELEMENTARY.\r\n     * @param _genderCharacter Gender of character between MASCULINE, FEMININE, OTHER.\r\n     */\r\n    function askCreateCharacter(type_character _typeCharacter, gender_character _genderCharacter) external payable {\r\n        require(msg.value == mintFee, \"Wrong amount of fees\");\r\n        require(_balanceOfCharacters[msg.sender] < 5, \"You can't have more than 5 NFT\");\r\n        require(countMints[uint8(_typeCharacter)] <= limitMint, \"You cannot mint more character with this class\");\r\n        if (!testMode) { // Only for tests, to avoid chainlink\r\n            randomNumberGenerator.getRandomNumber(_typeCharacter, _genderCharacter, msg.sender);\r\n        } else {\r\n            this.createCharacter(_typeCharacter, _genderCharacter, uint256(keccak256(abi.encodePacked(block.timestamp, block.difficulty, msg.sender))) % 10**16, msg.sender);\r\n        }\r\n    }\r\n\r\n    /**\r\n     * @dev The Function mint an NFT.\r\n     * @param _typeCharacter Type of character between BRUTE, SPIRITUAL, ELEMENTARY.\r\n     * @param _genderCharacter Gender of character between MASCULINE, FEMININE, OTHER.\r\n     * @param randomNumber Random number from chainlink.\r\n     * @param _address Address of the requestor (necessary for chainlink).\r\n     * Emits a \"CharacterCreated\" event.\r\n     */\r\n    function createCharacter(type_character _typeCharacter, gender_character _genderCharacter, uint256 randomNumber, address _address) external {\r\n        require(msg.sender == owner() || msg.sender == address(randomNumberGenerator) || msg.sender == address(this), \"Not allowed to use this function\");\r\n        uint8[] memory _attributes = _attributesMintDistribution(randomNumber);\r\n        uint24 nextCharacterId;\r\n        if(_typeCharacter == type_character.BRUTE) {\r\n            nextCharacterId = nextBruteId;\r\n        } else if (_typeCharacter == type_character.SPIRITUAL) {\r\n            nextCharacterId = nextSpiritualId;\r\n        } else {\r\n            nextCharacterId = nextElementaryId;\r\n        }\r\n        \r\n        _characterDetails[nextCharacterId] = Character(nextCharacterId, 1, 1, 100, 100, _attributes[0], _attributes[1], _attributes[2], _attributes[3], 0, 0, 0, 0, _typeCharacter, _genderCharacter);\r\n        _balanceOfCharacters[_address]++;\r\n        countMints[uint8(_typeCharacter)]++;\r\n        _mint(_address, nextCharacterId, 1, bytes(abi.encodePacked(\"Unlimited Evolution Character #\", Strings.toString(nextCharacterId))));\r\n        emit CharacterCreated(nextCharacterId);\r\n\r\n        if(_typeCharacter == type_character.BRUTE) {\r\n            nextBruteId++;\r\n        } else if (_typeCharacter == type_character.SPIRITUAL) {\r\n            nextSpiritualId++;\r\n        } else {\r\n            nextElementaryId++;\r\n        }\r\n    }\r\n\r\n    /**\r\n     * @dev The function allows the NFT to recover 100 health points and 100 stamina points.\r\n     * @param _tokenId Id of the token.\r\n     * Emits a \"Rested\" event.\r\n     */\r\n    function rest(uint24 _tokenId) external {\r\n        require(_ownerOf(_tokenId), \"You don't own this NFT\");\r\n        require(_characterDetails[_tokenId].stamina < 100 || _characterDetails[_tokenId].hp < 100, \"You're character is already rested\");\r\n        _characterDetails[_tokenId].lastRest = block.timestamp;\r\n        _characterDetails[_tokenId].stamina = 100;\r\n        _characterDetails[_tokenId].hp = 100;\r\n        emit Rested(_tokenId);\r\n    }\r\n\r\n        /**\r\n     * @dev One experience point is added and if the experience number reaches % 10 == 0 then the NFT increases one level and gains 10 points to attribute to his stats.\r\n     * @param _tokenId Id of the token.\r\n     * Emits a \"LevelUp\" event.\r\n     */\r\n    function _xpLevelUp(uint24 _tokenId) private {\r\n        _characterDetails[_tokenId].xp++;\r\n        if (_characterDetails[_tokenId].xp % 10 == 0) {\r\n            _characterDetails[_tokenId].level++;\r\n            _characterDetails[_tokenId].attributePoints += 10;\r\n            unlimitedToken.levelUpMint(msg.sender);\r\n            this.safeTransferFrom(address(this), msg.sender, POTION, 1, \"\");\r\n            emit LevelUp(_tokenId, _characterDetails[_tokenId].level);\r\n        }\r\n    }\r\n\r\n    /**\r\n     * @dev Fight algorithm: attack, defence and experience points are taken into account to determine a winner.\r\n     * @param _id1 Id of the token number 1.\r\n     * @param _id2 Id of the token number 2.\r\n     * @return Number resulting from fight operations.\r\n     */\r\n    function _substrateLife(uint24 _id1, uint24 _id2) private view returns(uint256) {\r\n        uint256 op1 = ((_characterDetails[_id1].attack1 + _characterDetails[_id1].attack2) / 2) * (1 + _characterDetails[_id1].xp);\r\n        uint256 op2 = ((_characterDetails[_id2].defence1 + _characterDetails[_id2].defence2 ) / 2) * ((1 + _characterDetails[_id2].xp) / 2);\r\n        if (op1 < op2) {\r\n            return 0;\r\n        } else {\r\n            return op1 - op2;\r\n        }\r\n    }\r\n\r\n    /**\r\n     * @dev The Function manages the different scenarios during a fight.\r\n     * @param _myTokenId Id of the token number 1.\r\n     * @param _rivalTokenId Id of the token number 2.\r\n     * @param _substrateLifeToRival Number of life points to remove from _rivalTokenId.\r\n     * @param _substrateLifeToMe Number of life points to remove from _myTokenId.\r\n     * Emits a \"Fighted\" event.\r\n     */\r\n    function _subtrateLifeOperation(uint24 _myTokenId, uint24 _rivalTokenId, uint256 _substrateLifeToRival, uint256 _substrateLifeToMe) private {\r\n        if(_substrateLifeToRival >= _characterDetails[_rivalTokenId].hp) {\r\n            _characterDetails[_rivalTokenId].hp = 0;\r\n            _xpLevelUp(_myTokenId);\r\n        } else {\r\n            _characterDetails[_rivalTokenId].hp = _characterDetails[_rivalTokenId].hp - uint24(_substrateLifeToRival);\r\n            if(_substrateLifeToMe >= _characterDetails[_myTokenId].hp) {\r\n                _characterDetails[_myTokenId].hp = 0;\r\n                _xpLevelUp(_rivalTokenId);\r\n            } else {\r\n                _characterDetails[_myTokenId].hp = _characterDetails[_myTokenId].hp - uint24(_substrateLifeToMe);\r\n                if (_substrateLifeToRival > _substrateLifeToMe) {\r\n                    _xpLevelUp(_myTokenId);\r\n                } else if (_substrateLifeToMe > _substrateLifeToRival) {\r\n                    _xpLevelUp(_rivalTokenId);\r\n                } else {\r\n                    _xpLevelUp(_myTokenId);\r\n                    _xpLevelUp(_rivalTokenId);\r\n                }\r\n            }\r\n        }\r\n        emit Fighted(_myTokenId, _rivalTokenId, _substrateLifeToRival, _substrateLifeToMe);\r\n    }\r\n\r\n    /**\r\n     * @dev The function allows you to use your NFT to fight with another NFT belonging to another user.\r\n     * @param _myTokenId Id of the fighter number 1.\r\n     * @param _rivalTokenId Id of the fighter number 2.\r\n     */\r\n\r\n    function fight(uint24 _myTokenId, uint24 _rivalTokenId) external {\r\n        require(_ownerOf(_myTokenId), \"You don't own this NFT\");\r\n        require(_ownerOf(_myTokenId) != _ownerOf(_rivalTokenId), \"Your NFTs cannot fight each other\");\r\n        require(_characterDetails[_myTokenId].lastRest + 86400 < block.timestamp, \"You're character is resting\");\r\n        require(_characterDetails[_rivalTokenId].lastRest + 86400 < block.timestamp, \"You're rival is resting\");\r\n        require(_characterDetails[_myTokenId].stamina >= 10, \"Not enough stamina\");\r\n        require(_characterDetails[_myTokenId].level <= _characterDetails[_rivalTokenId].level, \"Fight someone your own size!\");\r\n        require(_characterDetails[_myTokenId].hp > 0 && _characterDetails[_rivalTokenId].hp > 0, \"One of the NFTs is dead\");\r\n        uint256 _substrateLifeToRival = _substrateLife(_myTokenId, _rivalTokenId);\r\n        uint256 _substrateLifeToMe = _substrateLife(_rivalTokenId, _myTokenId);\r\n        _characterDetails[_myTokenId].stamina = _characterDetails[_myTokenId].stamina - 10;\r\n        _subtrateLifeOperation(_myTokenId, _rivalTokenId, _substrateLifeToRival, _substrateLifeToMe);\r\n    }\r\n\r\n    /**\r\n     * @dev The function allows you to buy a stuff NFT\r\n     * @param stuffId Id of the stuff.\r\n     * Emits a \"StuffBought\" event.\r\n     */\r\n    function buyStuff(uint8 stuffId) external payable {\r\n        require(stuffId != 0, \"Non-existent stuff\");\r\n        require(balanceOf(address(this), stuffId) != 0, \"Stuff no more available\");\r\n        require(msg.value == stuffFee, \"Wrong amount of fees\");\r\n        this.safeTransferFrom(address(this), msg.sender, stuffId, 1, \"\");\r\n        emit StuffBought(stuffId);\r\n    }\r\n\r\n    /**\r\n     * @dev The function allows you to equip stuff to your NFT\r\n     * @param tokenId Id of the token.\r\n     * @param stuffId Id of the stuff to equip.\r\n     * Emits a \"StuffEquiped\" event.\r\n     */\r\n    function equipStuff(uint24 tokenId, uint8 stuffId) external {\r\n        require(tokenId > 255, \"Wrong kind of NFT (Stuff)\");\r\n        require(_ownerOf(tokenId), \"You don't own this NFT\");\r\n        require(stuffId != POTION, \"You can't equip a potion\");\r\n        require(_ownerOf(stuffId), \"You don't own this stuff\");\r\n        type_stuff stuffType = _stuffDetails[stuffId].typeStuff;\r\n        uint8 idStuffEquiped;\r\n        if (stuffType == type_stuff.WEAPON) {\r\n            idStuffEquiped = _characterDetails[tokenId].weapon;\r\n        } else {\r\n            idStuffEquiped = _characterDetails[tokenId].shield;\r\n        }\r\n        if (idStuffEquiped != 0) {\r\n            _characterDetails[tokenId].attack1 -= _stuffDetails[idStuffEquiped].bonusAttack1;\r\n            _characterDetails[tokenId].attack2 -= _stuffDetails[idStuffEquiped].bonusAttack2;\r\n            _characterDetails[tokenId].defence1 -= _stuffDetails[idStuffEquiped].bonusDefence1;\r\n            _characterDetails[tokenId].defence2 -= _stuffDetails[idStuffEquiped].bonusDefence2;\r\n        }\r\n        _characterDetails[tokenId].attack1 += _stuffDetails[stuffId].bonusAttack1;\r\n        _characterDetails[tokenId].attack2 += _stuffDetails[stuffId].bonusAttack2;\r\n        _characterDetails[tokenId].defence1 += _stuffDetails[stuffId].bonusDefence1;\r\n        _characterDetails[tokenId].defence2 += _stuffDetails[stuffId].bonusDefence2;\r\n        if (stuffType == type_stuff.WEAPON) {\r\n            _characterDetails[tokenId].weapon = stuffId;\r\n        } else {\r\n            _characterDetails[tokenId].shield = stuffId;\r\n        }\r\n        emit StuffEquiped(tokenId, stuffId);\r\n    }\r\n\r\n    /**\r\n     * @dev The function burn a POTION and restore the hp and stamina of your NFT\r\n     * @param tokenId Id of the token.\r\n     * Emits a \"PotionUsed\" event.\r\n     */\r\n    function usePotion(uint24 tokenId) external {\r\n        require(tokenId > 255, \"Wrong kind of NFT (Stuff)\");\r\n        require(_ownerOf(tokenId), \"You don't own this NFT\");\r\n        require(_ownerOf(POTION), \"You don't own a potion\");\r\n        require(_characterDetails[tokenId].stamina < 100 || _characterDetails[tokenId].hp < 100, \"You're character is already rested\");\r\n        _burn(msg.sender, POTION, 1);\r\n        _characterDetails[tokenId].stamina = 100;\r\n        _characterDetails[tokenId].hp = 100;\r\n        emit PotionUsed(tokenId);\r\n    }\r\n\r\n    /**\r\n     * @dev The function returns the characteristics of the NFT.\r\n     * @param tokenId Id of the token.\r\n     * @return Character Details of tokenId.\r\n     */\r\n    function getTokenDetails(uint24 tokenId) external view returns(Character memory) {\r\n        return _characterDetails[tokenId];\r\n    }\r\n\r\n    /**\r\n     * @dev The function returns the characteristics of the stuff.\r\n     * @param stuffId Id of the stuff.\r\n     * @return Stuff Details of stuffId.\r\n     */\r\n    function getStuffDetails(uint8 stuffId) external view returns(Stuff memory) {\r\n        return _stuffDetails[stuffId];\r\n    }\r\n\r\n    /**\r\n     * @dev The function returns an array with the characteristics of all my NFTs.\r\n     * @return Array of characters.\r\n     */\r\n    function getMyCharacters() external view returns(Character[] memory){\r\n        uint8 count;\r\n        Character[] memory myCharacters = new Character[](_balanceOfCharacters[msg.sender]);\r\n        for (uint16 i = 256; i < nextBruteId; i++) {\r\n            if (_ownerOf(i)) {\r\n                myCharacters[count] = _characterDetails[i];\r\n                count++;\r\n            }\r\n        }\r\n        for (uint24 i = 40256; i < nextSpiritualId; i++) {\r\n            if (_ownerOf(i)) {\r\n                myCharacters[count] = _characterDetails[i];\r\n                count++;\r\n            }\r\n        }\r\n        for (uint24 i = 80256; i < nextElementaryId; i++) {\r\n            if (_ownerOf(i)) {\r\n                myCharacters[count] = _characterDetails[i];\r\n                count++;\r\n            }\r\n        }\r\n        return myCharacters;\r\n    }\r\n\r\n    /**\r\n     * @dev The function returns an array with the characteristics of all the NFTs that don't belong to me.\r\n     * @return Array of characters.\r\n     */\r\n    function getOthersCharacters() external view returns(Character[] memory){\r\n        uint24 count;\r\n        Character[] memory othersCharacters = new Character[]((nextBruteId - 256) + ((nextSpiritualId - 40256)) + (nextElementaryId - 80256) - _balanceOfCharacters[msg.sender]);\r\n        for (uint16 i = 256; i < nextBruteId; i++) {\r\n            if (!_ownerOf(i)) {\r\n                othersCharacters[count] = _characterDetails[i];\r\n                count++;\r\n            }\r\n        }\r\n        for (uint24 i = 40256; i < nextSpiritualId; i++) {\r\n            if (!_ownerOf(i)) {\r\n                othersCharacters[count] = _characterDetails[i];\r\n                count++;\r\n            }\r\n        }\r\n        for (uint24 i = 80256; i < nextElementaryId; i++) {\r\n            if (!_ownerOf(i)) {\r\n                othersCharacters[count] = _characterDetails[i];\r\n                count++;\r\n            }\r\n        }\r\n        return othersCharacters;\r\n    }\r\n\r\n    /**\r\n     * @dev The function returns an array with the characteristics of all my Stuffs.\r\n     * @return Array of stuffs.\r\n     */\r\n    function getMyStuffs() external view returns(Stuff[] memory){\r\n        uint8 arrayCount;\r\n        for (uint8 i; i < nextStuffId; i++) {\r\n            if (i !=5 && _ownerOf(i)) {\r\n                arrayCount++;\r\n            }\r\n        }\r\n        Stuff[] memory myStuffs = new Stuff[](arrayCount);\r\n        uint8 count;\r\n        for (uint8 i; i < nextStuffId-1; i++) {\r\n            if (i !=5 && _ownerOf(i)) {\r\n                myStuffs[count] = _stuffDetails[i];\r\n                count++;\r\n            }\r\n        }\r\n        return myStuffs;\r\n    }\r\n    \r\n    // Only for tests, to avoid chainlink\r\n    function testModeSwitch() external onlyOwner {\r\n        testMode = !testMode;\r\n    }\r\n}\r\n",
  "sourcePath": "D:\\TAF\\Alyra\\ALYRA_PROJET_FINAL\\unlimited_evolution\\contracts\\UnlimitedEvolution.sol",
  "compiler": {
    "name": "solc",
    "version": "0.8.7+commit.e28d00a7.Emscripten.clang"
  },
  "schemaVersion": "3.4.3",
  "updatedAt": "2022-01-20T09:41:46.273Z",
  "devdoc": {
    "events": {
      "CharacterCreated(uint24)": {
        "details": "Emitted when the character with \"id\" is created."
      },
      "Fighted(uint24,uint24,uint256,uint256)": {
        "details": "Emitted when the character with \"myTokenId\" removes \"substrateLifeToRival\" points of hp to \"rivalTokenId\" and the character with \"rivalTokenId\" removes \"substrateLifeToMe\" points of hp to \"myTokenId\"."
      },
      "LevelUp(uint24,uint16)": {
        "details": "Emitted when the character with \"tokenId\" has gained enough experience points to increase one level."
      },
      "LimitUpdated(uint24)": {
        "details": "Emitted when the owner changes the mintable NFT limit with the amount \"limitMint\"."
      },
      "MintFeeUpdated(uint256)": {
        "details": "Emitted when the owner changes the ether fee for minting, with the amount \"mintFee\"."
      },
      "PotionUsed(uint24)": {
        "details": "Emitted when the msg.sender burn a potion."
      },
      "Rested(uint24)": {
        "details": "Emitted when the character with \"id\" is rested, he recovers health points and stamina."
      },
      "StuffBought(uint8)": {
        "details": "Emitted when the msg.sender buy a stuff \"."
      },
      "StuffEquiped(uint24,uint8)": {
        "details": "Emitted when the msg.sender burn a potion."
      },
      "StuffFeeUpdated(uint256)": {
        "details": "Emitted when the owner changes the ether fee for buying stuff, with the amount \"stuffFee\"."
      }
    },
    "kind": "dev",
    "methods": {
      "askCreateCharacter(uint8,uint8)": {
        "details": "The Function ask to Chainlink a random number before to mint an NFT.",
        "params": {
          "_genderCharacter": "Gender of character between MASCULINE, FEMININE, OTHER.",
          "_typeCharacter": "Type of character between BRUTE, SPIRITUAL, ELEMENTARY."
        }
      },
      "balanceOf(address,uint256)": {
        "details": "See {IERC1155-balanceOf}. Requirements: - `account` cannot be the zero address."
      },
      "balanceOfBatch(address[],uint256[])": {
        "details": "See {IERC1155-balanceOfBatch}. Requirements: - `accounts` and `ids` must have the same length."
      },
      "buyStuff(uint8)": {
        "details": "The function allows you to buy a stuff NFT",
        "params": {
          "stuffId": "Id of the stuff. Emits a \"StuffBought\" event."
        }
      },
      "constructor": {
        "details": "Constructor of the contract ERC1155, mint stuff and add it to the mapping.",
        "params": {
          "_randomNumberGenerator": "Address of the contract RandomNumberGenerator.",
          "_unlimitedTokenAddress": "Address of the contract UnlimitedToken."
        }
      },
      "createCharacter(uint8,uint8,uint256,address)": {
        "details": "The Function mint an NFT.",
        "params": {
          "_address": "Address of the requestor (necessary for chainlink). Emits a \"CharacterCreated\" event.",
          "_genderCharacter": "Gender of character between MASCULINE, FEMININE, OTHER.",
          "_typeCharacter": "Type of character between BRUTE, SPIRITUAL, ELEMENTARY.",
          "randomNumber": "Random number from chainlink."
        }
      },
      "createStuff(uint256,uint8,uint8,uint8,uint8,uint8)": {
        "details": "Allows you to create a new Stuff. Warning: Prefer to use createStuff() rather than manageStuff(), more secure with nextStuffId.",
        "params": {
          "amount": "Amount of NFT mintable.",
          "bonusAttack1": "Bonus value attack1.",
          "bonusAttack2": "Bonus value attack2.",
          "bonusDefence1": "Bonus value defence1.",
          "bonusDefence2": "Bonus value defence2.",
          "typeStuff": "Type of the stuff."
        }
      },
      "equipStuff(uint24,uint8)": {
        "details": "The function allows you to equip stuff to your NFT",
        "params": {
          "stuffId": "Id of the stuff to equip. Emits a \"StuffEquiped\" event.",
          "tokenId": "Id of the token."
        }
      },
      "fight(uint24,uint24)": {
        "details": "The function allows you to use your NFT to fight with another NFT belonging to another user.",
        "params": {
          "_myTokenId": "Id of the fighter number 1.",
          "_rivalTokenId": "Id of the fighter number 2."
        }
      },
      "getMyCharacters()": {
        "details": "The function returns an array with the characteristics of all my NFTs.",
        "returns": {
          "_0": "Array of characters."
        }
      },
      "getMyStuffs()": {
        "details": "The function returns an array with the characteristics of all my Stuffs.",
        "returns": {
          "_0": "Array of stuffs."
        }
      },
      "getOthersCharacters()": {
        "details": "The function returns an array with the characteristics of all the NFTs that don't belong to me.",
        "returns": {
          "_0": "Array of characters."
        }
      },
      "getStuffDetails(uint8)": {
        "details": "The function returns the characteristics of the stuff.",
        "params": {
          "stuffId": "Id of the stuff."
        },
        "returns": {
          "_0": "Stuff Details of stuffId."
        }
      },
      "getTokenDetails(uint24)": {
        "details": "The function returns the characteristics of the NFT.",
        "params": {
          "tokenId": "Id of the token."
        },
        "returns": {
          "_0": "Character Details of tokenId."
        }
      },
      "isApprovedForAll(address,address)": {
        "details": "See {IERC1155-isApprovedForAll}."
      },
      "manageStuff(uint8,uint256,uint8,uint8,uint8,uint8,uint8)": {
        "details": "Allows you to create a new Stuff/Consumable and to modify the quantity, statistics and type of an existing NFT Stuff. Warning: Be extremely careful with this function ! If you want to create a new NFT Stuff, prefer to use createStuff() !",
        "params": {
          "amount": "Amount of NFT mintable.",
          "bonusAttack1": "Bonus value attack1.",
          "bonusAttack2": "Bonus value attack2.",
          "bonusDefence1": "Bonus value defence1.",
          "bonusDefence2": "Bonus value defence2.",
          "stuffId": "Id of the stuff.",
          "typeStuff": "Type of the stuff."
        }
      },
      "name()": {
        "details": "Return the name of the contract"
      },
      "owner()": {
        "details": "Returns the address of the current owner."
      },
      "renounceOwnership()": {
        "details": "Leaves the contract without owner. It will not be possible to call `onlyOwner` functions anymore. Can only be called by the current owner. NOTE: Renouncing ownership will leave the contract without an owner, thereby removing any functionality that is only available to the owner."
      },
      "rest(uint24)": {
        "details": "The function allows the NFT to recover 100 health points and 100 stamina points.",
        "params": {
          "_tokenId": "Id of the token. Emits a \"Rested\" event."
        }
      },
      "safeBatchTransferFrom(address,address,uint256[],uint256[],bytes)": {
        "details": "See {IERC1155-safeBatchTransferFrom}."
      },
      "safeTransferFrom(address,address,uint256,uint256,bytes)": {
        "details": "See {IERC1155-safeTransferFrom}."
      },
      "setApprovalForAll(address,bool)": {
        "details": "See {IERC1155-setApprovalForAll}."
      },
      "setLinkAddress(address)": {
        "details": "The function changes the Chainlink Random Number Generator address",
        "params": {
          "_randomAddress": "New token address."
        }
      },
      "setTokenAddress(address)": {
        "details": "The function changes the ERC20 token address",
        "params": {
          "_tokenAddress": "New token address."
        }
      },
      "supportsInterface(bytes4)": {
        "details": "Allows you to receive ERC1155 tokens and therefore make external calls to mint.",
        "params": {
          "interfaceId": "Id of the interface."
        }
      },
      "transferOwnership(address)": {
        "details": "Transfers ownership of the contract to a new account (`newOwner`). Can only be called by the current owner."
      },
      "updateLimitMint(uint24)": {
        "details": "The function changes the mintable NFT limit.",
        "params": {
          "_limitMint": "New limit of mintable NFT. Emits a \"LimitUpdated\" event."
        }
      },
      "updateMintFee(uint256)": {
        "details": "The function changes the ether fee for minting.",
        "params": {
          "_mintFee": "New amount of fee. Emits a \"MintFeeUpdated\" event."
        }
      },
      "updateStuffFee(uint256)": {
        "details": "The function changes the ether fee for buying stuff.",
        "params": {
          "_stuffFee": "New amount of stuff fee. Emits a \"StuffFeeUpdated\" event."
        }
      },
      "uri(uint256)": {
        "details": "Change the token's image URI",
        "params": {
          "_tokenId": "Id of the token."
        }
      },
      "usePotion(uint24)": {
        "details": "The function burn a POTION and restore the hp and stamina of your NFT",
        "params": {
          "tokenId": "Id of the token. Emits a \"PotionUsed\" event."
        }
      },
      "withdrawEth()": {
        "details": "Owner withdraws the entire amount of ETH."
      },
      "withdrawLink(uint256)": {
        "details": "Owner withdraws an amount of LINK.",
        "params": {
          "value": "Amount of LINK."
        }
      }
    },
    "title": "Unlimited Evolution ",
    "version": 1
  },
  "userdoc": {
    "kind": "user",
    "methods": {},
    "version": 1
  }
}