{
  "contractName": "UnlimitedEvolution",
  "abi": [
    {
      "inputs": [],
      "stateMutability": "nonpayable",
      "type": "constructor"
    },
    {
      "anonymous": false,
      "inputs": [
        {
          "indexed": true,
          "internalType": "address",
          "name": "account",
          "type": "address"
        },
        {
          "indexed": true,
          "internalType": "address",
          "name": "operator",
          "type": "address"
        },
        {
          "indexed": false,
          "internalType": "bool",
          "name": "approved",
          "type": "bool"
        }
      ],
      "name": "ApprovalForAll",
      "type": "event"
    },
    {
      "anonymous": false,
      "inputs": [
        {
          "indexed": false,
          "internalType": "uint24",
          "name": "id",
          "type": "uint24"
        }
      ],
      "name": "CharacterCreated",
      "type": "event"
    },
    {
      "anonymous": false,
      "inputs": [
        {
          "indexed": false,
          "internalType": "uint24",
          "name": "myTokenId",
          "type": "uint24"
        },
        {
          "indexed": false,
          "internalType": "uint24",
          "name": "rivalTokenId",
          "type": "uint24"
        },
        {
          "indexed": false,
          "internalType": "uint256",
          "name": "substrateLifeToRival",
          "type": "uint256"
        },
        {
          "indexed": false,
          "internalType": "uint256",
          "name": "substrateLifeToMe",
          "type": "uint256"
        }
      ],
      "name": "Fighted",
      "type": "event"
    },
    {
      "anonymous": false,
      "inputs": [
        {
          "indexed": false,
          "internalType": "uint24",
          "name": "tokenId",
          "type": "uint24"
        },
        {
          "indexed": false,
          "internalType": "uint16",
          "name": "level",
          "type": "uint16"
        }
      ],
      "name": "LevelUp",
      "type": "event"
    },
    {
      "anonymous": false,
      "inputs": [
        {
          "indexed": false,
          "internalType": "uint24",
          "name": "limitMint",
          "type": "uint24"
        }
      ],
      "name": "LimitUpdated",
      "type": "event"
    },
    {
      "anonymous": false,
      "inputs": [
        {
          "indexed": false,
          "internalType": "uint256",
          "name": "mintFee",
          "type": "uint256"
        }
      ],
      "name": "MintFeeUpdated",
      "type": "event"
    },
    {
      "anonymous": false,
      "inputs": [
        {
          "indexed": true,
          "internalType": "address",
          "name": "previousOwner",
          "type": "address"
        },
        {
          "indexed": true,
          "internalType": "address",
          "name": "newOwner",
          "type": "address"
        }
      ],
      "name": "OwnershipTransferred",
      "type": "event"
    },
    {
      "anonymous": false,
      "inputs": [
        {
          "indexed": false,
          "internalType": "uint24",
          "name": "tokenId",
          "type": "uint24"
        }
      ],
      "name": "PotionUsed",
      "type": "event"
    },
    {
      "anonymous": false,
      "inputs": [
        {
          "indexed": false,
          "internalType": "uint24",
          "name": "tokenId",
          "type": "uint24"
        }
      ],
      "name": "Rested",
      "type": "event"
    },
    {
      "anonymous": false,
      "inputs": [
        {
          "indexed": false,
          "internalType": "uint16",
          "name": "stuffId",
          "type": "uint16"
        }
      ],
      "name": "StuffBought",
      "type": "event"
    },
    {
      "anonymous": false,
      "inputs": [
        {
          "indexed": false,
          "internalType": "uint24",
          "name": "tokenId",
          "type": "uint24"
        },
        {
          "indexed": false,
          "internalType": "uint16",
          "name": "stuffId",
          "type": "uint16"
        }
      ],
      "name": "StuffEquiped",
      "type": "event"
    },
    {
      "anonymous": false,
      "inputs": [
        {
          "indexed": false,
          "internalType": "uint256",
          "name": "stuffFee",
          "type": "uint256"
        }
      ],
      "name": "StuffFeeUpdated",
      "type": "event"
    },
    {
      "anonymous": false,
      "inputs": [
        {
          "indexed": true,
          "internalType": "address",
          "name": "operator",
          "type": "address"
        },
        {
          "indexed": true,
          "internalType": "address",
          "name": "from",
          "type": "address"
        },
        {
          "indexed": true,
          "internalType": "address",
          "name": "to",
          "type": "address"
        },
        {
          "indexed": false,
          "internalType": "uint256[]",
          "name": "ids",
          "type": "uint256[]"
        },
        {
          "indexed": false,
          "internalType": "uint256[]",
          "name": "values",
          "type": "uint256[]"
        }
      ],
      "name": "TransferBatch",
      "type": "event"
    },
    {
      "anonymous": false,
      "inputs": [
        {
          "indexed": true,
          "internalType": "address",
          "name": "operator",
          "type": "address"
        },
        {
          "indexed": true,
          "internalType": "address",
          "name": "from",
          "type": "address"
        },
        {
          "indexed": true,
          "internalType": "address",
          "name": "to",
          "type": "address"
        },
        {
          "indexed": false,
          "internalType": "uint256",
          "name": "id",
          "type": "uint256"
        },
        {
          "indexed": false,
          "internalType": "uint256",
          "name": "value",
          "type": "uint256"
        }
      ],
      "name": "TransferSingle",
      "type": "event"
    },
    {
      "anonymous": false,
      "inputs": [
        {
          "indexed": false,
          "internalType": "string",
          "name": "value",
          "type": "string"
        },
        {
          "indexed": true,
          "internalType": "uint256",
          "name": "id",
          "type": "uint256"
        }
      ],
      "name": "URI",
      "type": "event"
    },
    {
      "inputs": [
        {
          "internalType": "address",
          "name": "account",
          "type": "address"
        },
        {
          "internalType": "uint256",
          "name": "id",
          "type": "uint256"
        }
      ],
      "name": "balanceOf",
      "outputs": [
        {
          "internalType": "uint256",
          "name": "",
          "type": "uint256"
        }
      ],
      "stateMutability": "view",
      "type": "function",
      "constant": true
    },
    {
      "inputs": [
        {
          "internalType": "address[]",
          "name": "accounts",
          "type": "address[]"
        },
        {
          "internalType": "uint256[]",
          "name": "ids",
          "type": "uint256[]"
        }
      ],
      "name": "balanceOfBatch",
      "outputs": [
        {
          "internalType": "uint256[]",
          "name": "",
          "type": "uint256[]"
        }
      ],
      "stateMutability": "view",
      "type": "function",
      "constant": true
    },
    {
      "inputs": [],
      "name": "getRandomNumber",
      "outputs": [
        {
          "internalType": "bytes32",
          "name": "requestId",
          "type": "bytes32"
        }
      ],
      "stateMutability": "nonpayable",
      "type": "function"
    },
    {
      "inputs": [
        {
          "internalType": "address",
          "name": "account",
          "type": "address"
        },
        {
          "internalType": "address",
          "name": "operator",
          "type": "address"
        }
      ],
      "name": "isApprovedForAll",
      "outputs": [
        {
          "internalType": "bool",
          "name": "",
          "type": "bool"
        }
      ],
      "stateMutability": "view",
      "type": "function",
      "constant": true
    },
    {
      "inputs": [],
      "name": "owner",
      "outputs": [
        {
          "internalType": "address",
          "name": "",
          "type": "address"
        }
      ],
      "stateMutability": "view",
      "type": "function",
      "constant": true
    },
    {
      "inputs": [],
      "name": "randomResult",
      "outputs": [
        {
          "internalType": "uint256",
          "name": "",
          "type": "uint256"
        }
      ],
      "stateMutability": "view",
      "type": "function",
      "constant": true
    },
    {
      "inputs": [
        {
          "internalType": "bytes32",
          "name": "requestId",
          "type": "bytes32"
        },
        {
          "internalType": "uint256",
          "name": "randomness",
          "type": "uint256"
        }
      ],
      "name": "rawFulfillRandomness",
      "outputs": [],
      "stateMutability": "nonpayable",
      "type": "function"
    },
    {
      "inputs": [],
      "name": "renounceOwnership",
      "outputs": [],
      "stateMutability": "nonpayable",
      "type": "function"
    },
    {
      "inputs": [
        {
          "internalType": "address",
          "name": "from",
          "type": "address"
        },
        {
          "internalType": "address",
          "name": "to",
          "type": "address"
        },
        {
          "internalType": "uint256[]",
          "name": "ids",
          "type": "uint256[]"
        },
        {
          "internalType": "uint256[]",
          "name": "amounts",
          "type": "uint256[]"
        },
        {
          "internalType": "bytes",
          "name": "data",
          "type": "bytes"
        }
      ],
      "name": "safeBatchTransferFrom",
      "outputs": [],
      "stateMutability": "nonpayable",
      "type": "function"
    },
    {
      "inputs": [
        {
          "internalType": "address",
          "name": "from",
          "type": "address"
        },
        {
          "internalType": "address",
          "name": "to",
          "type": "address"
        },
        {
          "internalType": "uint256",
          "name": "id",
          "type": "uint256"
        },
        {
          "internalType": "uint256",
          "name": "amount",
          "type": "uint256"
        },
        {
          "internalType": "bytes",
          "name": "data",
          "type": "bytes"
        }
      ],
      "name": "safeTransferFrom",
      "outputs": [],
      "stateMutability": "nonpayable",
      "type": "function"
    },
    {
      "inputs": [
        {
          "internalType": "address",
          "name": "operator",
          "type": "address"
        },
        {
          "internalType": "bool",
          "name": "approved",
          "type": "bool"
        }
      ],
      "name": "setApprovalForAll",
      "outputs": [],
      "stateMutability": "nonpayable",
      "type": "function"
    },
    {
      "inputs": [
        {
          "internalType": "bytes4",
          "name": "interfaceId",
          "type": "bytes4"
        }
      ],
      "name": "supportsInterface",
      "outputs": [
        {
          "internalType": "bool",
          "name": "",
          "type": "bool"
        }
      ],
      "stateMutability": "view",
      "type": "function",
      "constant": true
    },
    {
      "inputs": [],
      "name": "testMode",
      "outputs": [
        {
          "internalType": "bool",
          "name": "",
          "type": "bool"
        }
      ],
      "stateMutability": "view",
      "type": "function",
      "constant": true
    },
    {
      "inputs": [
        {
          "internalType": "address",
          "name": "newOwner",
          "type": "address"
        }
      ],
      "name": "transferOwnership",
      "outputs": [],
      "stateMutability": "nonpayable",
      "type": "function"
    },
    {
      "inputs": [
        {
          "internalType": "uint256",
          "name": "",
          "type": "uint256"
        }
      ],
      "name": "uri",
      "outputs": [
        {
          "internalType": "string",
          "name": "",
          "type": "string"
        }
      ],
      "stateMutability": "view",
      "type": "function",
      "constant": true
    },
    {
      "inputs": [
        {
          "internalType": "uint256",
          "name": "_mintFee",
          "type": "uint256"
        }
      ],
      "name": "updateMintFee",
      "outputs": [],
      "stateMutability": "nonpayable",
      "type": "function"
    },
    {
      "inputs": [
        {
          "internalType": "uint256",
          "name": "_stuffFee",
          "type": "uint256"
        }
      ],
      "name": "updateStuffFee",
      "outputs": [],
      "stateMutability": "nonpayable",
      "type": "function"
    },
    {
      "inputs": [
        {
          "internalType": "uint24",
          "name": "_limitMint",
          "type": "uint24"
        }
      ],
      "name": "updateLimitMint",
      "outputs": [],
      "stateMutability": "nonpayable",
      "type": "function"
    },
    {
      "inputs": [],
      "name": "withdraw",
      "outputs": [],
      "stateMutability": "nonpayable",
      "type": "function"
    },
    {
      "inputs": [
        {
          "internalType": "uint256",
          "name": "value",
          "type": "uint256"
        }
      ],
      "name": "withdrawLINK",
      "outputs": [],
      "stateMutability": "nonpayable",
      "type": "function"
    },
    {
      "inputs": [
        {
          "internalType": "uint24",
          "name": "_tokenId",
          "type": "uint24"
        },
        {
          "internalType": "uint24",
          "name": "_attack1",
          "type": "uint24"
        },
        {
          "internalType": "uint24",
          "name": "_attack2",
          "type": "uint24"
        },
        {
          "internalType": "uint24",
          "name": "_attack3",
          "type": "uint24"
        },
        {
          "internalType": "uint24",
          "name": "_attack4",
          "type": "uint24"
        }
      ],
      "name": "attributesLevelUp",
      "outputs": [],
      "stateMutability": "nonpayable",
      "type": "function"
    },
    {
      "inputs": [
        {
          "internalType": "enum UnlimitedEvolution.type_character",
          "name": "_typeCharacter",
          "type": "uint8"
        },
        {
          "internalType": "enum UnlimitedEvolution.gender_character",
          "name": "_genderCharacter",
          "type": "uint8"
        }
      ],
      "name": "createCharacter",
      "outputs": [],
      "stateMutability": "payable",
      "type": "function",
      "payable": true
    },
    {
      "inputs": [
        {
          "internalType": "uint24",
          "name": "_tokenId",
          "type": "uint24"
        }
      ],
      "name": "rest",
      "outputs": [],
      "stateMutability": "nonpayable",
      "type": "function"
    },
    {
      "inputs": [
        {
          "internalType": "uint24",
          "name": "_myTokenId",
          "type": "uint24"
        },
        {
          "internalType": "uint24",
          "name": "_rivalTokenId",
          "type": "uint24"
        }
      ],
      "name": "fight",
      "outputs": [],
      "stateMutability": "nonpayable",
      "type": "function"
    },
    {
      "inputs": [
        {
          "internalType": "uint24",
          "name": "_tokenId",
          "type": "uint24"
        }
      ],
      "name": "getTokenDetails",
      "outputs": [
        {
          "components": [
            {
              "internalType": "uint24",
              "name": "id",
              "type": "uint24"
            },
            {
              "internalType": "uint56",
              "name": "dna",
              "type": "uint56"
            },
            {
              "internalType": "uint16",
              "name": "level",
              "type": "uint16"
            },
            {
              "internalType": "uint24",
              "name": "xp",
              "type": "uint24"
            },
            {
              "internalType": "uint24",
              "name": "hp",
              "type": "uint24"
            },
            {
              "internalType": "uint24",
              "name": "stamina",
              "type": "uint24"
            },
            {
              "internalType": "uint24",
              "name": "attack1",
              "type": "uint24"
            },
            {
              "internalType": "uint24",
              "name": "attack2",
              "type": "uint24"
            },
            {
              "internalType": "uint24",
              "name": "attack3",
              "type": "uint24"
            },
            {
              "internalType": "uint24",
              "name": "attack4",
              "type": "uint24"
            },
            {
              "internalType": "uint24",
              "name": "attributePoints",
              "type": "uint24"
            },
            {
              "internalType": "uint24",
              "name": "weapon",
              "type": "uint24"
            },
            {
              "internalType": "uint24",
              "name": "shield",
              "type": "uint24"
            },
            {
              "internalType": "uint256",
              "name": "lastFight",
              "type": "uint256"
            },
            {
              "internalType": "enum UnlimitedEvolution.type_character",
              "name": "typeCharacter",
              "type": "uint8"
            },
            {
              "internalType": "enum UnlimitedEvolution.gender_character",
              "name": "genderCharacter",
              "type": "uint8"
            }
          ],
          "internalType": "struct UnlimitedEvolution.Character",
          "name": "",
          "type": "tuple"
        }
      ],
      "stateMutability": "view",
      "type": "function",
      "constant": true
    },
    {
      "inputs": [],
      "name": "getMyCharacters",
      "outputs": [
        {
          "components": [
            {
              "internalType": "uint24",
              "name": "id",
              "type": "uint24"
            },
            {
              "internalType": "uint56",
              "name": "dna",
              "type": "uint56"
            },
            {
              "internalType": "uint16",
              "name": "level",
              "type": "uint16"
            },
            {
              "internalType": "uint24",
              "name": "xp",
              "type": "uint24"
            },
            {
              "internalType": "uint24",
              "name": "hp",
              "type": "uint24"
            },
            {
              "internalType": "uint24",
              "name": "stamina",
              "type": "uint24"
            },
            {
              "internalType": "uint24",
              "name": "attack1",
              "type": "uint24"
            },
            {
              "internalType": "uint24",
              "name": "attack2",
              "type": "uint24"
            },
            {
              "internalType": "uint24",
              "name": "attack3",
              "type": "uint24"
            },
            {
              "internalType": "uint24",
              "name": "attack4",
              "type": "uint24"
            },
            {
              "internalType": "uint24",
              "name": "attributePoints",
              "type": "uint24"
            },
            {
              "internalType": "uint24",
              "name": "weapon",
              "type": "uint24"
            },
            {
              "internalType": "uint24",
              "name": "shield",
              "type": "uint24"
            },
            {
              "internalType": "uint256",
              "name": "lastFight",
              "type": "uint256"
            },
            {
              "internalType": "enum UnlimitedEvolution.type_character",
              "name": "typeCharacter",
              "type": "uint8"
            },
            {
              "internalType": "enum UnlimitedEvolution.gender_character",
              "name": "genderCharacter",
              "type": "uint8"
            }
          ],
          "internalType": "struct UnlimitedEvolution.Character[]",
          "name": "",
          "type": "tuple[]"
        }
      ],
      "stateMutability": "view",
      "type": "function",
      "constant": true
    },
    {
      "inputs": [],
      "name": "getOthersCharacters",
      "outputs": [
        {
          "components": [
            {
              "internalType": "uint24",
              "name": "id",
              "type": "uint24"
            },
            {
              "internalType": "uint56",
              "name": "dna",
              "type": "uint56"
            },
            {
              "internalType": "uint16",
              "name": "level",
              "type": "uint16"
            },
            {
              "internalType": "uint24",
              "name": "xp",
              "type": "uint24"
            },
            {
              "internalType": "uint24",
              "name": "hp",
              "type": "uint24"
            },
            {
              "internalType": "uint24",
              "name": "stamina",
              "type": "uint24"
            },
            {
              "internalType": "uint24",
              "name": "attack1",
              "type": "uint24"
            },
            {
              "internalType": "uint24",
              "name": "attack2",
              "type": "uint24"
            },
            {
              "internalType": "uint24",
              "name": "attack3",
              "type": "uint24"
            },
            {
              "internalType": "uint24",
              "name": "attack4",
              "type": "uint24"
            },
            {
              "internalType": "uint24",
              "name": "attributePoints",
              "type": "uint24"
            },
            {
              "internalType": "uint24",
              "name": "weapon",
              "type": "uint24"
            },
            {
              "internalType": "uint24",
              "name": "shield",
              "type": "uint24"
            },
            {
              "internalType": "uint256",
              "name": "lastFight",
              "type": "uint256"
            },
            {
              "internalType": "enum UnlimitedEvolution.type_character",
              "name": "typeCharacter",
              "type": "uint8"
            },
            {
              "internalType": "enum UnlimitedEvolution.gender_character",
              "name": "genderCharacter",
              "type": "uint8"
            }
          ],
          "internalType": "struct UnlimitedEvolution.Character[]",
          "name": "",
          "type": "tuple[]"
        }
      ],
      "stateMutability": "view",
      "type": "function",
      "constant": true
    },
    {
      "inputs": [
        {
          "internalType": "uint16",
          "name": "stuffId",
          "type": "uint16"
        }
      ],
      "name": "buyStuff",
      "outputs": [],
      "stateMutability": "payable",
      "type": "function",
      "payable": true
    },
    {
      "inputs": [
        {
          "internalType": "uint24",
          "name": "tokenId",
          "type": "uint24"
        },
        {
          "internalType": "uint16",
          "name": "stuffId",
          "type": "uint16"
        }
      ],
      "name": "equipStuff",
      "outputs": [],
      "stateMutability": "nonpayable",
      "type": "function"
    },
    {
      "inputs": [
        {
          "internalType": "uint24",
          "name": "tokenId",
          "type": "uint24"
        }
      ],
      "name": "usePotion",
      "outputs": [],
      "stateMutability": "nonpayable",
      "type": "function"
    },
    {
      "inputs": [
        {
          "internalType": "address",
          "name": "_address",
          "type": "address"
        }
      ],
      "name": "getBalanceOfCharacters",
      "outputs": [
        {
          "internalType": "uint8",
          "name": "",
          "type": "uint8"
        }
      ],
      "stateMutability": "view",
      "type": "function",
      "constant": true
    },
    {
      "inputs": [],
      "name": "testModeSwitch",
      "outputs": [],
      "stateMutability": "nonpayable",
      "type": "function"
    }
  ],
  "bytecode": "0x6008805465ffffffffffff1916640fa0000005179055600360c08181526101406040529060e0606080368337505081516200004292600992506020019062000c02565b5066038d7ea4c68000600a5566038d7ea4c68000600b553480156200006657600080fd5b5073dd3782915140c8f3b190b5d67eac6dc5760c46e973a36085f69e2889c224210f603d836748e7dc008860405180602001604052806000815250620000bb816200070a640100000000026401000000009004565b50620000e2620000d364010000000062000723810204565b64010000000062000727810204565b6c01000000000000000000000000600160a060020a03928316810260a0529116026080527f6c3699283bda56ad74f6b855546325b68d482e983852a7a82979cc4807b641f460055567016345785d8a00006006556040805160208101909152600080825262000161913391906127109064010000000062000779810204565b6040805160c081018252600080825260016020808401828152948401828152606085018481526080860185815260a08701868152958052600f90935285517ff4803e074bd026baaf6ed2e288c9515f68c72fb7216eebdd7cae1718a53ec3758054985193519251945161ffff9081166801000000000000000002604060020a61ffff021996821666010000000000000267ffff00000000000019958316640100000000029590951667ffffffff0000000019968316620100000263ffffffff19909c1692909416919091179990991793909316171791821686178155925193949293928492605060020a60ff0219909116604060020a62ffffff021990921691909117906a010000000000000000000090849081111562000286576200028662000f28565b0217905550905050620002c033600160ff166127106040518060200160405280600081525062000779640100000000026401000000009004565b6040805160c08101825260018082526000602083018190529282019290925260608101829052608081018290529060a082015260016000819052600f602090815282517f169f97de0d9a84d840042b17d3c6b9638b3d6fd9024c9eb0c7a306a17b49f88f80549285015160408601516060870151608088015161ffff9081166801000000000000000002604060020a61ffff021992821666010000000000000267ffff00000000000019948316640100000000029490941667ffffffff0000000019958316620100000263ffffffff199099169790921696909617969096179290921694909417939093179283168217815560a0850151909390928492605060020a60ff021916604060020a62ffffff021990911617906a0100000000000000000000908490811115620003f857620003f862000f28565b02179055509050506200043133600260ff1660016040518060200160405280600081525062000779640100000000026401000000009004565b6040805160c0810182526002808252600a60208084018281529484018281526060850183815260808601938452600060a08701818152959052600f90925284517fa74ba3945261e09fde15ba3db55005b205e61eeb4ad811ac0faa2b315bffeead8054975192519351945161ffff9081166801000000000000000002604060020a61ffff021996821666010000000000000267ffff00000000000019968316640100000000029690961667ffffffff0000000019958316620100000263ffffffff19909b1692909416919091179890981792909216179190911791821685178155915192939192918391605060020a60ff0219909116604060020a62ffffff0219909116176a010000000000000000000083600181111562000557576200055762000f28565b02179055509050506200059133600160ff166127106040518060200160405280600081525062000779640100000000026401000000009004565b6040805160c08101825260038152600a6020820181905291810182905260608101829052608081019190915260a08101600190526003600052600f602090815281517f45f76dafbbad695564362934e24d72eedc57f9fc1a65f39bca62176cc829682880549284015160408501516060860151608087015161ffff9081166801000000000000000002604060020a61ffff021992821666010000000000000267ffff00000000000019948316640100000000029490941667ffffffff0000000019958316620100000263ffffffff199099169790921696909617969096179290921694909417939093179283168217815560a0840151909290918391605060020a60ff0219909116604060020a62ffffff0219909116176a0100000000000000000000836001811115620006c957620006c962000f28565b02179055509050506200070433600460ff16620186a06040518060200160405280600081525062000779640100000000026401000000009004565b6200104f565b80516200071f90600290602084019062000cb3565b5050565b3390565b60038054600160a060020a03838116600160a060020a0319831681179093556040519116919082907f8be0079c531659141344cd1fd0a4f28419497f9722a3daafe3b4186f6b6457e090600090a35050565b600160a060020a03841662000815576040517f08c379a000000000000000000000000000000000000000000000000000000000815260206004820152602160248201527f455243313135353a206d696e7420746f20746865207a65726f2061646472657360448201527f730000000000000000000000000000000000000000000000000000000000000060648201526084015b60405180910390fd5b60006200082a64010000000062000723810204565b90506200086c81600087620008488864010000000062000910810204565b6200085c8864010000000062000910810204565b876401000000006200095e810204565b600084815260208181526040808320600160a060020a0389168452909152812080548592906200089e90849062000e3e565b90915550506040805185815260208101859052600160a060020a0380881692600092918516917fc3d58168c5ae7397731d063d5bbf3d657854427343f4c083240f7aacaa2d0f62910160405180910390a4620009098160008787878764010000000062000966810204565b5050505050565b604080516001808252818301909252606091600091906020808301908036833701905050905082816000815181106200094d576200094d62000f57565b602090810291909101015292915050565b505050505050565b62000988600160a060020a0385166401000000006200285762000bfc82021704565b156200095e576040517ff23a6e61000000000000000000000000000000000000000000000000000000008152600160a060020a0385169063f23a6e6190620009dd908990899088908890889060040162000de2565b602060405180830381600087803b158015620009f857600080fd5b505af192505050801562000a2b575060408051601f3d908101601f1916820190925262000a289181019062000d47565b60015b62000b205762000a3a62000f86565b806308c379a0141562000a95575062000a5262000fc0565b8062000a5f575062000a97565b806040517f08c379a00000000000000000000000000000000000000000000000000000000081526004016200080c919062000e29565b505b6040517f08c379a000000000000000000000000000000000000000000000000000000000815260206004820152603460248201527f455243313135353a207472616e7366657220746f206e6f6e204552433131353560448201527f526563656976657220696d706c656d656e74657200000000000000000000000060648201526084016200080c565b7fffffffff0000000000000000000000000000000000000000000000000000000081167ff23a6e61000000000000000000000000000000000000000000000000000000001462000bf3576040517f08c379a000000000000000000000000000000000000000000000000000000000815260206004820152602860248201527f455243313135353a204552433131353552656365697665722072656a6563746560448201527f6420746f6b656e7300000000000000000000000000000000000000000000000060648201526084016200080c565b50505050505050565b3b151590565b82805482825590600052602060002090600901600a9004810192821562000ca15791602002820160005b8382111562000c6e57835183826101000a81548162ffffff021916908360ff160217905550926020019260030160208160020104928301926001030262000c2c565b801562000c9f5782816101000a81549062ffffff021916905560030160208160020104928301926001030262000c6e565b505b5062000caf92915062000d30565b5090565b82805462000cc19062000e7e565b90600052602060002090601f01602090048101928262000ce5576000855562000ca1565b82601f1062000d0057805160ff191683800117855562000ca1565b8280016001018555821562000ca1579182015b8281111562000ca157825182559160200191906001019062000d13565b5b8082111562000caf576000815560010162000d31565b60006020828403121562000d5a57600080fd5b81517fffffffff000000000000000000000000000000000000000000000000000000008116811462000d8b57600080fd5b9392505050565b6000815180845260005b8181101562000dba5760208185018101518683018201520162000d9c565b8181111562000dcd576000602083870101525b50601f01601f19169290920160200192915050565b600160a060020a03868116825285166020820152604081018490526060810183905260a06080820181905260009062000e1e9083018462000d92565b979650505050505050565b60208152600062000d8b602083018462000d92565b6000821982111562000e79577f4e487b7100000000000000000000000000000000000000000000000000000000600052601160045260246000fd5b500190565b60028104600182168062000e9357607f821691505b6020821081141562000ece577f4e487b7100000000000000000000000000000000000000000000000000000000600052602260045260246000fd5b50919050565b601f8201601f191681016001604060020a038111828210171562000f21577f4e487b7100000000000000000000000000000000000000000000000000000000600052604160045260246000fd5b6040525050565b7f4e487b7100000000000000000000000000000000000000000000000000000000600052602160045260246000fd5b7f4e487b7100000000000000000000000000000000000000000000000000000000600052603260045260246000fd5b600060033d111562000fbd5760046000803e7c01000000000000000000000000000000000000000000000000000000006000510490505b90565b600060443d101562000fcf5790565b6040516003193d81016004833e81513d6001604060020a03816024840111818411171562000fff57505050505090565b8285019150815181811115620010185750505050505090565b843d8701016020828501011115620010335750505050505090565b620010446020828601018762000ed4565b509095945050505050565b6080516c01000000000000000000000000900460a0516c010000000000000000000000009004614904620010aa6000396000818161170501526133170152600081816120900152818161247b01526132e801526149046000f3fe6080604052600436106101e65760003560e060020a9004806384017e5211610106578063c7e8019811610099578063e985e9c511610068578063e985e9c51461057e578063ec7a1ceb146105c7578063f242432a146105f4578063f2fde38b1461061457600080fd5b8063c7e801981461051c578063cd9ea3421461053c578063d404dabd14610556578063dbdff2c11461056957600080fd5b8063a22cb465116100d5578063a22cb465146104a9578063b5214a08146104c9578063baa03618146104dc578063bb84e74f146104fc57600080fd5b806384017e52146104215780638acf59f2146104415780638da5cb5b1461046157806394985ddd1461048957600080fd5b80633c4739d31161017e5780634e82debc1161014d5780634e82debc146103b75780634fb97a10146103d75780635f375368146103ec578063715018a61461040c57600080fd5b80633c4739d31461033d5780633ccfd60b1461035f57806342619f66146103745780634e1273f41461038a57600080fd5b80632723c0de116101ba5780632723c0de1461029d5780632a3f8963146102e85780632eb2c2d6146102fd5780633418e4361461031d57600080fd5b8062fdd58e146101eb57806301ffc9a71461021e5780630e89341c1461024e578063220cb4ce1461027b575b600080fd5b3480156101f757600080fd5b5061020b610206366004613d62565b610634565b6040519081526020015b60405180910390f35b34801561022a57600080fd5b5061023e610239366004613e9a565b6106e3565b6040519015158152602001610215565b34801561025a57600080fd5b5061026e610269366004613ff1565b61077e565b6040516102159190614353565b34801561028757600080fd5b5061029b610296366004613f62565b610812565b005b3480156102a957600080fd5b506102d66102b8366004613bc7565b600160a060020a031660009081526010602052604090205460ff1690565b60405160ff9091168152602001610215565b3480156102f457600080fd5b5061029b610b92565b34801561030957600080fd5b5061029b610318366004613c1c565b610bd3565b34801561032957600080fd5b5061029b610338366004613f1d565b610c78565b34801561034957600080fd5b50610352610df7565b60405161021591906142cc565b34801561036b57600080fd5b5061029b61104d565b34801561038057600080fd5b5061020b60075481565b34801561039657600080fd5b506103aa6103a5366004613d8c565b6110c1565b604051610215919061431b565b3480156103c357600080fd5b5061029b6103d2366004613f1d565b611202565b3480156103e357600080fd5b50610352611314565b3480156103f857600080fd5b5061029b610407366004613ff1565b61157b565b34801561041857600080fd5b5061029b6115dd565b34801561042d57600080fd5b5061029b61043c366004613ff1565b611616565b34801561044d57600080fd5b5061029b61045c366004613f1d565b611678565b34801561046d57600080fd5b50600354604051600160a060020a039091168152602001610215565b34801561049557600080fd5b5061029b6104a4366004613e78565b6116fa565b3480156104b557600080fd5b5061029b6104c4366004613d2b565b61177f565b61029b6104d7366004613ed4565b61178a565b3480156104e857600080fd5b5061029b6104f7366004613f8c565b611e77565b34801561050857600080fd5b5061029b610517366004613ff1565b612061565b34801561052857600080fd5b5061029b610537366004613f38565b61214d565b34801561054857600080fd5b50600d5461023e9060ff1681565b61029b610564366004613f02565b6122d1565b34801561057557600080fd5b5061020b61243e565b34801561058a57600080fd5b5061023e610599366004613be9565b600160a060020a03918216600090815260016020908152604080832093909416825291909152205460ff1690565b3480156105d357600080fd5b506105e76105e2366004613f1d565b61257f565b6040516102159190614546565b34801561060057600080fd5b5061029b61060f366004613cc6565b612704565b34801561062057600080fd5b5061029b61062f366004613bc7565b6127a2565b6000600160a060020a0383166106ba5760405160e560020a62461bcd02815260206004820152602b60248201527f455243313135353a2062616c616e636520717565727920666f7220746865207a60448201527f65726f206164647265737300000000000000000000000000000000000000000060648201526084015b60405180910390fd5b50600081815260208181526040808320600160a060020a03861684529091529020545b92915050565b6000600160e060020a031982167fd9b67a260000000000000000000000000000000000000000000000000000000014806107465750600160e060020a031982167f0e89341c00000000000000000000000000000000000000000000000000000000145b806106dd57507f01ffc9a700000000000000000000000000000000000000000000000000000000600160e060020a03198316146106dd565b60606002805461078d90614665565b80601f01602080910402602001604051908101604052809291908181526020018280546107b990614665565b80156108065780601f106107db57610100808354040283529160200191610806565b820191906000526020600020905b8154815290600101906020018083116107e957829003601f168201915b50505050509050919050565b6108208262ffffff1661285d565b61083f5760405160e560020a62461bcd0281526004016106b1906143c3565b61084d8162ffffff1661285d565b151561085d8362ffffff1661285d565b151514156108d65760405160e560020a62461bcd02815260206004820152602160248201527f596f7572204e4654732063616e6e6f742066696768742065616368206f74686560448201527f720000000000000000000000000000000000000000000000000000000000000060648201526084016106b1565b62ffffff82166000908152600e602052604090206002015442906108fb90603c6145a0565b1061094b5760405160e560020a62461bcd02815260206004820152601860248201527f546f20736f6f6e20746f206669676874202831206d696e29000000000000000060448201526064016106b1565b62ffffff8083166000908152600e6020526040902054600a609060020a90910490911610156109bf5760405160e560020a62461bcd02815260206004820152601260248201527f4e6f7420656e6f756768207374616d696e61000000000000000000000000000060448201526064016106b1565b62ffffff8082166000908152600e602052604080822054928516825290205461ffff6a010000000000000000000092839004811692909104161115610a495760405160e560020a62461bcd02815260206004820152601c60248201527f466967687420736f6d656f6e6520796f7572206f776e2073697a65210000000060448201526064016106b1565b62ffffff8083166000908152600e6020526040902054607860020a90041615801590610a91575062ffffff8082166000908152600e6020526040902054607860020a90041615155b610ae05760405160e560020a62461bcd02815260206004820152601760248201527f4f6e65206f6620746865204e465473206973206465616400000000000000000060448201526064016106b1565b62ffffff82166000908152600e6020526040812042600290910155610b058383612871565b90506000610b138385612871565b62ffffff8086166000908152600e6020526040902054919250610b4191600a91609060020a9091041661462a565b62ffffff8581166000908152600e60205260409020805474ffffff0000000000000000000000000000000000001916609060020a9390921692909202179055610b8c848484846129aa565b50505050565b600354600160a060020a03163314610bbf5760405160e560020a62461bcd0281526004016106b190614511565b600d805460ff19811660ff90911615179055565b600160a060020a038516331480610bef5750610bef8533610599565b610c645760405160e560020a62461bcd02815260206004820152603260248201527f455243313135353a207472616e736665722063616c6c6572206973206e6f742060448201527f6f776e6572206e6f7220617070726f766564000000000000000000000000000060648201526084016106b1565b610c718585858585612ba2565b5050505050565b610c868162ffffff1661285d565b610ca55760405160e560020a62461bcd0281526004016106b1906143c3565b610caf600461285d565b610cfe5760405160e560020a62461bcd02815260206004820152601660248201527f596f7520646f6e2774206f776e206120706f74696f6e0000000000000000000060448201526064016106b1565b62ffffff8082166000908152600e60205260409020546064609060020a909104909116108015610d4e575062ffffff8082166000908152600e60205260409020546064607860020a909104909116105b610d6d5760405160e560020a62461bcd0281526004016106b190614457565b610d7a3360046001612d9d565b62ffffff81166000818152600e6020908152604091829020805474ffffffffffff0000000000000000000000000000001916726400006400000000000000000000000000000017905590519182527f127a62fea82fb42bc3a6f379a68f1ccd885eb84979d3c9372bf3d70c765cf13b91015b60405180910390a150565b3360009081526010602052604081205460609190819060ff1667ffffffffffffffff811115610e2857610e286147da565b604051908082528060200260200182016040528015610e6157816020015b610e4e613a1a565b815260200190600190039081610e465790505b50905060005b60085462ffffff908116908216101561104657610e888162ffffff1661285d565b156110345762ffffff8181166000908152600e602090815260409182902082516102008101845281548086168252630100000080820466ffffffffffffff16948301949094526a0100000000000000000000810461ffff16948201949094526c01000000000000000000000000840485166060820152607860020a840485166080820152609060020a8404851660a082015260a860020a8404851660c082015260c060020a8404851660e082015260d860020a90930484166101008401526001810154808516610120850152918204841661014084015266010000000000008204841661016084015269010000000000000000009091049092166101808201526002808301546101a083015260038301549192916101c084019160ff90911690811115610fb757610fb76147a8565b6002811115610fc857610fc86147a8565b81526020016003820160019054906101000a900460ff166002811115610ff057610ff06147a8565b6002811115611001576110016147a8565b81525050828460ff168151811061101a5761101a6147c1565b6020026020010181905250828061103090614720565b9350505b8061103e816146ec565b915050610e67565b5092915050565b600354600160a060020a0316331461107a5760405160e560020a62461bcd0281526004016106b190614511565b600354600160a060020a0316604051600160a060020a039190911690303180156108fc02916000818181858888f193505050501580156110be573d6000803e3d6000fd5b50565b6060815183511461113d5760405160e560020a62461bcd02815260206004820152602960248201527f455243313135353a206163636f756e747320616e6420696473206c656e67746860448201527f206d69736d61746368000000000000000000000000000000000000000000000060648201526084016106b1565b6000835167ffffffffffffffff811115611159576111596147da565b604051908082528060200260200182016040528015611182578160200160208202803683370190505b50905060005b84518110156111fa576111cd8582815181106111a6576111a66147c1565b60200260200101518583815181106111c0576111c06147c1565b6020026020010151610634565b8282815181106111df576111df6147c1565b60209081029190910101526111f381614705565b9050611188565b509392505050565b6112108162ffffff1661285d565b61122f5760405160e560020a62461bcd0281526004016106b1906143c3565b62ffffff8082166000908152600e60205260409020546064609060020a90910490911610801561127f575062ffffff8082166000908152600e60205260409020546064607860020a909104909116105b61129e5760405160e560020a62461bcd0281526004016106b190614457565b62ffffff81166000818152600e6020908152604091829020805474ffffffffffff0000000000000000000000000000001916726400006400000000000000000000000000000017905590519182527f70b3acde96522f48d954a5bb77f27755c277bb00853b13264d21178135d3d0a99101610dec565b3360009081526010602052604081205460085460609291829161133f9160ff169062ffffff1661462a565b62ffffff1667ffffffffffffffff81111561135c5761135c6147da565b60405190808252806020026020018201604052801561139557816020015b611382613a1a565b81526020019060019003908161137a5790505b50905060005b60085462ffffff9081169082161015611046576113bc8162ffffff1661285d565b6115695762ffffff8181166000908152600e602090815260409182902082516102008101845281548086168252630100000080820466ffffffffffffff16948301949094526a0100000000000000000000810461ffff16948201949094526c01000000000000000000000000840485166060820152607860020a840485166080820152609060020a8404851660a082015260a860020a8404851660c082015260c060020a8404851660e082015260d860020a90930484166101008401526001810154808516610120850152918204841661014084015266010000000000008204841661016084015269010000000000000000009091049092166101808201526002808301546101a083015260038301549192916101c084019160ff909116908111156114ea576114ea6147a8565b60028111156114fb576114fb6147a8565b81526020016003820160019054906101000a900460ff166002811115611523576115236147a8565b6002811115611534576115346147a8565b81525050828462ffffff168151811061154f5761154f6147c1565b60200260200101819052508280611565906146ec565b9350505b80611573816146ec565b91505061139b565b600354600160a060020a031633146115a85760405160e560020a62461bcd0281526004016106b190614511565b600b8190556040518181527f38f4067adf1477c6ed59234d75dfe320c18a2373bd9a839a489794e207148bbb90602001610dec565b600354600160a060020a0316331461160a5760405160e560020a62461bcd0281526004016106b190614511565b6116146000612f50565b565b600354600160a060020a031633146116435760405160e560020a62461bcd0281526004016106b190614511565b600a8190556040518181527f38fbb1c8b109c430f0c030e7ed076cf5611a307773a4e8e365601e8f8bceaec690602001610dec565b600354600160a060020a031633146116a55760405160e560020a62461bcd0281526004016106b190614511565b6008805465ffffff0000001916630100000062ffffff8481168202929092179283905560405192041681527fb7d28e616ee42c9b98a93c9bc72ee6f206603cd1e23793ae33c19c3c3b86c4e190602001610dec565b33600160a060020a037f000000000000000000000000000000000000000000000000000000000000000016146117755760405160e560020a62461bcd02815260206004820152601f60248201527f4f6e6c7920565246436f6f7264696e61746f722063616e2066756c66696c6c0060448201526064016106b1565b60075550565b5050565b61177b338383612faf565b600a5434146117de5760405160e560020a62461bcd02815260206004820152601460248201527f57726f6e6720616d6f756e74206f66206665657300000000000000000000000060448201526064016106b1565b33600090815260106020526040902054600560ff909116106118455760405160e560020a62461bcd02815260206004820152601e60248201527f596f752063616e27742068617665206d6f7265207468616e2035204e4654000060448201526064016106b1565b6008546301000000900462ffffff166009836002811115611868576118686147a8565b60ff168154811061187b5761187b6147c1565b90600052602060002090600a91828204019190066003029054906101000a900462ffffff1662ffffff16111561191c5760405160e560020a62461bcd02815260206004820152602e60248201527f596f752063616e6e6f74206d696e74206d6f726520636861726163746572207760448201527f697468207468697320636c61737300000000000000000000000000000000000060648201526084016106b1565b61192c662386f26fc100006130a7565b6000611936613114565b604080516102008101825260085462ffffff168152600c5466ffffffffffffff1660208201526001918101829052606081019190915260646080820181905260a082015281519192509060c08201908390600090611996576119966147c1565b602002602001015160ff1662ffffff168152602001826001815181106119be576119be6147c1565b602002602001015160ff1662ffffff168152602001826002815181106119e6576119e66147c1565b602002602001015160ff1662ffffff16815260200182600381518110611a0e57611a0e6147c1565b60209081029190910181015160ff168252600090820181905260408201526001606082015242608082015260a001846002811115611a4e57611a4e6147a8565b8152602001836002811115611a6557611a656147a8565b815250600e6000600860009054906101000a900462ffffff1662ffffff1662ffffff16815260200190815260200160002060008201518160000160006101000a81548162ffffff021916908362ffffff16021790555060208201518160000160036101000a81548166ffffffffffffff021916908366ffffffffffffff160217905550604082015181600001600a6101000a81548161ffff021916908361ffff160217905550606082015181600001600c6101000a81548162ffffff021916908362ffffff160217905550608082015181600001600f6101000a81548162ffffff021916908362ffffff16021790555060a08201518160000160126101000a81548162ffffff021916908362ffffff16021790555060c08201518160000160156101000a81548162ffffff021916908362ffffff16021790555060e08201518160000160186101000a81548162ffffff021916908362ffffff16021790555061010082015181600001601b6101000a81548162ffffff021916908362ffffff1602179055506101208201518160010160006101000a81548162ffffff021916908362ffffff1602179055506101408201518160010160036101000a81548162ffffff021916908362ffffff1602179055506101608201518160010160066101000a81548162ffffff021916908362ffffff1602179055506101808201518160010160096101000a81548162ffffff021916908362ffffff1602179055506101a082015181600201556101c08201518160030160006101000a81548160ff02191690836002811115611cb857611cb86147a8565b02179055506101e082015160038201805461ff001916610100836002811115611ce357611ce36147a8565b021790555050336000908152601060205260408120805460ff16925090611d0983614720565b91906101000a81548160ff021916908360ff160217905550506009836002811115611d3657611d366147a8565b60ff1681548110611d4957611d496147c1565b90600052602060002090600a918282040191900660030281819054906101000a900462ffffff1680929190611d7d906146ec565b91906101000a81548162ffffff021916908362ffffff16021790555050611dbb3033600060ff16600160405180602001604052806000815250612704565b611ddc3033600160ff16600160405180602001604052806000815250612704565b600854604080516020810190915260008152611e0491339162ffffff909116906001906131bb565b60085460405162ffffff90911681527fe227f939502c878cd77af001b21022d49a6b5ad9c3103d7ad7cacc22b89c7e189060200160405180910390a16008805462ffffff16906000611e55836146ec565b91906101000a81548162ffffff021916908362ffffff16021790555050505050565b60008183611e858688614579565b611e8f9190614579565b611e999190614579565b62ffffff8781166000908152600e602052604090206001015491811692506301000000909104168114611f375760405160e560020a62461bcd02815260206004820152602360248201527f57726f6e6720616d6f756e74206f6620706f696e747320746f2061747472696260448201527f757465000000000000000000000000000000000000000000000000000000000060648201526084016106b1565b62ffffff8087166000908152600e6020526040902080548792601591611f6691859160a860020a900416614579565b82546101009290920a62ffffff8181021990931691831602179091558781166000908152600e6020526040902080548793509091601891611fb091859160c060020a900416614579565b82546101009290920a62ffffff8181021990931691831602179091558781166000908152600e6020526040902080548693509091601b91611ffa91859160d860020a900416614579565b82546101009290920a62ffffff8181021990931691831602179091558781166000908152600e602052604081206001018054869450909261203d91859116614579565b92506101000a81548162ffffff021916908362ffffff160217905550505050505050565b600354600160a060020a0316331461208e5760405160e560020a62461bcd0281526004016106b190614511565b7f0000000000000000000000000000000000000000000000000000000000000000600160a060020a031663a9059cbb6120cf600354600160a060020a031690565b60405160e060020a63ffffffff8416028152600160a060020a03909116600482015260248101849052604401602060405180830381600087803b15801561211557600080fd5b505af1158015612129573d6000803e3d6000fd5b505050506040513d601f19601f8201168201806040525081019061177b9190613e5b565b61215b8262ffffff1661285d565b61217a5760405160e560020a62461bcd0281526004016106b1906143c3565b6121878161ffff1661285d565b6121d65760405160e560020a62461bcd02815260206004820152601960248201527f596f7520646f6e2774206f776e207468697320776561706f6e0000000000000060448201526064016106b1565b600061ffff82166000908152600f60205260409020546a0100000000000000000000900460ff16600181111561220e5761220e6147a8565b141561224f5762ffffff82166000818152600e60205260409020600101805468ffffff0000000000001916660100000000000090920291909117905561228c565b62ffffff82166000818152600e6020526040902060010180546bffffff000000000000000000191669010000000000000000009092029190911790555b6040805162ffffff8416815261ffff831660208201527f23a1072f13aa609b5da58b7ed2878c5d10dc7a869762243320d0a64613fc86ba910160405180910390a15050565b61ffff8116158015906122e957508061ffff16600114155b6123385760405160e560020a62461bcd02815260206004820152601d60248201527f596f752063616e2774206275792074686520626173696320737475666600000060448201526064016106b1565b612346308261ffff16610634565b6123955760405160e560020a62461bcd02815260206004820152601760248201527f5374756666206e6f206d6f726520617661696c61626c6500000000000000000060448201526064016106b1565b600b5434146123e95760405160e560020a62461bcd02815260206004820152601460248201527f57726f6e6720616d6f756e74206f66206665657300000000000000000000000060448201526064016106b1565b61240a30338361ffff16600160405180602001604052806000815250612704565b60405161ffff821681527f57ca8393d2bcb7efb9cd0cffa59d66f74ec75560c850e4c57047da44162a776290602001610dec565b6006546040517f70a0823100000000000000000000000000000000000000000000000000000000815230600482015260009190600160a060020a037f000000000000000000000000000000000000000000000000000000000000000016906370a082319060240160206040518083038186803b1580156124bd57600080fd5b505afa1580156124d1573d6000803e3d6000fd5b505050506040513d601f19601f820116820180604052508101906124f5919061400a565b101561256c5760405160e560020a62461bcd02815260206004820152602b60248201527f4e6f7420656e6f756768204c494e4b202d2066696c6c20636f6e74726163742060448201527f776974682066617563657400000000000000000000000000000000000000000060648201526084016106b1565b61257a6005546006546132e4565b905090565b612587613a1a565b62ffffff8281166000908152600e602090815260409182902082516102008101845281548086168252630100000080820466ffffffffffffff16948301949094526a0100000000000000000000810461ffff16948201949094526c01000000000000000000000000840485166060820152607860020a840485166080820152609060020a8404851660a082015260a860020a8404851660c082015260c060020a8404851660e082015260d860020a90930484166101008401526001810154808516610120850152918204841661014084015266010000000000008204841661016084015269010000000000000000009091049092166101808201526002808301546101a083015260038301549192916101c084019160ff909116908111156126b1576126b16147a8565b60028111156126c2576126c26147a8565b81526020016003820160019054906101000a900460ff1660028111156126ea576126ea6147a8565b60028111156126fb576126fb6147a8565b90525092915050565b600160a060020a03851633148061272057506127208533610599565b6127955760405160e560020a62461bcd02815260206004820152602960248201527f455243313135353a2063616c6c6572206973206e6f74206f776e6572206e6f7260448201527f20617070726f766564000000000000000000000000000000000000000000000060648201526084016106b1565b610c718585858585613478565b600354600160a060020a031633146127cf5760405160e560020a62461bcd0281526004016106b190614511565b600160a060020a03811661284e5760405160e560020a62461bcd02815260206004820152602660248201527f4f776e61626c653a206e6577206f776e657220697320746865207a65726f206160448201527f646472657373000000000000000000000000000000000000000000000000000060648201526084016106b1565b6110be81612f50565b3b151590565b60006128693383610634565b151592915050565b62ffffff8083166000908152600e6020526040812054909182916128a8916c01000000000000000000000000909104166001614579565b62ffffff8086166000908152600e60205260409020546002916128dd9160c060020a810482169160a860020a90910416614579565b6128e791906145dd565b6128f191906145ff565b62ffffff8481166000908152600e602052604081205492821693509160029161292c916c010000000000000000000000009004166001614579565b61293691906145dd565b62ffffff8086166000908152600e60205260409020600181015490546002926129699281169160d860020a900416614579565b61297391906145dd565b61297d91906145ff565b62ffffff16905080821015612997576000925050506106dd565b6129a1818361464e565b925050506106dd565b62ffffff8084166000908152600e6020526040902054607860020a9004168210612a095762ffffff83166000908152600e60205260409020805471ffffff00000000000000000000000000000019169055612a048461359b565b612b4e565b62ffffff8084166000908152600e6020526040902054612a32918491607860020a90041661462a565b62ffffff8481166000908152600e6020526040808220805471ffffff0000000000000000000000000000001916607860020a9585168602179055878316825290205491909104168110612ab55762ffffff84166000908152600e60205260409020805471ffffff00000000000000000000000000000019169055612a048361359b565b62ffffff8085166000908152600e6020526040902054612ade918391607860020a90041661462a565b62ffffff8581166000908152600e60205260409020805471ffffff0000000000000000000000000000001916607860020a939092169290920217905580821115612b2b57612a048461359b565b81811115612b3c57612a048361359b565b612b458461359b565b612b4e8361359b565b6040805162ffffff808716825285166020820152908101839052606081018290527f91ad1d4c0919e1b53fbdcec65d7dc46d5f6d4de4cbeeeef5e6f1f107d0f4e28e9060800160405180910390a150505050565b8151835114612c1c5760405160e560020a62461bcd02815260206004820152602860248201527f455243313135353a2069647320616e6420616d6f756e7473206c656e6774682060448201527f6d69736d6174636800000000000000000000000000000000000000000000000060648201526084016106b1565b600160a060020a038416612c455760405160e560020a62461bcd0281526004016106b1906143fa565b3360005b8451811015612d2f576000858281518110612c6657612c666147c1565b602002602001015190506000858381518110612c8457612c846147c1565b60209081029190910181015160008481528083526040808220600160a060020a038e168352909352919091205490915081811015612cd75760405160e560020a62461bcd0281526004016106b1906144b4565b600083815260208181526040808320600160a060020a038e8116855292528083208585039055908b16825281208054849290612d149084906145a0565b9250508190555050505080612d2890614705565b9050612c49565b5084600160a060020a031686600160a060020a031682600160a060020a03167f4a39dc06d4c0dbc64b70af90fd698a233a518aa5d07e595d983b8c0526c8f7fb8787604051612d7f92919061432e565b60405180910390a4612d95818787878787613721565b505050505050565b600160a060020a038316612e1c5760405160e560020a62461bcd02815260206004820152602360248201527f455243313135353a206275726e2066726f6d20746865207a65726f206164647260448201527f657373000000000000000000000000000000000000000000000000000000000060648201526084016106b1565b33612e4c81856000612e2d876138d0565b612e36876138d0565b5050604080516020810190915260009052505050565b600083815260208181526040808320600160a060020a038816845290915290205482811015612ee55760405160e560020a62461bcd028152602060048201526024808201527f455243313135353a206275726e20616d6f756e7420657863656564732062616c60448201527f616e63650000000000000000000000000000000000000000000000000000000060648201526084016106b1565b600084815260208181526040808320600160a060020a03898116808652918452828520888703905582518981529384018890529092908616917fc3d58168c5ae7397731d063d5bbf3d657854427343f4c083240f7aacaa2d0f62910160405180910390a45050505050565b60038054600160a060020a0383811673ffffffffffffffffffffffffffffffffffffffff19831681179093556040519116919082907f8be0079c531659141344cd1fd0a4f28419497f9722a3daafe3b4186f6b6457e090600090a35050565b81600160a060020a031683600160a060020a0316141561303a5760405160e560020a62461bcd02815260206004820152602960248201527f455243313135353a2073657474696e6720617070726f76616c2073746174757360448201527f20666f722073656c66000000000000000000000000000000000000000000000060648201526084016106b1565b600160a060020a03838116600081815260016020908152604080832094871680845294825291829020805460ff191686151590811790915591519182527f17307eab39ab6107e8899845ad3d59bd9653f200f220920489ca2b5937696c31910160405180910390a3505050565b600d5460ff166130ca57806130ba61243e565b6130c49190614762565b600c5550565b60408051426020808301919091524482840152336c0100000000000000000000000002606083015282516054818403018152607490920190925280519101206130c4908290614762565b60408051600480825260a08201909252606091600091906020820160808036833701905050905060005b60048160ff1610156131b557600361315782600a6145b8565b60ff16600c546131679190614762565b6131719190614762565b61317c9060036145b8565b828260ff1681518110613191576131916147c1565b60ff90921660209283029190910190910152806131ad81614720565b91505061313e565b50919050565b600160a060020a03841661323a5760405160e560020a62461bcd02815260206004820152602160248201527f455243313135353a206d696e7420746f20746865207a65726f2061646472657360448201527f730000000000000000000000000000000000000000000000000000000000000060648201526084016106b1565b336132548160008761324b886138d0565b610c71886138d0565b600084815260208181526040808320600160a060020a0389168452909152812080548592906132849084906145a0565b90915550506040805185815260208101859052600160a060020a0380881692600092918516917fc3d58168c5ae7397731d063d5bbf3d657854427343f4c083240f7aacaa2d0f62910160405180910390a4610c718160008787878761391b565b60007f0000000000000000000000000000000000000000000000000000000000000000600160a060020a0316634000aea07f000000000000000000000000000000000000000000000000000000000000000084866000604051602001613354929190918252602082015260400190565b60408051601f198184030181529082905260e060020a63ffffffff861602825261338293929160040161429b565b602060405180830381600087803b15801561339c57600080fd5b505af11580156133b0573d6000803e3d6000fd5b505050506040513d601f19601f820116820180604052508101906133d49190613e5b565b50600083815260046020818152604080842054815180840189905280830186905230606082015260808082018390528351808303909101815260a0909101909252815191830191909120938790529190526134309060016145a0565b6000858152600460205260409020556134708482604080516020808201949094528082019290925280518083038201815260609092019052805191012090565b949350505050565b600160a060020a0384166134a15760405160e560020a62461bcd0281526004016106b1906143fa565b336134b181878761324b886138d0565b600084815260208181526040808320600160a060020a038a168452909152902054838110156134f55760405160e560020a62461bcd0281526004016106b1906144b4565b600085815260208181526040808320600160a060020a038b81168552925280832087850390559088168252812080548692906135329084906145a0565b90915550506040805186815260208101869052600160a060020a03808916928a821692918616917fc3d58168c5ae7397731d063d5bbf3d657854427343f4c083240f7aacaa2d0f62910160405180910390a461359282888888888861391b565b50505050505050565b62ffffff8082166000908152600e6020526040902080546c01000000000000000000000000900490911690600c6135d1836146ec565b82546101009290920a62ffffff8181021990931691831602179091558281166000908152600e602052604090205461361e9250600a916c0100000000000000000000000090910416614740565b62ffffff166110be5762ffffff81166000908152600e6020526040902080546a0100000000000000000000900461ffff1690600a61365b836146ca565b825461ffff9182166101009390930a92830291909202199091161790555062ffffff8082166000908152600e602052604090206001018054600a926003916136ac9185916301000000900416614579565b82546101009290920a62ffffff81810219909316918316021790915582166000818152600e60209081526040918290205482519384526a0100000000000000000000900461ffff16908301527f719792e6ed880d27219754d543fad5ae2f877eeff920d283bb067052d8937811925001610dec565b600160a060020a0384163b15612d95576040517fbc197c81000000000000000000000000000000000000000000000000000000008152600160a060020a0385169063bc197c819061377e90899089908890889088906004016141fa565b602060405180830381600087803b15801561379857600080fd5b505af19250505080156137c8575060408051601f3d908101601f191682019092526137c591810190613eb7565b60015b613884576137d46147f3565b806308c379a0141561381157506137e9614813565b806137f45750613813565b8060405160e560020a62461bcd0281526004016106b19190614353565b505b60405160e560020a62461bcd02815260206004820152603460248201527f455243313135353a207472616e7366657220746f206e6f6e204552433131353560448201527f526563656976657220696d706c656d656e74657200000000000000000000000060648201526084016106b1565b600160e060020a031981167fbc197c8100000000000000000000000000000000000000000000000000000000146135925760405160e560020a62461bcd0281526004016106b190614366565b6040805160018082528183019092526060916000919060208083019080368337019050509050828160008151811061390a5761390a6147c1565b602090810291909101015292915050565b600160a060020a0384163b15612d95576040517ff23a6e61000000000000000000000000000000000000000000000000000000008152600160a060020a0385169063f23a6e61906139789089908990889088908890600401614258565b602060405180830381600087803b15801561399257600080fd5b505af19250505080156139c2575060408051601f3d908101601f191682019092526139bf91810190613eb7565b60015b6139ce576137d46147f3565b600160e060020a031981167ff23a6e6100000000000000000000000000000000000000000000000000000000146135925760405160e560020a62461bcd0281526004016106b190614366565b6040805161020081018252600080825260208201819052918101829052606081018290526080810182905260a0810182905260c0810182905260e08101829052610100810182905261012081018290526101408101829052610160810182905261018081018290526101a08101829052906101c082019081526020016000905290565b8035600160a060020a0381168114613ab457600080fd5b919050565b600082601f830112613aca57600080fd5b81356020613ad782614555565b604051613ae4828261469d565b838152828101915085830183850287018401881015613b0257600080fd5b60005b85811015613b2157813584529284019290840190600101613b05565b5090979650505050505050565b600082601f830112613b3f57600080fd5b813567ffffffffffffffff811115613b5957613b596147da565b604051613b70601f8301601f19166020018261469d565b818152846020838601011115613b8557600080fd5b816020850160208301376000918101602001919091529392505050565b803561ffff81168114613ab457600080fd5b803562ffffff81168114613ab457600080fd5b600060208284031215613bd957600080fd5b613be282613a9d565b9392505050565b60008060408385031215613bfc57600080fd5b613c0583613a9d565b9150613c1360208401613a9d565b90509250929050565b600080600080600060a08688031215613c3457600080fd5b613c3d86613a9d565b9450613c4b60208701613a9d565b9350604086013567ffffffffffffffff80821115613c6857600080fd5b613c7489838a01613ab9565b94506060880135915080821115613c8a57600080fd5b613c9689838a01613ab9565b93506080880135915080821115613cac57600080fd5b50613cb988828901613b2e565b9150509295509295909350565b600080600080600060a08688031215613cde57600080fd5b613ce786613a9d565b9450613cf560208701613a9d565b93506040860135925060608601359150608086013567ffffffffffffffff811115613d1f57600080fd5b613cb988828901613b2e565b60008060408385031215613d3e57600080fd5b613d4783613a9d565b91506020830135613d578161489d565b809150509250929050565b60008060408385031215613d7557600080fd5b613d7e83613a9d565b946020939093013593505050565b60008060408385031215613d9f57600080fd5b823567ffffffffffffffff80821115613db757600080fd5b818501915085601f830112613dcb57600080fd5b81356020613dd882614555565b604051613de5828261469d565b8381528281019150858301838502870184018b1015613e0357600080fd5b600096505b84871015613e2d57613e1981613a9d565b835260019690960195918301918301613e08565b5096505086013592505080821115613e4457600080fd5b50613e5185828601613ab9565b9150509250929050565b600060208284031215613e6d57600080fd5b8151613be28161489d565b60008060408385031215613e8b57600080fd5b50508035926020909101359150565b600060208284031215613eac57600080fd5b8135613be2816148ab565b600060208284031215613ec957600080fd5b8151613be2816148ab565b60008060408385031215613ee757600080fd5b8235613ef2816148c1565b91506020830135613d57816148c1565b600060208284031215613f1457600080fd5b613be282613ba2565b600060208284031215613f2f57600080fd5b613be282613bb4565b60008060408385031215613f4b57600080fd5b613f5483613bb4565b9150613c1360208401613ba2565b60008060408385031215613f7557600080fd5b613f7e83613bb4565b9150613c1360208401613bb4565b600080600080600060a08688031215613fa457600080fd5b613fad86613bb4565b9450613fbb60208701613bb4565b9350613fc960408701613bb4565b9250613fd760608701613bb4565b9150613fe560808701613bb4565b90509295509295909350565b60006020828403121561400357600080fd5b5035919050565b60006020828403121561401c57600080fd5b5051919050565b600081518084526020808501945080840160005b8381101561405357815187529582019590820190600101614037565b509495945050505050565b6000815180845260005b8181101561408457602081850181015186830182015201614068565b81811115614096576000602083870101525b50601f01601f19169290920160200192915050565b600381106140cc5760e060020a634e487b7102600052602160045260246000fd5b9052565b805162ffffff16825260208101516140f3602084018266ffffffffffffff169052565b506040810151614109604084018261ffff169052565b506060810151614120606084018262ffffff169052565b506080810151614137608084018262ffffff169052565b5060a081015161414e60a084018262ffffff169052565b5060c081015161416560c084018262ffffff169052565b5060e081015161417c60e084018262ffffff169052565b506101008181015162ffffff9081169184019190915261012080830151821690840152610140808301518216908401526101608083015182169084015261018080830151909116908301526101a080820151908301526101c0808201516141e5828501826140ab565b50506101e080820151610b8c828501826140ab565b6000600160a060020a03808816835280871660208401525060a0604083015261422660a0830186614023565b82810360608401526142388186614023565b9050828103608084015261424c818561405e565b98975050505050505050565b6000600160a060020a03808816835280871660208401525084604083015283606083015260a0608083015261429060a083018461405e565b979650505050505050565b600160a060020a03841681528260208201526060604082015260006142c3606083018461405e565b95945050505050565b6020808252825182820181905260009190848201906040850190845b8181101561430f576142fb8385516140d0565b9284019261020092909201916001016142e8565b50909695505050505050565b602081526000613be26020830184614023565b6040815260006143416040830185614023565b82810360208401526142c38185614023565b602081526000613be2602083018461405e565b60208082526028908201527f455243313135353a204552433131353552656365697665722072656a6563746560408201527f6420746f6b656e73000000000000000000000000000000000000000000000000606082015260800190565b60208082526016908201527f596f7520646f6e2774206f776e2074686973204e465400000000000000000000604082015260600190565b60208082526025908201527f455243313135353a207472616e7366657220746f20746865207a65726f20616460408201527f6472657373000000000000000000000000000000000000000000000000000000606082015260800190565b60208082526022908201527f596f752772652063686172616374657220697320616c7265616479207265737460408201527f6564000000000000000000000000000000000000000000000000000000000000606082015260800190565b6020808252602a908201527f455243313135353a20696e73756666696369656e742062616c616e636520666f60408201527f72207472616e7366657200000000000000000000000000000000000000000000606082015260800190565b6020808252818101527f4f776e61626c653a2063616c6c6572206973206e6f7420746865206f776e6572604082015260600190565b61020081016106dd82846140d0565b600067ffffffffffffffff82111561456f5761456f6147da565b5060209081020190565b600062ffffff80831681851680830382111561459757614597614776565b01949350505050565b600082198211156145b3576145b3614776565b500190565b600060ff821660ff84168060ff038211156145d5576145d5614776565b019392505050565b600062ffffff808416806145f3576145f361478f565b92169190910492915050565b600062ffffff8083168185168183048111821515161561462157614621614776565b02949350505050565b600062ffffff8381169083168181101561464657614646614776565b039392505050565b60008282101561466057614660614776565b500390565b60028104600182168061467957607f821691505b602082108114156131b55760e060020a634e487b7102600052602260045260246000fd5b601f8201601f1916810167ffffffffffffffff811182821017156146c3576146c36147da565b6040525050565b600061ffff808316818114156146e2576146e2614776565b6001019392505050565b600062ffffff808316818114156146e2576146e2614776565b600060001982141561471957614719614776565b5060010190565b600060ff821660ff81141561473757614737614776565b60010192915050565b600062ffffff808416806147565761475661478f565b92169190910692915050565b6000826147715761477161478f565b500690565b60e060020a634e487b7102600052601160045260246000fd5b60e060020a634e487b7102600052601260045260246000fd5b60e060020a634e487b7102600052602160045260246000fd5b60e060020a634e487b7102600052603260045260246000fd5b60e060020a634e487b7102600052604160045260246000fd5b600060033d11156148105760046000803e60e060020a6000510490505b90565b600060443d10156148215790565b6040516003193d81016004833e81513d67ffffffffffffffff816024840111818411171561485157505050505090565b82850191508151818111156148695750505050505090565b843d87010160208285010111156148835750505050505090565b6148926020828601018761469d565b509095945050505050565b80151581146110be57600080fd5b600160e060020a0319811681146110be57600080fd5b600381106110be57600080fdfea26469706673582212203f21e4fd5e7427b9b236dab58f5630a679aaece7d21888690e7401b412ff0eeb64736f6c63430008070033",
  "immutableReferences": {
    "73": [
      {
        "length": 32,
        "start": 8336
      },
      {
        "length": 32,
        "start": 9339
      },
      {
        "length": 32,
        "start": 13032
      }
    ],
    "75": [
      {
        "length": 32,
        "start": 5893
      },
      {
        "length": 32,
        "start": 13079
      }
    ]
  },
  "source": "// SPDX-License-Identifier: MIT\r\npragma solidity 0.8.7;\r\n\r\nimport \"@openzeppelin/contracts/token/ERC1155/ERC1155.sol\";\r\nimport \"@openzeppelin/contracts/access/Ownable.sol\";\r\nimport \"./RandomNumberGenerator.sol\";\r\n\r\n/** @title Unlimited Evolution */\r\ncontract UnlimitedEvolution is ERC1155, Ownable, RandomNumberGenerator {\r\n\r\n    uint8 constant BASIC_SWORD = 0; // MARKET PLACE: RENDRE SES OBJETS INVENDABLE\r\n    uint8 constant BASIC_SHIELD = 1; // MARKET PLACE: RENDRE SES OBJETS INVENDABLE\r\n    uint8 constant EXCALIBUR = 2;\r\n    uint8 constant AEGIS = 3;\r\n    uint8 constant POTION = 4;\r\n    uint24 nextId = 5;\r\n    uint24 limitMint = 4000;\r\n    uint24[] countMints = new uint8[](3);\r\n    uint256 mintFee = 0.001 ether;\r\n    uint256 stuffFee = 0.001 ether;\r\n    uint256 randomNumber;\r\n    // Only for tests, to avoid chainlink\r\n    bool public testMode;\r\n\r\n    enum type_character { BRUTE, SPIRITUAL, ELEMENTARY }\r\n    enum gender_character { MASCULINE, FEMININE, OTHER }\r\n    enum type_stuff { WEAPON, SHIELD }\r\n\r\n    struct Character {\r\n        uint24 id;\r\n        uint56 dna;\r\n        uint16 level;\r\n        uint24 xp;\r\n        uint24 hp;\r\n        uint24 stamina;\r\n        uint24 attack1;\r\n        uint24 attack2;\r\n        uint24 attack3;\r\n        uint24 attack4;\r\n        uint24 attributePoints;\r\n        uint24 weapon;\r\n        uint24 shield;\r\n        uint256 lastFight;\r\n        type_character typeCharacter;\r\n        gender_character genderCharacter;\r\n    }\r\n\r\n    struct Stuff {\r\n        uint16 id;\r\n        uint16 bonusAttack1;\r\n        uint16 bonusAttack2;\r\n        uint16 bonusAttack3;\r\n        uint16 bonusAttack4;\r\n        type_stuff typeStuff;\r\n    }\r\n\r\n    // Mapping from token ID to token details\r\n    mapping(uint24 => Character) private _characterDetails;\r\n\r\n    // Mapping from token ID to token details\r\n    mapping(uint16 => Stuff) private _stuffDetails;\r\n\r\n    // Mapping from account to his number of NFTs\r\n    mapping(address => uint8) private _balanceOfCharacters;\r\n\r\n    /**\r\n     * @dev Constructor of the contract ERC1155, mint stuff and add it to the mapping\r\n     */\r\n    constructor() ERC1155(\"\") {\r\n        _mint(msg.sender, BASIC_SWORD, 10**4, \"\");\r\n        _stuffDetails[BASIC_SWORD] = Stuff(BASIC_SWORD, 1, 1, 0, 0, type_stuff.WEAPON);\r\n        _mint(msg.sender, BASIC_SHIELD, 10**4, \"\");\r\n        _stuffDetails[BASIC_SHIELD] = Stuff(BASIC_SHIELD, 0, 0, 1, 1, type_stuff.SHIELD);\r\n        _mint(msg.sender, EXCALIBUR, 1, \"\");\r\n        _stuffDetails[EXCALIBUR] = Stuff(EXCALIBUR, 10, 10, 10, 10, type_stuff.WEAPON);\r\n        _mint(msg.sender, BASIC_SHIELD, 10**4, \"\");\r\n        _stuffDetails[AEGIS] = Stuff(AEGIS, 10, 10, 10, 10, type_stuff.SHIELD); \r\n        _mint(msg.sender, POTION, 10**5, \"\");\r\n    }\r\n\r\n    /**\r\n     * @dev Emitted when the character with \"id\" is created.\r\n     */\r\n    event CharacterCreated(uint24 id);\r\n\r\n    /**\r\n     * @dev Emitted when the character with \"id\" is rested, he recovers health points and stamina.\r\n     */\r\n    event Rested(uint24 tokenId);\r\n\r\n    /**\r\n     * @dev Emitted when the character with \"myTokenId\" removes \"substrateLifeToRival\" points of hp to \"rivalTokenId\" and the character with \"rivalTokenId\" removes \"substrateLifeToMe\" points of hp to \"myTokenId\".\r\n     */\r\n    event Fighted(uint24 myTokenId, uint24 rivalTokenId, uint256 substrateLifeToRival, uint256 substrateLifeToMe);\r\n    \r\n    /**\r\n     * @dev Emitted when the character with \"tokenId\" has gained enough experience points to increase one level.\r\n     */\r\n    event LevelUp(uint24 tokenId, uint16 level);\r\n\r\n    /**\r\n     * @dev Emitted when the owner changes the ether fee for minting, with the amount \"mintFee\".\r\n     */\r\n    event MintFeeUpdated(uint256 mintFee);\r\n\r\n    /**\r\n     * @dev Emitted when the owner changes the ether fee for buying stuff, with the amount \"stuffFee\".\r\n     */\r\n    event StuffFeeUpdated(uint256 stuffFee);\r\n\r\n    /**\r\n     * @dev Emitted when the owner changes the mintable NFT limit with the amount \"limitMint\".\r\n     */\r\n    event LimitUpdated(uint24 limitMint);\r\n\r\n    /**\r\n     * @dev Emitted when the msg.sender buy a stuff \".\r\n     */\r\n    event StuffBought(uint16 stuffId);\r\n\r\n    /**\r\n     * @dev Emitted when the msg.sender burn a potion.\r\n     */\r\n    event StuffEquiped(uint24 tokenId, uint16 stuffId);\r\n\r\n    /**\r\n     * @dev Emitted when the msg.sender burn a potion.\r\n     */\r\n    event PotionUsed(uint24 tokenId);\r\n    \r\n    /**\r\n     * @dev The function changes the ether fee for minting.\r\n     * @param _mintFee New amount of fee.\r\n     * Emits a \"MintFeeUpdated\" event.\r\n     */\r\n    function updateMintFee(uint256 _mintFee) external onlyOwner() {\r\n        mintFee = _mintFee;\r\n        emit MintFeeUpdated(mintFee);\r\n    }\r\n\r\n    /**\r\n     * @dev The function changes the ether fee for buying stuff.\r\n     * @param _stuffFee New amount of stuff fee.\r\n     * Emits a \"StuffFeeUpdated\" event.\r\n     */\r\n    function updateStuffFee(uint256 _stuffFee) external onlyOwner() {\r\n        stuffFee = _stuffFee;\r\n        emit StuffFeeUpdated(stuffFee);\r\n    }\r\n\r\n    /**\r\n     * @dev The function changes the mintable NFT limit.\r\n     * @param _limitMint New limit of mintable NFT.\r\n     * Emits a \"LimitUpdated\" event.\r\n     */\r\n    function updateLimitMint(uint24 _limitMint) external onlyOwner() {\r\n        limitMint = _limitMint;\r\n        emit LimitUpdated(limitMint);\r\n    }\r\n    \r\n    /**\r\n     * @dev Owner withdraws the entire amount of ETH.\r\n     */\r\n    function withdraw() external onlyOwner() {\r\n        payable(owner()).transfer(address(this).balance);\r\n    }\r\n\r\n    /**\r\n     * @dev Owner withdraws an amount of LINK.\r\n     * @param value Value of LINK.\r\n     */\r\n    function withdrawLINK(uint256 value) external onlyOwner {\r\n        LINK.transfer(owner(), value);\r\n    }\r\n\r\n    /**\r\n     * @dev Tip to simulate the function ownerOf of ERC721, check if msg.sender is owner of the token.\r\n     * @param _tokenId Id of the token.\r\n     * @return Boolean, true of false.\r\n     */\r\n    function _ownerOf(uint256 _tokenId) private view returns (bool) {\r\n        return balanceOf(msg.sender, _tokenId) != 0;\r\n    }\r\n\r\n    /**\r\n     * @dev The function uses the chainlink requestRandomness of VRFConsumerBase.\r\n     * @param _mod Length of number needed (modulo).\r\n     */\r\n    function _generateRandomNumber(uint256 _mod) internal {\r\n        if (!testMode) { // Only for tests, to avoid chainlink\r\n            randomNumber = uint256(getRandomNumber()) % _mod;\r\n        } else {\r\n            randomNumber = uint256(keccak256(abi.encodePacked(block.timestamp, block.difficulty, msg.sender))) % _mod;\r\n        }\r\n    }\r\n\r\n    /**\r\n     * @dev The function assigns a number between 3 and 5 randomly to the attack characteristics using \"randomNumber\".\r\n     * @return Array of number (attributes).\r\n     */\r\n    function _attributesMintDistribution() private view returns(uint8[] memory) {\r\n        uint8[] memory _attributes = new uint8[](4);\r\n        for(uint8 i=0; i<4; i++) {\r\n            _attributes[i] = 3 + uint8((randomNumber % (10+i)) % 3); // ide nft: la lose ou la win, tu obtiens 0 ou 10 points bonus\r\n        }\r\n        return _attributes;\r\n    }\r\n\r\n    /**\r\n     * @dev One experience point is added and if the experience number reaches % 10 == 0 then the NFT increases one level and gains 10 points to attribute to his stats.\r\n     * @param _tokenId Id of the token.\r\n     * Emits a \"LevelUp\" event.\r\n     */\r\n    function _xpLevelUp(uint24 _tokenId) private {\r\n        _characterDetails[_tokenId].xp++;\r\n        if (_characterDetails[_tokenId].xp % 10 == 0) {\r\n            _characterDetails[_tokenId].level++;\r\n            _characterDetails[_tokenId].attributePoints += 10;\r\n            emit LevelUp(_tokenId, _characterDetails[_tokenId].level);\r\n        }\r\n    }\r\n\r\n    /**\r\n     * @dev The function allows the allocation of \"attributePoints\" to the different characteristics.\r\n     * @param _tokenId Id of the token.\r\n     * @param _attack1 Attack number 1 of the token.\r\n     * @param _attack2 Attack number 2 of the token.\r\n     * @param _attack3 Attack number 3 of the token.\r\n     * @param _attack4 Attack number 4 of the token.\r\n     */\r\n    function attributesLevelUp(uint24 _tokenId, uint24 _attack1, uint24 _attack2, uint24 _attack3, uint24 _attack4) external {\r\n        uint256 totalPoints = _attack1 + _attack2 + _attack3 + _attack4;\r\n        require(_characterDetails[_tokenId].attributePoints == totalPoints, \"Wrong amount of points to attribute\");\r\n        // _characterDetails[_tokenId].hp += _hp * 20;\r\n        // _characterDetails[_tokenId].stamina += _stamina * 20;\r\n        _characterDetails[_tokenId].attack1 += _attack1;\r\n        _characterDetails[_tokenId].attack2 += _attack2;\r\n        _characterDetails[_tokenId].attack3 += _attack3;\r\n        _characterDetails[_tokenId].attack4 += _attack4;\r\n    }\r\n\r\n    /**\r\n     * @dev Fight algorithm: attack, defence and experience points are taken into account to determine a winner.\r\n     * @param _id1 Id of the token number 1.\r\n     * @param _id2 Id of the token number 2.\r\n     * @return Number resulting from fight operations.\r\n     */\r\n    function _substrateLife(uint24 _id1, uint24 _id2) private view returns(uint256) {\r\n        uint256 op1 = ((_characterDetails[_id1].attack1 + _characterDetails[_id1].attack2) / 2) * (1 + _characterDetails[_id1].xp);\r\n        uint256 op2 = ((_characterDetails[_id2].attack3 + _characterDetails[_id2].attack4) / 2) * ((1 + _characterDetails[_id2].xp) / 2);\r\n        if (op1 < op2) {\r\n            return 0;\r\n        } else {\r\n            return op1 - op2;\r\n        }\r\n    }\r\n\r\n    /**\r\n     * @dev The Function manages the different scenarios during a fight.\r\n     * @param _myTokenId Id of the token number 1.\r\n     * @param _rivalTokenId Id of the token number 2.\r\n     * @param _substrateLifeToRival Number of life points to remove from _rivalTokenId.\r\n     * @param _substrateLifeToMe Number of life points to remove from _myTokenId.\r\n     * Emits a \"Fighted\" event.\r\n     */\r\n    function _subtrateLifeOperation(uint24 _myTokenId, uint24 _rivalTokenId, uint256 _substrateLifeToRival, uint256 _substrateLifeToMe) private {\r\n        if(_substrateLifeToRival >= _characterDetails[_rivalTokenId].hp) {\r\n            _characterDetails[_rivalTokenId].hp = 0;\r\n            _xpLevelUp(_myTokenId);\r\n        } else {\r\n            _characterDetails[_rivalTokenId].hp = _characterDetails[_rivalTokenId].hp - uint24(_substrateLifeToRival);\r\n            if(_substrateLifeToMe >= _characterDetails[_myTokenId].hp) {\r\n                _characterDetails[_myTokenId].hp = 0;\r\n                _xpLevelUp(_rivalTokenId);\r\n            } else {\r\n                _characterDetails[_myTokenId].hp = _characterDetails[_myTokenId].hp - uint24(_substrateLifeToMe);\r\n                if (_substrateLifeToRival > _substrateLifeToMe) {\r\n                    _xpLevelUp(_myTokenId);\r\n                } else if (_substrateLifeToMe > _substrateLifeToRival) {\r\n                    _xpLevelUp(_rivalTokenId);\r\n                } else {\r\n                    _xpLevelUp(_myTokenId);\r\n                    _xpLevelUp(_rivalTokenId);\r\n                }\r\n            }\r\n        }\r\n        emit Fighted(_myTokenId, _rivalTokenId, _substrateLifeToRival, _substrateLifeToMe);\r\n    }\r\n\r\n    /**\r\n     * @dev The Function mint an NFT.\r\n     * @param _typeCharacter Type of character between BRUTE, SPIRITUAL, ELEMENTARY.\r\n     * @param _genderCharacter Gender of character between MASCULINE, FEMININE, OTHER.\r\n     * Emits a \"CharacterCreated\" event.\r\n     */\r\n    function createCharacter(type_character _typeCharacter, gender_character _genderCharacter) external payable {\r\n        require(msg.value == mintFee, \"Wrong amount of fees\");\r\n        require(_balanceOfCharacters[msg.sender] < 5, \"You can't have more than 5 NFT\");\r\n        require(countMints[uint8(_typeCharacter)] <= limitMint, \"You cannot mint more character with this class\");\r\n        _generateRandomNumber(10**16);\r\n        uint8[] memory _attributes = _attributesMintDistribution();\r\n        _characterDetails[nextId] = Character(nextId, uint56(randomNumber), 1, 1, 100, 100, _attributes[0], _attributes[1], _attributes[2], _attributes[3], 0, BASIC_SWORD, BASIC_SHIELD, block.timestamp, _typeCharacter, _genderCharacter);\r\n        _balanceOfCharacters[msg.sender]++;\r\n        countMints[uint8(_typeCharacter)]++;\r\n        safeTransferFrom(address(this), msg.sender, BASIC_SWORD, 1, \"\");\r\n        safeTransferFrom(address(this), msg.sender, BASIC_SHIELD, 1, \"\");\r\n        _mint(msg.sender, nextId, 1, \"\");\r\n        emit CharacterCreated(nextId);\r\n        nextId++;\r\n    }\r\n\r\n    /**\r\n     * @dev The function allows the NFT to recover 100 health points and 100 stamina points.\r\n     * @param _tokenId Id of the token.\r\n     * Emits a \"Rested\" event.\r\n     */\r\n    // TODO: ajouter timestamp et systme d'immobilisation, faire les tests et ajouter l'explication au fichier tests_explication\r\n    function rest(uint24 _tokenId) external {\r\n        require(_ownerOf(_tokenId), \"You don't own this NFT\");\r\n        require(_characterDetails[_tokenId].stamina < 100 && _characterDetails[_tokenId].hp < 100, \"You're character is already rested\");\r\n        // _characterDetails[_tokenId].lastRest = block.timestamp;\r\n        _characterDetails[_tokenId].stamina = 100;\r\n        _characterDetails[_tokenId].hp = 100;\r\n        emit Rested(_tokenId);\r\n    }\r\n\r\n    /**\r\n     * @dev The function allows you to use your NFT to fight with another NFT belonging to another user.\r\n     * @param _myTokenId Id of the fighter number 1.\r\n     * @param _rivalTokenId Id of the fighter number 2.\r\n     */\r\n    function fight(uint24 _myTokenId, uint24 _rivalTokenId) external {\r\n        require(_ownerOf(_myTokenId), \"You don't own this NFT\");\r\n        require(_ownerOf(_myTokenId) != _ownerOf(_rivalTokenId), \"Your NFTs cannot fight each other\");\r\n        require(_characterDetails[_myTokenId].lastFight + 60 < block.timestamp, \"To soon to fight (1 min)\");\r\n        require(_characterDetails[_myTokenId].stamina >= 10, \"Not enough stamina\");\r\n        require(_characterDetails[_myTokenId].level <= _characterDetails[_rivalTokenId].level, \"Fight someone your own size!\");\r\n        require(_characterDetails[_myTokenId].hp > 0 && _characterDetails[_rivalTokenId].hp > 0, \"One of the NFTs is dead\");\r\n\r\n        _characterDetails[_myTokenId].lastFight = block.timestamp;\r\n        uint256 _substrateLifeToRival = _substrateLife(_myTokenId, _rivalTokenId);\r\n        uint256 _substrateLifeToMe = _substrateLife(_rivalTokenId, _myTokenId);\r\n\r\n        _characterDetails[_myTokenId].stamina = _characterDetails[_myTokenId].stamina - 10;\r\n        _subtrateLifeOperation(_myTokenId, _rivalTokenId, _substrateLifeToRival, _substrateLifeToMe);\r\n    }\r\n    \r\n    /**\r\n     * @dev The function returns the characteristics of the NFT.\r\n     * @param _tokenId Id of the token.\r\n     * @return Character Details of _tokenId.\r\n     */\r\n    function getTokenDetails(uint24 _tokenId) external view returns(Character memory) {\r\n        return _characterDetails[_tokenId];\r\n    }\r\n\r\n    /**\r\n     * @dev The function returns an array with the characteristics of all my NFTs.\r\n     * @return Array of characters.\r\n     */\r\n    function getMyCharacters() external view returns (Character[] memory){\r\n        uint8 count = 0;\r\n        Character[] memory myCharacters = new Character[](_balanceOfCharacters[msg.sender]);\r\n        for (uint24 i = 0; i < nextId; i++) {\r\n            if (_ownerOf(i)) {\r\n                myCharacters[count] = _characterDetails[i];\r\n                count++;\r\n            }\r\n        }\r\n        return myCharacters;\r\n    }\r\n\r\n    /**\r\n     * @dev The function returns an array with the characteristics of all the NFTs that don't belong to me.\r\n     * @return Array of characters.\r\n     */\r\n    function getOthersCharacters() external view returns (Character[] memory){\r\n        uint24 count = 0;\r\n        Character[] memory othersCharacters = new Character[](nextId - _balanceOfCharacters[msg.sender]);\r\n        for (uint24 i = 0; i < nextId; i++) {\r\n            if (!_ownerOf(i)) {\r\n                othersCharacters[count] = _characterDetails[i];\r\n                count++;\r\n            }\r\n        }\r\n        return othersCharacters;\r\n    }\r\n\r\n    // TO TEST\r\n    /**\r\n     * @dev The function allows you to buy a stuff NFT\r\n     * @param stuffId Id of the stuff.\r\n     * Emits a \"StuffBought\" event.\r\n     */\r\n    function buyStuff(uint16 stuffId) external payable {\r\n        require(stuffId != 0 && stuffId != 1, \"You can't buy the basic stuff\");\r\n        require(balanceOf(address(this), stuffId) != 0, \"Stuff no more available\");\r\n        require(msg.value == stuffFee, \"Wrong amount of fees\");\r\n        safeTransferFrom(address(this), msg.sender, stuffId, 1, \"\");\r\n        emit StuffBought(stuffId);\r\n    }\r\n\r\n    /**\r\n     * @dev The function allows you to equip stuff to your NFT\r\n     * @param tokenId Id of the token.\r\n     * @param stuffId Id of the stuff to equip.\r\n     * Emits a \"StuffEquiped\" event.\r\n     */\r\n    function equipStuff(uint24 tokenId, uint16 stuffId) external {\r\n        require(_ownerOf(tokenId), \"You don't own this NFT\");\r\n        require(_ownerOf(stuffId), \"You don't own this weapon\");\r\n        if (_stuffDetails[stuffId].typeStuff == type_stuff.WEAPON) {\r\n            _characterDetails[tokenId].weapon = tokenId;\r\n        } else {\r\n            _characterDetails[tokenId].shield = tokenId;\r\n        }\r\n        emit StuffEquiped(tokenId, stuffId);\r\n    }\r\n\r\n    /**\r\n     * @dev The function burn a POTION and restore the hp and stamina of your NFT\r\n     * @param tokenId Id of the token.\r\n     * Emits a \"PotionUsed\" event.\r\n     */\r\n    function usePotion(uint24 tokenId) external {\r\n        require(_ownerOf(tokenId), \"You don't own this NFT\");\r\n        require(_ownerOf(POTION), \"You don't own a potion\");\r\n        require(_characterDetails[tokenId].stamina < 100 && _characterDetails[tokenId].hp < 100, \"You're character is already rested\");\r\n        _burn(msg.sender, POTION, 1);\r\n        _characterDetails[tokenId].stamina = 100;\r\n        _characterDetails[tokenId].hp = 100;\r\n        emit PotionUsed(tokenId);\r\n    }\r\n\r\n\r\n    \r\n    // ********************************** Only for TESTS **************************************\r\n\r\n    function getBalanceOfCharacters(address _address) external view returns(uint8) {\r\n        return _balanceOfCharacters[_address];\r\n    }\r\n\r\n    function testModeSwitch() external onlyOwner {\r\n        testMode = !testMode;\r\n    }\r\n\r\n    // function getAllCharacters() external view returns (Character[] memory){\r\n    //     Character[] memory allCharacters = new Character[](nextId);\r\n    //     for (uint256 i = 0; i < nextId; i++) {\r\n    //         allCharacters[i] = _characterDetails[i];\r\n    //     }\r\n    //     return allCharacters;\r\n    // }\r\n\r\n    // function getCountMints(uint8 _class) external view returns(uint24) {\r\n    //     return countMints[_class];\r\n    // }\r\n}",
  "sourcePath": "D:\\TAF\\Alyra\\ALYRA_PROJET_FINAL\\unlimited_evolution\\contracts\\UnlimitedEvolution.sol",
  "compiler": {
    "name": "solc",
    "version": "0.8.7+commit.e28d00a7.Emscripten.clang"
  },
  "schemaVersion": "3.4.3",
  "updatedAt": "2022-01-05T10:40:06.367Z",
  "networkType": "ethereum",
  "devdoc": {
    "events": {
      "CharacterCreated(uint24)": {
        "details": "Emitted when the character with \"id\" is created."
      },
      "Fighted(uint24,uint24,uint256,uint256)": {
        "details": "Emitted when the character with \"myTokenId\" removes \"substrateLifeToRival\" points of hp to \"rivalTokenId\" and the character with \"rivalTokenId\" removes \"substrateLifeToMe\" points of hp to \"myTokenId\"."
      },
      "LevelUp(uint24,uint16)": {
        "details": "Emitted when the character with \"tokenId\" has gained enough experience points to increase one level."
      },
      "LimitUpdated(uint24)": {
        "details": "Emitted when the owner changes the mintable NFT limit with the amount \"limitMint\"."
      },
      "MintFeeUpdated(uint256)": {
        "details": "Emitted when the owner changes the ether fee for minting, with the amount \"mintFee\"."
      },
      "PotionUsed(uint24)": {
        "details": "Emitted when the msg.sender burn a potion."
      },
      "Rested(uint24)": {
        "details": "Emitted when the character with \"id\" is rested, he recovers health points and stamina."
      },
      "StuffBought(uint16)": {
        "details": "Emitted when the msg.sender buy a stuff \"."
      },
      "StuffEquiped(uint24,uint16)": {
        "details": "Emitted when the msg.sender burn a potion."
      },
      "StuffFeeUpdated(uint256)": {
        "details": "Emitted when the owner changes the ether fee for buying stuff, with the amount \"stuffFee\"."
      }
    },
    "kind": "dev",
    "methods": {
      "attributesLevelUp(uint24,uint24,uint24,uint24,uint24)": {
        "details": "The function allows the allocation of \"attributePoints\" to the different characteristics.",
        "params": {
          "_attack1": "Attack number 1 of the token.",
          "_attack2": "Attack number 2 of the token.",
          "_attack3": "Attack number 3 of the token.",
          "_attack4": "Attack number 4 of the token.",
          "_tokenId": "Id of the token."
        }
      },
      "balanceOf(address,uint256)": {
        "details": "See {IERC1155-balanceOf}. Requirements: - `account` cannot be the zero address."
      },
      "balanceOfBatch(address[],uint256[])": {
        "details": "See {IERC1155-balanceOfBatch}. Requirements: - `accounts` and `ids` must have the same length."
      },
      "buyStuff(uint16)": {
        "details": "The function allows you to buy a stuff NFT",
        "params": {
          "stuffId": "Id of the stuff. Emits a \"StuffBought\" event."
        }
      },
      "constructor": {
        "details": "Constructor of the contract ERC1155, mint stuff and add it to the mapping"
      },
      "createCharacter(uint8,uint8)": {
        "details": "The Function mint an NFT.",
        "params": {
          "_genderCharacter": "Gender of character between MASCULINE, FEMININE, OTHER. Emits a \"CharacterCreated\" event.",
          "_typeCharacter": "Type of character between BRUTE, SPIRITUAL, ELEMENTARY."
        }
      },
      "equipStuff(uint24,uint16)": {
        "details": "The function allows you to equip stuff to your NFT",
        "params": {
          "stuffId": "Id of the stuff to equip. Emits a \"StuffEquiped\" event.",
          "tokenId": "Id of the token."
        }
      },
      "fight(uint24,uint24)": {
        "details": "The function allows you to use your NFT to fight with another NFT belonging to another user.",
        "params": {
          "_myTokenId": "Id of the fighter number 1.",
          "_rivalTokenId": "Id of the fighter number 2."
        }
      },
      "getMyCharacters()": {
        "details": "The function returns an array with the characteristics of all my NFTs.",
        "returns": {
          "_0": "Array of characters."
        }
      },
      "getOthersCharacters()": {
        "details": "The function returns an array with the characteristics of all the NFTs that don't belong to me.",
        "returns": {
          "_0": "Array of characters."
        }
      },
      "getTokenDetails(uint24)": {
        "details": "The function returns the characteristics of the NFT.",
        "params": {
          "_tokenId": "Id of the token."
        },
        "returns": {
          "_0": "Character Details of _tokenId."
        }
      },
      "isApprovedForAll(address,address)": {
        "details": "See {IERC1155-isApprovedForAll}."
      },
      "owner()": {
        "details": "Returns the address of the current owner."
      },
      "renounceOwnership()": {
        "details": "Leaves the contract without owner. It will not be possible to call `onlyOwner` functions anymore. Can only be called by the current owner. NOTE: Renouncing ownership will leave the contract without an owner, thereby removing any functionality that is only available to the owner."
      },
      "rest(uint24)": {
        "details": "The function allows the NFT to recover 100 health points and 100 stamina points.",
        "params": {
          "_tokenId": "Id of the token. Emits a \"Rested\" event."
        }
      },
      "safeBatchTransferFrom(address,address,uint256[],uint256[],bytes)": {
        "details": "See {IERC1155-safeBatchTransferFrom}."
      },
      "safeTransferFrom(address,address,uint256,uint256,bytes)": {
        "details": "See {IERC1155-safeTransferFrom}."
      },
      "setApprovalForAll(address,bool)": {
        "details": "See {IERC1155-setApprovalForAll}."
      },
      "supportsInterface(bytes4)": {
        "details": "See {IERC165-supportsInterface}."
      },
      "transferOwnership(address)": {
        "details": "Transfers ownership of the contract to a new account (`newOwner`). Can only be called by the current owner."
      },
      "updateLimitMint(uint24)": {
        "details": "The function changes the mintable NFT limit.",
        "params": {
          "_limitMint": "New limit of mintable NFT. Emits a \"LimitUpdated\" event."
        }
      },
      "updateMintFee(uint256)": {
        "details": "The function changes the ether fee for minting.",
        "params": {
          "_mintFee": "New amount of fee. Emits a \"MintFeeUpdated\" event."
        }
      },
      "updateStuffFee(uint256)": {
        "details": "The function changes the ether fee for buying stuff.",
        "params": {
          "_stuffFee": "New amount of stuff fee. Emits a \"StuffFeeUpdated\" event."
        }
      },
      "uri(uint256)": {
        "details": "See {IERC1155MetadataURI-uri}. This implementation returns the same URI for *all* token types. It relies on the token type ID substitution mechanism https://eips.ethereum.org/EIPS/eip-1155#metadata[defined in the EIP]. Clients calling this function must replace the `\\{id\\}` substring with the actual token type ID."
      },
      "usePotion(uint24)": {
        "details": "The function burn a POTION and restore the hp and stamina of your NFT",
        "params": {
          "tokenId": "Id of the token. Emits a \"PotionUsed\" event."
        }
      },
      "withdraw()": {
        "details": "Owner withdraws the entire amount of ETH."
      },
      "withdrawLINK(uint256)": {
        "details": "Owner withdraws an amount of LINK.",
        "params": {
          "value": "Value of LINK."
        }
      }
    },
    "title": "Unlimited Evolution ",
    "version": 1
  },
  "userdoc": {
    "kind": "user",
    "methods": {
      "getRandomNumber()": {
        "notice": "Requests randomness "
      }
    },
    "version": 1
  }
}