{
  "contractName": "UnlimitedEvolutionERC721",
  "abi": [
    {
      "inputs": [],
      "stateMutability": "nonpayable",
      "type": "constructor"
    },
    {
      "anonymous": false,
      "inputs": [
        {
          "indexed": true,
          "internalType": "address",
          "name": "owner",
          "type": "address"
        },
        {
          "indexed": true,
          "internalType": "address",
          "name": "approved",
          "type": "address"
        },
        {
          "indexed": true,
          "internalType": "uint256",
          "name": "tokenId",
          "type": "uint256"
        }
      ],
      "name": "Approval",
      "type": "event"
    },
    {
      "anonymous": false,
      "inputs": [
        {
          "indexed": true,
          "internalType": "address",
          "name": "owner",
          "type": "address"
        },
        {
          "indexed": true,
          "internalType": "address",
          "name": "operator",
          "type": "address"
        },
        {
          "indexed": false,
          "internalType": "bool",
          "name": "approved",
          "type": "bool"
        }
      ],
      "name": "ApprovalForAll",
      "type": "event"
    },
    {
      "anonymous": false,
      "inputs": [
        {
          "indexed": false,
          "internalType": "uint256",
          "name": "id",
          "type": "uint256"
        }
      ],
      "name": "CharacterCreated",
      "type": "event"
    },
    {
      "anonymous": false,
      "inputs": [
        {
          "indexed": false,
          "internalType": "uint256",
          "name": "_mintFee",
          "type": "uint256"
        },
        {
          "indexed": false,
          "internalType": "uint256",
          "name": "_healFee",
          "type": "uint256"
        },
        {
          "indexed": false,
          "internalType": "uint256",
          "name": "_fightFee",
          "type": "uint256"
        }
      ],
      "name": "FeesUpdated",
      "type": "event"
    },
    {
      "anonymous": false,
      "inputs": [
        {
          "indexed": false,
          "internalType": "uint256",
          "name": "myTokenId",
          "type": "uint256"
        },
        {
          "indexed": false,
          "internalType": "uint256",
          "name": "rivalTokenId",
          "type": "uint256"
        },
        {
          "indexed": false,
          "internalType": "uint256",
          "name": "substrateLifeToRival",
          "type": "uint256"
        },
        {
          "indexed": false,
          "internalType": "uint256",
          "name": "substrateLifeToMe",
          "type": "uint256"
        }
      ],
      "name": "Fighted",
      "type": "event"
    },
    {
      "anonymous": false,
      "inputs": [
        {
          "indexed": false,
          "internalType": "uint256",
          "name": "tokenId",
          "type": "uint256"
        }
      ],
      "name": "Healed",
      "type": "event"
    },
    {
      "anonymous": false,
      "inputs": [
        {
          "indexed": false,
          "internalType": "uint256",
          "name": "tokenId",
          "type": "uint256"
        },
        {
          "indexed": false,
          "internalType": "uint256",
          "name": "level",
          "type": "uint256"
        }
      ],
      "name": "LevelUp",
      "type": "event"
    },
    {
      "anonymous": false,
      "inputs": [
        {
          "indexed": true,
          "internalType": "address",
          "name": "previousOwner",
          "type": "address"
        },
        {
          "indexed": true,
          "internalType": "address",
          "name": "newOwner",
          "type": "address"
        }
      ],
      "name": "OwnershipTransferred",
      "type": "event"
    },
    {
      "anonymous": false,
      "inputs": [
        {
          "indexed": true,
          "internalType": "address",
          "name": "from",
          "type": "address"
        },
        {
          "indexed": true,
          "internalType": "address",
          "name": "to",
          "type": "address"
        },
        {
          "indexed": true,
          "internalType": "uint256",
          "name": "tokenId",
          "type": "uint256"
        }
      ],
      "name": "Transfer",
      "type": "event"
    },
    {
      "inputs": [
        {
          "internalType": "address",
          "name": "to",
          "type": "address"
        },
        {
          "internalType": "uint256",
          "name": "tokenId",
          "type": "uint256"
        }
      ],
      "name": "approve",
      "outputs": [],
      "stateMutability": "nonpayable",
      "type": "function"
    },
    {
      "inputs": [
        {
          "internalType": "address",
          "name": "owner",
          "type": "address"
        }
      ],
      "name": "balanceOf",
      "outputs": [
        {
          "internalType": "uint256",
          "name": "",
          "type": "uint256"
        }
      ],
      "stateMutability": "view",
      "type": "function"
    },
    {
      "inputs": [
        {
          "internalType": "uint256",
          "name": "tokenId",
          "type": "uint256"
        }
      ],
      "name": "getApproved",
      "outputs": [
        {
          "internalType": "address",
          "name": "",
          "type": "address"
        }
      ],
      "stateMutability": "view",
      "type": "function"
    },
    {
      "inputs": [
        {
          "internalType": "address",
          "name": "owner",
          "type": "address"
        },
        {
          "internalType": "address",
          "name": "operator",
          "type": "address"
        }
      ],
      "name": "isApprovedForAll",
      "outputs": [
        {
          "internalType": "bool",
          "name": "",
          "type": "bool"
        }
      ],
      "stateMutability": "view",
      "type": "function"
    },
    {
      "inputs": [],
      "name": "name",
      "outputs": [
        {
          "internalType": "string",
          "name": "",
          "type": "string"
        }
      ],
      "stateMutability": "view",
      "type": "function"
    },
    {
      "inputs": [],
      "name": "owner",
      "outputs": [
        {
          "internalType": "address",
          "name": "",
          "type": "address"
        }
      ],
      "stateMutability": "view",
      "type": "function"
    },
    {
      "inputs": [
        {
          "internalType": "uint256",
          "name": "tokenId",
          "type": "uint256"
        }
      ],
      "name": "ownerOf",
      "outputs": [
        {
          "internalType": "address",
          "name": "",
          "type": "address"
        }
      ],
      "stateMutability": "view",
      "type": "function"
    },
    {
      "inputs": [],
      "name": "renounceOwnership",
      "outputs": [],
      "stateMutability": "nonpayable",
      "type": "function"
    },
    {
      "inputs": [
        {
          "internalType": "address",
          "name": "from",
          "type": "address"
        },
        {
          "internalType": "address",
          "name": "to",
          "type": "address"
        },
        {
          "internalType": "uint256",
          "name": "tokenId",
          "type": "uint256"
        }
      ],
      "name": "safeTransferFrom",
      "outputs": [],
      "stateMutability": "nonpayable",
      "type": "function"
    },
    {
      "inputs": [
        {
          "internalType": "address",
          "name": "from",
          "type": "address"
        },
        {
          "internalType": "address",
          "name": "to",
          "type": "address"
        },
        {
          "internalType": "uint256",
          "name": "tokenId",
          "type": "uint256"
        },
        {
          "internalType": "bytes",
          "name": "_data",
          "type": "bytes"
        }
      ],
      "name": "safeTransferFrom",
      "outputs": [],
      "stateMutability": "nonpayable",
      "type": "function"
    },
    {
      "inputs": [
        {
          "internalType": "address",
          "name": "operator",
          "type": "address"
        },
        {
          "internalType": "bool",
          "name": "approved",
          "type": "bool"
        }
      ],
      "name": "setApprovalForAll",
      "outputs": [],
      "stateMutability": "nonpayable",
      "type": "function"
    },
    {
      "inputs": [
        {
          "internalType": "bytes4",
          "name": "interfaceId",
          "type": "bytes4"
        }
      ],
      "name": "supportsInterface",
      "outputs": [
        {
          "internalType": "bool",
          "name": "",
          "type": "bool"
        }
      ],
      "stateMutability": "view",
      "type": "function"
    },
    {
      "inputs": [],
      "name": "symbol",
      "outputs": [
        {
          "internalType": "string",
          "name": "",
          "type": "string"
        }
      ],
      "stateMutability": "view",
      "type": "function"
    },
    {
      "inputs": [
        {
          "internalType": "uint256",
          "name": "tokenId",
          "type": "uint256"
        }
      ],
      "name": "tokenURI",
      "outputs": [
        {
          "internalType": "string",
          "name": "",
          "type": "string"
        }
      ],
      "stateMutability": "view",
      "type": "function"
    },
    {
      "inputs": [
        {
          "internalType": "address",
          "name": "from",
          "type": "address"
        },
        {
          "internalType": "address",
          "name": "to",
          "type": "address"
        },
        {
          "internalType": "uint256",
          "name": "tokenId",
          "type": "uint256"
        }
      ],
      "name": "transferFrom",
      "outputs": [],
      "stateMutability": "nonpayable",
      "type": "function"
    },
    {
      "inputs": [
        {
          "internalType": "address",
          "name": "newOwner",
          "type": "address"
        }
      ],
      "name": "transferOwnership",
      "outputs": [],
      "stateMutability": "nonpayable",
      "type": "function"
    },
    {
      "inputs": [
        {
          "internalType": "uint256",
          "name": "_mintFee",
          "type": "uint256"
        },
        {
          "internalType": "uint256",
          "name": "_healFee",
          "type": "uint256"
        },
        {
          "internalType": "uint256",
          "name": "_fightFee",
          "type": "uint256"
        }
      ],
      "name": "updateFees",
      "outputs": [],
      "stateMutability": "nonpayable",
      "type": "function"
    },
    {
      "inputs": [],
      "name": "withdraw",
      "outputs": [],
      "stateMutability": "nonpayable",
      "type": "function"
    },
    {
      "inputs": [
        {
          "internalType": "enum UnlimitedEvolutionERC721.type_character",
          "name": "_typeCharacter",
          "type": "uint8"
        }
      ],
      "name": "createCharacter",
      "outputs": [],
      "stateMutability": "payable",
      "type": "function"
    },
    {
      "inputs": [
        {
          "internalType": "uint256",
          "name": "_tokenId",
          "type": "uint256"
        }
      ],
      "name": "heal",
      "outputs": [],
      "stateMutability": "payable",
      "type": "function"
    },
    {
      "inputs": [
        {
          "internalType": "uint256",
          "name": "_myTokenId",
          "type": "uint256"
        },
        {
          "internalType": "uint256",
          "name": "_rivalTokenId",
          "type": "uint256"
        }
      ],
      "name": "fight",
      "outputs": [],
      "stateMutability": "payable",
      "type": "function"
    },
    {
      "inputs": [
        {
          "internalType": "uint256",
          "name": "_myTokenId",
          "type": "uint256"
        },
        {
          "internalType": "uint256",
          "name": "_rivalTokenId",
          "type": "uint256"
        }
      ],
      "name": "spell",
      "outputs": [],
      "stateMutability": "payable",
      "type": "function"
    },
    {
      "inputs": [
        {
          "internalType": "uint256",
          "name": "_tokenId",
          "type": "uint256"
        }
      ],
      "name": "getTokenDetails",
      "outputs": [
        {
          "components": [
            {
              "internalType": "uint256",
              "name": "id",
              "type": "uint256"
            },
            {
              "internalType": "uint256",
              "name": "dna",
              "type": "uint256"
            },
            {
              "internalType": "uint256",
              "name": "level",
              "type": "uint256"
            },
            {
              "internalType": "uint256",
              "name": "xp",
              "type": "uint256"
            },
            {
              "internalType": "uint256",
              "name": "hp",
              "type": "uint256"
            },
            {
              "internalType": "uint256",
              "name": "mana",
              "type": "uint256"
            },
            {
              "internalType": "uint256",
              "name": "attack",
              "type": "uint256"
            },
            {
              "internalType": "uint256",
              "name": "armor",
              "type": "uint256"
            },
            {
              "internalType": "uint256",
              "name": "magicAttack",
              "type": "uint256"
            },
            {
              "internalType": "uint256",
              "name": "magicResistance",
              "type": "uint256"
            },
            {
              "internalType": "uint256",
              "name": "lastFight",
              "type": "uint256"
            },
            {
              "internalType": "uint256",
              "name": "lastHeal",
              "type": "uint256"
            },
            {
              "internalType": "enum UnlimitedEvolutionERC721.type_character",
              "name": "typeCharacter",
              "type": "uint8"
            }
          ],
          "internalType": "struct UnlimitedEvolutionERC721.Character",
          "name": "",
          "type": "tuple"
        }
      ],
      "stateMutability": "view",
      "type": "function"
    },
    {
      "inputs": [],
      "name": "getMyCharacters",
      "outputs": [
        {
          "components": [
            {
              "internalType": "uint256",
              "name": "id",
              "type": "uint256"
            },
            {
              "internalType": "uint256",
              "name": "dna",
              "type": "uint256"
            },
            {
              "internalType": "uint256",
              "name": "level",
              "type": "uint256"
            },
            {
              "internalType": "uint256",
              "name": "xp",
              "type": "uint256"
            },
            {
              "internalType": "uint256",
              "name": "hp",
              "type": "uint256"
            },
            {
              "internalType": "uint256",
              "name": "mana",
              "type": "uint256"
            },
            {
              "internalType": "uint256",
              "name": "attack",
              "type": "uint256"
            },
            {
              "internalType": "uint256",
              "name": "armor",
              "type": "uint256"
            },
            {
              "internalType": "uint256",
              "name": "magicAttack",
              "type": "uint256"
            },
            {
              "internalType": "uint256",
              "name": "magicResistance",
              "type": "uint256"
            },
            {
              "internalType": "uint256",
              "name": "lastFight",
              "type": "uint256"
            },
            {
              "internalType": "uint256",
              "name": "lastHeal",
              "type": "uint256"
            },
            {
              "internalType": "enum UnlimitedEvolutionERC721.type_character",
              "name": "typeCharacter",
              "type": "uint8"
            }
          ],
          "internalType": "struct UnlimitedEvolutionERC721.Character[]",
          "name": "",
          "type": "tuple[]"
        }
      ],
      "stateMutability": "view",
      "type": "function"
    },
    {
      "inputs": [],
      "name": "getOthersCharacters",
      "outputs": [
        {
          "components": [
            {
              "internalType": "uint256",
              "name": "id",
              "type": "uint256"
            },
            {
              "internalType": "uint256",
              "name": "dna",
              "type": "uint256"
            },
            {
              "internalType": "uint256",
              "name": "level",
              "type": "uint256"
            },
            {
              "internalType": "uint256",
              "name": "xp",
              "type": "uint256"
            },
            {
              "internalType": "uint256",
              "name": "hp",
              "type": "uint256"
            },
            {
              "internalType": "uint256",
              "name": "mana",
              "type": "uint256"
            },
            {
              "internalType": "uint256",
              "name": "attack",
              "type": "uint256"
            },
            {
              "internalType": "uint256",
              "name": "armor",
              "type": "uint256"
            },
            {
              "internalType": "uint256",
              "name": "magicAttack",
              "type": "uint256"
            },
            {
              "internalType": "uint256",
              "name": "magicResistance",
              "type": "uint256"
            },
            {
              "internalType": "uint256",
              "name": "lastFight",
              "type": "uint256"
            },
            {
              "internalType": "uint256",
              "name": "lastHeal",
              "type": "uint256"
            },
            {
              "internalType": "enum UnlimitedEvolutionERC721.type_character",
              "name": "typeCharacter",
              "type": "uint8"
            }
          ],
          "internalType": "struct UnlimitedEvolutionERC721.Character[]",
          "name": "",
          "type": "tuple[]"
        }
      ],
      "stateMutability": "view",
      "type": "function"
    }
  ],
  "bytecode": "0x608060405266038d7ea4c680006008556509184e72a0006009556509184e72a000600a553480156200003057600080fd5b50604080518082018252601881527f556e6c696d6974656445766f6c7574696f6e455243373231000000000000000060208083019182528351808501909452600384527f5545560000000000000000000000000000000000000000000000000000000000908401528151919291620000ab916000916200014c565b508051620000c19060019060208401906200014c565b505050620000f0620000e1620000f6640100000000026401000000009004565b640100000000620000fa810204565b62000248565b3390565b60068054600160a060020a03838116600160a060020a0319831681179093556040519116919082907f8be0079c531659141344cd1fd0a4f28419497f9722a3daafe3b4186f6b6457e090600090a35050565b8280546200015a90620001f2565b90600052602060002090601f0160209004810192826200017e5760008555620001c9565b82601f106200019957805160ff1916838001178555620001c9565b82800160010185558215620001c9579182015b82811115620001c9578251825591602001919060010190620001ac565b50620001d7929150620001db565b5090565b5b80821115620001d75760008155600101620001dc565b6002810460018216806200020757607f821691505b6020821081141562000242577f4e487b7100000000000000000000000000000000000000000000000000000000600052602260045260246000fd5b50919050565b61319780620002586000396000f3fe608060405260043610610183576000357c01000000000000000000000000000000000000000000000000000000009004806370a08231116100ee578063b88d4fde116100a7578063ca39e5ef11610081578063ca39e5ef1461042e578063e985e9c514610441578063f2fde38b14610461578063f37ac61c1461048157600080fd5b8063b88d4fde146103c1578063c1e03728146103e1578063c87b56dd1461040e57600080fd5b806370a0823114610318578063715018a6146103465780638da5cb5b1461035b57806395d89b4114610379578063a22cb4651461038e578063b57da3b1146103ae57600080fd5b806323b872dd1161014057806323b872dd1461026c5780633c4739d31461028c5780633ccfd60b146102ae57806342842e0e146102c35780634fb97a10146102e35780636352211e146102f857600080fd5b806301ffc9a71461018857806306fdde03146101bd578063081812fc146101df578063095ea7b3146102175780630f590e0714610239578063224290851461024c575b600080fd5b34801561019457600080fd5b506101a86101a3366004612b7d565b610494565b60405190151581526020015b60405180910390f35b3480156101c957600080fd5b506101d2610531565b6040516101b49190612dd7565b3480156101eb57600080fd5b506101ff6101fa366004612bd8565b6105c3565b604051600160a060020a0390911681526020016101b4565b34801561022357600080fd5b50610237610232366004612b53565b610671565b005b610237610247366004612bf1565b6107a9565b34801561025857600080fd5b50610237610267366004612c13565b610a7a565b34801561027857600080fd5b506102376102873660046129ff565b610afc565b34801561029857600080fd5b506102a1610b30565b6040516101b49190612d88565b3480156102ba57600080fd5b50610237610cd0565b3480156102cf57600080fd5b506102376102de3660046129ff565b610d44565b3480156102ef57600080fd5b506102a1610d5f565b34801561030457600080fd5b506101ff610313366004612bd8565b610f00565b34801561032457600080fd5b506103386103333660046129b1565b610f8e565b6040519081526020016101b4565b34801561035257600080fd5b5061023761102b565b34801561036757600080fd5b50600654600160a060020a03166101ff565b34801561038557600080fd5b506101d2611064565b34801561039a57600080fd5b506102376103a9366004612b17565b611073565b6102376103bc366004612bb7565b611082565b3480156103cd57600080fd5b506102376103dc366004612a3b565b61156a565b3480156103ed57600080fd5b506104016103fc366004612bd8565b61159f565b6040516101b49190612fa4565b34801561041a57600080fd5b506101d2610429366004612bd8565b61167c565b61023761043c366004612bf1565b611775565b34801561044d57600080fd5b506101a861045c3660046129cc565b6119ab565b34801561046d57600080fd5b5061023761047c3660046129b1565b6119d9565b61023761048f366004612bd8565b611a8e565b6000600160e060020a031982167f80ac58cd0000000000000000000000000000000000000000000000000000000014806104f75750600160e060020a031982167f5b5e139f00000000000000000000000000000000000000000000000000000000145b8061052b57507f01ffc9a700000000000000000000000000000000000000000000000000000000600160e060020a03198316145b92915050565b60606000805461054090613041565b80601f016020809104026020016040519081016040528092919081815260200182805461056c90613041565b80156105b95780601f1061058e576101008083540402835291602001916105b9565b820191906000526020600020905b81548152906001019060200180831161059c57829003601f168201915b5050505050905090565b600081815260026020526040812054600160a060020a03166106555760405160e560020a62461bcd02815260206004820152602c60248201527f4552433732313a20617070726f76656420717565727920666f72206e6f6e657860448201527f697374656e7420746f6b656e000000000000000000000000000000000000000060648201526084015b60405180910390fd5b50600090815260046020526040902054600160a060020a031690565b600061067c82610f00565b905080600160a060020a031683600160a060020a031614156107095760405160e560020a62461bcd02815260206004820152602160248201527f4552433732313a20617070726f76616c20746f2063757272656e74206f776e6560448201527f7200000000000000000000000000000000000000000000000000000000000000606482015260840161064c565b33600160a060020a0382161480610725575061072581336119ab565b61079a5760405160e560020a62461bcd02815260206004820152603860248201527f4552433732313a20617070726f76652063616c6c6572206973206e6f74206f7760448201527f6e6572206e6f7220617070726f76656420666f7220616c6c0000000000000000606482015260840161064c565b6107a48383611c93565b505050565b600a5434146107cd5760405160e560020a62461bcd02815260040161064c90612f10565b336107d783610f00565b600160a060020a0316146108005760405160e560020a62461bcd02815260040161064c90612dea565b61080981610f00565b600160a060020a031661081b83610f00565b600160a060020a031614156108455760405160e560020a62461bcd02815260040161064c90612e7e565b6000828152600b60205260409020600a0154429061086490603c612fb3565b106108b45760405160e560020a62461bcd02815260206004820152601860248201527f546f20736f6f6e20746f206669676874202831206d696e290000000000000000604482015260640161064c565b6000828152600b6020526040902060050154600a11156109195760405160e560020a62461bcd02815260206004820152601a60248201527f596f7520646f6e2774206861766520656e6f756768206d616e61000000000000604482015260640161064c565b6000818152600b60205260408082206002908101548584529190922090910154111561098a5760405160e560020a62461bcd02815260206004820152601c60248201527f466967687420736f6d656f6e6520796f7572206f776e2073697a652100000000604482015260640161064c565b6000828152600b6020526040902060040154158015906109ba57506000818152600b602052604090206004015415155b610a095760405160e560020a62461bcd02815260206004820152601760248201527f4f6e65206f6620746865204e4654732069732064656164000000000000000000604482015260640161064c565b6000828152600b6020526040812042600a90910155610a288383611d0e565b90506000610a368385611d0e565b6000858152600b6020526040902060050154909150610a5690600a611dbb565b6000858152600b6020526040902060050155610a7484848484611dc7565b50505050565b600654600160a060020a03163314610aa75760405160e560020a62461bcd02815260040161064c90612edb565b60088390556009829055600a81905560408051848152602081018490529081018290527fcf8a1e1d5f09cf3c97dbb653cd9a4d7aace9292fbc1bb8211febf2d400febbdd9060600160405180910390a1505050565b610b063382611f0b565b610b255760405160e560020a62461bcd02815260040161064c90612f47565b6107a4838383611ff6565b6060600080610b3e33610f8e565b67ffffffffffffffff811115610b5657610b56613132565b604051908082528060200260200182016040528015610b8f57816020015b610b7c61291d565b815260200190600190039081610b745790505b50905060005b600754811015610cc95733610ba982610f00565b600160a060020a03161415610cb757600b6000828152602001908152602001600020604051806101a001604052908160008201548152602001600182015481526020016002820154815260200160038201548152602001600482015481526020016005820154815260200160068201548152602001600782015481526020016008820154815260200160098201548152602001600a8201548152602001600b8201548152602001600c820160009054906101000a900460ff166002811115610c7357610c73613100565b6002811115610c8457610c84613100565b81525050828460ff1681518110610c9d57610c9d613119565b60200260200101819052508280610cb39061309a565b9350505b80610cc18161307f565b915050610b95565b5092915050565b600654600160a060020a03163314610cfd5760405160e560020a62461bcd02815260040161064c90612edb565b600654600160a060020a0316604051600160a060020a039190911690303180156108fc02916000818181858888f19350505050158015610d41573d6000803e3d6000fd5b50565b6107a48383836040518060200160405280600081525061156a565b6060600080610d79610d7033610f8e565b60075490611dbb565b67ffffffffffffffff811115610d9157610d91613132565b604051908082528060200260200182016040528015610dca57816020015b610db761291d565b815260200190600190039081610daf5790505b50905060005b600754811015610cc95733610de482610f00565b600160a060020a031614610eee57600b6000828152602001908152602001600020604051806101a001604052908160008201548152602001600182015481526020016002820154815260200160038201548152602001600482015481526020016005820154815260200160068201548152602001600782015481526020016008820154815260200160098201548152602001600a8201548152602001600b8201548152602001600c820160009054906101000a900460ff166002811115610ead57610ead613100565b6002811115610ebe57610ebe613100565b81525050828481518110610ed457610ed4613119565b60200260200101819052508280610eea9061307f565b9350505b80610ef88161307f565b915050610dd0565b600081815260026020526040812054600160a060020a03168061052b5760405160e560020a62461bcd02815260206004820152602960248201527f4552433732313a206f776e657220717565727920666f72206e6f6e657869737460448201527f656e7420746f6b656e0000000000000000000000000000000000000000000000606482015260840161064c565b6000600160a060020a03821661100f5760405160e560020a62461bcd02815260206004820152602a60248201527f4552433732313a2062616c616e636520717565727920666f7220746865207a6560448201527f726f206164647265737300000000000000000000000000000000000000000000606482015260840161064c565b50600160a060020a031660009081526003602052604090205490565b600654600160a060020a031633146110585760405160e560020a62461bcd02815260040161064c90612edb565b61106260006121d6565b565b60606001805461054090613041565b61107e338383612235565b5050565b60085434146110a65760405160e560020a62461bcd02815260040161064c90612f10565b60056110b133610f8e565b106111015760405160e560020a62461bcd02815260206004820152601e60248201527f596f752063616e27742068617665206d6f7265207468616e2035204e46540000604482015260640161064c565b6000611113662386f26fc10000612307565b9050600082600281111561112957611129613100565b141561126757604051806101a001604052806007548152602001828152602001600181526020016001815260200160648152602001600a815260200160058152602001600381526020016001815260200160018152602001428152602001428152602001600060028111156111a0576111a0613100565b815250600b60006007548152602001908152602001600020600082015181600001556020820151816001015560408201518160020155606082015181600301556080820151816004015560a0820151816005015560c0820151816006015560e082015181600701556101008201518160080155610120820151816009015561014082015181600a015561016082015181600b015561018082015181600c0160006101000a81548160ff0219169083600281111561125f5761125f613100565b021790555050505b600182600281111561127b5761127b613100565b14156113b957604051806101a0016040528060075481526020018281526020016001815260200160018152602001606481526020016064815260200160018152602001600181526020016005815260200160038152602001428152602001428152602001600160028111156112f2576112f2613100565b815250600b60006007548152602001908152602001600020600082015181600001556020820151816001015560408201518160020155606082015181600301556080820151816004015560a0820151816005015560c0820151816006015560e082015181600701556101008201518160080155610120820151816009015561014082015181600a015561016082015181600b015561018082015181600c0160006101000a81548160ff021916908360028111156113b1576113b1613100565b021790555050505b60028260028111156113cd576113cd613100565b141561150a57604051806101a001604052806007548152602001828152602001600181526020016001815260200160648152602001603281526020016002815260200160028152602001600381526020016003815260200142815260200142815260200160028081111561144357611443613100565b815250600b60006007548152602001908152602001600020600082015181600001556020820151816001015560408201518160020155606082015181600301556080820151816004015560a0820151816005015560c0820151816006015560e082015181600701556101008201518160080155610120820151816009015561014082015181600a015561016082015181600b015561018082015181600c0160006101000a81548160ff0219169083600281111561150257611502613100565b021790555050505b6115163360075461234d565b7f7f0777865312bae358531b42d9c405a59bfd31beba1973946dc0ce134cad418a60075460405161154991815260200190565b60405180910390a1600780549060006115618361307f565b91905055505050565b6115743383611f0b565b6115935760405160e560020a62461bcd02815260040161064c90612f47565b610a7484848484612367565b6115a761291d565b600b6000838152602001908152602001600020604051806101a001604052908160008201548152602001600182015481526020016002820154815260200160038201548152602001600482015481526020016005820154815260200160068201548152602001600782015481526020016008820154815260200160098201548152602001600a8201548152602001600b8201548152602001600c820160009054906101000a900460ff16600281111561166257611662613100565b600281111561167357611673613100565b90525092915050565b600081815260026020526040902054606090600160a060020a031661170c5760405160e560020a62461bcd02815260206004820152602f60248201527f4552433732314d657461646174613a2055524920717565727920666f72206e6f60448201527f6e6578697374656e7420746f6b656e0000000000000000000000000000000000606482015260840161064c565b600061172360408051602081019091526000815290565b90506000815111611743576040518060200160405280600081525061176e565b8061174d8461239d565b60405160200161175e929190612d1d565b6040516020818303038152906040525b9392505050565b600a5434146117995760405160e560020a62461bcd02815260040161064c90612f10565b336117a383610f00565b600160a060020a0316146117cc5760405160e560020a62461bcd02815260040161064c90612dea565b6117d581610f00565b600160a060020a03166117e783610f00565b600160a060020a031614156118115760405160e560020a62461bcd02815260040161064c90612e7e565b6000828152600b60205260409020600a0154429061183090603c612fb3565b106118805760405160e560020a62461bcd02815260206004820152601860248201527f546f20736f6f6e20746f206669676874202831206d696e290000000000000000604482015260640161064c565b6000818152600b6020526040808220600290810154858452919092209091015411156118f15760405160e560020a62461bcd02815260206004820152601c60248201527f466967687420736f6d656f6e6520796f7572206f776e2073697a652100000000604482015260640161064c565b6000828152600b60205260409020600401541580159061192157506000818152600b602052604090206004015415155b6119705760405160e560020a62461bcd02815260206004820152601760248201527f4f6e65206f6620746865204e4654732069732064656164000000000000000000604482015260640161064c565b6000828152600b6020526040812042600a9091015561198f83836124ee565b9050600061199d83856124ee565b9050610a7484848484611dc7565b600160a060020a03918216600090815260056020908152604080832093909416825291909152205460ff1690565b600654600160a060020a03163314611a065760405160e560020a62461bcd02815260040161064c90612edb565b600160a060020a038116611a855760405160e560020a62461bcd02815260206004820152602660248201527f4f776e61626c653a206e6577206f776e657220697320746865207a65726f206160448201527f6464726573730000000000000000000000000000000000000000000000000000606482015260840161064c565b610d41816121d6565b6009543414611ab25760405160e560020a62461bcd02815260040161064c90612f10565b33611abc82610f00565b600160a060020a031614611ae55760405160e560020a62461bcd02815260040161064c90612dea565b6000818152600b6020819052604090912001544290611b0590603c612fb3565b10611b555760405160e560020a62461bcd02815260206004820152601760248201527f546f20736f6f6e20746f206865616c202831206d696e29000000000000000000604482015260640161064c565b6000818152600b6020526040902060040154606411611bdf5760405160e560020a62461bcd02815260206004820152602260248201527f596f752772652063686172616374657220697320616c7265616479206865616c60448201527f6564000000000000000000000000000000000000000000000000000000000000606482015260840161064c565b6000818152600b602081905260408220429181019190915560040154611c0690603261256d565b90506064811115611c2c576000828152600b602052604090206064600490910155611c5c565b6000828152600b6020526040902060040154611c4990603261256d565b6000838152600b60205260409020600401555b6040518281527f8379605eab0a1d9aab85917b4375ba70864307e4d75406a1a2e05dd600c1629a9060200160405180910390a15050565b6000818152600460205260409020805473ffffffffffffffffffffffffffffffffffffffff1916600160a060020a0384169081179091558190611cd582610f00565b600160a060020a03167f8c5be1e5ebec7d5bd14f71427d1e84f3dd0314c0f7b2291e5b200ac8c7c3b92560405160405180910390a45050565b6000828152600b60205260408120600301548190611d4990611d31906001612fb3565b6000868152600b602052604090206008015490612579565b6000848152600b602052604081206003015491925090611d9390611d7b90600290611d75906001612fb3565b90612585565b6000868152600b602052604090206009015490612579565b905080821015611da85760009250505061052b565b611db28282611dbb565b9250505061052b565b600061176e8284612ffe565b6000838152600b60205260409020600401548210611dff576000838152600b6020526040812060040155611dfa84612591565b611ebd565b6000838152600b6020526040902060040154611e1b9083611dbb565b6000848152600b6020526040808220600490810193909355868252902001548110611e5b576000848152600b6020526040812060040155611dfa83612591565b6000848152600b6020526040902060040154611e779082611dbb565b6000858152600b602052604090206004015580821115611e9a57611dfa84612591565b81811115611eab57611dfa83612591565b611eb484612591565b611ebd83612591565b6040805185815260208101859052908101839052606081018290527f8c796248b1f953c9c8c0ed19eddf3a98eebe2c84390fe57e75f222dc677a14119060800160405180910390a150505050565b600081815260026020526040812054600160a060020a0316611f985760405160e560020a62461bcd02815260206004820152602c60248201527f4552433732313a206f70657261746f7220717565727920666f72206e6f6e657860448201527f697374656e7420746f6b656e0000000000000000000000000000000000000000606482015260840161064c565b6000611fa383610f00565b905080600160a060020a031684600160a060020a03161480611fde575083600160a060020a0316611fd3846105c3565b600160a060020a0316145b80611fee5750611fee81856119ab565b949350505050565b82600160a060020a031661200982610f00565b600160a060020a0316146120885760405160e560020a62461bcd02815260206004820152602960248201527f4552433732313a207472616e73666572206f6620746f6b656e2074686174206960448201527f73206e6f74206f776e0000000000000000000000000000000000000000000000606482015260840161064c565b600160a060020a0382166121065760405160e560020a62461bcd028152602060048201526024808201527f4552433732313a207472616e7366657220746f20746865207a65726f2061646460448201527f7265737300000000000000000000000000000000000000000000000000000000606482015260840161064c565b612111600082611c93565b600160a060020a038316600090815260036020526040812080546001929061213a908490612ffe565b9091555050600160a060020a0382166000908152600360205260408120805460019290612168908490612fb3565b9091555050600081815260026020526040808220805473ffffffffffffffffffffffffffffffffffffffff1916600160a060020a0386811691821790925591518493918716917fddf252ad1be2c89b69c2b068fc378daa952ba7f163c4a11628f55a4df523b3ef91a4505050565b60068054600160a060020a0383811673ffffffffffffffffffffffffffffffffffffffff19831681179093556040519116919082907f8be0079c531659141344cd1fd0a4f28419497f9722a3daafe3b4186f6b6457e090600090a35050565b81600160a060020a031683600160a060020a0316141561229a5760405160e560020a62461bcd02815260206004820152601960248201527f4552433732313a20617070726f766520746f2063616c6c657200000000000000604482015260640161064c565b600160a060020a03838116600081815260056020908152604080832094871680845294825291829020805460ff191686151590811790915591519182527f17307eab39ab6107e8899845ad3d59bd9653f200f220920489ca2b5937696c31910160405180910390a3505050565b6040805142602080830191909152336c010000000000000000000000000282840152825160348184030181526054909201909252805191012060009061176e8184612644565b61107e828260405180602001604052806000815250612650565b612372848484611ff6565b61237e84848484612686565b610a745760405160e560020a62461bcd02815260040161064c90612e21565b6060816123dd57505060408051808201909152600181527f3000000000000000000000000000000000000000000000000000000000000000602082015290565b8160005b811561240757806123f18161307f565b91506124009050600a83612fcb565b91506123e1565b60008167ffffffffffffffff81111561242257612422613132565b6040519080825280601f01601f19166020018201604052801561244c576020820181803683370190505b5090505b8415611fee57612461600183612ffe565b915061246e600a866130ba565b612479906030612fb3565b7f0100000000000000000000000000000000000000000000000000000000000000028183815181106124ad576124ad613119565b60200101907effffffffffffffffffffffffffffffffffffffffffffffffffffffffffffff1916908160001a9053506124e7600a86612fcb565b9450612450565b6000828152600b6020526040812060030154819061252990612511906001612fb3565b6000868152600b602052604090206006015490612579565b6000848152600b602052604081206003015491925090611d939061255590600290611d75906001612fb3565b6000868152600b602052604090206007015490612579565b600061176e8284612fb3565b600061176e8284612fdf565b600061176e8284612fcb565b6000818152600b602052604081206003018054916125ae8361307f565b90915550506000818152600b60205260409020600301546125d190600a906130ba565b610d41576000818152600b602052604081206002018054916125f28361307f565b90915550506000818152600b6020908152604091829020600201548251848152918201527f3b7ca85b5e3d1ebb3a81e8d9e27bfeb9ef2f447026c115421132a20b0733b73f910160405180910390a150565b600061176e82846130ba565b61265a83836127c8565b6126676000848484612686565b6107a45760405160e560020a62461bcd02815260040161064c90612e21565b6000600160a060020a0384163b156127bd576040517f150b7a02000000000000000000000000000000000000000000000000000000008152600160a060020a0385169063150b7a02906126e3903390899088908890600401612d4c565b602060405180830381600087803b1580156126fd57600080fd5b505af192505050801561272d575060408051601f3d908101601f1916820190925261272a91810190612b9a565b60015b61278a573d80801561275b576040519150601f19603f3d011682016040523d82523d6000602084013e612760565b606091505b5080516127825760405160e560020a62461bcd02815260040161064c90612e21565b805181602001fd5b600160e060020a0319167f150b7a0200000000000000000000000000000000000000000000000000000000149050611fee565b506001949350505050565b600160a060020a0382166128215760405160e560020a62461bcd02815260206004820181905260248201527f4552433732313a206d696e7420746f20746865207a65726f2061646472657373604482015260640161064c565b600081815260026020526040902054600160a060020a0316156128895760405160e560020a62461bcd02815260206004820152601c60248201527f4552433732313a20746f6b656e20616c7265616479206d696e74656400000000604482015260640161064c565b600160a060020a03821660009081526003602052604081208054600192906128b2908490612fb3565b9091555050600081815260026020526040808220805473ffffffffffffffffffffffffffffffffffffffff1916600160a060020a03861690811790915590518392907fddf252ad1be2c89b69c2b068fc378daa952ba7f163c4a11628f55a4df523b3ef908290a45050565b604051806101a001604052806000815260200160008152602001600081526020016000815260200160008152602001600081526020016000815260200160008152602001600081526020016000815260200160008152602001600081526020016000600281111561299057612990613100565b905290565b8035600160a060020a03811681146129ac57600080fd5b919050565b6000602082840312156129c357600080fd5b61176e82612995565b600080604083850312156129df57600080fd5b6129e883612995565b91506129f660208401612995565b90509250929050565b600080600060608486031215612a1457600080fd5b612a1d84612995565b9250612a2b60208501612995565b9150604084013590509250925092565b60008060008060808587031215612a5157600080fd5b612a5a85612995565b9350612a6860208601612995565b925060408501359150606085013567ffffffffffffffff80821115612a8c57600080fd5b818701915087601f830112612aa057600080fd5b813581811115612ab257612ab2613132565b604051601f8201601f19908116603f01168101908382118183101715612ada57612ada613132565b816040528281528a6020848701011115612af357600080fd5b82602086016020830137600060208483010152809550505050505092959194509250565b60008060408385031215612b2a57600080fd5b612b3383612995565b915060208301358015158114612b4857600080fd5b809150509250929050565b60008060408385031215612b6657600080fd5b612b6f83612995565b946020939093013593505050565b600060208284031215612b8f57600080fd5b813561176e8161314b565b600060208284031215612bac57600080fd5b815161176e8161314b565b600060208284031215612bc957600080fd5b81356003811061176e57600080fd5b600060208284031215612bea57600080fd5b5035919050565b60008060408385031215612c0457600080fd5b50508035926020909101359150565b600080600060608486031215612c2857600080fd5b505081359360208301359350604090920135919050565b60008151808452612c57816020860160208601613015565b601f01601f19169290920160200192915050565b60038110612c8c5760e060020a634e487b7102600052602160045260246000fd5b9052565b805182526020810151602083015260408101516040830152606081015160608301526080810151608083015260a081015160a083015260c081015160c083015260e081015160e083015261010080820151818401525061012080820151818401525061014080820151818401525061016080820151818401525061018080820151610a7482850182612c6b565b60008351612d2f818460208801613015565b835190830190612d43818360208801613015565b01949350505050565b6000600160a060020a03808716835280861660208401525083604083015260806060830152612d7e6080830184612c3f565b9695505050505050565b6020808252825182820181905260009190848201906040850190845b81811015612dcb57612db7838551612c90565b928401926101a09290920191600101612da4565b50909695505050505050565b60208152600061176e6020830184612c3f565b6020808252601f908201527f596f75277265206e6f7420746865206f776e6572206f6620746865204e465400604082015260600190565b60208082526032908201527f4552433732313a207472616e7366657220746f206e6f6e20455243373231526560408201527f63656976657220696d706c656d656e7465720000000000000000000000000000606082015260800190565b60208082526021908201527f596f7572204e4654732063616e6e6f742066696768742065616368206f74686560408201527f7200000000000000000000000000000000000000000000000000000000000000606082015260800190565b6020808252818101527f4f776e61626c653a2063616c6c6572206973206e6f7420746865206f776e6572604082015260600190565b60208082526014908201527f57726f6e6720616d6f756e74206f662066656573000000000000000000000000604082015260600190565b60208082526031908201527f4552433732313a207472616e736665722063616c6c6572206973206e6f74206f60408201527f776e6572206e6f7220617070726f766564000000000000000000000000000000606082015260800190565b6101a0810161052b8284612c90565b60008219821115612fc657612fc66130ce565b500190565b600082612fda57612fda6130e7565b500490565b6000816000190483118215151615612ff957612ff96130ce565b500290565b600082821015613010576130106130ce565b500390565b60005b83811015613030578181015183820152602001613018565b83811115610a745750506000910152565b60028104600182168061305557607f821691505b602082108114156130795760e060020a634e487b7102600052602260045260246000fd5b50919050565b6000600019821415613093576130936130ce565b5060010190565b600060ff821660ff8114156130b1576130b16130ce565b60010192915050565b6000826130c9576130c96130e7565b500690565b60e060020a634e487b7102600052601160045260246000fd5b60e060020a634e487b7102600052601260045260246000fd5b60e060020a634e487b7102600052602160045260246000fd5b60e060020a634e487b7102600052603260045260246000fd5b60e060020a634e487b7102600052604160045260246000fd5b600160e060020a031981168114610d4157600080fdfea2646970667358221220bbb2c8441a0e5add0c9f60aebd4fb2968545d87d6ee28594e106d99d143b35c264736f6c63430008070033",
  "immutableReferences": {},
  "source": "// SPDX-License-Identifier: MIT\r\npragma solidity 0.8.7;\r\n\r\nimport \"@openzeppelin/contracts/token/ERC721/ERC721.sol\";\r\nimport \"@openzeppelin/contracts/access/Ownable.sol\";\r\nimport \"@openzeppelin/contracts/utils/math/SafeMath.sol\";\r\n\r\ncontract UnlimitedEvolutionERC721 is ERC721, Ownable {\r\n\r\n    constructor() ERC721(\"UnlimitedEvolutionERC721\", \"UEV\") {}\r\n\r\n    using SafeMath for uint256;\r\n\r\n    enum type_character { BRUTE, SPIRITUAL, ELEMENTARY }\r\n    uint256 nextId;\r\n    uint256 mintFee = 0.001 ether;\r\n    uint256 healFee = 0.00001 ether;\r\n    uint256 fightFee = 0.00001 ether;\r\n\r\n    struct Character {\r\n        uint256 id;\r\n        uint256 dna;\r\n        uint256 level;\r\n        uint256 xp;\r\n        uint256 hp;\r\n        uint256 mana;\r\n        uint256 attack;\r\n        uint256 armor;\r\n        uint256 magicAttack;\r\n        uint256 magicResistance;\r\n        uint256 lastFight;\r\n        uint256 lastHeal;\r\n        type_character typeCharacter;\r\n    }\r\n\r\n    mapping(uint256 => Character) private _characterDetails;\r\n\r\n    // events\r\n    event CharacterCreated(uint256 id);\r\n    event Healed(uint256 tokenId);\r\n    event Fighted(uint256 myTokenId, uint256 rivalTokenId, uint256 substrateLifeToRival, uint256 substrateLifeToMe);\r\n    event LevelUp(uint256 tokenId, uint256 level);\r\n    event FeesUpdated(uint256 _mintFee, uint256 _healFee, uint256 _fightFee);\r\n\r\n    // Helper\r\n    function _generateRandomNum(uint256 _mod) internal view returns(uint256) {\r\n        uint256 randNum = uint256(keccak256(abi.encodePacked(block.timestamp, msg.sender)));\r\n        return randNum.mod(_mod);\r\n    }\r\n    \r\n    function updateFees(uint256 _mintFee, uint256 _healFee, uint256 _fightFee) external onlyOwner() {\r\n        mintFee = _mintFee;\r\n        healFee = _healFee;\r\n        fightFee = _fightFee;\r\n        emit FeesUpdated(mintFee, healFee, fightFee);\r\n    }\r\n    \r\n    function withdraw() external onlyOwner() {\r\n        payable(owner()).transfer(address(this).balance);\r\n    }\r\n    \r\n    function substrateLife(uint256 id1, uint256 id2) internal view returns(uint256) {\r\n        uint256 op1 = (_characterDetails[id1].attack).mul((1 + _characterDetails[id1].xp));\r\n        uint256 op2 = (_characterDetails[id2].armor).mul(((1 + _characterDetails[id2].xp).div(2)));\r\n        if (op1 < op2) {\r\n            return 0;\r\n        } else {\r\n            return op1.sub(op2);\r\n        }\r\n    }\r\n\r\n    function substrateLifeMagic(uint256 id1, uint256 id2) internal view returns(uint256) {\r\n        uint256 op1 = (_characterDetails[id1].magicAttack).mul((1 + _characterDetails[id1].xp));\r\n        uint256 op2 = (_characterDetails[id2].magicResistance).mul(((1 + _characterDetails[id2].xp).div(2)));\r\n        if (op1 < op2) {\r\n            return 0;\r\n        } else {\r\n            return op1.sub(op2);\r\n        }\r\n    }\r\n\r\n    function XpLevelUp(uint256 _tokenId) internal {\r\n        _characterDetails[_tokenId].xp++;\r\n        if (_characterDetails[_tokenId].xp % 10 == 0) {\r\n            _characterDetails[_tokenId].level++;\r\n            emit LevelUp(_tokenId, _characterDetails[_tokenId].level);\r\n        }\r\n    }\r\n\r\n    function sustrateLifeOperation(uint256 _myTokenId, uint256 _rivalTokenId, uint256 substrateLifeToRival, uint256 substrateLifeToMe) internal {\r\n        if(substrateLifeToRival >= _characterDetails[_rivalTokenId].hp) {\r\n            _characterDetails[_rivalTokenId].hp = 0;\r\n            XpLevelUp(_myTokenId);\r\n        } else {\r\n            _characterDetails[_rivalTokenId].hp = (_characterDetails[_rivalTokenId].hp).sub(substrateLifeToRival);\r\n            if(substrateLifeToMe >= _characterDetails[_myTokenId].hp) {\r\n                _characterDetails[_myTokenId].hp = 0;\r\n                XpLevelUp(_rivalTokenId);\r\n            } else {\r\n                _characterDetails[_myTokenId].hp = (_characterDetails[_myTokenId].hp).sub(substrateLifeToMe);\r\n                if (substrateLifeToRival > substrateLifeToMe) {\r\n                    XpLevelUp(_myTokenId);\r\n                } else if (substrateLifeToMe > substrateLifeToRival) {\r\n                    XpLevelUp(_rivalTokenId);\r\n                } else {\r\n                    XpLevelUp(_myTokenId);\r\n                    XpLevelUp(_rivalTokenId);\r\n                }\r\n            }\r\n        }\r\n        emit Fighted(_myTokenId, _rivalTokenId, substrateLifeToRival, substrateLifeToMe);\r\n    }\r\n\r\n    function createCharacter(type_character _typeCharacter) external payable {\r\n        require(msg.value == mintFee, \"Wrong amount of fees\");\r\n        require(balanceOf(msg.sender) < 5, \"You can't have more than 5 NFT\");\r\n        uint256 dna = _generateRandomNum(10**16);\r\n        if (_typeCharacter == type_character.BRUTE) {\r\n            _characterDetails[nextId] = Character(nextId, dna, 1, 1, 100, 10, 5, 3, 1, 1, block.timestamp, block.timestamp, type_character.BRUTE);\r\n        }\r\n        if (_typeCharacter == type_character.SPIRITUAL) {\r\n            _characterDetails[nextId] = Character(nextId, dna, 1, 1, 100, 100, 1, 1, 5, 3, block.timestamp, block.timestamp, type_character.SPIRITUAL);\r\n        }\r\n        if (_typeCharacter == type_character.ELEMENTARY) {\r\n            _characterDetails[nextId] = Character(nextId, dna, 1, 1, 100, 50, 2, 2, 3, 3, block.timestamp, block.timestamp, type_character.ELEMENTARY);\r\n        }\r\n        _safeMint(msg.sender, nextId);\r\n        emit CharacterCreated(nextId);\r\n        nextId++;\r\n    }\r\n\r\n    function heal(uint256 _tokenId) external payable {\r\n        require(msg.value == healFee, \"Wrong amount of fees\");\r\n        require(ownerOf(_tokenId) == msg.sender, \"You're not the owner of the NFT\");\r\n        require(_characterDetails[_tokenId].lastHeal + 60 < block.timestamp, \"To soon to heal (1 min)\");\r\n        require(_characterDetails[_tokenId].hp < 100, \"You're character is already healed\");\r\n        // require(_characterDetails[_tokenId].hp > 0, \"You're NFT is dead\");\r\n        _characterDetails[_tokenId].lastHeal = block.timestamp;\r\n        uint256 tempResult = (_characterDetails[_tokenId].hp).add(50);\r\n        if (tempResult > 100) {\r\n            _characterDetails[_tokenId].hp = 100;\r\n        } else {\r\n            _characterDetails[_tokenId].hp = (_characterDetails[_tokenId].hp).add(50);\r\n        }\r\n        emit Healed(_tokenId);\r\n    }\r\n\r\n    function fight(uint256 _myTokenId, uint256 _rivalTokenId) external payable {\r\n        require(msg.value == fightFee, \"Wrong amount of fees\");\r\n        require(ownerOf(_myTokenId) == msg.sender, \"You're not the owner of the NFT\");\r\n        require(ownerOf(_myTokenId) != ownerOf(_rivalTokenId), \"Your NFTs cannot fight each other\");\r\n        require(_characterDetails[_myTokenId].lastFight + 60 < block.timestamp, \"To soon to fight (1 min)\");\r\n        require(_characterDetails[_myTokenId].level <= _characterDetails[_rivalTokenId].level, \"Fight someone your own size!\");\r\n        require(_characterDetails[_myTokenId].hp > 0 && _characterDetails[_rivalTokenId].hp > 0, \"One of the NFTs is dead\");\r\n\r\n        _characterDetails[_myTokenId].lastFight = block.timestamp;\r\n        uint256 substrateLifeToRival = substrateLife(_myTokenId, _rivalTokenId);\r\n        uint256 substrateLifeToMe = substrateLife(_rivalTokenId, _myTokenId);\r\n\r\n        sustrateLifeOperation(_myTokenId, _rivalTokenId, substrateLifeToRival, substrateLifeToMe);\r\n    }\r\n\r\n    function spell(uint256 _myTokenId, uint256 _rivalTokenId) external payable {\r\n        require(msg.value == fightFee, \"Wrong amount of fees\");\r\n        require(ownerOf(_myTokenId) == msg.sender, \"You're not the owner of the NFT\");\r\n        require(ownerOf(_myTokenId) != ownerOf(_rivalTokenId), \"Your NFTs cannot fight each other\");\r\n        require(_characterDetails[_myTokenId].lastFight + 60 < block.timestamp, \"To soon to fight (1 min)\");\r\n        require(_characterDetails[_myTokenId].mana >= 10, \"You don't have enough mana\");\r\n        require(_characterDetails[_myTokenId].level <= _characterDetails[_rivalTokenId].level, \"Fight someone your own size!\");\r\n        require(_characterDetails[_myTokenId].hp > 0 && _characterDetails[_rivalTokenId].hp > 0, \"One of the NFTs is dead\");\r\n\r\n        _characterDetails[_myTokenId].lastFight = block.timestamp;\r\n        uint256 substrateLifeToRival = substrateLifeMagic(_myTokenId, _rivalTokenId);\r\n        uint256 substrateLifeToMe = substrateLifeMagic(_rivalTokenId, _myTokenId);\r\n\r\n        _characterDetails[_myTokenId].mana = (_characterDetails[_myTokenId].mana).sub(10);\r\n        sustrateLifeOperation(_myTokenId, _rivalTokenId, substrateLifeToRival, substrateLifeToMe);\r\n    }\r\n\r\n    // Getters\r\n    function getTokenDetails(uint256 _tokenId) external view returns(Character memory) {\r\n        return _characterDetails[_tokenId];\r\n    }\r\n\r\n    function getMyCharacters() external view returns (Character[] memory){\r\n        uint8 count = 0;\r\n        Character[] memory myCharacters = new Character[](balanceOf(msg.sender));\r\n        for (uint256 i = 0; i < nextId; i++) {\r\n            if (ownerOf(i) == msg.sender) {\r\n                myCharacters[count] = _characterDetails[i];\r\n                count++;\r\n            }\r\n        }\r\n        return myCharacters;\r\n    }\r\n\r\n    function getOthersCharacters() external view returns (Character[] memory){\r\n        uint256 count = 0;\r\n        Character[] memory othersCharacters = new Character[](nextId.sub(balanceOf(msg.sender)));\r\n        for (uint256 i = 0; i < nextId; i++) {\r\n            if (ownerOf(i) != msg.sender) {\r\n                othersCharacters[count] = _characterDetails[i];\r\n                count++;\r\n            }\r\n        }\r\n        return othersCharacters;\r\n    }\r\n    \r\n    // // only for TESTS getAllCharacters\r\n    // function getAllCharacters() external view returns (Character[] memory){\r\n    //     Character[] memory allCharacters = new Character[](nextId);\r\n    //     for (uint256 i = 0; i < nextId; i++) {\r\n    //         allCharacters[i] = _characterDetails[i];\r\n    //     }\r\n    //     return allCharacters;\r\n    // }\r\n}\r\n",
  "sourcePath": "D:\\TAF\\Alyra\\ALYRA_PROJET_FINAL\\unlimited_evolution\\contracts\\UnlimitedEvolutionERC721.sol",
  "compiler": {
    "name": "solc",
    "version": "0.8.7+commit.e28d00a7.Emscripten.clang"
  },
  "schemaVersion": "3.4.3",
  "updatedAt": "2022-01-09T15:59:14.597Z",
  "devdoc": {
    "kind": "dev",
    "methods": {
      "approve(address,uint256)": {
        "details": "See {IERC721-approve}."
      },
      "balanceOf(address)": {
        "details": "See {IERC721-balanceOf}."
      },
      "getApproved(uint256)": {
        "details": "See {IERC721-getApproved}."
      },
      "isApprovedForAll(address,address)": {
        "details": "See {IERC721-isApprovedForAll}."
      },
      "name()": {
        "details": "See {IERC721Metadata-name}."
      },
      "owner()": {
        "details": "Returns the address of the current owner."
      },
      "ownerOf(uint256)": {
        "details": "See {IERC721-ownerOf}."
      },
      "renounceOwnership()": {
        "details": "Leaves the contract without owner. It will not be possible to call `onlyOwner` functions anymore. Can only be called by the current owner. NOTE: Renouncing ownership will leave the contract without an owner, thereby removing any functionality that is only available to the owner."
      },
      "safeTransferFrom(address,address,uint256)": {
        "details": "See {IERC721-safeTransferFrom}."
      },
      "safeTransferFrom(address,address,uint256,bytes)": {
        "details": "See {IERC721-safeTransferFrom}."
      },
      "setApprovalForAll(address,bool)": {
        "details": "See {IERC721-setApprovalForAll}."
      },
      "supportsInterface(bytes4)": {
        "details": "See {IERC165-supportsInterface}."
      },
      "symbol()": {
        "details": "See {IERC721Metadata-symbol}."
      },
      "tokenURI(uint256)": {
        "details": "See {IERC721Metadata-tokenURI}."
      },
      "transferFrom(address,address,uint256)": {
        "details": "See {IERC721-transferFrom}."
      },
      "transferOwnership(address)": {
        "details": "Transfers ownership of the contract to a new account (`newOwner`). Can only be called by the current owner."
      }
    },
    "version": 1
  },
  "userdoc": {
    "kind": "user",
    "methods": {},
    "version": 1
  }
}