{
  "contractName": "UnlimitedEvolution",
  "abi": [
    {
      "inputs": [],
      "stateMutability": "nonpayable",
      "type": "constructor"
    },
    {
      "anonymous": false,
      "inputs": [
        {
          "indexed": true,
          "internalType": "address",
          "name": "account",
          "type": "address"
        },
        {
          "indexed": true,
          "internalType": "address",
          "name": "operator",
          "type": "address"
        },
        {
          "indexed": false,
          "internalType": "bool",
          "name": "approved",
          "type": "bool"
        }
      ],
      "name": "ApprovalForAll",
      "type": "event"
    },
    {
      "anonymous": false,
      "inputs": [
        {
          "indexed": false,
          "internalType": "uint256",
          "name": "id",
          "type": "uint256"
        }
      ],
      "name": "CharacterCreated",
      "type": "event"
    },
    {
      "anonymous": false,
      "inputs": [
        {
          "indexed": false,
          "internalType": "uint256",
          "name": "mintFee",
          "type": "uint256"
        }
      ],
      "name": "FeeUpdated",
      "type": "event"
    },
    {
      "anonymous": false,
      "inputs": [
        {
          "indexed": false,
          "internalType": "uint256",
          "name": "myTokenId",
          "type": "uint256"
        },
        {
          "indexed": false,
          "internalType": "uint256",
          "name": "rivalTokenId",
          "type": "uint256"
        },
        {
          "indexed": false,
          "internalType": "uint256",
          "name": "substrateLifeToRival",
          "type": "uint256"
        },
        {
          "indexed": false,
          "internalType": "uint256",
          "name": "substrateLifeToMe",
          "type": "uint256"
        }
      ],
      "name": "Fighted",
      "type": "event"
    },
    {
      "anonymous": false,
      "inputs": [
        {
          "indexed": false,
          "internalType": "uint256",
          "name": "tokenId",
          "type": "uint256"
        },
        {
          "indexed": false,
          "internalType": "uint256",
          "name": "level",
          "type": "uint256"
        }
      ],
      "name": "LevelUp",
      "type": "event"
    },
    {
      "anonymous": false,
      "inputs": [
        {
          "indexed": false,
          "internalType": "uint256",
          "name": "limitMint",
          "type": "uint256"
        }
      ],
      "name": "LimitUpdated",
      "type": "event"
    },
    {
      "anonymous": false,
      "inputs": [
        {
          "indexed": true,
          "internalType": "address",
          "name": "previousOwner",
          "type": "address"
        },
        {
          "indexed": true,
          "internalType": "address",
          "name": "newOwner",
          "type": "address"
        }
      ],
      "name": "OwnershipTransferred",
      "type": "event"
    },
    {
      "anonymous": false,
      "inputs": [
        {
          "indexed": false,
          "internalType": "uint256",
          "name": "tokenId",
          "type": "uint256"
        }
      ],
      "name": "Rested",
      "type": "event"
    },
    {
      "anonymous": false,
      "inputs": [
        {
          "indexed": true,
          "internalType": "address",
          "name": "operator",
          "type": "address"
        },
        {
          "indexed": true,
          "internalType": "address",
          "name": "from",
          "type": "address"
        },
        {
          "indexed": true,
          "internalType": "address",
          "name": "to",
          "type": "address"
        },
        {
          "indexed": false,
          "internalType": "uint256[]",
          "name": "ids",
          "type": "uint256[]"
        },
        {
          "indexed": false,
          "internalType": "uint256[]",
          "name": "values",
          "type": "uint256[]"
        }
      ],
      "name": "TransferBatch",
      "type": "event"
    },
    {
      "anonymous": false,
      "inputs": [
        {
          "indexed": true,
          "internalType": "address",
          "name": "operator",
          "type": "address"
        },
        {
          "indexed": true,
          "internalType": "address",
          "name": "from",
          "type": "address"
        },
        {
          "indexed": true,
          "internalType": "address",
          "name": "to",
          "type": "address"
        },
        {
          "indexed": false,
          "internalType": "uint256",
          "name": "id",
          "type": "uint256"
        },
        {
          "indexed": false,
          "internalType": "uint256",
          "name": "value",
          "type": "uint256"
        }
      ],
      "name": "TransferSingle",
      "type": "event"
    },
    {
      "anonymous": false,
      "inputs": [
        {
          "indexed": false,
          "internalType": "string",
          "name": "value",
          "type": "string"
        },
        {
          "indexed": true,
          "internalType": "uint256",
          "name": "id",
          "type": "uint256"
        }
      ],
      "name": "URI",
      "type": "event"
    },
    {
      "inputs": [
        {
          "internalType": "address",
          "name": "account",
          "type": "address"
        },
        {
          "internalType": "uint256",
          "name": "id",
          "type": "uint256"
        }
      ],
      "name": "balanceOf",
      "outputs": [
        {
          "internalType": "uint256",
          "name": "",
          "type": "uint256"
        }
      ],
      "stateMutability": "view",
      "type": "function",
      "constant": true
    },
    {
      "inputs": [
        {
          "internalType": "address[]",
          "name": "accounts",
          "type": "address[]"
        },
        {
          "internalType": "uint256[]",
          "name": "ids",
          "type": "uint256[]"
        }
      ],
      "name": "balanceOfBatch",
      "outputs": [
        {
          "internalType": "uint256[]",
          "name": "",
          "type": "uint256[]"
        }
      ],
      "stateMutability": "view",
      "type": "function",
      "constant": true
    },
    {
      "inputs": [
        {
          "internalType": "address",
          "name": "account",
          "type": "address"
        },
        {
          "internalType": "address",
          "name": "operator",
          "type": "address"
        }
      ],
      "name": "isApprovedForAll",
      "outputs": [
        {
          "internalType": "bool",
          "name": "",
          "type": "bool"
        }
      ],
      "stateMutability": "view",
      "type": "function",
      "constant": true
    },
    {
      "inputs": [],
      "name": "owner",
      "outputs": [
        {
          "internalType": "address",
          "name": "",
          "type": "address"
        }
      ],
      "stateMutability": "view",
      "type": "function",
      "constant": true
    },
    {
      "inputs": [],
      "name": "renounceOwnership",
      "outputs": [],
      "stateMutability": "nonpayable",
      "type": "function"
    },
    {
      "inputs": [
        {
          "internalType": "address",
          "name": "from",
          "type": "address"
        },
        {
          "internalType": "address",
          "name": "to",
          "type": "address"
        },
        {
          "internalType": "uint256[]",
          "name": "ids",
          "type": "uint256[]"
        },
        {
          "internalType": "uint256[]",
          "name": "amounts",
          "type": "uint256[]"
        },
        {
          "internalType": "bytes",
          "name": "data",
          "type": "bytes"
        }
      ],
      "name": "safeBatchTransferFrom",
      "outputs": [],
      "stateMutability": "nonpayable",
      "type": "function"
    },
    {
      "inputs": [
        {
          "internalType": "address",
          "name": "from",
          "type": "address"
        },
        {
          "internalType": "address",
          "name": "to",
          "type": "address"
        },
        {
          "internalType": "uint256",
          "name": "id",
          "type": "uint256"
        },
        {
          "internalType": "uint256",
          "name": "amount",
          "type": "uint256"
        },
        {
          "internalType": "bytes",
          "name": "data",
          "type": "bytes"
        }
      ],
      "name": "safeTransferFrom",
      "outputs": [],
      "stateMutability": "nonpayable",
      "type": "function"
    },
    {
      "inputs": [
        {
          "internalType": "address",
          "name": "operator",
          "type": "address"
        },
        {
          "internalType": "bool",
          "name": "approved",
          "type": "bool"
        }
      ],
      "name": "setApprovalForAll",
      "outputs": [],
      "stateMutability": "nonpayable",
      "type": "function"
    },
    {
      "inputs": [
        {
          "internalType": "bytes4",
          "name": "interfaceId",
          "type": "bytes4"
        }
      ],
      "name": "supportsInterface",
      "outputs": [
        {
          "internalType": "bool",
          "name": "",
          "type": "bool"
        }
      ],
      "stateMutability": "view",
      "type": "function",
      "constant": true
    },
    {
      "inputs": [
        {
          "internalType": "address",
          "name": "newOwner",
          "type": "address"
        }
      ],
      "name": "transferOwnership",
      "outputs": [],
      "stateMutability": "nonpayable",
      "type": "function"
    },
    {
      "inputs": [
        {
          "internalType": "uint256",
          "name": "",
          "type": "uint256"
        }
      ],
      "name": "uri",
      "outputs": [
        {
          "internalType": "string",
          "name": "",
          "type": "string"
        }
      ],
      "stateMutability": "view",
      "type": "function",
      "constant": true
    },
    {
      "inputs": [
        {
          "internalType": "string",
          "name": "newuri",
          "type": "string"
        }
      ],
      "name": "setURI",
      "outputs": [],
      "stateMutability": "nonpayable",
      "type": "function"
    },
    {
      "inputs": [
        {
          "internalType": "uint256",
          "name": "_mintFee",
          "type": "uint256"
        }
      ],
      "name": "updateFee",
      "outputs": [],
      "stateMutability": "nonpayable",
      "type": "function"
    },
    {
      "inputs": [
        {
          "internalType": "uint24",
          "name": "_limitMint",
          "type": "uint24"
        }
      ],
      "name": "updateLimitMint",
      "outputs": [],
      "stateMutability": "nonpayable",
      "type": "function"
    },
    {
      "inputs": [],
      "name": "withdraw",
      "outputs": [],
      "stateMutability": "nonpayable",
      "type": "function"
    },
    {
      "inputs": [],
      "name": "_attributesDistribution",
      "outputs": [
        {
          "internalType": "uint8[]",
          "name": "",
          "type": "uint8[]"
        }
      ],
      "stateMutability": "view",
      "type": "function",
      "constant": true
    },
    {
      "inputs": [
        {
          "internalType": "enum UnlimitedEvolution.type_character",
          "name": "_typeCharacter",
          "type": "uint8"
        },
        {
          "internalType": "enum UnlimitedEvolution.gender_character",
          "name": "_genderCharacter",
          "type": "uint8"
        }
      ],
      "name": "createCharacter",
      "outputs": [],
      "stateMutability": "payable",
      "type": "function",
      "payable": true
    },
    {
      "inputs": [
        {
          "internalType": "uint256",
          "name": "_tokenId",
          "type": "uint256"
        }
      ],
      "name": "rest",
      "outputs": [],
      "stateMutability": "payable",
      "type": "function",
      "payable": true
    },
    {
      "inputs": [
        {
          "internalType": "uint256",
          "name": "_myTokenId",
          "type": "uint256"
        },
        {
          "internalType": "uint256",
          "name": "_rivalTokenId",
          "type": "uint256"
        }
      ],
      "name": "fight",
      "outputs": [],
      "stateMutability": "payable",
      "type": "function",
      "payable": true
    },
    {
      "inputs": [
        {
          "internalType": "uint256",
          "name": "_tokenId",
          "type": "uint256"
        }
      ],
      "name": "getTokenDetails",
      "outputs": [
        {
          "components": [
            {
              "internalType": "uint24",
              "name": "id",
              "type": "uint24"
            },
            {
              "internalType": "uint56",
              "name": "dna",
              "type": "uint56"
            },
            {
              "internalType": "uint16",
              "name": "level",
              "type": "uint16"
            },
            {
              "internalType": "uint24",
              "name": "xp",
              "type": "uint24"
            },
            {
              "internalType": "uint24",
              "name": "hp",
              "type": "uint24"
            },
            {
              "internalType": "uint24",
              "name": "stamina",
              "type": "uint24"
            },
            {
              "internalType": "uint24",
              "name": "attack",
              "type": "uint24"
            },
            {
              "internalType": "uint24",
              "name": "armor",
              "type": "uint24"
            },
            {
              "internalType": "uint24",
              "name": "attack1",
              "type": "uint24"
            },
            {
              "internalType": "uint24",
              "name": "attack2",
              "type": "uint24"
            },
            {
              "internalType": "uint24",
              "name": "attack3",
              "type": "uint24"
            },
            {
              "internalType": "uint24",
              "name": "attack4",
              "type": "uint24"
            },
            {
              "internalType": "uint256",
              "name": "lastFight",
              "type": "uint256"
            },
            {
              "internalType": "enum UnlimitedEvolution.type_character",
              "name": "typeCharacter",
              "type": "uint8"
            },
            {
              "internalType": "enum UnlimitedEvolution.gender_character",
              "name": "genderCharacter",
              "type": "uint8"
            }
          ],
          "internalType": "struct UnlimitedEvolution.Character",
          "name": "",
          "type": "tuple"
        }
      ],
      "stateMutability": "view",
      "type": "function",
      "constant": true
    },
    {
      "inputs": [],
      "name": "getMyCharacters",
      "outputs": [
        {
          "components": [
            {
              "internalType": "uint24",
              "name": "id",
              "type": "uint24"
            },
            {
              "internalType": "uint56",
              "name": "dna",
              "type": "uint56"
            },
            {
              "internalType": "uint16",
              "name": "level",
              "type": "uint16"
            },
            {
              "internalType": "uint24",
              "name": "xp",
              "type": "uint24"
            },
            {
              "internalType": "uint24",
              "name": "hp",
              "type": "uint24"
            },
            {
              "internalType": "uint24",
              "name": "stamina",
              "type": "uint24"
            },
            {
              "internalType": "uint24",
              "name": "attack",
              "type": "uint24"
            },
            {
              "internalType": "uint24",
              "name": "armor",
              "type": "uint24"
            },
            {
              "internalType": "uint24",
              "name": "attack1",
              "type": "uint24"
            },
            {
              "internalType": "uint24",
              "name": "attack2",
              "type": "uint24"
            },
            {
              "internalType": "uint24",
              "name": "attack3",
              "type": "uint24"
            },
            {
              "internalType": "uint24",
              "name": "attack4",
              "type": "uint24"
            },
            {
              "internalType": "uint256",
              "name": "lastFight",
              "type": "uint256"
            },
            {
              "internalType": "enum UnlimitedEvolution.type_character",
              "name": "typeCharacter",
              "type": "uint8"
            },
            {
              "internalType": "enum UnlimitedEvolution.gender_character",
              "name": "genderCharacter",
              "type": "uint8"
            }
          ],
          "internalType": "struct UnlimitedEvolution.Character[]",
          "name": "",
          "type": "tuple[]"
        }
      ],
      "stateMutability": "view",
      "type": "function",
      "constant": true
    },
    {
      "inputs": [],
      "name": "getOthersCharacters",
      "outputs": [
        {
          "components": [
            {
              "internalType": "uint24",
              "name": "id",
              "type": "uint24"
            },
            {
              "internalType": "uint56",
              "name": "dna",
              "type": "uint56"
            },
            {
              "internalType": "uint16",
              "name": "level",
              "type": "uint16"
            },
            {
              "internalType": "uint24",
              "name": "xp",
              "type": "uint24"
            },
            {
              "internalType": "uint24",
              "name": "hp",
              "type": "uint24"
            },
            {
              "internalType": "uint24",
              "name": "stamina",
              "type": "uint24"
            },
            {
              "internalType": "uint24",
              "name": "attack",
              "type": "uint24"
            },
            {
              "internalType": "uint24",
              "name": "armor",
              "type": "uint24"
            },
            {
              "internalType": "uint24",
              "name": "attack1",
              "type": "uint24"
            },
            {
              "internalType": "uint24",
              "name": "attack2",
              "type": "uint24"
            },
            {
              "internalType": "uint24",
              "name": "attack3",
              "type": "uint24"
            },
            {
              "internalType": "uint24",
              "name": "attack4",
              "type": "uint24"
            },
            {
              "internalType": "uint256",
              "name": "lastFight",
              "type": "uint256"
            },
            {
              "internalType": "enum UnlimitedEvolution.type_character",
              "name": "typeCharacter",
              "type": "uint8"
            },
            {
              "internalType": "enum UnlimitedEvolution.gender_character",
              "name": "genderCharacter",
              "type": "uint8"
            }
          ],
          "internalType": "struct UnlimitedEvolution.Character[]",
          "name": "",
          "type": "tuple[]"
        }
      ],
      "stateMutability": "view",
      "type": "function",
      "constant": true
    },
    {
      "inputs": [
        {
          "internalType": "address",
          "name": "_address",
          "type": "address"
        }
      ],
      "name": "getBalanceOfCharacters",
      "outputs": [
        {
          "internalType": "uint8",
          "name": "",
          "type": "uint8"
        }
      ],
      "stateMutability": "view",
      "type": "function",
      "constant": true
    },
    {
      "inputs": [
        {
          "internalType": "uint8",
          "name": "_class",
          "type": "uint8"
        }
      ],
      "name": "getCountMints",
      "outputs": [
        {
          "internalType": "uint24",
          "name": "",
          "type": "uint24"
        }
      ],
      "stateMutability": "view",
      "type": "function",
      "constant": true
    }
  ],
  "bytecode": "0x66038d7ea4c680006004556005805465ffffff0000001916640fa0000000179055600360808181526101006040529060a0606080368337505081516200004d9260069250602001906200011b565b503480156200005b57600080fd5b506040805160208101909152600081526200007f81640100000000620000ac810204565b50620000a662000097640100000000620000c5810204565b640100000000620000c9810204565b620002b6565b8051620000c1906002906020840190620001cc565b5050565b3390565b60038054600160a060020a03838116600160a060020a0319831681179093556040519116919082907f8be0079c531659141344cd1fd0a4f28419497f9722a3daafe3b4186f6b6457e090600090a35050565b82805482825590600052602060002090600901600a90048101928215620001ba5791602002820160005b838211156200018757835183826101000a81548162ffffff021916908360ff160217905550926020019260030160208160020104928301926001030262000145565b8015620001b85782816101000a81549062ffffff021916905560030160208160020104928301926001030262000187565b505b50620001c892915062000249565b5090565b828054620001da9062000260565b90600052602060002090601f016020900481019282620001fe5760008555620001ba565b82601f106200021957805160ff1916838001178555620001ba565b82800160010185558215620001ba579182015b82811115620001ba5782518255916020019190600101906200022c565b5b80821115620001c857600081556001016200024a565b6002810460018216806200027557607f821691505b60208210811415620002b0577f4e487b7100000000000000000000000000000000000000000000000000000000600052602260045260246000fd5b50919050565b6139c080620002c66000396000f3fe608060405260043610610167576000357c0100000000000000000000000000000000000000000000000000000000900480636e8eb222116100d3578063b5214a081161008c578063b5214a0814610408578063c1e037281461041b578063ca39e5ef14610448578063e985e9c51461045b578063f242432a146104a4578063f2fde38b146104c457600080fd5b80636e8eb22214610358578063715018a61461036b5780638acf59f2146103805780638da5cb5b146103a05780639012c4a8146103c8578063a22cb465146103e857600080fd5b80632e7007d4116101255780632e7007d41461029d5780632eb2c2d6146102bf5780633c4739d3146102df5780633ccfd60b146103015780634e1273f4146103165780634fb97a101461034357600080fd5b8062fdd58e1461016c57806301ffc9a71461019f57806302fe5305146101cf5780630e89341c146101f15780630fb220931461021e5780632723c0de14610252575b600080fd5b34801561017857600080fd5b5061018c610187366004612cc9565b6104e4565b6040519081526020015b60405180910390f35b3480156101ab57600080fd5b506101bf6101ba366004612d09565b610593565b6040519015158152602001610196565b3480156101db57600080fd5b506101ef6101ea366004612dca565b61062e565b005b3480156101fd57600080fd5b5061021161020c366004612e1b565b610667565b6040516101969190612e81565b34801561022a57600080fd5b5061023e610239366004612e94565b6106fb565b60405162ffffff9091168152602001610196565b34801561025e57600080fd5b5061028b61026d366004612eb7565b600160a060020a031660009081526008602052604090205460ff1690565b60405160ff9091168152602001610196565b3480156102a957600080fd5b506102b261073f565b6040516101969190612ed2565b3480156102cb57600080fd5b506101ef6102da366004612fcb565b6107ca565b3480156102eb57600080fd5b506102f461086f565b60405161019691906131d0565b34801561030d57600080fd5b506101ef610acd565b34801561032257600080fd5b50610336610331366004613213565b610b3e565b6040516101969190613316565b34801561034f57600080fd5b506102f4610c7f565b6101ef610366366004612e1b565b610ee9565b34801561037757600080fd5b506101ef61104c565b34801561038c57600080fd5b506101ef61039b366004613329565b611085565b3480156103ac57600080fd5b50600354604051600160a060020a039091168152602001610196565b3480156103d457600080fd5b506101ef6103e3366004612e1b565b611107565b3480156103f457600080fd5b506101ef61040336600461334e565b611169565b6101ef610416366004613397565b611178565b34801561042757600080fd5b5061043b610436366004612e1b565b6117fc565b60405161019691906133c5565b6101ef6104563660046133d4565b611992565b34801561046757600080fd5b506101bf6104763660046133f6565b600160a060020a03918216600090815260016020908152604080832093909416825291909152205460ff1690565b3480156104b057600080fd5b506101ef6104bf366004613429565b611d0e565b3480156104d057600080fd5b506101ef6104df366004612eb7565b611dac565b6000600160a060020a03831661056a5760405160e560020a62461bcd02815260206004820152602b60248201527f455243313135353a2062616c616e636520717565727920666f7220746865207a60448201527f65726f206164647265737300000000000000000000000000000000000000000060648201526084015b60405180910390fd5b50600081815260208181526040808320600160a060020a03861684529091529020545b92915050565b6000600160e060020a031982167fd9b67a260000000000000000000000000000000000000000000000000000000014806105f65750600160e060020a031982167f0e89341c00000000000000000000000000000000000000000000000000000000145b8061058d57507f01ffc9a700000000000000000000000000000000000000000000000000000000600160e060020a031983161461058d565b600354600160a060020a0316331461065b5760405160e560020a62461bcd0281526004016105619061348e565b61066481611e61565b50565b606060028054610676906134c3565b80601f01602080910402602001604051908101604052809291908181526020018280546106a2906134c3565b80156106ef5780601f106106c4576101008083540402835291602001916106ef565b820191906000526020600020905b8154815290600101906020018083116106d257829003601f168201915b50505050509050919050565b600060068260ff1681548110610713576107136134fb565b90600052602060002090600a91828204019190066003029054906101000a900462ffffff169050919050565b60408051600480825260a08201909252606091600091906020820160808036833701905050905060005b60048160ff1610156107c457610780600382611e74565b61078b90600361352d565b828260ff16815181106107a0576107a06134fb565b60ff90921660209283029190910190910152806107bc81613552565b915050610769565b50919050565b600160a060020a0385163314806107e657506107e68533610476565b61085b5760405160e560020a62461bcd02815260206004820152603260248201527f455243313135353a207472616e736665722063616c6c6572206973206e6f742060448201527f6f776e6572206e6f7220617070726f76656400000000000000000000000000006064820152608401610561565b6108688585858585611ef4565b5050505050565b3360009081526008602052604081205460609190819060ff1667ffffffffffffffff8111156108a0576108a0612d26565b6040519080825280602002602001820160405280156108d957816020015b6108c6612b99565b8152602001906001900390816108be5790505b50905060005b60055462ffffff16811015610ac6576108f7816120ef565b15610ab45760008181526007602090815260409182902082516101e081018452815462ffffff8082168352630100000080830466ffffffffffffff16958401959095526a0100000000000000000000820461ffff16958301959095526c01000000000000000000000000810485166060830152607860020a810485166080830152609060020a8104851660a083015275010000000000000000000000000000000000000000008104851660c083015260c060020a8104851660e08301527b010000000000000000000000000000000000000000000000000000009004841661010082015260018201548085166101208301529283048416610140820152660100000000000090920490921661016082015260028083015461018083015260038301549192916101a084019160ff90911690811115610a3757610a37613075565b6002811115610a4857610a48613075565b81526020016003820160019054906101000a900460ff166002811115610a7057610a70613075565b6002811115610a8157610a81613075565b81525050828460ff1681518110610a9a57610a9a6134fb565b60200260200101819052508280610ab090613552565b9350505b80610abe81613572565b9150506108df565b5092915050565b600354600160a060020a03163314610afa5760405160e560020a62461bcd0281526004016105619061348e565b600354600160a060020a0316604051600160a060020a039190911690303180156108fc02916000818181858888f19350505050158015610664573d6000803e3d6000fd5b60608151835114610bba5760405160e560020a62461bcd02815260206004820152602960248201527f455243313135353a206163636f756e747320616e6420696473206c656e67746860448201527f206d69736d6174636800000000000000000000000000000000000000000000006064820152608401610561565b6000835167ffffffffffffffff811115610bd657610bd6612d26565b604051908082528060200260200182016040528015610bff578160200160208202803683370190505b50905060005b8451811015610c7757610c4a858281518110610c2357610c236134fb565b6020026020010151858381518110610c3d57610c3d6134fb565b60200260200101516104e4565b828281518110610c5c57610c5c6134fb565b6020908102919091010152610c7081613572565b9050610c05565b509392505050565b33600090815260086020526040812054600554606092918291610caa9160ff169062ffffff1661358d565b62ffffff1667ffffffffffffffff811115610cc757610cc7612d26565b604051908082528060200260200182016040528015610d0057816020015b610ced612b99565b815260200190600190039081610ce55790505b50905060005b60055462ffffff16811015610ac657610d1e816120ef565b610ed75760008181526007602090815260409182902082516101e081018452815462ffffff8082168352630100000080830466ffffffffffffff16958401959095526a0100000000000000000000820461ffff16958301959095526c01000000000000000000000000810485166060830152607860020a810485166080830152609060020a8104851660a083015275010000000000000000000000000000000000000000008104851660c083015260c060020a8104851660e08301527b010000000000000000000000000000000000000000000000000000009004841661010082015260018201548085166101208301529283048416610140820152660100000000000090920490921661016082015260028083015461018083015260038301549192916101a084019160ff90911690811115610e5d57610e5d613075565b6002811115610e6e57610e6e613075565b81526020016003820160019054906101000a900460ff166002811115610e9657610e96613075565b6002811115610ea757610ea7613075565b81525050828481518110610ebd57610ebd6134fb565b60200260200101819052508280610ed390613572565b9350505b80610ee181613572565b915050610d06565b610ef2816120ef565b610f415760405160e560020a62461bcd02815260206004820152601f60248201527f596f75277265206e6f7420746865206f776e6572206f6620746865204e4654006044820152606401610561565b6000818152600760205260409020546064609060020a90910462ffffff1610610fd55760405160e560020a62461bcd02815260206004820152602260248201527f596f752772652063686172616374657220697320616c7265616479207265737460448201527f65640000000000000000000000000000000000000000000000000000000000006064820152608401610561565b600081815260076020908152604091829020805474ffffff0000000000000000000000000000000000001916726400000000000000000000000000000000000017905590518281527f0a6cdc448db9889012c5e9b19cbf91c821ef49c37d804cfd15bb70665768e38a91015b60405180910390a150565b600354600160a060020a031633146110795760405160e560020a62461bcd0281526004016105619061348e565b6110836000612103565b565b600354600160a060020a031633146110b25760405160e560020a62461bcd0281526004016105619061348e565b6005805465ffffff0000001916630100000062ffffff8481168202929092179283905560405192041681527f824bdce4cbdec6e790596be3c1ac027ebd2747f3b4f72e8e9b50a9ce5479fe4090602001611041565b600354600160a060020a031633146111345760405160e560020a62461bcd0281526004016105619061348e565b60048190556040518181527f8c4d35e54a3f2ef1134138fd8ea3daee6a3c89e10d2665996babdf70261e2c7690602001611041565b611174338383612162565b5050565b60045434146111cc5760405160e560020a62461bcd02815260206004820152601460248201527f57726f6e6720616d6f756e74206f6620666565730000000000000000000000006044820152606401610561565b33600090815260086020526040902054600560ff909116106112335760405160e560020a62461bcd02815260206004820152601e60248201527f596f752063616e27742068617665206d6f7265207468616e2035204e465400006044820152606401610561565b6005546301000000900462ffffff16600683600281111561125657611256613075565b60ff1681548110611269576112696134fb565b90600052602060002090600a91828204019190066003029054906101000a900462ffffff1662ffffff16111561130a5760405160e560020a62461bcd02815260206004820152602e60248201527f596f752063616e6e6f74206d696e74206d6f726520636861726163746572207760448201527f697468207468697320636c6173730000000000000000000000000000000000006064820152608401610561565b600061131461073f565b604080516101e0810190915260055462ffffff16815290915060208101611343662386f26fc100006001611e74565b66ffffffffffffff16815260016020820181905260408201526064606082018190526080820152600560a0820152600360c0820152825160e0909101908390600090611391576113916134fb565b602002602001015160ff1662ffffff168152602001826001815181106113b9576113b96134fb565b602002602001015160ff1662ffffff168152602001826002815181106113e1576113e16134fb565b602002602001015160ff1662ffffff16815260200182600381518110611409576114096134fb565b602002602001015160ff1662ffffff16815260200142815260200184600281111561143657611436613075565b815260200183600281111561144d5761144d613075565b81525060076000600560009054906101000a900462ffffff1662ffffff16815260200190815260200160002060008201518160000160006101000a81548162ffffff021916908362ffffff16021790555060208201518160000160036101000a81548166ffffffffffffff021916908366ffffffffffffff160217905550604082015181600001600a6101000a81548161ffff021916908361ffff160217905550606082015181600001600c6101000a81548162ffffff021916908362ffffff160217905550608082015181600001600f6101000a81548162ffffff021916908362ffffff16021790555060a08201518160000160126101000a81548162ffffff021916908362ffffff16021790555060c08201518160000160156101000a81548162ffffff021916908362ffffff16021790555060e08201518160000160186101000a81548162ffffff021916908362ffffff16021790555061010082015181600001601b6101000a81548162ffffff021916908362ffffff1602179055506101208201518160010160006101000a81548162ffffff021916908362ffffff1602179055506101408201518160010160036101000a81548162ffffff021916908362ffffff1602179055506101608201518160010160066101000a81548162ffffff021916908362ffffff16021790555061018082015181600201556101a08201518160030160006101000a81548160ff0219169083600281111561167557611675613075565b02179055506101c082015160038201805461ff0019166101008360028111156116a0576116a0613075565b021790555050336000908152600860205260408120805460ff169250906116c683613552565b91906101000a81548160ff021916908360ff1602179055505060068360028111156116f3576116f3613075565b60ff1681548110611706576117066134fb565b90600052602060002090600a918282040191900660030281819054906101000a900462ffffff168092919061173a906135b1565b91906101000a81548162ffffff021916908362ffffff1602179055505061178933600560009054906101000a900462ffffff1662ffffff1660016040518060200160405280600081525061225a565b60055460405162ffffff90911681527f7f0777865312bae358531b42d9c405a59bfd31beba1973946dc0ce134cad418a9060200160405180910390a16005805462ffffff169060006117da836135b1565b91906101000a81548162ffffff021916908362ffffff16021790555050505050565b611804612b99565b60008281526007602090815260409182902082516101e081018452815462ffffff8082168352630100000080830466ffffffffffffff16958401959095526a0100000000000000000000820461ffff16958301959095526c01000000000000000000000000810485166060830152607860020a810485166080830152609060020a8104851660a083015275010000000000000000000000000000000000000000008104851660c083015260c060020a8104851660e08301527b010000000000000000000000000000000000000000000000000000009004841661010082015260018201548085166101208301529283048416610140820152660100000000000090920490921661016082015260028083015461018083015260038301549192916101a084019160ff9091169081111561193f5761193f613075565b600281111561195057611950613075565b81526020016003820160019054906101000a900460ff16600281111561197857611978613075565b600281111561198957611989613075565b90525092915050565b61199b826120ef565b6119ea5760405160e560020a62461bcd02815260206004820152601f60248201527f596f75277265206e6f7420746865206f776e6572206f6620746865204e4654006044820152606401610561565b6119f3816120ef565b15156119fe836120ef565b15151415611a775760405160e560020a62461bcd02815260206004820152602160248201527f596f7572204e4654732063616e6e6f742066696768742065616368206f74686560448201527f72000000000000000000000000000000000000000000000000000000000000006064820152608401610561565b6000828152600760205260409020600201544290611a9690603c6135d4565b10611ae65760405160e560020a62461bcd02815260206004820152601860248201527f546f20736f6f6e20746f206669676874202831206d696e2900000000000000006044820152606401610561565b600082815260076020526040902054600a609060020a90910462ffffff161015611b555760405160e560020a62461bcd02815260206004820152601260248201527f4e6f7420656e6f756768207374616d696e6100000000000000000000000000006044820152606401610561565b6000818152600760205260408082205484835291205461ffff6a010000000000000000000092839004811692909104161115611bd65760405160e560020a62461bcd02815260206004820152601c60248201527f466967687420736f6d656f6e6520796f7572206f776e2073697a6521000000006044820152606401610561565b600082815260076020526040902054607860020a900462ffffff1615801590611c185750600081815260076020526040902054607860020a900462ffffff1615155b611c675760405160e560020a62461bcd02815260206004820152601760248201527f4f6e65206f6620746865204e46547320697320646561640000000000000000006044820152606401610561565b600082815260076020526040812042600290910155611c868383612383565b90506000611c948385612383565b600085815260076020526040902054909150611cbe90600a90609060020a900462ffffff1661358d565b6000858152600760205260409020805462ffffff92909216609060020a0274ffffff00000000000000000000000000000000000019909216919091179055611d088484848461247b565b50505050565b600160a060020a038516331480611d2a5750611d2a8533610476565b611d9f5760405160e560020a62461bcd02815260206004820152602960248201527f455243313135353a2063616c6c6572206973206e6f74206f776e6572206e6f7260448201527f20617070726f76656400000000000000000000000000000000000000000000006064820152608401610561565b6108688585858585612653565b600354600160a060020a03163314611dd95760405160e560020a62461bcd0281526004016105619061348e565b600160a060020a038116611e585760405160e560020a62461bcd02815260206004820152602660248201527f4f776e61626c653a206e6577206f776e657220697320746865207a65726f206160448201527f64647265737300000000000000000000000000000000000000000000000000006064820152608401610561565b61066481612103565b8051611174906002906020840190612c14565b6040517f010000000000000000000000000000000000000000000000000000000000000060ff83160260208201524260218201524460418201526c0100000000000000000000000033026061820152600090839060750160408051601f198184030181529190528051602090910120611eed9190613605565b9392505050565b8151835114611f6e5760405160e560020a62461bcd02815260206004820152602860248201527f455243313135353a2069647320616e6420616d6f756e7473206c656e6774682060448201527f6d69736d617463680000000000000000000000000000000000000000000000006064820152608401610561565b600160a060020a038416611f975760405160e560020a62461bcd02815260040161056190613619565b3360005b8451811015612081576000858281518110611fb857611fb86134fb565b602002602001015190506000858381518110611fd657611fd66134fb565b60209081029190910181015160008481528083526040808220600160a060020a038e1683529093529190912054909150818110156120295760405160e560020a62461bcd02815260040161056190613676565b600083815260208181526040808320600160a060020a038e8116855292528083208585039055908b168252812080548492906120669084906135d4565b925050819055505050508061207a90613572565b9050611f9b565b5084600160a060020a031686600160a060020a031682600160a060020a03167f4a39dc06d4c0dbc64b70af90fd698a233a518aa5d07e595d983b8c0526c8f7fb87876040516120d19291906136d3565b60405180910390a46120e7818787878787612776565b505050505050565b60006120fb33836104e4565b151592915050565b60038054600160a060020a0383811673ffffffffffffffffffffffffffffffffffffffff19831681179093556040519116919082907f8be0079c531659141344cd1fd0a4f28419497f9722a3daafe3b4186f6b6457e090600090a35050565b81600160a060020a031683600160a060020a031614156121ed5760405160e560020a62461bcd02815260206004820152602960248201527f455243313135353a2073657474696e6720617070726f76616c2073746174757360448201527f20666f722073656c6600000000000000000000000000000000000000000000006064820152608401610561565b600160a060020a03838116600081815260016020908152604080832094871680845294825291829020805460ff191686151590811790915591519182527f17307eab39ab6107e8899845ad3d59bd9653f200f220920489ca2b5937696c31910160405180910390a3505050565b600160a060020a0384166122d95760405160e560020a62461bcd02815260206004820152602160248201527f455243313135353a206d696e7420746f20746865207a65726f2061646472657360448201527f73000000000000000000000000000000000000000000000000000000000000006064820152608401610561565b336122f3816000876122ea88612916565b61086888612916565b600084815260208181526040808320600160a060020a0389168452909152812080548592906123239084906135d4565b90915550506040805185815260208101859052600160a060020a0380881692600092918516917fc3d58168c5ae7397731d063d5bbf3d657854427343f4c083240f7aacaa2d0f62910160405180910390a461086881600087878787612961565b60008281526007602052604081205481906123ee906123b8906c01000000000000000000000000900462ffffff166001613701565b6000868152600760205260409020547501000000000000000000000000000000000000000000900462ffffff9081169116612a51565b60008481526007602052604081205491925090612453906124329060029061242c906c01000000000000000000000000900462ffffff1660016135d4565b90612a5d565b60008681526007602052604090205460c060020a900462ffffff1690612a51565b9050808210156124685760009250505061058d565b6124728282612a69565b9250505061058d565b600083815260076020526040902054607860020a900462ffffff1682106124d1576000838152600760205260409020805471ffffff000000000000000000000000000000191690556124cc84612a75565b612605565b6000838152600760205260409020546124f7908390607860020a900462ffffff1661358d565b600084815260076020526040808220805471ffffff0000000000000000000000000000001916607860020a62ffffff95861681029190911790915587835291205404168110612570576000848152600760205260409020805471ffffff000000000000000000000000000000191690556124cc83612a75565b600084815260076020526040902054612596908290607860020a900462ffffff1661358d565b6000858152600760205260409020805462ffffff92909216607860020a0271ffffff00000000000000000000000000000019909216919091179055808211156125e2576124cc84612a75565b818111156125f3576124cc83612a75565b6125fc84612a75565b61260583612a75565b6040805185815260208101859052908101839052606081018290527f8c796248b1f953c9c8c0ed19eddf3a98eebe2c84390fe57e75f222dc677a14119060800160405180910390a150505050565b600160a060020a03841661267c5760405160e560020a62461bcd02815260040161056190613619565b3361268c8187876122ea88612916565b600084815260208181526040808320600160a060020a038a168452909152902054838110156126d05760405160e560020a62461bcd02815260040161056190613676565b600085815260208181526040808320600160a060020a038b811685529252808320878503905590881682528120805486929061270d9084906135d4565b90915550506040805186815260208101869052600160a060020a03808916928a821692918616917fc3d58168c5ae7397731d063d5bbf3d657854427343f4c083240f7aacaa2d0f62910160405180910390a461276d828888888888612961565b50505050505050565b600160a060020a0384163b156120e7576040517fbc197c81000000000000000000000000000000000000000000000000000000008152600160a060020a0385169063bc197c81906127d39089908990889088908890600401613728565b6020604051808303816000875af192505050801561280e575060408051601f3d908101601f1916820190925261280b91810190613786565b60015b6128ca5761281a6137a3565b806308c379a01415612857575061282f6137dc565b8061283a5750612859565b8060405160e560020a62461bcd0281526004016105619190612e81565b505b60405160e560020a62461bcd02815260206004820152603460248201527f455243313135353a207472616e7366657220746f206e6f6e204552433131353560448201527f526563656976657220696d706c656d656e7465720000000000000000000000006064820152608401610561565b600160e060020a031981167fbc197c81000000000000000000000000000000000000000000000000000000001461276d5760405160e560020a62461bcd02815260040161056190613866565b60408051600180825281830190925260609160009190602080830190803683370190505090508281600081518110612950576129506134fb565b602090810291909101015292915050565b600160a060020a0384163b156120e7576040517ff23a6e61000000000000000000000000000000000000000000000000000000008152600160a060020a0385169063f23a6e61906129be90899089908890889088906004016138c3565b6020604051808303816000875af19250505080156129f9575060408051601f3d908101601f191682019092526129f691810190613786565b60015b612a055761281a6137a3565b600160e060020a031981167ff23a6e61000000000000000000000000000000000000000000000000000000001461276d5760405160e560020a62461bcd02815260040161056190613866565b6000611eed8284613906565b6000611eed8284613925565b6000611eed8284613939565b600081815260076020526040902080546c01000000000000000000000000900462ffffff1690600c612aa6836135b1565b82546101009290920a62ffffff818102199093169183160217909155600083815260076020526040902054612af09250600a916c0100000000000000000000000090910416613950565b62ffffff1661066457600081815260076020526040902080546a0100000000000000000000900461ffff1690600a612b2783613972565b82546101009290920a61ffff8181021990931691831602179091556000838152600760209081526040918290205482518681526a0100000000000000000000909104909316908301527f3b7ca85b5e3d1ebb3a81e8d9e27bfeb9ef2f447026c115421132a20b0733b73f925001611041565b604080516101e081018252600080825260208201819052918101829052606081018290526080810182905260a0810182905260c0810182905260e0810182905261010081018290526101208101829052610140810182905261016081018290526101808101829052906101a082019081526020016000905290565b828054612c20906134c3565b90600052602060002090601f016020900481019282612c425760008555612c88565b82601f10612c5b57805160ff1916838001178555612c88565b82800160010185558215612c88579182015b82811115612c88578251825591602001919060010190612c6d565b50612c94929150612c98565b5090565b5b80821115612c945760008155600101612c99565b8035600160a060020a0381168114612cc457600080fd5b919050565b60008060408385031215612cdc57600080fd5b612ce583612cad565b946020939093013593505050565b600160e060020a03198116811461066457600080fd5b600060208284031215612d1b57600080fd5b8135611eed81612cf3565b60e060020a634e487b7102600052604160045260246000fd5b601f8201601f1916810167ffffffffffffffff81118282101715612d6557612d65612d26565b6040525050565b600067ffffffffffffffff831115612d8657612d86612d26565b604051612d9d601f8501601f191660200182612d3f565b809150838152848484011115612db257600080fd5b83836020830137600060208583010152509392505050565b600060208284031215612ddc57600080fd5b813567ffffffffffffffff811115612df357600080fd5b8201601f81018413612e0457600080fd5b612e1384823560208401612d6c565b949350505050565b600060208284031215612e2d57600080fd5b5035919050565b6000815180845260005b81811015612e5a57602081850181015186830182015201612e3e565b81811115612e6c576000602083870101525b50601f01601f19169290920160200192915050565b602081526000611eed6020830184612e34565b600060208284031215612ea657600080fd5b813560ff81168114611eed57600080fd5b600060208284031215612ec957600080fd5b611eed82612cad565b6020808252825182820181905260009190848201906040850190845b81811015612f0d57835160ff1683529284019291840191600101612eee565b50909695505050505050565b600067ffffffffffffffff821115612f3357612f33612d26565b5060209081020190565b600082601f830112612f4e57600080fd5b81356020612f5b82612f19565b604051612f688282612d3f565b8381529282028501820192828101915086841115612f8557600080fd5b8286015b84811015612fa05780358352918301918301612f89565b509695505050505050565b600082601f830112612fbc57600080fd5b611eed83833560208501612d6c565b600080600080600060a08688031215612fe357600080fd5b612fec86612cad565b9450612ffa60208701612cad565b9350604086013567ffffffffffffffff8082111561301757600080fd5b61302389838a01612f3d565b9450606088013591508082111561303957600080fd5b61304589838a01612f3d565b9350608088013591508082111561305b57600080fd5b5061306888828901612fab565b9150509295509295909350565b60e060020a634e487b7102600052602160045260246000fd5b600381106130af5760e060020a634e487b7102600052602160045260246000fd5b9052565b805162ffffff16825260208101516130d6602084018266ffffffffffffff169052565b5060408101516130ec604084018261ffff169052565b506060810151613103606084018262ffffff169052565b50608081015161311a608084018262ffffff169052565b5060a081015161313160a084018262ffffff169052565b5060c081015161314860c084018262ffffff169052565b5060e081015161315f60e084018262ffffff169052565b506101008181015162ffffff908116918401919091526101208083015182169084015261014080830151821690840152610160808301519091169083015261018080820151908301526101a0808201516131bb8285018261308e565b50506101c080820151611d088285018261308e565b6020808252825182820181905260009190848201906040850190845b81811015612f0d576131ff8385516130b3565b928401926101e092909201916001016131ec565b6000806040838503121561322657600080fd5b823567ffffffffffffffff8082111561323e57600080fd5b818501915085601f83011261325257600080fd5b8135602061325f82612f19565b60405161326c8282612d3f565b838152928202850182019282810191508984111561328957600080fd5b948201945b838610156132ae5761329f86612cad565b8252948201949082019061328e565b965050860135925050808211156132c457600080fd5b506132d185828601612f3d565b9150509250929050565b600081518084526020808501945080840160005b8381101561330b578151875295820195908201906001016132ef565b509495945050505050565b602081526000611eed60208301846132db565b60006020828403121561333b57600080fd5b813562ffffff81168114611eed57600080fd5b6000806040838503121561336157600080fd5b61336a83612cad565b91506020830135801515811461337f57600080fd5b809150509250929050565b6003811061066457600080fd5b600080604083850312156133aa57600080fd5b82356133b58161338a565b9150602083013561337f8161338a565b6101e0810161058d82846130b3565b600080604083850312156133e757600080fd5b50508035926020909101359150565b6000806040838503121561340957600080fd5b61341283612cad565b915061342060208401612cad565b90509250929050565b600080600080600060a0868803121561344157600080fd5b61344a86612cad565b945061345860208701612cad565b93506040860135925060608601359150608086013567ffffffffffffffff81111561348257600080fd5b61306888828901612fab565b6020808252818101527f4f776e61626c653a2063616c6c6572206973206e6f7420746865206f776e6572604082015260600190565b6002810460018216806134d757607f821691505b602082108114156107c45760e060020a634e487b7102600052602260045260246000fd5b60e060020a634e487b7102600052603260045260246000fd5b60e060020a634e487b7102600052601160045260246000fd5b600060ff821660ff84168060ff0382111561354a5761354a613514565b019392505050565b600060ff821660ff81141561356957613569613514565b60010192915050565b600060001982141561358657613586613514565b5060010190565b600062ffffff838116908316818110156135a9576135a9613514565b039392505050565b600062ffffff808316818114156135ca576135ca613514565b6001019392505050565b600082198211156135e7576135e7613514565b500190565b60e060020a634e487b7102600052601260045260246000fd5b600082613614576136146135ec565b500690565b60208082526025908201527f455243313135353a207472616e7366657220746f20746865207a65726f20616460408201527f6472657373000000000000000000000000000000000000000000000000000000606082015260800190565b6020808252602a908201527f455243313135353a20696e73756666696369656e742062616c616e636520666f60408201527f72207472616e7366657200000000000000000000000000000000000000000000606082015260800190565b6040815260006136e660408301856132db565b82810360208401526136f881856132db565b95945050505050565b600062ffffff80831681851680830382111561371f5761371f613514565b01949350505050565b6000600160a060020a03808816835280871660208401525060a0604083015261375460a08301866132db565b828103606084015261376681866132db565b9050828103608084015261377a8185612e34565b98975050505050505050565b60006020828403121561379857600080fd5b8151611eed81612cf3565b600060033d11156137d95760046000803e7c01000000000000000000000000000000000000000000000000000000006000510490505b90565b600060443d10156137ea5790565b6040516003193d81016004833e81513d67ffffffffffffffff816024840111818411171561381a57505050505090565b82850191508151818111156138325750505050505090565b843d870101602082850101111561384c5750505050505090565b61385b60208286010187612d3f565b509095945050505050565b60208082526028908201527f455243313135353a204552433131353552656365697665722072656a6563746560408201527f6420746f6b656e73000000000000000000000000000000000000000000000000606082015260800190565b6000600160a060020a03808816835280871660208401525084604083015283606083015260a060808301526138fb60a0830184612e34565b979650505050505050565b600081600019048311821515161561392057613920613514565b500290565b600082613934576139346135ec565b500490565b60008282101561394b5761394b613514565b500390565b600062ffffff80841680613966576139666135ec565b92169190910692915050565b600061ffff808316818114156135ca576135ca61351456fea2646970667358221220c74c9f17e4e61c64436d8f09761688d8693649659f2bb03e63f2c4759932690364736f6c634300080b0033",
  "immutableReferences": {},
  "source": "// SPDX-License-Identifier: MIT\r\npragma solidity 0.8.11;\r\n\r\nimport \"@openzeppelin/contracts/token/ERC1155/ERC1155.sol\";\r\nimport \"@openzeppelin/contracts/access/Ownable.sol\";\r\nimport \"@openzeppelin/contracts/utils/math/SafeMath.sol\";\r\n\r\ncontract UnlimitedEvolution is ERC1155, Ownable {\r\n\r\n    constructor() ERC1155(\"\") {}\r\n\r\n    function setURI(string memory newuri) external onlyOwner {\r\n        _setURI(newuri);\r\n    }\r\n\r\n    using SafeMath for uint256;\r\n\r\n    enum type_character { BRUTE, SPIRITUAL, ELEMENTARY }\r\n    enum gender_character { MASCULINE, FEMININE, OTHER }\r\n    uint256 mintFee = 0.001 ether;\r\n    uint24 nextId;\r\n    uint24 limitMint = 4000;\r\n    uint24[] countMints = new uint8[](3);\r\n\r\n    struct Character {\r\n        uint24 id;\r\n        uint56 dna;\r\n        uint16 level;\r\n        uint24 xp;\r\n        uint24 hp;\r\n        uint24 stamina;\r\n        uint24 attack;\r\n        uint24 armor;\r\n        uint24 attack1;\r\n        uint24 attack2;\r\n        uint24 attack3;\r\n        uint24 attack4;\r\n        uint256 lastFight;\r\n        type_character typeCharacter;\r\n        gender_character genderCharacter;\r\n    }\r\n\r\n    mapping(uint256 => Character) private _characterDetails;\r\n    mapping(address => uint8) private _balanceOfCharacters;\r\n\r\n    // Events\r\n    event CharacterCreated(uint256 id);\r\n    // event Healed(uint256 tokenId);\r\n    event Rested(uint256 tokenId);\r\n    event Fighted(uint256 myTokenId, uint256 rivalTokenId, uint256 substrateLifeToRival, uint256 substrateLifeToMe);\r\n    event LevelUp(uint256 tokenId, uint256 level);\r\n    event FeeUpdated(uint256 mintFee);\r\n    event LimitUpdated(uint256 limitMint);\r\n\r\n    function _ownerOf(uint256 tokenId) private view returns (bool) {\r\n        return balanceOf(msg.sender, tokenId) != 0;\r\n    }\r\n    \r\n    function updateFee(uint256 _mintFee) external onlyOwner() {\r\n        mintFee = _mintFee;\r\n        emit FeeUpdated(mintFee);\r\n    }\r\n\r\n    function updateLimitMint(uint24 _limitMint) external onlyOwner() {\r\n        limitMint = _limitMint;\r\n        emit LimitUpdated(limitMint);\r\n    }\r\n    \r\n    function withdraw() external onlyOwner() {\r\n        payable(owner()).transfer(address(this).balance);\r\n    }\r\n\r\n    // Helpers\r\n    function _generateRandomNumber(uint256 _mod, uint8 num) internal view returns(uint256) {\r\n        return uint256(keccak256(abi.encodePacked(num, block.timestamp, block.difficulty, msg.sender))) % _mod;\r\n    }\r\n\r\n    function _attributesDistribution() public view returns(uint8[] memory) {\r\n        uint8[] memory _attributes = new uint8[](4);\r\n        for(uint8 i=0; i<4; i++) {\r\n            _attributes[i] = 3 + uint8(_generateRandomNumber(3, i)); // ide nft: la lose ou la win, tu obtiens 0 ou 10 points bonus\r\n        }\r\n        return _attributes;\r\n    }\r\n    \r\n    function substrateLife(uint256 id1, uint256 id2) private view returns(uint256) {\r\n        uint256 op1 = uint256(_characterDetails[id1].attack).mul((1 + _characterDetails[id1].xp));\r\n        uint256 op2 = uint256(_characterDetails[id2].armor).mul(((1 + uint256(_characterDetails[id2].xp)).div(2)));\r\n        if (op1 < op2) {\r\n            return 0;\r\n        } else {\r\n            return op1.sub(op2);\r\n        }\r\n    }\r\n\r\n    function XpLevelUp(uint256 _tokenId) private {\r\n        _characterDetails[_tokenId].xp++;\r\n        if (_characterDetails[_tokenId].xp % 10 == 0) {\r\n            _characterDetails[_tokenId].level++;\r\n            emit LevelUp(_tokenId, _characterDetails[_tokenId].level);\r\n        }\r\n    }\r\n\r\n    function sustrateLifeOperation(uint256 _myTokenId, uint256 _rivalTokenId, uint256 substrateLifeToRival, uint256 substrateLifeToMe) private {\r\n        if(substrateLifeToRival >= _characterDetails[_rivalTokenId].hp) {\r\n            _characterDetails[_rivalTokenId].hp = 0;\r\n            XpLevelUp(_myTokenId);\r\n        } else {\r\n            _characterDetails[_rivalTokenId].hp = _characterDetails[_rivalTokenId].hp - uint24(substrateLifeToRival);\r\n            if(substrateLifeToMe >= _characterDetails[_myTokenId].hp) {\r\n                _characterDetails[_myTokenId].hp = 0;\r\n                XpLevelUp(_rivalTokenId);\r\n            } else {\r\n                _characterDetails[_myTokenId].hp = _characterDetails[_myTokenId].hp - uint24(substrateLifeToMe);\r\n                if (substrateLifeToRival > substrateLifeToMe) {\r\n                    XpLevelUp(_myTokenId);\r\n                } else if (substrateLifeToMe > substrateLifeToRival) {\r\n                    XpLevelUp(_rivalTokenId);\r\n                } else {\r\n                    XpLevelUp(_myTokenId);\r\n                    XpLevelUp(_rivalTokenId);\r\n                }\r\n            }\r\n        }\r\n        emit Fighted(_myTokenId, _rivalTokenId, substrateLifeToRival, substrateLifeToMe);\r\n    }\r\n\r\n    function createCharacter(type_character _typeCharacter, gender_character _genderCharacter) external payable {\r\n        require(msg.value == mintFee, \"Wrong amount of fees\");\r\n        require(_balanceOfCharacters[msg.sender] < 5, \"You can't have more than 5 NFT\");\r\n        require(countMints[uint8(_typeCharacter)] <= limitMint, \"You cannot mint more character with this class\");\r\n        uint8[] memory _attributes = _attributesDistribution();\r\n        _characterDetails[nextId] = Character(nextId, uint56(_generateRandomNumber(10**16, 1)), 1, 1, 100, 100, 5, 3, _attributes[0], _attributes[1], _attributes[2], _attributes[3], block.timestamp, _typeCharacter, _genderCharacter);\r\n        _balanceOfCharacters[msg.sender]++;\r\n        countMints[uint8(_typeCharacter)]++;\r\n        _mint(msg.sender, nextId, 1, \"\");\r\n        emit CharacterCreated(nextId);\r\n        nextId++;\r\n    }\r\n\r\n    // function heal(uint256 _tokenId) external payable {\r\n    //     require(_ownerOf(_tokenId), \"You're not the owner of the NFT\");\r\n    //     require(_characterDetails[_tokenId].lastHeal + 60 < block.timestamp, \"To soon to heal (1 min)\");\r\n    //     require(_characterDetails[_tokenId].hp < 100, \"You're character is already healed\");\r\n    //     _characterDetails[_tokenId].lastHeal = block.timestamp;\r\n    //     uint256 tempResult = (_characterDetails[_tokenId].hp).add(50);\r\n    //     if (tempResult > 100) {\r\n    //         _characterDetails[_tokenId].hp = 100;\r\n    //     } else {\r\n    //         _characterDetails[_tokenId].hp = (_characterDetails[_tokenId].hp).add(50);\r\n    //     }\r\n    //     emit Healed(_tokenId);\r\n    // }\r\n\r\n    function rest(uint256 _tokenId) external payable {\r\n        require(_ownerOf(_tokenId), \"You're not the owner of the NFT\");\r\n        require(_characterDetails[_tokenId].stamina < 100, \"You're character is already rested\");\r\n        _characterDetails[_tokenId].stamina = 100;\r\n        emit Rested(_tokenId);\r\n    }\r\n\r\n    function fight(uint256 _myTokenId, uint256 _rivalTokenId) external payable {\r\n        require(_ownerOf(_myTokenId), \"You're not the owner of the NFT\");\r\n        require(_ownerOf(_myTokenId) != _ownerOf(_rivalTokenId), \"Your NFTs cannot fight each other\");\r\n        require(_characterDetails[_myTokenId].lastFight + 60 < block.timestamp, \"To soon to fight (1 min)\");\r\n        require(_characterDetails[_myTokenId].stamina >= 10, \"Not enough stamina\");\r\n        require(_characterDetails[_myTokenId].level <= _characterDetails[_rivalTokenId].level, \"Fight someone your own size!\");\r\n        require(_characterDetails[_myTokenId].hp > 0 && _characterDetails[_rivalTokenId].hp > 0, \"One of the NFTs is dead\");\r\n\r\n        _characterDetails[_myTokenId].lastFight = block.timestamp;\r\n        uint256 substrateLifeToRival = substrateLife(_myTokenId, _rivalTokenId);\r\n        uint256 substrateLifeToMe = substrateLife(_rivalTokenId, _myTokenId);\r\n\r\n        _characterDetails[_myTokenId].stamina = _characterDetails[_myTokenId].stamina - 10;\r\n        sustrateLifeOperation(_myTokenId, _rivalTokenId, substrateLifeToRival, substrateLifeToMe);\r\n    }\r\n    \r\n    // Getters\r\n    function getTokenDetails(uint256 _tokenId) external view returns(Character memory) {\r\n        return _characterDetails[_tokenId];\r\n    }\r\n\r\n    function getMyCharacters() external view returns (Character[] memory){\r\n        uint8 count = 0;\r\n        Character[] memory myCharacters = new Character[](_balanceOfCharacters[msg.sender]);\r\n        for (uint256 i = 0; i < nextId; i++) {\r\n            if (_ownerOf(i)) {\r\n                myCharacters[count] = _characterDetails[i];\r\n                count++;\r\n            }\r\n        }\r\n        return myCharacters;\r\n    }\r\n\r\n    function getOthersCharacters() external view returns (Character[] memory){\r\n        uint256 count = 0;\r\n        Character[] memory othersCharacters = new Character[](nextId - _balanceOfCharacters[msg.sender]);\r\n        for (uint256 i = 0; i < nextId; i++) {\r\n            if (!_ownerOf(i)) {\r\n                othersCharacters[count] = _characterDetails[i];\r\n                count++;\r\n            }\r\n        }\r\n        return othersCharacters;\r\n    }\r\n    \r\n    // // only for TESTS getAllCharacters\r\n    // function getAllCharacters() external view returns (Character[] memory){\r\n    //     Character[] memory allCharacters = new Character[](nextId);\r\n    //     for (uint256 i = 0; i < nextId; i++) {\r\n    //         allCharacters[i] = _characterDetails[i];\r\n    //     }\r\n    //     return allCharacters;\r\n    // }\r\n    function getBalanceOfCharacters(address _address) external view returns(uint8) {\r\n        return _balanceOfCharacters[_address];\r\n    }\r\n\r\n    function getCountMints(uint8 _class) external view returns(uint24) {\r\n        return countMints[_class];\r\n    }\r\n}\r\n",
  "sourcePath": "D:\\TAF\\Alyra\\ALYRA_PROJET_FINAL\\unlimited_evolution\\contracts\\UnlimitedEvolution.sol",
  "compiler": {
    "name": "solc",
    "version": "0.8.11+commit.d7f03943.Emscripten.clang"
  },
  "schemaVersion": "3.4.3",
  "updatedAt": "2021-12-21T17:34:30.410Z",
  "networkType": "ethereum",
  "devdoc": {
    "kind": "dev",
    "methods": {
      "balanceOf(address,uint256)": {
        "details": "See {IERC1155-balanceOf}. Requirements: - `account` cannot be the zero address."
      },
      "balanceOfBatch(address[],uint256[])": {
        "details": "See {IERC1155-balanceOfBatch}. Requirements: - `accounts` and `ids` must have the same length."
      },
      "isApprovedForAll(address,address)": {
        "details": "See {IERC1155-isApprovedForAll}."
      },
      "owner()": {
        "details": "Returns the address of the current owner."
      },
      "renounceOwnership()": {
        "details": "Leaves the contract without owner. It will not be possible to call `onlyOwner` functions anymore. Can only be called by the current owner. NOTE: Renouncing ownership will leave the contract without an owner, thereby removing any functionality that is only available to the owner."
      },
      "safeBatchTransferFrom(address,address,uint256[],uint256[],bytes)": {
        "details": "See {IERC1155-safeBatchTransferFrom}."
      },
      "safeTransferFrom(address,address,uint256,uint256,bytes)": {
        "details": "See {IERC1155-safeTransferFrom}."
      },
      "setApprovalForAll(address,bool)": {
        "details": "See {IERC1155-setApprovalForAll}."
      },
      "supportsInterface(bytes4)": {
        "details": "See {IERC165-supportsInterface}."
      },
      "transferOwnership(address)": {
        "details": "Transfers ownership of the contract to a new account (`newOwner`). Can only be called by the current owner."
      },
      "uri(uint256)": {
        "details": "See {IERC1155MetadataURI-uri}. This implementation returns the same URI for *all* token types. It relies on the token type ID substitution mechanism https://eips.ethereum.org/EIPS/eip-1155#metadata[defined in the EIP]. Clients calling this function must replace the `\\{id\\}` substring with the actual token type ID."
      }
    },
    "version": 1
  },
  "userdoc": {
    "kind": "user",
    "methods": {},
    "version": 1
  }
}