{
  "contractName": "UnlimitedEvolution",
  "abi": [
    {
      "inputs": [
        {
          "internalType": "contract UnlimitedToken",
          "name": "_unlimitedTokenAddress",
          "type": "address"
        },
        {
          "internalType": "contract RandomNumberGenerator",
          "name": "_randomNumberGenerator",
          "type": "address"
        }
      ],
      "stateMutability": "nonpayable",
      "type": "constructor"
    },
    {
      "anonymous": false,
      "inputs": [
        {
          "indexed": true,
          "internalType": "address",
          "name": "account",
          "type": "address"
        },
        {
          "indexed": true,
          "internalType": "address",
          "name": "operator",
          "type": "address"
        },
        {
          "indexed": false,
          "internalType": "bool",
          "name": "approved",
          "type": "bool"
        }
      ],
      "name": "ApprovalForAll",
      "type": "event"
    },
    {
      "anonymous": false,
      "inputs": [
        {
          "indexed": false,
          "internalType": "uint24",
          "name": "id",
          "type": "uint24"
        }
      ],
      "name": "CharacterCreated",
      "type": "event"
    },
    {
      "anonymous": false,
      "inputs": [
        {
          "indexed": false,
          "internalType": "uint24",
          "name": "myTokenId",
          "type": "uint24"
        },
        {
          "indexed": false,
          "internalType": "uint24",
          "name": "rivalTokenId",
          "type": "uint24"
        },
        {
          "indexed": false,
          "internalType": "uint256",
          "name": "substrateLifeToRival",
          "type": "uint256"
        },
        {
          "indexed": false,
          "internalType": "uint256",
          "name": "substrateLifeToMe",
          "type": "uint256"
        }
      ],
      "name": "Fighted",
      "type": "event"
    },
    {
      "anonymous": false,
      "inputs": [
        {
          "indexed": false,
          "internalType": "uint24",
          "name": "tokenId",
          "type": "uint24"
        },
        {
          "indexed": false,
          "internalType": "uint16",
          "name": "level",
          "type": "uint16"
        }
      ],
      "name": "LevelUp",
      "type": "event"
    },
    {
      "anonymous": false,
      "inputs": [
        {
          "indexed": false,
          "internalType": "uint24",
          "name": "limitMint",
          "type": "uint24"
        }
      ],
      "name": "LimitUpdated",
      "type": "event"
    },
    {
      "anonymous": false,
      "inputs": [
        {
          "indexed": false,
          "internalType": "uint256",
          "name": "mintFee",
          "type": "uint256"
        }
      ],
      "name": "MintFeeUpdated",
      "type": "event"
    },
    {
      "anonymous": false,
      "inputs": [
        {
          "indexed": true,
          "internalType": "address",
          "name": "previousOwner",
          "type": "address"
        },
        {
          "indexed": true,
          "internalType": "address",
          "name": "newOwner",
          "type": "address"
        }
      ],
      "name": "OwnershipTransferred",
      "type": "event"
    },
    {
      "anonymous": false,
      "inputs": [
        {
          "indexed": false,
          "internalType": "uint24",
          "name": "tokenId",
          "type": "uint24"
        }
      ],
      "name": "PotionUsed",
      "type": "event"
    },
    {
      "anonymous": false,
      "inputs": [
        {
          "indexed": false,
          "internalType": "uint24",
          "name": "tokenId",
          "type": "uint24"
        }
      ],
      "name": "Rested",
      "type": "event"
    },
    {
      "anonymous": false,
      "inputs": [
        {
          "indexed": false,
          "internalType": "uint8",
          "name": "stuffId",
          "type": "uint8"
        }
      ],
      "name": "StuffBought",
      "type": "event"
    },
    {
      "anonymous": false,
      "inputs": [
        {
          "indexed": false,
          "internalType": "uint24",
          "name": "tokenId",
          "type": "uint24"
        },
        {
          "indexed": false,
          "internalType": "uint8",
          "name": "stuffId",
          "type": "uint8"
        }
      ],
      "name": "StuffEquiped",
      "type": "event"
    },
    {
      "anonymous": false,
      "inputs": [
        {
          "indexed": false,
          "internalType": "uint256",
          "name": "stuffFee",
          "type": "uint256"
        }
      ],
      "name": "StuffFeeUpdated",
      "type": "event"
    },
    {
      "anonymous": false,
      "inputs": [
        {
          "indexed": true,
          "internalType": "address",
          "name": "operator",
          "type": "address"
        },
        {
          "indexed": true,
          "internalType": "address",
          "name": "from",
          "type": "address"
        },
        {
          "indexed": true,
          "internalType": "address",
          "name": "to",
          "type": "address"
        },
        {
          "indexed": false,
          "internalType": "uint256[]",
          "name": "ids",
          "type": "uint256[]"
        },
        {
          "indexed": false,
          "internalType": "uint256[]",
          "name": "values",
          "type": "uint256[]"
        }
      ],
      "name": "TransferBatch",
      "type": "event"
    },
    {
      "anonymous": false,
      "inputs": [
        {
          "indexed": true,
          "internalType": "address",
          "name": "operator",
          "type": "address"
        },
        {
          "indexed": true,
          "internalType": "address",
          "name": "from",
          "type": "address"
        },
        {
          "indexed": true,
          "internalType": "address",
          "name": "to",
          "type": "address"
        },
        {
          "indexed": false,
          "internalType": "uint256",
          "name": "id",
          "type": "uint256"
        },
        {
          "indexed": false,
          "internalType": "uint256",
          "name": "value",
          "type": "uint256"
        }
      ],
      "name": "TransferSingle",
      "type": "event"
    },
    {
      "anonymous": false,
      "inputs": [
        {
          "indexed": false,
          "internalType": "string",
          "name": "value",
          "type": "string"
        },
        {
          "indexed": true,
          "internalType": "uint256",
          "name": "id",
          "type": "uint256"
        }
      ],
      "name": "URI",
      "type": "event"
    },
    {
      "inputs": [
        {
          "internalType": "address",
          "name": "account",
          "type": "address"
        },
        {
          "internalType": "uint256",
          "name": "id",
          "type": "uint256"
        }
      ],
      "name": "balanceOf",
      "outputs": [
        {
          "internalType": "uint256",
          "name": "",
          "type": "uint256"
        }
      ],
      "stateMutability": "view",
      "type": "function",
      "constant": true
    },
    {
      "inputs": [
        {
          "internalType": "address[]",
          "name": "accounts",
          "type": "address[]"
        },
        {
          "internalType": "uint256[]",
          "name": "ids",
          "type": "uint256[]"
        }
      ],
      "name": "balanceOfBatch",
      "outputs": [
        {
          "internalType": "uint256[]",
          "name": "",
          "type": "uint256[]"
        }
      ],
      "stateMutability": "view",
      "type": "function",
      "constant": true
    },
    {
      "inputs": [
        {
          "internalType": "address",
          "name": "account",
          "type": "address"
        },
        {
          "internalType": "address",
          "name": "operator",
          "type": "address"
        }
      ],
      "name": "isApprovedForAll",
      "outputs": [
        {
          "internalType": "bool",
          "name": "",
          "type": "bool"
        }
      ],
      "stateMutability": "view",
      "type": "function",
      "constant": true
    },
    {
      "inputs": [
        {
          "internalType": "address",
          "name": "",
          "type": "address"
        },
        {
          "internalType": "address",
          "name": "",
          "type": "address"
        },
        {
          "internalType": "uint256[]",
          "name": "",
          "type": "uint256[]"
        },
        {
          "internalType": "uint256[]",
          "name": "",
          "type": "uint256[]"
        },
        {
          "internalType": "bytes",
          "name": "",
          "type": "bytes"
        }
      ],
      "name": "onERC1155BatchReceived",
      "outputs": [
        {
          "internalType": "bytes4",
          "name": "",
          "type": "bytes4"
        }
      ],
      "stateMutability": "nonpayable",
      "type": "function"
    },
    {
      "inputs": [
        {
          "internalType": "address",
          "name": "",
          "type": "address"
        },
        {
          "internalType": "address",
          "name": "",
          "type": "address"
        },
        {
          "internalType": "uint256",
          "name": "",
          "type": "uint256"
        },
        {
          "internalType": "uint256",
          "name": "",
          "type": "uint256"
        },
        {
          "internalType": "bytes",
          "name": "",
          "type": "bytes"
        }
      ],
      "name": "onERC1155Received",
      "outputs": [
        {
          "internalType": "bytes4",
          "name": "",
          "type": "bytes4"
        }
      ],
      "stateMutability": "nonpayable",
      "type": "function"
    },
    {
      "inputs": [],
      "name": "owner",
      "outputs": [
        {
          "internalType": "address",
          "name": "",
          "type": "address"
        }
      ],
      "stateMutability": "view",
      "type": "function",
      "constant": true
    },
    {
      "inputs": [],
      "name": "randomNumberGenerator",
      "outputs": [
        {
          "internalType": "contract RandomNumberGenerator",
          "name": "",
          "type": "address"
        }
      ],
      "stateMutability": "view",
      "type": "function",
      "constant": true
    },
    {
      "inputs": [],
      "name": "renounceOwnership",
      "outputs": [],
      "stateMutability": "nonpayable",
      "type": "function"
    },
    {
      "inputs": [
        {
          "internalType": "address",
          "name": "from",
          "type": "address"
        },
        {
          "internalType": "address",
          "name": "to",
          "type": "address"
        },
        {
          "internalType": "uint256[]",
          "name": "ids",
          "type": "uint256[]"
        },
        {
          "internalType": "uint256[]",
          "name": "amounts",
          "type": "uint256[]"
        },
        {
          "internalType": "bytes",
          "name": "data",
          "type": "bytes"
        }
      ],
      "name": "safeBatchTransferFrom",
      "outputs": [],
      "stateMutability": "nonpayable",
      "type": "function"
    },
    {
      "inputs": [
        {
          "internalType": "address",
          "name": "from",
          "type": "address"
        },
        {
          "internalType": "address",
          "name": "to",
          "type": "address"
        },
        {
          "internalType": "uint256",
          "name": "id",
          "type": "uint256"
        },
        {
          "internalType": "uint256",
          "name": "amount",
          "type": "uint256"
        },
        {
          "internalType": "bytes",
          "name": "data",
          "type": "bytes"
        }
      ],
      "name": "safeTransferFrom",
      "outputs": [],
      "stateMutability": "nonpayable",
      "type": "function"
    },
    {
      "inputs": [
        {
          "internalType": "address",
          "name": "operator",
          "type": "address"
        },
        {
          "internalType": "bool",
          "name": "approved",
          "type": "bool"
        }
      ],
      "name": "setApprovalForAll",
      "outputs": [],
      "stateMutability": "nonpayable",
      "type": "function"
    },
    {
      "inputs": [],
      "name": "testMode",
      "outputs": [
        {
          "internalType": "bool",
          "name": "",
          "type": "bool"
        }
      ],
      "stateMutability": "view",
      "type": "function",
      "constant": true
    },
    {
      "inputs": [
        {
          "internalType": "address",
          "name": "newOwner",
          "type": "address"
        }
      ],
      "name": "transferOwnership",
      "outputs": [],
      "stateMutability": "nonpayable",
      "type": "function"
    },
    {
      "inputs": [],
      "name": "unlimitedToken",
      "outputs": [
        {
          "internalType": "contract UnlimitedToken",
          "name": "",
          "type": "address"
        }
      ],
      "stateMutability": "view",
      "type": "function",
      "constant": true
    },
    {
      "inputs": [
        {
          "internalType": "uint256",
          "name": "",
          "type": "uint256"
        }
      ],
      "name": "uri",
      "outputs": [
        {
          "internalType": "string",
          "name": "",
          "type": "string"
        }
      ],
      "stateMutability": "view",
      "type": "function",
      "constant": true
    },
    {
      "inputs": [
        {
          "internalType": "bytes4",
          "name": "interfaceId",
          "type": "bytes4"
        }
      ],
      "name": "supportsInterface",
      "outputs": [
        {
          "internalType": "bool",
          "name": "",
          "type": "bool"
        }
      ],
      "stateMutability": "view",
      "type": "function",
      "constant": true
    },
    {
      "inputs": [
        {
          "internalType": "address",
          "name": "_tokenAddress",
          "type": "address"
        }
      ],
      "name": "setTokenAddress",
      "outputs": [],
      "stateMutability": "nonpayable",
      "type": "function"
    },
    {
      "inputs": [
        {
          "internalType": "address",
          "name": "_randomAddress",
          "type": "address"
        }
      ],
      "name": "setLinkAddress",
      "outputs": [],
      "stateMutability": "nonpayable",
      "type": "function"
    },
    {
      "inputs": [
        {
          "internalType": "uint256",
          "name": "_mintFee",
          "type": "uint256"
        }
      ],
      "name": "updateMintFee",
      "outputs": [],
      "stateMutability": "nonpayable",
      "type": "function"
    },
    {
      "inputs": [
        {
          "internalType": "uint256",
          "name": "_stuffFee",
          "type": "uint256"
        }
      ],
      "name": "updateStuffFee",
      "outputs": [],
      "stateMutability": "nonpayable",
      "type": "function"
    },
    {
      "inputs": [
        {
          "internalType": "uint24",
          "name": "_limitMint",
          "type": "uint24"
        }
      ],
      "name": "updateLimitMint",
      "outputs": [],
      "stateMutability": "nonpayable",
      "type": "function"
    },
    {
      "inputs": [],
      "name": "withdrawEth",
      "outputs": [],
      "stateMutability": "nonpayable",
      "type": "function"
    },
    {
      "inputs": [
        {
          "internalType": "uint256",
          "name": "value",
          "type": "uint256"
        }
      ],
      "name": "withdrawLink",
      "outputs": [],
      "stateMutability": "nonpayable",
      "type": "function"
    },
    {
      "inputs": [
        {
          "internalType": "uint256",
          "name": "amount",
          "type": "uint256"
        },
        {
          "internalType": "uint8",
          "name": "bonusAttack1",
          "type": "uint8"
        },
        {
          "internalType": "uint8",
          "name": "bonusAttack2",
          "type": "uint8"
        },
        {
          "internalType": "uint8",
          "name": "bonusDefence1",
          "type": "uint8"
        },
        {
          "internalType": "uint8",
          "name": "bonusDefence2",
          "type": "uint8"
        },
        {
          "internalType": "enum UnlimitedEvolution.type_stuff",
          "name": "typeStuff",
          "type": "uint8"
        }
      ],
      "name": "createStuff",
      "outputs": [],
      "stateMutability": "nonpayable",
      "type": "function"
    },
    {
      "inputs": [
        {
          "internalType": "uint8",
          "name": "stuffId",
          "type": "uint8"
        },
        {
          "internalType": "uint256",
          "name": "amount",
          "type": "uint256"
        },
        {
          "internalType": "uint8",
          "name": "bonusAttack1",
          "type": "uint8"
        },
        {
          "internalType": "uint8",
          "name": "bonusAttack2",
          "type": "uint8"
        },
        {
          "internalType": "uint8",
          "name": "bonusDefence1",
          "type": "uint8"
        },
        {
          "internalType": "uint8",
          "name": "bonusDefence2",
          "type": "uint8"
        },
        {
          "internalType": "enum UnlimitedEvolution.type_stuff",
          "name": "typeStuff",
          "type": "uint8"
        }
      ],
      "name": "manageStuff",
      "outputs": [],
      "stateMutability": "nonpayable",
      "type": "function"
    },
    {
      "inputs": [
        {
          "internalType": "uint24",
          "name": "_tokenId",
          "type": "uint24"
        },
        {
          "internalType": "uint24",
          "name": "_attack1",
          "type": "uint24"
        },
        {
          "internalType": "uint24",
          "name": "_attack2",
          "type": "uint24"
        },
        {
          "internalType": "uint24",
          "name": "_defence1",
          "type": "uint24"
        },
        {
          "internalType": "uint24",
          "name": "_defence2",
          "type": "uint24"
        }
      ],
      "name": "attributesLevelUp",
      "outputs": [],
      "stateMutability": "nonpayable",
      "type": "function"
    },
    {
      "inputs": [
        {
          "internalType": "enum UnlimitedEvolution.type_character",
          "name": "_typeCharacter",
          "type": "uint8"
        },
        {
          "internalType": "enum UnlimitedEvolution.gender_character",
          "name": "_genderCharacter",
          "type": "uint8"
        }
      ],
      "name": "askCreateCharacter",
      "outputs": [],
      "stateMutability": "payable",
      "type": "function",
      "payable": true
    },
    {
      "inputs": [
        {
          "internalType": "enum UnlimitedEvolution.type_character",
          "name": "_typeCharacter",
          "type": "uint8"
        },
        {
          "internalType": "enum UnlimitedEvolution.gender_character",
          "name": "_genderCharacter",
          "type": "uint8"
        },
        {
          "internalType": "uint256",
          "name": "randomNumber",
          "type": "uint256"
        },
        {
          "internalType": "address",
          "name": "_address",
          "type": "address"
        }
      ],
      "name": "createCharacter",
      "outputs": [],
      "stateMutability": "nonpayable",
      "type": "function"
    },
    {
      "inputs": [
        {
          "internalType": "uint24",
          "name": "_tokenId",
          "type": "uint24"
        }
      ],
      "name": "rest",
      "outputs": [],
      "stateMutability": "nonpayable",
      "type": "function"
    },
    {
      "inputs": [
        {
          "internalType": "uint24",
          "name": "_myTokenId",
          "type": "uint24"
        },
        {
          "internalType": "uint24",
          "name": "_rivalTokenId",
          "type": "uint24"
        }
      ],
      "name": "fight",
      "outputs": [],
      "stateMutability": "nonpayable",
      "type": "function"
    },
    {
      "inputs": [
        {
          "internalType": "uint8",
          "name": "stuffId",
          "type": "uint8"
        }
      ],
      "name": "buyStuff",
      "outputs": [],
      "stateMutability": "payable",
      "type": "function",
      "payable": true
    },
    {
      "inputs": [
        {
          "internalType": "uint24",
          "name": "tokenId",
          "type": "uint24"
        },
        {
          "internalType": "uint8",
          "name": "stuffId",
          "type": "uint8"
        }
      ],
      "name": "equipStuff",
      "outputs": [],
      "stateMutability": "nonpayable",
      "type": "function"
    },
    {
      "inputs": [
        {
          "internalType": "uint24",
          "name": "tokenId",
          "type": "uint24"
        }
      ],
      "name": "usePotion",
      "outputs": [],
      "stateMutability": "nonpayable",
      "type": "function"
    },
    {
      "inputs": [
        {
          "internalType": "uint24",
          "name": "tokenId",
          "type": "uint24"
        }
      ],
      "name": "getTokenDetails",
      "outputs": [
        {
          "components": [
            {
              "internalType": "uint24",
              "name": "id",
              "type": "uint24"
            },
            {
              "internalType": "uint56",
              "name": "dna",
              "type": "uint56"
            },
            {
              "internalType": "uint16",
              "name": "level",
              "type": "uint16"
            },
            {
              "internalType": "uint24",
              "name": "xp",
              "type": "uint24"
            },
            {
              "internalType": "uint24",
              "name": "hp",
              "type": "uint24"
            },
            {
              "internalType": "uint24",
              "name": "stamina",
              "type": "uint24"
            },
            {
              "internalType": "uint24",
              "name": "attack1",
              "type": "uint24"
            },
            {
              "internalType": "uint24",
              "name": "attack2",
              "type": "uint24"
            },
            {
              "internalType": "uint24",
              "name": "defence1",
              "type": "uint24"
            },
            {
              "internalType": "uint24",
              "name": "defence2",
              "type": "uint24"
            },
            {
              "internalType": "uint24",
              "name": "attributePoints",
              "type": "uint24"
            },
            {
              "internalType": "uint8",
              "name": "weapon",
              "type": "uint8"
            },
            {
              "internalType": "uint8",
              "name": "shield",
              "type": "uint8"
            },
            {
              "internalType": "uint256",
              "name": "lastRest",
              "type": "uint256"
            },
            {
              "internalType": "enum UnlimitedEvolution.type_character",
              "name": "typeCharacter",
              "type": "uint8"
            },
            {
              "internalType": "enum UnlimitedEvolution.gender_character",
              "name": "genderCharacter",
              "type": "uint8"
            }
          ],
          "internalType": "struct UnlimitedEvolution.Character",
          "name": "",
          "type": "tuple"
        }
      ],
      "stateMutability": "view",
      "type": "function",
      "constant": true
    },
    {
      "inputs": [
        {
          "internalType": "uint8",
          "name": "stuffId",
          "type": "uint8"
        }
      ],
      "name": "getStuffDetails",
      "outputs": [
        {
          "components": [
            {
              "internalType": "uint8",
              "name": "id",
              "type": "uint8"
            },
            {
              "internalType": "uint8",
              "name": "bonusAttack1",
              "type": "uint8"
            },
            {
              "internalType": "uint8",
              "name": "bonusAttack2",
              "type": "uint8"
            },
            {
              "internalType": "uint8",
              "name": "bonusDefence1",
              "type": "uint8"
            },
            {
              "internalType": "uint8",
              "name": "bonusDefence2",
              "type": "uint8"
            },
            {
              "internalType": "enum UnlimitedEvolution.type_stuff",
              "name": "typeStuff",
              "type": "uint8"
            }
          ],
          "internalType": "struct UnlimitedEvolution.Stuff",
          "name": "",
          "type": "tuple"
        }
      ],
      "stateMutability": "view",
      "type": "function",
      "constant": true
    },
    {
      "inputs": [],
      "name": "getMyCharacters",
      "outputs": [
        {
          "components": [
            {
              "internalType": "uint24",
              "name": "id",
              "type": "uint24"
            },
            {
              "internalType": "uint56",
              "name": "dna",
              "type": "uint56"
            },
            {
              "internalType": "uint16",
              "name": "level",
              "type": "uint16"
            },
            {
              "internalType": "uint24",
              "name": "xp",
              "type": "uint24"
            },
            {
              "internalType": "uint24",
              "name": "hp",
              "type": "uint24"
            },
            {
              "internalType": "uint24",
              "name": "stamina",
              "type": "uint24"
            },
            {
              "internalType": "uint24",
              "name": "attack1",
              "type": "uint24"
            },
            {
              "internalType": "uint24",
              "name": "attack2",
              "type": "uint24"
            },
            {
              "internalType": "uint24",
              "name": "defence1",
              "type": "uint24"
            },
            {
              "internalType": "uint24",
              "name": "defence2",
              "type": "uint24"
            },
            {
              "internalType": "uint24",
              "name": "attributePoints",
              "type": "uint24"
            },
            {
              "internalType": "uint8",
              "name": "weapon",
              "type": "uint8"
            },
            {
              "internalType": "uint8",
              "name": "shield",
              "type": "uint8"
            },
            {
              "internalType": "uint256",
              "name": "lastRest",
              "type": "uint256"
            },
            {
              "internalType": "enum UnlimitedEvolution.type_character",
              "name": "typeCharacter",
              "type": "uint8"
            },
            {
              "internalType": "enum UnlimitedEvolution.gender_character",
              "name": "genderCharacter",
              "type": "uint8"
            }
          ],
          "internalType": "struct UnlimitedEvolution.Character[]",
          "name": "",
          "type": "tuple[]"
        }
      ],
      "stateMutability": "view",
      "type": "function",
      "constant": true
    },
    {
      "inputs": [],
      "name": "getOthersCharacters",
      "outputs": [
        {
          "components": [
            {
              "internalType": "uint24",
              "name": "id",
              "type": "uint24"
            },
            {
              "internalType": "uint56",
              "name": "dna",
              "type": "uint56"
            },
            {
              "internalType": "uint16",
              "name": "level",
              "type": "uint16"
            },
            {
              "internalType": "uint24",
              "name": "xp",
              "type": "uint24"
            },
            {
              "internalType": "uint24",
              "name": "hp",
              "type": "uint24"
            },
            {
              "internalType": "uint24",
              "name": "stamina",
              "type": "uint24"
            },
            {
              "internalType": "uint24",
              "name": "attack1",
              "type": "uint24"
            },
            {
              "internalType": "uint24",
              "name": "attack2",
              "type": "uint24"
            },
            {
              "internalType": "uint24",
              "name": "defence1",
              "type": "uint24"
            },
            {
              "internalType": "uint24",
              "name": "defence2",
              "type": "uint24"
            },
            {
              "internalType": "uint24",
              "name": "attributePoints",
              "type": "uint24"
            },
            {
              "internalType": "uint8",
              "name": "weapon",
              "type": "uint8"
            },
            {
              "internalType": "uint8",
              "name": "shield",
              "type": "uint8"
            },
            {
              "internalType": "uint256",
              "name": "lastRest",
              "type": "uint256"
            },
            {
              "internalType": "enum UnlimitedEvolution.type_character",
              "name": "typeCharacter",
              "type": "uint8"
            },
            {
              "internalType": "enum UnlimitedEvolution.gender_character",
              "name": "genderCharacter",
              "type": "uint8"
            }
          ],
          "internalType": "struct UnlimitedEvolution.Character[]",
          "name": "",
          "type": "tuple[]"
        }
      ],
      "stateMutability": "view",
      "type": "function",
      "constant": true
    },
    {
      "inputs": [],
      "name": "getMyStuffs",
      "outputs": [
        {
          "components": [
            {
              "internalType": "uint8",
              "name": "id",
              "type": "uint8"
            },
            {
              "internalType": "uint8",
              "name": "bonusAttack1",
              "type": "uint8"
            },
            {
              "internalType": "uint8",
              "name": "bonusAttack2",
              "type": "uint8"
            },
            {
              "internalType": "uint8",
              "name": "bonusDefence1",
              "type": "uint8"
            },
            {
              "internalType": "uint8",
              "name": "bonusDefence2",
              "type": "uint8"
            },
            {
              "internalType": "enum UnlimitedEvolution.type_stuff",
              "name": "typeStuff",
              "type": "uint8"
            }
          ],
          "internalType": "struct UnlimitedEvolution.Stuff[]",
          "name": "",
          "type": "tuple[]"
        }
      ],
      "stateMutability": "view",
      "type": "function",
      "constant": true
    },
    {
      "inputs": [],
      "name": "testModeSwitch",
      "outputs": [],
      "stateMutability": "nonpayable",
      "type": "function"
    }
  ],
  "bytecode": "0x6003805460a060020a60d860020a031916790fa000010006000000000000000000000000000000000000000017815560808181526101006040529060a0606080368337505081516200005992600492506020019062000b77565b5066038d7ea4c6800060055566038d7ea4c680006006553480156200007d57600080fd5b506040516200685e3803806200685e833981016040819052620000a09162000d07565b604080516020810190915260008152620000c3816401000000006200067f810204565b50620000ea620000db64010000000062000698810204565b6401000000006200069c810204565b6007805461010060a860020a031916610100600160a060020a03858116919091029190911790915560088054600160a060020a03191691831691909117905560408051602081019091526000815262000156903090600190620186a090640100000000620006ee810204565b6040805160c08101825260018152600260208201819052918101919091526000606082018190526080820181905260a082015260016000819052600a602090815282517fbbc70db1b6c7afd11e79c0fb0051300458f1a3acb8ee9789d9b6b26c61ad9bc780549285015160408601516060870151608088015160ff9081166401000000000264ff000000001992821663010000000263ff0000001994831662010000029490941663ffff0000199583166101000261ffff199099169790921696909617969096179290921694909417939093179283168217815560a085015190939092849265ff0000000000191665ffff00000000199091161790650100000000009084908111156200026d576200026d62000edc565b0217905550905050620002a830600260ff16620186a060405180602001604052806000815250620006ee640100000000026401000000009004565b6040805160c0810182526002808252600060208084018281529484018281526060850184815260808601858152600160a0880181815296909552600a90935285517fbff4442b8ed600beeb8e26b1279a0f0d14c6edfaec26d968ee13c86f7d4c2ba88054985193519251945160ff9081166401000000000264ff000000001996821663010000000263ff0000001995831662010000029590951663ffff0000199683166101000261ffff19909c169290941691909117999099179390931617179182168617815592519394929392849265ff00000000001990911665ffff0000000019909216919091179065010000000000908490811115620003af57620003af62000edc565b0217905550905050620003e830600360ff16600160405180602001604052806000815250620006ee640100000000026401000000009004565b6040805160c0810182526003808252600a60208084018281529484018281526060850183815260808601848152600060a088018181529690529390925284517fa856840544dc26124927add067d799967eac11be13e14d82cc281ea46fa397598054975192519351945160ff9081166401000000000264ff000000001996821663010000000263ff0000001996831662010000029690961663ffff0000199583166101000261ffff19909b169290941691909117989098179290921617919091179182168517815591519293919291839165ff00000000001990911665ffff00000000199091161765010000000000836001811115620004ec57620004ec62000edc565b02179055509050506200052530600460ff16600160405180602001604052806000815250620006ee640100000000026401000000009004565b6040805160c08101825260048152600a6020820181905291810182905260608101829052608081019190915260a08101600190526004600052600a602090815281517fe1eb2b2161a492c07c5a334e48012567cba93ec021043f53c1955516a3c5a84180549284015160408501516060860151608087015160ff9081166401000000000264ff000000001992821663010000000263ff0000001994831662010000029490941663ffff0000199583166101000261ffff199099169790921696909617969096179290921694909417939093179283168217815560a084015190929091839165ff00000000001990911665ffff000000001990911617650100000000008360018111156200063c576200063c62000edc565b02179055509050506200067730600560ff16620f424060405180602001604052806000815250620006ee640100000000026401000000009004565b50506200101c565b80516200069490600290602084019062000c28565b5050565b3390565b60038054600160a060020a03838116600160a060020a0319831681179093556040519116919082907f8be0079c531659141344cd1fd0a4f28419497f9722a3daafe3b4186f6b6457e090600090a35050565b600160a060020a0384166200078a576040517f08c379a000000000000000000000000000000000000000000000000000000000815260206004820152602160248201527f455243313135353a206d696e7420746f20746865207a65726f2061646472657360448201527f730000000000000000000000000000000000000000000000000000000000000060648201526084015b60405180910390fd5b60006200079f64010000000062000698810204565b9050620007e181600087620007bd8864010000000062000885810204565b620007d18864010000000062000885810204565b87640100000000620008d3810204565b600084815260208181526040808320600160a060020a0389168452909152812080548592906200081390849062000df2565b90915550506040805185815260208101859052600160a060020a0380881692600092918516917fc3d58168c5ae7397731d063d5bbf3d657854427343f4c083240f7aacaa2d0f62910160405180910390a46200087e81600087878787640100000000620008db810204565b5050505050565b60408051600180825281830190925260609160009190602080830190803683370190505090508281600081518110620008c257620008c262000f0b565b602090810291909101015292915050565b505050505050565b620008fd600160a060020a0385166401000000006200354662000b7182021704565b15620008d3576040517ff23a6e61000000000000000000000000000000000000000000000000000000008152600160a060020a0385169063f23a6e619062000952908990899088908890889060040162000d96565b602060405180830381600087803b1580156200096d57600080fd5b505af1925050508015620009a0575060408051601f3d908101601f191682019092526200099d9181019062000cbc565b60015b62000a9557620009af62000f3a565b806308c379a0141562000a0a5750620009c762000f74565b80620009d4575062000a0c565b806040517f08c379a000000000000000000000000000000000000000000000000000000000815260040162000781919062000ddd565b505b6040517f08c379a000000000000000000000000000000000000000000000000000000000815260206004820152603460248201527f455243313135353a207472616e7366657220746f206e6f6e204552433131353560448201527f526563656976657220696d706c656d656e746572000000000000000000000000606482015260840162000781565b7fffffffff0000000000000000000000000000000000000000000000000000000081167ff23a6e61000000000000000000000000000000000000000000000000000000001462000b68576040517f08c379a000000000000000000000000000000000000000000000000000000000815260206004820152602860248201527f455243313135353a204552433131353552656365697665722072656a6563746560448201527f6420746f6b656e73000000000000000000000000000000000000000000000000606482015260840162000781565b50505050505050565b3b151590565b82805482825590600052602060002090600901600a9004810192821562000c165791602002820160005b8382111562000be357835183826101000a81548162ffffff021916908360ff160217905550926020019260030160208160020104928301926001030262000ba1565b801562000c145782816101000a81549062ffffff021916905560030160208160020104928301926001030262000be3565b505b5062000c2492915062000ca5565b5090565b82805462000c369062000e32565b90600052602060002090601f01602090048101928262000c5a576000855562000c16565b82601f1062000c7557805160ff191683800117855562000c16565b8280016001018555821562000c16579182015b8281111562000c1657825182559160200191906001019062000c88565b5b8082111562000c24576000815560010162000ca6565b60006020828403121562000ccf57600080fd5b81517fffffffff000000000000000000000000000000000000000000000000000000008116811462000d0057600080fd5b9392505050565b6000806040838503121562000d1b57600080fd5b825162000d288162001003565b602084015190925062000d3b8162001003565b809150509250929050565b6000815180845260005b8181101562000d6e5760208185018101518683018201520162000d50565b8181111562000d81576000602083870101525b50601f01601f19169290920160200192915050565b600160a060020a03868116825285166020820152604081018490526060810183905260a06080820181905260009062000dd29083018462000d46565b979650505050505050565b60208152600062000d00602083018462000d46565b6000821982111562000e2d577f4e487b7100000000000000000000000000000000000000000000000000000000600052601160045260246000fd5b500190565b60028104600182168062000e4757607f821691505b6020821081141562000e82577f4e487b7100000000000000000000000000000000000000000000000000000000600052602260045260246000fd5b50919050565b601f8201601f191681016001604060020a038111828210171562000ed5577f4e487b7100000000000000000000000000000000000000000000000000000000600052604160045260246000fd5b6040525050565b7f4e487b7100000000000000000000000000000000000000000000000000000000600052602160045260246000fd5b7f4e487b7100000000000000000000000000000000000000000000000000000000600052603260045260246000fd5b600060033d111562000f715760046000803e7c01000000000000000000000000000000000000000000000000000000006000510490505b90565b600060443d101562000f835790565b6040516003193d81016004833e81513d6001604060020a03816024840111818411171562000fb357505050505090565b828501915081518181111562000fcc5750505050505090565b843d870101602082850101111562000fe75750505050505090565b62000ff86020828601018762000e88565b509095945050505050565b600160a060020a03811681146200101957600080fd5b50565b615832806200102c6000396000f3fe6080604052600436106102335760003560e060020a900480638114b33d11610132578063bc197c81116100af578063e985e9c511610073578063e985e9c5146106d5578063ec7a1ceb1461071e578063f23a6e611461074b578063f242432a14610790578063f2fde38b146107b057600080fd5b8063bc197c81146105fd578063cd9ea3421461065b578063db48a88814610675578063e3d6692014610695578063e5001204146106b557600080fd5b8063a0ef91df116100f6578063a0ef91df14610568578063a22cb4651461057d578063a2ee25571461059d578063aee231f9146105b0578063baa03618146105dd57600080fd5b80638114b33d146104d757806384017e52146104ea5780638acf59f21461050a5780638da5cb5b1461052a578063985409891461054857600080fd5b80632eb2c2d6116101c05780634e82debc116101845780634e82debc1461044d5780634fb97a101461046d5780635f37536814610482578063715018a6146104a25780637a8042bd146104b757600080fd5b80632eb2c2d61461039e5780633418e436146103be5780633bedaca2146103de5780633c4739d3146103fe5780634e1273f41461042057600080fd5b8063220cb4ce11610207578063220cb4ce146102ea578063249b119f1461030c57806324ff766e1461034957806326a4e8d2146103695780632a3f89631461038957600080fd5b8062fdd58e1461023857806301ffc9a71461026b5780630e89341c1461029b57806320e5b22e146102c8575b600080fd5b34801561024457600080fd5b50610258610253366004614a22565b6107d0565b6040519081526020015b60405180910390f35b34801561027757600080fd5b5061028b610286366004614b1b565b61087f565b6040519015158152602001610262565b3480156102a757600080fd5b506102bb6102b6366004614ca8565b61088a565b604051610262919061520a565b3480156102d457600080fd5b506102dd61091e565b6040516102629190615114565b3480156102f657600080fd5b5061030a610305366004614bef565b610b30565b005b34801561031857600080fd5b50600754610331906101009004600160a060020a031681565b604051600160a060020a039091168152602001610262565b34801561035557600080fd5b5061030a610364366004614882565b610f10565b34801561037557600080fd5b5061030a610384366004614882565b610f6c565b34801561039557600080fd5b5061030a610fce565b3480156103aa57600080fd5b5061030a6103b93660046148d7565b61100f565b3480156103ca57600080fd5b5061030a6103d9366004614bd4565b6110b4565b3480156103ea57600080fd5b5060085461033190600160a060020a031681565b34801561040a57600080fd5b5061041361128a565b60405161026291906150c5565b34801561042c57600080fd5b5061044061043b366004614a4c565b6114dc565b6040516102629190615156565b34801561045957600080fd5b5061030a610468366004614bd4565b61161d565b34801561047957600080fd5b50610413611734565b34801561048e57600080fd5b5061030a61049d366004614ca8565b6119ae565b3480156104ae57600080fd5b5061030a611a10565b3480156104c357600080fd5b5061030a6104d2366004614ca8565b611a49565b61030a6104e5366004614b55565b611ae9565b3480156104f657600080fd5b5061030a610505366004614ca8565b611d83565b34801561051657600080fd5b5061030a610525366004614bd4565b611de5565b34801561053657600080fd5b50600354600160a060020a0316610331565b34801561055457600080fd5b5061030a610563366004614cc1565b611e7c565b34801561057457600080fd5b5061030a6120a2565b34801561058957600080fd5b5061030a6105983660046149e6565b612116565b61030a6105ab366004614d2e565b612121565b3480156105bc57600080fd5b506105d06105cb366004614d2e565b6122cd565b604051610262919061540c565b3480156105e957600080fd5b5061030a6105f8366004614c19565b61239f565b34801561060957600080fd5b506106426106183660046148d7565b7fbc197c810000000000000000000000000000000000000000000000000000000095945050505050565b604051600160e060020a03199091168152602001610262565b34801561066757600080fd5b5060075461028b9060ff1681565b34801561068157600080fd5b5061030a610690366004614b83565b612582565b3480156106a157600080fd5b5061030a6106b0366004614d49565b612b32565b3480156106c157600080fd5b5061030a6106d0366004614c7e565b612ca9565b3480156106e157600080fd5b5061028b6106f03660046148a4565b600160a060020a03918216600090815260016020908152604080832093909416825291909152205460ff1690565b34801561072a57600080fd5b5061073e610739366004614bd4565b613283565b60405161026291906153fd565b34801561075757600080fd5b50610642610766366004614981565b7ff23a6e610000000000000000000000000000000000000000000000000000000095945050505050565b34801561079c57600080fd5b5061030a6107ab366004614981565b6133f3565b3480156107bc57600080fd5b5061030a6107cb366004614882565b613491565b6000600160a060020a0383166108565760405160e560020a62461bcd02815260206004820152602b60248201527f455243313135353a2062616c616e636520717565727920666f7220746865207a60448201527f65726f206164647265737300000000000000000000000000000000000000000060648201526084015b60405180910390fd5b50600081815260208181526040808320600160a060020a03861684529091529020545b92915050565b60006108798261354c565b6060600280546108999061558b565b80601f01602080910402602001604051908101604052809291908181526020018280546108c59061558b565b80156109125780601f106108e757610100808354040283529160200191610912565b820191906000526020600020905b8154815290600101906020018083116108f557829003601f168201915b50505050509050919050565b60606000805b60035460ff60a060020a9091048116908216101561097c578060ff1660051415801561095757506109578160ff1661358a565b1561096a57816109668161564c565b9250505b806109748161564c565b915050610924565b5060008160ff1667ffffffffffffffff81111561099b5761099b615706565b604051908082528060200260200182016040528015610a0257816020015b6109ef6040805160c08101825260008082526020820181905291810182905260608101829052608081018290529060a082015290565b8152602001906001900390816109b95790505b5090506000805b600354610a229060019060a060020a900460ff16615568565b60ff168160ff161015610b27578060ff16600514158015610a4a5750610a4a8160ff1661358a565b15610b155760ff8082166000908152600a6020908152604091829020825160c0810184528154808616825261010081048616938201939093526201000083048516938101939093526301000000820484166060840152640100000000820484166080840152919260a0840191650100000000009004166001811115610ad157610ad16156d4565b6001811115610ae257610ae26156d4565b81525050838360ff1681518110610afb57610afb6156ed565b60200260200101819052508180610b119061564c565b9250505b80610b1f8161564c565b915050610a09565b50909392505050565b610b3e8262ffffff1661358a565b610b5d5760405160e560020a62461bcd02815260040161084d9061527a565b610b6b8162ffffff1661358a565b1515610b7b8362ffffff1661358a565b15151415610bf45760405160e560020a62461bcd02815260206004820152602160248201527f596f7572204e4654732063616e6e6f742066696768742065616368206f74686560448201527f7200000000000000000000000000000000000000000000000000000000000000606482015260840161084d565b62ffffff82166000908152600960205260409020600201544290610c1b9062015180615482565b10610c6b5760405160e560020a62461bcd02815260206004820152601b60248201527f596f75277265206368617261637465722069732072657374696e670000000000604482015260640161084d565b62ffffff81166000908152600960205260409020600201544290610c929062015180615482565b10610ce25760405160e560020a62461bcd02815260206004820152601760248201527f596f7527726520726976616c2069732072657374696e67000000000000000000604482015260640161084d565b62ffffff808316600090815260096020526040902054600a609060020a9091049091161015610d565760405160e560020a62461bcd02815260206004820152601260248201527f4e6f7420656e6f756768207374616d696e610000000000000000000000000000604482015260640161084d565b62ffffff80821660009081526009602052604080822054928516825290205461ffff6a010000000000000000000092839004811692909104161115610de05760405160e560020a62461bcd02815260206004820152601c60248201527f466967687420736f6d656f6e6520796f7572206f776e2073697a652100000000604482015260640161084d565b62ffffff808316600090815260096020526040902054607860020a90041615801590610e28575062ffffff808216600090815260096020526040902054607860020a90041615155b610e775760405160e560020a62461bcd02815260206004820152601760248201527f4f6e65206f6620746865204e4654732069732064656164000000000000000000604482015260640161084d565b6000610e83838361359e565b90506000610e91838561359e565b62ffffff808616600090815260096020526040902054919250610ebf91600a91609060020a9091041661552d565b62ffffff8581166000908152600960205260409020805474ffffff0000000000000000000000000000000000001916609060020a9390921692909202179055610f0a848484846136c5565b50505050565b600354600160a060020a03163314610f3d5760405160e560020a62461bcd02815260040161084d906153c8565b6008805473ffffffffffffffffffffffffffffffffffffffff1916600160a060020a0392909216919091179055565b600354600160a060020a03163314610f995760405160e560020a62461bcd02815260040161084d906153c8565b60078054600160a060020a039092166101000274ffffffffffffffffffffffffffffffffffffffff0019909216919091179055565b600354600160a060020a03163314610ffb5760405160e560020a62461bcd02815260040161084d906153c8565b6007805460ff19811660ff90911615179055565b600160a060020a03851633148061102b575061102b85336106f0565b6110a05760405160e560020a62461bcd02815260206004820152603260248201527f455243313135353a207472616e736665722063616c6c6572206973206e6f742060448201527f6f776e6572206e6f7220617070726f7665640000000000000000000000000000606482015260840161084d565b6110ad85858585856138b4565b5050505050565b60ff8162ffffff161161110c5760405160e560020a62461bcd02815260206004820152601960248201527f57726f6e67206b696e64206f66204e4654202853747566662900000000000000604482015260640161084d565b61111a8162ffffff1661358a565b6111395760405160e560020a62461bcd02815260040161084d9061527a565b611143600561358a565b6111925760405160e560020a62461bcd02815260206004820152601660248201527f596f7520646f6e2774206f776e206120706f74696f6e00000000000000000000604482015260640161084d565b62ffffff8082166000908152600960205260409020546064609060020a90910490911610806111e1575062ffffff8082166000908152600960205260409020546064607860020a909104909116105b6112005760405160e560020a62461bcd02815260040161084d9061530e565b61120d3360056001613aa7565b62ffffff8116600081815260096020908152604091829020805474ffffffffffff0000000000000000000000000000001916726400006400000000000000000000000000000017905590519182527f127a62fea82fb42bc3a6f379a68f1ccd885eb84979d3c9372bf3d70c765cf13b91015b60405180910390a150565b336000908152600b602052604081205460609190819060ff1667ffffffffffffffff8111156112bb576112bb615706565b6040519080825280602002602001820160405280156112f457816020015b6112e16146c7565b8152602001906001900390816112d95790505b5090506101005b60035462ffffff60a860020a909104811690821610156114d5576113238162ffffff1661358a565b156114c35762ffffff81811660009081526009602090815260409182902082516102008101845281548086168252630100000080820466ffffffffffffff16948301949094526a0100000000000000000000810461ffff1694820194909452606060020a840485166060820152607860020a840485166080820152609060020a8404851660a082015260a860020a8404851660c082015260c060020a8404851660e082015260d860020a909304841661010084015260018101548085166101208501529182049093166101408301526601000000000000810460ff90811661016084015267010000000000000090910481166101808301526002808401546101a084015260038401549293926101c08501921690811115611446576114466156d4565b6002811115611457576114576156d4565b81526020016003820160019054906101000a900460ff16600281111561147f5761147f6156d4565b6002811115611490576114906156d4565b81525050828460ff16815181106114a9576114a96156ed565b602002602001018190525082806114bf9061564c565b9350505b806114cd81615618565b9150506112fb565b5092915050565b606081518351146115585760405160e560020a62461bcd02815260206004820152602960248201527f455243313135353a206163636f756e747320616e6420696473206c656e67746860448201527f206d69736d617463680000000000000000000000000000000000000000000000606482015260840161084d565b6000835167ffffffffffffffff81111561157457611574615706565b60405190808252806020026020018201604052801561159d578160200160208202803683370190505b50905060005b8451811015611615576115e88582815181106115c1576115c16156ed565b60200260200101518583815181106115db576115db6156ed565b60200260200101516107d0565b8282815181106115fa576115fa6156ed565b602090810291909101015261160e81615631565b90506115a3565b509392505050565b61162b8162ffffff1661358a565b61164a5760405160e560020a62461bcd02815260040161084d9061527a565b62ffffff8082166000908152600960205260409020546064609060020a9091049091161080611699575062ffffff8082166000908152600960205260409020546064607860020a909104909116105b6116b85760405160e560020a62461bcd02815260040161084d9061530e565b62ffffff8116600081815260096020908152604091829020426002820155805474ffffffffffff0000000000000000000000000000001916726400006400000000000000000000000000000017905590519182527f70b3acde96522f48d954a5bb77f27755c277bb00853b13264d21178135d3d0a9910161127f565b336000908152600b602052604081205460035460609291829160ff9091169061176c906101009060a860020a900462ffffff1661552d565b611776919061552d565b62ffffff1667ffffffffffffffff81111561179357611793615706565b6040519080825280602002602001820160405280156117cc57816020015b6117b96146c7565b8152602001906001900390816117b15790505b5090506101005b60035462ffffff60a860020a909104811690821610156114d5576117fb8162ffffff1661358a565b61199c5762ffffff81811660009081526009602090815260409182902082516102008101845281548086168252630100000080820466ffffffffffffff16948301949094526a0100000000000000000000810461ffff1694820194909452606060020a840485166060820152607860020a840485166080820152609060020a8404851660a082015260a860020a8404851660c082015260c060020a8404851660e082015260d860020a909304841661010084015260018101548085166101208501529182049093166101408301526601000000000000810460ff90811661016084015267010000000000000090910481166101808301526002808401546101a084015260038401549293926101c0850192169081111561191d5761191d6156d4565b600281111561192e5761192e6156d4565b81526020016003820160019054906101000a900460ff166002811115611956576119566156d4565b6002811115611967576119676156d4565b81525050828462ffffff1681518110611982576119826156ed565b6020026020010181905250828061199890615618565b9350505b806119a681615618565b9150506117d3565b600354600160a060020a031633146119db5760405160e560020a62461bcd02815260040161084d906153c8565b60068190556040518181527f38f4067adf1477c6ed59234d75dfe320c18a2373bd9a839a489794e207148bbb9060200161127f565b600354600160a060020a03163314611a3d5760405160e560020a62461bcd02815260040161084d906153c8565b611a476000613c5a565b565b600354600160a060020a03163314611a765760405160e560020a62461bcd02815260040161084d906153c8565b6008546040517f2e1a7d4d00000000000000000000000000000000000000000000000000000000815260048101839052600160a060020a0390911690632e1a7d4d90602401600060405180830381600087803b158015611ad557600080fd5b505af11580156110ad573d6000803e3d6000fd5b6005543414611b3d5760405160e560020a62461bcd02815260206004820152601460248201527f57726f6e6720616d6f756e74206f662066656573000000000000000000000000604482015260640161084d565b336000908152600b6020526040902054600560ff90911610611ba45760405160e560020a62461bcd02815260206004820152601e60248201527f596f752063616e27742068617665206d6f7265207468616e2035204e46540000604482015260640161084d565b60035460c060020a900462ffffff166004836002811115611bc757611bc76156d4565b60ff1681548110611bda57611bda6156ed565b90600052602060002090600a91828204019190066003029054906101000a900462ffffff1662ffffff161115611c7b5760405160e560020a62461bcd02815260206004820152602e60248201527f596f752063616e6e6f74206d696e74206d6f726520636861726163746572207760448201527f697468207468697320636c617373000000000000000000000000000000000000606482015260840161084d565b60075460ff16611d08576008546040517fc8345a34000000000000000000000000000000000000000000000000000000008152600160a060020a039091169063c8345a3490611cd290859085903390600401615197565b600060405180830381600087803b158015611cec57600080fd5b505af1158015611d00573d6000803e3d6000fd5b505050505050565b6040805142602080830191909152448284015233606060020a0260608301528251605481840301815260749092019092528051910120309063db48a8889084908490611d5c90662386f26fc100009061568e565b336040518563ffffffff1660e060020a028152600401611cd294939291906151cd565b5050565b600354600160a060020a03163314611db05760405160e560020a62461bcd02815260040161084d906153c8565b60058190556040518181527f38fbb1c8b109c430f0c030e7ed076cf5611a307773a4e8e365601e8f8bceaec69060200161127f565b600354600160a060020a03163314611e125760405160e560020a62461bcd02815260040161084d906153c8565b600380547affffff000000000000000000000000000000000000000000000000191660c060020a62ffffff8481168202929092179283905560405192041681527fb7d28e616ee42c9b98a93c9bc72ee6f206603cd1e23793ae33c19c3c3b86c4e19060200161127f565b600354600160a060020a03163314611ea95760405160e560020a62461bcd02815260040161084d906153c8565b60035461010060a060020a90910460ff1610611f0a5760405160e560020a62461bcd02815260206004820152601e60248201527f546865204e4654205374756666206c696d697420697320726561636865640000604482015260640161084d565b611f3730600360149054906101000a900460ff1660ff168860405180602001604052806000815250613cb9565b6040518060c00160405280600360149054906101000a900460ff1660ff1681526020018660ff1681526020018560ff1681526020018460ff1681526020018360ff168152602001826001811115611f9057611f906156d4565b905260035460ff60a060020a90910481166000908152600a60209081526040918290208451815492860151938601516060870151608088015187166401000000000264ff000000001991881663010000000263ff0000001993891662010000029390931663ffff0000199789166101000261ffff199097169490981693909317949094179490941694909417929092179081168317825560a08401519192839165ff00000000001990911665ffff00000000199091161765010000000000836001811115612060576120606156d4565b0217905550506003805460a060020a900460ff16915060146120818361564c565b91906101000a81548160ff021916908360ff16021790555050505050505050565b600354600160a060020a031633146120cf5760405160e560020a62461bcd02815260040161084d906153c8565b600354600160a060020a0316604051600160a060020a039190911690303180156108fc02916000818181858888f19350505050158015612113573d6000803e3d6000fd5b50565b611d7f338383613de2565b60ff81166121745760405160e560020a62461bcd02815260206004820152601260248201527f4e6f6e2d6578697374656e742073747566660000000000000000000000000000604482015260640161084d565b612181308260ff166107d0565b6121d05760405160e560020a62461bcd02815260206004820152601760248201527f5374756666206e6f206d6f726520617661696c61626c65000000000000000000604482015260640161084d565b60065434146122245760405160e560020a62461bcd02815260206004820152601460248201527f57726f6e6720616d6f756e74206f662066656573000000000000000000000000604482015260640161084d565b6040517ff242432a000000000000000000000000000000000000000000000000000000008152309063f242432a906122679083903390869060019060040161508a565b600060405180830381600087803b15801561228157600080fd5b505af1158015612295573d6000803e3d6000fd5b505060405160ff841681527f4afa87c6ddce4f5aa8b4ca6a375ecd27ea57ee7fec3e1648ceeea5c9dd19a2c89250602001905061127f565b6123036040805160c08101825260008082526020820181905291810182905260608101829052608081018290529060a082015290565b60ff8083166000908152600a6020908152604091829020825160c0810184528154808616825261010081048616938201939093526201000083048516938101939093526301000000820484166060840152640100000000820484166080840152919260a0840191650100000000009004166001811115612385576123856156d4565b6001811115612396576123966156d4565b90525092915050565b80826123ab8587615464565b6123b59190615464565b6123bf9190615464565b62ffffff8681166000908152600960205260409020600101546301000000900481169116146124595760405160e560020a62461bcd02815260206004820152602360248201527f57726f6e6720616d6f756e74206f6620706f696e747320746f2061747472696260448201527f7574650000000000000000000000000000000000000000000000000000000000606482015260840161084d565b62ffffff80861660009081526009602052604090208054869260159161248891859160a860020a900416615464565b82546101009290920a62ffffff8181021990931691831602179091558681166000908152600960205260409020805486935090916018916124d291859160c060020a900416615464565b82546101009290920a62ffffff818102199093169183160217909155868116600090815260096020526040902080548593509091601b9161251c91859160d860020a900416615464565b82546101009290920a62ffffff81810219909316918316021790915586811660009081526009602052604081206001018054859450909261255f91859116615464565b92506101000a81548162ffffff021916908362ffffff1602179055505050505050565b600354600160a060020a03163314806125a55750600854600160a060020a031633145b806125af57503330145b6125fe5760405160e560020a62461bcd02815260206004820181905260248201527f4e6f7420616c6c6f77656420746f2075736520746869732066756e6374696f6e604482015260640161084d565b600061260983613eda565b604080516102008101825260035460a860020a900462ffffff16815266ffffffffffffff861660208201526001918101829052606081019190915260646080820181905260a082015281519192509060c0820190839060009061266e5761266e6156ed565b602002602001015160ff1662ffffff16815260200182600181518110612696576126966156ed565b602002602001015160ff1662ffffff168152602001826002815181106126be576126be6156ed565b602002602001015160ff1662ffffff168152602001826003815181106126e6576126e66156ed565b602002602001015160ff1662ffffff168152602001600062ffffff168152602001600060ff168152602001600060ff16815260200160008152602001866002811115612734576127346156d4565b815260200185600281111561274b5761274b6156d4565b90526003805460a860020a9081900462ffffff908116600090815260096020908152604091829020865181549288015193880151606089015160808a015160a08b015160c08c015160e08d01516101008e0151968b1669ffffffffffffffffffff1990991698909817630100000066ffffffffffffff909a168a02176effffffffff0000000000000000000019166a010000000000000000000061ffff909616959095026effffff000000000000000000000000191694909417606060020a938a16939093029290921774ffffffffffff0000000000000000000000000000001916607860020a9189169190910274ffffff000000000000000000000000000000000000191617609060020a91881691909102177affffffffffff00000000000000000000000000000000000000000019169086169096027affffff00000000000000000000000000000000000000000000000019169590951760c060020a92851692909202919091177fffff000000ffffffffffffffffffffffffffffffffffffffffffffffffffffff1660d860020a94841694909402939093178355610120850151600180850180546101408901516101608a01516101808b015195881665ffffffffffff199093169290921796169094029490941767ffff0000000000001916660100000000000060ff9485160267ff000000000000001916176701000000000000009390921692909202179091556101a08401516002808401919091556101c08501519383018054939493909260ff19909116918490811115612994576129946156d4565b02179055506101e082015160038201805461ff0019166101008360028111156129bf576129bf6156d4565b02179055505050600160a060020a0382166000908152600b60205260408120805460ff16916129ed8361564c565b91906101000a81548160ff021916908360ff160217905550506004856002811115612a1a57612a1a6156d4565b60ff1681548110612a2d57612a2d6156ed565b90600052602060002090600a918282040191900660030281819054906101000a900462ffffff1680929190612a6190615618565b91906101000a81548162ffffff021916908362ffffff16021790555050612ab082600360159054906101000a900462ffffff1662ffffff16600160405180602001604052806000815250613cb9565b60035460405160a860020a90910462ffffff1681527fe227f939502c878cd77af001b21022d49a6b5ad9c3103d7ad7cacc22b89c7e189060200160405180910390a16003805460a860020a900462ffffff16906015612b0e83615618565b91906101000a81548162ffffff021916908362ffffff160217905550505050505050565b600354600160a060020a03163314612b5f5760405160e560020a62461bcd02815260040161084d906153c8565b612b7d308860ff168860405180602001604052806000815250613cb9565b8660ff16600514612ca0576040518060c001604052808860ff1681526020018660ff1681526020018560ff1681526020018460ff1681526020018360ff168152602001826001811115612bd257612bd26156d4565b905260ff8089166000908152600a60209081526040918290208451815492860151938601516060870151608088015187166401000000000264ff000000001991881663010000000263ff0000001993891662010000029390931663ffff0000199789166101000261ffff199097169490981693909317949094179490941694909417929092179081168317825560a08401519192839165ff00000000001990911665ffff00000000199091161765010000000000836001811115612c9857612c986156d4565b021790555050505b50505050505050565b60ff8262ffffff1611612d015760405160e560020a62461bcd02815260206004820152601960248201527f57726f6e67206b696e64206f66204e4654202853747566662900000000000000604482015260640161084d565b612d0f8262ffffff1661358a565b612d2e5760405160e560020a62461bcd02815260040161084d9061527a565b60ff811660051415612d855760405160e560020a62461bcd02815260206004820152601860248201527f596f752063616e2774206571756970206120706f74696f6e0000000000000000604482015260640161084d565b612d918160ff1661358a565b612de05760405160e560020a62461bcd02815260206004820152601860248201527f596f7520646f6e2774206f776e20746869732073747566660000000000000000604482015260640161084d565b60ff8082166000908152600a60205260408120546501000000000090049091169080826001811115612e1457612e146156d4565b1415612e45575062ffffff83166000908152600960205260409020600101546601000000000000900460ff16612e6d565b5062ffffff8316600090815260096020526040902060010154670100000000000000900460ff165b60ff81161561300d5760ff8082166000908152600a602090815260408083205462ffffff808a1685526009909352922080546101009093049093169291601591612ec191859160a860020a9091041661552d565b82546101009290920a62ffffff81810219909316918316021790915560ff8381166000908152600a60209081526040808320548a86168452600990925290912080546201000090920490921693509091601891612f2791859160c060020a90041661552d565b82546101009290920a62ffffff81810219909316918316021790915560ff8381166000908152600a60209081526040808320548a8616845260099092529091208054630100000090920490921693509091601b91612f8e91859160d860020a90041661552d565b82546101009290920a62ffffff81810219909316918316021790915560ff8381166000908152600a60209081526040808320548a86168452600990925282206001018054640100000000909204909316945091929091612ff09185911661552d565b92506101000a81548162ffffff021916908362ffffff1602179055505b60ff8084166000908152600a602090815260408083205462ffffff808a168552600990935292208054610100909304909316929160159161305891859160a860020a90910416615464565b82546101009290920a62ffffff81810219909316918316021790915560ff8581166000908152600a60209081526040808320548a861684526009909252909120805462010000909204909216935090916018916130be91859160c060020a900416615464565b82546101009290920a62ffffff81810219909316918316021790915560ff8581166000908152600a60209081526040808320548a8616845260099092529091208054630100000090920490921693509091601b9161312591859160d860020a900416615464565b82546101009290920a62ffffff81810219909316918316021790915560ff8581166000908152600a60209081526040808320548a8616845260099092528220600101805464010000000090920490931694509192909161318791859116615464565b92506101000a81548162ffffff021916908362ffffff160217905550600060018111156131b6576131b66156d4565b8260018111156131c8576131c86156d4565b14156132065762ffffff84166000908152600960205260409020600101805466ff0000000000001916660100000000000060ff86160217905561323c565b62ffffff84166000908152600960205260409020600101805467ff00000000000000191667010000000000000060ff8616021790555b6040805162ffffff8616815260ff851660208201527f610fb6ee23e2ff6ad836d380855fbefc8d4c765b388a588262c443f13fefc30091015b60405180910390a150505050565b61328b6146c7565b62ffffff82811660009081526009602090815260409182902082516102008101845281548086168252630100000080820466ffffffffffffff16948301949094526a0100000000000000000000810461ffff1694820194909452606060020a840485166060820152607860020a840485166080820152609060020a8404851660a082015260a860020a8404851660c082015260c060020a8404851660e082015260d860020a909304841661010084015260018101548085166101208501529182049093166101408301526601000000000000810460ff90811661016084015267010000000000000090910481166101808301526002808401546101a084015260038401549293926101c085019216908111156133a9576133a96156d4565b60028111156133ba576133ba6156d4565b81526020016003820160019054906101000a900460ff1660028111156133e2576133e26156d4565b6002811115612396576123966156d4565b600160a060020a03851633148061340f575061340f85336106f0565b6134845760405160e560020a62461bcd02815260206004820152602960248201527f455243313135353a2063616c6c6572206973206e6f74206f776e6572206e6f7260448201527f20617070726f7665640000000000000000000000000000000000000000000000606482015260840161084d565b6110ad8585858585613f78565b600354600160a060020a031633146134be5760405160e560020a62461bcd02815260040161084d906153c8565b600160a060020a03811661353d5760405160e560020a62461bcd02815260206004820152602660248201527f4f776e61626c653a206e6577206f776e657220697320746865207a65726f206160448201527f6464726573730000000000000000000000000000000000000000000000000000606482015260840161084d565b61211381613c5a565b3b151590565b6000600160e060020a031982167f4e2312e0000000000000000000000000000000000000000000000000000000001480610879575061087982614092565b600061359633836107d0565b151592915050565b62ffffff808316600090815260096020526040812054909182916135cc91606060020a909104166001615464565b62ffffff8086166000908152600960205260409020546002916136019160c060020a810482169160a860020a90910416615464565b61360b91906154bf565b613615919061550b565b62ffffff84811660009081526009602052604081205492821693509160029161364791606060020a9004166001615464565b61365191906154bf565b62ffffff8086166000908152600960205260409020600181015490546002926136849281169160d860020a900416615464565b61368e91906154bf565b613698919061550b565b62ffffff169050808210156136b257600092505050610879565b6136bc8183615551565b92505050610879565b62ffffff808416600090815260096020526040902054607860020a90041682106137245762ffffff83166000908152600960205260409020805471ffffff0000000000000000000000000000001916905561371f8461412d565b613869565b62ffffff80841660009081526009602052604090205461374d918491607860020a90041661552d565b62ffffff848116600090815260096020526040808220805471ffffff0000000000000000000000000000001916607860020a95851686021790558783168252902054919091041681106137d05762ffffff84166000908152600960205260409020805471ffffff0000000000000000000000000000001916905561371f8361412d565b62ffffff8085166000908152600960205260409020546137f9918391607860020a90041661552d565b62ffffff8581166000908152600960205260409020805471ffffff0000000000000000000000000000001916607860020a9390921692909202179055808211156138465761371f8461412d565b818111156138575761371f8361412d565b6138608461412d565b6138698361412d565b6040805162ffffff808716825285166020820152908101839052606081018290527f91ad1d4c0919e1b53fbdcec65d7dc46d5f6d4de4cbeeeef5e6f1f107d0f4e28e90608001613275565b815183511461392e5760405160e560020a62461bcd02815260206004820152602860248201527f455243313135353a2069647320616e6420616d6f756e7473206c656e6774682060448201527f6d69736d61746368000000000000000000000000000000000000000000000000606482015260840161084d565b600160a060020a0384166139575760405160e560020a62461bcd02815260040161084d906152b1565b3360005b8451811015613a41576000858281518110613978576139786156ed565b602002602001015190506000858381518110613996576139966156ed565b60209081029190910181015160008481528083526040808220600160a060020a038e1683529093529190912054909150818110156139e95760405160e560020a62461bcd02815260040161084d9061536b565b600083815260208181526040808320600160a060020a038e8116855292528083208585039055908b16825281208054849290613a26908490615482565b9250508190555050505080613a3a90615631565b905061395b565b5084600160a060020a031686600160a060020a031682600160a060020a03167f4a39dc06d4c0dbc64b70af90fd698a233a518aa5d07e595d983b8c0526c8f7fb8787604051613a91929190615169565b60405180910390a4611d008187878787876143ce565b600160a060020a038316613b265760405160e560020a62461bcd02815260206004820152602360248201527f455243313135353a206275726e2066726f6d20746865207a65726f206164647260448201527f6573730000000000000000000000000000000000000000000000000000000000606482015260840161084d565b33613b5681856000613b378761457d565b613b408761457d565b5050604080516020810190915260009052505050565b600083815260208181526040808320600160a060020a038816845290915290205482811015613bef5760405160e560020a62461bcd028152602060048201526024808201527f455243313135353a206275726e20616d6f756e7420657863656564732062616c60448201527f616e636500000000000000000000000000000000000000000000000000000000606482015260840161084d565b600084815260208181526040808320600160a060020a03898116808652918452828520888703905582518981529384018890529092908616917fc3d58168c5ae7397731d063d5bbf3d657854427343f4c083240f7aacaa2d0f62910160405180910390a45050505050565b60038054600160a060020a0383811673ffffffffffffffffffffffffffffffffffffffff19831681179093556040519116919082907f8be0079c531659141344cd1fd0a4f28419497f9722a3daafe3b4186f6b6457e090600090a35050565b600160a060020a038416613d385760405160e560020a62461bcd02815260206004820152602160248201527f455243313135353a206d696e7420746f20746865207a65726f2061646472657360448201527f7300000000000000000000000000000000000000000000000000000000000000606482015260840161084d565b33613d5281600087613d498861457d565b6110ad8861457d565b600084815260208181526040808320600160a060020a038916845290915281208054859290613d82908490615482565b90915550506040805185815260208101859052600160a060020a0380881692600092918516917fc3d58168c5ae7397731d063d5bbf3d657854427343f4c083240f7aacaa2d0f62910160405180910390a46110ad816000878787876145c8565b81600160a060020a031683600160a060020a03161415613e6d5760405160e560020a62461bcd02815260206004820152602960248201527f455243313135353a2073657474696e6720617070726f76616c2073746174757360448201527f20666f722073656c660000000000000000000000000000000000000000000000606482015260840161084d565b600160a060020a03838116600081815260016020908152604080832094871680845294825291829020805460ff191686151590811790915591519182527f17307eab39ab6107e8899845ad3d59bd9653f200f220920489ca2b5937696c31910160405180910390a3505050565b60408051600480825260a08201909252606091600091906020820160808036833701905050905060005b60048160ff1610156114d5576003613f1d82600a61549a565b613f2a9060ff168661568e565b613f34919061568e565b613f3f90600361549a565b828260ff1681518110613f5457613f546156ed565b60ff9092166020928302919091019091015280613f708161564c565b915050613f04565b600160a060020a038416613fa15760405160e560020a62461bcd02815260040161084d906152b1565b33613fb1818787613d498861457d565b600084815260208181526040808320600160a060020a038a16845290915290205483811015613ff55760405160e560020a62461bcd02815260040161084d9061536b565b600085815260208181526040808320600160a060020a038b8116855292528083208785039055908816825281208054869290614032908490615482565b90915550506040805186815260208101869052600160a060020a03808916928a821692918616917fc3d58168c5ae7397731d063d5bbf3d657854427343f4c083240f7aacaa2d0f62910160405180910390a4612ca08288888888886145c8565b6000600160e060020a031982167fd9b67a260000000000000000000000000000000000000000000000000000000014806140f55750600160e060020a031982167f0e89341c00000000000000000000000000000000000000000000000000000000145b8061087957507f01ffc9a700000000000000000000000000000000000000000000000000000000600160e060020a0319831614610879565b62ffffff80821660009081526009602052604090208054606060020a900490911690600c61415a83615618565b82546101009290920a62ffffff81810219909316918316021790915582811660009081526009602052604090205461419e9250600a91606060020a9091041661566c565b62ffffff166121135762ffffff8116600090815260096020526040902080546a0100000000000000000000900461ffff1690600a6141db836155f6565b825461ffff9182166101009390930a92830291909202199091161790555062ffffff80821660009081526009602052604090206001018054600a9260039161422c9185916301000000900416615464565b825461010092830a62ffffff8181021990921692821602919091179092556007549184166000908152600960205260409020549104600160a060020a031691506324ff2acc903390614291906a0100000000000000000000900461ffff16600a6154e1565b61429c90606461543e565b60405160e060020a63ffffffff8516028152600160a060020a03909216600483015261ffff166024820152604401600060405180830381600087803b1580156142e457600080fd5b505af11580156142f8573d6000803e3d6000fd5b50506040517ff242432a00000000000000000000000000000000000000000000000000000000815230925063f242432a9150614340908390339060059060019060040161508a565b600060405180830381600087803b15801561435a57600080fd5b505af115801561436e573d6000803e3d6000fd5b5050505062ffffff81166000818152600960209081526040918290205482519384526a0100000000000000000000900461ffff16908301527f719792e6ed880d27219754d543fad5ae2f877eeff920d283bb067052d8937811910161127f565b600160a060020a0384163b15611d00576040517fbc197c81000000000000000000000000000000000000000000000000000000008152600160a060020a0385169063bc197c819061442b9089908990889088908890600401614fe9565b602060405180830381600087803b15801561444557600080fd5b505af1925050508015614475575060408051601f3d908101601f1916820190925261447291810190614b38565b60015b6145315761448161571f565b806308c379a014156144be575061449661573f565b806144a157506144c0565b8060405160e560020a62461bcd02815260040161084d919061520a565b505b60405160e560020a62461bcd02815260206004820152603460248201527f455243313135353a207472616e7366657220746f206e6f6e204552433131353560448201527f526563656976657220696d706c656d656e746572000000000000000000000000606482015260840161084d565b600160e060020a031981167fbc197c810000000000000000000000000000000000000000000000000000000014612ca05760405160e560020a62461bcd02815260040161084d9061521d565b604080516001808252818301909252606091600091906020808301908036833701905050905082816000815181106145b7576145b76156ed565b602090810291909101015292915050565b600160a060020a0384163b15611d00576040517ff23a6e61000000000000000000000000000000000000000000000000000000008152600160a060020a0385169063f23a6e61906146259089908990889088908890600401615047565b602060405180830381600087803b15801561463f57600080fd5b505af192505050801561466f575060408051601f3d908101601f1916820190925261466c91810190614b38565b60015b61467b5761448161571f565b600160e060020a031981167ff23a6e610000000000000000000000000000000000000000000000000000000014612ca05760405160e560020a62461bcd02815260040161084d9061521d565b6040805161020081018252600080825260208201819052918101829052606081018290526080810182905260a0810182905260c0810182905260e08101829052610100810182905261012081018290526101408101829052610160810182905261018081018290526101a08101829052906101c082019081526020016000905290565b8035600160a060020a038116811461476157600080fd5b919050565b600082601f83011261477757600080fd5b813560206147848261541a565b60405161479182826155c9565b8381528281019150858301838502870184018810156147af57600080fd5b60005b858110156147ce578135845292840192908401906001016147b2565b5090979650505050505050565b600082601f8301126147ec57600080fd5b813567ffffffffffffffff81111561480657614806615706565b60405161481d601f8301601f1916602001826155c9565b81815284602083860101111561483257600080fd5b816020850160208301376000918101602001919091529392505050565b80356002811061476157600080fd5b803562ffffff8116811461476157600080fd5b803560ff8116811461476157600080fd5b60006020828403121561489457600080fd5b61489d8261474a565b9392505050565b600080604083850312156148b757600080fd5b6148c08361474a565b91506148ce6020840161474a565b90509250929050565b600080600080600060a086880312156148ef57600080fd5b6148f88661474a565b94506149066020870161474a565b9350604086013567ffffffffffffffff8082111561492357600080fd5b61492f89838a01614766565b9450606088013591508082111561494557600080fd5b61495189838a01614766565b9350608088013591508082111561496757600080fd5b50614974888289016147db565b9150509295509295909350565b600080600080600060a0868803121561499957600080fd5b6149a28661474a565b94506149b06020870161474a565b93506040860135925060608601359150608086013567ffffffffffffffff8111156149da57600080fd5b614974888289016147db565b600080604083850312156149f957600080fd5b614a028361474a565b915060208301358015158114614a1757600080fd5b809150509250929050565b60008060408385031215614a3557600080fd5b614a3e8361474a565b946020939093013593505050565b60008060408385031215614a5f57600080fd5b823567ffffffffffffffff80821115614a7757600080fd5b818501915085601f830112614a8b57600080fd5b81356020614a988261541a565b604051614aa582826155c9565b8381528281019150858301838502870184018b1015614ac357600080fd5b600096505b84871015614aed57614ad98161474a565b835260019690960195918301918301614ac8565b5096505086013592505080821115614b0457600080fd5b50614b1185828601614766565b9150509250929050565b600060208284031215614b2d57600080fd5b813561489d816157d9565b600060208284031215614b4a57600080fd5b815161489d816157d9565b60008060408385031215614b6857600080fd5b8235614b73816157ef565b91506020830135614a17816157ef565b60008060008060808587031215614b9957600080fd5b8435614ba4816157ef565b93506020850135614bb4816157ef565b925060408501359150614bc96060860161474a565b905092959194509250565b600060208284031215614be657600080fd5b61489d8261485e565b60008060408385031215614c0257600080fd5b614c0b8361485e565b91506148ce6020840161485e565b600080600080600060a08688031215614c3157600080fd5b614c3a8661485e565b9450614c486020870161485e565b9350614c566040870161485e565b9250614c646060870161485e565b9150614c726080870161485e565b90509295509295909350565b60008060408385031215614c9157600080fd5b614c9a8361485e565b91506148ce60208401614871565b600060208284031215614cba57600080fd5b5035919050565b60008060008060008060c08789031215614cda57600080fd5b86359550614cea60208801614871565b9450614cf860408801614871565b9350614d0660608801614871565b9250614d1460808801614871565b9150614d2260a0880161484f565b90509295509295509295565b600060208284031215614d4057600080fd5b61489d82614871565b600080600080600080600060e0888a031215614d6457600080fd5b614d6d88614871565b965060208801359550614d8260408901614871565b9450614d9060608901614871565b9350614d9e60808901614871565b9250614dac60a08901614871565b9150614dba60c0890161484f565b905092959891949750929550565b600081518084526020808501945080840160005b83811015614df857815187529582019590820190600101614ddc565b509495945050505050565b6000815180845260005b81811015614e2957602081850181015186830182015201614e0d565b81811115614e3b576000602083870101525b50601f01601f19169290920160200192915050565b614e59816157c9565b9052565b805162ffffff1682526020810151614e80602084018266ffffffffffffff169052565b506040810151614e96604084018261ffff169052565b506060810151614ead606084018262ffffff169052565b506080810151614ec4608084018262ffffff169052565b5060a0810151614edb60a084018262ffffff169052565b5060c0810151614ef260c084018262ffffff169052565b5060e0810151614f0960e084018262ffffff169052565b506101008181015162ffffff908116918401919091526101208083015182169084015261014080830151909116908301526101608082015160ff9081169184019190915261018080830151909116908301526101a080820151908301526101c080820151614f7982850182614e50565b50506101e080820151610f0a82850182614e50565b60ff815116825260ff602082015116602083015260ff604082015116604083015260ff606082015116606083015260ff608082015116608083015260a081015160028110614fde57614fde6156d4565b8060a0840152505050565b6000600160a060020a03808816835280871660208401525060a0604083015261501560a0830186614dc8565b82810360608401526150278186614dc8565b9050828103608084015261503b8185614e03565b98975050505050505050565b6000600160a060020a03808816835280871660208401525084604083015283606083015260a0608083015261507f60a0830184614e03565b979650505050505050565b600160a060020a03948516815292909316602083015260ff166040820152606081019190915260a06080820181905260009082015260c00190565b6020808252825182820181905260009190848201906040850190845b81811015615108576150f4838551614e5d565b9284019261020092909201916001016150e1565b50909695505050505050565b6020808252825182820181905260009190848201906040850190845b8181101561510857615143838551614f8e565b9284019260c09290920191600101615130565b60208152600061489d6020830184614dc8565b60408152600061517c6040830185614dc8565b828103602084015261518e8185614dc8565b95945050505050565b606081016151a4856157c9565b8482526151b0846157c9565b836020830152600160a060020a0383166040830152949350505050565b608081016151da866157c9565b8582526151e6856157c9565b846020830152836040830152600160a060020a038316606083015295945050505050565b60208152600061489d6020830184614e03565b60208082526028908201527f455243313135353a204552433131353552656365697665722072656a6563746560408201527f6420746f6b656e73000000000000000000000000000000000000000000000000606082015260800190565b60208082526016908201527f596f7520646f6e2774206f776e2074686973204e465400000000000000000000604082015260600190565b60208082526025908201527f455243313135353a207472616e7366657220746f20746865207a65726f20616460408201527f6472657373000000000000000000000000000000000000000000000000000000606082015260800190565b60208082526022908201527f596f752772652063686172616374657220697320616c7265616479207265737460408201527f6564000000000000000000000000000000000000000000000000000000000000606082015260800190565b6020808252602a908201527f455243313135353a20696e73756666696369656e742062616c616e636520666f60408201527f72207472616e7366657200000000000000000000000000000000000000000000606082015260800190565b6020808252818101527f4f776e61626c653a2063616c6c6572206973206e6f7420746865206f776e6572604082015260600190565b61020081016108798284614e5d565b60c081016108798284614f8e565b600067ffffffffffffffff82111561543457615434615706565b5060209081020190565b600061ffff80831681851680830382111561545b5761545b6156a2565b01949350505050565b600062ffffff80831681851680830382111561545b5761545b6156a2565b60008219821115615495576154956156a2565b500190565b600060ff821660ff84168060ff038211156154b7576154b76156a2565b019392505050565b600062ffffff808416806154d5576154d56156bb565b92169190910492915050565b600061ffff80831681851681830481118215151615615502576155026156a2565b02949350505050565b600062ffffff80831681851681830481118215151615615502576155026156a2565b600062ffffff83811690831681811015615549576155496156a2565b039392505050565b600082821015615563576155636156a2565b500390565b600060ff821660ff841680821015615582576155826156a2565b90039392505050565b60028104600182168061559f57607f821691505b602082108114156155c35760e060020a634e487b7102600052602260045260246000fd5b50919050565b601f8201601f1916810167ffffffffffffffff811182821017156155ef576155ef615706565b6040525050565b600061ffff8083168181141561560e5761560e6156a2565b6001019392505050565b600062ffffff8083168181141561560e5761560e6156a2565b6000600019821415615645576156456156a2565b5060010190565b600060ff821660ff811415615663576156636156a2565b60010192915050565b600062ffffff80841680615682576156826156bb565b92169190910692915050565b60008261569d5761569d6156bb565b500690565b60e060020a634e487b7102600052601160045260246000fd5b60e060020a634e487b7102600052601260045260246000fd5b60e060020a634e487b7102600052602160045260246000fd5b60e060020a634e487b7102600052603260045260246000fd5b60e060020a634e487b7102600052604160045260246000fd5b600060033d111561573c5760046000803e60e060020a6000510490505b90565b600060443d101561574d5790565b6040516003193d81016004833e81513d67ffffffffffffffff816024840111818411171561577d57505050505090565b82850191508151818111156157955750505050505090565b843d87010160208285010111156157af5750505050505090565b6157be602082860101876155c9565b509095945050505050565b60038110612113576121136156d4565b600160e060020a03198116811461211357600080fd5b6003811061211357600080fdfea264697066735822122031e01694a32a2751367d3606c3df9809215b193320f953840e749158bd12507e64736f6c63430008070033",
  "immutableReferences": {},
  "source": "// SPDX-License-Identifier: MIT\r\npragma solidity 0.8.7;\r\n\r\nimport \"@openzeppelin/contracts/token/ERC1155/ERC1155.sol\";\r\nimport \"@openzeppelin/contracts/token/ERC1155/utils/ERC1155Holder.sol\";\r\nimport \"@openzeppelin/contracts/access/Ownable.sol\";\r\nimport \"./RandomNumberGenerator.sol\";\r\nimport \"./UnlimitedToken.sol\";\r\n\r\n/** @title Unlimited Evolution */\r\ncontract UnlimitedEvolution is ERC1155, ERC1155Holder, Ownable {\r\n\r\n    /**\r\n     * @dev Allows you to receive ERC1155 tokens and therefore make external calls to mint.\r\n     * @param interfaceId Id of the interface.\r\n     */\r\n    function supportsInterface(bytes4 interfaceId) public view virtual override(ERC1155, ERC1155Receiver) returns(bool) {\r\n        return super.supportsInterface(interfaceId);\r\n    }\r\n\r\n    uint8 constant BASIC_SWORD = 1;\r\n    uint8 constant BASIC_SHIELD = 2;\r\n    uint8 constant EXCALIBUR = 3;\r\n    uint8 constant AEGIS = 4;\r\n    uint8 constant POTION = 5;\r\n    uint8 nextStuffId = 6;\r\n    uint24 nextCharacterId = 256;\r\n    uint24 limitMint = 4000;\r\n    uint24[] countMints = new uint8[](3);\r\n    uint256 mintFee = 0.001 ether;\r\n    uint256 stuffFee = 0.001 ether;\r\n    // Only for tests, to avoid chainlink\r\n    bool public testMode;\r\n    \r\n    UnlimitedToken public unlimitedToken;\r\n    RandomNumberGenerator public randomNumberGenerator;\r\n\r\n    enum type_character { BRUTE, SPIRITUAL, ELEMENTARY }\r\n    enum gender_character { MASCULINE, FEMININE, OTHER }\r\n    enum type_stuff { WEAPON, SHIELD }\r\n\r\n    struct Character {\r\n        uint24 id;\r\n        uint56 dna;\r\n        uint16 level;\r\n        uint24 xp;\r\n        uint24 hp;\r\n        uint24 stamina;\r\n        uint24 attack1;\r\n        uint24 attack2;\r\n        uint24 defence1;\r\n        uint24 defence2;\r\n        uint24 attributePoints;\r\n        uint8 weapon;\r\n        uint8 shield;\r\n        uint256 lastRest;\r\n        type_character typeCharacter;\r\n        gender_character genderCharacter;\r\n    }\r\n\r\n    struct Stuff {\r\n        uint8 id;\r\n        uint8 bonusAttack1;\r\n        uint8 bonusAttack2;\r\n        uint8 bonusDefence1;\r\n        uint8 bonusDefence2;\r\n        type_stuff typeStuff;\r\n    }\r\n\r\n    // Mapping from token ID to token details\r\n    mapping(uint24 => Character) private _characterDetails;\r\n\r\n    // Mapping from token ID to token details\r\n    mapping(uint8 => Stuff) private _stuffDetails;\r\n\r\n    // Mapping from account to his number of NFTs\r\n    mapping(address => uint8) private _balanceOfCharacters;\r\n\r\n    /**\r\n     * @dev Constructor of the contract ERC1155, mint stuff and add it to the mapping.\r\n     * @param _unlimitedTokenAddress Address of the contract UnlimitedToken.\r\n     * @param _randomNumberGenerator Address of the contract RandomNumberGenerator.\r\n     */\r\n    constructor(UnlimitedToken _unlimitedTokenAddress, RandomNumberGenerator _randomNumberGenerator) ERC1155(\"\") {\r\n        unlimitedToken = _unlimitedTokenAddress;\r\n        randomNumberGenerator = _randomNumberGenerator;\r\n        _mint(address(this), BASIC_SWORD, 10**5, \"\");\r\n        _stuffDetails[BASIC_SWORD] = Stuff(BASIC_SWORD, 2, 2, 0, 0, type_stuff.WEAPON);\r\n        _mint(address(this), BASIC_SHIELD, 10**5, \"\");\r\n        _stuffDetails[BASIC_SHIELD] = Stuff(BASIC_SHIELD, 0, 0, 2, 2, type_stuff.SHIELD);\r\n        _mint(address(this), EXCALIBUR, 1, \"\");\r\n        _stuffDetails[EXCALIBUR] = Stuff(EXCALIBUR, 10, 10, 10, 10, type_stuff.WEAPON);\r\n        _mint(address(this), AEGIS, 1, \"\");\r\n        _stuffDetails[AEGIS] = Stuff(AEGIS, 10, 10, 10, 10, type_stuff.SHIELD); \r\n        _mint(address(this), POTION, 10**6, \"\");\r\n    }\r\n\r\n    /**\r\n     * @dev Emitted when the character with \"id\" is created.\r\n     */\r\n    event CharacterCreated(uint24 id);\r\n\r\n    /**\r\n     * @dev Emitted when the character with \"id\" is rested, he recovers health points and stamina.\r\n     */\r\n    event Rested(uint24 tokenId);\r\n\r\n    /**\r\n     * @dev Emitted when the character with \"myTokenId\" removes \"substrateLifeToRival\" points of hp to \"rivalTokenId\" and the character with \"rivalTokenId\" removes \"substrateLifeToMe\" points of hp to \"myTokenId\".\r\n     */\r\n    event Fighted(uint24 myTokenId, uint24 rivalTokenId, uint256 substrateLifeToRival, uint256 substrateLifeToMe);\r\n    \r\n    /**\r\n     * @dev Emitted when the character with \"tokenId\" has gained enough experience points to increase one level.\r\n     */\r\n    event LevelUp(uint24 tokenId, uint16 level);\r\n\r\n    /**\r\n     * @dev Emitted when the owner changes the ether fee for minting, with the amount \"mintFee\".\r\n     */\r\n    event MintFeeUpdated(uint256 mintFee);\r\n\r\n    /**\r\n     * @dev Emitted when the owner changes the ether fee for buying stuff, with the amount \"stuffFee\".\r\n     */\r\n    event StuffFeeUpdated(uint256 stuffFee);\r\n\r\n    /**\r\n     * @dev Emitted when the owner changes the mintable NFT limit with the amount \"limitMint\".\r\n     */\r\n    event LimitUpdated(uint24 limitMint);\r\n\r\n    /**\r\n     * @dev Emitted when the msg.sender buy a stuff \".\r\n     */\r\n    event StuffBought(uint8 stuffId);\r\n\r\n    /**\r\n     * @dev Emitted when the msg.sender burn a potion.\r\n     */\r\n    event StuffEquiped(uint24 tokenId, uint8 stuffId);\r\n\r\n    /**\r\n     * @dev Emitted when the msg.sender burn a potion.\r\n     */\r\n    event PotionUsed(uint24 tokenId);\r\n\r\n    /**\r\n     * @dev The function changes the ERC20 token address\r\n     * @param _tokenAddress New token address.\r\n     */\r\n    function setTokenAddress(address _tokenAddress) external onlyOwner {\r\n        unlimitedToken = UnlimitedToken(_tokenAddress);\r\n    }\r\n\r\n    /**\r\n     * @dev The function changes the Chainlink Random Number Generator address\r\n     * @param _randomAddress New token address.\r\n     */\r\n    function setLinkAddress(address _randomAddress) external onlyOwner {\r\n        randomNumberGenerator = RandomNumberGenerator(_randomAddress);\r\n    }\r\n    \r\n    /**\r\n     * @dev The function changes the ether fee for minting.\r\n     * @param _mintFee New amount of fee.\r\n     * Emits a \"MintFeeUpdated\" event.\r\n     */\r\n    function updateMintFee(uint256 _mintFee) external onlyOwner {\r\n        mintFee = _mintFee;\r\n        emit MintFeeUpdated(mintFee);\r\n    }\r\n\r\n    /**\r\n     * @dev The function changes the ether fee for buying stuff.\r\n     * @param _stuffFee New amount of stuff fee.\r\n     * Emits a \"StuffFeeUpdated\" event.\r\n     */\r\n    function updateStuffFee(uint256 _stuffFee) external onlyOwner {\r\n        stuffFee = _stuffFee;\r\n        emit StuffFeeUpdated(stuffFee);\r\n    }\r\n\r\n    /**\r\n     * @dev The function changes the mintable NFT limit.\r\n     * @param _limitMint New limit of mintable NFT.\r\n     * Emits a \"LimitUpdated\" event.\r\n     */\r\n    function updateLimitMint(uint24 _limitMint) external onlyOwner {\r\n        limitMint = _limitMint;\r\n        emit LimitUpdated(limitMint);\r\n    }\r\n    \r\n    /**\r\n     * @dev Owner withdraws the entire amount of ETH.\r\n     */\r\n    function withdrawEth() external onlyOwner {\r\n        payable(owner()).transfer(address(this).balance);\r\n    }\r\n\r\n    /**\r\n     * @dev Owner withdraws an amount of LINK.\r\n     * @param value Value of LINK.\r\n     */\r\n    function withdrawLink(uint256 value) external onlyOwner {\r\n        randomNumberGenerator.withdraw(value);\r\n    }\r\n\r\n    /**\r\n     * @dev Tip to simulate the function ownerOf of ERC721, check if msg.sender is owner of the token.\r\n     * @param _tokenId Id of the token.\r\n     * @return Boolean, true of false.\r\n     */\r\n    function _ownerOf(uint256 _tokenId) private view returns(bool) {\r\n        return balanceOf(msg.sender, _tokenId) != 0;\r\n    }\r\n\r\n    /**\r\n     * @dev Allows you to create a new Stuff.\r\n     * Warning: Prefer to use createStuff() rather than manageStuff(), more secure with nextStuffId.\r\n     * @param amount Amount of NFT mintable.\r\n     * @param bonusAttack1 Bonus value attack1.\r\n     * @param bonusAttack2 Bonus value attack2.\r\n     * @param bonusDefence1 Bonus value defence1.\r\n     * @param bonusDefence2 Bonus value defence2.\r\n     * @param typeStuff Type of the stuff.\r\n     */\r\n    function createStuff(uint256 amount, uint8 bonusAttack1, uint8 bonusAttack2, uint8 bonusDefence1, uint8 bonusDefence2, type_stuff typeStuff) external onlyOwner {\r\n        require(nextStuffId < 256, \"The NFT Stuff limit is reached\");\r\n        _mint(address(this), nextStuffId, amount, \"\");\r\n        _stuffDetails[nextStuffId] = Stuff(nextStuffId, bonusAttack1, bonusAttack2, bonusDefence1, bonusDefence2, typeStuff);\r\n        nextStuffId++;\r\n    }\r\n\r\n    /**\r\n     * @dev Allows you to create a new Stuff/Consumable and to modify the quantity, statistics and type of an existing NFT Stuff.\r\n     * Warning: Be extremely careful with this function ! If you want to create a new NFT Stuff, prefer to use createStuff() !\r\n     * @param stuffId Id of the stuff.\r\n     * @param amount Amount of NFT mintable.\r\n     * @param bonusAttack1 Bonus value attack1.\r\n     * @param bonusAttack2 Bonus value attack2.\r\n     * @param bonusDefence1 Bonus value defence1.\r\n     * @param bonusDefence2 Bonus value defence2.\r\n     * @param typeStuff Type of the stuff.\r\n     */\r\n    function manageStuff(uint8 stuffId, uint256 amount, uint8 bonusAttack1, uint8 bonusAttack2, uint8 bonusDefence1, uint8 bonusDefence2, type_stuff typeStuff) external onlyOwner {\r\n        _mint(address(this), stuffId, amount, \"\");\r\n        if (stuffId != 5) {\r\n            _stuffDetails[stuffId] = Stuff(stuffId, bonusAttack1, bonusAttack2, bonusDefence1, bonusDefence2, typeStuff);\r\n        }\r\n    }\r\n\r\n    /**\r\n     * @dev The function assigns a number between 3 and 5 randomly to the attack characteristics using \"randomNumber\".\r\n     * @param randomNumber Random number from chainlink.\r\n     * @return Array of number (attributes).\r\n     */\r\n    function _attributesMintDistribution(uint256 randomNumber) private pure returns(uint8[] memory) {\r\n        uint8[] memory _attributes = new uint8[](4);\r\n        for(uint8 i=0; i<4; i++) {\r\n            _attributes[i] = 3 + uint8((randomNumber % (10+i)) % 3);\r\n        }\r\n        return _attributes;\r\n    }\r\n\r\n    /**\r\n     * @dev One experience point is added and if the experience number reaches % 10 == 0 then the NFT increases one level and gains 10 points to attribute to his stats.\r\n     * @param _tokenId Id of the token.\r\n     * Emits a \"LevelUp\" event.\r\n     */\r\n    function _xpLevelUp(uint24 _tokenId) private {\r\n        _characterDetails[_tokenId].xp++;\r\n        if (_characterDetails[_tokenId].xp % 10 == 0) {\r\n            _characterDetails[_tokenId].level++;\r\n            _characterDetails[_tokenId].attributePoints += 10;\r\n            unlimitedToken.levelUpMint(msg.sender, _characterDetails[_tokenId].level*10+100);\r\n            this.safeTransferFrom(address(this), msg.sender, POTION, 1, \"\");\r\n            emit LevelUp(_tokenId, _characterDetails[_tokenId].level);\r\n        }\r\n    }\r\n\r\n    /**\r\n     * @dev The function allows the allocation of \"attributePoints\" to the different characteristics.\r\n     * @param _tokenId Id of the token.\r\n     * @param _attack1 Attack number 1 of the token.\r\n     * @param _attack2 Attack number 2 of the token.\r\n     * @param _defence1 Defence number 1 of the token.\r\n     * @param _defence2 Defence number 2 of the token.\r\n     */\r\n    function attributesLevelUp(uint24 _tokenId, uint24 _attack1, uint24 _attack2, uint24 _defence1, uint24 _defence2) external {\r\n        require(_characterDetails[_tokenId].attributePoints == _attack1 + _attack2 + _defence1 + _defence2, \"Wrong amount of points to attribute\");\r\n        _characterDetails[_tokenId].attack1 += _attack1;\r\n        _characterDetails[_tokenId].attack2 += _attack2;\r\n        _characterDetails[_tokenId].defence1 += _defence1;\r\n        _characterDetails[_tokenId].defence2 += _defence2;\r\n    }\r\n\r\n    /**\r\n     * @dev Fight algorithm: attack, defence and experience points are taken into account to determine a winner.\r\n     * @param _id1 Id of the token number 1.\r\n     * @param _id2 Id of the token number 2.\r\n     * @return Number resulting from fight operations.\r\n     */\r\n    function _substrateLife(uint24 _id1, uint24 _id2) private view returns(uint256) {\r\n        uint256 op1 = ((_characterDetails[_id1].attack1 + _characterDetails[_id1].attack2) / 2) * (1 + _characterDetails[_id1].xp);\r\n        uint256 op2 = ((_characterDetails[_id2].defence1 + _characterDetails[_id2].defence2 ) / 2) * ((1 + _characterDetails[_id2].xp) / 2);\r\n        if (op1 < op2) {\r\n            return 0;\r\n        } else {\r\n            return op1 - op2;\r\n        }\r\n    }\r\n\r\n    /**\r\n     * @dev The Function manages the different scenarios during a fight.\r\n     * @param _myTokenId Id of the token number 1.\r\n     * @param _rivalTokenId Id of the token number 2.\r\n     * @param _substrateLifeToRival Number of life points to remove from _rivalTokenId.\r\n     * @param _substrateLifeToMe Number of life points to remove from _myTokenId.\r\n     * Emits a \"Fighted\" event.\r\n     */\r\n    function _subtrateLifeOperation(uint24 _myTokenId, uint24 _rivalTokenId, uint256 _substrateLifeToRival, uint256 _substrateLifeToMe) private {\r\n        if(_substrateLifeToRival >= _characterDetails[_rivalTokenId].hp) {\r\n            _characterDetails[_rivalTokenId].hp = 0;\r\n            _xpLevelUp(_myTokenId);\r\n        } else {\r\n            _characterDetails[_rivalTokenId].hp = _characterDetails[_rivalTokenId].hp - uint24(_substrateLifeToRival);\r\n            if(_substrateLifeToMe >= _characterDetails[_myTokenId].hp) {\r\n                _characterDetails[_myTokenId].hp = 0;\r\n                _xpLevelUp(_rivalTokenId);\r\n            } else {\r\n                _characterDetails[_myTokenId].hp = _characterDetails[_myTokenId].hp - uint24(_substrateLifeToMe);\r\n                if (_substrateLifeToRival > _substrateLifeToMe) {\r\n                    _xpLevelUp(_myTokenId);\r\n                } else if (_substrateLifeToMe > _substrateLifeToRival) {\r\n                    _xpLevelUp(_rivalTokenId);\r\n                } else {\r\n                    _xpLevelUp(_myTokenId);\r\n                    _xpLevelUp(_rivalTokenId);\r\n                }\r\n            }\r\n        }\r\n        emit Fighted(_myTokenId, _rivalTokenId, _substrateLifeToRival, _substrateLifeToMe);\r\n    }\r\n\r\n    /**\r\n     * @dev The Function ask to Chainlink a random number before to mint an NFT.\r\n     * @param _typeCharacter Type of character between BRUTE, SPIRITUAL, ELEMENTARY.\r\n     * @param _genderCharacter Gender of character between MASCULINE, FEMININE, OTHER.\r\n     */\r\n    function askCreateCharacter(type_character _typeCharacter, gender_character _genderCharacter) external payable {\r\n        require(msg.value == mintFee, \"Wrong amount of fees\");\r\n        require(_balanceOfCharacters[msg.sender] < 5, \"You can't have more than 5 NFT\");\r\n        require(countMints[uint8(_typeCharacter)] <= limitMint, \"You cannot mint more character with this class\");\r\n        if (!testMode) { // Only for tests, to avoid chainlink\r\n            randomNumberGenerator.getRandomNumber(_typeCharacter, _genderCharacter, msg.sender);\r\n        } else {\r\n            this.createCharacter(_typeCharacter, _genderCharacter, uint256(keccak256(abi.encodePacked(block.timestamp, block.difficulty, msg.sender))) % 10**16, msg.sender);\r\n        }\r\n    }\r\n\r\n    /**\r\n     * @dev The Function mint an NFT.\r\n     * @param _typeCharacter Type of character between BRUTE, SPIRITUAL, ELEMENTARY.\r\n     * @param _genderCharacter Gender of character between MASCULINE, FEMININE, OTHER.\r\n     * @param randomNumber Random number from chainlink.\r\n     * @param _address Address of the requestor (necessary for chainlink).\r\n     * Emits a \"CharacterCreated\" event.\r\n     */\r\n    function createCharacter(type_character _typeCharacter, gender_character _genderCharacter, uint256 randomNumber, address _address) external {\r\n        require(msg.sender == owner() || msg.sender == address(randomNumberGenerator) || msg.sender == address(this), \"Not allowed to use this function\");\r\n        uint8[] memory _attributes = _attributesMintDistribution(randomNumber);\r\n        _characterDetails[nextCharacterId] = Character(nextCharacterId, uint56(randomNumber), 1, 1, 100, 100, _attributes[0], _attributes[1], _attributes[2], _attributes[3], 0, 0, 0, 0, _typeCharacter, _genderCharacter);\r\n        _balanceOfCharacters[_address]++;\r\n        countMints[uint8(_typeCharacter)]++;\r\n        _mint(_address, nextCharacterId, 1, \"\");\r\n        emit CharacterCreated(nextCharacterId);\r\n        nextCharacterId++;\r\n    }\r\n\r\n    /**\r\n     * @dev The function allows the NFT to recover 100 health points and 100 stamina points.\r\n     * @param _tokenId Id of the token.\r\n     * Emits a \"Rested\" event.\r\n     */\r\n    function rest(uint24 _tokenId) external {\r\n        require(_ownerOf(_tokenId), \"You don't own this NFT\");\r\n        require(_characterDetails[_tokenId].stamina < 100 || _characterDetails[_tokenId].hp < 100, \"You're character is already rested\");\r\n        _characterDetails[_tokenId].lastRest = block.timestamp;\r\n        _characterDetails[_tokenId].stamina = 100;\r\n        _characterDetails[_tokenId].hp = 100;\r\n        emit Rested(_tokenId);\r\n    }\r\n\r\n    /**\r\n     * @dev The function allows you to use your NFT to fight with another NFT belonging to another user.\r\n     * @param _myTokenId Id of the fighter number 1.\r\n     * @param _rivalTokenId Id of the fighter number 2.\r\n     */\r\n    function fight(uint24 _myTokenId, uint24 _rivalTokenId) external {\r\n        require(_ownerOf(_myTokenId), \"You don't own this NFT\");\r\n        require(_ownerOf(_myTokenId) != _ownerOf(_rivalTokenId), \"Your NFTs cannot fight each other\");\r\n        require(_characterDetails[_myTokenId].lastRest + 86400 < block.timestamp, \"You're character is resting\");\r\n        require(_characterDetails[_rivalTokenId].lastRest + 86400 < block.timestamp, \"You're rival is resting\");\r\n        require(_characterDetails[_myTokenId].stamina >= 10, \"Not enough stamina\");\r\n        require(_characterDetails[_myTokenId].level <= _characterDetails[_rivalTokenId].level, \"Fight someone your own size!\");\r\n        require(_characterDetails[_myTokenId].hp > 0 && _characterDetails[_rivalTokenId].hp > 0, \"One of the NFTs is dead\");\r\n        uint256 _substrateLifeToRival = _substrateLife(_myTokenId, _rivalTokenId);\r\n        uint256 _substrateLifeToMe = _substrateLife(_rivalTokenId, _myTokenId);\r\n        _characterDetails[_myTokenId].stamina = _characterDetails[_myTokenId].stamina - 10;\r\n        _subtrateLifeOperation(_myTokenId, _rivalTokenId, _substrateLifeToRival, _substrateLifeToMe);\r\n    }\r\n\r\n    /**\r\n     * @dev The function allows you to buy a stuff NFT\r\n     * @param stuffId Id of the stuff.\r\n     * Emits a \"StuffBought\" event.\r\n     */\r\n    function buyStuff(uint8 stuffId) external payable {\r\n        require(stuffId != 0, \"Non-existent stuff\");\r\n        require(balanceOf(address(this), stuffId) != 0, \"Stuff no more available\");\r\n        require(msg.value == stuffFee, \"Wrong amount of fees\");\r\n        this.safeTransferFrom(address(this), msg.sender, stuffId, 1, \"\");\r\n        emit StuffBought(stuffId);\r\n    }\r\n\r\n    /**\r\n     * @dev The function allows you to equip stuff to your NFT\r\n     * @param tokenId Id of the token.\r\n     * @param stuffId Id of the stuff to equip.\r\n     * Emits a \"StuffEquiped\" event.\r\n     */\r\n    function equipStuff(uint24 tokenId, uint8 stuffId) external {\r\n        require(tokenId > 255, \"Wrong kind of NFT (Stuff)\");\r\n        require(_ownerOf(tokenId), \"You don't own this NFT\");\r\n        require(stuffId != POTION, \"You can't equip a potion\");\r\n        require(_ownerOf(stuffId), \"You don't own this stuff\");\r\n        type_stuff stuffType = _stuffDetails[stuffId].typeStuff;\r\n        uint8 idStuffEquiped;\r\n        if (stuffType == type_stuff.WEAPON) {\r\n            idStuffEquiped = _characterDetails[tokenId].weapon;\r\n        } else {\r\n            idStuffEquiped = _characterDetails[tokenId].shield;\r\n        }\r\n        if (idStuffEquiped != 0) {\r\n            _characterDetails[tokenId].attack1 -= _stuffDetails[idStuffEquiped].bonusAttack1;\r\n            _characterDetails[tokenId].attack2 -= _stuffDetails[idStuffEquiped].bonusAttack2;\r\n            _characterDetails[tokenId].defence1 -= _stuffDetails[idStuffEquiped].bonusDefence1;\r\n            _characterDetails[tokenId].defence2 -= _stuffDetails[idStuffEquiped].bonusDefence2;\r\n        }\r\n        _characterDetails[tokenId].attack1 += _stuffDetails[stuffId].bonusAttack1;\r\n        _characterDetails[tokenId].attack2 += _stuffDetails[stuffId].bonusAttack2;\r\n        _characterDetails[tokenId].defence1 += _stuffDetails[stuffId].bonusDefence1;\r\n        _characterDetails[tokenId].defence2 += _stuffDetails[stuffId].bonusDefence2;\r\n        if (stuffType == type_stuff.WEAPON) {\r\n            _characterDetails[tokenId].weapon = stuffId;\r\n        } else {\r\n            _characterDetails[tokenId].shield = stuffId;\r\n        }\r\n        emit StuffEquiped(tokenId, stuffId);\r\n    }\r\n\r\n    /**\r\n     * @dev The function burn a POTION and restore the hp and stamina of your NFT\r\n     * @param tokenId Id of the token.\r\n     * Emits a \"PotionUsed\" event.\r\n     */\r\n    function usePotion(uint24 tokenId) external {\r\n        require(tokenId > 255, \"Wrong kind of NFT (Stuff)\");\r\n        require(_ownerOf(tokenId), \"You don't own this NFT\");\r\n        require(_ownerOf(POTION), \"You don't own a potion\");\r\n        require(_characterDetails[tokenId].stamina < 100 || _characterDetails[tokenId].hp < 100, \"You're character is already rested\");\r\n        _burn(msg.sender, POTION, 1);\r\n        _characterDetails[tokenId].stamina = 100;\r\n        _characterDetails[tokenId].hp = 100;\r\n        emit PotionUsed(tokenId);\r\n    }\r\n\r\n    /**\r\n     * @dev The function returns the characteristics of the NFT.\r\n     * @param tokenId Id of the token.\r\n     * @return Character Details of tokenId.\r\n     */\r\n    function getTokenDetails(uint24 tokenId) external view returns(Character memory) {\r\n        return _characterDetails[tokenId];\r\n    }\r\n\r\n    /**\r\n     * @dev The function returns the characteristics of the stuff.\r\n     * @param stuffId Id of the stuff.\r\n     * @return Stuff Details of stuffId.\r\n     */\r\n    function getStuffDetails(uint8 stuffId) external view returns(Stuff memory) {\r\n        return _stuffDetails[stuffId];\r\n    }\r\n\r\n    /**\r\n     * @dev The function returns an array with the characteristics of all my NFTs.\r\n     * @return Array of characters.\r\n     */\r\n    function getMyCharacters() external view returns(Character[] memory){\r\n        uint8 count;\r\n        Character[] memory myCharacters = new Character[](_balanceOfCharacters[msg.sender]);\r\n        for (uint24 i = 256; i < nextCharacterId; i++) {\r\n            if (_ownerOf(i)) {\r\n                myCharacters[count] = _characterDetails[i];\r\n                count++;\r\n            }\r\n        }\r\n        return myCharacters;\r\n    }\r\n\r\n    /**\r\n     * @dev The function returns an array with the characteristics of all the NFTs that don't belong to me.\r\n     * @return Array of characters.\r\n     */\r\n    function getOthersCharacters() external view returns(Character[] memory){\r\n        uint24 count;\r\n        Character[] memory othersCharacters = new Character[](nextCharacterId - 256 - _balanceOfCharacters[msg.sender]);\r\n        for (uint24 i = 256; i < nextCharacterId; i++) {\r\n            if (!_ownerOf(i)) {\r\n                othersCharacters[count] = _characterDetails[i];\r\n                count++;\r\n            }\r\n        }\r\n        return othersCharacters;\r\n    }\r\n\r\n    /**\r\n     * @dev The function returns an array with the characteristics of all my Stuffs.\r\n     * @return Array of stuffs.\r\n     */\r\n    function getMyStuffs() external view returns(Stuff[] memory){\r\n        uint8 arrayCount;\r\n        for (uint8 i; i < nextStuffId; i++) {\r\n            if (i !=5 && _ownerOf(i)) {\r\n                arrayCount++;\r\n            }\r\n        }\r\n        Stuff[] memory myStuffs = new Stuff[](arrayCount);\r\n        uint8 count;\r\n        for (uint8 i; i < nextStuffId-1; i++) {\r\n            if (i !=5 && _ownerOf(i)) {\r\n                myStuffs[count] = _stuffDetails[i];\r\n                count++;\r\n            }\r\n        }\r\n        return myStuffs;\r\n    }\r\n    \r\n    // Only for tests, to avoid chainlink\r\n    function testModeSwitch() external onlyOwner {\r\n        testMode = !testMode;\r\n    }\r\n}\r\n",
  "sourcePath": "D:\\TAF\\Alyra\\ALYRA_PROJET_FINAL\\unlimited_evolution\\contracts\\UnlimitedEvolution.sol",
  "compiler": {
    "name": "solc",
    "version": "0.8.7+commit.e28d00a7.Emscripten.clang"
  },
  "schemaVersion": "3.4.3",
  "updatedAt": "2022-01-16T20:32:49.289Z",
  "networkType": "ethereum",
  "devdoc": {
    "events": {
      "CharacterCreated(uint24)": {
        "details": "Emitted when the character with \"id\" is created."
      },
      "Fighted(uint24,uint24,uint256,uint256)": {
        "details": "Emitted when the character with \"myTokenId\" removes \"substrateLifeToRival\" points of hp to \"rivalTokenId\" and the character with \"rivalTokenId\" removes \"substrateLifeToMe\" points of hp to \"myTokenId\"."
      },
      "LevelUp(uint24,uint16)": {
        "details": "Emitted when the character with \"tokenId\" has gained enough experience points to increase one level."
      },
      "LimitUpdated(uint24)": {
        "details": "Emitted when the owner changes the mintable NFT limit with the amount \"limitMint\"."
      },
      "MintFeeUpdated(uint256)": {
        "details": "Emitted when the owner changes the ether fee for minting, with the amount \"mintFee\"."
      },
      "PotionUsed(uint24)": {
        "details": "Emitted when the msg.sender burn a potion."
      },
      "Rested(uint24)": {
        "details": "Emitted when the character with \"id\" is rested, he recovers health points and stamina."
      },
      "StuffBought(uint8)": {
        "details": "Emitted when the msg.sender buy a stuff \"."
      },
      "StuffEquiped(uint24,uint8)": {
        "details": "Emitted when the msg.sender burn a potion."
      },
      "StuffFeeUpdated(uint256)": {
        "details": "Emitted when the owner changes the ether fee for buying stuff, with the amount \"stuffFee\"."
      }
    },
    "kind": "dev",
    "methods": {
      "askCreateCharacter(uint8,uint8)": {
        "details": "The Function ask to Chainlink a random number before to mint an NFT.",
        "params": {
          "_genderCharacter": "Gender of character between MASCULINE, FEMININE, OTHER.",
          "_typeCharacter": "Type of character between BRUTE, SPIRITUAL, ELEMENTARY."
        }
      },
      "attributesLevelUp(uint24,uint24,uint24,uint24,uint24)": {
        "details": "The function allows the allocation of \"attributePoints\" to the different characteristics.",
        "params": {
          "_attack1": "Attack number 1 of the token.",
          "_attack2": "Attack number 2 of the token.",
          "_defence1": "Defence number 1 of the token.",
          "_defence2": "Defence number 2 of the token.",
          "_tokenId": "Id of the token."
        }
      },
      "balanceOf(address,uint256)": {
        "details": "See {IERC1155-balanceOf}. Requirements: - `account` cannot be the zero address."
      },
      "balanceOfBatch(address[],uint256[])": {
        "details": "See {IERC1155-balanceOfBatch}. Requirements: - `accounts` and `ids` must have the same length."
      },
      "buyStuff(uint8)": {
        "details": "The function allows you to buy a stuff NFT",
        "params": {
          "stuffId": "Id of the stuff. Emits a \"StuffBought\" event."
        }
      },
      "constructor": {
        "details": "Constructor of the contract ERC1155, mint stuff and add it to the mapping.",
        "params": {
          "_randomNumberGenerator": "Address of the contract RandomNumberGenerator.",
          "_unlimitedTokenAddress": "Address of the contract UnlimitedToken."
        }
      },
      "createCharacter(uint8,uint8,uint256,address)": {
        "details": "The Function mint an NFT.",
        "params": {
          "_address": "Address of the requestor (necessary for chainlink). Emits a \"CharacterCreated\" event.",
          "_genderCharacter": "Gender of character between MASCULINE, FEMININE, OTHER.",
          "_typeCharacter": "Type of character between BRUTE, SPIRITUAL, ELEMENTARY.",
          "randomNumber": "Random number from chainlink."
        }
      },
      "createStuff(uint256,uint8,uint8,uint8,uint8,uint8)": {
        "details": "Allows you to create a new Stuff. Warning: Prefer to use createStuff() rather than manageStuff(), more secure with nextStuffId.",
        "params": {
          "amount": "Amount of NFT mintable.",
          "bonusAttack1": "Bonus value attack1.",
          "bonusAttack2": "Bonus value attack2.",
          "bonusDefence1": "Bonus value defence1.",
          "bonusDefence2": "Bonus value defence2.",
          "typeStuff": "Type of the stuff."
        }
      },
      "equipStuff(uint24,uint8)": {
        "details": "The function allows you to equip stuff to your NFT",
        "params": {
          "stuffId": "Id of the stuff to equip. Emits a \"StuffEquiped\" event.",
          "tokenId": "Id of the token."
        }
      },
      "fight(uint24,uint24)": {
        "details": "The function allows you to use your NFT to fight with another NFT belonging to another user.",
        "params": {
          "_myTokenId": "Id of the fighter number 1.",
          "_rivalTokenId": "Id of the fighter number 2."
        }
      },
      "getMyCharacters()": {
        "details": "The function returns an array with the characteristics of all my NFTs.",
        "returns": {
          "_0": "Array of characters."
        }
      },
      "getMyStuffs()": {
        "details": "The function returns an array with the characteristics of all my Stuffs.",
        "returns": {
          "_0": "Array of stuffs."
        }
      },
      "getOthersCharacters()": {
        "details": "The function returns an array with the characteristics of all the NFTs that don't belong to me.",
        "returns": {
          "_0": "Array of characters."
        }
      },
      "getStuffDetails(uint8)": {
        "details": "The function returns the characteristics of the stuff.",
        "params": {
          "stuffId": "Id of the stuff."
        },
        "returns": {
          "_0": "Stuff Details of stuffId."
        }
      },
      "getTokenDetails(uint24)": {
        "details": "The function returns the characteristics of the NFT.",
        "params": {
          "tokenId": "Id of the token."
        },
        "returns": {
          "_0": "Character Details of tokenId."
        }
      },
      "isApprovedForAll(address,address)": {
        "details": "See {IERC1155-isApprovedForAll}."
      },
      "manageStuff(uint8,uint256,uint8,uint8,uint8,uint8,uint8)": {
        "details": "Allows you to create a new Stuff/Consumable and to modify the quantity, statistics and type of an existing NFT Stuff. Warning: Be extremely careful with this function ! If you want to create a new NFT Stuff, prefer to use createStuff() !",
        "params": {
          "amount": "Amount of NFT mintable.",
          "bonusAttack1": "Bonus value attack1.",
          "bonusAttack2": "Bonus value attack2.",
          "bonusDefence1": "Bonus value defence1.",
          "bonusDefence2": "Bonus value defence2.",
          "stuffId": "Id of the stuff.",
          "typeStuff": "Type of the stuff."
        }
      },
      "owner()": {
        "details": "Returns the address of the current owner."
      },
      "renounceOwnership()": {
        "details": "Leaves the contract without owner. It will not be possible to call `onlyOwner` functions anymore. Can only be called by the current owner. NOTE: Renouncing ownership will leave the contract without an owner, thereby removing any functionality that is only available to the owner."
      },
      "rest(uint24)": {
        "details": "The function allows the NFT to recover 100 health points and 100 stamina points.",
        "params": {
          "_tokenId": "Id of the token. Emits a \"Rested\" event."
        }
      },
      "safeBatchTransferFrom(address,address,uint256[],uint256[],bytes)": {
        "details": "See {IERC1155-safeBatchTransferFrom}."
      },
      "safeTransferFrom(address,address,uint256,uint256,bytes)": {
        "details": "See {IERC1155-safeTransferFrom}."
      },
      "setApprovalForAll(address,bool)": {
        "details": "See {IERC1155-setApprovalForAll}."
      },
      "setLinkAddress(address)": {
        "details": "The function changes the Chainlink Random Number Generator address",
        "params": {
          "_randomAddress": "New token address."
        }
      },
      "setTokenAddress(address)": {
        "details": "The function changes the ERC20 token address",
        "params": {
          "_tokenAddress": "New token address."
        }
      },
      "supportsInterface(bytes4)": {
        "details": "Allows you to receive ERC1155 tokens and therefore make external calls to mint.",
        "params": {
          "interfaceId": "Id of the interface."
        }
      },
      "transferOwnership(address)": {
        "details": "Transfers ownership of the contract to a new account (`newOwner`). Can only be called by the current owner."
      },
      "updateLimitMint(uint24)": {
        "details": "The function changes the mintable NFT limit.",
        "params": {
          "_limitMint": "New limit of mintable NFT. Emits a \"LimitUpdated\" event."
        }
      },
      "updateMintFee(uint256)": {
        "details": "The function changes the ether fee for minting.",
        "params": {
          "_mintFee": "New amount of fee. Emits a \"MintFeeUpdated\" event."
        }
      },
      "updateStuffFee(uint256)": {
        "details": "The function changes the ether fee for buying stuff.",
        "params": {
          "_stuffFee": "New amount of stuff fee. Emits a \"StuffFeeUpdated\" event."
        }
      },
      "uri(uint256)": {
        "details": "See {IERC1155MetadataURI-uri}. This implementation returns the same URI for *all* token types. It relies on the token type ID substitution mechanism https://eips.ethereum.org/EIPS/eip-1155#metadata[defined in the EIP]. Clients calling this function must replace the `\\{id\\}` substring with the actual token type ID."
      },
      "usePotion(uint24)": {
        "details": "The function burn a POTION and restore the hp and stamina of your NFT",
        "params": {
          "tokenId": "Id of the token. Emits a \"PotionUsed\" event."
        }
      },
      "withdrawEth()": {
        "details": "Owner withdraws the entire amount of ETH."
      },
      "withdrawLink(uint256)": {
        "details": "Owner withdraws an amount of LINK.",
        "params": {
          "value": "Value of LINK."
        }
      }
    },
    "title": "Unlimited Evolution ",
    "version": 1
  },
  "userdoc": {
    "kind": "user",
    "methods": {},
    "version": 1
  }
}