{
  "contractName": "UnlimitedEvolution",
  "abi": [
    {
      "inputs": [
        {
          "internalType": "contract UnlimitedToken",
          "name": "_unlimitedTokenAddress",
          "type": "address"
        },
        {
          "internalType": "contract RandomNumberGenerator",
          "name": "_randomNumberGenerator",
          "type": "address"
        }
      ],
      "stateMutability": "nonpayable",
      "type": "constructor"
    },
    {
      "anonymous": false,
      "inputs": [
        {
          "indexed": true,
          "internalType": "address",
          "name": "account",
          "type": "address"
        },
        {
          "indexed": true,
          "internalType": "address",
          "name": "operator",
          "type": "address"
        },
        {
          "indexed": false,
          "internalType": "bool",
          "name": "approved",
          "type": "bool"
        }
      ],
      "name": "ApprovalForAll",
      "type": "event"
    },
    {
      "anonymous": false,
      "inputs": [
        {
          "indexed": false,
          "internalType": "uint24",
          "name": "id",
          "type": "uint24"
        }
      ],
      "name": "CharacterCreated",
      "type": "event"
    },
    {
      "anonymous": false,
      "inputs": [
        {
          "indexed": false,
          "internalType": "uint24",
          "name": "myTokenId",
          "type": "uint24"
        },
        {
          "indexed": false,
          "internalType": "uint24",
          "name": "rivalTokenId",
          "type": "uint24"
        },
        {
          "indexed": false,
          "internalType": "uint256",
          "name": "substrateLifeToRival",
          "type": "uint256"
        },
        {
          "indexed": false,
          "internalType": "uint256",
          "name": "substrateLifeToMe",
          "type": "uint256"
        }
      ],
      "name": "Fighted",
      "type": "event"
    },
    {
      "anonymous": false,
      "inputs": [
        {
          "indexed": false,
          "internalType": "uint24",
          "name": "tokenId",
          "type": "uint24"
        },
        {
          "indexed": false,
          "internalType": "uint16",
          "name": "level",
          "type": "uint16"
        }
      ],
      "name": "LevelUp",
      "type": "event"
    },
    {
      "anonymous": false,
      "inputs": [
        {
          "indexed": false,
          "internalType": "uint24",
          "name": "limitMint",
          "type": "uint24"
        }
      ],
      "name": "LimitUpdated",
      "type": "event"
    },
    {
      "anonymous": false,
      "inputs": [
        {
          "indexed": false,
          "internalType": "uint256",
          "name": "mintFee",
          "type": "uint256"
        }
      ],
      "name": "MintFeeUpdated",
      "type": "event"
    },
    {
      "anonymous": false,
      "inputs": [
        {
          "indexed": true,
          "internalType": "address",
          "name": "previousOwner",
          "type": "address"
        },
        {
          "indexed": true,
          "internalType": "address",
          "name": "newOwner",
          "type": "address"
        }
      ],
      "name": "OwnershipTransferred",
      "type": "event"
    },
    {
      "anonymous": false,
      "inputs": [
        {
          "indexed": false,
          "internalType": "uint24",
          "name": "tokenId",
          "type": "uint24"
        }
      ],
      "name": "PotionUsed",
      "type": "event"
    },
    {
      "anonymous": false,
      "inputs": [
        {
          "indexed": false,
          "internalType": "uint24",
          "name": "tokenId",
          "type": "uint24"
        }
      ],
      "name": "Rested",
      "type": "event"
    },
    {
      "anonymous": false,
      "inputs": [
        {
          "indexed": false,
          "internalType": "uint8",
          "name": "stuffId",
          "type": "uint8"
        }
      ],
      "name": "StuffBought",
      "type": "event"
    },
    {
      "anonymous": false,
      "inputs": [
        {
          "indexed": false,
          "internalType": "uint24",
          "name": "tokenId",
          "type": "uint24"
        },
        {
          "indexed": false,
          "internalType": "uint8",
          "name": "stuffId",
          "type": "uint8"
        }
      ],
      "name": "StuffEquiped",
      "type": "event"
    },
    {
      "anonymous": false,
      "inputs": [
        {
          "indexed": true,
          "internalType": "address",
          "name": "operator",
          "type": "address"
        },
        {
          "indexed": true,
          "internalType": "address",
          "name": "from",
          "type": "address"
        },
        {
          "indexed": true,
          "internalType": "address",
          "name": "to",
          "type": "address"
        },
        {
          "indexed": false,
          "internalType": "uint256[]",
          "name": "ids",
          "type": "uint256[]"
        },
        {
          "indexed": false,
          "internalType": "uint256[]",
          "name": "values",
          "type": "uint256[]"
        }
      ],
      "name": "TransferBatch",
      "type": "event"
    },
    {
      "anonymous": false,
      "inputs": [
        {
          "indexed": true,
          "internalType": "address",
          "name": "operator",
          "type": "address"
        },
        {
          "indexed": true,
          "internalType": "address",
          "name": "from",
          "type": "address"
        },
        {
          "indexed": true,
          "internalType": "address",
          "name": "to",
          "type": "address"
        },
        {
          "indexed": false,
          "internalType": "uint256",
          "name": "id",
          "type": "uint256"
        },
        {
          "indexed": false,
          "internalType": "uint256",
          "name": "value",
          "type": "uint256"
        }
      ],
      "name": "TransferSingle",
      "type": "event"
    },
    {
      "anonymous": false,
      "inputs": [
        {
          "indexed": false,
          "internalType": "string",
          "name": "value",
          "type": "string"
        },
        {
          "indexed": true,
          "internalType": "uint256",
          "name": "id",
          "type": "uint256"
        }
      ],
      "name": "URI",
      "type": "event"
    },
    {
      "inputs": [
        {
          "internalType": "address",
          "name": "account",
          "type": "address"
        },
        {
          "internalType": "uint256",
          "name": "id",
          "type": "uint256"
        }
      ],
      "name": "balanceOf",
      "outputs": [
        {
          "internalType": "uint256",
          "name": "",
          "type": "uint256"
        }
      ],
      "stateMutability": "view",
      "type": "function"
    },
    {
      "inputs": [
        {
          "internalType": "address[]",
          "name": "accounts",
          "type": "address[]"
        },
        {
          "internalType": "uint256[]",
          "name": "ids",
          "type": "uint256[]"
        }
      ],
      "name": "balanceOfBatch",
      "outputs": [
        {
          "internalType": "uint256[]",
          "name": "",
          "type": "uint256[]"
        }
      ],
      "stateMutability": "view",
      "type": "function"
    },
    {
      "inputs": [
        {
          "internalType": "address",
          "name": "account",
          "type": "address"
        },
        {
          "internalType": "address",
          "name": "operator",
          "type": "address"
        }
      ],
      "name": "isApprovedForAll",
      "outputs": [
        {
          "internalType": "bool",
          "name": "",
          "type": "bool"
        }
      ],
      "stateMutability": "view",
      "type": "function"
    },
    {
      "inputs": [
        {
          "internalType": "address",
          "name": "",
          "type": "address"
        },
        {
          "internalType": "address",
          "name": "",
          "type": "address"
        },
        {
          "internalType": "uint256[]",
          "name": "",
          "type": "uint256[]"
        },
        {
          "internalType": "uint256[]",
          "name": "",
          "type": "uint256[]"
        },
        {
          "internalType": "bytes",
          "name": "",
          "type": "bytes"
        }
      ],
      "name": "onERC1155BatchReceived",
      "outputs": [
        {
          "internalType": "bytes4",
          "name": "",
          "type": "bytes4"
        }
      ],
      "stateMutability": "nonpayable",
      "type": "function"
    },
    {
      "inputs": [
        {
          "internalType": "address",
          "name": "",
          "type": "address"
        },
        {
          "internalType": "address",
          "name": "",
          "type": "address"
        },
        {
          "internalType": "uint256",
          "name": "",
          "type": "uint256"
        },
        {
          "internalType": "uint256",
          "name": "",
          "type": "uint256"
        },
        {
          "internalType": "bytes",
          "name": "",
          "type": "bytes"
        }
      ],
      "name": "onERC1155Received",
      "outputs": [
        {
          "internalType": "bytes4",
          "name": "",
          "type": "bytes4"
        }
      ],
      "stateMutability": "nonpayable",
      "type": "function"
    },
    {
      "inputs": [],
      "name": "owner",
      "outputs": [
        {
          "internalType": "address",
          "name": "",
          "type": "address"
        }
      ],
      "stateMutability": "view",
      "type": "function"
    },
    {
      "inputs": [],
      "name": "randomNumberGenerator",
      "outputs": [
        {
          "internalType": "contract RandomNumberGenerator",
          "name": "",
          "type": "address"
        }
      ],
      "stateMutability": "view",
      "type": "function"
    },
    {
      "inputs": [],
      "name": "renounceOwnership",
      "outputs": [],
      "stateMutability": "nonpayable",
      "type": "function"
    },
    {
      "inputs": [
        {
          "internalType": "address",
          "name": "from",
          "type": "address"
        },
        {
          "internalType": "address",
          "name": "to",
          "type": "address"
        },
        {
          "internalType": "uint256[]",
          "name": "ids",
          "type": "uint256[]"
        },
        {
          "internalType": "uint256[]",
          "name": "amounts",
          "type": "uint256[]"
        },
        {
          "internalType": "bytes",
          "name": "data",
          "type": "bytes"
        }
      ],
      "name": "safeBatchTransferFrom",
      "outputs": [],
      "stateMutability": "nonpayable",
      "type": "function"
    },
    {
      "inputs": [
        {
          "internalType": "address",
          "name": "from",
          "type": "address"
        },
        {
          "internalType": "address",
          "name": "to",
          "type": "address"
        },
        {
          "internalType": "uint256",
          "name": "id",
          "type": "uint256"
        },
        {
          "internalType": "uint256",
          "name": "amount",
          "type": "uint256"
        },
        {
          "internalType": "bytes",
          "name": "data",
          "type": "bytes"
        }
      ],
      "name": "safeTransferFrom",
      "outputs": [],
      "stateMutability": "nonpayable",
      "type": "function"
    },
    {
      "inputs": [
        {
          "internalType": "address",
          "name": "operator",
          "type": "address"
        },
        {
          "internalType": "bool",
          "name": "approved",
          "type": "bool"
        }
      ],
      "name": "setApprovalForAll",
      "outputs": [],
      "stateMutability": "nonpayable",
      "type": "function"
    },
    {
      "inputs": [],
      "name": "testMode",
      "outputs": [
        {
          "internalType": "bool",
          "name": "",
          "type": "bool"
        }
      ],
      "stateMutability": "view",
      "type": "function"
    },
    {
      "inputs": [
        {
          "internalType": "address",
          "name": "newOwner",
          "type": "address"
        }
      ],
      "name": "transferOwnership",
      "outputs": [],
      "stateMutability": "nonpayable",
      "type": "function"
    },
    {
      "inputs": [],
      "name": "unlimitedToken",
      "outputs": [
        {
          "internalType": "contract UnlimitedToken",
          "name": "",
          "type": "address"
        }
      ],
      "stateMutability": "view",
      "type": "function"
    },
    {
      "inputs": [
        {
          "internalType": "bytes4",
          "name": "interfaceId",
          "type": "bytes4"
        }
      ],
      "name": "supportsInterface",
      "outputs": [
        {
          "internalType": "bool",
          "name": "",
          "type": "bool"
        }
      ],
      "stateMutability": "view",
      "type": "function"
    },
    {
      "inputs": [
        {
          "internalType": "uint256",
          "name": "_tokenId",
          "type": "uint256"
        }
      ],
      "name": "uri",
      "outputs": [
        {
          "internalType": "string",
          "name": "",
          "type": "string"
        }
      ],
      "stateMutability": "pure",
      "type": "function"
    },
    {
      "inputs": [],
      "name": "name",
      "outputs": [
        {
          "internalType": "string",
          "name": "",
          "type": "string"
        }
      ],
      "stateMutability": "pure",
      "type": "function"
    },
    {
      "inputs": [
        {
          "internalType": "address",
          "name": "_tokenAddress",
          "type": "address"
        }
      ],
      "name": "setTokenAddress",
      "outputs": [],
      "stateMutability": "nonpayable",
      "type": "function"
    },
    {
      "inputs": [
        {
          "internalType": "address",
          "name": "_randomAddress",
          "type": "address"
        }
      ],
      "name": "setLinkAddress",
      "outputs": [],
      "stateMutability": "nonpayable",
      "type": "function"
    },
    {
      "inputs": [
        {
          "internalType": "uint256",
          "name": "_mintFee",
          "type": "uint256"
        }
      ],
      "name": "updateMintFee",
      "outputs": [],
      "stateMutability": "nonpayable",
      "type": "function"
    },
    {
      "inputs": [
        {
          "internalType": "uint24",
          "name": "_limitMint",
          "type": "uint24"
        }
      ],
      "name": "updateLimitMint",
      "outputs": [],
      "stateMutability": "nonpayable",
      "type": "function"
    },
    {
      "inputs": [],
      "name": "withdrawMatic",
      "outputs": [],
      "stateMutability": "nonpayable",
      "type": "function"
    },
    {
      "inputs": [
        {
          "internalType": "uint256",
          "name": "value",
          "type": "uint256"
        }
      ],
      "name": "withdrawLink",
      "outputs": [],
      "stateMutability": "nonpayable",
      "type": "function"
    },
    {
      "inputs": [
        {
          "internalType": "uint8",
          "name": "stuffId",
          "type": "uint8"
        },
        {
          "internalType": "uint256",
          "name": "amount",
          "type": "uint256"
        },
        {
          "internalType": "uint8",
          "name": "bonusAttack1",
          "type": "uint8"
        },
        {
          "internalType": "uint8",
          "name": "bonusAttack2",
          "type": "uint8"
        },
        {
          "internalType": "uint8",
          "name": "bonusDefence1",
          "type": "uint8"
        },
        {
          "internalType": "uint8",
          "name": "bonusDefence2",
          "type": "uint8"
        },
        {
          "internalType": "uint256",
          "name": "price",
          "type": "uint256"
        },
        {
          "internalType": "enum UnlimitedEvolution.type_stuff",
          "name": "typeStuff",
          "type": "uint8"
        }
      ],
      "name": "manageStuff",
      "outputs": [],
      "stateMutability": "nonpayable",
      "type": "function"
    },
    {
      "inputs": [
        {
          "internalType": "enum UnlimitedEvolution.type_character",
          "name": "_typeCharacter",
          "type": "uint8"
        },
        {
          "internalType": "enum UnlimitedEvolution.gender_character",
          "name": "_genderCharacter",
          "type": "uint8"
        }
      ],
      "name": "askCreateCharacter",
      "outputs": [],
      "stateMutability": "payable",
      "type": "function"
    },
    {
      "inputs": [
        {
          "internalType": "enum UnlimitedEvolution.type_character",
          "name": "_typeCharacter",
          "type": "uint8"
        },
        {
          "internalType": "enum UnlimitedEvolution.gender_character",
          "name": "_genderCharacter",
          "type": "uint8"
        },
        {
          "internalType": "uint256",
          "name": "randomNumber",
          "type": "uint256"
        },
        {
          "internalType": "address",
          "name": "_address",
          "type": "address"
        }
      ],
      "name": "createCharacter",
      "outputs": [],
      "stateMutability": "nonpayable",
      "type": "function"
    },
    {
      "inputs": [
        {
          "internalType": "uint24",
          "name": "_tokenId",
          "type": "uint24"
        }
      ],
      "name": "rest",
      "outputs": [],
      "stateMutability": "nonpayable",
      "type": "function"
    },
    {
      "inputs": [
        {
          "internalType": "uint24",
          "name": "_myTokenId",
          "type": "uint24"
        },
        {
          "internalType": "uint24",
          "name": "_rivalTokenId",
          "type": "uint24"
        }
      ],
      "name": "askFight",
      "outputs": [],
      "stateMutability": "nonpayable",
      "type": "function"
    },
    {
      "inputs": [
        {
          "internalType": "uint24",
          "name": "_myTokenId",
          "type": "uint24"
        },
        {
          "internalType": "uint24",
          "name": "_rivalTokenId",
          "type": "uint24"
        },
        {
          "internalType": "uint256",
          "name": "randomNumber",
          "type": "uint256"
        }
      ],
      "name": "fight",
      "outputs": [],
      "stateMutability": "nonpayable",
      "type": "function"
    },
    {
      "inputs": [
        {
          "internalType": "uint8",
          "name": "stuffId",
          "type": "uint8"
        }
      ],
      "name": "buyStuff",
      "outputs": [],
      "stateMutability": "payable",
      "type": "function"
    },
    {
      "inputs": [
        {
          "internalType": "uint24",
          "name": "tokenId",
          "type": "uint24"
        },
        {
          "internalType": "uint8",
          "name": "stuffId",
          "type": "uint8"
        }
      ],
      "name": "equipStuff",
      "outputs": [],
      "stateMutability": "nonpayable",
      "type": "function"
    },
    {
      "inputs": [
        {
          "internalType": "uint24",
          "name": "tokenId",
          "type": "uint24"
        }
      ],
      "name": "usePotion",
      "outputs": [],
      "stateMutability": "nonpayable",
      "type": "function"
    },
    {
      "inputs": [
        {
          "internalType": "uint24",
          "name": "tokenId",
          "type": "uint24"
        }
      ],
      "name": "getTokenDetails",
      "outputs": [
        {
          "components": [
            {
              "internalType": "uint24",
              "name": "id",
              "type": "uint24"
            },
            {
              "internalType": "uint16",
              "name": "level",
              "type": "uint16"
            },
            {
              "internalType": "uint24",
              "name": "xp",
              "type": "uint24"
            },
            {
              "internalType": "uint24",
              "name": "hp",
              "type": "uint24"
            },
            {
              "internalType": "uint24",
              "name": "stamina",
              "type": "uint24"
            },
            {
              "internalType": "uint24",
              "name": "attack1",
              "type": "uint24"
            },
            {
              "internalType": "uint24",
              "name": "attack2",
              "type": "uint24"
            },
            {
              "internalType": "uint24",
              "name": "defence1",
              "type": "uint24"
            },
            {
              "internalType": "uint24",
              "name": "defence2",
              "type": "uint24"
            },
            {
              "internalType": "uint24",
              "name": "attributePoints",
              "type": "uint24"
            },
            {
              "internalType": "uint8",
              "name": "weapon",
              "type": "uint8"
            },
            {
              "internalType": "uint8",
              "name": "shield",
              "type": "uint8"
            },
            {
              "internalType": "uint256",
              "name": "lastRest",
              "type": "uint256"
            },
            {
              "internalType": "enum UnlimitedEvolution.type_character",
              "name": "typeCharacter",
              "type": "uint8"
            },
            {
              "internalType": "enum UnlimitedEvolution.gender_character",
              "name": "genderCharacter",
              "type": "uint8"
            }
          ],
          "internalType": "struct UnlimitedEvolution.Character",
          "name": "",
          "type": "tuple"
        }
      ],
      "stateMutability": "view",
      "type": "function"
    },
    {
      "inputs": [
        {
          "internalType": "uint8",
          "name": "stuffId",
          "type": "uint8"
        }
      ],
      "name": "getStuffDetails",
      "outputs": [
        {
          "components": [
            {
              "internalType": "uint8",
              "name": "id",
              "type": "uint8"
            },
            {
              "internalType": "uint8",
              "name": "bonusAttack1",
              "type": "uint8"
            },
            {
              "internalType": "uint8",
              "name": "bonusAttack2",
              "type": "uint8"
            },
            {
              "internalType": "uint8",
              "name": "bonusDefence1",
              "type": "uint8"
            },
            {
              "internalType": "uint8",
              "name": "bonusDefence2",
              "type": "uint8"
            },
            {
              "internalType": "uint256",
              "name": "mintPrice",
              "type": "uint256"
            },
            {
              "internalType": "enum UnlimitedEvolution.type_stuff",
              "name": "typeStuff",
              "type": "uint8"
            }
          ],
          "internalType": "struct UnlimitedEvolution.Stuff",
          "name": "",
          "type": "tuple"
        }
      ],
      "stateMutability": "view",
      "type": "function"
    },
    {
      "inputs": [],
      "name": "getMyCharacters",
      "outputs": [
        {
          "components": [
            {
              "internalType": "uint24",
              "name": "id",
              "type": "uint24"
            },
            {
              "internalType": "uint16",
              "name": "level",
              "type": "uint16"
            },
            {
              "internalType": "uint24",
              "name": "xp",
              "type": "uint24"
            },
            {
              "internalType": "uint24",
              "name": "hp",
              "type": "uint24"
            },
            {
              "internalType": "uint24",
              "name": "stamina",
              "type": "uint24"
            },
            {
              "internalType": "uint24",
              "name": "attack1",
              "type": "uint24"
            },
            {
              "internalType": "uint24",
              "name": "attack2",
              "type": "uint24"
            },
            {
              "internalType": "uint24",
              "name": "defence1",
              "type": "uint24"
            },
            {
              "internalType": "uint24",
              "name": "defence2",
              "type": "uint24"
            },
            {
              "internalType": "uint24",
              "name": "attributePoints",
              "type": "uint24"
            },
            {
              "internalType": "uint8",
              "name": "weapon",
              "type": "uint8"
            },
            {
              "internalType": "uint8",
              "name": "shield",
              "type": "uint8"
            },
            {
              "internalType": "uint256",
              "name": "lastRest",
              "type": "uint256"
            },
            {
              "internalType": "enum UnlimitedEvolution.type_character",
              "name": "typeCharacter",
              "type": "uint8"
            },
            {
              "internalType": "enum UnlimitedEvolution.gender_character",
              "name": "genderCharacter",
              "type": "uint8"
            }
          ],
          "internalType": "struct UnlimitedEvolution.Character[]",
          "name": "",
          "type": "tuple[]"
        }
      ],
      "stateMutability": "view",
      "type": "function"
    },
    {
      "inputs": [],
      "name": "getOthersCharacters",
      "outputs": [
        {
          "components": [
            {
              "internalType": "uint24",
              "name": "id",
              "type": "uint24"
            },
            {
              "internalType": "uint16",
              "name": "level",
              "type": "uint16"
            },
            {
              "internalType": "uint24",
              "name": "xp",
              "type": "uint24"
            },
            {
              "internalType": "uint24",
              "name": "hp",
              "type": "uint24"
            },
            {
              "internalType": "uint24",
              "name": "stamina",
              "type": "uint24"
            },
            {
              "internalType": "uint24",
              "name": "attack1",
              "type": "uint24"
            },
            {
              "internalType": "uint24",
              "name": "attack2",
              "type": "uint24"
            },
            {
              "internalType": "uint24",
              "name": "defence1",
              "type": "uint24"
            },
            {
              "internalType": "uint24",
              "name": "defence2",
              "type": "uint24"
            },
            {
              "internalType": "uint24",
              "name": "attributePoints",
              "type": "uint24"
            },
            {
              "internalType": "uint8",
              "name": "weapon",
              "type": "uint8"
            },
            {
              "internalType": "uint8",
              "name": "shield",
              "type": "uint8"
            },
            {
              "internalType": "uint256",
              "name": "lastRest",
              "type": "uint256"
            },
            {
              "internalType": "enum UnlimitedEvolution.type_character",
              "name": "typeCharacter",
              "type": "uint8"
            },
            {
              "internalType": "enum UnlimitedEvolution.gender_character",
              "name": "genderCharacter",
              "type": "uint8"
            }
          ],
          "internalType": "struct UnlimitedEvolution.Character[]",
          "name": "",
          "type": "tuple[]"
        }
      ],
      "stateMutability": "view",
      "type": "function"
    },
    {
      "inputs": [],
      "name": "getMyStuffs",
      "outputs": [
        {
          "components": [
            {
              "internalType": "uint8",
              "name": "id",
              "type": "uint8"
            },
            {
              "internalType": "uint8",
              "name": "bonusAttack1",
              "type": "uint8"
            },
            {
              "internalType": "uint8",
              "name": "bonusAttack2",
              "type": "uint8"
            },
            {
              "internalType": "uint8",
              "name": "bonusDefence1",
              "type": "uint8"
            },
            {
              "internalType": "uint8",
              "name": "bonusDefence2",
              "type": "uint8"
            },
            {
              "internalType": "uint256",
              "name": "mintPrice",
              "type": "uint256"
            },
            {
              "internalType": "enum UnlimitedEvolution.type_stuff",
              "name": "typeStuff",
              "type": "uint8"
            }
          ],
          "internalType": "struct UnlimitedEvolution.Stuff[]",
          "name": "",
          "type": "tuple[]"
        }
      ],
      "stateMutability": "view",
      "type": "function"
    },
    {
      "inputs": [],
      "name": "testModeSwitch",
      "outputs": [],
      "stateMutability": "nonpayable",
      "type": "function"
    }
  ],
  "bytecode": "0x60038054600160a060020a03167e0fa0013980009d40010006000000000000000000000000000000000000000017815560808181526101006040529060a0606080368337505081516200005a92600492506020019062000f0f565b5066038d7ea4c680006005553480156200007357600080fd5b50604051620072d0380380620072d083398101604081905262000096916200109f565b6040518060600160405280603f815260200162007291603f9139620000c481640100000000620008bf810204565b50620000eb620000dc640100000000620008d8810204565b640100000000620008dc810204565b6006805461010060a860020a031916610100600160a060020a03858116919091029190911790915560078054600160a060020a03191691831691909117905562000184306001620186a06200014e826401000000006200092e8102620039a01704565b60405160200162000160919062001153565b60405160208183030381529060405262000a86640100000000026401000000009004565b6040805160e0810182526001808252600260208084018281529484018281526000606086018181526080870182815266038d7ea4c6800060a0890190815260c0890184815293889052600990955287517f92e85d02570a8092d09a6e3a57665bc3815a2699a4074001bf1ccabf660f5a3680549a5195519351925160ff9081166401000000000264ff000000001994821663010000000263ff0000001996831662010000029690961663ffff0000199883166101000261ffff19909e1692909416919091179b909b179590951617919091171696909617815590517f92e85d02570a8092d09a6e3a57665bc3815a2699a4074001bf1ccabf660f5a375593517f92e85d02570a8092d09a6e3a57665bc3815a2699a4074001bf1ccabf660f5a3880549495949193909260ff19909216918490811115620002c857620002c8620013b2565b0217905550620002f591503090506002620186a06200014e82640100000000620039a06200092e82021704565b6040805160e081018252600280825260006020808401828152948401828152606085018481526080860185815266038d7ea4c6800060a08801908152600160c0890181815296889052600990955287517f6cde3cea4b3a3fb2488b2808bae7556f4a405e50f65e1794383bc026131b13c380549a5195519451935160ff9081166401000000000264ff000000001995821663010000000263ff0000001997831662010000029790971663ffff0000199883166101000261ffff19909e1692909416919091179b909b179590951617929092171696909617815594517f6cde3cea4b3a3fb2488b2808bae7556f4a405e50f65e1794383bc026131b13c45590517f6cde3cea4b3a3fb2488b2808bae7556f4a405e50f65e1794383bc026131b13c580549495949193909260ff19909216919084908111156200043a576200043a620013b2565b0217905550620004659150309050600360016200014e82640100000000620039a06200092e82021704565b6040805160e0810182526003808252600a6020808401828152948401828152606085018381526080860193845267016345785d8a000060a08701908152600060c08801818152969052600990935285517fc575c31fea594a6eb97c8e9d3f9caee4c16218c6ef37e923234c0fe9014a61e78054985193519251955160ff9081166401000000000264ff000000001997821663010000000263ff0000001995831662010000029590951663ffff0000199683166101000261ffff19909c169290941691909117999099179390931617179290921694909417815592517fc575c31fea594a6eb97c8e9d3f9caee4c16218c6ef37e923234c0fe9014a61e855517fc575c31fea594a6eb97c8e9d3f9caee4c16218c6ef37e923234c0fe9014a61e9805492939260ff19166001836002811115620005a457620005a4620013b2565b0217905550620005cf9150309050600460016200014e82640100000000620039a06200092e82021704565b6040805160e08101825260048152600a6020820181905291810182905260608101829052608081019190915267016345785d8a000060a082015260c081016001905260046000526009602090815281517f8dc18c4ccfd75f5c815b63770fa542fd953e8fef7e0e44bbdd4913470ce7e9cb80549284015160408501516060860151608087015160ff9081166401000000000264ff000000001992821663010000000263ff0000001994831662010000029490941663ffff0000199583166101000261ffff199099169790921696909617969096179290921694909417939093179290921617815560a08201517f8dc18c4ccfd75f5c815b63770fa542fd953e8fef7e0e44bbdd4913470ce7e9cc5560c08201517f8dc18c4ccfd75f5c815b63770fa542fd953e8fef7e0e44bbdd4913470ce7e9cd805460ff19166001836002811115620007205762000720620013b2565b02179055506200075f91503090506005620f42406200074d82640100000000620039a06200092e82021704565b6040516020016200016091906200110c565b6040805160e0810182526005815260006020820181905291810182905260608101829052608081019190915266038d7ea4c6800060a082015260c081016002905260056000526009602090815281517f74b05292d1d4b2b48b65261b07099d24244bcb069f138d9a6bfdcf776becac4c80549284015160408501516060860151608087015160ff9081166401000000000264ff000000001992821663010000000263ff0000001994831662010000029490941663ffff0000199583166101000261ffff199099169790921696909617969096179290921694909417939093179290921617815560a08201517f74b05292d1d4b2b48b65261b07099d24244bcb069f138d9a6bfdcf776becac4d5560c08201517f74b05292d1d4b2b48b65261b07099d24244bcb069f138d9a6bfdcf776becac4e805460ff19166001836002811115620008af57620008af620013b2565b0217905550905050505062001521565b8051620008d490600290602084019062000fc0565b5050565b3390565b60038054600160a060020a03838116600160a060020a0319831681179093556040519116919082907f8be0079c531659141344cd1fd0a4f28419497f9722a3daafe3b4186f6b6457e090600090a35050565b6060816200096f57505060408051808201909152600181527f3000000000000000000000000000000000000000000000000000000000000000602082015290565b8160005b81156200099f578062000986816200131f565b9150620009979050600a8362001211565b915062000973565b6000816001604060020a03811115620009bc57620009bc62001410565b6040519080825280601f01601f191660200182016040528015620009e7576020820181803683370190505b5090505b841562000a7e57620009ff60018362001228565b915062000a0e600a866200133d565b62000a1b906030620011f6565b7f01000000000000000000000000000000000000000000000000000000000000000281838151811062000a525762000a52620013e1565b6020010190600160f860020a031916908160001a90535062000a76600a8662001211565b9450620009eb565b949350505050565b600160a060020a03841662000b22576040517f08c379a000000000000000000000000000000000000000000000000000000000815260206004820152602160248201527f455243313135353a206d696e7420746f20746865207a65726f2061646472657360448201527f730000000000000000000000000000000000000000000000000000000000000060648201526084015b60405180910390fd5b600062000b37640100000000620008d8810204565b905062000b798160008762000b558864010000000062000c1d810204565b62000b698864010000000062000c1d810204565b8764010000000062000c6b810204565b600084815260208181526040808320600160a060020a03891684529091528120805485929062000bab908490620011f6565b90915550506040805185815260208101859052600160a060020a0380881692600092918516917fc3d58168c5ae7397731d063d5bbf3d657854427343f4c083240f7aacaa2d0f62910160405180910390a462000c168160008787878764010000000062000c73810204565b5050505050565b6040805160018082528183019092526060916000919060208083019080368337019050509050828160008151811062000c5a5762000c5a620013e1565b602090810291909101015292915050565b505050505050565b62000c95600160a060020a03851664010000000062003af962000f0982021704565b1562000c6b576040517ff23a6e61000000000000000000000000000000000000000000000000000000008152600160a060020a0385169063f23a6e619062000cea90899089908890889088906004016200119a565b602060405180830381600087803b15801562000d0557600080fd5b505af192505050801562000d38575060408051601f3d908101601f1916820190925262000d359181019062001054565b60015b62000e2d5762000d476200143f565b806308c379a0141562000da2575062000d5f62001479565b8062000d6c575062000da4565b806040517f08c379a000000000000000000000000000000000000000000000000000000000815260040162000b199190620011e1565b505b6040517f08c379a000000000000000000000000000000000000000000000000000000000815260206004820152603460248201527f455243313135353a207472616e7366657220746f206e6f6e204552433131353560448201527f526563656976657220696d706c656d656e746572000000000000000000000000606482015260840162000b19565b7fffffffff0000000000000000000000000000000000000000000000000000000081167ff23a6e61000000000000000000000000000000000000000000000000000000001462000f00576040517f08c379a000000000000000000000000000000000000000000000000000000000815260206004820152602860248201527f455243313135353a204552433131353552656365697665722072656a6563746560448201527f6420746f6b656e73000000000000000000000000000000000000000000000000606482015260840162000b19565b50505050505050565b3b151590565b82805482825590600052602060002090600901600a9004810192821562000fae5791602002820160005b8382111562000f7b57835183826101000a81548162ffffff021916908360ff160217905550926020019260030160208160020104928301926001030262000f39565b801562000fac5782816101000a81549062ffffff021916905560030160208160020104928301926001030262000f7b565b505b5062000fbc9291506200103d565b5090565b82805462000fce9062001275565b90600052602060002090601f01602090048101928262000ff2576000855562000fae565b82601f106200100d57805160ff191683800117855562000fae565b8280016001018555821562000fae579182015b8281111562000fae57825182559160200191906001019062001020565b5b8082111562000fbc57600081556001016200103e565b6000602082840312156200106757600080fd5b81517fffffffff00000000000000000000000000000000000000000000000000000000811681146200109857600080fd5b9392505050565b60008060408385031215620010b357600080fd5b8251620010c08162001508565b6020840151909250620010d38162001508565b809150509250929050565b60008151808452620010f881602086016020860162001242565b601f01601f19169290920160200192915050565b7f556e6c696d697465642045766f6c7574696f6e20506f74696f6e2023000000008152600082516200114681601c85016020870162001242565b91909101601c0192915050565b7f556e6c696d697465642045766f6c7574696f6e205374756666202300000000008152600082516200118d81601b85016020870162001242565b91909101601b0192915050565b600160a060020a03868116825285166020820152604081018490526060810183905260a060808201819052600090620011d690830184620010de565b979650505050505050565b602081526000620010986020830184620010de565b600082198211156200120c576200120c62001354565b500190565b60008262001223576200122362001383565b500490565b6000828210156200123d576200123d62001354565b500390565b60005b838110156200125f57818101518382015260200162001245565b838111156200126f576000848401525b50505050565b6002810460018216806200128a57607f821691505b60208210811415620012c5577f4e487b7100000000000000000000000000000000000000000000000000000000600052602260045260246000fd5b50919050565b601f8201601f191681016001604060020a038111828210171562001318577f4e487b7100000000000000000000000000000000000000000000000000000000600052604160045260246000fd5b6040525050565b600060001982141562001336576200133662001354565b5060010190565b6000826200134f576200134f62001383565b500690565b7f4e487b7100000000000000000000000000000000000000000000000000000000600052601160045260246000fd5b7f4e487b7100000000000000000000000000000000000000000000000000000000600052601260045260246000fd5b7f4e487b7100000000000000000000000000000000000000000000000000000000600052602160045260246000fd5b7f4e487b7100000000000000000000000000000000000000000000000000000000600052603260045260246000fd5b7f4e487b7100000000000000000000000000000000000000000000000000000000600052604160045260246000fd5b600060033d1115620014765760046000803e7c01000000000000000000000000000000000000000000000000000000006000510490505b90565b600060443d1015620014885790565b6040516003193d81016004833e81513d6001604060020a038160248401118184111715620014b857505050505090565b8285019150815181811115620014d15750505050505090565b843d8701016020828501011115620014ec5750505050505090565b620014fd60208286010187620012cb565b509095945050505050565b600160a060020a03811681146200151e57600080fd5b50565b615d6080620015316000396000f3fe6080604052600436106102285760003560e060020a900480637a8042bd11610127578063aee231f9116100af578063e985e9c511610073578063e985e9c5146106cc578063ec7a1ceb14610715578063f23a6e6114610742578063f242432a14610787578063f2fde38b146107a757600080fd5b8063aee231f9146105e7578063bc197c8114610614578063cd9ea34214610672578063db48a8881461068c578063e5001204146106ac57600080fd5b80638acf59f2116100f65780638acf59f2146105565780638da5cb5b146105765780639361954914610594578063a22cb465146105b4578063a2ee2557146105d457600080fd5b80637a8042bd146104ee578063810074c61461050e5780638114b33d1461052357806384017e521461053657600080fd5b80632a3f8963116101b55780633c4739d3116101795780633c4739d3146104555780634e1273f4146104775780634e82debc146104a45780634fb97a10146104c4578063715018a6146104d957600080fd5b80632a3f8963146103c05780632eb2c2d6146103d55780633418e436146103f55780633aba1fca146104155780633bedaca21461043557600080fd5b80631bddd3ac116101fc5780631bddd3ac146102ff57806320e5b22e14610321578063249b119f1461034357806324ff766e1461038057806326a4e8d2146103a057600080fd5b8062fdd58e1461022d57806301ffc9a71461026057806306fdde03146102905780630e89341c146102df575b600080fd5b34801561023957600080fd5b5061024d610248366004614f42565b6107c7565b6040519081526020015b60405180910390f35b34801561026c57600080fd5b5061028061027b36600461503b565b610876565b6040519015158152602001610257565b34801561029c57600080fd5b5060408051808201909152601381527f556e6c696d697465642045766f6c7574696f6e0000000000000000000000000060208201525b6040516102579190615754565b3480156102eb57600080fd5b506102d26102fa36600461519f565b610881565b34801561030b57600080fd5b5061031f61031a3660046151d3565b6108b2565b005b34801561032d57600080fd5b50610336610a2b565b604051610257919061565e565b34801561034f57600080fd5b50600654610368906101009004600160a060020a031681565b604051600160a060020a039091168152602001610257565b34801561038c57600080fd5b5061031f61039b366004614da9565b610c4d565b3480156103ac57600080fd5b5061031f6103bb366004614da9565b610ca9565b3480156103cc57600080fd5b5061031f610d0b565b3480156103e157600080fd5b5061031f6103f0366004614df7565b610d4c565b34801561040157600080fd5b5061031f6104103660046150f4565b610df1565b34801561042157600080fd5b5061031f610430366004615139565b610fb9565b34801561044157600080fd5b5060075461036890600160a060020a031681565b34801561046157600080fd5b5061046a6110a5565b604051610257919061560f565b34801561048357600080fd5b50610497610492366004614f6c565b611656565b60405161025791906156a0565b3480156104b057600080fd5b5061031f6104bf3660046150f4565b611797565b3480156104d057600080fd5b5061046a6118a0565b3480156104e557600080fd5b5061031f611ecb565b3480156104fa57600080fd5b5061031f61050936600461519f565b611f04565b34801561051a57600080fd5b5061031f611fa4565b61031f610531366004615075565b612018565b34801561054257600080fd5b5061031f61055136600461519f565b6122bb565b34801561056257600080fd5b5061031f6105713660046150f4565b61231d565b34801561058257600080fd5b50600354600160a060020a0316610368565b3480156105a057600080fd5b5061031f6105af36600461510f565b6123b5565b3480156105c057600080fd5b5061031f6105cf366004614f06565b6127e0565b61031f6105e23660046151b8565b6127eb565b3480156105f357600080fd5b506106076106023660046151b8565b6129aa565b6040516102579190615956565b34801561062057600080fd5b5061065961062f366004614df7565b7fbc197c810000000000000000000000000000000000000000000000000000000095945050505050565b604051600160e060020a03199091168152602001610257565b34801561067e57600080fd5b506006546102809060ff1681565b34801561069857600080fd5b5061031f6106a73660046150a3565b612a8c565b3480156106b857600080fd5b5061031f6106c7366004615175565b613119565b3480156106d857600080fd5b506102806106e7366004614dc4565b600160a060020a03918216600090815260016020908152604080832093909416825291909152205460ff1690565b34801561072157600080fd5b506107356107303660046150f4565b61370e565b6040516102579190615947565b34801561074e57600080fd5b5061065961075d366004614ea1565b7ff23a6e610000000000000000000000000000000000000000000000000000000095945050505050565b34801561079357600080fd5b5061031f6107a2366004614ea1565b61384d565b3480156107b357600080fd5b5061031f6107c2366004614da9565b6138eb565b6000600160a060020a03831661084d5760405160e560020a62461bcd02815260206004820152602b60248201527f455243313135353a2062616c616e636520717565727920666f7220746865207a60448201527f65726f206164647265737300000000000000000000000000000000000000000060648201526084015b60405180910390fd5b50600081815260208181526040808320600160a060020a03861684529091529020545b92915050565b600061087082613aff565b606061088c826139a0565b60405160200161089c919061545c565b6040516020818303038152906040529050919050565b600354600160a060020a031633146108df5760405160e560020a62461bcd02815260040161084490615912565b6108fd308960ff168960405180602001604052806000815250613b3d565b8760ff16600514610a21576040518060e001604052808960ff1681526020018760ff1681526020018660ff1681526020018560ff1681526020018460ff16815260200183815260200182600281111561095857610958615bf1565b905260ff808a166000908152600960209081526040918290208451815492860151938601516060870151608088015187166401000000000264ff000000001991881663010000000263ff0000001993891662010000029390931663ffff0000199789166101000261ffff199097169490981693909317949094179490941694909417929092171691909117815560a082015160018083019190915560c0830151600280840180549293909260ff1916918490811115610a1957610a19615bf1565b021790555050505b5050505050505050565b60606000805b60035460ff60a060020a90910481169082161015610a89578060ff16600514158015610a645750610a648160ff16613c66565b15610a775781610a7381615b69565b9250505b80610a8181615b69565b915050610a31565b5060008160ff1667ffffffffffffffff811115610aa857610aa8615c23565b604051908082528060200260200182016040528015610b1657816020015b610b036040805160e081018252600080825260208201819052918101829052606081018290526080810182905260a081018290529060c082015290565b815260200190600190039081610ac65790505b5090506000805b600354610b369060019060a060020a900460ff16615a97565b60ff168160ff161015610c44578060ff16600514158015610b5e5750610b5e8160ff16613c66565b15610c325760ff808216600090815260096020908152604091829020825160e081018452815480861682526101008104861693820193909352620100008304851693810193909352630100000082048416606084015264010000000090910483166080830152600181015460a08301526002808201549293919260c08501921690811115610bee57610bee615bf1565b6002811115610bff57610bff615bf1565b81525050838360ff1681518110610c1857610c18615c0a565b60200260200101819052508180610c2e90615b69565b9250505b80610c3c81615b69565b915050610b1d565b50909392505050565b600354600160a060020a03163314610c7a5760405160e560020a62461bcd02815260040161084490615912565b6007805473ffffffffffffffffffffffffffffffffffffffff1916600160a060020a0392909216919091179055565b600354600160a060020a03163314610cd65760405160e560020a62461bcd02815260040161084490615912565b60068054600160a060020a039092166101000274ffffffffffffffffffffffffffffffffffffffff0019909216919091179055565b600354600160a060020a03163314610d385760405160e560020a62461bcd02815260040161084490615912565b6006805460ff19811660ff90911615179055565b600160a060020a038516331480610d685750610d6885336106e7565b610ddd5760405160e560020a62461bcd02815260206004820152603260248201527f455243313135353a207472616e736665722063616c6c6572206973206e6f742060448201527f6f776e6572206e6f7220617070726f76656400000000000000000000000000006064820152608401610844565b610dea8585858585613c7a565b5050505050565b60ff8162ffffff1611610e495760405160e560020a62461bcd02815260206004820152601960248201527f57726f6e67206b696e64206f66204e46542028537475666629000000000000006044820152606401610844565b610e578162ffffff16613c66565b610e765760405160e560020a62461bcd028152600401610844906157c4565b610e806005613c66565b610ecf5760405160e560020a62461bcd02815260206004820152601660248201527f596f7520646f6e2774206f776e206120706f74696f6e000000000000000000006044820152606401610844565b62ffffff8082166000908152600860205260409020546064605860020a9091049091161080610f1e575062ffffff8082166000908152600860205260409020546064604060020a909104909116105b610f3d5760405160e560020a62461bcd02815260040161084490615858565b610f4a3360056001613e6d565b62ffffff811660008181526008602090815260409182902080546dffffffffffff000000000000000019166b64000064000000000000000017905590519182527f127a62fea82fb42bc3a6f379a68f1ccd885eb84979d3c9372bf3d70c765cf13b91015b60405180910390a150565b600754600160a060020a031633146110165760405160e560020a62461bcd02815260206004820181905260248201527f4e6f7420616c6c6f77656420746f2075736520746869732066756e6374696f6e6044820152606401610844565b6000611023848484614020565b9050600061103384866000614020565b62ffffff80871660009081526008602052604090205491925061106191600a91605860020a90910416615a64565b62ffffff868116600090815260086020526040902080546dffffff00000000000000000000001916605860020a9390921692909202179055610dea85858484614107565b336000908152600a602052604081205460609190819060ff1667ffffffffffffffff8111156110d6576110d6615c23565b60405190808252806020026020018201604052801561110f57816020015b6110fc614c05565b8152602001906001900390816110f45790505b5090506101005b60035461ffff60a860020a909104811690821610156112d05761113c8161ffff16613c66565b156112be5761ffff80821660009081526008602090815260409182902082516101e081018452815462ffffff81811683526301000000820490961693820193909352650100000000008304851693810193909352604060020a820484166060840152605860020a820484166080840152607060020a8204841660a0840152608860020a8204841660c084015260a060020a8204841660e084015260b860020a8204841661010084015260d060020a820490931661012083015260ff60e860020a8204811661014084015260f060020a909104811661016083015260018301546101808301526002808401549293926101a0850192169081111561124157611241615bf1565b600281111561125257611252615bf1565b81526020016002820160019054906101000a900460ff16600281111561127a5761127a615bf1565b600281111561128b5761128b615bf1565b81525050828460ff16815181106112a4576112a4615c0a565b602002602001018190525082806112ba90615b69565b9350505b806112c881615b13565b915050611116565b50619d405b60035462ffffff60b860020a9091048116908216101561148f576112fd8162ffffff16613c66565b1561147d5762ffffff80821660009081526008602090815260409182902082516101e0810184528154808616825261ffff630100000082041693820193909352650100000000008304851693810193909352604060020a820484166060840152605860020a820484166080840152607060020a8204841660a0840152608860020a8204841660c084015260a060020a8204841660e084015260b860020a8204841661010084015260d060020a820490931661012083015260ff60e860020a8204811661014084015260f060020a909104811661016083015260018301546101808301526002808401549293926101a0850192169081111561140057611400615bf1565b600281111561141157611411615bf1565b81526020016002820160019054906101000a900460ff16600281111561143957611439615bf1565b600281111561144a5761144a615bf1565b81525050828460ff168151811061146357611463615c0a565b6020026020010181905250828061147990615b69565b9350505b8061148781615b35565b9150506112d5565b50620139805b60035462ffffff60d060020a9091048116908216101561164f576114bd8162ffffff16613c66565b1561163d5762ffffff80821660009081526008602090815260409182902082516101e0810184528154808616825261ffff630100000082041693820193909352650100000000008304851693810193909352604060020a820484166060840152605860020a820484166080840152607060020a8204841660a0840152608860020a8204841660c084015260a060020a8204841660e084015260b860020a8204841661010084015260d060020a820490931661012083015260ff60e860020a8204811661014084015260f060020a909104811661016083015260018301546101808301526002808401549293926101a085019216908111156115c0576115c0615bf1565b60028111156115d1576115d1615bf1565b81526020016002820160019054906101000a900460ff1660028111156115f9576115f9615bf1565b600281111561160a5761160a615bf1565b81525050828460ff168151811061162357611623615c0a565b6020026020010181905250828061163990615b69565b9350505b8061164781615b35565b915050611495565b5092915050565b606081518351146116d25760405160e560020a62461bcd02815260206004820152602960248201527f455243313135353a206163636f756e747320616e6420696473206c656e67746860448201527f206d69736d6174636800000000000000000000000000000000000000000000006064820152608401610844565b6000835167ffffffffffffffff8111156116ee576116ee615c23565b604051908082528060200260200182016040528015611717578160200160208202803683370190505b50905060005b845181101561178f5761176285828151811061173b5761173b615c0a565b602002602001015185838151811061175557611755615c0a565b60200260200101516107c7565b82828151811061177457611774615c0a565b602090810291909101015261178881615b4e565b905061171d565b509392505050565b6117a58162ffffff16613c66565b6117c45760405160e560020a62461bcd028152600401610844906157c4565b62ffffff8082166000908152600860205260409020546064605860020a9091049091161080611813575062ffffff8082166000908152600860205260409020546064604060020a909104909116105b6118325760405160e560020a62461bcd02815260040161084490615858565b62ffffff811660008181526008602090815260409182902042600182015580546dffffffffffff000000000000000019166b64000064000000000000000017905590519182527f70b3acde96522f48d954a5bb77f27755c277bb00853b13264d21178135d3d0a99101610fae565b336000908152600a602052604081205460035460609291829160ff909116906118d990620139809060d060020a900462ffffff16615a64565b6003546118f590619d409060b860020a900462ffffff16615a64565b600354611910906101009060a860020a900461ffff16615a41565b61ffff1661191e9190615988565b6119289190615988565b6119329190615a64565b62ffffff1667ffffffffffffffff81111561194f5761194f615c23565b60405190808252806020026020018201604052801561198857816020015b611975614c05565b81526020019060019003908161196d5790505b5090506101005b60035461ffff60a860020a90910481169082161015611b4a576119b58161ffff16613c66565b611b385761ffff80821660009081526008602090815260409182902082516101e081018452815462ffffff81811683526301000000820490961693820193909352650100000000008304851693810193909352604060020a820484166060840152605860020a820484166080840152607060020a8204841660a0840152608860020a8204841660c084015260a060020a8204841660e084015260b860020a8204841661010084015260d060020a820490931661012083015260ff60e860020a8204811661014084015260f060020a909104811661016083015260018301546101808301526002808401549293926101a08501921690811115611ab957611ab9615bf1565b6002811115611aca57611aca615bf1565b81526020016002820160019054906101000a900460ff166002811115611af257611af2615bf1565b6002811115611b0357611b03615bf1565b81525050828462ffffff1681518110611b1e57611b1e615c0a565b60200260200101819052508280611b3490615b35565b9350505b80611b4281615b13565b91505061198f565b50619d405b60035462ffffff60b860020a90910481169082161015611d0a57611b778162ffffff16613c66565b611cf85762ffffff80821660009081526008602090815260409182902082516101e0810184528154808616825261ffff630100000082041693820193909352650100000000008304851693810193909352604060020a820484166060840152605860020a820484166080840152607060020a8204841660a0840152608860020a8204841660c084015260a060020a8204841660e084015260b860020a8204841661010084015260d060020a820490931661012083015260ff60e860020a8204811661014084015260f060020a909104811661016083015260018301546101808301526002808401549293926101a08501921690811115611c7957611c79615bf1565b6002811115611c8a57611c8a615bf1565b81526020016002820160019054906101000a900460ff166002811115611cb257611cb2615bf1565b6002811115611cc357611cc3615bf1565b81525050828462ffffff1681518110611cde57611cde615c0a565b60200260200101819052508280611cf490615b35565b9350505b80611d0281615b35565b915050611b4f565b50620139805b60035462ffffff60d060020a9091048116908216101561164f57611d388162ffffff16613c66565b611eb95762ffffff80821660009081526008602090815260409182902082516101e0810184528154808616825261ffff630100000082041693820193909352650100000000008304851693810193909352604060020a820484166060840152605860020a820484166080840152607060020a8204841660a0840152608860020a8204841660c084015260a060020a8204841660e084015260b860020a8204841661010084015260d060020a820490931661012083015260ff60e860020a8204811661014084015260f060020a909104811661016083015260018301546101808301526002808401549293926101a08501921690811115611e3a57611e3a615bf1565b6002811115611e4b57611e4b615bf1565b81526020016002820160019054906101000a900460ff166002811115611e7357611e73615bf1565b6002811115611e8457611e84615bf1565b81525050828462ffffff1681518110611e9f57611e9f615c0a565b60200260200101819052508280611eb590615b35565b9350505b80611ec381615b35565b915050611d10565b600354600160a060020a03163314611ef85760405160e560020a62461bcd02815260040161084490615912565b611f026000614301565b565b600354600160a060020a03163314611f315760405160e560020a62461bcd02815260040161084490615912565b6007546040517f2e1a7d4d00000000000000000000000000000000000000000000000000000000815260048101839052600160a060020a0390911690632e1a7d4d90602401600060405180830381600087803b158015611f9057600080fd5b505af1158015610dea573d6000803e3d6000fd5b600354600160a060020a03163314611fd15760405160e560020a62461bcd02815260040161084490615912565b600354600160a060020a0316604051600160a060020a039190911690303180156108fc02916000818181858888f19350505050158015612015573d6000803e3d6000fd5b50565b600554341461206c5760405160e560020a62461bcd02815260206004820152601460248201527f57726f6e6720616d6f756e74206f6620666565730000000000000000000000006044820152606401610844565b336000908152600a6020526040902054600560ff909116106120d35760405160e560020a62461bcd02815260206004820152601e60248201527f596f752063616e27742068617665206d6f7265207468616e2035204e465400006044820152606401610844565b60035460e860020a900462ffffff1660048360028111156120f6576120f6615bf1565b60ff168154811061210957612109615c0a565b90600052602060002090600a91828204019190066003029054906101000a900462ffffff1662ffffff1611156121aa5760405160e560020a62461bcd02815260206004820152602e60248201527f596f752063616e6e6f74206d696e74206d6f726520636861726163746572207760448201527f697468207468697320636c6173730000000000000000000000000000000000006064820152608401610844565b60065460ff16612237576007546040517ff93b8f44000000000000000000000000000000000000000000000000000000008152600160a060020a039091169063f93b8f4490612201908590859033906004016156e1565b600060405180830381600087803b15801561221b57600080fd5b505af115801561222f573d6000803e3d6000fd5b505050505050565b60408051426020808301919091524482840152336c010000000000000000000000000260608301528251605481840301815260749092019092528051910120309063db48a888908490849061229490662386f26fc1000090615bab565b336040518563ffffffff1660e060020a0281526004016122019493929190615717565b5050565b600354600160a060020a031633146122e85760405160e560020a62461bcd02815260040161084490615912565b60058190556040518181527f38fbb1c8b109c430f0c030e7ed076cf5611a307773a4e8e365601e8f8bceaec690602001610fae565b600354600160a060020a0316331461234a5760405160e560020a62461bcd02815260040161084490615912565b600380547cffffffffffffffffffffffffffffffffffffffffffffffffffffffffff1660e860020a62ffffff8481168202929092179283905560405192041681527fb7d28e616ee42c9b98a93c9bc72ee6f206603cd1e23793ae33c19c3c3b86c4e190602001610fae565b6123c38262ffffff16613c66565b6123e25760405160e560020a62461bcd028152600401610844906157c4565b6123f08162ffffff16613c66565b15156124008362ffffff16613c66565b151514156124795760405160e560020a62461bcd02815260206004820152602160248201527f596f7572204e4654732063616e6e6f742066696768742065616368206f74686560448201527f72000000000000000000000000000000000000000000000000000000000000006064820152608401610844565b62ffffff821660009081526008602052604090206001015442906124a090620151806159af565b106124f05760405160e560020a62461bcd02815260206004820152601b60248201527f596f75277265206368617261637465722069732072657374696e6700000000006044820152606401610844565b62ffffff8116600090815260086020526040902060010154429061251790620151806159af565b106125675760405160e560020a62461bcd02815260206004820152601760248201527f596f7527726520726976616c2069732072657374696e670000000000000000006044820152606401610844565b62ffffff808316600090815260086020526040902054600a605860020a90910490911610156125db5760405160e560020a62461bcd02815260206004820152601260248201527f4e6f7420656e6f756768207374616d696e6100000000000000000000000000006044820152606401610844565b62ffffff80821660009081526008602052604080822054928516825290205461ffff63010000009283900481169290910416111561265e5760405160e560020a62461bcd02815260206004820152601c60248201527f466967687420736f6d656f6e6520796f7572206f776e2073697a6521000000006044820152606401610844565b62ffffff808316600090815260086020526040902054604060020a900416158015906126a6575062ffffff808216600090815260086020526040902054604060020a90041615155b6126f55760405160e560020a62461bcd02815260206004820152601760248201527f4f6e65206f6620746865204e46547320697320646561640000000000000000006044820152606401610844565b60065460ff16612755576007546040517f44b0af8d00000000000000000000000000000000000000000000000000000000815262ffffff808516600483015283166024820152600160a060020a03909116906344b0af8d90604401612201565b60408051426020808301919091524482840152336c0100000000000000000000000002606083015282516054818403018152607490920190925280519101203090633aba1fca90849084906127ac90600390615bab565b60405160e060020a63ffffffff861602815262ffffff93841660048201529290911660248301526044820152606401612201565b6122b7338383614360565b60ff811661283e5760405160e560020a62461bcd02815260206004820152601260248201527f4e6f6e2d6578697374656e7420737475666600000000000000000000000000006044820152606401610844565b61284b308260ff166107c7565b61289a5760405160e560020a62461bcd02815260206004820152601760248201527f5374756666206e6f206d6f726520617661696c61626c650000000000000000006044820152606401610844565b60ff811660009081526009602052604090206001015434146129015760405160e560020a62461bcd02815260206004820152601460248201527f57726f6e6720616d6f756e74206f6620666565730000000000000000000000006044820152606401610844565b6040517ff242432a000000000000000000000000000000000000000000000000000000008152309063f242432a90612944908390339086906001906004016155d4565b600060405180830381600087803b15801561295e57600080fd5b505af1158015612972573d6000803e3d6000fd5b505060405160ff841681527f4afa87c6ddce4f5aa8b4ca6a375ecd27ea57ee7fec3e1648ceeea5c9dd19a2c892506020019050610fae565b6129e76040805160e081018252600080825260208201819052918101829052606081018290526080810182905260a081018290529060c082015290565b60ff808316600090815260096020908152604091829020825160e081018452815480861682526101008104861693820193909352620100008304851693810193909352630100000082048416606084015264010000000090910483166080830152600181015460a08301526002808201549293919260c08501921690811115612a7257612a72615bf1565b6002811115612a8357612a83615bf1565b90525092915050565b600354600160a060020a0316331480612aaf5750600754600160a060020a031633145b80612ab957503330145b612b085760405160e560020a62461bcd02815260206004820181905260248201527f4e6f7420616c6c6f77656420746f2075736520746869732066756e6374696f6e6044820152606401610844565b6000612b1383614458565b9050600080866002811115612b2a57612b2a615bf1565b1415612b44575060035460a860020a900461ffff16612b84565b6001866002811115612b5857612b58615bf1565b1415612b73575060035460b860020a900462ffffff16612b84565b5060035460d060020a900462ffffff165b604051806101e001604052808262ffffff168152602001600161ffff168152602001600162ffffff168152602001606462ffffff168152602001606462ffffff16815260200183600081518110612bdd57612bdd615c0a565b602002602001015160ff1662ffffff16815260200183600181518110612c0557612c05615c0a565b602002602001015160ff1662ffffff16815260200183600281518110612c2d57612c2d615c0a565b602002602001015160ff1662ffffff16815260200183600381518110612c5557612c55615c0a565b602002602001015160ff1662ffffff168152602001600062ffffff168152602001600060ff168152602001600060ff16815260200160008152602001876002811115612ca357612ca3615bf1565b8152602001866002811115612cba57612cba615bf1565b815250600860008362ffffff1662ffffff16815260200190815260200160002060008201518160000160006101000a81548162ffffff021916908362ffffff16021790555060208201518160000160036101000a81548161ffff021916908361ffff16021790555060408201518160000160056101000a81548162ffffff021916908362ffffff16021790555060608201518160000160086101000a81548162ffffff021916908362ffffff160217905550608082015181600001600b6101000a81548162ffffff021916908362ffffff16021790555060a082015181600001600e6101000a81548162ffffff021916908362ffffff16021790555060c08201518160000160116101000a81548162ffffff021916908362ffffff16021790555060e08201518160000160146101000a81548162ffffff021916908362ffffff1602179055506101008201518160000160176101000a81548162ffffff021916908362ffffff16021790555061012082015181600001601a6101000a81548162ffffff021916908362ffffff16021790555061014082015181600001601d6101000a81548160ff021916908360ff16021790555061016082015181600001601e6101000a81548160ff021916908360ff16021790555061018082015181600101556101a08201518160020160006101000a81548160ff02191690836002811115612ec657612ec6615bf1565b02179055506101c08201518160020160016101000a81548160ff02191690836002811115612ef657612ef6615bf1565b02179055505050600160a060020a0383166000908152600a60205260408120805460ff1691612f2483615b69565b91906101000a81548160ff021916908360ff160217905550506004866002811115612f5157612f51615bf1565b60ff1681548110612f6457612f64615c0a565b90600052602060002090600a918282040191900660030281819054906101000a900462ffffff1680929190612f9890615b35565b91906101000a81548162ffffff021916908362ffffff16021790555050612ff3838262ffffff166001612fcf8562ffffff166139a0565b604051602001612fdf91906154ee565b604051602081830303815290604052613b3d565b60405162ffffff821681527fe227f939502c878cd77af001b21022d49a6b5ad9c3103d7ad7cacc22b89c7e189060200160405180910390a1600086600281111561303f5761303f615bf1565b1415613080576003805460a860020a900461ffff1690601561306083615b13565b91906101000a81548161ffff021916908361ffff1602179055505061222f565b600186600281111561309457613094615bf1565b14156130d8576003805460b860020a900462ffffff169060176130b683615b35565b91906101000a81548162ffffff021916908362ffffff1602179055505061222f565b6003805460d060020a900462ffffff1690601a6130f483615b35565b91906101000a81548162ffffff021916908362ffffff16021790555050505050505050565b60ff8262ffffff16116131715760405160e560020a62461bcd02815260206004820152601960248201527f57726f6e67206b696e64206f66204e46542028537475666629000000000000006044820152606401610844565b61317f8262ffffff16613c66565b61319e5760405160e560020a62461bcd028152600401610844906157c4565b60ff8116600514156131f55760405160e560020a62461bcd02815260206004820152601860248201527f596f752063616e2774206571756970206120706f74696f6e00000000000000006044820152606401610844565b6132018160ff16613c66565b6132505760405160e560020a62461bcd02815260206004820152601860248201527f596f7520646f6e2774206f776e207468697320737475666600000000000000006044820152606401610844565b60ff808216600090815260096020526040812060020154909116908082600281111561327e5761327e615bf1565b14156132a9575062ffffff831660009081526008602052604090205460e860020a900460ff166132ca565b5062ffffff831660009081526008602052604090205460f060020a900460ff165b60ff8116156134705760ff80821660009081526009602090815260408083205462ffffff808a1685526008909352922080546101009093049093169291600e9161331e918591607060020a90910416615a64565b82546101009290920a62ffffff81810219909316918316021790915560ff8381166000908152600960209081526040808320548a86168452600890925290912080546201000090920490921693509091601191613384918591608860020a900416615a64565b82546101009290920a62ffffff81810219909316918316021790915560ff8381166000908152600960209081526040808320548a86168452600890925290912080546301000000909204909216935090916014916133eb91859160a060020a900416615a64565b82546101009290920a62ffffff81810219909316918316021790915560ff8381166000908152600960209081526040808320548a86168452600890925290912080546401000000009092049092169350909160179161345391859160b860020a900416615a64565b92506101000a81548162ffffff021916908362ffffff1602179055505b60ff80841660009081526009602090815260408083205462ffffff808a1685526008909352922080546101009093049093169291600e916134bb918591607060020a90910416615988565b82546101009290920a62ffffff81810219909316918316021790915560ff8581166000908152600960209081526040808320548a86168452600890925290912080546201000090920490921693509091601191613521918591608860020a900416615988565b82546101009290920a62ffffff81810219909316918316021790915560ff8581166000908152600960209081526040808320548a861684526008909252909120805463010000009092049092169350909160149161358891859160a060020a900416615988565b82546101009290920a62ffffff81810219909316918316021790915560ff8581166000908152600960209081526040808320548a8616845260089092529091208054640100000000909204909216935090916017916135f091859160b860020a900416615988565b92506101000a81548162ffffff021916908362ffffff1602179055506000600281111561361f5761361f615bf1565b82600281111561363157613631615bf1565b14156136815762ffffff8416600090815260086020526040902080547fffff00ffffffffffffffffffffffffffffffffffffffffffffffffffffffffff1660e860020a60ff8616021790556136c7565b62ffffff8416600090815260086020526040902080547fff00ffffffffffffffffffffffffffffffffffffffffffffffffffffffffffff1660f060020a60ff8616021790555b6040805162ffffff8616815260ff851660208201527f610fb6ee23e2ff6ad836d380855fbefc8d4c765b388a588262c443f13fefc30091015b60405180910390a150505050565b613716614c05565b62ffffff80831660009081526008602090815260409182902082516101e0810184528154808616825261ffff630100000082041693820193909352650100000000008304851693810193909352604060020a820484166060840152605860020a820484166080840152607060020a8204841660a0840152608860020a8204841660c084015260a060020a8204841660e084015260b860020a8204841661010084015260d060020a820490931661012083015260ff60e860020a8204811661014084015260f060020a909104811661016083015260018301546101808301526002808401549293926101a0850192169081111561381457613814615bf1565b600281111561382557613825615bf1565b81526020016002820160019054906101000a900460ff166002811115612a7257612a72615bf1565b600160a060020a038516331480613869575061386985336106e7565b6138de5760405160e560020a62461bcd02815260206004820152602960248201527f455243313135353a2063616c6c6572206973206e6f74206f776e6572206e6f7260448201527f20617070726f76656400000000000000000000000000000000000000000000006064820152608401610844565b610dea85858585856144f6565b600354600160a060020a031633146139185760405160e560020a62461bcd02815260040161084490615912565b600160a060020a0381166139975760405160e560020a62461bcd02815260206004820152602660248201527f4f776e61626c653a206e6577206f776e657220697320746865207a65726f206160448201527f64647265737300000000000000000000000000000000000000000000000000006064820152608401610844565b61201581614301565b6060816139e057505060408051808201909152600181527f3000000000000000000000000000000000000000000000000000000000000000602082015290565b8160005b8115613a0a57806139f481615b4e565b9150613a039050600a83615a0e565b91506139e4565b60008167ffffffffffffffff811115613a2557613a25615c23565b6040519080825280601f01601f191660200182016040528015613a4f576020820181803683370190505b5090505b8415613af157613a64600183615a80565b9150613a71600a86615bab565b613a7c9060306159af565b7f010000000000000000000000000000000000000000000000000000000000000002818381518110613ab057613ab0615c0a565b60200101907effffffffffffffffffffffffffffffffffffffffffffffffffffffffffffff1916908160001a905350613aea600a86615a0e565b9450613a53565b949350505050565b3b151590565b6000600160e060020a031982167f4e2312e0000000000000000000000000000000000000000000000000000000001480610870575061087082614619565b600160a060020a038416613bbc5760405160e560020a62461bcd02815260206004820152602160248201527f455243313135353a206d696e7420746f20746865207a65726f2061646472657360448201527f73000000000000000000000000000000000000000000000000000000000000006064820152608401610844565b33613bd681600087613bcd886146b4565b610dea886146b4565b600084815260208181526040808320600160a060020a038916845290915281208054859290613c069084906159af565b90915550506040805185815260208101859052600160a060020a0380881692600092918516917fc3d58168c5ae7397731d063d5bbf3d657854427343f4c083240f7aacaa2d0f62910160405180910390a4610dea816000878787876146ff565b6000613c7233836107c7565b151592915050565b8151835114613cf45760405160e560020a62461bcd02815260206004820152602860248201527f455243313135353a2069647320616e6420616d6f756e7473206c656e6774682060448201527f6d69736d617463680000000000000000000000000000000000000000000000006064820152608401610844565b600160a060020a038416613d1d5760405160e560020a62461bcd028152600401610844906157fb565b3360005b8451811015613e07576000858281518110613d3e57613d3e615c0a565b602002602001015190506000858381518110613d5c57613d5c615c0a565b60209081029190910181015160008481528083526040808220600160a060020a038e168352909352919091205490915081811015613daf5760405160e560020a62461bcd028152600401610844906158b5565b600083815260208181526040808320600160a060020a038e8116855292528083208585039055908b16825281208054849290613dec9084906159af565b9250508190555050505080613e0090615b4e565b9050613d21565b5084600160a060020a031686600160a060020a031682600160a060020a03167f4a39dc06d4c0dbc64b70af90fd698a233a518aa5d07e595d983b8c0526c8f7fb8787604051613e579291906156b3565b60405180910390a461222f8187878787876148ae565b600160a060020a038316613eec5760405160e560020a62461bcd02815260206004820152602360248201527f455243313135353a206275726e2066726f6d20746865207a65726f206164647260448201527f65737300000000000000000000000000000000000000000000000000000000006064820152608401610844565b33613f1c81856000613efd876146b4565b613f06876146b4565b5050604080516020810190915260009052505050565b600083815260208181526040808320600160a060020a038816845290915290205482811015613fb55760405160e560020a62461bcd028152602060048201526024808201527f455243313135353a206275726e20616d6f756e7420657863656564732062616c60448201527f616e6365000000000000000000000000000000000000000000000000000000006064820152608401610844565b600084815260208181526040808320600160a060020a03898116808652918452828520888703905582518981529384018890529092908616917fc3d58168c5ae7397731d063d5bbf3d657854427343f4c083240f7aacaa2d0f62910160405180910390a45050505050565b60008061402e8360016159af565b62ffffff80871660009081526008602052604090205460029165010000000000820481169161406e91608860020a8204811691607060020a900416615988565b6140789190615988565b61408291906159ec565b62ffffff166140919190615a22565b62ffffff808616600090815260086020526040812054929350916002916140ca9160b860020a810482169160a060020a90910416615988565b6140d491906159ec565b90508061ffff168261ffff1610156140f157600092505050614100565b6140fb8183615a41565b925050505b9392505050565b62ffffff808416600090815260086020526040902054604060020a90041661ffff8316106141635762ffffff8316600090815260086020526040902080546affffff00000000000000001916905561415e846149ad565b6142ae565b62ffffff8084166000908152600860205260409020546141909161ffff851691604060020a900416615a64565b62ffffff84811660009081526008602052604080822080546affffff00000000000000001916604060020a95851686021790558783168252902054919091041661ffff8216106142095762ffffff8416600090815260086020526040902080546affffff00000000000000001916905561415e836149ad565b62ffffff8085166000908152600860205260409020546142369161ffff841691604060020a900416615a64565b62ffffff858116600090815260086020526040902080546affffff00000000000000001916604060020a939092169290920217905561ffff81811690831611156142835761415e846149ad565b8161ffff168161ffff16111561429c5761415e836149ad565b6142a5846149ad565b6142ae836149ad565b6040805162ffffff80871682528516602082015261ffff8085169282019290925290821660608201527f91ad1d4c0919e1b53fbdcec65d7dc46d5f6d4de4cbeeeef5e6f1f107d0f4e28e90608001613700565b60038054600160a060020a0383811673ffffffffffffffffffffffffffffffffffffffff19831681179093556040519116919082907f8be0079c531659141344cd1fd0a4f28419497f9722a3daafe3b4186f6b6457e090600090a35050565b81600160a060020a031683600160a060020a031614156143eb5760405160e560020a62461bcd02815260206004820152602960248201527f455243313135353a2073657474696e6720617070726f76616c2073746174757360448201527f20666f722073656c6600000000000000000000000000000000000000000000006064820152608401610844565b600160a060020a03838116600081815260016020908152604080832094871680845294825291829020805460ff191686151590811790915591519182527f17307eab39ab6107e8899845ad3d59bd9653f200f220920489ca2b5937696c31910160405180910390a3505050565b60408051600480825260a08201909252606091600091906020820160808036833701905050905060005b60048160ff16101561164f57600361449b82600a6159c7565b6144a89060ff1686615bab565b6144b29190615bab565b6144bd9060036159c7565b828260ff16815181106144d2576144d2615c0a565b60ff90921660209283029190910190910152806144ee81615b69565b915050614482565b600160a060020a03841661451f5760405160e560020a62461bcd028152600401610844906157fb565b3361452f818787613bcd886146b4565b600084815260208181526040808320600160a060020a038a168452909152902054838110156145735760405160e560020a62461bcd028152600401610844906158b5565b600085815260208181526040808320600160a060020a038b81168552925280832087850390559088168252812080548692906145b09084906159af565b90915550506040805186815260208101869052600160a060020a03808916928a821692918616917fc3d58168c5ae7397731d063d5bbf3d657854427343f4c083240f7aacaa2d0f62910160405180910390a46146108288888888886146ff565b50505050505050565b6000600160e060020a031982167fd9b67a2600000000000000000000000000000000000000000000000000000000148061467c5750600160e060020a031982167f0e89341c00000000000000000000000000000000000000000000000000000000145b8061087057507f01ffc9a700000000000000000000000000000000000000000000000000000000600160e060020a0319831614610870565b604080516001808252818301909252606091600091906020808301908036833701905050905082816000815181106146ee576146ee615c0a565b602090810291909101015292915050565b600160a060020a0384163b1561222f576040517ff23a6e61000000000000000000000000000000000000000000000000000000008152600160a060020a0385169063f23a6e619061475c9089908990889088908890600401615591565b602060405180830381600087803b15801561477657600080fd5b505af19250505080156147a6575060408051601f3d908101601f191682019092526147a391810190615058565b60015b614862576147b2615c3c565b806308c379a014156147ef57506147c7615c5c565b806147d257506147f1565b8060405160e560020a62461bcd0281526004016108449190615754565b505b60405160e560020a62461bcd02815260206004820152603460248201527f455243313135353a207472616e7366657220746f206e6f6e204552433131353560448201527f526563656976657220696d706c656d656e7465720000000000000000000000006064820152608401610844565b600160e060020a031981167ff23a6e6100000000000000000000000000000000000000000000000000000000146146105760405160e560020a62461bcd02815260040161084490615767565b600160a060020a0384163b1561222f576040517fbc197c81000000000000000000000000000000000000000000000000000000008152600160a060020a0385169063bc197c819061490b9089908990889088908890600401615533565b602060405180830381600087803b15801561492557600080fd5b505af1925050508015614955575060408051601f3d908101601f1916820190925261495291810190615058565b60015b614961576147b2615c3c565b600160e060020a031981167fbc197c8100000000000000000000000000000000000000000000000000000000146146105760405160e560020a62461bcd02815260040161084490615767565b62ffffff808216600090815260086020526040902080546501000000000090049091169060056149dc83615b35565b82546101009290920a62ffffff818102199093169183160217909155828116600090815260086020526040902054614a229250600a916501000000000090910416615b89565b62ffffff166120155762ffffff8116600090815260086020526040902080546301000000900461ffff16906003614a5883615b13565b825461ffff9182166101009390930a92830291909202199091161790555062ffffff80821660009081526008602052604090208054600a92601a91614aa691859160d060020a900416615988565b825461010092830a62ffffff818102199092169290911602179091556006546040517f996061c4000000000000000000000000000000000000000000000000000000008152336004820152919004600160a060020a0316915063996061c490602401600060405180830381600087803b158015614b2257600080fd5b505af1158015614b36573d6000803e3d6000fd5b50506040517ff242432a00000000000000000000000000000000000000000000000000000000815230925063f242432a9150614b7e90839033906005906001906004016155d4565b600060405180830381600087803b158015614b9857600080fd5b505af1158015614bac573d6000803e3d6000fd5b5050505062ffffff81166000818152600860209081526040918290205482519384526301000000900461ffff16908301527f719792e6ed880d27219754d543fad5ae2f877eeff920d283bb067052d89378119101610fae565b604080516101e081018252600080825260208201819052918101829052606081018290526080810182905260a0810182905260c0810182905260e0810182905261010081018290526101208101829052610140810182905261016081018290526101808101829052906101a082019081526020016000905290565b8035600160a060020a0381168114614c9757600080fd5b919050565b600082601f830112614cad57600080fd5b81356020614cba82615964565b604051614cc78282615ae6565b838152828101915085830183850287018401881015614ce557600080fd5b60005b85811015614d0457813584529284019290840190600101614ce8565b5090979650505050505050565b600082601f830112614d2257600080fd5b813567ffffffffffffffff811115614d3c57614d3c615c23565b604051614d53601f8301601f191660200182615ae6565b818152846020838601011115614d6857600080fd5b816020850160208301376000918101602001919091529392505050565b803562ffffff81168114614c9757600080fd5b803560ff81168114614c9757600080fd5b600060208284031215614dbb57600080fd5b61410082614c80565b60008060408385031215614dd757600080fd5b614de083614c80565b9150614dee60208401614c80565b90509250929050565b600080600080600060a08688031215614e0f57600080fd5b614e1886614c80565b9450614e2660208701614c80565b9350604086013567ffffffffffffffff80821115614e4357600080fd5b614e4f89838a01614c9c565b94506060880135915080821115614e6557600080fd5b614e7189838a01614c9c565b93506080880135915080821115614e8757600080fd5b50614e9488828901614d11565b9150509295509295909350565b600080600080600060a08688031215614eb957600080fd5b614ec286614c80565b9450614ed060208701614c80565b93506040860135925060608601359150608086013567ffffffffffffffff811115614efa57600080fd5b614e9488828901614d11565b60008060408385031215614f1957600080fd5b614f2283614c80565b915060208301358015158114614f3757600080fd5b809150509250929050565b60008060408385031215614f5557600080fd5b614f5e83614c80565b946020939093013593505050565b60008060408385031215614f7f57600080fd5b823567ffffffffffffffff80821115614f9757600080fd5b818501915085601f830112614fab57600080fd5b81356020614fb882615964565b604051614fc58282615ae6565b8381528281019150858301838502870184018b1015614fe357600080fd5b600096505b8487101561500d57614ff981614c80565b835260019690960195918301918301614fe8565b509650508601359250508082111561502457600080fd5b5061503185828601614c9c565b9150509250929050565b60006020828403121561504d57600080fd5b813561410081615d07565b60006020828403121561506a57600080fd5b815161410081615d07565b6000806040838503121561508857600080fd5b823561509381615d1d565b91506020830135614f3781615d1d565b600080600080608085870312156150b957600080fd5b84356150c481615d1d565b935060208501356150d481615d1d565b9250604085013591506150e960608601614c80565b905092959194509250565b60006020828403121561510657600080fd5b61410082614d85565b6000806040838503121561512257600080fd5b61512b83614d85565b9150614dee60208401614d85565b60008060006060848603121561514e57600080fd5b61515784614d85565b925061516560208501614d85565b9150604084013590509250925092565b6000806040838503121561518857600080fd5b61519183614d85565b9150614dee60208401614d98565b6000602082840312156151b157600080fd5b5035919050565b6000602082840312156151ca57600080fd5b61410082614d98565b600080600080600080600080610100898b0312156151f057600080fd5b6151f989614d98565b97506020890135965061520e60408a01614d98565b955061521c60608a01614d98565b945061522a60808a01614d98565b935061523860a08a01614d98565b925060c0890135915060e089013561524f81615d1d565b809150509295985092959890939650565b600081518084526020808501945080840160005b8381101561529057815187529582019590820190600101615274565b509495945050505050565b600081518084526152b3816020860160208601615aba565b601f01601f19169290920160200192915050565b6152d081615ce6565b9052565b805162ffffff16825260208101516152f2602084018261ffff169052565b506040810151615309604084018262ffffff169052565b506060810151615320606084018262ffffff169052565b506080810151615337608084018262ffffff169052565b5060a081015161534e60a084018262ffffff169052565b5060c081015161536560c084018262ffffff169052565b5060e081015161537c60e084018262ffffff169052565b506101008181015162ffffff81168483015250506101208181015162ffffff81168483015250506101408181015160ff81168483015250506101608181015160ff811684830152505061018081810151908301526101a0808201516153e3828501826152c7565b50506101c0808201516153f8828501826152c7565b50505050565b60ff815116825260ff602082015116602083015260ff604082015116604083015260ff606082015116606083015260ff608082015116608083015260a081015160a083015260c081015161545181615ce6565b8060c0840152505050565b7f697066733a2f2f516d6536736e6f5763337265443543396e755378573342704c81527f7956636932696944387671435a536e4132693432702f000000000000000000006020820152600082516154ba816036850160208701615aba565b7f2e6a736f6e0000000000000000000000000000000000000000000000000000006036939091019283015250603b01919050565b7f556e6c696d697465642045766f6c7574696f6e2043686172616374657220230081526000825161552681601f850160208701615aba565b91909101601f0192915050565b6000600160a060020a03808816835280871660208401525060a0604083015261555f60a0830186615260565b82810360608401526155718186615260565b90508281036080840152615585818561529b565b98975050505050505050565b6000600160a060020a03808816835280871660208401525084604083015283606083015260a060808301526155c960a083018461529b565b979650505050505050565b600160a060020a03948516815292909316602083015260ff166040820152606081019190915260a06080820181905260009082015260c00190565b6020808252825182820181905260009190848201906040850190845b818110156156525761563e8385516152d4565b928401926101e0929092019160010161562b565b50909695505050505050565b6020808252825182820181905260009190848201906040850190845b818110156156525761568d8385516153fe565b9284019260e0929092019160010161567a565b6020815260006141006020830184615260565b6040815260006156c66040830185615260565b82810360208401526156d88185615260565b95945050505050565b606081016156ee85615ce6565b8482526156fa84615ce6565b836020830152600160a060020a0383166040830152949350505050565b6080810161572486615ce6565b85825261573085615ce6565b846020830152836040830152600160a060020a038316606083015295945050505050565b602081526000614100602083018461529b565b60208082526028908201527f455243313135353a204552433131353552656365697665722072656a6563746560408201527f6420746f6b656e73000000000000000000000000000000000000000000000000606082015260800190565b60208082526016908201527f596f7520646f6e2774206f776e2074686973204e465400000000000000000000604082015260600190565b60208082526025908201527f455243313135353a207472616e7366657220746f20746865207a65726f20616460408201527f6472657373000000000000000000000000000000000000000000000000000000606082015260800190565b60208082526022908201527f596f752772652063686172616374657220697320616c7265616479207265737460408201527f6564000000000000000000000000000000000000000000000000000000000000606082015260800190565b6020808252602a908201527f455243313135353a20696e73756666696369656e742062616c616e636520666f60408201527f72207472616e7366657200000000000000000000000000000000000000000000606082015260800190565b6020808252818101527f4f776e61626c653a2063616c6c6572206973206e6f7420746865206f776e6572604082015260600190565b6101e0810161087082846152d4565b60e0810161087082846153fe565b600067ffffffffffffffff82111561597e5761597e615c23565b5060209081020190565b600062ffffff8083168185168083038211156159a6576159a6615bbf565b01949350505050565b600082198211156159c2576159c2615bbf565b500190565b600060ff821660ff84168060ff038211156159e4576159e4615bbf565b019392505050565b600062ffffff80841680615a0257615a02615bd8565b92169190910492915050565b600082615a1d57615a1d615bd8565b500490565b6000816000190483118215151615615a3c57615a3c615bbf565b500290565b600061ffff83811690831681811015615a5c57615a5c615bbf565b039392505050565b600062ffffff83811690831681811015615a5c57615a5c615bbf565b600082821015615a9257615a92615bbf565b500390565b600060ff821660ff841680821015615ab157615ab1615bbf565b90039392505050565b60005b83811015615ad5578181015183820152602001615abd565b838111156153f85750506000910152565b601f8201601f1916810167ffffffffffffffff81118282101715615b0c57615b0c615c23565b6040525050565b600061ffff80831681811415615b2b57615b2b615bbf565b6001019392505050565b600062ffffff80831681811415615b2b57615b2b615bbf565b6000600019821415615b6257615b62615bbf565b5060010190565b600060ff821660ff811415615b8057615b80615bbf565b60010192915050565b600062ffffff80841680615b9f57615b9f615bd8565b92169190910692915050565b600082615bba57615bba615bd8565b500690565b60e060020a634e487b7102600052601160045260246000fd5b60e060020a634e487b7102600052601260045260246000fd5b60e060020a634e487b7102600052602160045260246000fd5b60e060020a634e487b7102600052603260045260246000fd5b60e060020a634e487b7102600052604160045260246000fd5b600060033d1115615c595760046000803e60e060020a6000510490505b90565b600060443d1015615c6a5790565b6040516003193d81016004833e81513d67ffffffffffffffff8160248401118184111715615c9a57505050505090565b8285019150815181811115615cb25750505050505090565b843d8701016020828501011115615ccc5750505050505090565b615cdb60208286010187615ae6565b509095945050505050565b600381106120155760e060020a634e487b7102600052602160045260246000fd5b600160e060020a03198116811461201557600080fd5b6003811061201557600080fdfea2646970667358221220aa00967901cb58c63aa5d2b011f78416e47ffdc683c2d5b3a79448b91136634b64736f6c63430008070033697066733a2f2f516d6536736e6f5763337265443543396e755378573342704c7956636932696944387671435a536e4132693432702f7b69647d2e6a736f6e",
  "immutableReferences": {},
  "source": "// SPDX-License-Identifier: MIT\r\npragma solidity 0.8.7;\r\n\r\nimport \"@openzeppelin/contracts/token/ERC1155/ERC1155.sol\";\r\nimport \"@openzeppelin/contracts/token/ERC1155/utils/ERC1155Holder.sol\";\r\nimport \"@openzeppelin/contracts/access/Ownable.sol\";\r\nimport \"@openzeppelin/contracts/utils/Strings.sol\";\r\nimport \"./RandomNumberGenerator.sol\";\r\nimport \"./UnlimitedToken.sol\";\r\n\r\n/** @title Unlimited Evolution */\r\ncontract UnlimitedEvolution is ERC1155, ERC1155Holder, Ownable {\r\n\r\n    /**\r\n     * @dev Allows you to receive ERC1155 tokens and therefore make external calls to mint.\r\n     * @param interfaceId Id of the interface.\r\n     */\r\n    function supportsInterface(bytes4 interfaceId) public view virtual override(ERC1155, ERC1155Receiver) returns(bool) {\r\n        return super.supportsInterface(interfaceId);\r\n    }\r\n\r\n    uint8 constant BASIC_SWORD = 1;\r\n    uint8 constant BASIC_SHIELD = 2;\r\n    uint8 constant EXCALIBUR = 3;\r\n    uint8 constant AEGIS = 4;\r\n    uint8 constant POTION = 5;\r\n    uint8 nextStuffId = 6;\r\n    uint16 nextBruteId = 256;\r\n    uint24 nextSpiritualId = 40256;\r\n    uint24 nextElementaryId = 80256;\r\n    uint24 limitMint = 4000;\r\n    uint24[] countMints = new uint8[](3);\r\n    uint256 mintFee = 0.001 ether;\r\n    // Only for tests, to avoid chainlink\r\n    bool public testMode;\r\n    \r\n    UnlimitedToken public unlimitedToken;\r\n    RandomNumberGenerator public randomNumberGenerator;\r\n\r\n    enum type_character { BRUTE, SPIRITUAL, ELEMENTARY }\r\n    enum gender_character { MASCULINE, FEMININE, OTHER }\r\n    enum type_stuff { WEAPON, SHIELD, POTION }\r\n\r\n    struct Character {\r\n        uint24 id;\r\n        uint16 level;\r\n        uint24 xp;\r\n        uint24 hp;\r\n        uint24 stamina;\r\n        uint24 attack1;\r\n        uint24 attack2;\r\n        uint24 defence1;\r\n        uint24 defence2;\r\n        uint24 attributePoints;\r\n        uint8 weapon;\r\n        uint8 shield;\r\n        uint256 lastRest;\r\n        type_character typeCharacter;\r\n        gender_character genderCharacter;\r\n    }\r\n\r\n    struct Stuff {\r\n        uint8 id;\r\n        uint8 bonusAttack1;\r\n        uint8 bonusAttack2;\r\n        uint8 bonusDefence1;\r\n        uint8 bonusDefence2;\r\n        uint256 mintPrice;\r\n        type_stuff typeStuff;\r\n    }\r\n\r\n    // Mapping from token ID to token details\r\n    mapping(uint24 => Character) private _characterDetails;\r\n\r\n    // Mapping from token ID to token details\r\n    mapping(uint8 => Stuff) private _stuffDetails;\r\n\r\n    // Mapping from account to his number of NFTs\r\n    mapping(address => uint8) private _balanceOfCharacters;\r\n\r\n    /**\r\n     * @dev Constructor of the contract ERC1155, mint stuff and add it to the mapping.\r\n     * @param _unlimitedTokenAddress Address of the contract UnlimitedToken.\r\n     * @param _randomNumberGenerator Address of the contract RandomNumberGenerator.\r\n     */\r\n    constructor(UnlimitedToken _unlimitedTokenAddress, RandomNumberGenerator _randomNumberGenerator) ERC1155(\"ipfs://Qme6snoWc3reD5C9nuSxW3BpLyVci2iiD8vqCZSnA2i42p/{id}.json\") {\r\n        unlimitedToken = _unlimitedTokenAddress;\r\n        randomNumberGenerator = _randomNumberGenerator;\r\n        _mint(address(this), BASIC_SWORD, 10**5, bytes(abi.encodePacked(\"Unlimited Evolution Stuff #\", Strings.toString(BASIC_SWORD))));\r\n        _stuffDetails[BASIC_SWORD] = Stuff(BASIC_SWORD, 2, 2, 0, 0, 0.001 ether, type_stuff.WEAPON);\r\n        _mint(address(this), BASIC_SHIELD, 10**5, bytes(abi.encodePacked(\"Unlimited Evolution Stuff #\", Strings.toString(BASIC_SHIELD))));\r\n        _stuffDetails[BASIC_SHIELD] = Stuff(BASIC_SHIELD, 0, 0, 2, 2, 0.001 ether, type_stuff.SHIELD);\r\n        _mint(address(this), EXCALIBUR, 1, bytes(abi.encodePacked(\"Unlimited Evolution Stuff #\", Strings.toString(EXCALIBUR))));\r\n        _stuffDetails[EXCALIBUR] = Stuff(EXCALIBUR, 10, 10, 10, 10, 0.1 ether, type_stuff.WEAPON);\r\n        _mint(address(this), AEGIS, 1, bytes(abi.encodePacked(\"Unlimited Evolution Stuff #\", Strings.toString(AEGIS))));\r\n        _stuffDetails[AEGIS] = Stuff(AEGIS, 10, 10, 10, 10, 0.1 ether, type_stuff.SHIELD);\r\n        _mint(address(this), POTION, 10**6, bytes(abi.encodePacked(\"Unlimited Evolution Potion #\", Strings.toString(POTION))));\r\n        _stuffDetails[POTION] = Stuff(POTION, 0, 0, 0, 0, 0.001 ether, type_stuff.POTION);\r\n    }\r\n\r\n    /**\r\n     * @dev Emitted when the character with \"id\" is created.\r\n     */\r\n    event CharacterCreated(uint24 id);\r\n\r\n    /**\r\n     * @dev Emitted when the character with \"id\" is rested, he recovers health points and stamina.\r\n     */\r\n    event Rested(uint24 tokenId);\r\n\r\n    /**\r\n     * @dev Emitted when the character with \"myTokenId\" removes \"substrateLifeToRival\" points of hp to \"rivalTokenId\" and the character with \"rivalTokenId\" removes \"substrateLifeToMe\" points of hp to \"myTokenId\".\r\n     */\r\n    event Fighted(uint24 myTokenId, uint24 rivalTokenId, uint256 substrateLifeToRival, uint256 substrateLifeToMe);\r\n    \r\n    /**\r\n     * @dev Emitted when the character with \"tokenId\" has gained enough experience points to increase one level.\r\n     */\r\n    event LevelUp(uint24 tokenId, uint16 level);\r\n\r\n    /**\r\n     * @dev Emitted when the owner changes the ether fee for minting, with the amount \"mintFee\".\r\n     */\r\n    event MintFeeUpdated(uint256 mintFee);\r\n\r\n    /**\r\n     * @dev Emitted when the owner changes the mintable NFT limit with the amount \"limitMint\".\r\n     */\r\n    event LimitUpdated(uint24 limitMint);\r\n\r\n    /**\r\n     * @dev Emitted when the msg.sender buy a stuff \".\r\n     */\r\n    event StuffBought(uint8 stuffId);\r\n\r\n    /**\r\n     * @dev Emitted when the msg.sender burn a potion.\r\n     */\r\n    event StuffEquiped(uint24 tokenId, uint8 stuffId);\r\n\r\n    /**\r\n     * @dev Emitted when the msg.sender burn a potion.\r\n     */\r\n    event PotionUsed(uint24 tokenId);\r\n\r\n    /**\r\n     * @dev Change the token's image URI\r\n     * @param _tokenId Id of the token.\r\n     */\r\n    function uri(uint _tokenId) override public pure returns(string memory) {\r\n        return string(abi.encodePacked(\r\n            \"ipfs://Qme6snoWc3reD5C9nuSxW3BpLyVci2iiD8vqCZSnA2i42p/\",\r\n            Strings.toString(_tokenId),\r\n            \".json\"\r\n        ));\r\n    }\r\n\r\n    /**\r\n     * @dev Return the name of the contract\r\n     */\r\n    function name() public pure returns(string memory) {\r\n        return \"Unlimited Evolution\";\r\n    }\r\n\r\n    /**\r\n     * @dev The function changes the ERC20 token address\r\n     * @param _tokenAddress New token address.\r\n     */\r\n    function setTokenAddress(address _tokenAddress) external onlyOwner {\r\n        unlimitedToken = UnlimitedToken(_tokenAddress);\r\n    }\r\n\r\n    /**\r\n     * @dev The function changes the Chainlink Random Number Generator address\r\n     * @param _randomAddress New token address.\r\n     */\r\n    function setLinkAddress(address _randomAddress) external onlyOwner {\r\n        randomNumberGenerator = RandomNumberGenerator(_randomAddress);\r\n    }\r\n    \r\n    /**\r\n     * @dev The function changes the ether fee for minting.\r\n     * @param _mintFee New amount of fee.\r\n     * Emits a \"MintFeeUpdated\" event.\r\n     */\r\n    function updateMintFee(uint256 _mintFee) external onlyOwner {\r\n        mintFee = _mintFee;\r\n        emit MintFeeUpdated(mintFee);\r\n    }\r\n\r\n    /**\r\n     * @dev The function changes the mintable NFT limit.\r\n     * @param _limitMint New limit of mintable NFT.\r\n     * Emits a \"LimitUpdated\" event.\r\n     */\r\n    function updateLimitMint(uint24 _limitMint) external onlyOwner {\r\n        limitMint = _limitMint;\r\n        emit LimitUpdated(limitMint);\r\n    }\r\n    \r\n    /**\r\n     * @dev Owner withdraws the entire amount of MATIC.\r\n     */\r\n    function withdrawMatic() external onlyOwner {\r\n        payable(owner()).transfer(address(this).balance);\r\n    }\r\n\r\n    /**\r\n     * @dev Owner withdraws an amount of LINK.\r\n     * @param value Amount of LINK.\r\n     */\r\n    function withdrawLink(uint256 value) external onlyOwner {\r\n        randomNumberGenerator.withdraw(value);\r\n    }\r\n\r\n    /**\r\n     * @dev Tip to simulate the function ownerOf of ERC721, check if msg.sender is owner of the token.\r\n     * @param _tokenId Id of the token.\r\n     * @return Boolean, true of false.\r\n     */\r\n    function _ownerOf(uint256 _tokenId) private view returns(bool) {\r\n        return balanceOf(msg.sender, _tokenId) != 0;\r\n    }\r\n\r\n    // /**\r\n    //  * @dev Allows you to create a new Stuff.\r\n    //  * Warning: Prefer to use createStuff() rather than manageStuff(), more secure with nextStuffId.\r\n    //  * @param amount Amount of NFT mintable.\r\n    //  * @param bonusAttack1 Bonus value attack1.\r\n    //  * @param bonusAttack2 Bonus value attack2.\r\n    //  * @param bonusDefence1 Bonus value defence1.\r\n    //  * @param bonusDefence2 Bonus value defence2.\r\n    //  * @param typeStuff Type of the stuff.\r\n    //  */\r\n    // function createStuff(uint256 amount, uint8 bonusAttack1, uint8 bonusAttack2, uint8 bonusDefence1, uint8 bonusDefence2, uint256 price, type_stuff typeStuff) external onlyOwner {\r\n    //     require(nextStuffId < 256, \"The NFT Stuff limit is reached\");\r\n    //     _mint(address(this), nextStuffId, amount, \"\");\r\n    //     _stuffDetails[nextStuffId] = Stuff(nextStuffId, bonusAttack1, bonusAttack2, bonusDefence1, bonusDefence2, price, typeStuff);\r\n    //     nextStuffId++;\r\n    // }\r\n\r\n    /**\r\n     * @dev Allows you to create a new Stuff/Consumable and to modify the quantity, statistics and type of an existing NFT Stuff.\r\n     * Warning: Be extremely careful with this function ! If you want to create a new NFT Stuff, prefer to use createStuff() !\r\n     * @param stuffId Id of the stuff.\r\n     * @param amount Amount of NFT mintable.\r\n     * @param bonusAttack1 Bonus value attack1.\r\n     * @param bonusAttack2 Bonus value attack2.\r\n     * @param bonusDefence1 Bonus value defence1.\r\n     * @param bonusDefence2 Bonus value defence2.\r\n     * @param typeStuff Type of the stuff.\r\n     */\r\n    function manageStuff(uint8 stuffId, uint256 amount, uint8 bonusAttack1, uint8 bonusAttack2, uint8 bonusDefence1, uint8 bonusDefence2, uint256 price, type_stuff typeStuff) external onlyOwner {\r\n        _mint(address(this), stuffId, amount, \"\");\r\n        if (stuffId != 5) {\r\n            _stuffDetails[stuffId] = Stuff(stuffId, bonusAttack1, bonusAttack2, bonusDefence1, bonusDefence2, price, typeStuff);\r\n        }\r\n    }\r\n\r\n    // /**\r\n    //  * @dev The function allows the allocation of \"attributePoints\" to the different characteristics.\r\n    //  * @param _tokenId Id of the token.\r\n    //  * @param _attack1 Attack number 1 of the token.\r\n    //  * @param _attack2 Attack number 2 of the token.\r\n    //  * @param _defence1 Defence number 1 of the token.\r\n    //  * @param _defence2 Defence number 2 of the token.\r\n    //  */\r\n    // function attributesLevelUp(uint24 _tokenId, uint16 _attack1, uint16 _attack2, uint16 _defence1, uint16 _defence2) external {\r\n    //     require(_characterDetails[_tokenId].attributePoints == _attack1 + _attack2 + _defence1 + _defence2, \"Wrong amount of points to attribute\");\r\n    //     _characterDetails[_tokenId].attack1 += _attack1;\r\n    //     _characterDetails[_tokenId].attack2 += _attack2;\r\n    //     _characterDetails[_tokenId].defence1 += _defence1;\r\n    //     _characterDetails[_tokenId].defence2 += _defence2;\r\n    // }\r\n\r\n    /**\r\n     * @dev The function assigns a number between 3 and 5 randomly to the attack characteristics using \"randomNumber\".\r\n     * @param randomNumber Random number from chainlink.\r\n     * @return Array of number (attributes).\r\n     */\r\n    function _attributesMintDistribution(uint256 randomNumber) private pure returns(uint8[] memory) {\r\n        uint8[] memory _attributes = new uint8[](4);\r\n        for(uint8 i=0; i<4; i++) {\r\n            _attributes[i] = 3 + uint8((randomNumber % (10+i)) % 3);\r\n        }\r\n        return _attributes;\r\n    }\r\n\r\n    /**\r\n     * @dev The Function ask to Chainlink a random number before to mint an NFT.\r\n     * @param _typeCharacter Type of character between BRUTE, SPIRITUAL, ELEMENTARY.\r\n     * @param _genderCharacter Gender of character between MASCULINE, FEMININE, OTHER.\r\n     */\r\n    function askCreateCharacter(type_character _typeCharacter, gender_character _genderCharacter) external payable {\r\n        require(msg.value == mintFee, \"Wrong amount of fees\");\r\n        require(_balanceOfCharacters[msg.sender] < 5, \"You can't have more than 5 NFT\");\r\n        require(countMints[uint8(_typeCharacter)] <= limitMint, \"You cannot mint more character with this class\");\r\n        if (!testMode) { // Only for tests, to avoid chainlink\r\n            randomNumberGenerator.getRandomNumberMint(_typeCharacter, _genderCharacter, msg.sender);\r\n        } else {\r\n            this.createCharacter(_typeCharacter, _genderCharacter, uint256(keccak256(abi.encodePacked(block.timestamp, block.difficulty, msg.sender))) % 10**16, msg.sender);\r\n        }\r\n    }\r\n\r\n    /**\r\n     * @dev The Function mint an NFT.\r\n     * @param _typeCharacter Type of character between BRUTE, SPIRITUAL, ELEMENTARY.\r\n     * @param _genderCharacter Gender of character between MASCULINE, FEMININE, OTHER.\r\n     * @param randomNumber Random number from chainlink.\r\n     * @param _address Address of the requestor (necessary for chainlink).\r\n     * Emits a \"CharacterCreated\" event.\r\n     */\r\n    function createCharacter(type_character _typeCharacter, gender_character _genderCharacter, uint256 randomNumber, address _address) external {\r\n        require(msg.sender == owner() || msg.sender == address(randomNumberGenerator) || msg.sender == address(this), \"Not allowed to use this function\");\r\n        uint8[] memory _attributes = _attributesMintDistribution(randomNumber);\r\n        uint24 nextCharacterId;\r\n        if(_typeCharacter == type_character.BRUTE) {\r\n            nextCharacterId = nextBruteId;\r\n        } else if (_typeCharacter == type_character.SPIRITUAL) {\r\n            nextCharacterId = nextSpiritualId;\r\n        } else {\r\n            nextCharacterId = nextElementaryId;\r\n        }\r\n        \r\n        _characterDetails[nextCharacterId] = Character(nextCharacterId, 1, 1, 100, 100, _attributes[0], _attributes[1], _attributes[2], _attributes[3], 0, 0, 0, 0, _typeCharacter, _genderCharacter);\r\n        _balanceOfCharacters[_address]++;\r\n        countMints[uint8(_typeCharacter)]++;\r\n        _mint(_address, nextCharacterId, 1, bytes(abi.encodePacked(\"Unlimited Evolution Character #\", Strings.toString(nextCharacterId))));\r\n        emit CharacterCreated(nextCharacterId);\r\n\r\n        if(_typeCharacter == type_character.BRUTE) {\r\n            nextBruteId++;\r\n        } else if (_typeCharacter == type_character.SPIRITUAL) {\r\n            nextSpiritualId++;\r\n        } else {\r\n            nextElementaryId++;\r\n        }\r\n    }\r\n\r\n    /**\r\n     * @dev The function allows the NFT to recover 100 health points and 100 stamina points.\r\n     * @param _tokenId Id of the token.\r\n     * Emits a \"Rested\" event.\r\n     */\r\n    function rest(uint24 _tokenId) external {\r\n        require(_ownerOf(_tokenId), \"You don't own this NFT\");\r\n        require(_characterDetails[_tokenId].stamina < 100 || _characterDetails[_tokenId].hp < 100, \"You're character is already rested\");\r\n        _characterDetails[_tokenId].lastRest = block.timestamp;\r\n        _characterDetails[_tokenId].stamina = 100;\r\n        _characterDetails[_tokenId].hp = 100;\r\n        emit Rested(_tokenId);\r\n    }\r\n\r\n    /**\r\n     * @dev One experience point is added and if the experience number reaches % 10 == 0 then the NFT increases one level and gains 10 points to attribute to his stats.\r\n     * @param _tokenId Id of the token.\r\n     * Emits a \"LevelUp\" event.\r\n     */\r\n    function _xpLevelUp(uint24 _tokenId) private {\r\n        _characterDetails[_tokenId].xp++;\r\n        if (_characterDetails[_tokenId].xp % 10 == 0) {\r\n            _characterDetails[_tokenId].level++;\r\n            _characterDetails[_tokenId].attributePoints += 10;\r\n            unlimitedToken.levelUpMint(msg.sender);\r\n            this.safeTransferFrom(address(this), msg.sender, POTION, 1, \"\");\r\n            emit LevelUp(_tokenId, _characterDetails[_tokenId].level);\r\n        }\r\n    }\r\n\r\n    /**\r\n     * @dev Fight algorithm: attack, defence and experience points are taken into account to determine a winner.\r\n     * @param _id1 Id of the token number 1.\r\n     * @param _id2 Id of the token number 2.\r\n     * @return Number resulting from fight operations.\r\n     */\r\n    function _substrateLife(uint24 _id1, uint24 _id2, uint256 randomNumber) private view returns(uint16) {\r\n        uint16 op1 = uint16(((_characterDetails[_id1].attack1 + _characterDetails[_id1].attack2 + _characterDetails[_id1].xp) / 2) * (1 + randomNumber));\r\n        uint16 op2 = uint16((_characterDetails[_id2].defence1 + _characterDetails[_id2].defence2) / 2);\r\n        if (op1 < op2) {\r\n            return 0;\r\n        } else {\r\n            return op1 - op2;\r\n        }\r\n    }\r\n\r\n    /**\r\n     * @dev The Function manages the different scenarios during a fight.\r\n     * @param _myTokenId Id of the token number 1.\r\n     * @param _rivalTokenId Id of the token number 2.\r\n     * @param _substrateLifeToRival Number of life points to remove from _rivalTokenId.\r\n     * @param _substrateLifeToMe Number of life points to remove from _myTokenId.\r\n     * Emits a \"Fighted\" event.\r\n     */\r\n    function _subtrateLifeOperation(uint24 _myTokenId, uint24 _rivalTokenId, uint16 _substrateLifeToRival, uint16 _substrateLifeToMe) private {\r\n        if(_substrateLifeToRival >= _characterDetails[_rivalTokenId].hp) {\r\n            _characterDetails[_rivalTokenId].hp = 0;\r\n            _xpLevelUp(_myTokenId);\r\n        } else {\r\n            _characterDetails[_rivalTokenId].hp = _characterDetails[_rivalTokenId].hp - uint24(_substrateLifeToRival);\r\n            if(_substrateLifeToMe >= _characterDetails[_myTokenId].hp) {\r\n                _characterDetails[_myTokenId].hp = 0;\r\n                _xpLevelUp(_rivalTokenId);\r\n            } else {\r\n                _characterDetails[_myTokenId].hp = _characterDetails[_myTokenId].hp - uint24(_substrateLifeToMe);\r\n                if (_substrateLifeToRival > _substrateLifeToMe) {\r\n                    _xpLevelUp(_myTokenId);\r\n                } else if (_substrateLifeToMe > _substrateLifeToRival) {\r\n                    _xpLevelUp(_rivalTokenId);\r\n                } else {\r\n                    _xpLevelUp(_myTokenId);\r\n                    _xpLevelUp(_rivalTokenId);\r\n                }\r\n            }\r\n        }\r\n        emit Fighted(_myTokenId, _rivalTokenId, _substrateLifeToRival, _substrateLifeToMe);\r\n    }\r\n\r\n    /**\r\n     * @dev The Function ask to Chainlink a random number before to fight.\r\n     * @param _myTokenId Id of the fighter number 1.\r\n     * @param _rivalTokenId Id of the fighter number 2.\r\n     */\r\n    function askFight(uint24 _myTokenId, uint24 _rivalTokenId) external {\r\n        require(_ownerOf(_myTokenId), \"You don't own this NFT\");\r\n        require(_ownerOf(_myTokenId) != _ownerOf(_rivalTokenId), \"Your NFTs cannot fight each other\");\r\n        require(_characterDetails[_myTokenId].lastRest + 86400 < block.timestamp, \"You're character is resting\");\r\n        require(_characterDetails[_rivalTokenId].lastRest + 86400 < block.timestamp, \"You're rival is resting\");\r\n        require(_characterDetails[_myTokenId].stamina >= 10, \"Not enough stamina\");\r\n        require(_characterDetails[_myTokenId].level <= _characterDetails[_rivalTokenId].level, \"Fight someone your own size!\");\r\n        require(_characterDetails[_myTokenId].hp > 0 && _characterDetails[_rivalTokenId].hp > 0, \"One of the NFTs is dead\");\r\n        if (!testMode) { // Only for tests, to avoid chainlink\r\n            randomNumberGenerator.getRandomNumberFight(_myTokenId, _rivalTokenId);\r\n        } else {\r\n            this.fight(_myTokenId, _rivalTokenId, uint256(keccak256(abi.encodePacked(block.timestamp, block.difficulty, msg.sender))) % 3);\r\n        }  \r\n    }\r\n\r\n    /**\r\n     * @dev The function allows you to use your NFT to fight with another NFT belonging to another user.\r\n     * @param _myTokenId Id of the fighter number 1.\r\n     * @param _rivalTokenId Id of the fighter number 2.\r\n     * @param randomNumber Random number from chainlink.\r\n     */\r\n    function fight(uint24 _myTokenId, uint24 _rivalTokenId, uint256 randomNumber) external {\r\n        require(msg.sender == address(randomNumberGenerator), \"Not allowed to use this function\");\r\n        uint16 _substrateLifeToRival = _substrateLife(_myTokenId, _rivalTokenId, randomNumber);\r\n        uint16 _substrateLifeToMe = _substrateLife(_rivalTokenId, _myTokenId, 0);\r\n        _characterDetails[_myTokenId].stamina = _characterDetails[_myTokenId].stamina - 10;\r\n        _subtrateLifeOperation(_myTokenId, _rivalTokenId, _substrateLifeToRival, _substrateLifeToMe);\r\n    }\r\n\r\n    /**\r\n     * @dev The function allows you to buy a stuff NFT\r\n     * @param stuffId Id of the stuff.\r\n     * Emits a \"StuffBought\" event.\r\n     */\r\n    function buyStuff(uint8 stuffId) external payable {\r\n        require(stuffId != 0, \"Non-existent stuff\");\r\n        require(balanceOf(address(this), stuffId) != 0, \"Stuff no more available\");\r\n        require(msg.value == _stuffDetails[stuffId].mintPrice, \"Wrong amount of fees\");\r\n        this.safeTransferFrom(address(this), msg.sender, stuffId, 1, \"\");\r\n        emit StuffBought(stuffId);\r\n    }\r\n\r\n    /**\r\n     * @dev The function allows you to equip stuff to your NFT\r\n     * @param tokenId Id of the token.\r\n     * @param stuffId Id of the stuff to equip.\r\n     * Emits a \"StuffEquiped\" event.\r\n     */\r\n    function equipStuff(uint24 tokenId, uint8 stuffId) external {\r\n        require(tokenId > 255, \"Wrong kind of NFT (Stuff)\");\r\n        require(_ownerOf(tokenId), \"You don't own this NFT\");\r\n        require(stuffId != POTION, \"You can't equip a potion\");\r\n        require(_ownerOf(stuffId), \"You don't own this stuff\");\r\n        type_stuff stuffType = _stuffDetails[stuffId].typeStuff;\r\n        uint8 idStuffEquiped;\r\n        if (stuffType == type_stuff.WEAPON) {\r\n            idStuffEquiped = _characterDetails[tokenId].weapon;\r\n        } else {\r\n            idStuffEquiped = _characterDetails[tokenId].shield;\r\n        }\r\n        if (idStuffEquiped != 0) {\r\n            _characterDetails[tokenId].attack1 -= _stuffDetails[idStuffEquiped].bonusAttack1;\r\n            _characterDetails[tokenId].attack2 -= _stuffDetails[idStuffEquiped].bonusAttack2;\r\n            _characterDetails[tokenId].defence1 -= _stuffDetails[idStuffEquiped].bonusDefence1;\r\n            _characterDetails[tokenId].defence2 -= _stuffDetails[idStuffEquiped].bonusDefence2;\r\n        }\r\n        _characterDetails[tokenId].attack1 += _stuffDetails[stuffId].bonusAttack1;\r\n        _characterDetails[tokenId].attack2 += _stuffDetails[stuffId].bonusAttack2;\r\n        _characterDetails[tokenId].defence1 += _stuffDetails[stuffId].bonusDefence1;\r\n        _characterDetails[tokenId].defence2 += _stuffDetails[stuffId].bonusDefence2;\r\n        if (stuffType == type_stuff.WEAPON) {\r\n            _characterDetails[tokenId].weapon = stuffId;\r\n        } else {\r\n            _characterDetails[tokenId].shield = stuffId;\r\n        }\r\n        emit StuffEquiped(tokenId, stuffId);\r\n    }\r\n\r\n    /**\r\n     * @dev The function burn a POTION and restore the hp and stamina of your NFT\r\n     * @param tokenId Id of the token.\r\n     * Emits a \"PotionUsed\" event.\r\n     */\r\n    function usePotion(uint24 tokenId) external {\r\n        require(tokenId > 255, \"Wrong kind of NFT (Stuff)\");\r\n        require(_ownerOf(tokenId), \"You don't own this NFT\");\r\n        require(_ownerOf(POTION), \"You don't own a potion\");\r\n        require(_characterDetails[tokenId].stamina < 100 || _characterDetails[tokenId].hp < 100, \"You're character is already rested\");\r\n        _burn(msg.sender, POTION, 1);\r\n        _characterDetails[tokenId].stamina = 100;\r\n        _characterDetails[tokenId].hp = 100;\r\n        emit PotionUsed(tokenId);\r\n    }\r\n\r\n    /**\r\n     * @dev The function returns the characteristics of the NFT.\r\n     * @param tokenId Id of the token.\r\n     * @return Character Details of tokenId.\r\n     */\r\n    function getTokenDetails(uint24 tokenId) external view returns(Character memory) {\r\n        return _characterDetails[tokenId];\r\n    }\r\n\r\n    /**\r\n     * @dev The function returns the characteristics of the stuff.\r\n     * @param stuffId Id of the stuff.\r\n     * @return Stuff Details of stuffId.\r\n     */\r\n    function getStuffDetails(uint8 stuffId) external view returns(Stuff memory) {\r\n        return _stuffDetails[stuffId];\r\n    }\r\n\r\n    /**\r\n     * @dev The function returns an array with the characteristics of all my NFTs.\r\n     * @return Array of characters.\r\n     */\r\n    function getMyCharacters() external view returns(Character[] memory){\r\n        uint8 count;\r\n        Character[] memory myCharacters = new Character[](_balanceOfCharacters[msg.sender]);\r\n        for (uint16 i = 256; i < nextBruteId; i++) {\r\n            if (_ownerOf(i)) {\r\n                myCharacters[count] = _characterDetails[i];\r\n                count++;\r\n            }\r\n        }\r\n        for (uint24 i = 40256; i < nextSpiritualId; i++) {\r\n            if (_ownerOf(i)) {\r\n                myCharacters[count] = _characterDetails[i];\r\n                count++;\r\n            }\r\n        }\r\n        for (uint24 i = 80256; i < nextElementaryId; i++) {\r\n            if (_ownerOf(i)) {\r\n                myCharacters[count] = _characterDetails[i];\r\n                count++;\r\n            }\r\n        }\r\n        return myCharacters;\r\n    }\r\n\r\n    /**\r\n     * @dev The function returns an array with the characteristics of all the NFTs that don't belong to me.\r\n     * @return Array of characters.\r\n     */\r\n    function getOthersCharacters() external view returns(Character[] memory){\r\n        uint24 count;\r\n        Character[] memory othersCharacters = new Character[]((nextBruteId - 256) + ((nextSpiritualId - 40256)) + (nextElementaryId - 80256) - _balanceOfCharacters[msg.sender]);\r\n        for (uint16 i = 256; i < nextBruteId; i++) {\r\n            if (!_ownerOf(i)) {\r\n                othersCharacters[count] = _characterDetails[i];\r\n                count++;\r\n            }\r\n        }\r\n        for (uint24 i = 40256; i < nextSpiritualId; i++) {\r\n            if (!_ownerOf(i)) {\r\n                othersCharacters[count] = _characterDetails[i];\r\n                count++;\r\n            }\r\n        }\r\n        for (uint24 i = 80256; i < nextElementaryId; i++) {\r\n            if (!_ownerOf(i)) {\r\n                othersCharacters[count] = _characterDetails[i];\r\n                count++;\r\n            }\r\n        }\r\n        return othersCharacters;\r\n    }\r\n\r\n    /**\r\n     * @dev The function returns an array with the characteristics of all my Stuffs.\r\n     * @return Array of stuffs.\r\n     */\r\n    function getMyStuffs() external view returns(Stuff[] memory){\r\n        uint8 arrayCount;\r\n        for (uint8 i; i < nextStuffId; i++) {\r\n            if (i !=5 && _ownerOf(i)) {\r\n                arrayCount++;\r\n            }\r\n        }\r\n        Stuff[] memory myStuffs = new Stuff[](arrayCount);\r\n        uint8 count;\r\n        for (uint8 i; i < nextStuffId-1; i++) {\r\n            if (i !=5 && _ownerOf(i)) {\r\n                myStuffs[count] = _stuffDetails[i];\r\n                count++;\r\n            }\r\n        }\r\n        return myStuffs;\r\n    }\r\n    \r\n    // Only for tests, to avoid chainlink\r\n    function testModeSwitch() external onlyOwner {\r\n        testMode = !testMode;\r\n    }\r\n}\r\n",
  "sourcePath": "D:\\TAF\\Alyra\\ALYRA_PROJET_FINAL\\unlimited_evolution\\contracts\\UnlimitedEvolution.sol",
  "compiler": {
    "name": "solc",
    "version": "0.8.7+commit.e28d00a7.Emscripten.clang"
  },
  "schemaVersion": "3.4.3",
  "updatedAt": "2022-01-23T17:02:59.393Z",
  "devdoc": {
    "events": {
      "CharacterCreated(uint24)": {
        "details": "Emitted when the character with \"id\" is created."
      },
      "Fighted(uint24,uint24,uint256,uint256)": {
        "details": "Emitted when the character with \"myTokenId\" removes \"substrateLifeToRival\" points of hp to \"rivalTokenId\" and the character with \"rivalTokenId\" removes \"substrateLifeToMe\" points of hp to \"myTokenId\"."
      },
      "LevelUp(uint24,uint16)": {
        "details": "Emitted when the character with \"tokenId\" has gained enough experience points to increase one level."
      },
      "LimitUpdated(uint24)": {
        "details": "Emitted when the owner changes the mintable NFT limit with the amount \"limitMint\"."
      },
      "MintFeeUpdated(uint256)": {
        "details": "Emitted when the owner changes the ether fee for minting, with the amount \"mintFee\"."
      },
      "PotionUsed(uint24)": {
        "details": "Emitted when the msg.sender burn a potion."
      },
      "Rested(uint24)": {
        "details": "Emitted when the character with \"id\" is rested, he recovers health points and stamina."
      },
      "StuffBought(uint8)": {
        "details": "Emitted when the msg.sender buy a stuff \"."
      },
      "StuffEquiped(uint24,uint8)": {
        "details": "Emitted when the msg.sender burn a potion."
      }
    },
    "kind": "dev",
    "methods": {
      "askCreateCharacter(uint8,uint8)": {
        "details": "The Function ask to Chainlink a random number before to mint an NFT.",
        "params": {
          "_genderCharacter": "Gender of character between MASCULINE, FEMININE, OTHER.",
          "_typeCharacter": "Type of character between BRUTE, SPIRITUAL, ELEMENTARY."
        }
      },
      "askFight(uint24,uint24)": {
        "details": "The Function ask to Chainlink a random number before to fight.",
        "params": {
          "_myTokenId": "Id of the fighter number 1.",
          "_rivalTokenId": "Id of the fighter number 2."
        }
      },
      "balanceOf(address,uint256)": {
        "details": "See {IERC1155-balanceOf}. Requirements: - `account` cannot be the zero address."
      },
      "balanceOfBatch(address[],uint256[])": {
        "details": "See {IERC1155-balanceOfBatch}. Requirements: - `accounts` and `ids` must have the same length."
      },
      "buyStuff(uint8)": {
        "details": "The function allows you to buy a stuff NFT",
        "params": {
          "stuffId": "Id of the stuff. Emits a \"StuffBought\" event."
        }
      },
      "constructor": {
        "details": "Constructor of the contract ERC1155, mint stuff and add it to the mapping.",
        "params": {
          "_randomNumberGenerator": "Address of the contract RandomNumberGenerator.",
          "_unlimitedTokenAddress": "Address of the contract UnlimitedToken."
        }
      },
      "createCharacter(uint8,uint8,uint256,address)": {
        "details": "The Function mint an NFT.",
        "params": {
          "_address": "Address of the requestor (necessary for chainlink). Emits a \"CharacterCreated\" event.",
          "_genderCharacter": "Gender of character between MASCULINE, FEMININE, OTHER.",
          "_typeCharacter": "Type of character between BRUTE, SPIRITUAL, ELEMENTARY.",
          "randomNumber": "Random number from chainlink."
        }
      },
      "equipStuff(uint24,uint8)": {
        "details": "The function allows you to equip stuff to your NFT",
        "params": {
          "stuffId": "Id of the stuff to equip. Emits a \"StuffEquiped\" event.",
          "tokenId": "Id of the token."
        }
      },
      "fight(uint24,uint24,uint256)": {
        "details": "The function allows you to use your NFT to fight with another NFT belonging to another user.",
        "params": {
          "_myTokenId": "Id of the fighter number 1.",
          "_rivalTokenId": "Id of the fighter number 2.",
          "randomNumber": "Random number from chainlink."
        }
      },
      "getMyCharacters()": {
        "details": "The function returns an array with the characteristics of all my NFTs.",
        "returns": {
          "_0": "Array of characters."
        }
      },
      "getMyStuffs()": {
        "details": "The function returns an array with the characteristics of all my Stuffs.",
        "returns": {
          "_0": "Array of stuffs."
        }
      },
      "getOthersCharacters()": {
        "details": "The function returns an array with the characteristics of all the NFTs that don't belong to me.",
        "returns": {
          "_0": "Array of characters."
        }
      },
      "getStuffDetails(uint8)": {
        "details": "The function returns the characteristics of the stuff.",
        "params": {
          "stuffId": "Id of the stuff."
        },
        "returns": {
          "_0": "Stuff Details of stuffId."
        }
      },
      "getTokenDetails(uint24)": {
        "details": "The function returns the characteristics of the NFT.",
        "params": {
          "tokenId": "Id of the token."
        },
        "returns": {
          "_0": "Character Details of tokenId."
        }
      },
      "isApprovedForAll(address,address)": {
        "details": "See {IERC1155-isApprovedForAll}."
      },
      "manageStuff(uint8,uint256,uint8,uint8,uint8,uint8,uint256,uint8)": {
        "details": "Allows you to create a new Stuff/Consumable and to modify the quantity, statistics and type of an existing NFT Stuff. Warning: Be extremely careful with this function ! If you want to create a new NFT Stuff, prefer to use createStuff() !",
        "params": {
          "amount": "Amount of NFT mintable.",
          "bonusAttack1": "Bonus value attack1.",
          "bonusAttack2": "Bonus value attack2.",
          "bonusDefence1": "Bonus value defence1.",
          "bonusDefence2": "Bonus value defence2.",
          "stuffId": "Id of the stuff.",
          "typeStuff": "Type of the stuff."
        }
      },
      "name()": {
        "details": "Return the name of the contract"
      },
      "owner()": {
        "details": "Returns the address of the current owner."
      },
      "renounceOwnership()": {
        "details": "Leaves the contract without owner. It will not be possible to call `onlyOwner` functions anymore. Can only be called by the current owner. NOTE: Renouncing ownership will leave the contract without an owner, thereby removing any functionality that is only available to the owner."
      },
      "rest(uint24)": {
        "details": "The function allows the NFT to recover 100 health points and 100 stamina points.",
        "params": {
          "_tokenId": "Id of the token. Emits a \"Rested\" event."
        }
      },
      "safeBatchTransferFrom(address,address,uint256[],uint256[],bytes)": {
        "details": "See {IERC1155-safeBatchTransferFrom}."
      },
      "safeTransferFrom(address,address,uint256,uint256,bytes)": {
        "details": "See {IERC1155-safeTransferFrom}."
      },
      "setApprovalForAll(address,bool)": {
        "details": "See {IERC1155-setApprovalForAll}."
      },
      "setLinkAddress(address)": {
        "details": "The function changes the Chainlink Random Number Generator address",
        "params": {
          "_randomAddress": "New token address."
        }
      },
      "setTokenAddress(address)": {
        "details": "The function changes the ERC20 token address",
        "params": {
          "_tokenAddress": "New token address."
        }
      },
      "supportsInterface(bytes4)": {
        "details": "Allows you to receive ERC1155 tokens and therefore make external calls to mint.",
        "params": {
          "interfaceId": "Id of the interface."
        }
      },
      "transferOwnership(address)": {
        "details": "Transfers ownership of the contract to a new account (`newOwner`). Can only be called by the current owner."
      },
      "updateLimitMint(uint24)": {
        "details": "The function changes the mintable NFT limit.",
        "params": {
          "_limitMint": "New limit of mintable NFT. Emits a \"LimitUpdated\" event."
        }
      },
      "updateMintFee(uint256)": {
        "details": "The function changes the ether fee for minting.",
        "params": {
          "_mintFee": "New amount of fee. Emits a \"MintFeeUpdated\" event."
        }
      },
      "uri(uint256)": {
        "details": "Change the token's image URI",
        "params": {
          "_tokenId": "Id of the token."
        }
      },
      "usePotion(uint24)": {
        "details": "The function burn a POTION and restore the hp and stamina of your NFT",
        "params": {
          "tokenId": "Id of the token. Emits a \"PotionUsed\" event."
        }
      },
      "withdrawLink(uint256)": {
        "details": "Owner withdraws an amount of LINK.",
        "params": {
          "value": "Amount of LINK."
        }
      },
      "withdrawMatic()": {
        "details": "Owner withdraws the entire amount of MATIC."
      }
    },
    "title": "Unlimited Evolution ",
    "version": 1
  },
  "userdoc": {
    "kind": "user",
    "methods": {},
    "version": 1
  }
}