{
  "contractName": "UnlimitedToken",
  "abi": [
    {
      "inputs": [
        {
          "internalType": "string",
          "name": "_name",
          "type": "string"
        },
        {
          "internalType": "string",
          "name": "_symbol",
          "type": "string"
        },
        {
          "internalType": "uint256",
          "name": "nbTokens",
          "type": "uint256"
        }
      ],
      "stateMutability": "nonpayable",
      "type": "constructor"
    },
    {
      "anonymous": false,
      "inputs": [
        {
          "indexed": true,
          "internalType": "address",
          "name": "tokenOwner",
          "type": "address"
        },
        {
          "indexed": true,
          "internalType": "address",
          "name": "spender",
          "type": "address"
        },
        {
          "indexed": false,
          "internalType": "uint256",
          "name": "tokens",
          "type": "uint256"
        }
      ],
      "name": "Approval",
      "type": "event"
    },
    {
      "anonymous": false,
      "inputs": [
        {
          "indexed": true,
          "internalType": "address",
          "name": "previousOwner",
          "type": "address"
        },
        {
          "indexed": true,
          "internalType": "address",
          "name": "newOwner",
          "type": "address"
        }
      ],
      "name": "OwnershipTransferred",
      "type": "event"
    },
    {
      "anonymous": false,
      "inputs": [
        {
          "indexed": true,
          "internalType": "address",
          "name": "from",
          "type": "address"
        },
        {
          "indexed": true,
          "internalType": "address",
          "name": "to",
          "type": "address"
        },
        {
          "indexed": false,
          "internalType": "uint256",
          "name": "amount",
          "type": "uint256"
        }
      ],
      "name": "Transfer",
      "type": "event"
    },
    {
      "inputs": [
        {
          "internalType": "address",
          "name": "",
          "type": "address"
        },
        {
          "internalType": "address",
          "name": "",
          "type": "address"
        }
      ],
      "name": "allowance",
      "outputs": [
        {
          "internalType": "uint256",
          "name": "",
          "type": "uint256"
        }
      ],
      "stateMutability": "view",
      "type": "function"
    },
    {
      "inputs": [
        {
          "internalType": "address",
          "name": "",
          "type": "address"
        }
      ],
      "name": "balanceOf",
      "outputs": [
        {
          "internalType": "uint256",
          "name": "",
          "type": "uint256"
        }
      ],
      "stateMutability": "view",
      "type": "function"
    },
    {
      "inputs": [],
      "name": "decimals",
      "outputs": [
        {
          "internalType": "uint8",
          "name": "",
          "type": "uint8"
        }
      ],
      "stateMutability": "view",
      "type": "function"
    },
    {
      "inputs": [],
      "name": "gameContract",
      "outputs": [
        {
          "internalType": "address",
          "name": "",
          "type": "address"
        }
      ],
      "stateMutability": "view",
      "type": "function"
    },
    {
      "inputs": [
        {
          "internalType": "address",
          "name": "",
          "type": "address"
        }
      ],
      "name": "isAMMPair",
      "outputs": [
        {
          "internalType": "bool",
          "name": "",
          "type": "bool"
        }
      ],
      "stateMutability": "view",
      "type": "function"
    },
    {
      "inputs": [],
      "name": "name",
      "outputs": [
        {
          "internalType": "string",
          "name": "",
          "type": "string"
        }
      ],
      "stateMutability": "view",
      "type": "function"
    },
    {
      "inputs": [],
      "name": "owner",
      "outputs": [
        {
          "internalType": "address",
          "name": "",
          "type": "address"
        }
      ],
      "stateMutability": "view",
      "type": "function"
    },
    {
      "inputs": [],
      "name": "renounceOwnership",
      "outputs": [],
      "stateMutability": "nonpayable",
      "type": "function"
    },
    {
      "inputs": [],
      "name": "symbol",
      "outputs": [
        {
          "internalType": "string",
          "name": "",
          "type": "string"
        }
      ],
      "stateMutability": "view",
      "type": "function"
    },
    {
      "inputs": [],
      "name": "tax",
      "outputs": [
        {
          "internalType": "uint8",
          "name": "",
          "type": "uint8"
        }
      ],
      "stateMutability": "view",
      "type": "function"
    },
    {
      "inputs": [],
      "name": "taxWallet",
      "outputs": [
        {
          "internalType": "address",
          "name": "",
          "type": "address"
        }
      ],
      "stateMutability": "view",
      "type": "function"
    },
    {
      "inputs": [],
      "name": "totalSupply",
      "outputs": [
        {
          "internalType": "uint256",
          "name": "",
          "type": "uint256"
        }
      ],
      "stateMutability": "view",
      "type": "function"
    },
    {
      "inputs": [
        {
          "internalType": "address",
          "name": "newOwner",
          "type": "address"
        }
      ],
      "name": "transferOwnership",
      "outputs": [],
      "stateMutability": "nonpayable",
      "type": "function"
    },
    {
      "inputs": [
        {
          "internalType": "address",
          "name": "receiver",
          "type": "address"
        },
        {
          "internalType": "uint256",
          "name": "amount",
          "type": "uint256"
        }
      ],
      "name": "levelUpMint",
      "outputs": [],
      "stateMutability": "nonpayable",
      "type": "function"
    },
    {
      "inputs": [
        {
          "internalType": "address",
          "name": "receiver",
          "type": "address"
        },
        {
          "internalType": "uint256",
          "name": "amount",
          "type": "uint256"
        }
      ],
      "name": "transfer",
      "outputs": [],
      "stateMutability": "nonpayable",
      "type": "function"
    },
    {
      "inputs": [
        {
          "internalType": "address",
          "name": "spender",
          "type": "address"
        },
        {
          "internalType": "uint256",
          "name": "tokens",
          "type": "uint256"
        }
      ],
      "name": "approve",
      "outputs": [
        {
          "internalType": "bool",
          "name": "success",
          "type": "bool"
        }
      ],
      "stateMutability": "nonpayable",
      "type": "function"
    },
    {
      "inputs": [
        {
          "internalType": "address",
          "name": "from",
          "type": "address"
        },
        {
          "internalType": "address",
          "name": "to",
          "type": "address"
        },
        {
          "internalType": "uint256",
          "name": "amount",
          "type": "uint256"
        }
      ],
      "name": "transferFrom",
      "outputs": [
        {
          "internalType": "bool",
          "name": "success",
          "type": "bool"
        }
      ],
      "stateMutability": "nonpayable",
      "type": "function"
    },
    {
      "inputs": [
        {
          "internalType": "uint8",
          "name": "_tax",
          "type": "uint8"
        }
      ],
      "name": "setTax",
      "outputs": [],
      "stateMutability": "nonpayable",
      "type": "function"
    },
    {
      "inputs": [
        {
          "internalType": "address",
          "name": "_taxWallet",
          "type": "address"
        }
      ],
      "name": "setTaxWallet",
      "outputs": [],
      "stateMutability": "nonpayable",
      "type": "function"
    },
    {
      "inputs": [
        {
          "internalType": "address",
          "name": "pair",
          "type": "address"
        },
        {
          "internalType": "bool",
          "name": "taxed",
          "type": "bool"
        }
      ],
      "name": "setAMMPair",
      "outputs": [],
      "stateMutability": "nonpayable",
      "type": "function"
    },
    {
      "inputs": [
        {
          "internalType": "address",
          "name": "_gameContract",
          "type": "address"
        }
      ],
      "name": "setGameContract",
      "outputs": [],
      "stateMutability": "nonpayable",
      "type": "function"
    }
  ],
  "bytecode": "0x60806040526005805460ff191660121790553480156200001e57600080fd5b50604051620014b2380380620014b2833981016040819052620000419162000311565b6200006762000058640100000000620000d1810204565b640100000000620000d5810204565b82516200007c906004906020860190620001b4565b50815162000092906003906020850190620001b4565b50600554620000c8903390620000ad9060ff16600a620003ea565b620000b99084620004b9565b64010000000062000125810204565b5050506200058f565b3390565b60008054600160a060020a03838116600160a060020a0319831681178455604051919092169283917f8be0079c531659141344cd1fd0a4f28419497f9722a3daafe3b4186f6b6457e09190a35050565b600160a060020a038216600090815260016020526040812080548392906200014f90849062000384565b9250508190555080600660008282546200016a919062000384565b9091555050604051818152600160a060020a038316906000907fddf252ad1be2c89b69c2b068fc378daa952ba7f163c4a11628f55a4df523b3ef9060200160405180910390a35050565b828054620001c290620004db565b90600052602060002090601f016020900481019282620001e6576000855562000231565b82601f106200020157805160ff191683800117855562000231565b8280016001018555821562000231579182015b828111156200023157825182559160200191906001019062000214565b506200023f92915062000243565b5090565b5b808211156200023f576000815560010162000244565b600082601f8301126200026c57600080fd5b81516001604060020a038082111562000289576200028962000560565b604051601f8301601f19908116603f01168101908282118183101715620002b457620002b462000560565b81604052838152602092508683858801011115620002d157600080fd5b600091505b83821015620002f55785820183015181830184015290820190620002d6565b83821115620003075760008385830101525b9695505050505050565b6000806000606084860312156200032757600080fd5b83516001604060020a03808211156200033f57600080fd5b6200034d878388016200025a565b945060208601519150808211156200036457600080fd5b5062000373868287016200025a565b925050604084015190509250925092565b600082198211156200039a576200039a62000531565b500190565b600181815b80851115620003e2578160001904821115620003c457620003c462000531565b80851615620003d257918102915b60029094049390800290620003a4565b509250929050565b6000620003fb60ff84168362000402565b9392505050565b6000826200041357506001620004b3565b816200042257506000620004b3565b81600181146200043b5760028114620004465762000467565b6001915050620004b3565b60ff8411156200045a576200045a62000531565b8360020a915050620004b3565b5060208310610133831016604e8410600b84101617156200048c575081810a620004b3565b6200049883836200039f565b8060001904821115620004af57620004af62000531565b0290505b92915050565b6000816000190483118215151615620004d657620004d662000531565b500290565b600281046001821680620004f057607f821691505b602082108114156200052b577f4e487b7100000000000000000000000000000000000000000000000000000000600052602260045260246000fd5b50919050565b7f4e487b7100000000000000000000000000000000000000000000000000000000600052601160045260246000fd5b7f4e487b7100000000000000000000000000000000000000000000000000000000600052604160045260246000fd5b610f13806200059f6000396000f3fe608060405234801561001057600080fd5b5060043610610154576000357c010000000000000000000000000000000000000000000000000000000090048063715018a6116100d5578063b0249cc611610099578063b0249cc6146102af578063c202ea4c146102d2578063d3f33009146102e5578063dd62ed3e146102f8578063ea414b2814610323578063f2fde38b1461033657600080fd5b8063715018a61461026e5780638da5cb5b1461027657806395d89b411461028757806399c8d5561461028f578063a9059cbb1461029c57600080fd5b80632d99d32e1161011c5780632d99d32e146101d95780632dc0562d146101ec578063313ce5671461021c578063405ebd4d1461023b57806370a082311461024e57600080fd5b806306fdde0314610159578063095ea7b31461017757806318160ddd1461019a57806323b872dd146101b157806324ff2acc146101c4575b600080fd5b610161610349565b60405161016e9190610d27565b60405180910390f35b61018a610185366004610cda565b6103d7565b604051901515815260200161016e565b6101a360065481565b60405190815260200161016e565b61018a6101bf366004610c62565b610443565b6101d76101d2366004610cda565b610605565b005b6101d76101e7366004610c9e565b610695565b600754610204906101009004600160a060020a031681565b604051600160a060020a03909116815260200161016e565b6005546102299060ff1681565b60405160ff909116815260200161016e565b6101d7610249366004610c0d565b6106ed565b6101a361025c366004610c0d565b60016020526000908152604090205481565b6101d7610749565b600054600160a060020a0316610204565b610161610782565b6007546102299060ff1681565b6101d76102aa366004610cda565b61078f565b61018a6102bd366004610c0d565b60086020526000908152604090205460ff1681565b6101d76102e0366004610d04565b610800565b60095461020490600160a060020a031681565b6101a3610306366004610c2f565b600260209081526000928352604080842090915290825290205481565b6101d7610331366004610c0d565b61089a565b6101d7610344366004610c0d565b6108fc565b6004805461035690610e3a565b80601f016020809104026020016040519081016040528092919081815260200182805461038290610e3a565b80156103cf5780601f106103a4576101008083540402835291602001916103cf565b820191906000526020600020905b8154815290600101906020018083116103b257829003601f168201915b505050505081565b336000818152600260209081526040808320600160a060020a038716808552925280832085905551919290917f8c5be1e5ebec7d5bd14f71427d1e84f3dd0314c0f7b2291e5b200ac8c7c3b925906104329086815260200190565b60405180910390a350600192915050565b600160a060020a03831660009081526002602090815260408083203384529091528120548211156104e45760405160e560020a62461bcd02815260206004820152602760248201527f596f75206172656e277420616c6c6f77656420746f207370656e64207468697360448201527f20616d6f756e740000000000000000000000000000000000000000000000000060648201526084015b60405180910390fd5b600160a060020a03841660009081526001602052604090205482111561054f5760405160e560020a62461bcd02815260206004820152601460248201527f496e73756666696369656e742062616c616e636500000000000000000000000060448201526064016104db565b600160a060020a038416600090815260026020908152604080832033845290915281208054849290610582908490610e23565b909155505060075460ff166105a15761059c8484846109b4565b6105fb565b600160a060020a03841660009081526008602052604090205460ff16806105e05750600160a060020a03831660009081526008602052604090205460ff165b156105f05761059c848484610a50565b6105fb8484846109b4565b5060019392505050565b600954600160a060020a0316331461061c57600080fd5b600160a060020a03821660009081526001602052604081208054839290610644908490610db1565b92505081905550806006600082825461065d9190610db1565b9091555050604051818152600160a060020a03831690600090600080516020610ebe8339815191529060200160405180910390a35050565b600054600160a060020a031633146106c25760405160e560020a62461bcd0281526004016104db90610d7c565b600160a060020a03919091166000908152600860205260409020805460ff1916911515919091179055565b600054600160a060020a0316331461071a5760405160e560020a62461bcd0281526004016104db90610d7c565b6009805473ffffffffffffffffffffffffffffffffffffffff1916600160a060020a0392909216919091179055565b600054600160a060020a031633146107765760405160e560020a62461bcd0281526004016104db90610d7c565b6107806000610b94565b565b6003805461035690610e3a565b336000908152600160205260409020548111156107f15760405160e560020a62461bcd02815260206004820152601560248201527f496e73756666696369656e742062616c616e63652e000000000000000000000060448201526064016104db565b6107fc3383836109b4565b5050565b600054600160a060020a0316331461082d5760405160e560020a62461bcd0281526004016104db90610d7c565b60058160ff1611156108845760405160e560020a62461bcd02815260206004820152601d60248201527f746178206d757374206265206265747765656e203020616e642035202500000060448201526064016104db565b6007805460ff191660ff92909216919091179055565b600054600160a060020a031633146108c75760405160e560020a62461bcd0281526004016104db90610d7c565b60078054600160a060020a039092166101000274ffffffffffffffffffffffffffffffffffffffff0019909216919091179055565b600054600160a060020a031633146109295760405160e560020a62461bcd0281526004016104db90610d7c565b600160a060020a0381166109a85760405160e560020a62461bcd02815260206004820152602660248201527f4f776e61626c653a206e6577206f776e657220697320746865207a65726f206160448201527f646472657373000000000000000000000000000000000000000000000000000060648201526084016104db565b6109b181610b94565b50565b600160a060020a038316600090815260016020526040812080548392906109dc908490610e23565b9091555050600160a060020a03821660009081526001602052604081208054839290610a09908490610db1565b9250508190555081600160a060020a031683600160a060020a0316600080516020610ebe83398151915283604051610a4391815260200190565b60405180910390a3505050565b600754600090606490610a669060ff1684610e04565b610a709190610dc9565b90506000610a7e8284610e23565b600160a060020a038616600090815260016020526040812080549293508592909190610aab908490610e23565b90915550506007546101009004600160a060020a031660009081526001602052604081208054849290610adf908490610db1565b9091555050600160a060020a03841660009081526001602052604081208054839290610b0c908490610db1565b9250508190555083600160a060020a031685600160a060020a0316600080516020610ebe83398151915283604051610b4691815260200190565b60405180910390a3600754604051600160a060020a03610100909204821691871690600080516020610ebe83398151915290610b859086815260200190565b60405180910390a35050505050565b60008054600160a060020a0383811673ffffffffffffffffffffffffffffffffffffffff19831681178455604051919092169283917f8be0079c531659141344cd1fd0a4f28419497f9722a3daafe3b4186f6b6457e09190a35050565b8035600160a060020a0381168114610c0857600080fd5b919050565b600060208284031215610c1f57600080fd5b610c2882610bf1565b9392505050565b60008060408385031215610c4257600080fd5b610c4b83610bf1565b9150610c5960208401610bf1565b90509250929050565b600080600060608486031215610c7757600080fd5b610c8084610bf1565b9250610c8e60208501610bf1565b9150604084013590509250925092565b60008060408385031215610cb157600080fd5b610cba83610bf1565b915060208301358015158114610ccf57600080fd5b809150509250929050565b60008060408385031215610ced57600080fd5b610cf683610bf1565b946020939093013593505050565b600060208284031215610d1657600080fd5b813560ff81168114610c2857600080fd5b600060208083528351808285015260005b81811015610d5457858101830151858201604001528201610d38565b81811115610d66576000604083870101525b50601f01601f1916929092016040019392505050565b6020808252818101527f4f776e61626c653a2063616c6c6572206973206e6f7420746865206f776e6572604082015260600190565b60008219821115610dc457610dc4610e8e565b500190565b600082610dff577f4e487b7100000000000000000000000000000000000000000000000000000000600052601260045260246000fd5b500490565b6000816000190483118215151615610e1e57610e1e610e8e565b500290565b600082821015610e3557610e35610e8e565b500390565b600281046001821680610e4e57607f821691505b60208210811415610e88577f4e487b7100000000000000000000000000000000000000000000000000000000600052602260045260246000fd5b50919050565b7f4e487b7100000000000000000000000000000000000000000000000000000000600052601160045260246000fdfeddf252ad1be2c89b69c2b068fc378daa952ba7f163c4a11628f55a4df523b3efa264697066735822122050f99387e63bc8461c122dbb0afe7c22da7bc914ae1d35465d6b09fbb12f041b64736f6c63430008070033",
  "immutableReferences": {},
  "source": "// SPDX-License-Identifier: GPL-3.0\r\npragma solidity 0.8.7;\r\nimport \"@openzeppelin/contracts/access/Ownable.sol\";\r\n\r\ncontract UnlimitedToken is Ownable {\r\n\r\n    mapping (address => uint) public balanceOf;\r\n    mapping (address => mapping (address => uint256)) public allowance;\r\n\r\n    string public symbol;\r\n    string public name;\r\n    uint8 public decimals = 18;\r\n    uint256 public totalSupply;\r\n\r\n    uint8 public tax;\r\n    address public taxWallet;\r\n    mapping (address => bool) public isAMMPair ;\r\n    // address public owner;\r\n    address public gameContract;\r\n    // modifier onlyOwner{\r\n    //     require(msg.sender==owner);\r\n    //     _;\r\n    // }\r\n    \r\n    event Transfer (address indexed from, address indexed to, uint amount);\r\n    event Approval (address indexed tokenOwner, address indexed spender, uint tokens);\r\n\r\n    constructor(string memory _name,string memory _symbol,uint nbTokens){\r\n        name=_name;\r\n        symbol=_symbol;\r\n        // owner=msg.sender;\r\n        firstMint(msg.sender,nbTokens*10**decimals);\r\n    }\r\n\r\n    function firstMint(address receiver, uint amount) private {\r\n        balanceOf[receiver] += amount;\r\n        totalSupply += amount;\r\n        \r\n        emit Transfer(address(0), receiver, amount);\r\n    }\r\n\r\n    function levelUpMint(address receiver, uint amount) external {\r\n        require(msg.sender==gameContract);\r\n        \r\n        balanceOf[receiver] += amount;\r\n        totalSupply += amount;\r\n        \r\n        emit Transfer(address(0), receiver, amount);\r\n    }\r\n\r\n    // ERC-20 //\r\n    function transfer(address receiver, uint amount) external {\r\n        require(balanceOf[msg.sender]>=amount, \"Insufficient balance.\");\r\n        \r\n        transferWithoutTax(msg.sender,receiver,amount);\r\n    }\r\n\r\n    function approve(address spender, uint tokens) external returns (bool success) {\r\n        allowance[msg.sender][spender] = tokens;\r\n        \r\n        emit Approval(msg.sender, spender, tokens);\r\n        return true;\r\n    }\r\n    \r\n    function transferFrom(address from, address to, uint256 amount) external returns (bool success) {\r\n        require(allowance[from][msg.sender]>= amount, \"You aren't allowed to spend this amount\");\r\n        require(balanceOf[from]>=amount, \"Insufficient balance\");\r\n        \r\n        allowance[from][msg.sender] -= amount;\r\n        \r\n        if (tax==0){\r\n            transferWithoutTax(from,to,amount);\r\n        }\r\n        else{\r\n            if (isAMMPair[from] || isAMMPair[to]){\r\n                transferWithTax(from,to,amount);\r\n            }\r\n            else{\r\n                transferWithoutTax(from,to,amount);\r\n            }\r\n        }\r\n        return true;\r\n    }\r\n\r\n    function transferWithoutTax(address from, address to, uint256 amount) private{\r\n        balanceOf[from] -= amount;\r\n        balanceOf[to] += amount;\r\n        \r\n        emit Transfer(from, to, amount);\r\n    }\r\n\r\n    function transferWithTax(address from, address to, uint256 amount) private{\r\n        uint taxed=amount*tax/100;\r\n        uint notTaxed=amount-taxed;\r\n        \r\n        balanceOf[from] -= amount;\r\n        balanceOf[taxWallet] += taxed;\r\n        balanceOf[to] += notTaxed;\r\n        \r\n        emit Transfer(from, to, notTaxed);\r\n        emit Transfer(from, taxWallet, taxed);\r\n    }\r\n    \r\n    // Owner parameters //\r\n    function setTax(uint8 _tax) external onlyOwner{\r\n        require(_tax>=0 && _tax<=5,\"tax must be between 0 and 5 %\");\r\n        tax=_tax;\r\n    }\r\n\r\n    function setTaxWallet(address _taxWallet) external onlyOwner{\r\n        taxWallet=_taxWallet;\r\n    }\r\n\r\n    // function setOwner(address _owner) external onlyOwner{\r\n    //     owner=_owner;\r\n    // }\r\n\r\n    function setAMMPair(address pair, bool taxed) external onlyOwner{\r\n        isAMMPair[pair]=taxed;\r\n    }\r\n    \r\n    function setGameContract(address _gameContract) external onlyOwner{\r\n        gameContract=_gameContract;\r\n    }\r\n}\r\n",
  "sourcePath": "D:\\TAF\\Alyra\\ALYRA_PROJET_FINAL\\unlimited_evolution\\contracts\\UnlimitedToken.sol",
  "compiler": {
    "name": "solc",
    "version": "0.8.7+commit.e28d00a7.Emscripten.clang"
  },
  "schemaVersion": "3.4.3",
  "updatedAt": "2022-01-07T16:14:53.840Z",
  "devdoc": {
    "kind": "dev",
    "methods": {
      "owner()": {
        "details": "Returns the address of the current owner."
      },
      "renounceOwnership()": {
        "details": "Leaves the contract without owner. It will not be possible to call `onlyOwner` functions anymore. Can only be called by the current owner. NOTE: Renouncing ownership will leave the contract without an owner, thereby removing any functionality that is only available to the owner."
      },
      "transferOwnership(address)": {
        "details": "Transfers ownership of the contract to a new account (`newOwner`). Can only be called by the current owner."
      }
    },
    "version": 1
  },
  "userdoc": {
    "kind": "user",
    "methods": {},
    "version": 1
  }
}