{
  "contractName": "UnlimitedEvolution",
  "abi": [
    {
      "inputs": [],
      "stateMutability": "nonpayable",
      "type": "constructor"
    },
    {
      "anonymous": false,
      "inputs": [
        {
          "indexed": true,
          "internalType": "address",
          "name": "owner",
          "type": "address"
        },
        {
          "indexed": true,
          "internalType": "address",
          "name": "approved",
          "type": "address"
        },
        {
          "indexed": true,
          "internalType": "uint256",
          "name": "tokenId",
          "type": "uint256"
        }
      ],
      "name": "Approval",
      "type": "event"
    },
    {
      "anonymous": false,
      "inputs": [
        {
          "indexed": true,
          "internalType": "address",
          "name": "owner",
          "type": "address"
        },
        {
          "indexed": true,
          "internalType": "address",
          "name": "operator",
          "type": "address"
        },
        {
          "indexed": false,
          "internalType": "bool",
          "name": "approved",
          "type": "bool"
        }
      ],
      "name": "ApprovalForAll",
      "type": "event"
    },
    {
      "anonymous": false,
      "inputs": [
        {
          "indexed": false,
          "internalType": "uint256",
          "name": "id",
          "type": "uint256"
        }
      ],
      "name": "CharacterCreated",
      "type": "event"
    },
    {
      "anonymous": false,
      "inputs": [
        {
          "indexed": false,
          "internalType": "uint256",
          "name": "myTokenId",
          "type": "uint256"
        },
        {
          "indexed": false,
          "internalType": "uint256",
          "name": "rivalTokenId",
          "type": "uint256"
        },
        {
          "indexed": false,
          "internalType": "uint256",
          "name": "substrateLifeToRival",
          "type": "uint256"
        },
        {
          "indexed": false,
          "internalType": "uint256",
          "name": "substrateLifeToMe",
          "type": "uint256"
        }
      ],
      "name": "Fighted",
      "type": "event"
    },
    {
      "anonymous": false,
      "inputs": [
        {
          "indexed": false,
          "internalType": "uint256",
          "name": "tokenId",
          "type": "uint256"
        }
      ],
      "name": "Healed",
      "type": "event"
    },
    {
      "anonymous": false,
      "inputs": [
        {
          "indexed": false,
          "internalType": "uint256",
          "name": "tokenId",
          "type": "uint256"
        },
        {
          "indexed": false,
          "internalType": "uint256",
          "name": "level",
          "type": "uint256"
        }
      ],
      "name": "LevelUp",
      "type": "event"
    },
    {
      "anonymous": false,
      "inputs": [
        {
          "indexed": true,
          "internalType": "address",
          "name": "previousOwner",
          "type": "address"
        },
        {
          "indexed": true,
          "internalType": "address",
          "name": "newOwner",
          "type": "address"
        }
      ],
      "name": "OwnershipTransferred",
      "type": "event"
    },
    {
      "anonymous": false,
      "inputs": [
        {
          "indexed": true,
          "internalType": "address",
          "name": "from",
          "type": "address"
        },
        {
          "indexed": true,
          "internalType": "address",
          "name": "to",
          "type": "address"
        },
        {
          "indexed": true,
          "internalType": "uint256",
          "name": "tokenId",
          "type": "uint256"
        }
      ],
      "name": "Transfer",
      "type": "event"
    },
    {
      "inputs": [
        {
          "internalType": "address",
          "name": "to",
          "type": "address"
        },
        {
          "internalType": "uint256",
          "name": "tokenId",
          "type": "uint256"
        }
      ],
      "name": "approve",
      "outputs": [],
      "stateMutability": "nonpayable",
      "type": "function"
    },
    {
      "inputs": [
        {
          "internalType": "address",
          "name": "owner",
          "type": "address"
        }
      ],
      "name": "balanceOf",
      "outputs": [
        {
          "internalType": "uint256",
          "name": "",
          "type": "uint256"
        }
      ],
      "stateMutability": "view",
      "type": "function",
      "constant": true
    },
    {
      "inputs": [
        {
          "internalType": "uint256",
          "name": "tokenId",
          "type": "uint256"
        }
      ],
      "name": "getApproved",
      "outputs": [
        {
          "internalType": "address",
          "name": "",
          "type": "address"
        }
      ],
      "stateMutability": "view",
      "type": "function",
      "constant": true
    },
    {
      "inputs": [
        {
          "internalType": "address",
          "name": "owner",
          "type": "address"
        },
        {
          "internalType": "address",
          "name": "operator",
          "type": "address"
        }
      ],
      "name": "isApprovedForAll",
      "outputs": [
        {
          "internalType": "bool",
          "name": "",
          "type": "bool"
        }
      ],
      "stateMutability": "view",
      "type": "function",
      "constant": true
    },
    {
      "inputs": [],
      "name": "name",
      "outputs": [
        {
          "internalType": "string",
          "name": "",
          "type": "string"
        }
      ],
      "stateMutability": "view",
      "type": "function",
      "constant": true
    },
    {
      "inputs": [],
      "name": "owner",
      "outputs": [
        {
          "internalType": "address",
          "name": "",
          "type": "address"
        }
      ],
      "stateMutability": "view",
      "type": "function",
      "constant": true
    },
    {
      "inputs": [
        {
          "internalType": "uint256",
          "name": "tokenId",
          "type": "uint256"
        }
      ],
      "name": "ownerOf",
      "outputs": [
        {
          "internalType": "address",
          "name": "",
          "type": "address"
        }
      ],
      "stateMutability": "view",
      "type": "function",
      "constant": true
    },
    {
      "inputs": [],
      "name": "renounceOwnership",
      "outputs": [],
      "stateMutability": "nonpayable",
      "type": "function"
    },
    {
      "inputs": [
        {
          "internalType": "address",
          "name": "from",
          "type": "address"
        },
        {
          "internalType": "address",
          "name": "to",
          "type": "address"
        },
        {
          "internalType": "uint256",
          "name": "tokenId",
          "type": "uint256"
        }
      ],
      "name": "safeTransferFrom",
      "outputs": [],
      "stateMutability": "nonpayable",
      "type": "function"
    },
    {
      "inputs": [
        {
          "internalType": "address",
          "name": "from",
          "type": "address"
        },
        {
          "internalType": "address",
          "name": "to",
          "type": "address"
        },
        {
          "internalType": "uint256",
          "name": "tokenId",
          "type": "uint256"
        },
        {
          "internalType": "bytes",
          "name": "_data",
          "type": "bytes"
        }
      ],
      "name": "safeTransferFrom",
      "outputs": [],
      "stateMutability": "nonpayable",
      "type": "function"
    },
    {
      "inputs": [
        {
          "internalType": "address",
          "name": "operator",
          "type": "address"
        },
        {
          "internalType": "bool",
          "name": "approved",
          "type": "bool"
        }
      ],
      "name": "setApprovalForAll",
      "outputs": [],
      "stateMutability": "nonpayable",
      "type": "function"
    },
    {
      "inputs": [
        {
          "internalType": "bytes4",
          "name": "interfaceId",
          "type": "bytes4"
        }
      ],
      "name": "supportsInterface",
      "outputs": [
        {
          "internalType": "bool",
          "name": "",
          "type": "bool"
        }
      ],
      "stateMutability": "view",
      "type": "function",
      "constant": true
    },
    {
      "inputs": [],
      "name": "symbol",
      "outputs": [
        {
          "internalType": "string",
          "name": "",
          "type": "string"
        }
      ],
      "stateMutability": "view",
      "type": "function",
      "constant": true
    },
    {
      "inputs": [
        {
          "internalType": "uint256",
          "name": "tokenId",
          "type": "uint256"
        }
      ],
      "name": "tokenURI",
      "outputs": [
        {
          "internalType": "string",
          "name": "",
          "type": "string"
        }
      ],
      "stateMutability": "view",
      "type": "function",
      "constant": true
    },
    {
      "inputs": [
        {
          "internalType": "address",
          "name": "from",
          "type": "address"
        },
        {
          "internalType": "address",
          "name": "to",
          "type": "address"
        },
        {
          "internalType": "uint256",
          "name": "tokenId",
          "type": "uint256"
        }
      ],
      "name": "transferFrom",
      "outputs": [],
      "stateMutability": "nonpayable",
      "type": "function"
    },
    {
      "inputs": [
        {
          "internalType": "address",
          "name": "newOwner",
          "type": "address"
        }
      ],
      "name": "transferOwnership",
      "outputs": [],
      "stateMutability": "nonpayable",
      "type": "function"
    },
    {
      "inputs": [
        {
          "internalType": "uint256",
          "name": "_mintFee",
          "type": "uint256"
        },
        {
          "internalType": "uint256",
          "name": "_healFee",
          "type": "uint256"
        },
        {
          "internalType": "uint256",
          "name": "_fightFee",
          "type": "uint256"
        }
      ],
      "name": "updateFees",
      "outputs": [],
      "stateMutability": "nonpayable",
      "type": "function"
    },
    {
      "inputs": [],
      "name": "withdraw",
      "outputs": [],
      "stateMutability": "nonpayable",
      "type": "function"
    },
    {
      "inputs": [
        {
          "internalType": "enum UnlimitedEvolution.type_character",
          "name": "_typeCharacter",
          "type": "uint8"
        }
      ],
      "name": "createCharacter",
      "outputs": [],
      "stateMutability": "payable",
      "type": "function",
      "payable": true
    },
    {
      "inputs": [
        {
          "internalType": "uint256",
          "name": "_tokenId",
          "type": "uint256"
        }
      ],
      "name": "heal",
      "outputs": [],
      "stateMutability": "payable",
      "type": "function",
      "payable": true
    },
    {
      "inputs": [
        {
          "internalType": "uint256",
          "name": "_myTokenId",
          "type": "uint256"
        },
        {
          "internalType": "uint256",
          "name": "_rivalTokenId",
          "type": "uint256"
        }
      ],
      "name": "fight",
      "outputs": [],
      "stateMutability": "payable",
      "type": "function",
      "payable": true
    },
    {
      "inputs": [
        {
          "internalType": "uint256",
          "name": "_myTokenId",
          "type": "uint256"
        },
        {
          "internalType": "uint256",
          "name": "_rivalTokenId",
          "type": "uint256"
        }
      ],
      "name": "spell",
      "outputs": [],
      "stateMutability": "payable",
      "type": "function",
      "payable": true
    },
    {
      "inputs": [
        {
          "internalType": "uint256",
          "name": "_tokenId",
          "type": "uint256"
        }
      ],
      "name": "getTokenDetails",
      "outputs": [
        {
          "components": [
            {
              "internalType": "uint256",
              "name": "id",
              "type": "uint256"
            },
            {
              "internalType": "uint256",
              "name": "dna",
              "type": "uint256"
            },
            {
              "internalType": "uint256",
              "name": "level",
              "type": "uint256"
            },
            {
              "internalType": "uint256",
              "name": "xp",
              "type": "uint256"
            },
            {
              "internalType": "uint256",
              "name": "hp",
              "type": "uint256"
            },
            {
              "internalType": "uint256",
              "name": "mana",
              "type": "uint256"
            },
            {
              "internalType": "uint256",
              "name": "attack",
              "type": "uint256"
            },
            {
              "internalType": "uint256",
              "name": "armor",
              "type": "uint256"
            },
            {
              "internalType": "uint256",
              "name": "magicAttack",
              "type": "uint256"
            },
            {
              "internalType": "uint256",
              "name": "magicResistance",
              "type": "uint256"
            },
            {
              "internalType": "uint256",
              "name": "lastFight",
              "type": "uint256"
            },
            {
              "internalType": "uint256",
              "name": "lastHeal",
              "type": "uint256"
            },
            {
              "internalType": "enum UnlimitedEvolution.type_character",
              "name": "typeCharacter",
              "type": "uint8"
            }
          ],
          "internalType": "struct UnlimitedEvolution.Character",
          "name": "",
          "type": "tuple"
        }
      ],
      "stateMutability": "view",
      "type": "function",
      "constant": true
    },
    {
      "inputs": [],
      "name": "getMyCharacters",
      "outputs": [
        {
          "components": [
            {
              "internalType": "uint256",
              "name": "id",
              "type": "uint256"
            },
            {
              "internalType": "uint256",
              "name": "dna",
              "type": "uint256"
            },
            {
              "internalType": "uint256",
              "name": "level",
              "type": "uint256"
            },
            {
              "internalType": "uint256",
              "name": "xp",
              "type": "uint256"
            },
            {
              "internalType": "uint256",
              "name": "hp",
              "type": "uint256"
            },
            {
              "internalType": "uint256",
              "name": "mana",
              "type": "uint256"
            },
            {
              "internalType": "uint256",
              "name": "attack",
              "type": "uint256"
            },
            {
              "internalType": "uint256",
              "name": "armor",
              "type": "uint256"
            },
            {
              "internalType": "uint256",
              "name": "magicAttack",
              "type": "uint256"
            },
            {
              "internalType": "uint256",
              "name": "magicResistance",
              "type": "uint256"
            },
            {
              "internalType": "uint256",
              "name": "lastFight",
              "type": "uint256"
            },
            {
              "internalType": "uint256",
              "name": "lastHeal",
              "type": "uint256"
            },
            {
              "internalType": "enum UnlimitedEvolution.type_character",
              "name": "typeCharacter",
              "type": "uint8"
            }
          ],
          "internalType": "struct UnlimitedEvolution.Character[]",
          "name": "",
          "type": "tuple[]"
        }
      ],
      "stateMutability": "view",
      "type": "function",
      "constant": true
    },
    {
      "inputs": [],
      "name": "getOthersCharacters",
      "outputs": [
        {
          "components": [
            {
              "internalType": "uint256",
              "name": "id",
              "type": "uint256"
            },
            {
              "internalType": "uint256",
              "name": "dna",
              "type": "uint256"
            },
            {
              "internalType": "uint256",
              "name": "level",
              "type": "uint256"
            },
            {
              "internalType": "uint256",
              "name": "xp",
              "type": "uint256"
            },
            {
              "internalType": "uint256",
              "name": "hp",
              "type": "uint256"
            },
            {
              "internalType": "uint256",
              "name": "mana",
              "type": "uint256"
            },
            {
              "internalType": "uint256",
              "name": "attack",
              "type": "uint256"
            },
            {
              "internalType": "uint256",
              "name": "armor",
              "type": "uint256"
            },
            {
              "internalType": "uint256",
              "name": "magicAttack",
              "type": "uint256"
            },
            {
              "internalType": "uint256",
              "name": "magicResistance",
              "type": "uint256"
            },
            {
              "internalType": "uint256",
              "name": "lastFight",
              "type": "uint256"
            },
            {
              "internalType": "uint256",
              "name": "lastHeal",
              "type": "uint256"
            },
            {
              "internalType": "enum UnlimitedEvolution.type_character",
              "name": "typeCharacter",
              "type": "uint8"
            }
          ],
          "internalType": "struct UnlimitedEvolution.Character[]",
          "name": "",
          "type": "tuple[]"
        }
      ],
      "stateMutability": "view",
      "type": "function",
      "constant": true
    }
  ],
  "bytecode": "0x608060405266038d7ea4c680006008556509184e72a0006009556509184e72a000600a553480156200003057600080fd5b506040518060400160405280601281526020017f556e6c696d6974656445766f6c7574696f6e00000000000000000000000000008152506040518060400160405280600381526020017f55455600000000000000000000000000000000000000000000000000000000008152508160009080519060200190620000b5929190620001d7565b508060019080519060200190620000ce929190620001d7565b50505062000103620000ee62000109640100000000026401000000009004565b62000111640100000000026401000000009004565b620002ec565b600033905090565b6000600660009054906101000a900473ffffffffffffffffffffffffffffffffffffffff16905081600660006101000a81548173ffffffffffffffffffffffffffffffffffffffff021916908373ffffffffffffffffffffffffffffffffffffffff1602179055508173ffffffffffffffffffffffffffffffffffffffff168173ffffffffffffffffffffffffffffffffffffffff167f8be0079c531659141344cd1fd0a4f28419497f9722a3daafe3b4186f6b6457e060405160405180910390a35050565b828054620001e590620002b6565b90600052602060002090601f01602090048101928262000209576000855562000255565b82601f106200022457805160ff191683800117855562000255565b8280016001018555821562000255579182015b828111156200025457825182559160200191906001019062000237565b5b50905062000264919062000268565b5090565b5b808211156200028357600081600090555060010162000269565b5090565b7f4e487b7100000000000000000000000000000000000000000000000000000000600052602260045260246000fd5b60006002820490506001821680620002cf57607f821691505b60208210811415620002e657620002e562000287565b5b50919050565b6152c680620002fc6000396000f3fe608060405260043610610183576000357c01000000000000000000000000000000000000000000000000000000009004806370a08231116100ee578063b88d4fde116100a7578063ca39e5ef11610081578063ca39e5ef14610529578063e985e9c514610545578063f2fde38b14610582578063f37ac61c146105ab57610183565b8063b88d4fde14610486578063c1e03728146104af578063c87b56dd146104ec57610183565b806370a0823114610397578063715018a6146103d45780638da5cb5b146103eb57806395d89b4114610416578063a22cb46514610441578063b57da3b11461046a57610183565b806323b872dd1161014057806323b872dd1461029b5780633c4739d3146102c45780633ccfd60b146102ef57806342842e0e146103065780634fb97a101461032f5780636352211e1461035a57610183565b806301ffc9a71461018857806306fdde03146101c5578063081812fc146101f0578063095ea7b31461022d5780630f590e07146102565780632242908514610272575b600080fd5b34801561019457600080fd5b506101af60048036038101906101aa9190613626565b6105c7565b6040516101bc919061366e565b60405180910390f35b3480156101d157600080fd5b506101da6106a9565b6040516101e79190613722565b60405180910390f35b3480156101fc57600080fd5b506102176004803603810190610212919061377a565b61073b565b60405161022491906137e8565b60405180910390f35b34801561023957600080fd5b50610254600480360381019061024f919061382f565b6107c0565b005b610270600480360381019061026b919061386f565b6108d8565b005b34801561027e57600080fd5b50610299600480360381019061029491906138af565b610c2b565b005b3480156102a757600080fd5b506102c260048036038101906102bd9190613902565b610cc1565b005b3480156102d057600080fd5b506102d9610d21565b6040516102e69190613b96565b60405180910390f35b3480156102fb57600080fd5b50610304610eeb565b005b34801561031257600080fd5b5061032d60048036038101906103289190613902565b610fce565b005b34801561033b57600080fd5b50610344610fee565b6040516103519190613b96565b60405180910390f35b34801561036657600080fd5b50610381600480360381019061037c919061377a565b6111c8565b60405161038e91906137e8565b60405180910390f35b3480156103a357600080fd5b506103be60048036038101906103b99190613bb8565b61127a565b6040516103cb9190613bf4565b60405180910390f35b3480156103e057600080fd5b506103e9611332565b005b3480156103f757600080fd5b506104006113ba565b60405161040d91906137e8565b60405180910390f35b34801561042257600080fd5b5061042b6113e4565b6040516104389190613722565b60405180910390f35b34801561044d57600080fd5b5061046860048036038101906104639190613c3b565b611476565b005b610484600480360381019061047f9190613ca0565b61148c565b005b34801561049257600080fd5b506104ad60048036038101906104a89190613e02565b611a8a565b005b3480156104bb57600080fd5b506104d660048036038101906104d1919061377a565b611aec565b6040516104e39190613f90565b60405180910390f35b3480156104f857600080fd5b50610513600480360381019061050e919061377a565b611bcd565b6040516105209190613722565b60405180910390f35b610543600480360381019061053e919061386f565b611c74565b005b34801561055157600080fd5b5061056c60048036038101906105679190613fac565b611f44565b604051610579919061366e565b60405180910390f35b34801561058e57600080fd5b506105a960048036038101906105a49190613bb8565b611fd8565b005b6105c560048036038101906105c0919061377a565b6120d0565b005b60007f80ac58cd000000000000000000000000000000000000000000000000000000007bffffffffffffffffffffffffffffffffffffffffffffffffffffffff1916827bffffffffffffffffffffffffffffffffffffffffffffffffffffffff1916148061069257507f5b5e139f000000000000000000000000000000000000000000000000000000007bffffffffffffffffffffffffffffffffffffffffffffffffffffffff1916827bffffffffffffffffffffffffffffffffffffffffffffffffffffffff1916145b806106a257506106a18261233a565b5b9050919050565b6060600080546106b89061401b565b80601f01602080910402602001604051908101604052809291908181526020018280546106e49061401b565b80156107315780601f1061070657610100808354040283529160200191610731565b820191906000526020600020905b81548152906001019060200180831161071457829003601f168201915b5050505050905090565b6000610746826123a4565b610785576040517f08c379a000000000000000000000000000000000000000000000000000000000815260040161077c906140bf565b60405180910390fd5b6004600083815260200190815260200160002060009054906101000a900473ffffffffffffffffffffffffffffffffffffffff169050919050565b60006107cb826111c8565b90508073ffffffffffffffffffffffffffffffffffffffff168373ffffffffffffffffffffffffffffffffffffffff16141561083c576040517f08c379a000000000000000000000000000000000000000000000000000000000815260040161083390614151565b60405180910390fd5b8073ffffffffffffffffffffffffffffffffffffffff1661085b612410565b73ffffffffffffffffffffffffffffffffffffffff16148061088a575061088981610884612410565b611f44565b5b6108c9576040517f08c379a00000000000000000000000000000000000000000000000000000000081526004016108c0906141e3565b60405180910390fd5b6108d38383612418565b505050565b600a54341461091c576040517f08c379a00000000000000000000000000000000000000000000000000000000081526004016109139061424f565b60405180910390fd5b3373ffffffffffffffffffffffffffffffffffffffff1661093c836111c8565b73ffffffffffffffffffffffffffffffffffffffff1614610992576040517f08c379a0000000000000000000000000000000000000000000000000000000008152600401610989906142bb565b60405180910390fd5b61099b816111c8565b73ffffffffffffffffffffffffffffffffffffffff166109ba836111c8565b73ffffffffffffffffffffffffffffffffffffffff161415610a11576040517f08c379a0000000000000000000000000000000000000000000000000000000008152600401610a089061434d565b60405180910390fd5b42603c600b6000858152602001908152602001600020600a0154610a35919061439c565b10610a75576040517f08c379a0000000000000000000000000000000000000000000000000000000008152600401610a6c9061443e565b60405180910390fd5b600a600b6000848152602001908152602001600020600501541015610acf576040517f08c379a0000000000000000000000000000000000000000000000000000000008152600401610ac6906144aa565b60405180910390fd5b600b600082815260200190815260200160002060020154600b6000848152602001908152602001600020600201541115610b3e576040517f08c379a0000000000000000000000000000000000000000000000000000000008152600401610b3590614516565b60405180910390fd5b6000600b600084815260200190815260200160002060040154118015610b7a57506000600b600083815260200190815260200160002060040154115b610bb9576040517f08c379a0000000000000000000000000000000000000000000000000000000008152600401610bb090614582565b60405180910390fd5b6000610bc583836124d1565b90506000610bd383856124d1565b9050610bff600a600b6000878152602001908152602001600020600501546125b490919063ffffffff16565b600b600086815260200190815260200160002060050181905550610c25848484846125ca565b50505050565b610c33612410565b73ffffffffffffffffffffffffffffffffffffffff16610c516113ba565b73ffffffffffffffffffffffffffffffffffffffff1614610ca7576040517f08c379a0000000000000000000000000000000000000000000000000000000008152600401610c9e906145ee565b60405180910390fd5b826008819055508160098190555080600a81905550505050565b610cd2610ccc612410565b82612763565b610d11576040517f08c379a0000000000000000000000000000000000000000000000000000000008152600401610d0890614680565b60405180910390fd5b610d1c838383612841565b505050565b6060600080610d2f3361127a565b67ffffffffffffffff811115610d4857610d47613cd7565b5b604051908082528060200260200182016040528015610d8157816020015b610d6e613540565b815260200190600190039081610d665790505b50905060005b600754811015610ee2573373ffffffffffffffffffffffffffffffffffffffff16610db1826111c8565b73ffffffffffffffffffffffffffffffffffffffff161415610ecf57600b6000828152602001908152602001600020604051806101a001604052908160008201548152602001600182015481526020016002820154815260200160038201548152602001600482015481526020016005820154815260200160068201548152602001600782015481526020016008820154815260200160098201548152602001600a8201548152602001600b8201548152602001600c820160009054906101000a900460ff166002811115610e8957610e88613990565b5b6002811115610e9b57610e9a613990565b5b81525050828460ff1681518110610eb557610eb46146a0565b5b60200260200101819052508280610ecb906146dc565b9350505b8080610eda90614706565b915050610d87565b50809250505090565b610ef3612410565b73ffffffffffffffffffffffffffffffffffffffff16610f116113ba565b73ffffffffffffffffffffffffffffffffffffffff1614610f67576040517f08c379a0000000000000000000000000000000000000000000000000000000008152600401610f5e906145ee565b60405180910390fd5b610f6f6113ba565b73ffffffffffffffffffffffffffffffffffffffff166108fc3073ffffffffffffffffffffffffffffffffffffffff16319081150290604051600060405180830381858888f19350505050158015610fcb573d6000803e3d6000fd5b50565b610fe983838360405180602001604052806000815250611a8a565b505050565b6060600080611010610fff3361127a565b6007546125b490919063ffffffff16565b67ffffffffffffffff81111561102957611028613cd7565b5b60405190808252806020026020018201604052801561106257816020015b61104f613540565b8152602001906001900390816110475790505b50905060005b6007548110156111bf573373ffffffffffffffffffffffffffffffffffffffff16611092826111c8565b73ffffffffffffffffffffffffffffffffffffffff16146111ac57600b6000828152602001908152602001600020604051806101a001604052908160008201548152602001600182015481526020016002820154815260200160038201548152602001600482015481526020016005820154815260200160068201548152602001600782015481526020016008820154815260200160098201548152602001600a8201548152602001600b8201548152602001600c820160009054906101000a900460ff16600281111561116957611168613990565b5b600281111561117b5761117a613990565b5b81525050828481518110611192576111916146a0565b5b602002602001018190525082806111a890614706565b9350505b80806111b790614706565b915050611068565b50809250505090565b6000806002600084815260200190815260200160002060009054906101000a900473ffffffffffffffffffffffffffffffffffffffff169050600073ffffffffffffffffffffffffffffffffffffffff168173ffffffffffffffffffffffffffffffffffffffff161415611271576040517f08c379a0000000000000000000000000000000000000000000000000000000008152600401611268906147c1565b60405180910390fd5b80915050919050565b60008073ffffffffffffffffffffffffffffffffffffffff168273ffffffffffffffffffffffffffffffffffffffff1614156112eb576040517f08c379a00000000000000000000000000000000000000000000000000000000081526004016112e290614853565b60405180910390fd5b600360008373ffffffffffffffffffffffffffffffffffffffff1673ffffffffffffffffffffffffffffffffffffffff168152602001908152602001600020549050919050565b61133a612410565b73ffffffffffffffffffffffffffffffffffffffff166113586113ba565b73ffffffffffffffffffffffffffffffffffffffff16146113ae576040517f08c379a00000000000000000000000000000000000000000000000000000000081526004016113a5906145ee565b60405180910390fd5b6113b86000612a9d565b565b6000600660009054906101000a900473ffffffffffffffffffffffffffffffffffffffff16905090565b6060600180546113f39061401b565b80601f016020809104026020016040519081016040528092919081815260200182805461141f9061401b565b801561146c5780601f106114415761010080835404028352916020019161146c565b820191906000526020600020905b81548152906001019060200180831161144f57829003601f168201915b5050505050905090565b611488611481612410565b8383612b63565b5050565b60085434146114d0576040517f08c379a00000000000000000000000000000000000000000000000000000000081526004016114c79061424f565b60405180910390fd5b60056114db3361127a565b1061151b576040517f08c379a0000000000000000000000000000000000000000000000000000000008152600401611512906148bf565b60405180910390fd5b6000600281111561152f5761152e613990565b5b81600281111561154257611541613990565b5b148061157257506001600281111561155d5761155c613990565b5b8160028111156115705761156f613990565b5b145b806115a0575060028081111561158b5761158a613990565b5b81600281111561159e5761159d613990565b5b145b6115df576040517f08c379a00000000000000000000000000000000000000000000000000000000081526004016115d690614951565b60405180910390fd5b60006115f1662386f26fc10000612cd0565b90506000600281111561160757611606613990565b5b82600281111561161a57611619613990565b5b141561175b57604051806101a001604052806007548152602001828152602001600181526020016001815260200160648152602001600a8152602001600581526020016003815260200160018152602001600181526020014281526020014281526020016000600281111561169257611691613990565b5b815250600b60006007548152602001908152602001600020600082015181600001556020820151816001015560408201518160020155606082015181600301556080820151816004015560a0820151816005015560c0820151816006015560e082015181600701556101008201518160080155610120820151816009015561014082015181600a015561016082015181600b015561018082015181600c0160006101000a81548160ff0219169083600281111561175257611751613990565b5b02179055509050505b6001600281111561176f5761176e613990565b5b82600281111561178257611781613990565b5b14156118c357604051806101a0016040528060075481526020018281526020016001815260200160018152602001606481526020016064815260200160018152602001600181526020016005815260200160038152602001428152602001428152602001600160028111156117fa576117f9613990565b5b815250600b60006007548152602001908152602001600020600082015181600001556020820151816001015560408201518160020155606082015181600301556080820151816004015560a0820151816005015560c0820151816006015560e082015181600701556101008201518160080155610120820151816009015561014082015181600a015561016082015181600b015561018082015181600c0160006101000a81548160ff021916908360028111156118ba576118b9613990565b5b02179055509050505b6002808111156118d6576118d5613990565b5b8260028111156118e9576118e8613990565b5b1415611a2957604051806101a00160405280600754815260200182815260200160018152602001600181526020016064815260200160328152602001600281526020016002815260200160038152602001600381526020014281526020014281526020016002808111156119605761195f613990565b5b815250600b60006007548152602001908152602001600020600082015181600001556020820151816001015560408201518160020155606082015181600301556080820151816004015560a0820151816005015560c0820151816006015560e082015181600701556101008201518160080155610120820151816009015561014082015181600a015561016082015181600b015561018082015181600c0160006101000a81548160ff02191690836002811115611a2057611a1f613990565b5b02179055509050505b611a3533600754612d1d565b7f7f0777865312bae358531b42d9c405a59bfd31beba1973946dc0ce134cad418a600754604051611a669190613bf4565b60405180910390a160076000815480929190611a8190614706565b91905055505050565b611a9b611a95612410565b83612763565b611ada576040517f08c379a0000000000000000000000000000000000000000000000000000000008152600401611ad190614680565b60405180910390fd5b611ae684848484612d3b565b50505050565b611af4613540565b600b6000838152602001908152602001600020604051806101a001604052908160008201548152602001600182015481526020016002820154815260200160038201548152602001600482015481526020016005820154815260200160068201548152602001600782015481526020016008820154815260200160098201548152602001600a8201548152602001600b8201548152602001600c820160009054906101000a900460ff166002811115611bb057611baf613990565b5b6002811115611bc257611bc1613990565b5b815250509050919050565b6060611bd8826123a4565b611c17576040517f08c379a0000000000000000000000000000000000000000000000000000000008152600401611c0e906149e3565b60405180910390fd5b6000611c21612d97565b90506000815111611c415760405180602001604052806000815250611c6c565b80611c4b84612dae565b604051602001611c5c929190614a3f565b6040516020818303038152906040525b915050919050565b600a543414611cb8576040517f08c379a0000000000000000000000000000000000000000000000000000000008152600401611caf9061424f565b60405180910390fd5b3373ffffffffffffffffffffffffffffffffffffffff16611cd8836111c8565b73ffffffffffffffffffffffffffffffffffffffff1614611d2e576040517f08c379a0000000000000000000000000000000000000000000000000000000008152600401611d25906142bb565b60405180910390fd5b611d37816111c8565b73ffffffffffffffffffffffffffffffffffffffff16611d56836111c8565b73ffffffffffffffffffffffffffffffffffffffff161415611dad576040517f08c379a0000000000000000000000000000000000000000000000000000000008152600401611da49061434d565b60405180910390fd5b42603c600b6000858152602001908152602001600020600a0154611dd1919061439c565b10611e11576040517f08c379a0000000000000000000000000000000000000000000000000000000008152600401611e089061443e565b60405180910390fd5b600b600082815260200190815260200160002060020154600b6000848152602001908152602001600020600201541115611e80576040517f08c379a0000000000000000000000000000000000000000000000000000000008152600401611e7790614516565b60405180910390fd5b6000600b600084815260200190815260200160002060040154118015611ebc57506000600b600083815260200190815260200160002060040154115b611efb576040517f08c379a0000000000000000000000000000000000000000000000000000000008152600401611ef290614582565b60405180910390fd5b42600b6000848152602001908152602001600020600a01819055506000611f228383612f2e565b90506000611f308385612f2e565b9050611f3e848484846125ca565b50505050565b6000600560008473ffffffffffffffffffffffffffffffffffffffff1673ffffffffffffffffffffffffffffffffffffffff16815260200190815260200160002060008373ffffffffffffffffffffffffffffffffffffffff1673ffffffffffffffffffffffffffffffffffffffff16815260200190815260200160002060009054906101000a900460ff16905092915050565b611fe0612410565b73ffffffffffffffffffffffffffffffffffffffff16611ffe6113ba565b73ffffffffffffffffffffffffffffffffffffffff1614612054576040517f08c379a000000000000000000000000000000000000000000000000000000000815260040161204b906145ee565b60405180910390fd5b600073ffffffffffffffffffffffffffffffffffffffff168173ffffffffffffffffffffffffffffffffffffffff1614156120c4576040517f08c379a00000000000000000000000000000000000000000000000000000000081526004016120bb90614ad5565b60405180910390fd5b6120cd81612a9d565b50565b6009543414612114576040517f08c379a000000000000000000000000000000000000000000000000000000000815260040161210b9061424f565b60405180910390fd5b3373ffffffffffffffffffffffffffffffffffffffff16612134826111c8565b73ffffffffffffffffffffffffffffffffffffffff161461218a576040517f08c379a0000000000000000000000000000000000000000000000000000000008152600401612181906142bb565b60405180910390fd5b42603c600b6000848152602001908152602001600020600b01546121ae919061439c565b106121ee576040517f08c379a00000000000000000000000000000000000000000000000000000000081526004016121e590614b41565b60405180910390fd5b6064600b60008381526020019081526020016000206004015410612247576040517f08c379a000000000000000000000000000000000000000000000000000000000815260040161223e90614bd3565b60405180910390fd5b42600b6000838152602001908152602001600020600b0181905550600061228e6032600b60008581526020019081526020016000206004015461301190919063ffffffff16565b905060648111156122ba576064600b6000848152602001908152602001600020600401819055506122ff565b6122e46032600b60008581526020019081526020016000206004015461301190919063ffffffff16565b600b6000848152602001908152602001600020600401819055505b7f8379605eab0a1d9aab85917b4375ba70864307e4d75406a1a2e05dd600c1629a8260405161232e9190613bf4565b60405180910390a15050565b60007f01ffc9a7000000000000000000000000000000000000000000000000000000007bffffffffffffffffffffffffffffffffffffffffffffffffffffffff1916827bffffffffffffffffffffffffffffffffffffffffffffffffffffffff1916149050919050565b60008073ffffffffffffffffffffffffffffffffffffffff166002600084815260200190815260200160002060009054906101000a900473ffffffffffffffffffffffffffffffffffffffff1673ffffffffffffffffffffffffffffffffffffffff1614159050919050565b600033905090565b816004600083815260200190815260200160002060006101000a81548173ffffffffffffffffffffffffffffffffffffffff021916908373ffffffffffffffffffffffffffffffffffffffff160217905550808273ffffffffffffffffffffffffffffffffffffffff1661248b836111c8565b73ffffffffffffffffffffffffffffffffffffffff167f8c5be1e5ebec7d5bd14f71427d1e84f3dd0314c0f7b2291e5b200ac8c7c3b92560405160405180910390a45050565b60008061251f600b60008681526020019081526020016000206003015460016124fa919061439c565b600b60008781526020019081526020016000206008015461302790919063ffffffff16565b9050600061258161255c6002600b600088815260200190815260200160002060030154600161254e919061439c565b61303d90919063ffffffff16565b600b60008781526020019081526020016000206009015461302790919063ffffffff16565b905080821015612596576000925050506125ae565b6125a981836125b490919063ffffffff16565b925050505b92915050565b600081836125c29190614bf3565b905092915050565b600b6000848152602001908152602001600020600401548210612611576000600b60008581526020019081526020016000206004018190555061260c84613053565b612720565b61263a82600b6000868152602001908152602001600020600401546125b490919063ffffffff16565b600b600085815260200190815260200160002060040181905550600b600085815260200190815260200160002060040154811061269b576000600b60008681526020019081526020016000206004018190555061269683613053565b61271f565b6126c481600b6000878152602001908152602001600020600401546125b490919063ffffffff16565b600b600086815260200190815260200160002060040181905550808211156126f4576126ef84613053565b61271e565b8181111561270a5761270583613053565b61271d565b61271384613053565b61271c83613053565b5b5b5b5b7f8c796248b1f953c9c8c0ed19eddf3a98eebe2c84390fe57e75f222dc677a1411848484846040516127559493929190614c27565b60405180910390a150505050565b600061276e826123a4565b6127ad576040517f08c379a00000000000000000000000000000000000000000000000000000000081526004016127a490614cde565b60405180910390fd5b60006127b8836111c8565b90508073ffffffffffffffffffffffffffffffffffffffff168473ffffffffffffffffffffffffffffffffffffffff16148061282757508373ffffffffffffffffffffffffffffffffffffffff1661280f8461073b565b73ffffffffffffffffffffffffffffffffffffffff16145b8061283857506128378185611f44565b5b91505092915050565b8273ffffffffffffffffffffffffffffffffffffffff16612861826111c8565b73ffffffffffffffffffffffffffffffffffffffff16146128b7576040517f08c379a00000000000000000000000000000000000000000000000000000000081526004016128ae90614d70565b60405180910390fd5b600073ffffffffffffffffffffffffffffffffffffffff168273ffffffffffffffffffffffffffffffffffffffff161415612927576040517f08c379a000000000000000000000000000000000000000000000000000000000815260040161291e90614e02565b60405180910390fd5b612932838383613129565b61293d600082612418565b6001600360008573ffffffffffffffffffffffffffffffffffffffff1673ffffffffffffffffffffffffffffffffffffffff168152602001908152602001600020600082825461298d9190614bf3565b925050819055506001600360008473ffffffffffffffffffffffffffffffffffffffff1673ffffffffffffffffffffffffffffffffffffffff16815260200190815260200160002060008282546129e4919061439c565b92505081905550816002600083815260200190815260200160002060006101000a81548173ffffffffffffffffffffffffffffffffffffffff021916908373ffffffffffffffffffffffffffffffffffffffff160217905550808273ffffffffffffffffffffffffffffffffffffffff168473ffffffffffffffffffffffffffffffffffffffff167fddf252ad1be2c89b69c2b068fc378daa952ba7f163c4a11628f55a4df523b3ef60405160405180910390a4505050565b6000600660009054906101000a900473ffffffffffffffffffffffffffffffffffffffff16905081600660006101000a81548173ffffffffffffffffffffffffffffffffffffffff021916908373ffffffffffffffffffffffffffffffffffffffff1602179055508173ffffffffffffffffffffffffffffffffffffffff168173ffffffffffffffffffffffffffffffffffffffff167f8be0079c531659141344cd1fd0a4f28419497f9722a3daafe3b4186f6b6457e060405160405180910390a35050565b8173ffffffffffffffffffffffffffffffffffffffff168373ffffffffffffffffffffffffffffffffffffffff161415612bd2576040517f08c379a0000000000000000000000000000000000000000000000000000000008152600401612bc990614e6e565b60405180910390fd5b80600560008573ffffffffffffffffffffffffffffffffffffffff1673ffffffffffffffffffffffffffffffffffffffff16815260200190815260200160002060008473ffffffffffffffffffffffffffffffffffffffff1673ffffffffffffffffffffffffffffffffffffffff16815260200190815260200160002060006101000a81548160ff0219169083151502179055508173ffffffffffffffffffffffffffffffffffffffff168373ffffffffffffffffffffffffffffffffffffffff167f17307eab39ab6107e8899845ad3d59bd9653f200f220920489ca2b5937696c3183604051612cc3919061366e565b60405180910390a3505050565b6000804233604051602001612ce6929190614f03565b60405160208183030381529060405280519060200120600190049050612d15838261312e90919063ffffffff16565b915050919050565b612d37828260405180602001604052806000815250613144565b5050565b612d46848484612841565b612d528484848461319f565b612d91576040517f08c379a0000000000000000000000000000000000000000000000000000000008152600401612d8890614fa1565b60405180910390fd5b50505050565b606060405180602001604052806000815250905090565b60606000821415612df6576040518060400160405280600181526020017f30000000000000000000000000000000000000000000000000000000000000008152509050612f29565b600082905060005b60008214612e28578080612e1190614706565b915050600a82612e219190614ff0565b9150612dfe565b60008167ffffffffffffffff811115612e4457612e43613cd7565b5b6040519080825280601f01601f191660200182016040528015612e765781602001600182028036833780820191505090505b5090505b60008514612f2257600182612e8f9190614bf3565b9150600a85612e9e9190615021565b6030612eaa919061439c565b7f010000000000000000000000000000000000000000000000000000000000000002818381518110612edf57612ede6146a0565b5b60200101907effffffffffffffffffffffffffffffffffffffffffffffffffffffffffffff1916908160001a905350600a85612f1b9190614ff0565b9450612e7a565b8093505050505b919050565b600080612f7c600b6000868152602001908152602001600020600301546001612f57919061439c565b600b60008781526020019081526020016000206006015461302790919063ffffffff16565b90506000612fde612fb96002600b6000888152602001908152602001600020600301546001612fab919061439c565b61303d90919063ffffffff16565b600b60008781526020019081526020016000206007015461302790919063ffffffff16565b905080821015612ff35760009250505061300b565b61300681836125b490919063ffffffff16565b925050505b92915050565b6000818361301f919061439c565b905092915050565b600081836130359190615052565b905092915050565b6000818361304b9190614ff0565b905092915050565b600b6000828152602001908152602001600020600301600081548092919061307a90614706565b91905055506000600a600b6000848152602001908152602001600020600301546130a49190615021565b141561312657600b600082815260200190815260200160002060020160008154809291906130d190614706565b91905055507f3b7ca85b5e3d1ebb3a81e8d9e27bfeb9ef2f447026c115421132a20b0733b73f81600b60008481526020019081526020016000206002015460405161311d9291906150ac565b60405180910390a15b50565b505050565b6000818361313c9190615021565b905092915050565b61314e838361335f565b61315b600084848461319f565b61319a576040517f08c379a000000000000000000000000000000000000000000000000000000000815260040161319190614fa1565b60405180910390fd5b505050565b60006131c08473ffffffffffffffffffffffffffffffffffffffff1661352d565b15613352578373ffffffffffffffffffffffffffffffffffffffff1663150b7a026131e9612410565b8786866040518563ffffffff167c0100000000000000000000000000000000000000000000000000000000028152600401613227949392919061512a565b6020604051808303816000875af192505050801561326357506040513d601f19601f82011682018060405250810190613260919061518b565b60015b6132e6573d8060008114613293576040519150601f19603f3d011682016040523d82523d6000602084013e613298565b606091505b506000815114156132de576040517f08c379a00000000000000000000000000000000000000000000000000000000081526004016132d590614fa1565b60405180910390fd5b805181602001fd5b63150b7a027c0100000000000000000000000000000000000000000000000000000000027bffffffffffffffffffffffffffffffffffffffffffffffffffffffff1916817bffffffffffffffffffffffffffffffffffffffffffffffffffffffff191614915050613357565b600190505b949350505050565b600073ffffffffffffffffffffffffffffffffffffffff168273ffffffffffffffffffffffffffffffffffffffff1614156133cf576040517f08c379a00000000000000000000000000000000000000000000000000000000081526004016133c690615204565b60405180910390fd5b6133d8816123a4565b15613418576040517f08c379a000000000000000000000000000000000000000000000000000000000815260040161340f90615270565b60405180910390fd5b61342460008383613129565b6001600360008473ffffffffffffffffffffffffffffffffffffffff1673ffffffffffffffffffffffffffffffffffffffff1681526020019081526020016000206000828254613474919061439c565b92505081905550816002600083815260200190815260200160002060006101000a81548173ffffffffffffffffffffffffffffffffffffffff021916908373ffffffffffffffffffffffffffffffffffffffff160217905550808273ffffffffffffffffffffffffffffffffffffffff16600073ffffffffffffffffffffffffffffffffffffffff167fddf252ad1be2c89b69c2b068fc378daa952ba7f163c4a11628f55a4df523b3ef60405160405180910390a45050565b600080823b905060008111915050919050565b604051806101a00160405280600081526020016000815260200160008152602001600081526020016000815260200160008152602001600081526020016000815260200160008152602001600081526020016000815260200160008152602001600060028111156135b4576135b3613990565b5b81525090565b6000604051905090565b600080fd5b600080fd5b60007fffffffff0000000000000000000000000000000000000000000000000000000082169050919050565b613603816135ce565b811461360e57600080fd5b50565b600081359050613620816135fa565b92915050565b60006020828403121561363c5761363b6135c4565b5b600061364a84828501613611565b91505092915050565b60008115159050919050565b61366881613653565b82525050565b6000602082019050613683600083018461365f565b92915050565b600081519050919050565b600082825260208201905092915050565b60005b838110156136c35780820151818401526020810190506136a8565b838111156136d2576000848401525b50505050565b6000601f19601f8301169050919050565b60006136f482613689565b6136fe8185613694565b935061370e8185602086016136a5565b613717816136d8565b840191505092915050565b6000602082019050818103600083015261373c81846136e9565b905092915050565b6000819050919050565b61375781613744565b811461376257600080fd5b50565b6000813590506137748161374e565b92915050565b6000602082840312156137905761378f6135c4565b5b600061379e84828501613765565b91505092915050565b600073ffffffffffffffffffffffffffffffffffffffff82169050919050565b60006137d2826137a7565b9050919050565b6137e2816137c7565b82525050565b60006020820190506137fd60008301846137d9565b92915050565b61380c816137c7565b811461381757600080fd5b50565b60008135905061382981613803565b92915050565b60008060408385031215613846576138456135c4565b5b60006138548582860161381a565b925050602061386585828601613765565b9150509250929050565b60008060408385031215613886576138856135c4565b5b600061389485828601613765565b92505060206138a585828601613765565b9150509250929050565b6000806000606084860312156138c8576138c76135c4565b5b60006138d686828701613765565b93505060206138e786828701613765565b92505060406138f886828701613765565b9150509250925092565b60008060006060848603121561391b5761391a6135c4565b5b60006139298682870161381a565b935050602061393a8682870161381a565b925050604061394b86828701613765565b9150509250925092565b600081519050919050565b600082825260208201905092915050565b6000819050602082019050919050565b61398a81613744565b82525050565b7f4e487b7100000000000000000000000000000000000000000000000000000000600052602160045260246000fd5b600381106139d0576139cf613990565b5b50565b60008190506139e1826139bf565b919050565b60006139f1826139d3565b9050919050565b613a01816139e6565b82525050565b6101a082016000820151613a1e6000850182613981565b506020820151613a316020850182613981565b506040820151613a446040850182613981565b506060820151613a576060850182613981565b506080820151613a6a6080850182613981565b5060a0820151613a7d60a0850182613981565b5060c0820151613a9060c0850182613981565b5060e0820151613aa360e0850182613981565b50610100820151613ab8610100850182613981565b50610120820151613acd610120850182613981565b50610140820151613ae2610140850182613981565b50610160820151613af7610160850182613981565b50610180820151613b0c6101808501826139f8565b50505050565b6000613b1e8383613a07565b6101a08301905092915050565b6000602082019050919050565b6000613b4382613955565b613b4d8185613960565b9350613b5883613971565b8060005b83811015613b89578151613b708882613b12565b9750613b7b83613b2b565b925050600181019050613b5c565b5085935050505092915050565b60006020820190508181036000830152613bb08184613b38565b905092915050565b600060208284031215613bce57613bcd6135c4565b5b6000613bdc8482850161381a565b91505092915050565b613bee81613744565b82525050565b6000602082019050613c096000830184613be5565b92915050565b613c1881613653565b8114613c2357600080fd5b50565b600081359050613c3581613c0f565b92915050565b60008060408385031215613c5257613c516135c4565b5b6000613c608582860161381a565b9250506020613c7185828601613c26565b9150509250929050565b60038110613c8857600080fd5b50565b600081359050613c9a81613c7b565b92915050565b600060208284031215613cb657613cb56135c4565b5b6000613cc484828501613c8b565b91505092915050565b600080fd5b600080fd5b7f4e487b7100000000000000000000000000000000000000000000000000000000600052604160045260246000fd5b613d0f826136d8565b810181811067ffffffffffffffff82111715613d2e57613d2d613cd7565b5b80604052505050565b6000613d416135ba565b9050613d4d8282613d06565b919050565b600067ffffffffffffffff821115613d6d57613d6c613cd7565b5b613d76826136d8565b9050602081019050919050565b82818337600083830152505050565b6000613da5613da084613d52565b613d37565b905082815260208101848484011115613dc157613dc0613cd2565b5b613dcc848285613d83565b509392505050565b600082601f830112613de957613de8613ccd565b5b8135613df9848260208601613d92565b91505092915050565b60008060008060808587031215613e1c57613e1b6135c4565b5b6000613e2a8782880161381a565b9450506020613e3b8782880161381a565b9350506040613e4c87828801613765565b925050606085013567ffffffffffffffff811115613e6d57613e6c6135c9565b5b613e7987828801613dd4565b91505092959194509250565b6101a082016000820151613e9c6000850182613981565b506020820151613eaf6020850182613981565b506040820151613ec26040850182613981565b506060820151613ed56060850182613981565b506080820151613ee86080850182613981565b5060a0820151613efb60a0850182613981565b5060c0820151613f0e60c0850182613981565b5060e0820151613f2160e0850182613981565b50610100820151613f36610100850182613981565b50610120820151613f4b610120850182613981565b50610140820151613f60610140850182613981565b50610160820151613f75610160850182613981565b50610180820151613f8a6101808501826139f8565b50505050565b60006101a082019050613fa66000830184613e85565b92915050565b60008060408385031215613fc357613fc26135c4565b5b6000613fd18582860161381a565b9250506020613fe28582860161381a565b9150509250929050565b7f4e487b7100000000000000000000000000000000000000000000000000000000600052602260045260246000fd5b6000600282049050600182168061403357607f821691505b6020821081141561404757614046613fec565b5b50919050565b7f4552433732313a20617070726f76656420717565727920666f72206e6f6e657860008201527f697374656e7420746f6b656e0000000000000000000000000000000000000000602082015250565b60006140a9602c83613694565b91506140b48261404d565b604082019050919050565b600060208201905081810360008301526140d88161409c565b9050919050565b7f4552433732313a20617070726f76616c20746f2063757272656e74206f776e6560008201527f7200000000000000000000000000000000000000000000000000000000000000602082015250565b600061413b602183613694565b9150614146826140df565b604082019050919050565b6000602082019050818103600083015261416a8161412e565b9050919050565b7f4552433732313a20617070726f76652063616c6c6572206973206e6f74206f7760008201527f6e6572206e6f7220617070726f76656420666f7220616c6c0000000000000000602082015250565b60006141cd603883613694565b91506141d882614171565b604082019050919050565b600060208201905081810360008301526141fc816141c0565b9050919050565b7f57726f6e6720616d6f756e74206f662066656573000000000000000000000000600082015250565b6000614239601483613694565b915061424482614203565b602082019050919050565b600060208201905081810360008301526142688161422c565b9050919050565b7f596f75277265206e6f7420746865206f776e6572206f6620746865204e465400600082015250565b60006142a5601f83613694565b91506142b08261426f565b602082019050919050565b600060208201905081810360008301526142d481614298565b9050919050565b7f596f7572204e4654732063616e6e6f742066696768742065616368206f74686560008201527f7200000000000000000000000000000000000000000000000000000000000000602082015250565b6000614337602183613694565b9150614342826142db565b604082019050919050565b600060208201905081810360008301526143668161432a565b9050919050565b7f4e487b7100000000000000000000000000000000000000000000000000000000600052601160045260246000fd5b60006143a782613744565b91506143b283613744565b9250827fffffffffffffffffffffffffffffffffffffffffffffffffffffffffffffffff038211156143e7576143e661436d565b5b828201905092915050565b7f546f20736f6f6e20746f206669676874202831206d696e290000000000000000600082015250565b6000614428601883613694565b9150614433826143f2565b602082019050919050565b600060208201905081810360008301526144578161441b565b9050919050565b7f596f7520646f6e2774206861766520656e6f756768206d616e61000000000000600082015250565b6000614494601a83613694565b915061449f8261445e565b602082019050919050565b600060208201905081810360008301526144c381614487565b9050919050565b7f466967687420736f6d656f6e6520796f7572206f776e2073697a652100000000600082015250565b6000614500601c83613694565b915061450b826144ca565b602082019050919050565b6000602082019050818103600083015261452f816144f3565b9050919050565b7f4f6e65206f6620746865204e4654732069732064656164000000000000000000600082015250565b600061456c601783613694565b915061457782614536565b602082019050919050565b6000602082019050818103600083015261459b8161455f565b9050919050565b7f4f776e61626c653a2063616c6c6572206973206e6f7420746865206f776e6572600082015250565b60006145d8602083613694565b91506145e3826145a2565b602082019050919050565b60006020820190508181036000830152614607816145cb565b9050919050565b7f4552433732313a207472616e736665722063616c6c6572206973206e6f74206f60008201527f776e6572206e6f7220617070726f766564000000000000000000000000000000602082015250565b600061466a603183613694565b91506146758261460e565b604082019050919050565b600060208201905081810360008301526146998161465d565b9050919050565b7f4e487b7100000000000000000000000000000000000000000000000000000000600052603260045260246000fd5b600060ff82169050919050565b60006146e7826146cf565b915060ff8214156146fb576146fa61436d565b5b600182019050919050565b600061471182613744565b91507fffffffffffffffffffffffffffffffffffffffffffffffffffffffffffffffff8214156147445761474361436d565b5b600182019050919050565b7f4552433732313a206f776e657220717565727920666f72206e6f6e657869737460008201527f656e7420746f6b656e0000000000000000000000000000000000000000000000602082015250565b60006147ab602983613694565b91506147b68261474f565b604082019050919050565b600060208201905081810360008301526147da8161479e565b9050919050565b7f4552433732313a2062616c616e636520717565727920666f7220746865207a6560008201527f726f206164647265737300000000000000000000000000000000000000000000602082015250565b600061483d602a83613694565b9150614848826147e1565b604082019050919050565b6000602082019050818103600083015261486c81614830565b9050919050565b7f596f752063616e27742068617665206d6f7265207468616e2035204e46540000600082015250565b60006148a9601e83613694565b91506148b482614873565b602082019050919050565b600060208201905081810360008301526148d88161489c565b9050919050565b7f596f75206d7573742063686f6f7365206265747765656e2062727574652c207360008201527f706972697475616c206f7220656c656d656e7461727900000000000000000000602082015250565b600061493b603683613694565b9150614946826148df565b604082019050919050565b6000602082019050818103600083015261496a8161492e565b9050919050565b7f4552433732314d657461646174613a2055524920717565727920666f72206e6f60008201527f6e6578697374656e7420746f6b656e0000000000000000000000000000000000602082015250565b60006149cd602f83613694565b91506149d882614971565b604082019050919050565b600060208201905081810360008301526149fc816149c0565b9050919050565b600081905092915050565b6000614a1982613689565b614a238185614a03565b9350614a338185602086016136a5565b80840191505092915050565b6000614a4b8285614a0e565b9150614a578284614a0e565b91508190509392505050565b7f4f776e61626c653a206e6577206f776e657220697320746865207a65726f206160008201527f6464726573730000000000000000000000000000000000000000000000000000602082015250565b6000614abf602683613694565b9150614aca82614a63565b604082019050919050565b60006020820190508181036000830152614aee81614ab2565b9050919050565b7f546f20736f6f6e20746f206865616c202831206d696e29000000000000000000600082015250565b6000614b2b601783613694565b9150614b3682614af5565b602082019050919050565b60006020820190508181036000830152614b5a81614b1e565b9050919050565b7f596f752772652063686172616374657220697320616c7265616479206865616c60008201527f6564000000000000000000000000000000000000000000000000000000000000602082015250565b6000614bbd602283613694565b9150614bc882614b61565b604082019050919050565b60006020820190508181036000830152614bec81614bb0565b9050919050565b6000614bfe82613744565b9150614c0983613744565b925082821015614c1c57614c1b61436d565b5b828203905092915050565b6000608082019050614c3c6000830187613be5565b614c496020830186613be5565b614c566040830185613be5565b614c636060830184613be5565b95945050505050565b7f4552433732313a206f70657261746f7220717565727920666f72206e6f6e657860008201527f697374656e7420746f6b656e0000000000000000000000000000000000000000602082015250565b6000614cc8602c83613694565b9150614cd382614c6c565b604082019050919050565b60006020820190508181036000830152614cf781614cbb565b9050919050565b7f4552433732313a207472616e73666572206f6620746f6b656e2074686174206960008201527f73206e6f74206f776e0000000000000000000000000000000000000000000000602082015250565b6000614d5a602983613694565b9150614d6582614cfe565b604082019050919050565b60006020820190508181036000830152614d8981614d4d565b9050919050565b7f4552433732313a207472616e7366657220746f20746865207a65726f2061646460008201527f7265737300000000000000000000000000000000000000000000000000000000602082015250565b6000614dec602483613694565b9150614df782614d90565b604082019050919050565b60006020820190508181036000830152614e1b81614ddf565b9050919050565b7f4552433732313a20617070726f766520746f2063616c6c657200000000000000600082015250565b6000614e58601983613694565b9150614e6382614e22565b602082019050919050565b60006020820190508181036000830152614e8781614e4b565b9050919050565b6000819050919050565b614ea9614ea482613744565b614e8e565b82525050565b60006c0100000000000000000000000082029050919050565b6000614ed382614eaf565b9050919050565b6000614ee582614ec8565b9050919050565b614efd614ef8826137c7565b614eda565b82525050565b6000614f0f8285614e98565b602082019150614f1f8284614eec565b6014820191508190509392505050565b7f4552433732313a207472616e7366657220746f206e6f6e20455243373231526560008201527f63656976657220696d706c656d656e7465720000000000000000000000000000602082015250565b6000614f8b603283613694565b9150614f9682614f2f565b604082019050919050565b60006020820190508181036000830152614fba81614f7e565b9050919050565b7f4e487b7100000000000000000000000000000000000000000000000000000000600052601260045260246000fd5b6000614ffb82613744565b915061500683613744565b92508261501657615015614fc1565b5b828204905092915050565b600061502c82613744565b915061503783613744565b92508261504757615046614fc1565b5b828206905092915050565b600061505d82613744565b915061506883613744565b9250817fffffffffffffffffffffffffffffffffffffffffffffffffffffffffffffffff04831182151516156150a1576150a061436d565b5b828202905092915050565b60006040820190506150c16000830185613be5565b6150ce6020830184613be5565b9392505050565b600081519050919050565b600082825260208201905092915050565b60006150fc826150d5565b61510681856150e0565b93506151168185602086016136a5565b61511f816136d8565b840191505092915050565b600060808201905061513f60008301876137d9565b61514c60208301866137d9565b6151596040830185613be5565b818103606083015261516b81846150f1565b905095945050505050565b600081519050615185816135fa565b92915050565b6000602082840312156151a1576151a06135c4565b5b60006151af84828501615176565b91505092915050565b7f4552433732313a206d696e7420746f20746865207a65726f2061646472657373600082015250565b60006151ee602083613694565b91506151f9826151b8565b602082019050919050565b6000602082019050818103600083015261521d816151e1565b9050919050565b7f4552433732313a20746f6b656e20616c7265616479206d696e74656400000000600082015250565b600061525a601c83613694565b915061526582615224565b602082019050919050565b600060208201905081810360008301526152898161524d565b905091905056fea2646970667358221220b5548a6d7eec9f80d145ae8d8e6063731f030f8db2eb21ffdf4fe5ea8e64732164736f6c634300080a0033",
  "immutableReferences": {},
  "source": "// SPDX-License-Identifier: MIT\r\npragma solidity 0.8.10;\r\n\r\nimport \"@openzeppelin/contracts/token/ERC721/ERC721.sol\";\r\nimport \"@openzeppelin/contracts/access/Ownable.sol\";\r\nimport \"@openzeppelin/contracts/utils/math/SafeMath.sol\";\r\n\r\ncontract UnlimitedEvolution is ERC721, Ownable {\r\n\r\n    constructor() ERC721(\"UnlimitedEvolution\", \"UEV\") {}\r\n\r\n    using SafeMath for uint256;\r\n\r\n    enum type_character { BRUTE, SPIRITUAL, ELEMENTARY }\r\n    uint256 nextId;\r\n    uint256 mintFee = 0.001 ether;\r\n    uint256 healFee = 0.00001 ether;\r\n    uint256 fightFee = 0.00001 ether;\r\n\r\n    struct Character {\r\n        uint256 id;\r\n        uint256 dna;\r\n        uint256 level;\r\n        uint256 xp;\r\n        uint256 hp;\r\n        uint256 mana;\r\n        uint256 attack;\r\n        uint256 armor;\r\n        uint256 magicAttack;\r\n        uint256 magicResistance;\r\n        uint256 lastFight;\r\n        uint256 lastHeal;\r\n        type_character typeCharacter;\r\n    }\r\n\r\n    mapping(uint256 => Character) private _characterDetails;\r\n\r\n    // events\r\n    event CharacterCreated(uint256 id);\r\n    event Healed(uint256 tokenId);\r\n    event Fighted(uint256 myTokenId, uint256 rivalTokenId, uint256 substrateLifeToRival, uint256 substrateLifeToMe);\r\n    event LevelUp(uint256 tokenId, uint256 level);\r\n\r\n    // Helper\r\n    function _generateRandomNum(uint256 _mod) internal view returns(uint256) {\r\n        uint256 randNum = uint256(keccak256(abi.encodePacked(block.timestamp, msg.sender)));\r\n        return randNum.mod(_mod);\r\n    }\r\n    \r\n    function updateFees(uint256 _mintFee, uint256 _healFee, uint256 _fightFee) external onlyOwner() {\r\n        mintFee = _mintFee;\r\n        healFee = _healFee;\r\n        fightFee = _fightFee;\r\n    }\r\n    \r\n    function withdraw() external onlyOwner() {\r\n        payable(owner()).transfer(address(this).balance);\r\n    }\r\n    \r\n    function substrateLife(uint256 id1, uint256 id2) internal view returns(uint256) {\r\n        uint256 op1 = (_characterDetails[id1].attack).mul((1 + _characterDetails[id1].xp));\r\n        uint256 op2 = (_characterDetails[id2].armor).mul(((1 + _characterDetails[id2].xp).div(2)));\r\n        if (op1 < op2) {\r\n            return 0;\r\n        } else {\r\n            return op1.sub(op2);\r\n        }\r\n    }\r\n\r\n    function substrateLifeMagic(uint256 id1, uint256 id2) internal view returns(uint256) {\r\n        uint256 op1 = (_characterDetails[id1].magicAttack).mul((1 + _characterDetails[id1].xp));\r\n        uint256 op2 = (_characterDetails[id2].magicResistance).mul(((1 + _characterDetails[id2].xp).div(2)));\r\n        if (op1 < op2) {\r\n            return 0;\r\n        } else {\r\n            return op1.sub(op2);\r\n        }\r\n    }\r\n\r\n    function XpLevelUp(uint256 _tokenId) internal {\r\n        _characterDetails[_tokenId].xp++;\r\n        if (_characterDetails[_tokenId].xp % 10 == 0) {\r\n            _characterDetails[_tokenId].level++;\r\n            emit LevelUp(_tokenId, _characterDetails[_tokenId].level);\r\n        }\r\n    }\r\n\r\n    function sustrateLifeOperation(uint256 _myTokenId, uint256 _rivalTokenId, uint256 substrateLifeToRival, uint256 substrateLifeToMe) internal {\r\n        if(substrateLifeToRival >= _characterDetails[_rivalTokenId].hp) {\r\n            _characterDetails[_rivalTokenId].hp = 0;\r\n            XpLevelUp(_myTokenId);\r\n        } else {\r\n            _characterDetails[_rivalTokenId].hp = (_characterDetails[_rivalTokenId].hp).sub(substrateLifeToRival);\r\n            if(substrateLifeToMe >= _characterDetails[_myTokenId].hp) {\r\n                _characterDetails[_myTokenId].hp = 0;\r\n                XpLevelUp(_rivalTokenId);\r\n            } else {\r\n                _characterDetails[_myTokenId].hp = (_characterDetails[_myTokenId].hp).sub(substrateLifeToMe);\r\n                if (substrateLifeToRival > substrateLifeToMe) {\r\n                    XpLevelUp(_myTokenId);\r\n                } else if (substrateLifeToMe > substrateLifeToRival) {\r\n                    XpLevelUp(_rivalTokenId);\r\n                } else {\r\n                    XpLevelUp(_myTokenId);\r\n                    XpLevelUp(_rivalTokenId);\r\n                }\r\n            }\r\n        }\r\n        emit Fighted(_myTokenId, _rivalTokenId, substrateLifeToRival, substrateLifeToMe);\r\n    }\r\n\r\n    function createCharacter(type_character _typeCharacter) external payable {\r\n        require(msg.value == mintFee, \"Wrong amount of fees\");\r\n        require(balanceOf(msg.sender) < 5, \"You can't have more than 5 NFT\");\r\n        require(_typeCharacter == type_character.BRUTE || _typeCharacter == type_character.SPIRITUAL || _typeCharacter == type_character.ELEMENTARY,\r\n        \"You must choose between brute, spiritual or elementary\");\r\n        uint256 dna = _generateRandomNum(10**16);\r\n        if (_typeCharacter == type_character.BRUTE) {\r\n            _characterDetails[nextId] = Character(nextId, dna, 1, 1, 100, 10, 5, 3, 1, 1, block.timestamp, block.timestamp, type_character.BRUTE);\r\n        }\r\n        if (_typeCharacter == type_character.SPIRITUAL) {\r\n            _characterDetails[nextId] = Character(nextId, dna, 1, 1, 100, 100, 1, 1, 5, 3, block.timestamp, block.timestamp, type_character.SPIRITUAL);\r\n        }\r\n        if (_typeCharacter == type_character.ELEMENTARY) {\r\n            _characterDetails[nextId] = Character(nextId, dna, 1, 1, 100, 50, 2, 2, 3, 3, block.timestamp, block.timestamp, type_character.ELEMENTARY);\r\n        }\r\n        _safeMint(msg.sender, nextId);\r\n        emit CharacterCreated(nextId);\r\n        nextId++;\r\n    }\r\n\r\n    function heal(uint256 _tokenId) external payable {\r\n        require(msg.value == healFee, \"Wrong amount of fees\");\r\n        require(ownerOf(_tokenId) == msg.sender, \"You're not the owner of the NFT\");\r\n        require(_characterDetails[_tokenId].lastHeal + 60 < block.timestamp, \"To soon to heal (1 min)\");\r\n        require(_characterDetails[_tokenId].hp < 100, \"You're character is already healed\");\r\n        // require(_characterDetails[_tokenId].hp > 0, \"You're NFT is dead\");\r\n        _characterDetails[_tokenId].lastHeal = block.timestamp;\r\n        uint256 tempResult = (_characterDetails[_tokenId].hp).add(50);\r\n        if (tempResult > 100) {\r\n            _characterDetails[_tokenId].hp = 100;\r\n        } else {\r\n            _characterDetails[_tokenId].hp = (_characterDetails[_tokenId].hp).add(50);\r\n        }\r\n        emit Healed(_tokenId);\r\n    }\r\n\r\n    function fight(uint256 _myTokenId, uint256 _rivalTokenId) external payable {\r\n        require(msg.value == fightFee, \"Wrong amount of fees\");\r\n        require(ownerOf(_myTokenId) == msg.sender, \"You're not the owner of the NFT\");\r\n        require(ownerOf(_myTokenId) != ownerOf(_rivalTokenId), \"Your NFTs cannot fight each other\");\r\n        require(_characterDetails[_myTokenId].lastFight + 60 < block.timestamp, \"To soon to fight (1 min)\");\r\n        require(_characterDetails[_myTokenId].level <= _characterDetails[_rivalTokenId].level, \"Fight someone your own size!\");\r\n        require(_characterDetails[_myTokenId].hp > 0 && _characterDetails[_rivalTokenId].hp > 0, \"One of the NFTs is dead\");\r\n        \r\n\r\n        _characterDetails[_myTokenId].lastFight = block.timestamp;\r\n        uint256 substrateLifeToRival = substrateLife(_myTokenId, _rivalTokenId);\r\n        uint256 substrateLifeToMe = substrateLife(_rivalTokenId, _myTokenId);\r\n\r\n        sustrateLifeOperation(_myTokenId, _rivalTokenId, substrateLifeToRival, substrateLifeToMe);\r\n    }\r\n\r\n    function spell(uint256 _myTokenId, uint256 _rivalTokenId) external payable {\r\n        require(msg.value == fightFee, \"Wrong amount of fees\");\r\n        require(ownerOf(_myTokenId) == msg.sender, \"You're not the owner of the NFT\");\r\n        require(ownerOf(_myTokenId) != ownerOf(_rivalTokenId), \"Your NFTs cannot fight each other\");\r\n        require(_characterDetails[_myTokenId].lastFight + 60 < block.timestamp, \"To soon to fight (1 min)\");\r\n        require(_characterDetails[_myTokenId].mana >= 10, \"You don't have enough mana\");\r\n        require(_characterDetails[_myTokenId].level <= _characterDetails[_rivalTokenId].level, \"Fight someone your own size!\");\r\n        require(_characterDetails[_myTokenId].hp > 0 && _characterDetails[_rivalTokenId].hp > 0, \"One of the NFTs is dead\");\r\n\r\n        uint256 substrateLifeToRival = substrateLifeMagic(_myTokenId, _rivalTokenId);\r\n        uint256 substrateLifeToMe = substrateLifeMagic(_rivalTokenId, _myTokenId);\r\n\r\n        _characterDetails[_myTokenId].mana = (_characterDetails[_myTokenId].mana).sub(10);\r\n        sustrateLifeOperation(_myTokenId, _rivalTokenId, substrateLifeToRival, substrateLifeToMe);\r\n    }\r\n\r\n    // Getters\r\n    function getTokenDetails(uint256 _tokenId) external view returns(Character memory) {\r\n        return _characterDetails[_tokenId];\r\n    }\r\n\r\n    function getMyCharacters() external view returns (Character[] memory){\r\n        uint8 count = 0;\r\n        Character[] memory myCharacters = new Character[](balanceOf(msg.sender));\r\n        for (uint256 i = 0; i < nextId; i++) {\r\n            if (ownerOf(i) == msg.sender) {\r\n                myCharacters[count] = _characterDetails[i];\r\n                count++;\r\n            }\r\n        }\r\n        return myCharacters;\r\n    }\r\n\r\n    function getOthersCharacters() external view returns (Character[] memory){\r\n        uint256 count = 0;\r\n        Character[] memory othersCharacters = new Character[](nextId.sub(balanceOf(msg.sender)));\r\n        for (uint256 i = 0; i < nextId; i++) {\r\n            if (ownerOf(i) != msg.sender) {\r\n                othersCharacters[count] = _characterDetails[i];\r\n                count++;\r\n            }\r\n        }\r\n        return othersCharacters;\r\n    }\r\n    \r\n    // // only for TESTS getAllCharacters\r\n    // function getAllCharacters() external view returns (Character[] memory){\r\n    //     Character[] memory allCharacters = new Character[](nextId);\r\n    //     for (uint256 i = 0; i < nextId; i++) {\r\n    //         allCharacters[i] = _characterDetails[i];\r\n    //     }\r\n    //     return allCharacters;\r\n    // }\r\n}\r\n",
  "sourcePath": "D:\\TAF\\Alyra\\ALYRA_PROJET_FINAL\\unlimited_evolution\\contracts\\UnlimitedEvolution.sol",
  "compiler": {
    "name": "solc",
    "version": "0.8.10+commit.fc410830.Emscripten.clang"
  },
  "schemaVersion": "3.4.3",
  "updatedAt": "2021-12-16T16:35:43.299Z",
  "networkType": "ethereum",
  "devdoc": {
    "kind": "dev",
    "methods": {
      "approve(address,uint256)": {
        "details": "See {IERC721-approve}."
      },
      "balanceOf(address)": {
        "details": "See {IERC721-balanceOf}."
      },
      "getApproved(uint256)": {
        "details": "See {IERC721-getApproved}."
      },
      "isApprovedForAll(address,address)": {
        "details": "See {IERC721-isApprovedForAll}."
      },
      "name()": {
        "details": "See {IERC721Metadata-name}."
      },
      "owner()": {
        "details": "Returns the address of the current owner."
      },
      "ownerOf(uint256)": {
        "details": "See {IERC721-ownerOf}."
      },
      "renounceOwnership()": {
        "details": "Leaves the contract without owner. It will not be possible to call `onlyOwner` functions anymore. Can only be called by the current owner. NOTE: Renouncing ownership will leave the contract without an owner, thereby removing any functionality that is only available to the owner."
      },
      "safeTransferFrom(address,address,uint256)": {
        "details": "See {IERC721-safeTransferFrom}."
      },
      "safeTransferFrom(address,address,uint256,bytes)": {
        "details": "See {IERC721-safeTransferFrom}."
      },
      "setApprovalForAll(address,bool)": {
        "details": "See {IERC721-setApprovalForAll}."
      },
      "supportsInterface(bytes4)": {
        "details": "See {IERC165-supportsInterface}."
      },
      "symbol()": {
        "details": "See {IERC721Metadata-symbol}."
      },
      "tokenURI(uint256)": {
        "details": "See {IERC721Metadata-tokenURI}."
      },
      "transferFrom(address,address,uint256)": {
        "details": "See {IERC721-transferFrom}."
      },
      "transferOwnership(address)": {
        "details": "Transfers ownership of the contract to a new account (`newOwner`). Can only be called by the current owner."
      }
    },
    "version": 1
  },
  "userdoc": {
    "kind": "user",
    "methods": {},
    "version": 1
  }
}